{
  "address": "0x8A791620dd6260079BF849Dc5567aDC3F2FdC318",
  "abi": [
    {
      "anonymous": false,
      "inputs": [
        {
          "indexed": true,
          "internalType": "uint256",
          "name": "loanId",
          "type": "uint256"
        },
        {
          "indexed": true,
          "internalType": "bool",
          "name": "isMilestone",
          "type": "bool"
        },
        {
          "indexed": false,
          "internalType": "uint256",
          "name": "milestoneNumber",
          "type": "uint256"
        },
        {
          "indexed": true,
          "internalType": "address",
          "name": "user",
          "type": "address"
        }
      ],
      "name": "ApprovalRequested",
      "type": "event"
    },
    {
      "anonymous": false,
      "inputs": [
        {
          "indexed": true,
          "internalType": "address",
          "name": "registryAddress_",
          "type": "address"
        },
        {
          "indexed": true,
          "internalType": "address",
          "name": "stakingAddress_",
          "type": "address"
        },
        {
          "indexed": true,
          "internalType": "address",
          "name": "user",
          "type": "address"
        }
      ],
      "name": "InitGovernance",
      "type": "event"
    },
    {
      "anonymous": false,
      "inputs": [
        {
          "indexed": true,
          "internalType": "address",
          "name": "previousOwner",
          "type": "address"
        },
        {
          "indexed": true,
          "internalType": "address",
          "name": "newOwner",
          "type": "address"
        }
      ],
      "name": "OwnershipTransferred",
      "type": "event"
    },
    {
      "anonymous": false,
      "inputs": [
        {
          "indexed": true,
          "internalType": "uint256",
          "name": "loanId",
          "type": "uint256"
        },
        {
          "indexed": true,
          "internalType": "uint256",
          "name": "requestId",
          "type": "uint256"
        },
        {
          "indexed": false,
          "internalType": "bool",
          "name": "decision",
          "type": "bool"
        },
        {
          "indexed": true,
          "internalType": "address",
          "name": "user",
          "type": "address"
        }
      ],
      "name": "VotedForRequest",
      "type": "event"
    },
    {
      "inputs": [
        {
          "internalType": "address",
          "name": "",
          "type": "address"
        }
      ],
      "name": "addressToId",
      "outputs": [
        {
          "internalType": "uint256",
          "name": "",
          "type": "uint256"
        }
      ],
      "stateMutability": "view",
      "type": "function"
    },
    {
      "inputs": [
        {
          "internalType": "uint256",
          "name": "",
          "type": "uint256"
        }
      ],
      "name": "amountOfEpochDaoDelegatorsNeededPerEpoch",
      "outputs": [
        {
          "internalType": "uint256",
          "name": "",
          "type": "uint256"
        }
      ],
      "stateMutability": "view",
      "type": "function"
    },
    {
      "inputs": [
        {
          "internalType": "uint256",
          "name": "",
          "type": "uint256"
        }
      ],
      "name": "amountOfEpochDaoMembersNeededPerEpoch",
      "outputs": [
        {
          "internalType": "uint256",
          "name": "",
          "type": "uint256"
        }
      ],
      "stateMutability": "view",
      "type": "function"
    },
    {
      "inputs": [
        {
          "internalType": "uint256",
          "name": "",
          "type": "uint256"
        }
      ],
      "name": "amountOfSubstitutesRequested",
      "outputs": [
        {
          "internalType": "uint256",
          "name": "",
          "type": "uint256"
        }
      ],
      "stateMutability": "view",
      "type": "function"
    },
    {
      "inputs": [
        {
          "internalType": "uint256",
          "name": "",
          "type": "uint256"
        }
      ],
      "name": "approvalRequests",
      "outputs": [
        {
          "internalType": "uint256",
          "name": "loanId",
          "type": "uint256"
        },
        {
          "internalType": "bool",
          "name": "isMilestone",
          "type": "bool"
        },
        {
          "internalType": "uint256",
          "name": "milestoneNumber",
          "type": "uint256"
        },
        {
          "internalType": "uint256",
          "name": "deadlineTimestamp",
          "type": "uint256"
        },
        {
          "internalType": "uint256",
          "name": "approvalsProvided",
          "type": "uint256"
        },
        {
          "internalType": "bool",
          "name": "isApproved",
          "type": "bool"
        },
        {
          "internalType": "uint256",
          "name": "epochSubmitted",
          "type": "uint256"
        }
      ],
      "stateMutability": "view",
      "type": "function"
    },
    {
      "inputs": [
        {
          "internalType": "string",
          "name": "password",
          "type": "string"
        },
        {
          "internalType": "address",
          "name": "daoDelegatorToVoteFor",
          "type": "address"
        }
      ],
      "name": "approveVoteForDaoDelegator",
      "outputs": [],
      "stateMutability": "nonpayable",
      "type": "function"
    },
    {
      "inputs": [
        {
          "internalType": "uint256",
          "name": "",
          "type": "uint256"
        },
        {
          "internalType": "uint256",
          "name": "",
          "type": "uint256"
        }
      ],
      "name": "bannedDelegator",
      "outputs": [
        {
          "internalType": "bool",
          "name": "",
          "type": "bool"
        }
      ],
      "stateMutability": "view",
      "type": "function"
    },
    {
      "inputs": [],
      "name": "checkCronjobs",
      "outputs": [
        {
          "internalType": "bool",
          "name": "",
          "type": "bool"
        }
      ],
      "stateMutability": "nonpayable",
      "type": "function"
    },
    {
      "inputs": [],
      "name": "claimDaoDelegation",
      "outputs": [],
      "stateMutability": "nonpayable",
      "type": "function"
    },
    {
      "inputs": [],
      "name": "claimDaoMembership",
      "outputs": [],
      "stateMutability": "nonpayable",
      "type": "function"
    },
    {
      "inputs": [],
      "name": "claimDaoSubstituteDelegation",
      "outputs": [],
      "stateMutability": "nonpayable",
      "type": "function"
    },
    {
      "inputs": [],
      "name": "cronjobList",
      "outputs": [
        {
          "internalType": "uint256",
          "name": "head",
          "type": "uint256"
        },
        {
          "internalType": "uint256",
          "name": "tail",
          "type": "uint256"
        },
        {
          "internalType": "uint256",
          "name": "size",
          "type": "uint256"
        }
      ],
      "stateMutability": "view",
      "type": "function"
    },
    {
      "inputs": [
        {
          "internalType": "uint256",
          "name": "",
          "type": "uint256"
        }
      ],
      "name": "cronjobs",
      "outputs": [
        {
          "internalType": "enum GovernanceTypesAndStorage.CronjobType",
          "name": "cronjobType",
          "type": "uint8"
        },
        {
          "internalType": "uint256",
          "name": "externalId",
          "type": "uint256"
        }
      ],
      "stateMutability": "view",
      "type": "function"
    },
    {
      "inputs": [],
      "name": "currentEpoch",
      "outputs": [
        {
          "internalType": "uint256",
          "name": "",
          "type": "uint256"
        }
      ],
      "stateMutability": "view",
      "type": "function"
    },
    {
      "inputs": [],
      "name": "daoDelegatorsListForUpcomingEpoch",
      "outputs": [
        {
          "internalType": "uint256",
          "name": "head",
          "type": "uint256"
        },
        {
          "internalType": "uint256",
          "name": "tail",
          "type": "uint256"
        },
        {
          "internalType": "uint256",
          "name": "size",
          "type": "uint256"
        }
      ],
      "stateMutability": "view",
      "type": "function"
    },
    {
      "inputs": [],
      "name": "daoMembersListForUpcomingEpoch",
      "outputs": [
        {
          "internalType": "uint256",
          "name": "head",
          "type": "uint256"
        },
        {
          "internalType": "uint256",
          "name": "tail",
          "type": "uint256"
        },
        {
          "internalType": "uint256",
          "name": "size",
          "type": "uint256"
        }
      ],
      "stateMutability": "view",
      "type": "function"
    },
    {
      "inputs": [],
      "name": "daoSubstituteDelegatorsListForCurrentEpoch",
      "outputs": [
        {
          "internalType": "uint256",
          "name": "head",
          "type": "uint256"
        },
        {
          "internalType": "uint256",
          "name": "tail",
          "type": "uint256"
        },
        {
          "internalType": "uint256",
          "name": "size",
          "type": "uint256"
        }
      ],
      "stateMutability": "view",
      "type": "function"
    },
    {
      "inputs": [],
      "name": "daoSubstituteMembersListForCurrentEpoch",
      "outputs": [
        {
          "internalType": "uint256",
          "name": "head",
          "type": "uint256"
        },
        {
          "internalType": "uint256",
          "name": "tail",
          "type": "uint256"
        },
        {
          "internalType": "uint256",
          "name": "size",
          "type": "uint256"
        }
      ],
      "stateMutability": "view",
      "type": "function"
    },
    {
      "inputs": [
        {
          "internalType": "uint256",
          "name": "",
          "type": "uint256"
        }
      ],
      "name": "epochDaoDelegators",
      "outputs": [
        {
          "internalType": "uint256",
          "name": "head",
          "type": "uint256"
        },
        {
          "internalType": "uint256",
          "name": "tail",
          "type": "uint256"
        },
        {
          "internalType": "uint256",
          "name": "size",
          "type": "uint256"
        }
      ],
      "stateMutability": "view",
      "type": "function"
    },
    {
      "inputs": [
        {
          "internalType": "uint256",
          "name": "",
          "type": "uint256"
        }
      ],
      "name": "epochDaoMembers",
      "outputs": [
        {
          "internalType": "uint256",
          "name": "head",
          "type": "uint256"
        },
        {
          "internalType": "uint256",
          "name": "tail",
          "type": "uint256"
        },
        {
          "internalType": "uint256",
          "name": "size",
          "type": "uint256"
        }
      ],
      "stateMutability": "view",
      "type": "function"
    },
    {
      "inputs": [],
      "name": "getDaoData",
      "outputs": [
        {
          "internalType": "uint256",
          "name": "",
          "type": "uint256"
        },
        {
          "internalType": "uint256",
          "name": "",
          "type": "uint256"
        },
        {
          "internalType": "uint256",
          "name": "",
          "type": "uint256"
        },
        {
          "internalType": "uint256",
          "name": "",
          "type": "uint256"
        },
        {
          "internalType": "uint256",
          "name": "",
          "type": "uint256"
        }
      ],
      "stateMutability": "view",
      "type": "function"
    },
    {
      "inputs": [
        {
          "internalType": "address",
          "name": "",
          "type": "address"
        },
        {
          "internalType": "uint256",
          "name": "",
          "type": "uint256"
        }
      ],
      "name": "hasApprovedForDaoDelegatorPerEpoch",
      "outputs": [
        {
          "internalType": "bool",
          "name": "",
          "type": "bool"
        }
      ],
      "stateMutability": "view",
      "type": "function"
    },
    {
      "inputs": [
        {
          "internalType": "address",
          "name": "",
          "type": "address"
        },
        {
          "internalType": "uint256",
          "name": "",
          "type": "uint256"
        }
      ],
      "name": "hasVotedForDaoDelegatorPerEpoch",
      "outputs": [
        {
          "internalType": "bool",
          "name": "",
          "type": "bool"
        }
      ],
      "stateMutability": "view",
      "type": "function"
    },
    {
      "inputs": [
        {
          "internalType": "address",
          "name": "",
          "type": "address"
        },
        {
          "internalType": "uint256",
          "name": "",
          "type": "uint256"
        }
      ],
      "name": "hasVotedForDaoMemberPerEpoch",
      "outputs": [
        {
          "internalType": "bool",
          "name": "",
          "type": "bool"
        }
      ],
      "stateMutability": "view",
      "type": "function"
    },
    {
      "inputs": [
        {
          "internalType": "address",
          "name": "",
          "type": "address"
        },
        {
          "internalType": "uint256",
          "name": "",
          "type": "uint256"
        }
      ],
      "name": "hasVotedForRequestId",
      "outputs": [
        {
          "internalType": "bool",
          "name": "",
          "type": "bool"
        }
      ],
      "stateMutability": "view",
      "type": "function"
    },
    {
      "inputs": [
        {
          "internalType": "uint256",
          "name": "",
          "type": "uint256"
        }
      ],
      "name": "idToAddress",
      "outputs": [
        {
          "internalType": "address",
          "name": "",
          "type": "address"
        }
      ],
      "stateMutability": "view",
      "type": "function"
    },
    {
      "inputs": [
        {
          "internalType": "address",
          "name": "superDelegator_",
          "type": "address"
        },
        {
          "internalType": "uint256",
          "name": "loanApprovalRequestDuration_",
          "type": "uint256"
        },
        {
          "internalType": "uint256",
          "name": "milestoneApprovalRequestDuration_",
          "type": "uint256"
        },
        {
          "internalType": "uint256",
          "name": "daoUpdateRequestDuration_",
          "type": "uint256"
        },
        {
          "internalType": "uint256",
          "name": "approvalsNeededForRegistryRequest_",
          "type": "uint256"
        },
        {
          "internalType": "uint256",
          "name": "approvalsNeededForGovernanceRequest_",
          "type": "uint256"
        }
      ],
      "name": "initialize",
      "outputs": [],
      "stateMutability": "nonpayable",
      "type": "function"
    },
    {
      "inputs": [
        {
          "internalType": "address",
          "name": "account",
          "type": "address"
        },
        {
          "internalType": "uint256",
          "name": "epoch",
          "type": "uint256"
        }
      ],
      "name": "isDaoAssociated",
      "outputs": [
        {
          "internalType": "bool",
          "name": "",
          "type": "bool"
        },
        {
          "internalType": "bool",
          "name": "",
          "type": "bool"
        },
        {
          "internalType": "uint256",
          "name": "",
          "type": "uint256"
        },
        {
          "internalType": "uint256",
          "name": "",
          "type": "uint256"
        }
      ],
      "stateMutability": "view",
      "type": "function"
    },
    {
      "inputs": [
        {
          "internalType": "address",
          "name": "",
          "type": "address"
        },
        {
          "internalType": "uint256",
          "name": "",
          "type": "uint256"
        }
      ],
      "name": "isEpochDaoDelegator",
      "outputs": [
        {
          "internalType": "bool",
          "name": "",
          "type": "bool"
        }
      ],
      "stateMutability": "view",
      "type": "function"
    },
    {
      "inputs": [
        {
          "internalType": "address",
          "name": "",
          "type": "address"
        },
        {
          "internalType": "uint256",
          "name": "",
          "type": "uint256"
        }
      ],
      "name": "isEpochDaoMember",
      "outputs": [
        {
          "internalType": "bool",
          "name": "",
          "type": "bool"
        }
      ],
      "stateMutability": "view",
      "type": "function"
    },
    {
      "inputs": [
        {
          "internalType": "uint256",
          "name": "amountOfDaoDelegators_",
          "type": "uint256"
        },
        {
          "internalType": "uint256",
          "name": "daoMembershipVotingDuration_",
          "type": "uint256"
        },
        {
          "internalType": "uint256",
          "name": "daoDelegationVotingDuration_",
          "type": "uint256"
        },
        {
          "internalType": "uint256",
          "name": "daoDelegationApprovalDuration_",
          "type": "uint256"
        },
        {
          "internalType": "uint256",
          "name": "daoDelegationSubstituteClaimDuration_",
          "type": "uint256"
        }
      ],
      "name": "openDaoDelegating",
      "outputs": [],
      "stateMutability": "nonpayable",
      "type": "function"
    },
    {
      "inputs": [
        {
          "internalType": "uint256",
          "name": "amountOfDaoMembers_",
          "type": "uint256"
        },
        {
          "internalType": "uint256",
          "name": "daoClaimingDuration_",
          "type": "uint256"
        },
        {
          "internalType": "uint256",
          "name": "daoLateClaimingDuration_",
          "type": "uint256"
        }
      ],
      "name": "openDaoDelegatingSubscriptions",
      "outputs": [],
      "stateMutability": "nonpayable",
      "type": "function"
    },
    {
      "inputs": [],
      "name": "openDaoDelegatingVoting",
      "outputs": [],
      "stateMutability": "nonpayable",
      "type": "function"
    },
    {
      "inputs": [],
      "name": "openDaoMembershipSubscriptions",
      "outputs": [],
      "stateMutability": "nonpayable",
      "type": "function"
    },
    {
      "inputs": [],
      "name": "openDaoMembershipVoting",
      "outputs": [],
      "stateMutability": "nonpayable",
      "type": "function"
    },
    {
      "inputs": [],
      "name": "owner",
      "outputs": [
        {
          "internalType": "address",
          "name": "",
          "type": "address"
        }
      ],
      "stateMutability": "view",
      "type": "function"
    },
    {
      "inputs": [],
      "name": "registry",
      "outputs": [
        {
          "internalType": "contract IRegistry",
          "name": "",
          "type": "address"
        }
      ],
      "stateMutability": "view",
      "type": "function"
    },
    {
      "inputs": [
        {
          "internalType": "uint256",
          "name": "",
          "type": "uint256"
        }
      ],
      "name": "remainingDelegatorIdsToVotePerRequest",
      "outputs": [
        {
          "internalType": "uint256",
          "name": "head",
          "type": "uint256"
        },
        {
          "internalType": "uint256",
          "name": "tail",
          "type": "uint256"
        },
        {
          "internalType": "uint256",
          "name": "size",
          "type": "uint256"
        }
      ],
      "stateMutability": "view",
      "type": "function"
    },
    {
      "inputs": [
        {
          "internalType": "uint256",
          "name": "",
          "type": "uint256"
        }
      ],
      "name": "remainingMemberIdsToVoteForDelegator",
      "outputs": [
        {
          "internalType": "uint256",
          "name": "head",
          "type": "uint256"
        },
        {
          "internalType": "uint256",
          "name": "tail",
          "type": "uint256"
        },
        {
          "internalType": "uint256",
          "name": "size",
          "type": "uint256"
        }
      ],
      "stateMutability": "view",
      "type": "function"
    },
    {
      "inputs": [
        {
          "internalType": "uint256",
          "name": "",
          "type": "uint256"
        }
      ],
      "name": "remainingMemberIdsToVotePerRequest",
      "outputs": [
        {
          "internalType": "uint256",
          "name": "head",
          "type": "uint256"
        },
        {
          "internalType": "uint256",
          "name": "tail",
          "type": "uint256"
        },
        {
          "internalType": "uint256",
          "name": "size",
          "type": "uint256"
        }
      ],
      "stateMutability": "view",
      "type": "function"
    },
    {
      "inputs": [],
      "name": "renounceOwnership",
      "outputs": [],
      "stateMutability": "nonpayable",
      "type": "function"
    },
    {
      "inputs": [
        {
          "internalType": "uint256",
          "name": "loanId",
          "type": "uint256"
        },
        {
          "internalType": "bool",
          "name": "isMilestone",
          "type": "bool"
        },
        {
          "internalType": "uint256",
          "name": "milestoneNumber",
          "type": "uint256"
        }
      ],
      "name": "requestApproval",
      "outputs": [],
      "stateMutability": "nonpayable",
      "type": "function"
    },
    {
      "inputs": [
        {
          "internalType": "uint256",
          "name": "",
          "type": "uint256"
        }
      ],
      "name": "requestsPerEpoch",
      "outputs": [
        {
          "internalType": "uint256",
          "name": "head",
          "type": "uint256"
        },
        {
          "internalType": "uint256",
          "name": "tail",
          "type": "uint256"
        },
        {
          "internalType": "uint256",
          "name": "size",
          "type": "uint256"
        }
      ],
      "stateMutability": "view",
      "type": "function"
    },
    {
      "inputs": [
        {
          "internalType": "uint256",
          "name": "",
          "type": "uint256"
        }
      ],
      "name": "rewardsForDaoDelegatorsPerEpoch",
      "outputs": [
        {
          "internalType": "uint256",
          "name": "",
          "type": "uint256"
        }
      ],
      "stateMutability": "view",
      "type": "function"
    },
    {
      "inputs": [
        {
          "internalType": "uint256",
          "name": "",
          "type": "uint256"
        }
      ],
      "name": "rewardsForDaoMembersPerEpoch",
      "outputs": [
        {
          "internalType": "uint256",
          "name": "",
          "type": "uint256"
        }
      ],
      "stateMutability": "view",
      "type": "function"
    },
    {
      "inputs": [
        {
          "internalType": "address",
          "name": "registryAddress_",
          "type": "address"
        },
        {
          "internalType": "address",
          "name": "stakingAddress_",
          "type": "address"
        }
      ],
      "name": "setRegistryAndStaking",
      "outputs": [],
      "stateMutability": "nonpayable",
      "type": "function"
    },
    {
      "inputs": [],
      "name": "staking",
      "outputs": [
        {
          "internalType": "contract IStaking",
          "name": "",
          "type": "address"
        }
      ],
      "stateMutability": "view",
      "type": "function"
    },
    {
      "inputs": [],
      "name": "subscribeForDaoDelegator",
      "outputs": [],
      "stateMutability": "nonpayable",
      "type": "function"
    },
    {
      "inputs": [],
      "name": "subscribeForDaoMembership",
      "outputs": [],
      "stateMutability": "nonpayable",
      "type": "function"
    },
    {
      "inputs": [
        {
          "internalType": "address",
          "name": "",
          "type": "address"
        }
      ],
      "name": "subscribedForDaoDelegator",
      "outputs": [
        {
          "internalType": "bool",
          "name": "",
          "type": "bool"
        }
      ],
      "stateMutability": "view",
      "type": "function"
    },
    {
      "inputs": [
        {
          "internalType": "address",
          "name": "",
          "type": "address"
        }
      ],
      "name": "subscribedForDaoMembership",
      "outputs": [
        {
          "internalType": "bool",
          "name": "",
          "type": "bool"
        }
      ],
      "stateMutability": "view",
      "type": "function"
    },
    {
      "inputs": [],
      "name": "superDelegator",
      "outputs": [
        {
          "internalType": "address",
          "name": "",
          "type": "address"
        }
      ],
      "stateMutability": "view",
      "type": "function"
    },
    {
      "inputs": [
        {
          "internalType": "uint256",
          "name": "requestId",
          "type": "uint256"
        },
        {
          "internalType": "bool",
          "name": "decision",
          "type": "bool"
        }
      ],
      "name": "superVoteForRequest",
      "outputs": [],
      "stateMutability": "nonpayable",
      "type": "function"
    },
    {
      "inputs": [],
      "name": "totalApprovalRequests",
      "outputs": [
        {
          "internalType": "uint256",
          "name": "",
          "type": "uint256"
        }
      ],
      "stateMutability": "view",
      "type": "function"
    },
    {
      "inputs": [],
      "name": "totalCronjobs",
      "outputs": [
        {
          "internalType": "uint256",
          "name": "",
          "type": "uint256"
        }
      ],
      "stateMutability": "view",
      "type": "function"
    },
    {
      "inputs": [],
      "name": "totalIds",
      "outputs": [
        {
          "internalType": "uint256",
          "name": "",
          "type": "uint256"
        }
      ],
      "stateMutability": "view",
      "type": "function"
    },
    {
      "inputs": [
        {
          "internalType": "address",
          "name": "newOwner",
          "type": "address"
        }
      ],
      "name": "transferOwnership",
      "outputs": [],
      "stateMutability": "nonpayable",
      "type": "function"
    },
    {
      "inputs": [],
      "name": "unsubscribeDaoDelegation",
      "outputs": [],
      "stateMutability": "nonpayable",
      "type": "function"
    },
    {
      "inputs": [],
      "name": "unsubscribeDaoMembership",
      "outputs": [],
      "stateMutability": "nonpayable",
      "type": "function"
    },
    {
      "inputs": [
        {
          "internalType": "bytes32",
          "name": "",
          "type": "bytes32"
        }
      ],
      "name": "updatableVariables",
      "outputs": [
        {
          "internalType": "uint256",
          "name": "",
          "type": "uint256"
        }
      ],
      "stateMutability": "view",
      "type": "function"
    },
    {
      "inputs": [
        {
          "internalType": "bytes32",
          "name": "votingHash",
          "type": "bytes32"
        }
      ],
      "name": "voteForDaoDelegator",
      "outputs": [],
      "stateMutability": "nonpayable",
      "type": "function"
    },
    {
      "inputs": [
        {
          "internalType": "address",
          "name": "daoSubscriberToVoteFor",
          "type": "address"
        }
      ],
      "name": "voteForDaoMember",
      "outputs": [],
      "stateMutability": "nonpayable",
      "type": "function"
    },
    {
      "inputs": [
        {
          "internalType": "uint256",
          "name": "requestId",
          "type": "uint256"
        },
        {
          "internalType": "bool",
          "name": "decision",
          "type": "bool"
        }
      ],
      "name": "voteForRequest",
      "outputs": [],
      "stateMutability": "nonpayable",
      "type": "function"
    },
    {
      "inputs": [
        {
          "internalType": "address",
          "name": "",
          "type": "address"
        },
        {
          "internalType": "uint256",
          "name": "",
          "type": "uint256"
        }
      ],
      "name": "votingHashOfDaoMembersPerEpoch",
      "outputs": [
        {
          "internalType": "bytes32",
          "name": "",
          "type": "bytes32"
        }
      ],
      "stateMutability": "view",
      "type": "function"
    },
    {
      "inputs": [],
      "name": "votingStatusForDaoDelegators",
      "outputs": [
        {
          "internalType": "enum GovernanceTypesAndStorage.VotingStatusDelegators",
          "name": "",
          "type": "uint8"
        }
      ],
      "stateMutability": "view",
      "type": "function"
    },
    {
      "inputs": [],
      "name": "votingStatusForDaoMembers",
      "outputs": [
        {
          "internalType": "enum GovernanceTypesAndStorage.VotingStatusMembers",
          "name": "",
          "type": "uint8"
        }
      ],
      "stateMutability": "view",
      "type": "function"
    }
  ],
  "transactionHash": "0x4a2d519d4f3809b799c48226083bf2610691e60d4aefad18a2e9c22722065080",
  "args": [],
  "solcInputHash": "e60bb0e73d6effd5378c34ac90e2d948",
  "bytecode": "0x608060405234801561001057600080fd5b506154ee806100206000396000f3fe608060405234801561001057600080fd5b50600436106103e65760003560e01c806385abbe8d1161020a578063bb4c8ad111610125578063ef8d351c116100b8578063f3ecbab111610087578063f3ecbab114610baa578063f9d471c114610bb2578063f9e8648014610bba578063f9f6f20414610bc2578063fb819ed714610bca576103e6565b8063ef8d351c14610b57578063f2fde38b14610b5f578063f3722bf314610b85578063f3c003a414610b8d576103e6565b8063dc3ab15f116100f4578063dc3ab15f14610aea578063e710491114610af2578063ec2e00b814610b0f578063ec8cb39414610b3a576103e6565b8063bb4c8ad114610a6a578063cb0e0d7d14610a9f578063d561909914610ac5578063dc1a87ea14610ae2576103e6565b8063967392621161019d578063af5310691161016c578063af53106914610a11578063b1009f9014610a3d578063b3bbce4914610a45578063bae196cf14610a62576103e6565b806396739262146109955780639a164f55146109ba578063a51fba24146109e3578063ab37032d146109eb576103e6565b80638da5cb5b116101d95780638da5cb5b146109365780639383c5141461093e578063944c164514610964578063948214cf1461096c576103e6565b806385abbe8d1461087157806385c822df1461089d5780638cb13c2e146108ba5780638cb75a2414610911576103e6565b80634cf088d91161030557806371800929116102985780637b103999116102675780637b103999146107f55780637baf48fe146107fd5780637d91d056146108055780637f29609f14610822578063802b899214610845576103e6565b8063718009291461077857806374008ef01461079557806375a445ea146107c157806376671808146107ed576103e6565b80636c83caf9116102d45780636c83caf91461072e5780636de33bc41461074b5780636fe2cd7314610753578063715018a614610770576103e6565b80634cf088d9146106d55780634db1f401146106dd578063609b5ab11461070957806366eaedb514610726576103e6565b806334869ee71161037d57806345ff4c801161034c57806345ff4c80146105ed5780634a300bb0146106315780634b6e1ade146106855780634c436dec146106b8576103e6565b806334869ee71461051f57806335e245b814610598578063390a5ba5146105a05780633c96cd2a146105a8576103e6565b806325c5b01c116103b957806325c5b01c1461049b578063270e8b18146104a35780632a2d0c47146104c9578063300481c314610502576103e6565b80630f982ba4146103eb57806311ca2ea61461042b57806319921b271461044557806320ac09c914610475575b600080fd5b6104176004803603604081101561040157600080fd5b506001600160a01b038135169060200135610bd2565b604080519115158252519081900360200190f35b610433610bf2565b60408051918252519081900360200190f35b6104736004803603604081101561045b57600080fd5b506001600160a01b0381358116916020013516610bf8565b005b6104176004803603602081101561048b57600080fd5b50356001600160a01b0316610d18565b610473610d2d565b6104ab610e12565b60408051938452602084019290925282820152519081900360600190f35b6104e6600480360360208110156104df57600080fd5b5035610e1e565b604080516001600160a01b039092168252519081900360200190f35b6104ab6004803603602081101561051857600080fd5b5035610e39565b6104736004803603604081101561053557600080fd5b81019060208101813564010000000081111561055057600080fd5b82018360208201111561056257600080fd5b8035906020019184600183028401116401000000008311171561058457600080fd5b9193509150356001600160a01b0316610e5a565b610417611180565b6104336111d0565b6105c5600480360360208110156105be57600080fd5b50356111d6565b604051808360058111156105d557fe5b81526020018281526020019250505060405180910390f35b610473600480360360c081101561060357600080fd5b506001600160a01b038135169060208101359060408101359060608101359060808101359060a001356111f5565b61065d6004803603604081101561064757600080fd5b506001600160a01b03813516906020013561147f565b6040805194151585529215156020850152838301919091526060830152519081900360800190f35b61068d6114fe565b6040805195865260208601949094528484019290925260608401526080830152519081900360a00190f35b610473600480360360208110156106ce57600080fd5b50356116a4565b6104e6611816565b610417600480360360408110156106f357600080fd5b506001600160a01b038135169060200135611825565b6104336004803603602081101561071f57600080fd5b5035611845565b610433611857565b6104ab6004803603602081101561074457600080fd5b503561185d565b6104ab61187e565b6104ab6004803603602081101561076957600080fd5b503561188a565b6104736118ab565b6104336004803603602081101561078e57600080fd5b5035611957565b610417600480360360408110156107ab57600080fd5b506001600160a01b038135169060200135611969565b610417600480360360408110156107d757600080fd5b506001600160a01b038135169060200135611989565b6104336119a9565b6104e66119af565b6104e66119be565b6104336004803603602081101561081b57600080fd5b50356119cd565b6104176004803603604081101561083857600080fd5b50803590602001356119df565b6104336004803603604081101561085b57600080fd5b506001600160a01b0381351690602001356119ff565b6104176004803603604081101561088757600080fd5b506001600160a01b038135169060200135611a1c565b610433600480360360208110156108b357600080fd5b5035611a3c565b6108d7600480360360208110156108d057600080fd5b5035611a4e565b6040805197885295151560208801528686019490945260608601929092526080850152151560a084015260c0830152519081900360e00190f35b6104736004803603604081101561092757600080fd5b50803590602001351515611a90565b6104e6611ccb565b6104176004803603602081101561095457600080fd5b50356001600160a01b0316611cda565b610473611cef565b6104736004803603606081101561098257600080fd5b5080359060208101359060400135611ee3565b610473600480360360408110156109ab57600080fd5b50803590602001351515612099565b6109c26122ab565b604051808260048111156109d257fe5b815260200191505060405180910390f35b6104736122b9565b61047360048036036020811015610a0157600080fd5b50356001600160a01b0316612332565b61041760048036036040811015610a2757600080fd5b506001600160a01b0381351690602001356125af565b6104736125cf565b61043360048036036020811015610a5b57600080fd5b50356126b3565b6104ab6126c5565b610473600480360360a0811015610a8057600080fd5b50803590602081013590604081013590606081013590608001356126d1565b61043360048036036020811015610ab557600080fd5b50356001600160a01b03166129e7565b6104ab60048036036020811015610adb57600080fd5b50356129f9565b610473612a1a565b610473612bd7565b61043360048036036020811015610b0857600080fd5b5035612c4c565b61047360048036036060811015610b2557600080fd5b50803590602081013515159060400135612c5e565b6104ab60048036036020811015610b5057600080fd5b5035612f20565b610473612f41565b61047360048036036020811015610b7557600080fd5b50356001600160a01b03166130bd565b6104736131c0565b6104ab60048036036020811015610ba357600080fd5b503561328b565b6104ab6132ac565b6104736132b8565b6104ab613330565b61047361333c565b6109c261346c565b606760209081526000928352604080842090915290825290205460ff1681565b60995481565b610c00613475565b6001600160a01b0316610c11611ccb565b6001600160a01b031614610c5a576040805162461bcd60e51b81526020600482018190526024820152600080516020615363833981519152604482015290519081900360640190fd5b608f546001600160a01b031615610cb8576040805162461bcd60e51b815260206004820152601d60248201527f43616e6e6f7420696e697469616c697a65207365636f6e642074696d65000000604482015290519081900360640190fd5b608f80546001600160a01b038085166001600160a01b03199283168117909355609080549185169190921681179091556040513392907fd24d30f1bc85d143afa33cf5c7a331d3d8b2bf17e9b3100844728c8fd21e677790600090a45050565b606d6020526000908152604090205460ff1681565b610d35611180565b50336000908152606660209081526040808320609254845290915290205460ff1615610d925760405162461bcd60e51b81526004018080602001828103825260308152602001806150956030913960400191505060405180910390fd5b336000818152606c6020526040808220805460ff19169055609054815162a6b93960e61b815260048101949094526001602485015290516001600160a01b03909116926329ae4e4092604480830193919282900301818387803b158015610df857600080fd5b505af1158015610e0c573d6000803e3d6000fd5b50505050565b607854607954607a5483565b608b602052600090815260409020546001600160a01b031681565b60826020526000908152604090208054600182015460029092015490919083565b610e62611180565b506002606554610100900460ff166004811115610e7b57fe5b14610eb75760405162461bcd60e51b815260040180806020018281038252603781526020018061517a6037913960400191505060405180910390fd5b8282826040516020018084848082843760609490941b6bffffffffffffffffffffffff19169190930190815260408051808303600b19018152601490920181528151602092830120336000908152608984528281206092548252909352912054149350610f59925050505760405162461bcd60e51b81526004018080602001828103825260248152602001806152ec6024913960400191505060405180910390fd5b6001600160a01b0381166000908152606d602052604090205460ff16610fb05760405162461bcd60e51b81526004018080602001828103825260318152602001806154886031913960400191505060405180910390fd5b6001600160a01b0381166000908152606660209081526040808320609254845290915290205460ff166110145760405162461bcd60e51b81526004018080602001828103825260318152602001806150f26031913960400191505060405180910390fd5b336000908152608860209081526040808320609254845290915290205460ff1615611086576040805162461bcd60e51b815260206004820152601960248201527f43616e6e6f7420617070726f766520766f746520616761696e00000000000000604482015290519081900360640190fd5b336000908152608860209081526040808320609280548552908352818420805460ff191660019081179091556001600160a01b0386168552608a8452828520548552606990935290832090549092916110df9190613479565b815260208101919091526040016000205460ff1661117b576001600160a01b0381166000908152608a60209081526040808320548352607f909152902060020154801561114b576001600160a01b0382166000908152608a602052604090205461114b90607c906134dc565b610e0c611159826001613479565b6001600160a01b0384166000908152608a6020526040902054607c9190613598565b505050565b60008061118d60956137f3565b905080158061119b57508042105b156111aa5760009150506111cd565b6000806111b7609561380d565b915091506111c58282613870565b505060019150505b90565b60915481565b609a602052600090815260409020805460019091015460ff9091169082565b600054610100900460ff168061120e575061120e613a3e565b8061121c575060005460ff16155b6112575760405162461bcd60e51b815260040180806020018281038252602e81526020018061523b602e913960400191505060405180910390fd5b600054610100900460ff16158015611282576000805460ff1961ff0019909116610100171660011790555b61128a613a4f565b608d80546001600160a01b0319166001600160a01b038916179055604080516020808201819052601b828401527f6c6f616e417070726f76616c526571756573744475726174696f6e000000000060608084019190915283518084039091018152608083018452805190820120600090815260948083528482208b905560a0840183905260c084018390527f6d696c6573746f6e65417070726f76616c526571756573744475726174696f6e60e080860191909152855180860390910181526101008501865280519084012082528083528482208a9055610120840183905260186101408501527f64616f557064617465526571756573744475726174696f6e000000000000000061016080860191909152855180860390910181526101808501865280519084012082528083529381208890556101a0830191825260216101c0840181905287949391929182916101e09091019061515982396040019150506040516020818303038152906040528051906020012081526020019081526020016000208190555081609460006040516020018080602001828103825260238152602001806153ae60239139604001915050604051602081830303815290604052805190602001208152602001908152602001600020819055508015611476576000805461ff00191690555b50505050505050565b6001600160a01b03821660008181526066602090815260408083208584528252808320549383526067825280832085845282528083205460849092528220919283928392839260ff908116929116906114d790613b00565b60008881526085602052604090206114ee90613b00565b9299919850965090945092505050565b600080600080600080609060009054906101000a90046001600160a01b03166001600160a01b031663db31af456040518163ffffffff1660e01b815260040160606040518083038186803b15801561155557600080fd5b505afa158015611569573d6000803e3d6000fd5b505050506040513d606081101561157f57600080fd5b50602090810151608c54604080518085019485526021918101829052929450909260949260009282916060019061515982396040805160208184038101825292820182528051908301208552848201959095529284016000908120548551808601869052601b818801527f6c6f616e417070726f76616c526571756573744475726174696f6e000000000060608083019190915287518083039091018152608082018852805190870120835260948087528784205460a0830188905260c083018890527f6d696c6573746f6e65417070726f76616c526571756573744475726174696f6e60e080850191909152895180850390910181526101009093018952825192880192909220845290955294902054949b939a5091985092965092945092505050565b6116ac611180565b506001606554610100900460ff1660048111156116c557fe5b146117015760405162461bcd60e51b815260040180806020018281038252602f815260200180615269602f913960400191505060405180910390fd5b336000908152606660209081526040808320609254845290915290205460ff16611772576040805162461bcd60e51b815260206004820152601960248201527f4f6e6c792064616f206d656d626572732063616e20766f746500000000000000604482015290519081900360640190fd5b336000908152608760209081526040808320609254845290915290205460ff16156117d8576040805162461bcd60e51b815260206004820152601160248201527021b0b73737ba103b37ba329030b3b0b4b760791b604482015290519081900360640190fd5b336000818152608760209081526040808320609280548552908352818420805460ff1916600117905593835260898252808320935483529290522055565b6090546001600160a01b031681565b608660209081526000928352604080842090915290825290205460ff1681565b606b6020526000908152604090205481565b608c5481565b60846020526000908152604090208054600182015460029092015490919083565b60705460715460725483565b60836020526000908152604090208054600182015460029092015490919083565b6118b3613475565b6001600160a01b03166118c4611ccb565b6001600160a01b03161461190d576040805162461bcd60e51b81526020600482018190526024820152600080516020615363833981519152604482015290519081900360640190fd5b6033546040516000916001600160a01b0316907f8be0079c531659141344cd1fd0a4f28419497f9722a3daafe3b4186f6b6457e0908390a3603380546001600160a01b0319169055565b60936020526000908152604090205481565b606660209081526000928352604080842090915290825290205460ff1681565b608760209081526000928352604080842090915290825290205460ff1681565b60925481565b608f546001600160a01b031681565b608d546001600160a01b031681565b606e6020526000908152604090205481565b606960209081526000928352604080842090915290825290205460ff1681565b608960209081526000928352604080842090915290825290205481565b606860209081526000928352604080842090915290825290205460ff1681565b606a6020526000908152604090205481565b608e602052600090815260409020805460018201546002830154600384015460048501546005860154600690960154949560ff94851695939492939192169087565b611a98611180565b50608d546001600160a01b03163314611ae25760405162461bcd60e51b815260040180806020018281038252602b815260200180615383602b913960400191505060405180910390fd5b60016092541115611b245760405162461bcd60e51b815260040180806020018281038252602c815260200180615043602c913960400191505060405180910390fd5b6000828152608e602052604090206001015460ff1615611bbc57608f546000838152608e6020526040808220548151630a88633160e41b81526004810191909152841515602482015290516001600160a01b039093169263a88633109260448084019391929182900301818387803b158015611b9f57600080fd5b505af1158015611bb3573d6000803e3d6000fd5b50505050611c36565b608f546000838152608e6020526040808220548151634f1bef8d60e01b81526004810191909152841515602482015290516001600160a01b0390931692634f1bef8d9260448084019391929182900301818387803b158015611c1d57600080fd5b505af1158015611c31573d6000803e3d6000fd5b505050505b8015611c7e576000828152608e6020526040902060040154611c59906001613479565b6000838152608e602052604090206004810191909155600501805460ff191660011790555b6000828152608e602090815260409182902054825184151581529251339386937f70af203def241488bb271f95f3ab62d4f5ec84d1cbd928f47deea5592b61df5892918290030190a45050565b6033546001600160a01b031690565b606c6020526000908152604090205460ff1681565b611cf7611180565b50600360655460ff166004811115611d0b57fe5b1015611d485760405162461bcd60e51b815260040180806020018281038252602d8152602001806153f5602d913960400191505060405180910390fd5b336000908152608a6020526040812054611d6490607890613b07565b9050600081118015611d9e5750606a6000611d8b600160925461347990919063ffffffff16565b8152602001908152602001600020548111155b611dd95760405162461bcd60e51b81526004018080602001828103825260218152602001806152cb6021913960400191505060405180910390fd5b336000908152608a6020526040902054611df5906078906134dc565b611e316001606a6000611e14600160925461347990919063ffffffff16565b815260200190815260200160002054613b5b90919063ffffffff16565b606a6000611e4b600160925461347990919063ffffffff16565b815260208082019290925260409081016000908120939093553383526066909152812060925460019290611e7f9084613479565b815260208082019290925260409081016000908120805460ff191694151594909417909355338352608a909152812054609254611ee092608491611ec4906001613479565b8152602001908152602001600020613bb890919063ffffffff16565b50565b611eeb613475565b6001600160a01b0316611efc611ccb565b6001600160a01b031614611f45576040805162461bcd60e51b81526020600482018190526024820152600080516020615363833981519152604482015290519081900360640190fd5b60408051602080820181905260128284015271616d6f756e744f6644616f4d656d6265727360701b606080840191909152835180840390910181526080830184528051908201206000908152609480835284822088905560a08401839052601360c0850152723230b7a1b630b4b6b4b733a23ab930ba34b7b760691b60e0808601919091528551808603909101815261010085018652805190840120825280835284822087905561012084018390526017610140850152763230b7a630ba32a1b630b4b6b4b733a23ab930ba34b7b760491b610160808601919091528551808603909101815261018090940185528351938301939093208152919052208190556065805460ff1916600317905561206860026120614285613479565b6000613c4f565b82606a6000612083600160925461347990919063ffffffff16565b8152602081019190915260400160002055505050565b6000828152608e6020908152604080832060060154338452606783528184208185529092529091205483919060ff166121035760405162461bcd60e51b81526004018080602001828103825260368152602001806151236036913960400191505060405180910390fd5b33600090815260686020908152604080832085845290915290205460ff161561216b576040805162461bcd60e51b815260206004820152601560248201527413db9b1e481a59881b9bdd081d9bdd1959081e595d605a1b604482015290519081900360640190fd5b6000848152608e6020526040902060030154849042106121d2576040805162461bcd60e51b815260206004820152601f60248201527f4f6e6c79206265666f726520646561646c696e65206973207265616368656400604482015290519081900360640190fd5b6121da611180565b508315612211576000858152608e60205260409020600401546121fe906001613479565b6000868152608e60205260409020600401555b336000908152608a60209081526040808320548884526081909252909120612238916134dc565b6000858152608e602090815260409182902054825187151581529251339389937f70af203def241488bb271f95f3ab62d4f5ec84d1cbd928f47deea5592b61df5892918290030190a4505033600090815260686020908152604080832093835292905220805460ff191660011790555050565b606554610100900460ff1681565b6122c1613475565b6001600160a01b03166122d2611ccb565b6001600160a01b03161461231b576040805162461bcd60e51b81526020600482018190526024820152600080516020615363833981519152604482015290519081900360640190fd5b606580546002919060ff19166001835b0217905550565b61233a611180565b50600260655460ff16600481111561234e57fe5b1461238a5760405162461bcd60e51b815260040180806020018281038252602c8152602001806151b1602c913960400191505060405180910390fd5b6090546040805163f8b2cb4f60e01b815233600482015290516000926001600160a01b03169163f8b2cb4f916024808301926020929190829003018186803b1580156123d557600080fd5b505afa1580156123e9573d6000803e3d6000fd5b505050506040513d60208110156123ff57600080fd5b50511161244b576040805162461bcd60e51b81526020600482015260156024820152744f6e6c79207374616b6572732063616e20766f746560581b604482015290519081900360640190fd5b6001600160a01b0381166000908152606c602052604090205460ff166124a25760405162461bcd60e51b81526004018080602001828103825260328152602001806153106032913960400191505060405180910390fd5b336000908152608660209081526040808320609254845290915290205460ff1615612508576040805162461bcd60e51b815260206004820152601160248201527021b0b73737ba103b37ba329030b3b0b4b760791b604482015290519081900360640190fd5b33600090815260866020908152604080832060925484528252808320805460ff191660011790556001600160a01b0384168352608a8252808320548352607b909152902060020154801561257b576001600160a01b0382166000908152608a602052604090205461257b906078906134dc565b6125ab612589826001613479565b6001600160a01b0384166000908152608a602052604090205460789190613598565b5050565b608860209081526000928352604080842090915290825290205460ff1681565b6125d7611180565b50336000908152606660209081526040808320609254845290915290205460ff166126335760405162461bcd60e51b815260040180806020018281038252603a815260200180615201603a913960400191505060405180910390fd5b609054604080516301a6466560e41b815233600482015290516001600160a01b0390921691631a6466509160248082019260009290919082900301818387803b15801561267f57600080fd5b505af1158015612693573d6000803e3d6000fd5b5050336000908152606d60205260409020805460ff191660011790555050565b606f6020526000908152604090205481565b60955460965460975483565b6126d9613475565b6001600160a01b03166126ea611ccb565b6001600160a01b031614612733576040805162461bcd60e51b81526020600482018190526024820152600080516020615363833981519152604482015290519081900360640190fd5b60408051602080820181905260158284015274616d6f756e744f6644616f44656c656761746f727360581b60608084019190915283518084039091018152608083018452805190820120600090815260948083528482208a905560a08401839052601b60c085018190527f64616f4d656d62657273686970566f74696e674475726174696f6e000000000060e080870191909152865180870390910181526101008601875280519085012083528184528583208a905561012085018490526101408501527f64616f44656c65676174696f6e566f74696e674475726174696f6e000000000061016080860191909152855180860390910181526101808501865280519084012082528083528482208890556101a08401839052601d6101c08501527f64616f44656c65676174696f6e417070726f76616c4475726174696f6e0000006101e080860191909152855180860390910181526102008501865280519084012082528083529381208690556102208301918252602461024084018190528594939192918291610260909101906151dd8239604080516020818403810182529282018252805190830120855290840194909452505001600020556065805461ff00191661020017905561290d60036120614285613479565b604080516020808201819052601782840152763230b7a630ba32a1b630b4b6b4b733a23ab930ba34b7b760491b60608084019190915283518084039091018152608083018452805190820120600090815260948083528482205460a08501849052601360c0860152723230b7a1b630b4b6b4b733a23ab930ba34b7b760691b60e0808701919091528651808703909101815261010090950186528451948401949094208252909152918220546129d091906129ca90814288613479565b90613479565b90506129df6002826000613c4f565b505050505050565b608a6020526000908152604090205481565b60806020526000908152604090208054600182015460029092015490919083565b612a22611180565b506003606554610100900460ff166004811115612a3b57fe5b1015612a785760405162461bcd60e51b815260040180806020018281038252602d8152602001806150c5602d913960400191505060405180910390fd5b336000908152608a6020526040812054612a9490607c90613b07565b9050600081118015612ace5750606b6000612abb600160925461347990919063ffffffff16565b8152602001908152602001600020548111155b612b095760405162461bcd60e51b81526004018080602001828103825260248152602001806153d16024913960400191505060405180910390fd5b336000908152608a6020526040902054612b2590607c906134dc565b612b446001606b6000611e14600160925461347990919063ffffffff16565b606b6000612b5e600160925461347990919063ffffffff16565b815260208082019290925260409081016000908120939093553383526067909152812060925460019290612b929084613479565b815260208082019290925260409081016000908120805460ff191694151594909417909355338352608a909152812054609254611ee092608591611ec4906001613479565b612bdf613475565b6001600160a01b0316612bf0611ccb565b6001600160a01b031614612c39576040805162461bcd60e51b81526020600482018190526024820152600080516020615363833981519152604482015290519081900360640190fd5b606580546001919060ff1916828061232b565b60946020526000908152604090205481565b608f546001600160a01b03163314612cb6576040805162461bcd60e51b815260206004820152601660248201527513db9b1e48149959da5cdd1c9e4818dbdb9d1c9858dd60521b604482015290519081900360640190fd5b612cbe611180565b50608c80546000908152608e602052604080822086905582548252808220600101805460ff1916861580159190911790915560925493548352912060060191909155612d9c57608c546000908152608e6020908152604080832060020184905580518083018390528082018390527f6d696c6573746f6e65417070726f76616c526571756573744475726174696f6e606080830191909152825180830390910181526080909101825280519083012083526094909152902054612d82904290613479565b608c546000908152608e6020526040902060030155612e1f565b604080516020808201819052601b828401527f6c6f616e417070726f76616c526571756573744475726174696f6e00000000006060808401919091528351808403909101815260809092018352815191810191909120600090815260949091522054612e09904290613479565b608c546000908152608e60205260409020600301555b60016092541115612eaf57608c546000818152608e6020526040812060030154612e4892613c4f565b608c546092546000908152608060205260409020612e6591613bb8565b6092546000908152608560205260408120612e7f90613b00565b1115612eaf57608c54600090815260816020908152604080832060925484526085909252909120612eaf91613ccd565b608c546000908152608e60209081526040918290206001810154815460029092015484519081529351339460ff9092161515937f12185ea0d0c1067ec7ba45d618f57ea4939173d68a06773b50a6cbb7de254577928290030190a4608c54612f18906001613479565b608c55505050565b60856020526000908152604090208054600182015460029092015490919083565b612f49611180565b50609254600090815260936020526040902054612fad576040805162461bcd60e51b815260206004820152601860248201527f4e6f207375627374697475746573207265717565737465640000000000000000604482015290519081900360640190fd5b336000908152608a6020526040812054612fc990607490613b07565b9050600081118015612fec57506092546000908152606b60205260409020548111155b6130275760405162461bcd60e51b815260040180806020018281038252602f815260200180615459602f913960400191505060405180910390fd5b609254600090815260936020526040902054613044906001613b5b565b60928054600090815260936020908152604080832094909455338252608a81528382205492548252608590529190912061307d91613bb8565b336000818152606760209081526040808320609280548552908352818420805460ff19166001179055938352608a9091529020549054611ee09190613d2d565b6130c5613475565b6001600160a01b03166130d6611ccb565b6001600160a01b03161461311f576040805162461bcd60e51b81526020600482018190526024820152600080516020615363833981519152604482015290519081900360640190fd5b6001600160a01b0381166131645760405162461bcd60e51b815260040180806020018281038252602681526020018061506f6026913960400191505060405180910390fd5b6033546040516001600160a01b038084169216907f8be0079c531659141344cd1fd0a4f28419497f9722a3daafe3b4186f6b6457e090600090a3603380546001600160a01b0319166001600160a01b0392909216919091179055565b6131c8611180565b50336000908152606760209081526040808320609254845290915290205460ff16156132255760405162461bcd60e51b81526004018080602001828103825260338152602001806152986033913960400191505060405180910390fd5b336000818152606d6020526040808220805460ff19169055609054815162a6b93960e61b815260048101949094526024840183905290516001600160a01b03909116926329ae4e4092604480830193919282900301818387803b158015610df857600080fd5b60816020526000908152604090208054600182015460029092015490919083565b60745460755460765483565b6132c0613475565b6001600160a01b03166132d1611ccb565b6001600160a01b03161461331a576040805162461bcd60e51b81526020600482018190526024820152600080516020615363833981519152604482015290519081900360640190fd5b606580546001919061ff0019166101008361232b565b607c54607d54607e5483565b613344611180565b50600060655460ff16600481111561335857fe5b116133945760405162461bcd60e51b81526004018080602001828103825260378152602001806154226037913960400191505060405180910390fd5b60905460408051633fcb989360e01b815233600482015290516001600160a01b0390921691633fcb98939160248082019260009290919082900301818387803b1580156133e057600080fd5b505af11580156133f4573d6000803e3d6000fd5b5050336000908152606c60209081526040808320805460ff19166001179055608a9091529020541515915061346a905057609154613433906001613479565b6091819055336000818152608a60209081526040808320859055938252608b90529190912080546001600160a01b03191690911790555b565b60655460ff1681565b3390565b6000828201838110156134d3576040805162461bcd60e51b815260206004820152601b60248201527f536166654d6174683a206164646974696f6e206f766572666c6f770000000000604482015290519081900360640190fd5b90505b92915050565b8160020154600114156134f8576000808355600183015561358a565b8154811415613525578154600090815260038301602052604080822054808555825281206001015561358a565b816001015481141561355d5760018083018054600090815260038501602052604080822090930154918290559081529081205561358a565b60008181526003830160205260408082206001808201548254855283852090910181905590549083529120555b506002018054600019019055565b6135a0615021565b508254600081815260038501602090815260409182902082516060810184528154815260018201549281019290925260020154918101919091529061362e578184556001808501839055604080516060810182526000808252602080830182815283850189815288845260038b019092529390912091518255915192810192909255516002909101556137e4565b80604001518311156136965783546000908152600385016020818152604080842060019081018790558151606081018352895481528084018681528184018a8152898852959094529190942090518155905192810192909255516002909101558184556137e4565b6001846002015411156137725760015b8460020154811015613770579051600090815260038501602090815260409182902082516060810184528154815260018201549281019290925260020154918101829052919084111561376857815160009081526003860160208181526040808420600190810154875186528286208201899055825160608101845281815281875285855283872080548287019081528286018d81528c8a52979096529387209051815593519184019190915592516002909201919091559152839055613770565b6001016136a6565b505b600082815260038501602052604090206002015483146137e4576040805160608101825260008082526001808801805460208086019182528587018a815289865260038c0190915286852095518655905192850192909255905160029093019290925581548152919091208390558290555b50505060020180546001019055565b805460009081526003909101602052604090206002015490565b80546000818152600383016020526040902060029081015490830154600114156138405760008084556001840155613860565b825460009081526003840160205260408082205480865582528120600101555b6002909201805460001901905591565b6000828152609a602052604081205460ff16600581111561388d57fe5b14156138b3576000828152609a60205260409020600101546138ae90613d92565b6125ab565b60016000838152609a602052604090205460ff1660058111156138d257fe5b14156138dd576125ab565b60026000838152609a602052604090205460ff1660058111156138fc57fe5b141561390b576138ae81613f91565b60036000838152609a602052604090205460ff16600581111561392a57fe5b1415613939576138ae81614270565b60046000838152609a602052604090205460ff16600581111561395857fe5b1415613a36576090546092546001600160a01b039091169063108cc3ea90606e90600090613987906001613b5b565b815260200190815260200160002054606f60006139b06001609254613b5b90919063ffffffff16565b8152602001908152602001600020546139d56001609254613b5b90919063ffffffff16565b6040518463ffffffff1660e01b8152600401808481526020018381526020018281526020019350505050600060405180830381600087803b158015613a1957600080fd5b505af1158015613a2d573d6000803e3d6000fd5b505050506125ab565b6125ab61455d565b6000613a4930614609565b15905090565b600054610100900460ff1680613a685750613a68613a3e565b80613a76575060005460ff16155b613ab15760405162461bcd60e51b815260040180806020018281038252602e81526020018061523b602e913960400191505060405180910390fd5b600054610100900460ff16158015613adc576000805460ff1961ff0019909116610100171660011790555b613ae461460f565b613aec6146af565b8015611ee0576000805461ff001916905550565b6002015490565b60008181526003830160205260408120600201548190613b2b5760009150506134d6565b835460019190910190831415613b40576134d3565b60009283526003840160205260409092206001015491613b2b565b600082821115613bb2576040805162461bcd60e51b815260206004820152601e60248201527f536166654d6174683a207375627472616374696f6e206f766572666c6f770000604482015290519081900360640190fd5b50900390565b8154613bfa5780825560018083018290556040805180820182526000808252602080830182815286835260038801909152929020905181559051910155613c42565b60018083018054600090815260038501602081815260408084208790558051808201825284815285548184019081528886529390925290922091518255519201919091558190555b5060020180546001019055565b609954613c5d906001613479565b6099556040805180820190915280846005811115613c7757fe5b815260209081018390526099546000908152609a9091526040902081518154829060ff19166001836005811115613caa57fe5b02179055506020919091015160019091015560995461117b9060959084906147a8565b805482556001808201549083015560028082015490830155805460005b8260020154811015610e0c576000918252600380840160208181526040808620938801825290942082548155600180840154918101919091559352549101613cea565b6000818152608060205260408120613d4490613b00565b9050801561117b5760015b818111610e0c576000838152608060205260408120613d6e9083614980565b6000818152608160205260409020909150613d899086613bb8565b50600101613d4f565b60006094600060405160200180806020018281038252602181526020018061515960219139604080516020818403810182529282018252805190830120855284820195909552928401600090812054878252608e8552858220600601548252608090945293909320919350613e0a92508490506134dc565b6000828152608e60205260408120600401548211613e4357506000828152608e60205260409020600501805460ff191660019081179091555b6000838152608e602052604090206001015460ff16613eda57608f546000848152608e6020526040808220548151634f1bef8d60e01b81526004810191909152841515602482015290516001600160a01b0390931692634f1bef8d9260448084019391929182900301818387803b158015613ebd57600080fd5b505af1158015613ed1573d6000803e3d6000fd5b50505050613f54565b608f546000848152608e6020526040808220548151630a88633160e41b81526004810191909152841515602482015290516001600160a01b039093169263a88633109260448084019391929182900301818387803b158015613f3b57600080fd5b505af1158015613f4f573d6000803e3d6000fd5b505050505b6000838152608160205260408120613f6b90613b00565b90508015610e0c576000848152608e6020526040902060060154610e0c908290866149af565b6000600260655460ff166004811115613fa657fe5b14156140b5576094600060405160200180806020018281038252601281526020018071616d6f756e744f6644616f4d656d6265727360701b81525060200191505060405160208183030381529060405280519060200120815260200190815260200160002054606a6000614026600160925461347990919063ffffffff16565b815260208082019290925260409081016000908120939093556065805460ff191660031790558051808301839052601381830152723230b7a1b630b4b6b4b733a23ab930ba34b7b760691b6060808301919091528251808303909101815260809091018252805190830120835260949091529020546140a6908390613479565b90506138ae6002826000613c4f565b600360655460ff1660048111156140c857fe5b1415614258576092546000818152606a602081905260408220549261411392600292916140f6906001613479565b815260200190815260200160002054614b5890919063ffffffff16565b61411d6078613b00565b1015614158576141556141306078613b00565b61414f6002606a60006140f6600160925461347990919063ffffffff16565b90613b5b565b90505b801561416957614169607882614bb1565b6065805460ff19166004179055604080516020808201819052601b828401527f64616f4d656d62657273686970566f74696e674475726174696f6e0000000000606080840191909152835180840390910181526080909201835281519181019190912060009081526094909152205461425257604080516020808201819052601782840152763230b7a630ba32a1b630b4b6b4b733a23ab930ba34b7b760491b6060808401919091528351808403909101815260809092018352815191810191909120600090815260949091522054614243908490613479565b91506142526002836000613c4f565b506125ab565b600060788190556079819055607a5560016092555050565b60006001606554610100900460ff16600481111561428a57fe5b1415614313576065805461ff001916610200179055604080516020808201819052601d828401527f64616f44656c65676174696f6e417070726f76616c4475726174696f6e000000606080840191909152835180840390910181526080909201835281519181019190912060009081526094909152205461430c908390613479565b9050614550565b6002606554610100900460ff16600481111561432b57fe5b1415614430576094600060405160200180806020018281038252601581526020018074616d6f756e744f6644616f44656c656761746f727360581b81525060200191505060405160208183030381529060405280519060200120815260200190815260200160002054606b60006143ae600160925461347990919063ffffffff16565b815260208082019290925260409081016000908120939093556065805461ff0019166103001790558051808301839052601381830152723230b7a1b630b4b6b4b733a23ab930ba34b7b760691b60608083019190915282518083039091018152608090910182528051908301208352609490915290205461430c908390613479565b6003606554610100900460ff16600481111561444857fe5b1415614544576092546000818152606b602081905260408220549261447692600292916140f6906001613479565b6144806078613b00565b10156144b5576144b2614493607c613b00565b61414f6002606b60006140f6600160925461347990919063ffffffff16565b90505b80156144c6576144c6607c82614bb1565b6065805461ff001916610400179055604080516020808201819052601782840152763230b7a630ba32a1b630b4b6b4b733a23ab930ba34b7b760491b606080840191909152835180840390910181526080909201835281519181019190912060009081526094909152205461453c908490613479565b915050614550565b61454d82614c0f565b90505b6125ab6003826000613c4f565b6092546000908152609360205260409020541561346a5760005b6092546000908152609360205260409020548110156145a35761459a6074614e24565b50600101614577565b5061346a6005612061609460006040516020018080602001828103825260248152602001806151dd60249139604001915050604051602081830303815290604052805190602001208152602001908152602001600020544261347990919063ffffffff16565b3b151590565b600054610100900460ff16806146285750614628613a3e565b80614636575060005460ff16155b6146715760405162461bcd60e51b815260040180806020018281038252602e81526020018061523b602e913960400191505060405180910390fd5b600054610100900460ff16158015613aec576000805460ff1961ff0019909116610100171660011790558015611ee0576000805461ff001916905550565b600054610100900460ff16806146c857506146c8613a3e565b806146d6575060005460ff16155b6147115760405162461bcd60e51b815260040180806020018281038252602e81526020018061523b602e913960400191505060405180910390fd5b600054610100900460ff1615801561473c576000805460ff1961ff0019909116610100171660011790555b6000614746613475565b603380546001600160a01b0319166001600160a01b038316908117909155604051919250906000907f8be0079c531659141344cd1fd0a4f28419497f9722a3daafe3b4186f6b6457e0908290a3508015611ee0576000805461ff001916905550565b6147b0615021565b508254600081815260038501602090815260409182902082516060810184528154815260018201549281019290925260020154918101919091529061483e578184556001808501839055604080516060810182526000808252602080830182815283850189815288845260038b019092529390912091518255915192810192909255516002909101556137e4565b80604001518310156148a65783546000908152600385016020818152604080842060019081018790558151606081018352895481528084018681528184018a8152898852959094529190942090518155905192810192909255516002909101558184556137e4565b6001846002015411156137725760015b8460020154811015613770579051600090815260038501602090815260409182902082516060810184528154815260018201549281019290925260020154918101829052919084101561497857815160009081526003860160208181526040808420600190810154875186528286208201899055825160608101845281815281875285855283872080548287019081528286018d81528c8a52979096529387209051815593519184019190915592516002909201919091559152839055613770565b6001016148b6565b815460015b828110156149a85760009182526003840160205260409091205490600101614985565b5092915050565b60925482146000805b85811015614b385760008481526081602052604081206149d790614e24565b60008781526085602052604090209091506149f290826134dc565b6000818152608b60209081526040808320546001600160a01b03168352606782528083208984528252808320805460ff1916905583835260699091528120600191614a3d8984613479565b81526020810191909152604001600020805460ff1916911515919091179055614a676074826134dc565b614a718187614e72565b83158015614aad57506000818152608b60209081526040808320546001600160a01b0316835260678252808320609254845290915290205460ff165b15614b1e576092546000908152608560205260409020614acd90826134dc565b6000818152608b60209081526040808320546001600160a01b03168352606782528083206092805485529252909120805460ff1916905554614b10908290614e72565b614b1b836001613479565b92505b8315614b2f57614b2f607c826134dc565b506001016149b8565b508115614b425750835b8015614b5157614b5181614ed7565b5050505050565b600082614b67575060006134d6565b82820282848281614b7457fe5b04146134d35760405162461bcd60e51b81526004018080602001828103825260218152602001806153426021913960400191505060405180910390fd5b60005b8181101561117b578254600284015460011415614bda5760008085556001850155614bfa565b835460009081526003850160205260408082205480875582528120600101555b50600283018054600019019055600101614bb4565b6000614c1d607c6074614f56565b600060788190556079819055607a819055607c819055607d819055607e81905560658054600260ff199091161761ff001916610100179055604080516020808201819052601b828401527f64616f4d656d62657273686970566f74696e674475726174696f6e00000000006060808401919091528351808403909101815260809092018352815191810191909120835260949052812054614cbf908490613479565b9050614cce6002826000613c4f565b604080516020808201819052601b828401527f64616f44656c65676174696f6e566f74696e674475726174696f6e00000000006060808401919091528351808403909101815260809092018352815191810191909120600090815260949091522054614d3b908490613479565b609254600090815260806020526040812091925090614d5990613b00565b905080614df0576090546092546000818152606e6020908152604080832054606f90925280832054815163084661f560e11b815260048101939093526024830152604482019390935291516001600160a01b039093169263108cc3ea92606480820193929182900301818387803b158015614dd357600080fd5b505af1158015614de7573d6000803e3d6000fd5b50505050614e0c565b6000614dfb82614fbf565b9050614e0a6004826000613c4f565b505b609254614e1a906001613479565b6092555092915050565b8054600282015460011415614e425760008083556001830155614e62565b815460009081526003830160205260408082205480855582528120600101555b6002909101805460001901905590565b6000818152608060205260408120614e8990613b00565b9050801561117b5760015b818111610e0c576000838152608060205260408120614eb39083614980565b6000818152608160205260409020909150614ece90866134dc565b50600101614e94565b8060936000609254815260200190815260200160002081905550611ee06005612061609460006040516020018080602001828103825260248152602001806151dd60249139604001915050604051602081830303815290604052805190602001208152602001908152602001600020544261347990919063ffffffff16565b805482556001808201549083015560028082015490830155805460005b8260020154811015610e0c576000918252600380840160208181526040808620938801825290942082548155600180840154818301556002808501549201919091559352549101614f73565b60008060015b8381116149a8576092546000908152608060205260408120614fe79083614980565b6000818152608e6020526040902060030154909150831015615018576000818152608e602052604090206003015492505b50600101614fc5565b6040518060600160405280600081526020016000815260200160008152509056fe53757065722064656c65676174696e6720776f726b73206f6e6c792074696c6c2066697273742065706f63684f776e61626c653a206e6577206f776e657220697320746865207a65726f206164647265737343616e6e6f7420756e737562736372696265207768696c65206265696e67206163746976652064616f206d656d626572436c61696d696e672044616f2044656c65676174696f6e206973206e6f74206f70656e207269676874206e6f7743616e206f6e6c7920766f74652064656c656761746f722074686174206973206163746976652064616f206d656d6265724f6e6c792044616f2044656c656761746f7220666f72207468652065706f6368207265717565737420776173207375626d6974746564617070726f76616c734e6565646564466f72526567697374727952657175657374417070726f766520766f74696e6720666f722044616f2044656c656761746f7273206973206e6f74206f70656e207269676874206e6f77566f74696e6720666f722044616f204d656d62657273206973206e6f74206f70656e207269676874206e6f7764616f44656c65676174696f6e53756273746974757465436c61696d4475726174696f6e4f6e6c79206163746976652064616f206d656d626572732063616e2073756273637269626520746f206265636f6d652064656c656761746f7273496e697469616c697a61626c653a20636f6e747261637420697320616c726561647920696e697469616c697a6564566f74696e6720666f722044616f2044656c656761746f7273206973206e6f74206f70656e207269676874206e6f7743616e6e6f7420756e737562736372696265207768696c65206265696e67206163746976652064616f2064656c656761746f724e6f7420656c696769626c6520746f206265636f6d652064616f206d656d62657257726f6e6720617070726f76616c2070617373776f7264206f722064656c656761746f7243616e206f6e6c7920766f746520666f72206163746976652064616f206d656d626572736869702073756273637269626572536166654d6174683a206d756c7469706c69636174696f6e206f766572666c6f774f776e61626c653a2063616c6c6572206973206e6f7420746865206f776e65724f6e6c792073757065722064656c656761746f722063616e2063616c6c20746869732066756e6374696f6e617070726f76616c734e6565646564466f72476f7665726e616e6365526571756573744e6f7420656c696769626c6520746f206265636f6d652064616f2064656c656761746f72436c61696d696e672044616f204d656d62657273686970206973206e6f74206f70656e207269676874206e6f77537562736372697074696f6e7320666f722044616f204d656d6265727368697020617265206e6f74206f70656e207269676874206e6f774e6f7420656c696769626c6520746f206265636f6d652064616f2064656c656761746f72207375627374697475746543616e206f6e6c7920766f746520666f72206163746976652064616f2064656c656761746f722073756273637269626572a2646970667358221220ee57f3f8adb010171756042055b8f49fca37180f45329d9d7caac82983473f2364736f6c63430007030033",
  "devdoc": {
    "kind": "dev",
    "methods": {
      "getDaoData()": {
        "details": "Helper function for querying Governance variables",
        "returns": {
          "_0": "internal Governance uint variables"
        }
      },
      "initialize(address,uint256,uint256,uint256,uint256,uint256)": {
        "details": "Initialize the contract."
      },
      "owner()": {
        "details": "Returns the address of the current owner."
      },
      "renounceOwnership()": {
        "details": "Leaves the contract without owner. It will not be possible to call `onlyOwner` functions anymore. Can only be called by the current owner. NOTE: Renouncing ownership will leave the contract without an owner, thereby removing any functionality that is only available to the owner."
      },
      "transferOwnership(address)": {
        "details": "Transfers ownership of the contract to a new account (`newOwner`). Can only be called by the current owner."
      }
    },
    "title": "AllianceBlock Governance contract",
    "version": 1
  },
  "userdoc": {
    "kind": "user",
    "methods": {},
    "notice": "Responsible for governing AllianceBlock's ecosystem",
    "version": 1
  },
  "storageLayout": {
    "storage": [
      {
        "astId": 890,
        "contract": "contracts/Governance.sol:Governance",
        "label": "_initialized",
        "offset": 0,
        "slot": "0",
        "type": "t_bool"
      },
      {
        "astId": 893,
        "contract": "contracts/Governance.sol:Governance",
        "label": "_initializing",
        "offset": 1,
        "slot": "0",
        "type": "t_bool"
      },
      {
        "astId": 3750,
        "contract": "contracts/Governance.sol:Governance",
        "label": "__gap",
        "offset": 0,
        "slot": "1",
        "type": "t_array(t_uint256)50_storage"
      },
      {
        "astId": 321,
        "contract": "contracts/Governance.sol:Governance",
        "label": "_owner",
        "offset": 0,
        "slot": "51",
        "type": "t_address"
      },
      {
        "astId": 440,
        "contract": "contracts/Governance.sol:Governance",
        "label": "__gap",
        "offset": 0,
        "slot": "52",
        "type": "t_array(t_uint256)49_storage"
      },
      {
        "astId": 11564,
        "contract": "contracts/Governance.sol:Governance",
        "label": "votingStatusForDaoMembers",
        "offset": 0,
        "slot": "101",
        "type": "t_enum(VotingStatusMembers)11513"
      },
      {
        "astId": 11566,
        "contract": "contracts/Governance.sol:Governance",
        "label": "votingStatusForDaoDelegators",
        "offset": 1,
        "slot": "101",
        "type": "t_enum(VotingStatusDelegators)11519"
      },
      {
        "astId": 11572,
        "contract": "contracts/Governance.sol:Governance",
        "label": "isEpochDaoMember",
        "offset": 0,
        "slot": "102",
        "type": "t_mapping(t_address,t_mapping(t_uint256,t_bool))"
      },
      {
        "astId": 11578,
        "contract": "contracts/Governance.sol:Governance",
        "label": "isEpochDaoDelegator",
        "offset": 0,
        "slot": "103",
        "type": "t_mapping(t_address,t_mapping(t_uint256,t_bool))"
      },
      {
        "astId": 11584,
        "contract": "contracts/Governance.sol:Governance",
        "label": "hasVotedForRequestId",
        "offset": 0,
        "slot": "104",
        "type": "t_mapping(t_address,t_mapping(t_uint256,t_bool))"
      },
      {
        "astId": 11590,
        "contract": "contracts/Governance.sol:Governance",
        "label": "bannedDelegator",
        "offset": 0,
        "slot": "105",
        "type": "t_mapping(t_uint256,t_mapping(t_uint256,t_bool))"
      },
      {
        "astId": 11594,
        "contract": "contracts/Governance.sol:Governance",
        "label": "amountOfEpochDaoMembersNeededPerEpoch",
        "offset": 0,
        "slot": "106",
        "type": "t_mapping(t_uint256,t_uint256)"
      },
      {
        "astId": 11598,
        "contract": "contracts/Governance.sol:Governance",
        "label": "amountOfEpochDaoDelegatorsNeededPerEpoch",
        "offset": 0,
        "slot": "107",
        "type": "t_mapping(t_uint256,t_uint256)"
      },
      {
        "astId": 11602,
        "contract": "contracts/Governance.sol:Governance",
        "label": "subscribedForDaoMembership",
        "offset": 0,
        "slot": "108",
        "type": "t_mapping(t_address,t_bool)"
      },
      {
        "astId": 11606,
        "contract": "contracts/Governance.sol:Governance",
        "label": "subscribedForDaoDelegator",
        "offset": 0,
        "slot": "109",
        "type": "t_mapping(t_address,t_bool)"
      },
      {
        "astId": 11610,
        "contract": "contracts/Governance.sol:Governance",
        "label": "rewardsForDaoMembersPerEpoch",
        "offset": 0,
        "slot": "110",
        "type": "t_mapping(t_uint256,t_uint256)"
      },
      {
        "astId": 11614,
        "contract": "contracts/Governance.sol:Governance",
        "label": "rewardsForDaoDelegatorsPerEpoch",
        "offset": 0,
        "slot": "111",
        "type": "t_mapping(t_uint256,t_uint256)"
      },
      {
        "astId": 11616,
        "contract": "contracts/Governance.sol:Governance",
        "label": "daoSubstituteMembersListForCurrentEpoch",
        "offset": 0,
        "slot": "112",
        "type": "t_struct(LinkedList)12973_storage"
      },
      {
        "astId": 11618,
        "contract": "contracts/Governance.sol:Governance",
        "label": "daoSubstituteDelegatorsListForCurrentEpoch",
        "offset": 0,
        "slot": "116",
        "type": "t_struct(LinkedList)12973_storage"
      },
      {
        "astId": 11620,
        "contract": "contracts/Governance.sol:Governance",
        "label": "daoMembersListForUpcomingEpoch",
        "offset": 0,
        "slot": "120",
        "type": "t_struct(LinkedList)12973_storage"
      },
      {
        "astId": 11622,
        "contract": "contracts/Governance.sol:Governance",
        "label": "daoDelegatorsListForUpcomingEpoch",
        "offset": 0,
        "slot": "124",
        "type": "t_struct(LinkedList)12973_storage"
      },
      {
        "astId": 11626,
        "contract": "contracts/Governance.sol:Governance",
        "label": "requestsPerEpoch",
        "offset": 0,
        "slot": "128",
        "type": "t_mapping(t_uint256,t_struct(LinkedList)12432_storage)"
      },
      {
        "astId": 11630,
        "contract": "contracts/Governance.sol:Governance",
        "label": "remainingDelegatorIdsToVotePerRequest",
        "offset": 0,
        "slot": "129",
        "type": "t_mapping(t_uint256,t_struct(LinkedList)12432_storage)"
      },
      {
        "astId": 11634,
        "contract": "contracts/Governance.sol:Governance",
        "label": "remainingMemberIdsToVoteForDelegator",
        "offset": 0,
        "slot": "130",
        "type": "t_mapping(t_uint256,t_struct(LinkedList)12432_storage)"
      },
      {
        "astId": 11638,
        "contract": "contracts/Governance.sol:Governance",
        "label": "remainingMemberIdsToVotePerRequest",
        "offset": 0,
        "slot": "131",
        "type": "t_mapping(t_uint256,t_struct(LinkedList)12432_storage)"
      },
      {
        "astId": 11642,
        "contract": "contracts/Governance.sol:Governance",
        "label": "epochDaoMembers",
        "offset": 0,
        "slot": "132",
        "type": "t_mapping(t_uint256,t_struct(LinkedList)12432_storage)"
      },
      {
        "astId": 11646,
        "contract": "contracts/Governance.sol:Governance",
        "label": "epochDaoDelegators",
        "offset": 0,
        "slot": "133",
        "type": "t_mapping(t_uint256,t_struct(LinkedList)12432_storage)"
      },
      {
        "astId": 11652,
        "contract": "contracts/Governance.sol:Governance",
        "label": "hasVotedForDaoMemberPerEpoch",
        "offset": 0,
        "slot": "134",
        "type": "t_mapping(t_address,t_mapping(t_uint256,t_bool))"
      },
      {
        "astId": 11658,
        "contract": "contracts/Governance.sol:Governance",
        "label": "hasVotedForDaoDelegatorPerEpoch",
        "offset": 0,
        "slot": "135",
        "type": "t_mapping(t_address,t_mapping(t_uint256,t_bool))"
      },
      {
        "astId": 11664,
        "contract": "contracts/Governance.sol:Governance",
        "label": "hasApprovedForDaoDelegatorPerEpoch",
        "offset": 0,
        "slot": "136",
        "type": "t_mapping(t_address,t_mapping(t_uint256,t_bool))"
      },
      {
        "astId": 11670,
        "contract": "contracts/Governance.sol:Governance",
        "label": "votingHashOfDaoMembersPerEpoch",
        "offset": 0,
        "slot": "137",
        "type": "t_mapping(t_address,t_mapping(t_uint256,t_bytes32))"
      },
      {
        "astId": 11674,
        "contract": "contracts/Governance.sol:Governance",
        "label": "addressToId",
        "offset": 0,
        "slot": "138",
        "type": "t_mapping(t_address,t_uint256)"
      },
      {
        "astId": 11678,
        "contract": "contracts/Governance.sol:Governance",
        "label": "idToAddress",
        "offset": 0,
        "slot": "139",
        "type": "t_mapping(t_uint256,t_address)"
      },
      {
        "astId": 11680,
        "contract": "contracts/Governance.sol:Governance",
        "label": "totalApprovalRequests",
        "offset": 0,
        "slot": "140",
        "type": "t_uint256"
      },
      {
        "astId": 11682,
        "contract": "contracts/Governance.sol:Governance",
        "label": "superDelegator",
        "offset": 0,
        "slot": "141",
        "type": "t_address"
      },
      {
        "astId": 11686,
        "contract": "contracts/Governance.sol:Governance",
        "label": "approvalRequests",
        "offset": 0,
        "slot": "142",
        "type": "t_mapping(t_uint256,t_struct(ApprovalRequest)11534_storage)"
      },
      {
        "astId": 11688,
        "contract": "contracts/Governance.sol:Governance",
        "label": "registry",
        "offset": 0,
        "slot": "143",
        "type": "t_contract(IRegistry)12368"
      },
      {
        "astId": 11690,
        "contract": "contracts/Governance.sol:Governance",
        "label": "staking",
        "offset": 0,
        "slot": "144",
        "type": "t_contract(IStaking)12414"
      },
      {
        "astId": 11692,
        "contract": "contracts/Governance.sol:Governance",
        "label": "totalIds",
        "offset": 0,
        "slot": "145",
        "type": "t_uint256"
      },
      {
        "astId": 11694,
        "contract": "contracts/Governance.sol:Governance",
        "label": "currentEpoch",
        "offset": 0,
        "slot": "146",
        "type": "t_uint256"
      },
      {
        "astId": 11698,
        "contract": "contracts/Governance.sol:Governance",
        "label": "amountOfSubstitutesRequested",
        "offset": 0,
        "slot": "147",
        "type": "t_mapping(t_uint256,t_uint256)"
      },
      {
        "astId": 11702,
        "contract": "contracts/Governance.sol:Governance",
        "label": "updatableVariables",
        "offset": 0,
        "slot": "148",
        "type": "t_mapping(t_bytes32,t_uint256)"
      },
      {
        "astId": 11716,
        "contract": "contracts/Governance.sol:Governance",
        "label": "cronjobList",
        "offset": 0,
        "slot": "149",
        "type": "t_struct(LinkedList)12973_storage"
      },
      {
        "astId": 11718,
        "contract": "contracts/Governance.sol:Governance",
        "label": "totalCronjobs",
        "offset": 0,
        "slot": "153",
        "type": "t_uint256"
      },
      {
        "astId": 11722,
        "contract": "contracts/Governance.sol:Governance",
        "label": "cronjobs",
        "offset": 0,
        "slot": "154",
        "type": "t_mapping(t_uint256,t_struct(Cronjob)11714_storage)"
      }
    ],
    "types": {
      "t_address": {
        "encoding": "inplace",
        "label": "address",
        "numberOfBytes": "20"
      },
      "t_array(t_uint256)49_storage": {
        "base": "t_uint256",
        "encoding": "inplace",
        "label": "uint256[49]",
        "numberOfBytes": "1568"
      },
      "t_array(t_uint256)50_storage": {
        "base": "t_uint256",
        "encoding": "inplace",
        "label": "uint256[50]",
        "numberOfBytes": "1600"
      },
      "t_bool": {
        "encoding": "inplace",
        "label": "bool",
        "numberOfBytes": "1"
      },
      "t_bytes32": {
        "encoding": "inplace",
        "label": "bytes32",
        "numberOfBytes": "32"
      },
      "t_contract(IRegistry)12368": {
        "encoding": "inplace",
        "label": "contract IRegistry",
        "numberOfBytes": "20"
      },
      "t_contract(IStaking)12414": {
        "encoding": "inplace",
        "label": "contract IStaking",
        "numberOfBytes": "20"
      },
      "t_enum(CronjobType)11709": {
        "encoding": "inplace",
        "label": "enum GovernanceTypesAndStorage.CronjobType",
        "numberOfBytes": "1"
      },
      "t_enum(VotingStatusDelegators)11519": {
        "encoding": "inplace",
        "label": "enum GovernanceTypesAndStorage.VotingStatusDelegators",
        "numberOfBytes": "1"
      },
      "t_enum(VotingStatusMembers)11513": {
        "encoding": "inplace",
        "label": "enum GovernanceTypesAndStorage.VotingStatusMembers",
        "numberOfBytes": "1"
      },
      "t_mapping(t_address,t_bool)": {
        "encoding": "mapping",
        "key": "t_address",
        "label": "mapping(address => bool)",
        "numberOfBytes": "32",
        "value": "t_bool"
      },
      "t_mapping(t_address,t_mapping(t_uint256,t_bool))": {
        "encoding": "mapping",
        "key": "t_address",
        "label": "mapping(address => mapping(uint256 => bool))",
        "numberOfBytes": "32",
        "value": "t_mapping(t_uint256,t_bool)"
      },
      "t_mapping(t_address,t_mapping(t_uint256,t_bytes32))": {
        "encoding": "mapping",
        "key": "t_address",
        "label": "mapping(address => mapping(uint256 => bytes32))",
        "numberOfBytes": "32",
        "value": "t_mapping(t_uint256,t_bytes32)"
      },
      "t_mapping(t_address,t_uint256)": {
        "encoding": "mapping",
        "key": "t_address",
        "label": "mapping(address => uint256)",
        "numberOfBytes": "32",
        "value": "t_uint256"
      },
      "t_mapping(t_bytes32,t_uint256)": {
        "encoding": "mapping",
        "key": "t_bytes32",
        "label": "mapping(bytes32 => uint256)",
        "numberOfBytes": "32",
        "value": "t_uint256"
      },
      "t_mapping(t_uint256,t_address)": {
        "encoding": "mapping",
        "key": "t_uint256",
        "label": "mapping(uint256 => address)",
        "numberOfBytes": "32",
        "value": "t_address"
      },
      "t_mapping(t_uint256,t_bool)": {
        "encoding": "mapping",
        "key": "t_uint256",
        "label": "mapping(uint256 => bool)",
        "numberOfBytes": "32",
        "value": "t_bool"
      },
      "t_mapping(t_uint256,t_bytes32)": {
        "encoding": "mapping",
        "key": "t_uint256",
        "label": "mapping(uint256 => bytes32)",
        "numberOfBytes": "32",
        "value": "t_bytes32"
      },
      "t_mapping(t_uint256,t_mapping(t_uint256,t_bool))": {
        "encoding": "mapping",
        "key": "t_uint256",
        "label": "mapping(uint256 => mapping(uint256 => bool))",
        "numberOfBytes": "32",
        "value": "t_mapping(t_uint256,t_bool)"
      },
      "t_mapping(t_uint256,t_struct(ApprovalRequest)11534_storage)": {
        "encoding": "mapping",
        "key": "t_uint256",
        "label": "mapping(uint256 => struct GovernanceTypesAndStorage.ApprovalRequest)",
        "numberOfBytes": "32",
        "value": "t_struct(ApprovalRequest)11534_storage"
      },
      "t_mapping(t_uint256,t_struct(Cronjob)11714_storage)": {
        "encoding": "mapping",
        "key": "t_uint256",
        "label": "mapping(uint256 => struct GovernanceTypesAndStorage.Cronjob)",
        "numberOfBytes": "32",
        "value": "t_struct(Cronjob)11714_storage"
      },
      "t_mapping(t_uint256,t_struct(LinkedList)12432_storage)": {
        "encoding": "mapping",
        "key": "t_uint256",
        "label": "mapping(uint256 => struct DoubleLinkedList.LinkedList)",
        "numberOfBytes": "32",
        "value": "t_struct(LinkedList)12432_storage"
      },
      "t_mapping(t_uint256,t_struct(Node)12421_storage)": {
        "encoding": "mapping",
        "key": "t_uint256",
        "label": "mapping(uint256 => struct DoubleLinkedList.Node)",
        "numberOfBytes": "32",
        "value": "t_struct(Node)12421_storage"
      },
      "t_mapping(t_uint256,t_struct(Node)12962_storage)": {
        "encoding": "mapping",
        "key": "t_uint256",
        "label": "mapping(uint256 => struct ValuedDoubleLinkedList.Node)",
        "numberOfBytes": "32",
        "value": "t_struct(Node)12962_storage"
      },
      "t_mapping(t_uint256,t_uint256)": {
        "encoding": "mapping",
        "key": "t_uint256",
        "label": "mapping(uint256 => uint256)",
        "numberOfBytes": "32",
        "value": "t_uint256"
      },
      "t_struct(ApprovalRequest)11534_storage": {
        "encoding": "inplace",
        "label": "struct GovernanceTypesAndStorage.ApprovalRequest",
        "members": [
          {
            "astId": 11521,
            "contract": "contracts/Governance.sol:Governance",
            "label": "loanId",
            "offset": 0,
            "slot": "0",
            "type": "t_uint256"
          },
          {
            "astId": 11523,
            "contract": "contracts/Governance.sol:Governance",
            "label": "isMilestone",
            "offset": 0,
            "slot": "1",
            "type": "t_bool"
          },
          {
            "astId": 11525,
            "contract": "contracts/Governance.sol:Governance",
            "label": "milestoneNumber",
            "offset": 0,
            "slot": "2",
            "type": "t_uint256"
          },
          {
            "astId": 11527,
            "contract": "contracts/Governance.sol:Governance",
            "label": "deadlineTimestamp",
            "offset": 0,
            "slot": "3",
            "type": "t_uint256"
          },
          {
            "astId": 11529,
            "contract": "contracts/Governance.sol:Governance",
            "label": "approvalsProvided",
            "offset": 0,
            "slot": "4",
            "type": "t_uint256"
          },
          {
            "astId": 11531,
            "contract": "contracts/Governance.sol:Governance",
            "label": "isApproved",
            "offset": 0,
            "slot": "5",
            "type": "t_bool"
          },
          {
            "astId": 11533,
            "contract": "contracts/Governance.sol:Governance",
            "label": "epochSubmitted",
            "offset": 0,
            "slot": "6",
            "type": "t_uint256"
          }
        ],
        "numberOfBytes": "224"
      },
      "t_struct(Cronjob)11714_storage": {
        "encoding": "inplace",
        "label": "struct GovernanceTypesAndStorage.Cronjob",
        "members": [
          {
            "astId": 11711,
            "contract": "contracts/Governance.sol:Governance",
            "label": "cronjobType",
            "offset": 0,
            "slot": "0",
            "type": "t_enum(CronjobType)11709"
          },
          {
            "astId": 11713,
            "contract": "contracts/Governance.sol:Governance",
            "label": "externalId",
            "offset": 0,
            "slot": "1",
            "type": "t_uint256"
          }
        ],
        "numberOfBytes": "64"
      },
      "t_struct(LinkedList)12432_storage": {
        "encoding": "inplace",
        "label": "struct DoubleLinkedList.LinkedList",
        "members": [
          {
            "astId": 12423,
            "contract": "contracts/Governance.sol:Governance",
            "label": "head",
            "offset": 0,
            "slot": "0",
            "type": "t_uint256"
          },
          {
            "astId": 12425,
            "contract": "contracts/Governance.sol:Governance",
            "label": "tail",
            "offset": 0,
            "slot": "1",
            "type": "t_uint256"
          },
          {
            "astId": 12427,
            "contract": "contracts/Governance.sol:Governance",
            "label": "size",
            "offset": 0,
            "slot": "2",
            "type": "t_uint256"
          },
          {
            "astId": 12431,
            "contract": "contracts/Governance.sol:Governance",
            "label": "nodes",
            "offset": 0,
            "slot": "3",
            "type": "t_mapping(t_uint256,t_struct(Node)12421_storage)"
          }
        ],
        "numberOfBytes": "128"
      },
      "t_struct(LinkedList)12973_storage": {
        "encoding": "inplace",
        "label": "struct ValuedDoubleLinkedList.LinkedList",
        "members": [
          {
            "astId": 12964,
            "contract": "contracts/Governance.sol:Governance",
            "label": "head",
            "offset": 0,
            "slot": "0",
            "type": "t_uint256"
          },
          {
            "astId": 12966,
            "contract": "contracts/Governance.sol:Governance",
            "label": "tail",
            "offset": 0,
            "slot": "1",
            "type": "t_uint256"
          },
          {
            "astId": 12968,
            "contract": "contracts/Governance.sol:Governance",
            "label": "size",
            "offset": 0,
            "slot": "2",
            "type": "t_uint256"
          },
          {
            "astId": 12972,
            "contract": "contracts/Governance.sol:Governance",
            "label": "nodes",
            "offset": 0,
            "slot": "3",
            "type": "t_mapping(t_uint256,t_struct(Node)12962_storage)"
          }
        ],
        "numberOfBytes": "128"
      },
      "t_struct(Node)12421_storage": {
        "encoding": "inplace",
        "label": "struct DoubleLinkedList.Node",
        "members": [
          {
            "astId": 12418,
            "contract": "contracts/Governance.sol:Governance",
            "label": "next",
            "offset": 0,
            "slot": "0",
            "type": "t_uint256"
          },
          {
            "astId": 12420,
            "contract": "contracts/Governance.sol:Governance",
            "label": "previous",
            "offset": 0,
            "slot": "1",
            "type": "t_uint256"
          }
        ],
        "numberOfBytes": "64"
      },
      "t_struct(Node)12962_storage": {
        "encoding": "inplace",
        "label": "struct ValuedDoubleLinkedList.Node",
        "members": [
          {
            "astId": 12957,
            "contract": "contracts/Governance.sol:Governance",
            "label": "next",
            "offset": 0,
            "slot": "0",
            "type": "t_uint256"
          },
          {
            "astId": 12959,
            "contract": "contracts/Governance.sol:Governance",
            "label": "previous",
            "offset": 0,
            "slot": "1",
            "type": "t_uint256"
          },
          {
            "astId": 12961,
            "contract": "contracts/Governance.sol:Governance",
            "label": "value",
            "offset": 0,
            "slot": "2",
            "type": "t_uint256"
          }
        ],
        "numberOfBytes": "96"
      },
      "t_uint256": {
        "encoding": "inplace",
        "label": "uint256",
        "numberOfBytes": "32"
      }
    }
  }
}