{
  "address": "0xB7f8BC63BbcaD18155201308C8f3540b07f84F5e",
  "abi": [
    {
      "anonymous": false,
      "inputs": [
        {
          "indexed": true,
          "internalType": "address",
          "name": "previousOwner",
          "type": "address"
        },
        {
          "indexed": true,
          "internalType": "address",
          "name": "newOwner",
          "type": "address"
        }
      ],
      "name": "OwnershipTransferred",
      "type": "event"
    },
    {
      "anonymous": false,
      "inputs": [
        {
          "indexed": false,
          "internalType": "uint256",
          "name": "reward",
          "type": "uint256"
        }
      ],
      "name": "RewardAdded",
      "type": "event"
    },
    {
      "anonymous": false,
      "inputs": [
        {
          "indexed": true,
          "internalType": "address",
          "name": "user",
          "type": "address"
        },
        {
          "indexed": false,
          "internalType": "uint256",
          "name": "reward",
          "type": "uint256"
        }
      ],
      "name": "RewardPaid",
      "type": "event"
    },
    {
      "anonymous": false,
      "inputs": [
        {
          "indexed": true,
          "internalType": "address",
          "name": "user",
          "type": "address"
        },
        {
          "indexed": false,
          "internalType": "uint256",
          "name": "amount",
          "type": "uint256"
        }
      ],
      "name": "Staked",
      "type": "event"
    },
    {
      "anonymous": false,
      "inputs": [
        {
          "indexed": true,
          "internalType": "address",
          "name": "user",
          "type": "address"
        },
        {
          "indexed": false,
          "internalType": "uint256",
          "name": "amount",
          "type": "uint256"
        }
      ],
      "name": "Withdrawn",
      "type": "event"
    },
    {
      "inputs": [],
      "name": "STAKING_DURATION",
      "outputs": [
        {
          "internalType": "uint256",
          "name": "",
          "type": "uint256"
        }
      ],
      "stateMutability": "view",
      "type": "function"
    },
    {
      "inputs": [],
      "name": "albt",
      "outputs": [
        {
          "internalType": "contract IERC20",
          "name": "",
          "type": "address"
        }
      ],
      "stateMutability": "view",
      "type": "function"
    },
    {
      "inputs": [
        {
          "internalType": "address",
          "name": "",
          "type": "address"
        }
      ],
      "name": "balance",
      "outputs": [
        {
          "internalType": "uint256",
          "name": "",
          "type": "uint256"
        }
      ],
      "stateMutability": "view",
      "type": "function"
    },
    {
      "inputs": [],
      "name": "currentEpoch",
      "outputs": [
        {
          "internalType": "uint256",
          "name": "",
          "type": "uint256"
        }
      ],
      "stateMutability": "view",
      "type": "function"
    },
    {
      "inputs": [
        {
          "internalType": "address",
          "name": "account",
          "type": "address"
        }
      ],
      "name": "earned",
      "outputs": [
        {
          "internalType": "uint256",
          "name": "",
          "type": "uint256"
        }
      ],
      "stateMutability": "view",
      "type": "function"
    },
    {
      "inputs": [],
      "name": "exit",
      "outputs": [],
      "stateMutability": "nonpayable",
      "type": "function"
    },
    {
      "inputs": [
        {
          "internalType": "address",
          "name": "",
          "type": "address"
        }
      ],
      "name": "freezed",
      "outputs": [
        {
          "internalType": "bool",
          "name": "",
          "type": "bool"
        }
      ],
      "stateMutability": "view",
      "type": "function"
    },
    {
      "inputs": [],
      "name": "getAmountsToStake",
      "outputs": [
        {
          "internalType": "uint256",
          "name": "stakerAmount",
          "type": "uint256"
        },
        {
          "internalType": "uint256",
          "name": "daoMemberAmount",
          "type": "uint256"
        },
        {
          "internalType": "uint256",
          "name": "daoDelegatorAmount",
          "type": "uint256"
        }
      ],
      "stateMutability": "view",
      "type": "function"
    },
    {
      "inputs": [
        {
          "internalType": "address",
          "name": "staker_",
          "type": "address"
        }
      ],
      "name": "getBalance",
      "outputs": [
        {
          "internalType": "uint256",
          "name": "",
          "type": "uint256"
        }
      ],
      "stateMutability": "view",
      "type": "function"
    },
    {
      "inputs": [],
      "name": "getReward",
      "outputs": [],
      "stateMutability": "nonpayable",
      "type": "function"
    },
    {
      "inputs": [],
      "name": "governance",
      "outputs": [
        {
          "internalType": "contract IGovernanceStaking",
          "name": "",
          "type": "address"
        }
      ],
      "stateMutability": "view",
      "type": "function"
    },
    {
      "inputs": [
        {
          "internalType": "address",
          "name": "",
          "type": "address"
        }
      ],
      "name": "hasWithdrawn",
      "outputs": [
        {
          "internalType": "bool",
          "name": "",
          "type": "bool"
        }
      ],
      "stateMutability": "view",
      "type": "function"
    },
    {
      "inputs": [
        {
          "internalType": "contract IERC20",
          "name": "albt_",
          "type": "address"
        },
        {
          "internalType": "address",
          "name": "governance_",
          "type": "address"
        },
        {
          "internalType": "uint256[]",
          "name": "stakingTypeAmounts_",
          "type": "uint256[]"
        }
      ],
      "name": "initialize",
      "outputs": [],
      "stateMutability": "nonpayable",
      "type": "function"
    },
    {
      "inputs": [],
      "name": "lastTimeRewardApplicable",
      "outputs": [
        {
          "internalType": "uint256",
          "name": "",
          "type": "uint256"
        }
      ],
      "stateMutability": "view",
      "type": "function"
    },
    {
      "inputs": [],
      "name": "lastUpdateTime",
      "outputs": [
        {
          "internalType": "uint256",
          "name": "",
          "type": "uint256"
        }
      ],
      "stateMutability": "view",
      "type": "function"
    },
    {
      "inputs": [
        {
          "internalType": "uint256",
          "name": "reward",
          "type": "uint256"
        }
      ],
      "name": "notifyRewardAmount",
      "outputs": [],
      "stateMutability": "nonpayable",
      "type": "function"
    },
    {
      "inputs": [],
      "name": "owner",
      "outputs": [
        {
          "internalType": "address",
          "name": "",
          "type": "address"
        }
      ],
      "stateMutability": "view",
      "type": "function"
    },
    {
      "inputs": [],
      "name": "periodFinish",
      "outputs": [
        {
          "internalType": "uint256",
          "name": "",
          "type": "uint256"
        }
      ],
      "stateMutability": "view",
      "type": "function"
    },
    {
      "inputs": [
        {
          "internalType": "uint256",
          "name": "amountForDaoMembers",
          "type": "uint256"
        },
        {
          "internalType": "uint256",
          "name": "amountForDaoDelegators",
          "type": "uint256"
        },
        {
          "internalType": "uint256",
          "name": "epoch",
          "type": "uint256"
        }
      ],
      "name": "provideRewards",
      "outputs": [],
      "stateMutability": "nonpayable",
      "type": "function"
    },
    {
      "inputs": [
        {
          "internalType": "address",
          "name": "staker",
          "type": "address"
        }
      ],
      "name": "provideStakingForDaoDelegator",
      "outputs": [],
      "stateMutability": "nonpayable",
      "type": "function"
    },
    {
      "inputs": [
        {
          "internalType": "address",
          "name": "staker",
          "type": "address"
        }
      ],
      "name": "provideStakingForDaoMembership",
      "outputs": [],
      "stateMutability": "nonpayable",
      "type": "function"
    },
    {
      "inputs": [],
      "name": "renounceOwnership",
      "outputs": [],
      "stateMutability": "nonpayable",
      "type": "function"
    },
    {
      "inputs": [],
      "name": "rewardDistribution",
      "outputs": [
        {
          "internalType": "address",
          "name": "",
          "type": "address"
        }
      ],
      "stateMutability": "view",
      "type": "function"
    },
    {
      "inputs": [],
      "name": "rewardPerToken",
      "outputs": [
        {
          "internalType": "uint256",
          "name": "",
          "type": "uint256"
        }
      ],
      "stateMutability": "view",
      "type": "function"
    },
    {
      "inputs": [],
      "name": "rewardPerTokenStored",
      "outputs": [
        {
          "internalType": "uint256",
          "name": "",
          "type": "uint256"
        }
      ],
      "stateMutability": "view",
      "type": "function"
    },
    {
      "inputs": [],
      "name": "rewardRate",
      "outputs": [
        {
          "internalType": "uint256",
          "name": "",
          "type": "uint256"
        }
      ],
      "stateMutability": "view",
      "type": "function"
    },
    {
      "inputs": [
        {
          "internalType": "address",
          "name": "",
          "type": "address"
        }
      ],
      "name": "rewards",
      "outputs": [
        {
          "internalType": "uint256",
          "name": "",
          "type": "uint256"
        }
      ],
      "stateMutability": "view",
      "type": "function"
    },
    {
      "inputs": [
        {
          "internalType": "uint256",
          "name": "",
          "type": "uint256"
        }
      ],
      "name": "rewardsPerEpochForDaoDelegators",
      "outputs": [
        {
          "internalType": "uint256",
          "name": "",
          "type": "uint256"
        }
      ],
      "stateMutability": "view",
      "type": "function"
    },
    {
      "inputs": [
        {
          "internalType": "uint256",
          "name": "",
          "type": "uint256"
        }
      ],
      "name": "rewardsPerEpochForDaoMembers",
      "outputs": [
        {
          "internalType": "uint256",
          "name": "",
          "type": "uint256"
        }
      ],
      "stateMutability": "view",
      "type": "function"
    },
    {
      "inputs": [
        {
          "internalType": "address",
          "name": "_rewardDistribution",
          "type": "address"
        }
      ],
      "name": "setRewardDistribution",
      "outputs": [],
      "stateMutability": "nonpayable",
      "type": "function"
    },
    {
      "inputs": [],
      "name": "stake",
      "outputs": [],
      "stateMutability": "nonpayable",
      "type": "function"
    },
    {
      "inputs": [
        {
          "internalType": "uint256",
          "name": "",
          "type": "uint256"
        }
      ],
      "name": "stakingTypeAmounts",
      "outputs": [
        {
          "internalType": "uint256",
          "name": "",
          "type": "uint256"
        }
      ],
      "stateMutability": "view",
      "type": "function"
    },
    {
      "inputs": [],
      "name": "totalSupply",
      "outputs": [
        {
          "internalType": "uint256",
          "name": "",
          "type": "uint256"
        }
      ],
      "stateMutability": "view",
      "type": "function"
    },
    {
      "inputs": [
        {
          "internalType": "address",
          "name": "newOwner",
          "type": "address"
        }
      ],
      "name": "transferOwnership",
      "outputs": [],
      "stateMutability": "nonpayable",
      "type": "function"
    },
    {
      "inputs": [
        {
          "internalType": "address",
          "name": "staker",
          "type": "address"
        },
        {
          "internalType": "bool",
          "name": "isDaoMember",
          "type": "bool"
        }
      ],
      "name": "unstakeDao",
      "outputs": [],
      "stateMutability": "nonpayable",
      "type": "function"
    },
    {
      "inputs": [
        {
          "internalType": "address",
          "name": "",
          "type": "address"
        }
      ],
      "name": "userRewardPerTokenPaid",
      "outputs": [
        {
          "internalType": "uint256",
          "name": "",
          "type": "uint256"
        }
      ],
      "stateMutability": "view",
      "type": "function"
    },
    {
      "inputs": [
        {
          "internalType": "uint256",
          "name": "epoch",
          "type": "uint256"
        }
      ],
      "name": "withdrawRewardsForDaoEpoch",
      "outputs": [],
      "stateMutability": "nonpayable",
      "type": "function"
    }
  ],
  "transactionHash": "0xebae4b9932168d393975006331a4b570d1014d5df5051fba9775f1f0192e2346",
  "args": [],
  "solcInputHash": "e60bb0e73d6effd5378c34ac90e2d948",
  "bytecode": "0x608060405262093a806000556000600155600060025534801561002157600080fd5b50611fba806100316000396000f3fe608060405234801561001057600080fd5b50600436106102265760003560e01c806363e8032911610130578063cd3daf9d116100b8578063e9fad8ee1161007c578063e9fad8ee146105ea578063ebe2b12b146105f2578063f2fde38b146105fa578063f8b2cb4f14610620578063ffa3151f1461064657610226565b8063cd3daf9d146104d2578063db31af45146104da578063df136d6514610500578063e337fb5c14610508578063e3d670d7146105c457610226565b806380faa57d116100ff57806380faa57d146104775780638b8763471461047f5780638da5cb5b146104a5578063c8f33c91146104ad578063cb2fea98146104b557610226565b806363e8032914610457578063715018a61461045f57806376671808146104675780637b0a47ee1461046f57610226565b80633a4b66f1116101b3578063406f11f511610182578063406f11f5146103b557806352012d4e146103ef5780635aa6e6751461040c5780635d08c754146104145780635e2c19db1461043157610226565b80633a4b66f1146103625780633c6b16ab1461036a5780633d18b912146103875780633fcb98931461038f57610226565b8063108cc3ea116101fa578063108cc3ea146102d557806318160ddd146102fe5780631a6466501461030657806329ae4e401461032c5780632e1750041461035a57610226565b80628cc2621461022b5780630700037d146102635780630d68b76114610289578063101114cf146102b1575b600080fd5b6102516004803603602081101561024157600080fd5b50356001600160a01b0316610663565b60408051918252519081900360200190f35b6102516004803603602081101561027957600080fd5b50356001600160a01b03166106e1565b6102af6004803603602081101561029f57600080fd5b50356001600160a01b03166106f3565b005b6102b9610789565b604080516001600160a01b039092168252519081900360200190f35b6102af600480360360608110156102eb57600080fd5b5080359060208101359060400135610798565b610251610816565b6102af6004803603602081101561031c57600080fd5b50356001600160a01b031661081c565b6102af6004803603604081101561034257600080fd5b506001600160a01b0381351690602001351515610937565b6102516109a1565b6102af6109a7565b6102af6004803603602081101561038057600080fd5b5035610ac8565b6102af610c1c565b6102af600480360360208110156103a557600080fd5b50356001600160a01b0316610ced565b6103db600480360360208110156103cb57600080fd5b50356001600160a01b0316610e20565b604080519115158252519081900360200190f35b6102516004803603602081101561040557600080fd5b5035610e35565b6102b9610e47565b6102af6004803603602081101561042a57600080fd5b5035610e56565b6103db6004803603602081101561044757600080fd5b50356001600160a01b0316611056565b6102b961106b565b6102af61107a565b610251611138565b61025161113e565b610251611144565b6102516004803603602081101561049557600080fd5b50356001600160a01b0316611158565b6102b961116a565b610251611179565b610251600480360360208110156104cb57600080fd5b503561117f565b610251611191565b6104e26111df565b60408051938452602084019290925282820152519081900360600190f35b610251611256565b6102af6004803603606081101561051e57600080fd5b6001600160a01b03823581169260208101359091169181019060608101604082013564010000000081111561055257600080fd5b82018360208201111561056457600080fd5b8035906020019184602083028401116401000000008311171561058657600080fd5b91908080602002602001604051908101604052809392919081815260200183836020028082843760009201919091525092955061125c945050505050565b610251600480360360208110156105da57600080fd5b50356001600160a01b0316611376565b6102af611388565b610251611407565b6102af6004803603602081101561061057600080fd5b50356001600160a01b031661140d565b6102516004803603602081101561063657600080fd5b50356001600160a01b0316611522565b6102516004803603602081101561065c57600080fd5b503561153d565b6001600160a01b03811660009081526006602090815260408083205460059092528220546106db91906106d590670de0b6b3a7640000906106cf906106b0906106aa611191565b9061154f565b6001600160a01b0388166000908152600f6020526040902054906115ac565b9061160c565b90611673565b92915050565b60066020526000908152604090205481565b6106fb6116cd565b6001600160a01b031661070c61116a565b6001600160a01b031614610767576040805162461bcd60e51b815260206004820181905260248201527f4f776e61626c653a2063616c6c6572206973206e6f7420746865206f776e6572604482015290519081900360640190fd5b600c80546001600160a01b0319166001600160a01b0392909216919091179055565b600c546001600160a01b031681565b600b546001600160a01b031633146107e5576040805162461bcd60e51b815260206004820152601d6024820152600080516020611f17833981519152604482015290519081900360640190fd5b60008181526007602090815260408083208690556008909152902082905561080e816001611673565b600e55505050565b600d5481565b600b546001600160a01b03163314610869576040805162461bcd60e51b815260206004820152601d6024820152600080516020611f17833981519152604482015290519081900360640190fd5b7f17bc176d2408558f6e4111feebc3cab4e16b63e967be91cde721f4c8a488b552546001600160a01b0382166000908152600f6020526040902054146108e05760405162461bcd60e51b8152600401808060200182810382526027815260200180611e346027913960400191505060405180910390fd5b600061092760118260015b8152602001908152602001600020546011600060028081111561090a57fe5b81526020019081526020016000205461154f90919063ffffffff16565b905061093382826116d1565b5050565b600b546001600160a01b03163314610984576040805162461bcd60e51b815260206004820152601d6024820152600080516020611f17833981519152604482015290519081900360640190fd5b801561099857610993826117ac565b610933565b610933826117c6565b60005481565b336109b0611191565b6004556109bb611144565b6003556001600160a01b03811615610a02576109d681610663565b6001600160a01b0382166000908152600660209081526040808320939093556004546005909152919020555b336000908152600f602052604090205415610a59576040805162461bcd60e51b815260206004820152601260248201527121b0b73737ba1039ba30b5b29030b3b0b4b760711b604482015290519081900360640190fd5b6000805260116020527f4ad3b33220dddc71b994a52d72c06b10862965f7d926534c05c00fb7e819e7b754610a8e33826116d1565b60408051828152905133917f9e71bc8eea02a63969f509818f2dafb9254532904319f9dbda79b67bd34a5f3d919081900360200190a25050565b600c546001600160a01b03163314610b115760405162461bcd60e51b8152600401808060200182810382526021815260200180611ef66021913960400191505060405180910390fd5b6000610b1b611191565b600455610b26611144565b6003556001600160a01b03811615610b6d57610b4181610663565b6001600160a01b0382166000908152600660209081526040808320939093556004546005909152919020555b6001544210610b8c57600054610b8490839061160c565b600255610bcf565b600154600090610b9c904261154f565b90506000610bb5600254836115ac90919063ffffffff16565b600054909150610bc9906106cf8684611673565b60025550505b426003819055600054610be29190611673565b6001556040805183815290517fde88a922e0d3b88b24e9623efeb464919c6bf9f66857a65e2bfcf2ce87a9433d9181900360200190a15050565b33610c25611191565b600455610c30611144565b6003556001600160a01b03811615610c7757610c4b81610663565b6001600160a01b0382166000908152600660209081526040808320939093556004546005909152919020555b6000610c8233610663565b905080156109335733600081815260066020526040812055600a54610cb3916001600160a01b0390911690836117d5565b60408051828152905133917fe2403640ba68fed3a2f88b7557551d1993f84b99bb10ff833f0cf8db0c5e0486919081900360200190a25050565b600b546001600160a01b03163314610d3a576040805162461bcd60e51b815260206004820152601d6024820152600080516020611f17833981519152604482015290519081900360640190fd5b7f4ad3b33220dddc71b994a52d72c06b10862965f7d926534c05c00fb7e819e7b7546001600160a01b0382166000908152600f602052604090205414610dc7576040805162461bcd60e51b815260206004820152601860248201527f4d75737420626520616c72656164792061207374616b65720000000000000000604482015290519081900360640190fd5b6000610df1601182805b815260200190815260200160002054601160006001600281111561090a57fe5b6001600160a01b0383166000908152601060205260409020805460ff19166001179055905061093382826116d1565b60106020526000908152604090205460ff1681565b60086020526000908152604090205481565b600b546001600160a01b031681565b600e548110610e965760405162461bcd60e51b8152600401808060200182810382526024815260200180611f616024913960400191505060405180910390fd5b600b54604080516304a300bb60e41b81523360048201526024810184905290516000928392839283926001600160a01b031691634a300bb0916044808301926080929190829003018186803b158015610eee57600080fd5b505afa158015610f02573d6000803e3d6000fd5b505050506040513d6080811015610f1857600080fd5b50805160208201516040830151606090930151919650945090925090508380610f3e5750825b610f8f576040805162461bcd60e51b815260206004820152601960248201527f53686f756c642062652070617274206f66207468652064616f00000000000000604482015290519081900360640190fd5b3360009081526009602052604090205460ff1615610fe8576040805162461bcd60e51b815260206004820152601160248201527020b63932b0b23c903bb4ba34323930bbb760791b604482015290519081900360640190fd5b336000908152600960205260408120805460ff19166001179055841561102857600086815260076020526040902054611021908461160c565b9050611044565b600086815260086020526040902054611041908361160c565b90505b61104e338261182c565b505050505050565b60096020526000908152604090205460ff1681565b600a546001600160a01b031681565b6110826116cd565b6001600160a01b031661109361116a565b6001600160a01b0316146110ee576040805162461bcd60e51b815260206004820181905260248201527f4f776e61626c653a2063616c6c6572206973206e6f7420746865206f776e6572604482015290519081900360640190fd5b6045546040516000916001600160a01b0316907f8be0079c531659141344cd1fd0a4f28419497f9722a3daafe3b4186f6b6457e0908390a3604580546001600160a01b0319169055565b600e5481565b60025481565b6000611152426001546118f3565b90505b90565b60056020526000908152604090205481565b6045546001600160a01b031690565b60035481565b60076020526000908152604090205481565b6000600d54600014156111a75750600454611155565b6111526111d6600d546106cf670de0b6b3a76400006111d06002546111d06003546106aa611144565b906115ac565b60045490611673565b60116020527f4ad3b33220dddc71b994a52d72c06b10862965f7d926534c05c00fb7e819e7b7547f17bc176d2408558f6e4111feebc3cab4e16b63e967be91cde721f4c8a488b5525460026000527f08037d7b151cc412d25674a4e66b334d9ae9d2e5517a7feaae5cdb828bf1c628549192909190565b60045481565b601254610100900460ff16806112755750611275611909565b80611283575060125460ff16155b6112be5760405162461bcd60e51b815260040180806020018281038252602e815260200180611ea7602e913960400191505060405180910390fd5b601254610100900460ff161580156112e9576012805460ff1961ff0019909116610100171660011790555b6112f161191a565b600a80546001600160a01b038087166001600160a01b031992831617909255600b80549286169290911691909117905560005b825181101561135d5782818151811061133957fe5b60209081029190910181015160008381526011909252604090912055600101611324565b508015611370576012805461ff00191690555b50505050565b600f6020526000908152604090205481565b3360009081526010602052604090205460ff16156113e3576040805162461bcd60e51b8152602060048201526013602482015272155b9cdd589cd8dc9a5899481d1bc8195e1a5d606a1b604482015290519081900360640190fd5b336000818152600f60205260409020546113fd919061182c565b611405610c1c565b565b60015481565b6114156116cd565b6001600160a01b031661142661116a565b6001600160a01b031614611481576040805162461bcd60e51b815260206004820181905260248201527f4f776e61626c653a2063616c6c6572206973206e6f7420746865206f776e6572604482015290519081900360640190fd5b6001600160a01b0381166114c65760405162461bcd60e51b8152600401808060200182810382526026815260200180611e5b6026913960400191505060405180910390fd5b6045546040516001600160a01b038084169216907f8be0079c531659141344cd1fd0a4f28419497f9722a3daafe3b4186f6b6457e090600090a3604580546001600160a01b0319166001600160a01b0392909216919091179055565b6001600160a01b03166000908152600f602052604090205490565b60116020526000908152604090205481565b6000828211156115a6576040805162461bcd60e51b815260206004820152601e60248201527f536166654d6174683a207375627472616374696f6e206f766572666c6f770000604482015290519081900360640190fd5b50900390565b6000826115bb575060006106db565b828202828482816115c857fe5b04146116055760405162461bcd60e51b8152600401808060200182810382526021815260200180611ed56021913960400191505060405180910390fd5b9392505050565b6000808211611662576040805162461bcd60e51b815260206004820152601a60248201527f536166654d6174683a206469766973696f6e206279207a65726f000000000000604482015290519081900360640190fd5b81838161166b57fe5b049392505050565b600082820183811015611605576040805162461bcd60e51b815260206004820152601b60248201527f536166654d6174683a206164646974696f6e206f766572666c6f770000000000604482015290519081900360640190fd5b3390565b600a54604080516323b872dd60e01b81526001600160a01b03858116600483015230602483015260448201859052915191909216916323b872dd9160648083019260209291908290030181600087803b15801561172d57600080fd5b505af1158015611741573d6000803e3d6000fd5b505050506040513d602081101561175757600080fd5b5050600d546117669082611673565b600d556001600160a01b0382166000908152600f602052604090205461178c9082611673565b6001600160a01b039092166000908152600f602052604090209190915550565b60006117ba60118280610dd1565b9050610933828261182c565b60006117ba60118260016108eb565b604080516001600160a01b038416602482015260448082018490528251808303909101815260649091019091526020810180516001600160e01b031663a9059cbb60e01b1790526118279084906119cc565b505050565b600d54611839908261154f565b600d556001600160a01b0382166000908152600f602052604090205461185f908261154f565b6001600160a01b038084166000818152600f6020908152604080832095909555600a54855163a9059cbb60e01b81526004810194909452602484018790529451949093169363a9059cbb936044808501949193918390030190829087803b1580156118c957600080fd5b505af11580156118dd573d6000803e3d6000fd5b505050506040513d602081101561137057600080fd5b60008183106119025781611605565b5090919050565b600061191430611a7d565b15905090565b601254610100900460ff16806119335750611933611909565b80611941575060125460ff16155b61197c5760405162461bcd60e51b815260040180806020018281038252602e815260200180611ea7602e913960400191505060405180910390fd5b601254610100900460ff161580156119a7576012805460ff1961ff0019909116610100171660011790555b6119af611a83565b6119b7611b23565b80156119c9576012805461ff00191690555b50565b6060611a21826040518060400160405280602081526020017f5361666545524332303a206c6f772d6c6576656c2063616c6c206661696c6564815250856001600160a01b0316611c1c9092919063ffffffff16565b80519091501561182757808060200190516020811015611a4057600080fd5b50516118275760405162461bcd60e51b815260040180806020018281038252602a815260200180611f37602a913960400191505060405180910390fd5b3b151590565b601254610100900460ff1680611a9c5750611a9c611909565b80611aaa575060125460ff16155b611ae55760405162461bcd60e51b815260040180806020018281038252602e815260200180611ea7602e913960400191505060405180910390fd5b601254610100900460ff161580156119b7576012805460ff1961ff00199091166101001716600117905580156119c9576012805461ff001916905550565b601254610100900460ff1680611b3c5750611b3c611909565b80611b4a575060125460ff16155b611b855760405162461bcd60e51b815260040180806020018281038252602e815260200180611ea7602e913960400191505060405180910390fd5b601254610100900460ff16158015611bb0576012805460ff1961ff0019909116610100171660011790555b6000611bba6116cd565b604580546001600160a01b0319166001600160a01b038316908117909155604051919250906000907f8be0079c531659141344cd1fd0a4f28419497f9722a3daafe3b4186f6b6457e0908290a35080156119c9576012805461ff001916905550565b6060611c2b8484600085611c33565b949350505050565b606082471015611c745760405162461bcd60e51b8152600401808060200182810382526026815260200180611e816026913960400191505060405180910390fd5b611c7d85611a7d565b611cce576040805162461bcd60e51b815260206004820152601d60248201527f416464726573733a2063616c6c20746f206e6f6e2d636f6e7472616374000000604482015290519081900360640190fd5b60006060866001600160a01b031685876040518082805190602001908083835b60208310611d0d5780518252601f199092019160209182019101611cee565b6001836020036101000a03801982511681845116808217855250505050505090500191505060006040518083038185875af1925050503d8060008114611d6f576040519150601f19603f3d011682016040523d82523d6000602084013e611d74565b606091505b5091509150611d84828286611d8f565b979650505050505050565b60608315611d9e575081611605565b825115611dae5782518084602001fd5b8160405162461bcd60e51b81526004018080602001828103825283818151815260200191508051906020019080838360005b83811015611df8578181015183820152602001611de0565b50505050905090810190601f168015611e255780820380516001836020036101000a031916815260200191505b509250505060405180910390fdfe4d75737420626520616c726561647920612064616f206d656d62657220737562736372696265724f776e61626c653a206e6577206f776e657220697320746865207a65726f2061646472657373416464726573733a20696e73756666696369656e742062616c616e636520666f722063616c6c496e697469616c697a61626c653a20636f6e747261637420697320616c726561647920696e697469616c697a6564536166654d6174683a206d756c7469706c69636174696f6e206f766572666c6f7743616c6c6572206973206e6f742072657761726420646973747269627574696f6e43616c6c65722063616e206f6e6c7920626520676f7665726e616e63650000005361666545524332303a204552433230206f7065726174696f6e20646964206e6f74207375636365656443616e207769746864726177206f6e6c7920666f722070726576696f75732065706f6368a2646970667358221220e7481ff4b58825532c5686216f9ab5ae5684c9511fa7fd997fcc0445db4f00d364736f6c63430007030033",
  "devdoc": {
    "kind": "dev",
    "methods": {
      "initialize(address,address,uint256[])": {
        "details": "Initialize of the contract."
      },
      "owner()": {
        "details": "Returns the address of the current owner."
      },
      "renounceOwnership()": {
        "details": "Leaves the contract without owner. It will not be possible to call `onlyOwner` functions anymore. Can only be called by the current owner. NOTE: Renouncing ownership will leave the contract without an owner, thereby removing any functionality that is only available to the owner."
      },
      "transferOwnership(address)": {
        "details": "Transfers ownership of the contract to a new account (`newOwner`). Can only be called by the current owner."
      }
    },
    "version": 1
  },
  "userdoc": {
    "kind": "user",
    "methods": {},
    "version": 1
  },
  "storageLayout": {
    "storage": [
      {
        "astId": 16802,
        "contract": "contracts/Staking.sol:Staking",
        "label": "STAKING_DURATION",
        "offset": 0,
        "slot": "0",
        "type": "t_uint256"
      },
      {
        "astId": 16805,
        "contract": "contracts/Staking.sol:Staking",
        "label": "periodFinish",
        "offset": 0,
        "slot": "1",
        "type": "t_uint256"
      },
      {
        "astId": 16808,
        "contract": "contracts/Staking.sol:Staking",
        "label": "rewardRate",
        "offset": 0,
        "slot": "2",
        "type": "t_uint256"
      },
      {
        "astId": 16810,
        "contract": "contracts/Staking.sol:Staking",
        "label": "lastUpdateTime",
        "offset": 0,
        "slot": "3",
        "type": "t_uint256"
      },
      {
        "astId": 16812,
        "contract": "contracts/Staking.sol:Staking",
        "label": "rewardPerTokenStored",
        "offset": 0,
        "slot": "4",
        "type": "t_uint256"
      },
      {
        "astId": 16816,
        "contract": "contracts/Staking.sol:Staking",
        "label": "userRewardPerTokenPaid",
        "offset": 0,
        "slot": "5",
        "type": "t_mapping(t_address,t_uint256)"
      },
      {
        "astId": 16820,
        "contract": "contracts/Staking.sol:Staking",
        "label": "rewards",
        "offset": 0,
        "slot": "6",
        "type": "t_mapping(t_address,t_uint256)"
      },
      {
        "astId": 16824,
        "contract": "contracts/Staking.sol:Staking",
        "label": "rewardsPerEpochForDaoMembers",
        "offset": 0,
        "slot": "7",
        "type": "t_mapping(t_uint256,t_uint256)"
      },
      {
        "astId": 16828,
        "contract": "contracts/Staking.sol:Staking",
        "label": "rewardsPerEpochForDaoDelegators",
        "offset": 0,
        "slot": "8",
        "type": "t_mapping(t_uint256,t_uint256)"
      },
      {
        "astId": 16832,
        "contract": "contracts/Staking.sol:Staking",
        "label": "hasWithdrawn",
        "offset": 0,
        "slot": "9",
        "type": "t_mapping(t_address,t_bool)"
      },
      {
        "astId": 16834,
        "contract": "contracts/Staking.sol:Staking",
        "label": "albt",
        "offset": 0,
        "slot": "10",
        "type": "t_contract(IERC20)6524"
      },
      {
        "astId": 16836,
        "contract": "contracts/Staking.sol:Staking",
        "label": "governance",
        "offset": 0,
        "slot": "11",
        "type": "t_contract(IGovernanceStaking)12350"
      },
      {
        "astId": 16838,
        "contract": "contracts/Staking.sol:Staking",
        "label": "rewardDistribution",
        "offset": 0,
        "slot": "12",
        "type": "t_address"
      },
      {
        "astId": 16840,
        "contract": "contracts/Staking.sol:Staking",
        "label": "totalSupply",
        "offset": 0,
        "slot": "13",
        "type": "t_uint256"
      },
      {
        "astId": 16842,
        "contract": "contracts/Staking.sol:Staking",
        "label": "currentEpoch",
        "offset": 0,
        "slot": "14",
        "type": "t_uint256"
      },
      {
        "astId": 16846,
        "contract": "contracts/Staking.sol:Staking",
        "label": "balance",
        "offset": 0,
        "slot": "15",
        "type": "t_mapping(t_address,t_uint256)"
      },
      {
        "astId": 16850,
        "contract": "contracts/Staking.sol:Staking",
        "label": "freezed",
        "offset": 0,
        "slot": "16",
        "type": "t_mapping(t_address,t_bool)"
      },
      {
        "astId": 16854,
        "contract": "contracts/Staking.sol:Staking",
        "label": "stakingTypeAmounts",
        "offset": 0,
        "slot": "17",
        "type": "t_mapping(t_uint256,t_uint256)"
      },
      {
        "astId": 890,
        "contract": "contracts/Staking.sol:Staking",
        "label": "_initialized",
        "offset": 0,
        "slot": "18",
        "type": "t_bool"
      },
      {
        "astId": 893,
        "contract": "contracts/Staking.sol:Staking",
        "label": "_initializing",
        "offset": 1,
        "slot": "18",
        "type": "t_bool"
      },
      {
        "astId": 3750,
        "contract": "contracts/Staking.sol:Staking",
        "label": "__gap",
        "offset": 0,
        "slot": "19",
        "type": "t_array(t_uint256)50_storage"
      },
      {
        "astId": 321,
        "contract": "contracts/Staking.sol:Staking",
        "label": "_owner",
        "offset": 0,
        "slot": "69",
        "type": "t_address"
      },
      {
        "astId": 440,
        "contract": "contracts/Staking.sol:Staking",
        "label": "__gap",
        "offset": 0,
        "slot": "70",
        "type": "t_array(t_uint256)49_storage"
      }
    ],
    "types": {
      "t_address": {
        "encoding": "inplace",
        "label": "address",
        "numberOfBytes": "20"
      },
      "t_array(t_uint256)49_storage": {
        "base": "t_uint256",
        "encoding": "inplace",
        "label": "uint256[49]",
        "numberOfBytes": "1568"
      },
      "t_array(t_uint256)50_storage": {
        "base": "t_uint256",
        "encoding": "inplace",
        "label": "uint256[50]",
        "numberOfBytes": "1600"
      },
      "t_bool": {
        "encoding": "inplace",
        "label": "bool",
        "numberOfBytes": "1"
      },
      "t_contract(IERC20)6524": {
        "encoding": "inplace",
        "label": "contract IERC20",
        "numberOfBytes": "20"
      },
      "t_contract(IGovernanceStaking)12350": {
        "encoding": "inplace",
        "label": "contract IGovernanceStaking",
        "numberOfBytes": "20"
      },
      "t_mapping(t_address,t_bool)": {
        "encoding": "mapping",
        "key": "t_address",
        "label": "mapping(address => bool)",
        "numberOfBytes": "32",
        "value": "t_bool"
      },
      "t_mapping(t_address,t_uint256)": {
        "encoding": "mapping",
        "key": "t_address",
        "label": "mapping(address => uint256)",
        "numberOfBytes": "32",
        "value": "t_uint256"
      },
      "t_mapping(t_uint256,t_uint256)": {
        "encoding": "mapping",
        "key": "t_uint256",
        "label": "mapping(uint256 => uint256)",
        "numberOfBytes": "32",
        "value": "t_uint256"
      },
      "t_uint256": {
        "encoding": "inplace",
        "label": "uint256",
        "numberOfBytes": "32"
      }
    }
  }
}