{
  "address": "0x6a8feE1559CB1e9D980f29cf75309ada51c373E5",
  "abi": [
    {
      "anonymous": false,
      "inputs": [
        {
          "indexed": true,
          "internalType": "address",
          "name": "previousOwner",
          "type": "address"
        },
        {
          "indexed": true,
          "internalType": "address",
          "name": "newOwner",
          "type": "address"
        }
      ],
      "name": "OwnershipTransferred",
      "type": "event"
    },
    {
      "inputs": [],
      "name": "actionVerifier",
      "outputs": [
        {
          "internalType": "address",
          "name": "",
          "type": "address"
        }
      ],
      "stateMutability": "view",
      "type": "function"
    },
    {
      "inputs": [
        {
          "internalType": "address",
          "name": "registryAddress_",
          "type": "address"
        },
        {
          "internalType": "address",
          "name": "actionVerifierAddress_",
          "type": "address"
        },
        {
          "internalType": "address",
          "name": "stakingAddress_",
          "type": "address"
        }
      ],
      "name": "afterInitialize",
      "outputs": [],
      "stateMutability": "nonpayable",
      "type": "function"
    },
    {
      "inputs": [
        {
          "internalType": "address",
          "name": "from",
          "type": "address"
        },
        {
          "internalType": "uint256",
          "name": "amount",
          "type": "uint256"
        }
      ],
      "name": "burnReputationalToken",
      "outputs": [],
      "stateMutability": "nonpayable",
      "type": "function"
    },
    {
      "inputs": [
        {
          "internalType": "address",
          "name": "registryAddress",
          "type": "address"
        }
      ],
      "name": "changeRegistry",
      "outputs": [],
      "stateMutability": "nonpayable",
      "type": "function"
    },
    {
      "inputs": [],
      "name": "fundingNFT",
      "outputs": [
        {
          "internalType": "contract IERC1155Mint",
          "name": "",
          "type": "address"
        }
      ],
      "stateMutability": "view",
      "type": "function"
    },
    {
      "inputs": [
        {
          "internalType": "address",
          "name": "lendingToken_",
          "type": "address"
        },
        {
          "internalType": "address",
          "name": "fundingNFT_",
          "type": "address"
        }
      ],
      "name": "initialize",
      "outputs": [],
      "stateMutability": "nonpayable",
      "type": "function"
    },
    {
      "inputs": [
        {
          "internalType": "uint256",
          "name": "",
          "type": "uint256"
        }
      ],
      "name": "investmentSeeker",
      "outputs": [
        {
          "internalType": "address",
          "name": "",
          "type": "address"
        }
      ],
      "stateMutability": "view",
      "type": "function"
    },
    {
      "inputs": [],
      "name": "lendingToken",
      "outputs": [
        {
          "internalType": "contract IERC20",
          "name": "",
          "type": "address"
        }
      ],
      "stateMutability": "view",
      "type": "function"
    },
    {
      "inputs": [
        {
          "internalType": "address",
          "name": "recipient",
          "type": "address"
        },
        {
          "internalType": "uint256",
          "name": "amount",
          "type": "uint256"
        }
      ],
      "name": "mintReputationalToken",
      "outputs": [],
      "stateMutability": "nonpayable",
      "type": "function"
    },
    {
      "inputs": [
        {
          "internalType": "address[]",
          "name": "recipients",
          "type": "address[]"
        },
        {
          "internalType": "uint256[]",
          "name": "amounts",
          "type": "uint256[]"
        }
      ],
      "name": "multiMintReputationalToken",
      "outputs": [],
      "stateMutability": "nonpayable",
      "type": "function"
    },
    {
      "inputs": [
        {
          "internalType": "address",
          "name": "",
          "type": "address"
        },
        {
          "internalType": "address",
          "name": "",
          "type": "address"
        },
        {
          "internalType": "uint256[]",
          "name": "",
          "type": "uint256[]"
        },
        {
          "internalType": "uint256[]",
          "name": "",
          "type": "uint256[]"
        },
        {
          "internalType": "bytes",
          "name": "",
          "type": "bytes"
        }
      ],
      "name": "onERC1155BatchReceived",
      "outputs": [
        {
          "internalType": "bytes4",
          "name": "",
          "type": "bytes4"
        }
      ],
      "stateMutability": "nonpayable",
      "type": "function"
    },
    {
      "inputs": [
        {
          "internalType": "address",
          "name": "",
          "type": "address"
        },
        {
          "internalType": "address",
          "name": "",
          "type": "address"
        },
        {
          "internalType": "uint256",
          "name": "",
          "type": "uint256"
        },
        {
          "internalType": "uint256",
          "name": "",
          "type": "uint256"
        },
        {
          "internalType": "bytes",
          "name": "",
          "type": "bytes"
        }
      ],
      "name": "onERC1155Received",
      "outputs": [
        {
          "internalType": "bytes4",
          "name": "",
          "type": "bytes4"
        }
      ],
      "stateMutability": "nonpayable",
      "type": "function"
    },
    {
      "inputs": [],
      "name": "owner",
      "outputs": [
        {
          "internalType": "address",
          "name": "",
          "type": "address"
        }
      ],
      "stateMutability": "view",
      "type": "function"
    },
    {
      "inputs": [],
      "name": "registry",
      "outputs": [
        {
          "internalType": "contract IRegistry",
          "name": "",
          "type": "address"
        }
      ],
      "stateMutability": "view",
      "type": "function"
    },
    {
      "inputs": [],
      "name": "renounceOwnership",
      "outputs": [],
      "stateMutability": "nonpayable",
      "type": "function"
    },
    {
      "inputs": [],
      "name": "reputationalALBT",
      "outputs": [
        {
          "internalType": "contract rALBT",
          "name": "",
          "type": "address"
        }
      ],
      "stateMutability": "view",
      "type": "function"
    },
    {
      "inputs": [],
      "name": "staking",
      "outputs": [
        {
          "internalType": "address",
          "name": "",
          "type": "address"
        }
      ],
      "stateMutability": "view",
      "type": "function"
    },
    {
      "inputs": [
        {
          "internalType": "bytes4",
          "name": "interfaceId",
          "type": "bytes4"
        }
      ],
      "name": "supportsInterface",
      "outputs": [
        {
          "internalType": "bool",
          "name": "",
          "type": "bool"
        }
      ],
      "stateMutability": "view",
      "type": "function"
    },
    {
      "inputs": [
        {
          "internalType": "uint256",
          "name": "investmentId",
          "type": "uint256"
        },
        {
          "internalType": "uint256",
          "name": "partitionsPurchased",
          "type": "uint256"
        },
        {
          "internalType": "address",
          "name": "receiver",
          "type": "address"
        }
      ],
      "name": "transferFundingNFT",
      "outputs": [],
      "stateMutability": "nonpayable",
      "type": "function"
    },
    {
      "inputs": [
        {
          "internalType": "address",
          "name": "seeker",
          "type": "address"
        },
        {
          "internalType": "uint256",
          "name": "amount",
          "type": "uint256"
        }
      ],
      "name": "transferLendingToken",
      "outputs": [],
      "stateMutability": "nonpayable",
      "type": "function"
    },
    {
      "inputs": [
        {
          "internalType": "address",
          "name": "newOwner",
          "type": "address"
        }
      ],
      "name": "transferOwnership",
      "outputs": [],
      "stateMutability": "nonpayable",
      "type": "function"
    },
    {
      "inputs": [
        {
          "internalType": "address",
          "name": "projectToken",
          "type": "address"
        },
        {
          "internalType": "address",
          "name": "recipient",
          "type": "address"
        },
        {
          "internalType": "uint256",
          "name": "amount",
          "type": "uint256"
        }
      ],
      "name": "transferProjectToken",
      "outputs": [],
      "stateMutability": "nonpayable",
      "type": "function"
    }
  ],
  "transactionHash": "0xf0c77f578c629eb67fae882b7dbec17fe82f09c4c11808aacc9a51f1cf30e783",
  "args": [],
  "solcInputHash": "63d67ace6a058016357a612de751f207",
  "bytecode": "0x608060405234801561001057600080fd5b5061220b806100206000396000f3fe608060405234801561001057600080fd5b50600436106101425760003560e01c8063939156a2116100b8578063d01779791161007c578063d0177979146104d2578063dc9a12ae146104fe578063f23a6e6114610536578063f2fde38b146105ff578063fc0da38014610625578063fec0956c1461064257610142565b8063939156a2146102865780639e696bea1461028e578063aaaca558146102c0578063bc197c81146102c8578063cf96e83e146104a657610142565b8063485cc9551161010a578063485cc9551461020c5780634cf088d91461023a5780634e391f3d14610242578063715018a61461026e5780637b103999146102765780638da5cb5b1461027e57610142565b806301ffc9a71461014757806315554c551461018257806337d6020c146101aa5780633a01884a146101e05780633a9cf3fa14610204575b600080fd5b61016e6004803603602081101561015d57600080fd5b50356001600160e01b031916610765565b604080519115158252519081900360200190f35b6101a86004803603602081101561019857600080fd5b50356001600160a01b0316610784565b005b6101a8600480360360608110156101c057600080fd5b506001600160a01b03813581169160208101359091169060400135610810565b6101e86108ed565b604080516001600160a01b039092168252519081900360200190f35b6101e86108fc565b6101a86004803603604081101561022257600080fd5b506001600160a01b038135811691602001351661090b565b6101e8610a30565b6101a86004803603604081101561025857600080fd5b506001600160a01b038135169060200135610a3f565b6101a8610afe565b6101e8610baa565b6101e8610bbf565b6101e8610bce565b6101a8600480360360608110156102a457600080fd5b50803590602081013590604001356001600160a01b0316610bdd565b6101e8610cbd565b610489600480360360a08110156102de57600080fd5b6001600160a01b038235811692602081013590911691810190606081016040820135600160201b81111561031157600080fd5b82018360208201111561032357600080fd5b803590602001918460208302840111600160201b8311171561034457600080fd5b9190808060200260200160405190810160405280939291908181526020018383602002808284376000920191909152509295949360208101935035915050600160201b81111561039357600080fd5b8201836020820111156103a557600080fd5b803590602001918460208302840111600160201b831117156103c657600080fd5b9190808060200260200160405190810160405280939291908181526020018383602002808284376000920191909152509295949360208101935035915050600160201b81111561041557600080fd5b82018360208201111561042757600080fd5b803590602001918460018302840111600160201b8311171561044857600080fd5b91908080601f016020809104026020016040519081016040528093929190818152602001838380828437600092019190915250929550610ccc945050505050565b604080516001600160e01b03199092168252519081900360200190f35b6101a8600480360360408110156104bc57600080fd5b506001600160a01b038135169060200135610cdd565b6101a8600480360360408110156104e857600080fd5b506001600160a01b038135169060200135610db8565b6101a86004803603606081101561051457600080fd5b506001600160a01b038135811691602081013582169160409091013516610e87565b610489600480360360a081101561054c57600080fd5b6001600160a01b03823581169260208101359091169160408201359160608101359181019060a081016080820135600160201b81111561058b57600080fd5b82018360208201111561059d57600080fd5b803590602001918460018302840111600160201b831117156105be57600080fd5b91908080601f016020809104026020016040519081016040528093929190818152602001838380828437600092019190915250929550611011945050505050565b6101a86004803603602081101561061557600080fd5b50356001600160a01b0316611022565b6101e86004803603602081101561063b57600080fd5b5035611125565b6101a86004803603604081101561065857600080fd5b810190602081018135600160201b81111561067257600080fd5b82018360208201111561068457600080fd5b803590602001918460208302840111600160201b831117156106a557600080fd5b9190808060200260200160405190810160405280939291908181526020018383602002808284376000920191909152509295949360208101935035915050600160201b8111156106f457600080fd5b82018360208201111561070657600080fd5b803590602001918460208302840111600160201b8311171561072757600080fd5b919080806020026020016040519081016040528093929190818152602001838360200280828437600092019190915250929550611140945050505050565b6001600160e01b0319166000908152606b602052604090205460ff1690565b61078c611265565b6001600160a01b031661079d610bbf565b6001600160a01b0316146107e6576040805162461bcd60e51b81526020600482018190526024820152600080516020612190833981519152604482015290519081900360640190fd5b600080546001600160a01b03909216620100000262010000600160b01b0319909216919091179055565b6000546201000090046001600160a01b03163314610865576040805162461bcd60e51b815260206004820152600d60248201526c4f6e6c7920526567697374727960981b604482015290519081900360640190fd5b826001600160a01b031663a9059cbb83836040518363ffffffff1660e01b815260040180836001600160a01b0316815260200182815260200192505050602060405180830381600087803b1580156108bc57600080fd5b505af11580156108d0573d6000803e3d6000fd5b505050506040513d60208110156108e657600080fd5b5050505050565b6006546001600160a01b031681565b6003546001600160a01b031681565b600054610100900460ff16806109245750610924611269565b80610932575060005460ff16155b61096d5760405162461bcd60e51b815260040180806020018281038252602e815260200180612136602e913960400191505060405180910390fd5b600054610100900460ff16158015610998576000805460ff1961ff0019909116610100171660011790555b6109a061127a565b600180546001600160a01b038086166001600160a01b03199283161790925560028054928516929091169190911790556040516109dc906114cb565b604051809103906000f0801580156109f8573d6000803e3d6000fd5b50600680546001600160a01b0319166001600160a01b03929092169190911790558015610a2b576000805461ff00191690555b505050565b6004546001600160a01b031681565b6004546001600160a01b03163314610a8d576040805162461bcd60e51b815260206004820152600c60248201526b4f6e6c79205374616b696e6760a01b604482015290519081900360640190fd5b6006546040805163079cc67960e41b81526001600160a01b03858116600483015260248201859052915191909216916379cc679091604480830192600092919082900301818387803b158015610ae257600080fd5b505af1158015610af6573d6000803e3d6000fd5b505050505050565b610b06611265565b6001600160a01b0316610b17610bbf565b6001600160a01b031614610b60576040805162461bcd60e51b81526020600482018190526024820152600080516020612190833981519152604482015290519081900360640190fd5b6039546040516000916001600160a01b0316907f8be0079c531659141344cd1fd0a4f28419497f9722a3daafe3b4186f6b6457e0908390a3603980546001600160a01b0319169055565b6000546201000090046001600160a01b031681565b6039546001600160a01b031690565b6002546001600160a01b031681565b6000546201000090046001600160a01b03163314610c32576040805162461bcd60e51b815260206004820152600d60248201526c4f6e6c7920526567697374727960981b604482015290519081900360640190fd5b60025460408051637921219560e11b81523060048201526001600160a01b038481166024830152604482018790526064820186905260a06084830152600060a48301819052925193169263f242432a9260c48084019391929182900301818387803b158015610ca057600080fd5b505af1158015610cb4573d6000803e3d6000fd5b50505050505050565b6001546001600160a01b031681565b63bc197c8160e01b95945050505050565b6000546201000090046001600160a01b03163314610d32576040805162461bcd60e51b815260206004820152600d60248201526c4f6e6c7920526567697374727960981b604482015290519081900360640190fd5b6001546040805163a9059cbb60e01b81526001600160a01b038581166004830152602482018590529151919092169163a9059cbb9160448083019260209291908290030181600087803b158015610d8857600080fd5b505af1158015610d9c573d6000803e3d6000fd5b505050506040513d6020811015610db257600080fd5b50505050565b6004546001600160a01b0316331480610de157506000546201000090046001600160a01b031633145b610e32576040805162461bcd60e51b815260206004820152601860248201527f4f6e6c79205265676973747279206f72205374616b696e670000000000000000604482015290519081900360640190fd5b600654604080516308934a5f60e31b81526001600160a01b038581166004830152602482018590529151919092169163449a52f891604480830192600092919082900301818387803b158015610ae257600080fd5b610e8f611265565b6001600160a01b0316610ea0610bbf565b6001600160a01b031614610ee9576040805162461bcd60e51b81526020600482018190526024820152600080516020612190833981519152604482015290519081900360640190fd5b6000546201000090046001600160a01b031615610f375760405162461bcd60e51b81526004018080602001828103825260268152602001806121b06026913960400191505060405180910390fd5b6003546001600160a01b031615610f7f5760405162461bcd60e51b815260040180806020018281038252602c815260200180612164602c913960400191505060405180910390fd5b6004546001600160a01b031615610fc75760405162461bcd60e51b81526004018080602001828103825260258152602001806121116025913960400191505060405180910390fd5b600080546001600160a01b03948516620100000262010000600160b01b0319909116179055600380549284166001600160a01b031993841617905560048054919093169116179055565b63f23a6e6160e01b95945050505050565b61102a611265565b6001600160a01b031661103b610bbf565b6001600160a01b031614611084576040805162461bcd60e51b81526020600482018190526024820152600080516020612190833981519152604482015290519081900360640190fd5b6001600160a01b0381166110c95760405162461bcd60e51b81526004018080602001828103825260268152602001806120eb6026913960400191505060405180910390fd5b6039546040516001600160a01b038084169216907f8be0079c531659141344cd1fd0a4f28419497f9722a3daafe3b4186f6b6457e090600090a3603980546001600160a01b0319166001600160a01b0392909216919091179055565b6005602052600090815260409020546001600160a01b031681565b6003546001600160a01b03163314611196576040805162461bcd60e51b815260206004820152601460248201527327b7363c9020b1ba34b7b7102b32b934b334b2b960611b604482015290519081900360640190fd5b60065460408051631109c73360e11b8152600481019182528451604482015284516001600160a01b03909316926322138e669286928692829160248101916064909101906020808801910280838360005b838110156111ff5781810151838201526020016111e7565b50505050905001838103825284818151815260200191508051906020019060200280838360005b8381101561123e578181015183820152602001611226565b50505050905001945050505050600060405180830381600087803b158015610ae257600080fd5b3390565b60006112743061132c565b15905090565b600054610100900460ff16806112935750611293611269565b806112a1575060005460ff16155b6112dc5760405162461bcd60e51b815260040180806020018281038252602e815260200180612136602e913960400191505060405180910390fd5b600054610100900460ff16158015611307576000805460ff1961ff0019909116610100171660011790555b61130f611332565b6113176113d2565b8015611329576000805461ff00191690555b50565b3b151590565b600054610100900460ff168061134b575061134b611269565b80611359575060005460ff16155b6113945760405162461bcd60e51b815260040180806020018281038252602e815260200180612136602e913960400191505060405180910390fd5b600054610100900460ff16158015611317576000805460ff1961ff0019909116610100171660011790558015611329576000805461ff001916905550565b600054610100900460ff16806113eb57506113eb611269565b806113f9575060005460ff16155b6114345760405162461bcd60e51b815260040180806020018281038252602e815260200180612136602e913960400191505060405180910390fd5b600054610100900460ff1615801561145f576000805460ff1961ff0019909116610100171660011790555b6000611469611265565b603980546001600160a01b0319166001600160a01b038316908117909155604051919250906000907f8be0079c531659141344cd1fd0a4f28419497f9722a3daafe3b4186f6b6457e0908290a3508015611329576000805461ff001916905550565b610c12806114d98339019056fe608060405234801561001057600080fd5b50600061001b61006a565b600080546001600160a01b0319166001600160a01b0383169081178255604051929350917f8be0079c531659141344cd1fd0a4f28419497f9722a3daafe3b4186f6b6457e0908290a35061006e565b3390565b610b958061007d6000396000f3fe608060405234801561001057600080fd5b50600436106100a95760003560e01c806370a082311161007157806370a08231146102b8578063715018a6146102de57806379cc6790146102e65780638da5cb5b1461031257806395d89b4114610336578063f2fde38b1461033e576100a9565b806306fdde03146100ae57806318160ddd1461012b57806322138e6614610145578063313ce5671461026e578063449a52f81461028c575b600080fd5b6100b6610364565b6040805160208082528351818301528351919283929083019185019080838360005b838110156100f05781810151838201526020016100d8565b50505050905090810190601f16801561011d5780820380516001836020036101000a031916815260200191505b509250505060405180910390f35b61013361039b565b60408051918252519081900360200190f35b61026c6004803603604081101561015b57600080fd5b81019060208101813564010000000081111561017657600080fd5b82018360208201111561018857600080fd5b803590602001918460208302840111640100000000831117156101aa57600080fd5b91908080602002602001604051908101604052809392919081815260200183836020028082843760009201919091525092959493602081019350359150506401000000008111156101fa57600080fd5b82018360208201111561020c57600080fd5b8035906020019184602083028401116401000000008311171561022e57600080fd5b9190808060200260200160405190810160405280939291908181526020018383602002808284376000920191909152509295506103a1945050505050565b005b6102766104cf565b6040805160ff9092168252519081900360200190f35b61026c600480360360408110156102a257600080fd5b506001600160a01b0381351690602001356104d4565b610133600480360360208110156102ce57600080fd5b50356001600160a01b0316610544565b61026c61055f565b61026c600480360360408110156102fc57600080fd5b506001600160a01b03813516906020013561060b565b61031a610677565b604080516001600160a01b039092168252519081900360200190f35b6100b6610686565b61026c6004803603602081101561035457600080fd5b50356001600160a01b03166106a5565b6040805180820190915260208082527f52657075746174696f6e616c20416c6c69616e6365426c6f636b20546f6b656e9082015290565b60015490565b6103a96107a7565b6001600160a01b03166103ba610677565b6001600160a01b031614610403576040805162461bcd60e51b81526020600482018190526024820152600080516020610b1f833981519152604482015290519081900360640190fd5b8051825114610459576040805162461bcd60e51b815260206004820152601f60248201527f496e76616c6964206c656e677468206f6620746f206f7220616d6f756e747300604482015290519081900360640190fd5b60005b82518110156104ca5760006001600160a01b031683828151811061047c57fe5b60200260200101516001600160a01b0316146104c2576104c28382815181106104a157fe5b60200260200101518383815181106104b557fe5b60200260200101516107ab565b60010161045c565b505050565b601290565b6104dc6107a7565b6001600160a01b03166104ed610677565b6001600160a01b031614610536576040805162461bcd60e51b81526020600482018190526024820152600080516020610b1f833981519152604482015290519081900360640190fd5b61054082826107ab565b5050565b6001600160a01b031660009081526002602052604090205490565b6105676107a7565b6001600160a01b0316610578610677565b6001600160a01b0316146105c1576040805162461bcd60e51b81526020600482018190526024820152600080516020610b1f833981519152604482015290519081900360640190fd5b600080546040516001600160a01b03909116907f8be0079c531659141344cd1fd0a4f28419497f9722a3daafe3b4186f6b6457e0908390a3600080546001600160a01b0319169055565b6106136107a7565b6001600160a01b0316610624610677565b6001600160a01b03161461066d576040805162461bcd60e51b81526020600482018190526024820152600080516020610b1f833981519152604482015290519081900360640190fd5b6105408282610891565b6000546001600160a01b031690565b6040805180820190915260058152641c9053109560da1b602082015290565b6106ad6107a7565b6001600160a01b03166106be610677565b6001600160a01b031614610707576040805162461bcd60e51b81526020600482018190526024820152600080516020610b1f833981519152604482015290519081900360640190fd5b6001600160a01b03811661074c5760405162461bcd60e51b8152600401808060200182810382526026815260200180610af96026913960400191505060405180910390fd5b600080546040516001600160a01b03808516939216917f8be0079c531659141344cd1fd0a4f28419497f9722a3daafe3b4186f6b6457e091a3600080546001600160a01b0319166001600160a01b0392909216919091179055565b3390565b6001600160a01b038216610806576040805162461bcd60e51b815260206004820152601f60248201527f45524332303a206d696e7420746f20746865207a65726f206164647265737300604482015290519081900360640190fd5b6001546108139082610981565b6001556001600160a01b0382166000908152600260205260409020546108399082610981565b6001600160a01b03831660008181526002602090815260408083209490945583518581529351929391927fddf252ad1be2c89b69c2b068fc378daa952ba7f163c4a11628f55a4df523b3ef9281900390910190a35050565b6001600160a01b0382166108d65760405162461bcd60e51b8152600401808060200182810382526021815260200180610b3f6021913960400191505060405180910390fd5b61091381604051806060016040528060228152602001610ad7602291396001600160a01b03851660009081526002602052604090205491906109e2565b6001600160a01b0383166000908152600260205260409020556001546109399082610a79565b6001556040805182815290516000916001600160a01b038516917fddf252ad1be2c89b69c2b068fc378daa952ba7f163c4a11628f55a4df523b3ef9181900360200190a35050565b6000828201838110156109db576040805162461bcd60e51b815260206004820152601b60248201527f536166654d6174683a206164646974696f6e206f766572666c6f770000000000604482015290519081900360640190fd5b9392505050565b60008184841115610a715760405162461bcd60e51b81526004018080602001828103825283818151815260200191508051906020019080838360005b83811015610a36578181015183820152602001610a1e565b50505050905090810190601f168015610a635780820380516001836020036101000a031916815260200191505b509250505060405180910390fd5b505050900390565b600082821115610ad0576040805162461bcd60e51b815260206004820152601e60248201527f536166654d6174683a207375627472616374696f6e206f766572666c6f770000604482015290519081900360640190fd5b5090039056fe45524332303a206275726e20616d6f756e7420657863656564732062616c616e63654f776e61626c653a206e6577206f776e657220697320746865207a65726f20616464726573734f776e61626c653a2063616c6c6572206973206e6f7420746865206f776e657245524332303a206275726e2066726f6d20746865207a65726f2061646472657373a264697066735822122070890bb985a4b33c9cfd35c14594ad9f76e7103f2d1cd380e31340ecad840d5464736f6c634300070600334f776e61626c653a206e6577206f776e657220697320746865207a65726f206164647265737343616e6e6f7420696e697469616c697a65207374616b696e67207365636f6e642074696d65496e697469616c697a61626c653a20636f6e747261637420697320616c726561647920696e697469616c697a656443616e6e6f7420696e697469616c697a6520616374696f6e5665726966696572207365636f6e642074696d654f776e61626c653a2063616c6c6572206973206e6f7420746865206f776e657243616e6e6f7420696e697469616c697a65207265676973747279207365636f6e642074696d65a2646970667358221220000f8758e0f3289d2d4ea7634d5d390932744ca7635d02a74801c863f28fb1bd64736f6c63430007060033",
  "devdoc": {
    "details": "Extends Initializable, EscrowDetails, OwnableUpgradeable, ERC1155HolderUpgradeable",
    "kind": "dev",
    "methods": {
      "afterInitialize(address,address,address)": {
        "details": "To be executed after Initializerequires not already initialized",
        "params": {
          "actionVerifierAddress_": "The actionVerifier address.",
          "registryAddress_": "The registry address.",
          "stakingAddress_": "The staking address"
        }
      },
      "burnReputationalToken(address,uint256)": {
        "details": "This function is used to burn reputational tokens.",
        "params": {
          "amount": "The amount of reputational tokens to be burnt.",
          "from": "The address to burn the reputational tokens from."
        }
      },
      "changeRegistry(address)": {
        "details": "This function is used to change the registry address in case of an upgrade.",
        "params": {
          "registryAddress": "The address of the upgraded Registry contract."
        }
      },
      "initialize(address,address)": {
        "details": "Initializes the contract.",
        "params": {
          "fundingNFT_": "The ERC1155 token contract which will represent the lending amounts.",
          "lendingToken_": "The token that lenders will be able to lend."
        }
      },
      "mintReputationalToken(address,uint256)": {
        "details": "This function is used to mint reputational tokens.",
        "params": {
          "amount": "The amount of reputational tokens to be minted.",
          "recipient": "The address to mint the reputational tokens to."
        }
      },
      "multiMintReputationalToken(address[],uint256[])": {
        "details": "This function is used to multi mint reputational tokens.",
        "params": {
          "amounts": "The amounts of reputational tokens to be minted.",
          "recipients": "The addresses to mint the reputational tokens to."
        }
      },
      "owner()": {
        "details": "Returns the address of the current owner."
      },
      "renounceOwnership()": {
        "details": "Leaves the contract without owner. It will not be possible to call `onlyOwner` functions anymore. Can only be called by the current owner. NOTE: Renouncing ownership will leave the contract without an owner, thereby removing any functionality that is only available to the owner."
      },
      "supportsInterface(bytes4)": {
        "details": "See {IERC165-supportsInterface}. Time complexity O(1), guaranteed to always use less than 30 000 gas."
      },
      "transferFundingNFT(uint256,uint256,address)": {
        "details": "This function is used to send the ERC1155 tokens from escrow to the lenders.",
        "params": {
          "investmentId": "The id of the investment.",
          "partitionsPurchased": "The amount of ERC1155 tokens that should be sent back to the lender.",
          "receiver": "Lender's address."
        }
      },
      "transferLendingToken(address,uint256)": {
        "details": "This function is used to send the lended amount to the seeker.",
        "params": {
          "amount": "The amount of lending tokens to be sent to seeker.",
          "seeker": "Seeker's address."
        }
      },
      "transferOwnership(address)": {
        "details": "Transfers ownership of the contract to a new account (`newOwner`). Can only be called by the current owner."
      },
      "transferProjectToken(address,address,uint256)": {
        "details": "This function is used to send the project token amount to the seeker.",
        "params": {
          "amount": "The amount of project tokens to be sent to seeker.",
          "projectToken": "The project token's contract address.",
          "recipient": "The address to transfer the project tokens to."
        }
      }
    },
    "title": "AllianceBlock Escrow contract",
    "version": 1
  },
  "userdoc": {
    "kind": "user",
    "methods": {
      "afterInitialize(address,address,address)": {
        "notice": "After Initialize"
      },
      "burnReputationalToken(address,uint256)": {
        "notice": "Burn Reputation token"
      },
      "changeRegistry(address)": {
        "notice": "Change Registry"
      },
      "initialize(address,address)": {
        "notice": "Initialize"
      },
      "mintReputationalToken(address,uint256)": {
        "notice": "Mint Reputation Token"
      },
      "multiMintReputationalToken(address[],uint256[])": {
        "notice": "Multi Mint Reputation Token"
      },
      "transferFundingNFT(uint256,uint256,address)": {
        "notice": "Transfer Funding NFT"
      },
      "transferLendingToken(address,uint256)": {
        "notice": "Transfer Lending Token"
      },
      "transferProjectToken(address,address,uint256)": {
        "notice": "Transfer Project Token"
      }
    },
    "notice": "Responsible for handling the funds in AllianceBlock's ecosystem.",
    "version": 1
  },
  "storageLayout": {
    "storage": [
      {
        "astId": 890,
        "contract": "contracts/Escrow.sol:Escrow",
        "label": "_initialized",
        "offset": 0,
        "slot": "0",
        "type": "t_bool"
      },
      {
        "astId": 893,
        "contract": "contracts/Escrow.sol:Escrow",
        "label": "_initializing",
        "offset": 1,
        "slot": "0",
        "type": "t_bool"
      },
      {
        "astId": 6497,
        "contract": "contracts/Escrow.sol:Escrow",
        "label": "registry",
        "offset": 2,
        "slot": "0",
        "type": "t_contract(IRegistry)8478"
      },
      {
        "astId": 6499,
        "contract": "contracts/Escrow.sol:Escrow",
        "label": "lendingToken",
        "offset": 0,
        "slot": "1",
        "type": "t_contract(IERC20)4711"
      },
      {
        "astId": 6501,
        "contract": "contracts/Escrow.sol:Escrow",
        "label": "fundingNFT",
        "offset": 0,
        "slot": "2",
        "type": "t_contract(IERC1155Mint)8373"
      },
      {
        "astId": 6503,
        "contract": "contracts/Escrow.sol:Escrow",
        "label": "actionVerifier",
        "offset": 0,
        "slot": "3",
        "type": "t_address"
      },
      {
        "astId": 6505,
        "contract": "contracts/Escrow.sol:Escrow",
        "label": "staking",
        "offset": 0,
        "slot": "4",
        "type": "t_address"
      },
      {
        "astId": 6509,
        "contract": "contracts/Escrow.sol:Escrow",
        "label": "investmentSeeker",
        "offset": 0,
        "slot": "5",
        "type": "t_mapping(t_uint256,t_address)"
      },
      {
        "astId": 6511,
        "contract": "contracts/Escrow.sol:Escrow",
        "label": "reputationalALBT",
        "offset": 0,
        "slot": "6",
        "type": "t_contract(rALBT)10440"
      },
      {
        "astId": 2584,
        "contract": "contracts/Escrow.sol:Escrow",
        "label": "__gap",
        "offset": 0,
        "slot": "7",
        "type": "t_array(t_uint256)50_storage"
      },
      {
        "astId": 321,
        "contract": "contracts/Escrow.sol:Escrow",
        "label": "_owner",
        "offset": 0,
        "slot": "57",
        "type": "t_address"
      },
      {
        "astId": 440,
        "contract": "contracts/Escrow.sol:Escrow",
        "label": "__gap",
        "offset": 0,
        "slot": "58",
        "type": "t_array(t_uint256)49_storage"
      },
      {
        "astId": 458,
        "contract": "contracts/Escrow.sol:Escrow",
        "label": "_supportedInterfaces",
        "offset": 0,
        "slot": "107",
        "type": "t_mapping(t_bytes4,t_bool)"
      },
      {
        "astId": 515,
        "contract": "contracts/Escrow.sol:Escrow",
        "label": "__gap",
        "offset": 0,
        "slot": "108",
        "type": "t_array(t_uint256)49_storage"
      },
      {
        "astId": 1082,
        "contract": "contracts/Escrow.sol:Escrow",
        "label": "__gap",
        "offset": 0,
        "slot": "157",
        "type": "t_array(t_uint256)50_storage"
      },
      {
        "astId": 1027,
        "contract": "contracts/Escrow.sol:Escrow",
        "label": "__gap",
        "offset": 0,
        "slot": "207",
        "type": "t_array(t_uint256)50_storage"
      }
    ],
    "types": {
      "t_address": {
        "encoding": "inplace",
        "label": "address",
        "numberOfBytes": "20"
      },
      "t_array(t_uint256)49_storage": {
        "base": "t_uint256",
        "encoding": "inplace",
        "label": "uint256[49]",
        "numberOfBytes": "1568"
      },
      "t_array(t_uint256)50_storage": {
        "base": "t_uint256",
        "encoding": "inplace",
        "label": "uint256[50]",
        "numberOfBytes": "1600"
      },
      "t_bool": {
        "encoding": "inplace",
        "label": "bool",
        "numberOfBytes": "1"
      },
      "t_bytes4": {
        "encoding": "inplace",
        "label": "bytes4",
        "numberOfBytes": "4"
      },
      "t_contract(IERC1155Mint)8373": {
        "encoding": "inplace",
        "label": "contract IERC1155Mint",
        "numberOfBytes": "20"
      },
      "t_contract(IERC20)4711": {
        "encoding": "inplace",
        "label": "contract IERC20",
        "numberOfBytes": "20"
      },
      "t_contract(IRegistry)8478": {
        "encoding": "inplace",
        "label": "contract IRegistry",
        "numberOfBytes": "20"
      },
      "t_contract(rALBT)10440": {
        "encoding": "inplace",
        "label": "contract rALBT",
        "numberOfBytes": "20"
      },
      "t_mapping(t_bytes4,t_bool)": {
        "encoding": "mapping",
        "key": "t_bytes4",
        "label": "mapping(bytes4 => bool)",
        "numberOfBytes": "32",
        "value": "t_bool"
      },
      "t_mapping(t_uint256,t_address)": {
        "encoding": "mapping",
        "key": "t_uint256",
        "label": "mapping(uint256 => address)",
        "numberOfBytes": "32",
        "value": "t_address"
      },
      "t_uint256": {
        "encoding": "inplace",
        "label": "uint256",
        "numberOfBytes": "32"
      }
    }
  }
}