{
  "address": "0x06E880925368c59061Da510cc09965b152147980",
  "abi": [
    {
      "anonymous": false,
      "inputs": [
        {
          "indexed": true,
          "internalType": "address",
          "name": "previousOwner",
          "type": "address"
        },
        {
          "indexed": true,
          "internalType": "address",
          "name": "newOwner",
          "type": "address"
        }
      ],
      "name": "OwnershipTransferred",
      "type": "event"
    },
    {
      "inputs": [
        {
          "internalType": "address",
          "name": "registryAddress",
          "type": "address"
        }
      ],
      "name": "changeRegistry",
      "outputs": [],
      "stateMutability": "nonpayable",
      "type": "function"
    },
    {
      "inputs": [],
      "name": "fundingNFT",
      "outputs": [
        {
          "internalType": "contract IERC1155Mint",
          "name": "",
          "type": "address"
        }
      ],
      "stateMutability": "view",
      "type": "function"
    },
    {
      "inputs": [
        {
          "internalType": "address",
          "name": "lendingToken_",
          "type": "address"
        },
        {
          "internalType": "address",
          "name": "mainNFT_",
          "type": "address"
        },
        {
          "internalType": "address",
          "name": "fundingNFT_",
          "type": "address"
        }
      ],
      "name": "initialize",
      "outputs": [],
      "stateMutability": "nonpayable",
      "type": "function"
    },
    {
      "inputs": [],
      "name": "lendingToken",
      "outputs": [
        {
          "internalType": "contract IERC20",
          "name": "",
          "type": "address"
        }
      ],
      "stateMutability": "view",
      "type": "function"
    },
    {
      "inputs": [
        {
          "internalType": "uint256",
          "name": "",
          "type": "uint256"
        }
      ],
      "name": "loanSeeker",
      "outputs": [
        {
          "internalType": "address",
          "name": "",
          "type": "address"
        }
      ],
      "stateMutability": "view",
      "type": "function"
    },
    {
      "inputs": [],
      "name": "mainNFT",
      "outputs": [
        {
          "internalType": "contract IERC721Mint",
          "name": "",
          "type": "address"
        }
      ],
      "stateMutability": "view",
      "type": "function"
    },
    {
      "inputs": [
        {
          "internalType": "address",
          "name": "",
          "type": "address"
        },
        {
          "internalType": "address",
          "name": "",
          "type": "address"
        },
        {
          "internalType": "uint256[]",
          "name": "",
          "type": "uint256[]"
        },
        {
          "internalType": "uint256[]",
          "name": "",
          "type": "uint256[]"
        },
        {
          "internalType": "bytes",
          "name": "",
          "type": "bytes"
        }
      ],
      "name": "onERC1155BatchReceived",
      "outputs": [
        {
          "internalType": "bytes4",
          "name": "",
          "type": "bytes4"
        }
      ],
      "stateMutability": "nonpayable",
      "type": "function"
    },
    {
      "inputs": [
        {
          "internalType": "address",
          "name": "",
          "type": "address"
        },
        {
          "internalType": "address",
          "name": "",
          "type": "address"
        },
        {
          "internalType": "uint256",
          "name": "",
          "type": "uint256"
        },
        {
          "internalType": "uint256",
          "name": "",
          "type": "uint256"
        },
        {
          "internalType": "bytes",
          "name": "",
          "type": "bytes"
        }
      ],
      "name": "onERC1155Received",
      "outputs": [
        {
          "internalType": "bytes4",
          "name": "",
          "type": "bytes4"
        }
      ],
      "stateMutability": "nonpayable",
      "type": "function"
    },
    {
      "inputs": [],
      "name": "owner",
      "outputs": [
        {
          "internalType": "address",
          "name": "",
          "type": "address"
        }
      ],
      "stateMutability": "view",
      "type": "function"
    },
    {
      "inputs": [],
      "name": "registry",
      "outputs": [
        {
          "internalType": "contract IRegistry",
          "name": "",
          "type": "address"
        }
      ],
      "stateMutability": "view",
      "type": "function"
    },
    {
      "inputs": [],
      "name": "renounceOwnership",
      "outputs": [],
      "stateMutability": "nonpayable",
      "type": "function"
    },
    {
      "inputs": [
        {
          "internalType": "address",
          "name": "registryAddress_",
          "type": "address"
        }
      ],
      "name": "setRegistry",
      "outputs": [],
      "stateMutability": "nonpayable",
      "type": "function"
    },
    {
      "inputs": [
        {
          "internalType": "bytes4",
          "name": "interfaceId",
          "type": "bytes4"
        }
      ],
      "name": "supportsInterface",
      "outputs": [
        {
          "internalType": "bool",
          "name": "",
          "type": "bool"
        }
      ],
      "stateMutability": "view",
      "type": "function"
    },
    {
      "inputs": [
        {
          "internalType": "address",
          "name": "collateralToken",
          "type": "address"
        },
        {
          "internalType": "address",
          "name": "recipient",
          "type": "address"
        },
        {
          "internalType": "uint256",
          "name": "amount",
          "type": "uint256"
        }
      ],
      "name": "transferCollateralToken",
      "outputs": [],
      "stateMutability": "nonpayable",
      "type": "function"
    },
    {
      "inputs": [
        {
          "internalType": "uint256",
          "name": "loanId",
          "type": "uint256"
        },
        {
          "internalType": "uint256",
          "name": "partitionsPurchased",
          "type": "uint256"
        },
        {
          "internalType": "address",
          "name": "receiver",
          "type": "address"
        }
      ],
      "name": "transferFundingNFT",
      "outputs": [],
      "stateMutability": "nonpayable",
      "type": "function"
    },
    {
      "inputs": [
        {
          "internalType": "address",
          "name": "seeker",
          "type": "address"
        },
        {
          "internalType": "uint256",
          "name": "amount",
          "type": "uint256"
        }
      ],
      "name": "transferLendingToken",
      "outputs": [],
      "stateMutability": "nonpayable",
      "type": "function"
    },
    {
      "inputs": [
        {
          "internalType": "address",
          "name": "newOwner",
          "type": "address"
        }
      ],
      "name": "transferOwnership",
      "outputs": [],
      "stateMutability": "nonpayable",
      "type": "function"
    }
  ],
  "transactionHash": "0x52f9030261db7fa7470c95c37a65a338345f012703ec5d839be7b789e15d6a41",
  "args": [],
  "solcInputHash": "b4749c3639c4ae9324add8ba059987d0",
  "bytecode": "0x608060405234801561001057600080fd5b50610faf806100206000396000f3fe608060405234801561001057600080fd5b506004361061010b5760003560e01c806399df9c39116100a2578063bc197c8111610071578063bc197c811461026a578063c0c53b8b14610448578063cf96e83e14610480578063f23a6e61146104ac578063f2fde38b146105755761010b565b806399df9c39146101d45780639e696bea1461020a578063a91ee0dc1461023c578063aaaca558146102625761010b565b8063715018a6116100de578063715018a6146101b45780637b103999146101bc5780638da5cb5b146101c4578063939156a2146101cc5761010b565b806301ffc9a71461011057806315554c551461014b578063417238a71461017357806348e66c04146101ac575b600080fd5b6101376004803603602081101561012657600080fd5b50356001600160e01b03191661059b565b604080519115158252519081900360200190f35b6101716004803603602081101561016157600080fd5b50356001600160a01b03166105ba565b005b6101906004803603602081101561018957600080fd5b503561063e565b604080516001600160a01b039092168252519081900360200190f35b610190610659565b610171610668565b610190610714565b610190610723565b610190610732565b610171600480360360608110156101ea57600080fd5b506001600160a01b03813581169160208101359091169060400135610741565b6101716004803603606081101561022057600080fd5b50803590602081013590604001356001600160a01b0316610818565b6101716004803603602081101561025257600080fd5b50356001600160a01b03166108f2565b6101906109b2565b61042b600480360360a081101561028057600080fd5b6001600160a01b038235811692602081013590911691810190606081016040820135600160201b8111156102b357600080fd5b8201836020820111156102c557600080fd5b803590602001918460208302840111600160201b831117156102e657600080fd5b9190808060200260200160405190810160405280939291908181526020018383602002808284376000920191909152509295949360208101935035915050600160201b81111561033557600080fd5b82018360208201111561034757600080fd5b803590602001918460208302840111600160201b8311171561036857600080fd5b9190808060200260200160405190810160405280939291908181526020018383602002808284376000920191909152509295949360208101935035915050600160201b8111156103b757600080fd5b8201836020820111156103c957600080fd5b803590602001918460018302840111600160201b831117156103ea57600080fd5b91908080601f0160208091040260200160405190810160405280939291908181526020018383808284376000920191909152509295506109c1945050505050565b604080516001600160e01b03199092168252519081900360200190f35b6101716004803603606081101561045e57600080fd5b506001600160a01b0381358116916020810135821691604090910135166109d2565b6101716004803603604081101561049657600080fd5b506001600160a01b038135169060200135610abc565b61042b600480360360a08110156104c257600080fd5b6001600160a01b03823581169260208101359091169160408201359160608101359181019060a081016080820135600160201b81111561050157600080fd5b82018360208201111561051357600080fd5b803590602001918460018302840111600160201b8311171561053457600080fd5b91908080601f016020809104026020016040519081016040528093929190818152602001838380828437600092019190915250929550610b8b945050505050565b6101716004803603602081101561058b57600080fd5b50356001600160a01b0316610b9c565b6001600160e01b0319166000908152606a602052604090205460ff1690565b6105c2610c9f565b6001600160a01b03166105d3610723565b6001600160a01b03161461061c576040805162461bcd60e51b81526020600482018190526024820152600080516020610f5a833981519152604482015290519081900360640190fd5b600080546001600160a01b0319166001600160a01b0392909216919091179055565b6004602052600090815260409020546001600160a01b031681565b6002546001600160a01b031681565b610670610c9f565b6001600160a01b0316610681610723565b6001600160a01b0316146106ca576040805162461bcd60e51b81526020600482018190526024820152600080516020610f5a833981519152604482015290519081900360640190fd5b6038546040516000916001600160a01b0316907f8be0079c531659141344cd1fd0a4f28419497f9722a3daafe3b4186f6b6457e0908390a3603880546001600160a01b0319169055565b6000546001600160a01b031681565b6038546001600160a01b031690565b6003546001600160a01b031681565b6000546001600160a01b03163314610790576040805162461bcd60e51b815260206004820152600d60248201526c4f6e6c7920526567697374727960981b604482015290519081900360640190fd5b826001600160a01b031663a9059cbb83836040518363ffffffff1660e01b815260040180836001600160a01b0316815260200182815260200192505050602060405180830381600087803b1580156107e757600080fd5b505af11580156107fb573d6000803e3d6000fd5b505050506040513d602081101561081157600080fd5b5050505050565b6000546001600160a01b03163314610867576040805162461bcd60e51b815260206004820152600d60248201526c4f6e6c7920526567697374727960981b604482015290519081900360640190fd5b60035460408051637921219560e11b81523060048201526001600160a01b038481166024830152604482018790526064820186905260a06084830152600060a48301819052925193169263f242432a9260e48084019391929182900301818387803b1580156108d557600080fd5b505af11580156108e9573d6000803e3d6000fd5b50505050505050565b6108fa610c9f565b6001600160a01b031661090b610723565b6001600160a01b031614610954576040805162461bcd60e51b81526020600482018190526024820152600080516020610f5a833981519152604482015290519081900360640190fd5b6000546001600160a01b03161561061c576040805162461bcd60e51b815260206004820152601d60248201527f43616e6e6f7420696e697469616c697a65207365636f6e642074696d65000000604482015290519081900360640190fd5b6001546001600160a01b031681565b63bc197c8160e01b95945050505050565b600554610100900460ff16806109eb57506109eb610ca3565b806109f9575060055460ff16155b610a345760405162461bcd60e51b815260040180806020018281038252602e815260200180610f2c602e913960400191505060405180910390fd5b600554610100900460ff16158015610a5f576005805460ff1961ff0019909116610100171660011790555b610a67610cb4565b600180546001600160a01b038087166001600160a01b0319928316179092556002805486841690831617905560038054928516929091169190911790558015610ab6576005805461ff00191690555b50505050565b6000546001600160a01b03163314610b0b576040805162461bcd60e51b815260206004820152600d60248201526c4f6e6c7920526567697374727960981b604482015290519081900360640190fd5b6001546040805163a9059cbb60e01b81526001600160a01b038581166004830152602482018590529151919092169163a9059cbb9160448083019260209291908290030181600087803b158015610b6157600080fd5b505af1158015610b75573d6000803e3d6000fd5b505050506040513d6020811015610ab657600080fd5b63f23a6e6160e01b95945050505050565b610ba4610c9f565b6001600160a01b0316610bb5610723565b6001600160a01b031614610bfe576040805162461bcd60e51b81526020600482018190526024820152600080516020610f5a833981519152604482015290519081900360640190fd5b6001600160a01b038116610c435760405162461bcd60e51b8152600401808060200182810382526026815260200180610f066026913960400191505060405180910390fd5b6038546040516001600160a01b038084169216907f8be0079c531659141344cd1fd0a4f28419497f9722a3daafe3b4186f6b6457e090600090a3603880546001600160a01b0319166001600160a01b0392909216919091179055565b3390565b6000610cae30610d66565b15905090565b600554610100900460ff1680610ccd5750610ccd610ca3565b80610cdb575060055460ff16155b610d165760405162461bcd60e51b815260040180806020018281038252602e815260200180610f2c602e913960400191505060405180910390fd5b600554610100900460ff16158015610d41576005805460ff1961ff0019909116610100171660011790555b610d49610d6c565b610d51610e0c565b8015610d63576005805461ff00191690555b50565b3b151590565b600554610100900460ff1680610d855750610d85610ca3565b80610d93575060055460ff16155b610dce5760405162461bcd60e51b815260040180806020018281038252602e815260200180610f2c602e913960400191505060405180910390fd5b600554610100900460ff16158015610d51576005805460ff1961ff0019909116610100171660011790558015610d63576005805461ff001916905550565b600554610100900460ff1680610e255750610e25610ca3565b80610e33575060055460ff16155b610e6e5760405162461bcd60e51b815260040180806020018281038252602e815260200180610f2c602e913960400191505060405180910390fd5b600554610100900460ff16158015610e99576005805460ff1961ff0019909116610100171660011790555b6000610ea3610c9f565b603880546001600160a01b0319166001600160a01b038316908117909155604051919250906000907f8be0079c531659141344cd1fd0a4f28419497f9722a3daafe3b4186f6b6457e0908290a3508015610d63576005805461ff00191690555056fe4f776e61626c653a206e6577206f776e657220697320746865207a65726f2061646472657373496e697469616c697a61626c653a20636f6e747261637420697320616c726561647920696e697469616c697a65644f776e61626c653a2063616c6c6572206973206e6f7420746865206f776e6572a2646970667358221220cc859ad5e84e20dadd0853e88e2aa2b58833551b2c80b6432947ef736853021264736f6c63430007030033",
  "devdoc": {
    "kind": "dev",
    "methods": {
      "changeRegistry(address)": {
        "details": "This function is used to change the registry address in case of an upgrade.",
        "params": {
          "registryAddress": "The address of the upgraded Registry contract."
        }
      },
      "initialize(address,address,address)": {
        "details": "Initializes the contract.",
        "params": {
          "fundingNFT_": "The ERC1155 token contract which will represent the lending amounts.",
          "lendingToken_": "The token that lenders will be able to lend.",
          "mainNFT_": "The ERC721 token contract which will represent the whole loans."
        }
      },
      "owner()": {
        "details": "Returns the address of the current owner."
      },
      "renounceOwnership()": {
        "details": "Leaves the contract without owner. It will not be possible to call `onlyOwner` functions anymore. Can only be called by the current owner. NOTE: Renouncing ownership will leave the contract without an owner, thereby removing any functionality that is only available to the owner."
      },
      "setRegistry(address)": {
        "details": "Setup the registry",
        "params": {
          "registryAddress_": "The registry address."
        }
      },
      "supportsInterface(bytes4)": {
        "details": "See {IERC165-supportsInterface}. Time complexity O(1), guaranteed to always use less than 30 000 gas."
      },
      "transferCollateralToken(address,address,uint256)": {
        "details": "This function is used to send the collateral amount to the seeker.",
        "params": {
          "amount": "The amount of collateral tokens to be sent to seeker.",
          "collateralToken": "The collateral token's contract address.",
          "recipient": "The address to transfer the collateral tokens to."
        }
      },
      "transferFundingNFT(uint256,uint256,address)": {
        "details": "This function is used to send the ERC1155 tokens from escrow to the lenders.",
        "params": {
          "loanId": "The id of the loan.",
          "partitionsPurchased": "The amount of ERC1155 tokens that should be sent back to the lender.",
          "receiver": "Lender's address."
        }
      },
      "transferLendingToken(address,uint256)": {
        "details": "This function is used to send the lended amount to the seeker.",
        "params": {
          "amount": "The amount of lending tokens to be sent to seeker.",
          "seeker": "Seeker's address."
        }
      },
      "transferOwnership(address)": {
        "details": "Transfers ownership of the contract to a new account (`newOwner`). Can only be called by the current owner."
      }
    },
    "title": "AllianceBlock Escrow contract",
    "version": 1
  },
  "userdoc": {
    "kind": "user",
    "methods": {},
    "notice": "Responsible for handling the funds in AllianceBlock's ecosystem.",
    "version": 1
  },
  "storageLayout": {
    "storage": [
      {
        "astId": 7749,
        "contract": "contracts/Escrow.sol:Escrow",
        "label": "registry",
        "offset": 0,
        "slot": "0",
        "type": "t_contract(IRegistry)10223"
      },
      {
        "astId": 7751,
        "contract": "contracts/Escrow.sol:Escrow",
        "label": "lendingToken",
        "offset": 0,
        "slot": "1",
        "type": "t_contract(IERC20)6414"
      },
      {
        "astId": 7753,
        "contract": "contracts/Escrow.sol:Escrow",
        "label": "mainNFT",
        "offset": 0,
        "slot": "2",
        "type": "t_contract(IERC721Mint)10156"
      },
      {
        "astId": 7755,
        "contract": "contracts/Escrow.sol:Escrow",
        "label": "fundingNFT",
        "offset": 0,
        "slot": "3",
        "type": "t_contract(IERC1155Mint)10147"
      },
      {
        "astId": 7759,
        "contract": "contracts/Escrow.sol:Escrow",
        "label": "loanSeeker",
        "offset": 0,
        "slot": "4",
        "type": "t_mapping(t_uint256,t_address)"
      },
      {
        "astId": 890,
        "contract": "contracts/Escrow.sol:Escrow",
        "label": "_initialized",
        "offset": 0,
        "slot": "5",
        "type": "t_bool"
      },
      {
        "astId": 893,
        "contract": "contracts/Escrow.sol:Escrow",
        "label": "_initializing",
        "offset": 1,
        "slot": "5",
        "type": "t_bool"
      },
      {
        "astId": 3750,
        "contract": "contracts/Escrow.sol:Escrow",
        "label": "__gap",
        "offset": 0,
        "slot": "6",
        "type": "t_array(t_uint256)50_storage"
      },
      {
        "astId": 321,
        "contract": "contracts/Escrow.sol:Escrow",
        "label": "_owner",
        "offset": 0,
        "slot": "56",
        "type": "t_address"
      },
      {
        "astId": 440,
        "contract": "contracts/Escrow.sol:Escrow",
        "label": "__gap",
        "offset": 0,
        "slot": "57",
        "type": "t_array(t_uint256)49_storage"
      },
      {
        "astId": 458,
        "contract": "contracts/Escrow.sol:Escrow",
        "label": "_supportedInterfaces",
        "offset": 0,
        "slot": "106",
        "type": "t_mapping(t_bytes4,t_bool)"
      },
      {
        "astId": 515,
        "contract": "contracts/Escrow.sol:Escrow",
        "label": "__gap",
        "offset": 0,
        "slot": "107",
        "type": "t_array(t_uint256)49_storage"
      },
      {
        "astId": 1082,
        "contract": "contracts/Escrow.sol:Escrow",
        "label": "__gap",
        "offset": 0,
        "slot": "156",
        "type": "t_array(t_uint256)50_storage"
      },
      {
        "astId": 1027,
        "contract": "contracts/Escrow.sol:Escrow",
        "label": "__gap",
        "offset": 0,
        "slot": "206",
        "type": "t_array(t_uint256)50_storage"
      }
    ],
    "types": {
      "t_address": {
        "encoding": "inplace",
        "label": "address",
        "numberOfBytes": "20"
      },
      "t_array(t_uint256)49_storage": {
        "base": "t_uint256",
        "encoding": "inplace",
        "label": "uint256[49]",
        "numberOfBytes": "1568"
      },
      "t_array(t_uint256)50_storage": {
        "base": "t_uint256",
        "encoding": "inplace",
        "label": "uint256[50]",
        "numberOfBytes": "1600"
      },
      "t_bool": {
        "encoding": "inplace",
        "label": "bool",
        "numberOfBytes": "1"
      },
      "t_bytes4": {
        "encoding": "inplace",
        "label": "bytes4",
        "numberOfBytes": "4"
      },
      "t_contract(IERC1155Mint)10147": {
        "encoding": "inplace",
        "label": "contract IERC1155Mint",
        "numberOfBytes": "20"
      },
      "t_contract(IERC20)6414": {
        "encoding": "inplace",
        "label": "contract IERC20",
        "numberOfBytes": "20"
      },
      "t_contract(IERC721Mint)10156": {
        "encoding": "inplace",
        "label": "contract IERC721Mint",
        "numberOfBytes": "20"
      },
      "t_contract(IRegistry)10223": {
        "encoding": "inplace",
        "label": "contract IRegistry",
        "numberOfBytes": "20"
      },
      "t_mapping(t_bytes4,t_bool)": {
        "encoding": "mapping",
        "key": "t_bytes4",
        "label": "mapping(bytes4 => bool)",
        "numberOfBytes": "32",
        "value": "t_bool"
      },
      "t_mapping(t_uint256,t_address)": {
        "encoding": "mapping",
        "key": "t_uint256",
        "label": "mapping(uint256 => address)",
        "numberOfBytes": "32",
        "value": "t_address"
      },
      "t_uint256": {
        "encoding": "inplace",
        "label": "uint256",
        "numberOfBytes": "32"
      }
    }
  }
}