{
  "address": "0x55b141009C1f8946B5D5a3DB6839859417845A55",
  "abi": [
    {
      "anonymous": false,
      "inputs": [
        {
          "indexed": true,
          "internalType": "address",
          "name": "previousOwner",
          "type": "address"
        },
        {
          "indexed": true,
          "internalType": "address",
          "name": "newOwner",
          "type": "address"
        }
      ],
      "name": "OwnershipTransferred",
      "type": "event"
    },
    {
      "inputs": [],
      "name": "actionVerifier",
      "outputs": [
        {
          "internalType": "address",
          "name": "",
          "type": "address"
        }
      ],
      "stateMutability": "view",
      "type": "function"
    },
    {
      "inputs": [
        {
          "internalType": "address",
          "name": "actionVerifierAddress_",
          "type": "address"
        },
        {
          "internalType": "address",
          "name": "stakingAddress_",
          "type": "address"
        }
      ],
      "name": "afterInitialize",
      "outputs": [],
      "stateMutability": "nonpayable",
      "type": "function"
    },
    {
      "inputs": [
        {
          "internalType": "address",
          "name": "account",
          "type": "address"
        },
        {
          "internalType": "uint256",
          "name": "projectId",
          "type": "uint256"
        },
        {
          "internalType": "uint256",
          "name": "amount",
          "type": "uint256"
        }
      ],
      "name": "burnFundingNFT",
      "outputs": [],
      "stateMutability": "nonpayable",
      "type": "function"
    },
    {
      "inputs": [
        {
          "internalType": "address",
          "name": "from",
          "type": "address"
        },
        {
          "internalType": "uint256",
          "name": "amount",
          "type": "uint256"
        }
      ],
      "name": "burnReputationalToken",
      "outputs": [],
      "stateMutability": "nonpayable",
      "type": "function"
    },
    {
      "inputs": [],
      "name": "fundingNFT",
      "outputs": [
        {
          "internalType": "contract IERC1155Mint",
          "name": "",
          "type": "address"
        }
      ],
      "stateMutability": "view",
      "type": "function"
    },
    {
      "inputs": [
        {
          "internalType": "address",
          "name": "lendingToken_",
          "type": "address"
        },
        {
          "internalType": "address",
          "name": "fundingNFT_",
          "type": "address"
        },
        {
          "internalType": "address",
          "name": "projectManager_",
          "type": "address"
        }
      ],
      "name": "initialize",
      "outputs": [],
      "stateMutability": "nonpayable",
      "type": "function"
    },
    {
      "inputs": [],
      "name": "lendingToken",
      "outputs": [
        {
          "internalType": "contract IERC20",
          "name": "",
          "type": "address"
        }
      ],
      "stateMutability": "view",
      "type": "function"
    },
    {
      "inputs": [
        {
          "internalType": "uint256",
          "name": "investmentId",
          "type": "uint256"
        },
        {
          "internalType": "uint256",
          "name": "amountOfNfts",
          "type": "uint256"
        },
        {
          "internalType": "address",
          "name": "sender",
          "type": "address"
        }
      ],
      "name": "lockFundingNFT",
      "outputs": [],
      "stateMutability": "nonpayable",
      "type": "function"
    },
    {
      "inputs": [
        {
          "internalType": "address",
          "name": "recipient",
          "type": "address"
        },
        {
          "internalType": "uint256",
          "name": "amount",
          "type": "uint256"
        }
      ],
      "name": "mintReputationalToken",
      "outputs": [],
      "stateMutability": "nonpayable",
      "type": "function"
    },
    {
      "inputs": [
        {
          "internalType": "address[]",
          "name": "recipients",
          "type": "address[]"
        },
        {
          "internalType": "uint256[]",
          "name": "amounts",
          "type": "uint256[]"
        }
      ],
      "name": "multiMintReputationalToken",
      "outputs": [],
      "stateMutability": "nonpayable",
      "type": "function"
    },
    {
      "inputs": [
        {
          "internalType": "address",
          "name": "",
          "type": "address"
        },
        {
          "internalType": "address",
          "name": "",
          "type": "address"
        },
        {
          "internalType": "uint256[]",
          "name": "",
          "type": "uint256[]"
        },
        {
          "internalType": "uint256[]",
          "name": "",
          "type": "uint256[]"
        },
        {
          "internalType": "bytes",
          "name": "",
          "type": "bytes"
        }
      ],
      "name": "onERC1155BatchReceived",
      "outputs": [
        {
          "internalType": "bytes4",
          "name": "",
          "type": "bytes4"
        }
      ],
      "stateMutability": "nonpayable",
      "type": "function"
    },
    {
      "inputs": [
        {
          "internalType": "address",
          "name": "",
          "type": "address"
        },
        {
          "internalType": "address",
          "name": "",
          "type": "address"
        },
        {
          "internalType": "uint256",
          "name": "",
          "type": "uint256"
        },
        {
          "internalType": "uint256",
          "name": "",
          "type": "uint256"
        },
        {
          "internalType": "bytes",
          "name": "",
          "type": "bytes"
        }
      ],
      "name": "onERC1155Received",
      "outputs": [
        {
          "internalType": "bytes4",
          "name": "",
          "type": "bytes4"
        }
      ],
      "stateMutability": "nonpayable",
      "type": "function"
    },
    {
      "inputs": [],
      "name": "owner",
      "outputs": [
        {
          "internalType": "address",
          "name": "",
          "type": "address"
        }
      ],
      "stateMutability": "view",
      "type": "function"
    },
    {
      "inputs": [],
      "name": "projectManager",
      "outputs": [
        {
          "internalType": "contract IProjectManager",
          "name": "",
          "type": "address"
        }
      ],
      "stateMutability": "view",
      "type": "function"
    },
    {
      "inputs": [],
      "name": "renounceOwnership",
      "outputs": [],
      "stateMutability": "nonpayable",
      "type": "function"
    },
    {
      "inputs": [],
      "name": "reputationalALBT",
      "outputs": [
        {
          "internalType": "contract rALBT",
          "name": "",
          "type": "address"
        }
      ],
      "stateMutability": "view",
      "type": "function"
    },
    {
      "inputs": [],
      "name": "staking",
      "outputs": [
        {
          "internalType": "address",
          "name": "",
          "type": "address"
        }
      ],
      "stateMutability": "view",
      "type": "function"
    },
    {
      "inputs": [
        {
          "internalType": "bytes4",
          "name": "interfaceId",
          "type": "bytes4"
        }
      ],
      "name": "supportsInterface",
      "outputs": [
        {
          "internalType": "bool",
          "name": "",
          "type": "bool"
        }
      ],
      "stateMutability": "view",
      "type": "function"
    },
    {
      "inputs": [
        {
          "internalType": "uint256",
          "name": "projectId",
          "type": "uint256"
        },
        {
          "internalType": "uint256",
          "name": "partitionsPurchased",
          "type": "uint256"
        },
        {
          "internalType": "address",
          "name": "receiver",
          "type": "address"
        }
      ],
      "name": "transferFundingNFT",
      "outputs": [],
      "stateMutability": "nonpayable",
      "type": "function"
    },
    {
      "inputs": [
        {
          "internalType": "address",
          "name": "investmentToken",
          "type": "address"
        },
        {
          "internalType": "address",
          "name": "recipient",
          "type": "address"
        },
        {
          "internalType": "uint256",
          "name": "amount",
          "type": "uint256"
        }
      ],
      "name": "transferInvestmentToken",
      "outputs": [],
      "stateMutability": "nonpayable",
      "type": "function"
    },
    {
      "inputs": [
        {
          "internalType": "address",
          "name": "lendingToken",
          "type": "address"
        },
        {
          "internalType": "address",
          "name": "seeker",
          "type": "address"
        },
        {
          "internalType": "uint256",
          "name": "amount",
          "type": "uint256"
        }
      ],
      "name": "transferLendingToken",
      "outputs": [],
      "stateMutability": "nonpayable",
      "type": "function"
    },
    {
      "inputs": [
        {
          "internalType": "address",
          "name": "newOwner",
          "type": "address"
        }
      ],
      "name": "transferOwnership",
      "outputs": [],
      "stateMutability": "nonpayable",
      "type": "function"
    }
  ],
  "transactionHash": "0x6817d0a28e1e1e3ed4d2d7e7060be070c8225e6f6b89818c9c46fc8a94e74e8f",
  "args": [],
  "solcInputHash": "2655e296375c08ec2ee94c1a605dd52e",
  "bytecode": "0x608060405234801561001057600080fd5b50612b96806100206000396000f3fe608060405234801561001057600080fd5b50600436106101425760003560e01c80639e696bea116100b8578063d01779791161007c578063d0177979146104b8578063e859f6a6146104e4578063eca7d56c14610516578063f23a6e6114610548578063f2fde38b14610611578063fec0956c1461063757610142565b80639e696bea14610268578063aaaca5581461029a578063b10a3e0c146101be578063bc197c81146102a2578063c0c53b8b1461048057610142565b80634db966781161010a5780634db96678146101be5780634e391f3d146101f65780635fbe92f614610222578063715018a6146102505780638da5cb5b14610258578063939156a21461026057610142565b806301ffc9a714610147578063029eb76e146101825780633a01884a146101a65780633a9cf3fa146101ae5780634cf088d9146101b6575b600080fd5b61016e6004803603602081101561015d57600080fd5b50356001600160e01b03191661075a565b604080519115158252519081900360200190f35b61018a610779565b604080516001600160a01b039092168252519081900360200190f35b61018a61078e565b61018a61079d565b61018a6107ac565b6101f4600480360360608110156101d457600080fd5b506001600160a01b038135811691602081013590911690604001356107bb565b005b6101f46004803603604081101561020c57600080fd5b506001600160a01b0381351690602001356108a4565b6101f46004803603604081101561023857600080fd5b506001600160a01b0381358116916020013516610963565b6101f4610ad3565b61018a610b91565b61018a610ba0565b6101f46004803603606081101561027e57600080fd5b50803590602081013590604001356001600160a01b0316610baf565b61018a610d2d565b610463600480360360a08110156102b857600080fd5b6001600160a01b038235811692602081013590911691810190606081016040820135600160201b8111156102eb57600080fd5b8201836020820111156102fd57600080fd5b803590602001918460208302840111600160201b8311171561031e57600080fd5b9190808060200260200160405190810160405280939291908181526020018383602002808284376000920191909152509295949360208101935035915050600160201b81111561036d57600080fd5b82018360208201111561037f57600080fd5b803590602001918460208302840111600160201b831117156103a057600080fd5b9190808060200260200160405190810160405280939291908181526020018383602002808284376000920191909152509295949360208101935035915050600160201b8111156103ef57600080fd5b82018360208201111561040157600080fd5b803590602001918460018302840111600160201b8311171561042257600080fd5b91908080601f016020809104026020016040519081016040528093929190818152602001838380828437600092019190915250929550610d3c945050505050565b604080516001600160e01b03199092168252519081900360200190f35b6101f46004803603606081101561049657600080fd5b506001600160a01b038135811691602081013582169160409091013516610d4d565b6101f4600480360360408110156104ce57600080fd5b506001600160a01b038135169060200135610f68565b6101f4600480360360608110156104fa57600080fd5b506001600160a01b0381351690602081013590604001356110b3565b6101f46004803603606081101561052c57600080fd5b50803590602081013590604001356001600160a01b03166111df565b610463600480360360a081101561055e57600080fd5b6001600160a01b03823581169260208101359091169160408201359160608101359181019060a081016080820135600160201b81111561059d57600080fd5b8201836020820111156105af57600080fd5b803590602001918460018302840111600160201b831117156105d057600080fd5b91908080601f0160208091040260200160405190810160405280939291908181526020018383808284376000920191909152509295506113c2945050505050565b6101f46004803603602081101561062757600080fd5b50356001600160a01b03166113d3565b6101f46004803603604081101561064d57600080fd5b810190602081018135600160201b81111561066757600080fd5b82018360208201111561067957600080fd5b803590602001918460208302840111600160201b8311171561069a57600080fd5b9190808060200260200160405190810160405280939291908181526020018383602002808284376000920191909152509295949360208101935035915050600160201b8111156106e957600080fd5b8201836020820111156106fb57600080fd5b803590602001918460208302840111600160201b8311171561071c57600080fd5b9190808060200260200160405190810160405280939291908181526020018383602002808284376000920191909152509295506114e8945050505050565b6001600160e01b0319166000908152606a602052604090205460ff1690565b6000546201000090046001600160a01b031681565b6005546001600160a01b031681565b6003546001600160a01b031681565b6004546001600160a01b031681565b600060029054906101000a90046001600160a01b03166001600160a01b03166305c81408336040518263ffffffff1660e01b815260040180826001600160a01b03168152602001915050602060405180830381600087803b15801561081f57600080fd5b505af1158015610833573d6000803e3d6000fd5b505050506040513d602081101561084957600080fd5b505161088b576040805162461bcd60e51b815260206004820152600c60248201526b13db9b1e48141c9bda9958dd60a21b604482015290519081900360640190fd5b61089f6001600160a01b038416838361160d565b505050565b6004546001600160a01b031633146108f2576040805162461bcd60e51b815260206004820152600c60248201526b4f6e6c79205374616b696e6760a01b604482015290519081900360640190fd5b6005546040805163079cc67960e41b81526001600160a01b03858116600483015260248201859052915191909216916379cc679091604480830192600092919082900301818387803b15801561094757600080fd5b505af115801561095b573d6000803e3d6000fd5b505050505050565b61096b61165f565b6001600160a01b031661097c610b91565b6001600160a01b0316146109d7576040805162461bcd60e51b815260206004820181905260248201527f4f776e61626c653a2063616c6c6572206973206e6f7420746865206f776e6572604482015290519081900360640190fd5b6001600160a01b038216158015906109f757506001600160a01b03811615155b610a325760405162461bcd60e51b8152600401808060200182810382526022815260200180612ab96022913960400191505060405180910390fd5b6003546001600160a01b0316158015610a5457506004546001600160a01b0316155b610aa5576040805162461bcd60e51b815260206004820152601d60248201527f43616e6e6f7420696e697469616c697a65207365636f6e642074696d65000000604482015290519081900360640190fd5b600380546001600160a01b039384166001600160a01b03199182161790915560048054929093169116179055565b610adb61165f565b6001600160a01b0316610aec610b91565b6001600160a01b031614610b47576040805162461bcd60e51b815260206004820181905260248201527f4f776e61626c653a2063616c6c6572206973206e6f7420746865206f776e6572604482015290519081900360640190fd5b6038546040516000916001600160a01b0316907f8be0079c531659141344cd1fd0a4f28419497f9722a3daafe3b4186f6b6457e0908390a3603880546001600160a01b0319169055565b6038546001600160a01b031690565b6002546001600160a01b031681565b600060029054906101000a90046001600160a01b03166001600160a01b03166305c81408336040518263ffffffff1660e01b815260040180826001600160a01b03168152602001915050602060405180830381600087803b158015610c1357600080fd5b505af1158015610c27573d6000803e3d6000fd5b505050506040513d6020811015610c3d57600080fd5b505180610c59575033610c4e610b91565b6001600160a01b0316145b610ca2576040805162461bcd60e51b815260206004820152601560248201527427b7363c90283937b532b1ba1037b91027bbb732b960591b604482015290519081900360640190fd5b60025460408051637921219560e11b81523060048201526001600160a01b038481166024830152604482018790526064820186905260a06084830152600060a48301819052925193169263f242432a9260c48084019391929182900301818387803b158015610d1057600080fd5b505af1158015610d24573d6000803e3d6000fd5b50505050505050565b6001546001600160a01b031681565b63bc197c8160e01b95945050505050565b600054610100900460ff1680610d665750610d66611663565b80610d74575060005460ff16155b610daf5760405162461bcd60e51b815260040180806020018281038252602e815260200180612adb602e913960400191505060405180910390fd5b600054610100900460ff16158015610dda576000805460ff1961ff0019909116610100171660011790555b6001600160a01b038416610e1f5760405162461bcd60e51b815260040180806020018281038252602e815260200180612b09602e913960400191505060405180910390fd5b6001600160a01b038316610e645760405162461bcd60e51b815260040180806020018281038252602c815260200180612a67602c913960400191505060405180910390fd5b6001600160a01b038216610ea95760405162461bcd60e51b8152600401808060200182810382526030815260200180612a116030913960400191505060405180910390fd5b610eb1611674565b610eb9611726565b600180546001600160a01b038087166001600160a01b03199283161790925560028054868416921691909117905560008054918416620100000262010000600160b01b0319909216919091179055604051610f1390611df1565b604051809103906000f080158015610f2f573d6000803e3d6000fd5b50600580546001600160a01b0319166001600160a01b03929092169190911790558015610f62576000805461ff00191690555b50505050565b6004546001600160a01b031633148061100d5750600060029054906101000a90046001600160a01b03166001600160a01b03166305c81408336040518263ffffffff1660e01b815260040180826001600160a01b03168152602001915050602060405180830381600087803b158015610fe057600080fd5b505af1158015610ff4573d6000803e3d6000fd5b505050506040513d602081101561100a57600080fd5b50515b61105e576040805162461bcd60e51b815260206004820152601760248201527f4f6e6c792050726f6a656374206f72205374616b696e67000000000000000000604482015290519081900360640190fd5b600554604080516308934a5f60e31b81526001600160a01b038581166004830152602482018590529151919092169163449a52f891604480830192600092919082900301818387803b15801561094757600080fd5b600060029054906101000a90046001600160a01b03166001600160a01b03166305c81408336040518263ffffffff1660e01b815260040180826001600160a01b03168152602001915050602060405180830381600087803b15801561111757600080fd5b505af115801561112b573d6000803e3d6000fd5b505050506040513d602081101561114157600080fd5b5051611183576040805162461bcd60e51b815260206004820152600c60248201526b13db9b1e48141c9bda9958dd60a21b604482015290519081900360640190fd5b60025460408051637a94c56560e11b81526001600160a01b03868116600483015260248201869052604482018590529151919092169163f5298aca91606480830192600092919082900301818387803b158015610d1057600080fd5b600060029054906101000a90046001600160a01b03166001600160a01b03166305c81408336040518263ffffffff1660e01b815260040180826001600160a01b03168152602001915050602060405180830381600087803b15801561124357600080fd5b505af1158015611257573d6000803e3d6000fd5b505050506040513d602081101561126d57600080fd5b50518061128957503361127e610b91565b6001600160a01b0316145b6112d2576040805162461bcd60e51b815260206004820152601560248201527427b7363c90283937b532b1ba1037b91027bbb732b960591b604482015290519081900360640190fd5b600261010054141561132b576040805162461bcd60e51b815260206004820152601f60248201527f5265656e7472616e637947756172643a207265656e7472616e742063616c6c00604482015290519081900360640190fd5b60026101008190555460408051637921219560e11b81526001600160a01b038481166004830152306024830152604482018790526064820186905260a06084830152600060a48301819052925193169263f242432a9260c48084019391929182900301818387803b15801561139f57600080fd5b505af11580156113b3573d6000803e3d6000fd5b50506001610100555050505050565b63f23a6e6160e01b95945050505050565b6113db61165f565b6001600160a01b03166113ec610b91565b6001600160a01b031614611447576040805162461bcd60e51b815260206004820181905260248201527f4f776e61626c653a2063616c6c6572206973206e6f7420746865206f776e6572604482015290519081900360640190fd5b6001600160a01b03811661148c5760405162461bcd60e51b8152600401808060200182810382526026815260200180612a416026913960400191505060405180910390fd5b6038546040516001600160a01b038084169216907f8be0079c531659141344cd1fd0a4f28419497f9722a3daafe3b4186f6b6457e090600090a3603880546001600160a01b0319166001600160a01b0392909216919091179055565b6003546001600160a01b0316331461153e576040805162461bcd60e51b815260206004820152601460248201527327b7363c9020b1ba34b7b7102b32b934b334b2b960611b604482015290519081900360640190fd5b60055460408051631109c73360e11b8152600481019182528451604482015284516001600160a01b03909316926322138e669286928692829160248101916064909101906020808801910280838360005b838110156115a757818101518382015260200161158f565b50505050905001838103825284818151815260200191508051906020019060200280838360005b838110156115e65781810151838201526020016115ce565b50505050905001945050505050600060405180830381600087803b15801561094757600080fd5b604080516001600160a01b038416602482015260448082018490528251808303909101815260649091019091526020810180516001600160e01b031663a9059cbb60e01b17905261089f9084906117cb565b3390565b600061166e3061187c565b15905090565b600054610100900460ff168061168d575061168d611663565b8061169b575060005460ff16155b6116d65760405162461bcd60e51b815260040180806020018281038252602e815260200180612adb602e913960400191505060405180910390fd5b600054610100900460ff16158015611701576000805460ff1961ff0019909116610100171660011790555b611709611882565b611711611922565b8015611723576000805461ff00191690555b50565b600054610100900460ff168061173f575061173f611663565b8061174d575060005460ff16155b6117885760405162461bcd60e51b815260040180806020018281038252602e815260200180612adb602e913960400191505060405180910390fd5b600054610100900460ff161580156117b3576000805460ff1961ff0019909116610100171660011790555b6117bb611a1b565b6117c3611ab8565b611711611882565b6000611820826040518060400160405280602081526020017f5361666545524332303a206c6f772d6c6576656c2063616c6c206661696c6564815250856001600160a01b0316611b559092919063ffffffff16565b80519091501561089f5780806020019051602081101561183f57600080fd5b505161089f5760405162461bcd60e51b815260040180806020018281038252602a815260200180612b37602a913960400191505060405180910390fd5b3b151590565b600054610100900460ff168061189b575061189b611663565b806118a9575060005460ff16155b6118e45760405162461bcd60e51b815260040180806020018281038252602e815260200180612adb602e913960400191505060405180910390fd5b600054610100900460ff16158015611711576000805460ff1961ff0019909116610100171660011790558015611723576000805461ff001916905550565b600054610100900460ff168061193b575061193b611663565b80611949575060005460ff16155b6119845760405162461bcd60e51b815260040180806020018281038252602e815260200180612adb602e913960400191505060405180910390fd5b600054610100900460ff161580156119af576000805460ff1961ff0019909116610100171660011790555b60006119b961165f565b603880546001600160a01b0319166001600160a01b038316908117909155604051919250906000907f8be0079c531659141344cd1fd0a4f28419497f9722a3daafe3b4186f6b6457e0908290a3508015611723576000805461ff001916905550565b600054610100900460ff1680611a345750611a34611663565b80611a42575060005460ff16155b611a7d5760405162461bcd60e51b815260040180806020018281038252602e815260200180612adb602e913960400191505060405180910390fd5b600054610100900460ff16158015611aa8576000805460ff1961ff0019909116610100171660011790555b6117116301ffc9a760e01b611b6e565b600054610100900460ff1680611ad15750611ad1611663565b80611adf575060005460ff16155b611b1a5760405162461bcd60e51b815260040180806020018281038252602e815260200180612adb602e913960400191505060405180910390fd5b600054610100900460ff16158015611b45576000805460ff1961ff0019909116610100171660011790555b611711630271189760e51b611b6e565b6060611b648484600085611bf2565b90505b9392505050565b6001600160e01b03198082161415611bcd576040805162461bcd60e51b815260206004820152601c60248201527f4552433136353a20696e76616c696420696e7465726661636520696400000000604482015290519081900360640190fd5b6001600160e01b0319166000908152606a60205260409020805460ff19166001179055565b606082471015611c335760405162461bcd60e51b8152600401808060200182810382526026815260200180612a936026913960400191505060405180910390fd5b611c3c8561187c565b611c8d576040805162461bcd60e51b815260206004820152601d60248201527f416464726573733a2063616c6c20746f206e6f6e2d636f6e7472616374000000604482015290519081900360640190fd5b600080866001600160a01b031685876040518082805190602001908083835b60208310611ccb5780518252601f199092019160209182019101611cac565b6001836020036101000a03801982511681845116808217855250505050505090500191505060006040518083038185875af1925050503d8060008114611d2d576040519150601f19603f3d011682016040523d82523d6000602084013e611d32565b606091505b5091509150611d42828286611d4d565b979650505050505050565b60608315611d5c575081611b67565b825115611d6c5782518084602001fd5b8160405162461bcd60e51b81526004018080602001828103825283818151815260200191508051906020019080838360005b83811015611db6578181015183820152602001611d9e565b50505050905090810190601f168015611de35780820380516001836020036101000a031916815260200191505b509250505060405180910390fd5b610c1280611dff8339019056fe608060405234801561001057600080fd5b50600061001b61006a565b600080546001600160a01b0319166001600160a01b0383169081178255604051929350917f8be0079c531659141344cd1fd0a4f28419497f9722a3daafe3b4186f6b6457e0908290a35061006e565b3390565b610b958061007d6000396000f3fe608060405234801561001057600080fd5b50600436106100a95760003560e01c806370a082311161007157806370a08231146102b8578063715018a6146102de57806379cc6790146102e65780638da5cb5b1461031257806395d89b4114610336578063f2fde38b1461033e576100a9565b806306fdde03146100ae57806318160ddd1461012b57806322138e6614610145578063313ce5671461026e578063449a52f81461028c575b600080fd5b6100b6610364565b6040805160208082528351818301528351919283929083019185019080838360005b838110156100f05781810151838201526020016100d8565b50505050905090810190601f16801561011d5780820380516001836020036101000a031916815260200191505b509250505060405180910390f35b61013361039b565b60408051918252519081900360200190f35b61026c6004803603604081101561015b57600080fd5b81019060208101813564010000000081111561017657600080fd5b82018360208201111561018857600080fd5b803590602001918460208302840111640100000000831117156101aa57600080fd5b91908080602002602001604051908101604052809392919081815260200183836020028082843760009201919091525092959493602081019350359150506401000000008111156101fa57600080fd5b82018360208201111561020c57600080fd5b8035906020019184602083028401116401000000008311171561022e57600080fd5b9190808060200260200160405190810160405280939291908181526020018383602002808284376000920191909152509295506103a1945050505050565b005b6102766104cf565b6040805160ff9092168252519081900360200190f35b61026c600480360360408110156102a257600080fd5b506001600160a01b0381351690602001356104d4565b610133600480360360208110156102ce57600080fd5b50356001600160a01b0316610544565b61026c61055f565b61026c600480360360408110156102fc57600080fd5b506001600160a01b03813516906020013561060b565b61031a610677565b604080516001600160a01b039092168252519081900360200190f35b6100b6610686565b61026c6004803603602081101561035457600080fd5b50356001600160a01b03166106a5565b6040805180820190915260208082527f52657075746174696f6e616c20416c6c69616e6365426c6f636b20546f6b656e9082015290565b60015481565b6103a96107a7565b6001600160a01b03166103ba610677565b6001600160a01b031614610403576040805162461bcd60e51b81526020600482018190526024820152600080516020610b1f833981519152604482015290519081900360640190fd5b8051825114610459576040805162461bcd60e51b815260206004820152601f60248201527f496e76616c6964206c656e677468206f6620746f206f7220616d6f756e747300604482015290519081900360640190fd5b60005b82518110156104ca5760006001600160a01b031683828151811061047c57fe5b60200260200101516001600160a01b0316146104c2576104c28382815181106104a157fe5b60200260200101518383815181106104b557fe5b60200260200101516107ab565b60010161045c565b505050565b601290565b6104dc6107a7565b6001600160a01b03166104ed610677565b6001600160a01b031614610536576040805162461bcd60e51b81526020600482018190526024820152600080516020610b1f833981519152604482015290519081900360640190fd5b61054082826107ab565b5050565b6001600160a01b031660009081526002602052604090205490565b6105676107a7565b6001600160a01b0316610578610677565b6001600160a01b0316146105c1576040805162461bcd60e51b81526020600482018190526024820152600080516020610b1f833981519152604482015290519081900360640190fd5b600080546040516001600160a01b03909116907f8be0079c531659141344cd1fd0a4f28419497f9722a3daafe3b4186f6b6457e0908390a3600080546001600160a01b0319169055565b6106136107a7565b6001600160a01b0316610624610677565b6001600160a01b03161461066d576040805162461bcd60e51b81526020600482018190526024820152600080516020610b1f833981519152604482015290519081900360640190fd5b6105408282610891565b6000546001600160a01b031690565b6040805180820190915260058152641c9053109560da1b602082015290565b6106ad6107a7565b6001600160a01b03166106be610677565b6001600160a01b031614610707576040805162461bcd60e51b81526020600482018190526024820152600080516020610b1f833981519152604482015290519081900360640190fd5b6001600160a01b03811661074c5760405162461bcd60e51b8152600401808060200182810382526026815260200180610af96026913960400191505060405180910390fd5b600080546040516001600160a01b03808516939216917f8be0079c531659141344cd1fd0a4f28419497f9722a3daafe3b4186f6b6457e091a3600080546001600160a01b0319166001600160a01b0392909216919091179055565b3390565b6001600160a01b038216610806576040805162461bcd60e51b815260206004820152601f60248201527f45524332303a206d696e7420746f20746865207a65726f206164647265737300604482015290519081900360640190fd5b6001546108139082610981565b6001556001600160a01b0382166000908152600260205260409020546108399082610981565b6001600160a01b03831660008181526002602090815260408083209490945583518581529351929391927fddf252ad1be2c89b69c2b068fc378daa952ba7f163c4a11628f55a4df523b3ef9281900390910190a35050565b6001600160a01b0382166108d65760405162461bcd60e51b8152600401808060200182810382526021815260200180610b3f6021913960400191505060405180910390fd5b61091381604051806060016040528060228152602001610ad7602291396001600160a01b03851660009081526002602052604090205491906109e2565b6001600160a01b0383166000908152600260205260409020556001546109399082610a79565b6001556040805182815290516000916001600160a01b038516917fddf252ad1be2c89b69c2b068fc378daa952ba7f163c4a11628f55a4df523b3ef9181900360200190a35050565b6000828201838110156109db576040805162461bcd60e51b815260206004820152601b60248201527f536166654d6174683a206164646974696f6e206f766572666c6f770000000000604482015290519081900360640190fd5b9392505050565b60008184841115610a715760405162461bcd60e51b81526004018080602001828103825283818151815260200191508051906020019080838360005b83811015610a36578181015183820152602001610a1e565b50505050905090810190601f168015610a635780820380516001836020036101000a031916815260200191505b509250505060405180910390fd5b505050900390565b600082821115610ad0576040805162461bcd60e51b815260206004820152601e60248201527f536166654d6174683a207375627472616374696f6e206f766572666c6f770000604482015290519081900360640190fd5b5090039056fe45524332303a206275726e20616d6f756e7420657863656564732062616c616e63654f776e61626c653a206e6577206f776e657220697320746865207a65726f20616464726573734f776e61626c653a2063616c6c6572206973206e6f7420746865206f776e657245524332303a206275726e2066726f6d20746865207a65726f2061646472657373a2646970667358221220870ca3a15d5eecbceffd65cdc0503b3f3dad8658239bdafe16134e5aa0c6542b64736f6c6343000706003343616e6e6f7420696e697469616c697a652070726f6a6563744d616e616765725f2077697468203020616464726573734f776e61626c653a206e6577206f776e657220697320746865207a65726f206164647265737343616e6e6f7420696e697469616c697a652066756e64696e674e46545f207769746820302061646472657373416464726573733a20696e73756666696369656e742062616c616e636520666f722063616c6c43616e6e6f7420696e697469616c697a652077697468203020616464726573736573496e697469616c697a61626c653a20636f6e747261637420697320616c726561647920696e697469616c697a656443616e6e6f7420696e697469616c697a65206c656e64696e67546f6b656e5f2077697468203020616464726573735361666545524332303a204552433230206f7065726174696f6e20646964206e6f742073756363656564a2646970667358221220cc4bf4b88603a6493d6e1558053800e9dff7aefceb98dd4331a099f852fbcd6a64736f6c63430007060033",
  "devdoc": {
    "details": "Extends Initializable, EscrowDetails, OwnableUpgradeable, ERC1155HolderUpgradeable",
    "kind": "dev",
    "methods": {
      "afterInitialize(address,address)": {
        "details": "To be executed after Initializerequires not already initialized",
        "params": {
          "actionVerifierAddress_": "The actionVerifier address.",
          "stakingAddress_": "The staking address"
        }
      },
      "burnFundingNFT(address,uint256,uint256)": {
        "details": "This function is used to burn NFT",
        "params": {
          "account": "The address to burn the funding nft from",
          "amount": "The amount of funding nft to be burn",
          "projectId": "The project id"
        }
      },
      "burnReputationalToken(address,uint256)": {
        "details": "This function is used to burn reputational tokens.",
        "params": {
          "amount": "The amount of reputational tokens to be burnt.",
          "from": "The address to burn the reputational tokens from."
        }
      },
      "initialize(address,address,address)": {
        "details": "Initializes the contract.",
        "params": {
          "fundingNFT_": "The ERC1155 token contract which will represent the lending amounts.",
          "lendingToken_": "The token that lenders will be able to lend.",
          "projectManager_": "The project manager contract."
        }
      },
      "lockFundingNFT(uint256,uint256,address)": {
        "details": "This function is used to send the ERC1155 tokens from lender to escrow.",
        "params": {
          "amountOfNfts": "The amount of ERC1155 tokens that should be locked.",
          "investmentId": "The id of the investment.",
          "sender": "The address to lock the Nfts from.."
        }
      },
      "mintReputationalToken(address,uint256)": {
        "details": "This function is used to mint reputational tokens.",
        "params": {
          "amount": "The amount of reputational tokens to be minted.",
          "recipient": "The address to mint the reputational tokens to."
        }
      },
      "multiMintReputationalToken(address[],uint256[])": {
        "details": "This function is used to multi mint reputational tokens.",
        "params": {
          "amounts": "The amounts of reputational tokens to be minted.",
          "recipients": "The addresses to mint the reputational tokens to."
        }
      },
      "owner()": {
        "details": "Returns the address of the current owner."
      },
      "renounceOwnership()": {
        "details": "Leaves the contract without owner. It will not be possible to call `onlyOwner` functions anymore. Can only be called by the current owner. NOTE: Renouncing ownership will leave the contract without an owner, thereby removing any functionality that is only available to the owner."
      },
      "supportsInterface(bytes4)": {
        "details": "See {IERC165-supportsInterface}. Time complexity O(1), guaranteed to always use less than 30 000 gas."
      },
      "transferFundingNFT(uint256,uint256,address)": {
        "details": "This function is used to send the ERC1155 tokens from escrow to the lenders.",
        "params": {
          "partitionsPurchased": "The amount of ERC1155 tokens that should be sent back to the lender.",
          "projectId": "The id of the project.",
          "receiver": "Lender's address."
        }
      },
      "transferInvestmentToken(address,address,uint256)": {
        "details": "This function is used to send the investment token amount to the seeker.",
        "params": {
          "amount": "The amount of investment tokens to be sent to seeker.",
          "investmentToken": "The investment token's contract address.",
          "recipient": "The address to transfer the investment tokens to."
        }
      },
      "transferLendingToken(address,address,uint256)": {
        "details": "This function is used to send the lended amount to the seeker.",
        "params": {
          "amount": "The amount of lending tokens to be sent to seeker.",
          "lendingToken": "The lending token's contract address.",
          "seeker": "Seeker's address."
        }
      },
      "transferOwnership(address)": {
        "details": "Transfers ownership of the contract to a new account (`newOwner`). Can only be called by the current owner."
      }
    },
    "title": "AllianceBlock Escrow contract",
    "version": 1
  },
  "userdoc": {
    "kind": "user",
    "methods": {
      "afterInitialize(address,address)": {
        "notice": "After Initialize"
      },
      "burnFundingNFT(address,uint256,uint256)": {
        "notice": "Burn Funding NFT"
      },
      "burnReputationalToken(address,uint256)": {
        "notice": "Burn Reputation token"
      },
      "initialize(address,address,address)": {
        "notice": "Initialize"
      },
      "lockFundingNFT(uint256,uint256,address)": {
        "notice": "Transfer Funding NFT"
      },
      "mintReputationalToken(address,uint256)": {
        "notice": "Mint Reputation Token"
      },
      "multiMintReputationalToken(address[],uint256[])": {
        "notice": "Multi Mint Reputation Token"
      },
      "transferFundingNFT(uint256,uint256,address)": {
        "notice": "Transfer Funding NFT"
      },
      "transferInvestmentToken(address,address,uint256)": {
        "notice": "Transfer Investment Token"
      },
      "transferLendingToken(address,address,uint256)": {
        "notice": "Transfer Lending Token"
      }
    },
    "notice": "Responsible for handling the funds in AllianceBlock's ecosystem.",
    "version": 1
  },
  "storageLayout": {
    "storage": [
      {
        "astId": 890,
        "contract": "contracts/Escrow.sol:Escrow",
        "label": "_initialized",
        "offset": 0,
        "slot": "0",
        "type": "t_bool"
      },
      {
        "astId": 893,
        "contract": "contracts/Escrow.sol:Escrow",
        "label": "_initializing",
        "offset": 1,
        "slot": "0",
        "type": "t_bool"
      },
      {
        "astId": 7192,
        "contract": "contracts/Escrow.sol:Escrow",
        "label": "projectManager",
        "offset": 2,
        "slot": "0",
        "type": "t_contract(IProjectManager)9664"
      },
      {
        "astId": 7194,
        "contract": "contracts/Escrow.sol:Escrow",
        "label": "lendingToken",
        "offset": 0,
        "slot": "1",
        "type": "t_contract(IERC20)4769"
      },
      {
        "astId": 7196,
        "contract": "contracts/Escrow.sol:Escrow",
        "label": "fundingNFT",
        "offset": 0,
        "slot": "2",
        "type": "t_contract(IERC1155Mint)9354"
      },
      {
        "astId": 7198,
        "contract": "contracts/Escrow.sol:Escrow",
        "label": "actionVerifier",
        "offset": 0,
        "slot": "3",
        "type": "t_address"
      },
      {
        "astId": 7200,
        "contract": "contracts/Escrow.sol:Escrow",
        "label": "staking",
        "offset": 0,
        "slot": "4",
        "type": "t_address"
      },
      {
        "astId": 7202,
        "contract": "contracts/Escrow.sol:Escrow",
        "label": "reputationalALBT",
        "offset": 0,
        "slot": "5",
        "type": "t_contract(rALBT)15830"
      },
      {
        "astId": 2584,
        "contract": "contracts/Escrow.sol:Escrow",
        "label": "__gap",
        "offset": 0,
        "slot": "6",
        "type": "t_array(t_uint256)50_storage"
      },
      {
        "astId": 321,
        "contract": "contracts/Escrow.sol:Escrow",
        "label": "_owner",
        "offset": 0,
        "slot": "56",
        "type": "t_address"
      },
      {
        "astId": 440,
        "contract": "contracts/Escrow.sol:Escrow",
        "label": "__gap",
        "offset": 0,
        "slot": "57",
        "type": "t_array(t_uint256)49_storage"
      },
      {
        "astId": 458,
        "contract": "contracts/Escrow.sol:Escrow",
        "label": "_supportedInterfaces",
        "offset": 0,
        "slot": "106",
        "type": "t_mapping(t_bytes4,t_bool)"
      },
      {
        "astId": 515,
        "contract": "contracts/Escrow.sol:Escrow",
        "label": "__gap",
        "offset": 0,
        "slot": "107",
        "type": "t_array(t_uint256)49_storage"
      },
      {
        "astId": 1082,
        "contract": "contracts/Escrow.sol:Escrow",
        "label": "__gap",
        "offset": 0,
        "slot": "156",
        "type": "t_array(t_uint256)50_storage"
      },
      {
        "astId": 1027,
        "contract": "contracts/Escrow.sol:Escrow",
        "label": "__gap",
        "offset": 0,
        "slot": "206",
        "type": "t_array(t_uint256)50_storage"
      },
      {
        "astId": 3091,
        "contract": "contracts/Escrow.sol:Escrow",
        "label": "_status",
        "offset": 0,
        "slot": "256",
        "type": "t_uint256"
      },
      {
        "astId": 3134,
        "contract": "contracts/Escrow.sol:Escrow",
        "label": "__gap",
        "offset": 0,
        "slot": "257",
        "type": "t_array(t_uint256)49_storage"
      }
    ],
    "types": {
      "t_address": {
        "encoding": "inplace",
        "label": "address",
        "numberOfBytes": "20"
      },
      "t_array(t_uint256)49_storage": {
        "base": "t_uint256",
        "encoding": "inplace",
        "label": "uint256[49]",
        "numberOfBytes": "1568"
      },
      "t_array(t_uint256)50_storage": {
        "base": "t_uint256",
        "encoding": "inplace",
        "label": "uint256[50]",
        "numberOfBytes": "1600"
      },
      "t_bool": {
        "encoding": "inplace",
        "label": "bool",
        "numberOfBytes": "1"
      },
      "t_bytes4": {
        "encoding": "inplace",
        "label": "bytes4",
        "numberOfBytes": "4"
      },
      "t_contract(IERC1155Mint)9354": {
        "encoding": "inplace",
        "label": "contract IERC1155Mint",
        "numberOfBytes": "20"
      },
      "t_contract(IERC20)4769": {
        "encoding": "inplace",
        "label": "contract IERC20",
        "numberOfBytes": "20"
      },
      "t_contract(IProjectManager)9664": {
        "encoding": "inplace",
        "label": "contract IProjectManager",
        "numberOfBytes": "20"
      },
      "t_contract(rALBT)15830": {
        "encoding": "inplace",
        "label": "contract rALBT",
        "numberOfBytes": "20"
      },
      "t_mapping(t_bytes4,t_bool)": {
        "encoding": "mapping",
        "key": "t_bytes4",
        "label": "mapping(bytes4 => bool)",
        "numberOfBytes": "32",
        "value": "t_bool"
      },
      "t_uint256": {
        "encoding": "inplace",
        "label": "uint256",
        "numberOfBytes": "32"
      }
    }
  }
}