{
  "address": "0x744F64855B0eEdcb288a91b32Ad2E7F9A82d8831",
  "abi": [
    {
      "anonymous": false,
      "inputs": [
        {
          "indexed": true,
          "internalType": "address",
          "name": "account",
          "type": "address"
        },
        {
          "indexed": true,
          "internalType": "address",
          "name": "operator",
          "type": "address"
        },
        {
          "indexed": false,
          "internalType": "bool",
          "name": "approved",
          "type": "bool"
        }
      ],
      "name": "ApprovalForAll",
      "type": "event"
    },
    {
      "anonymous": false,
      "inputs": [
        {
          "indexed": true,
          "internalType": "uint256",
          "name": "loanId",
          "type": "uint256"
        },
        {
          "indexed": true,
          "internalType": "address",
          "name": "user",
          "type": "address"
        },
        {
          "indexed": false,
          "internalType": "uint256",
          "name": "newGeneration",
          "type": "uint256"
        }
      ],
      "name": "GenerationDecreased",
      "type": "event"
    },
    {
      "anonymous": false,
      "inputs": [
        {
          "indexed": true,
          "internalType": "uint256",
          "name": "loanId",
          "type": "uint256"
        },
        {
          "indexed": true,
          "internalType": "address",
          "name": "user",
          "type": "address"
        },
        {
          "indexed": false,
          "internalType": "uint256",
          "name": "newGeneration",
          "type": "uint256"
        }
      ],
      "name": "GenerationIncreased",
      "type": "event"
    },
    {
      "anonymous": false,
      "inputs": [
        {
          "indexed": true,
          "internalType": "bytes32",
          "name": "role",
          "type": "bytes32"
        },
        {
          "indexed": true,
          "internalType": "bytes32",
          "name": "previousAdminRole",
          "type": "bytes32"
        },
        {
          "indexed": true,
          "internalType": "bytes32",
          "name": "newAdminRole",
          "type": "bytes32"
        }
      ],
      "name": "RoleAdminChanged",
      "type": "event"
    },
    {
      "anonymous": false,
      "inputs": [
        {
          "indexed": true,
          "internalType": "bytes32",
          "name": "role",
          "type": "bytes32"
        },
        {
          "indexed": true,
          "internalType": "address",
          "name": "account",
          "type": "address"
        },
        {
          "indexed": true,
          "internalType": "address",
          "name": "sender",
          "type": "address"
        }
      ],
      "name": "RoleGranted",
      "type": "event"
    },
    {
      "anonymous": false,
      "inputs": [
        {
          "indexed": true,
          "internalType": "bytes32",
          "name": "role",
          "type": "bytes32"
        },
        {
          "indexed": true,
          "internalType": "address",
          "name": "account",
          "type": "address"
        },
        {
          "indexed": true,
          "internalType": "address",
          "name": "sender",
          "type": "address"
        }
      ],
      "name": "RoleRevoked",
      "type": "event"
    },
    {
      "anonymous": false,
      "inputs": [
        {
          "indexed": true,
          "internalType": "address",
          "name": "operator",
          "type": "address"
        },
        {
          "indexed": true,
          "internalType": "address",
          "name": "from",
          "type": "address"
        },
        {
          "indexed": true,
          "internalType": "address",
          "name": "to",
          "type": "address"
        },
        {
          "indexed": false,
          "internalType": "uint256[]",
          "name": "ids",
          "type": "uint256[]"
        },
        {
          "indexed": false,
          "internalType": "uint256[]",
          "name": "values",
          "type": "uint256[]"
        }
      ],
      "name": "TransferBatch",
      "type": "event"
    },
    {
      "anonymous": false,
      "inputs": [
        {
          "indexed": true,
          "internalType": "address",
          "name": "operator",
          "type": "address"
        },
        {
          "indexed": true,
          "internalType": "address",
          "name": "from",
          "type": "address"
        },
        {
          "indexed": true,
          "internalType": "address",
          "name": "to",
          "type": "address"
        },
        {
          "indexed": false,
          "internalType": "uint256",
          "name": "id",
          "type": "uint256"
        },
        {
          "indexed": false,
          "internalType": "uint256",
          "name": "value",
          "type": "uint256"
        }
      ],
      "name": "TransferSingle",
      "type": "event"
    },
    {
      "anonymous": false,
      "inputs": [
        {
          "indexed": false,
          "internalType": "uint256",
          "name": "loanId",
          "type": "uint256"
        }
      ],
      "name": "TransfersPaused",
      "type": "event"
    },
    {
      "anonymous": false,
      "inputs": [
        {
          "indexed": false,
          "internalType": "uint256",
          "name": "loanId",
          "type": "uint256"
        }
      ],
      "name": "TransfersResumed",
      "type": "event"
    },
    {
      "anonymous": false,
      "inputs": [
        {
          "indexed": false,
          "internalType": "string",
          "name": "value",
          "type": "string"
        },
        {
          "indexed": true,
          "internalType": "uint256",
          "name": "id",
          "type": "uint256"
        }
      ],
      "name": "URI",
      "type": "event"
    },
    {
      "inputs": [],
      "name": "DEFAULT_ADMIN_ROLE",
      "outputs": [
        {
          "internalType": "bytes32",
          "name": "",
          "type": "bytes32"
        }
      ],
      "stateMutability": "view",
      "type": "function"
    },
    {
      "inputs": [],
      "name": "MINTER_ROLE",
      "outputs": [
        {
          "internalType": "bytes32",
          "name": "",
          "type": "bytes32"
        }
      ],
      "stateMutability": "view",
      "type": "function"
    },
    {
      "inputs": [],
      "name": "PAUSER_ROLE",
      "outputs": [
        {
          "internalType": "bytes32",
          "name": "",
          "type": "bytes32"
        }
      ],
      "stateMutability": "view",
      "type": "function"
    },
    {
      "inputs": [
        {
          "internalType": "address",
          "name": "account",
          "type": "address"
        },
        {
          "internalType": "uint256",
          "name": "id",
          "type": "uint256"
        }
      ],
      "name": "balanceOf",
      "outputs": [
        {
          "internalType": "uint256",
          "name": "",
          "type": "uint256"
        }
      ],
      "stateMutability": "view",
      "type": "function"
    },
    {
      "inputs": [
        {
          "internalType": "address[]",
          "name": "accounts",
          "type": "address[]"
        },
        {
          "internalType": "uint256[]",
          "name": "ids",
          "type": "uint256[]"
        }
      ],
      "name": "balanceOfBatch",
      "outputs": [
        {
          "internalType": "uint256[]",
          "name": "",
          "type": "uint256[]"
        }
      ],
      "stateMutability": "view",
      "type": "function"
    },
    {
      "inputs": [
        {
          "internalType": "address",
          "name": "account",
          "type": "address"
        },
        {
          "internalType": "uint256",
          "name": "id",
          "type": "uint256"
        },
        {
          "internalType": "uint256",
          "name": "amount",
          "type": "uint256"
        }
      ],
      "name": "burn",
      "outputs": [],
      "stateMutability": "nonpayable",
      "type": "function"
    },
    {
      "inputs": [],
      "name": "contractURI",
      "outputs": [
        {
          "internalType": "string",
          "name": "",
          "type": "string"
        }
      ],
      "stateMutability": "view",
      "type": "function"
    },
    {
      "inputs": [
        {
          "internalType": "uint256",
          "name": "tokenId",
          "type": "uint256"
        },
        {
          "internalType": "address",
          "name": "user",
          "type": "address"
        },
        {
          "internalType": "uint256",
          "name": "amount",
          "type": "uint256"
        },
        {
          "internalType": "uint256",
          "name": "generationsToDecrease",
          "type": "uint256"
        }
      ],
      "name": "decreaseGenerations",
      "outputs": [],
      "stateMutability": "nonpayable",
      "type": "function"
    },
    {
      "inputs": [],
      "name": "getCurrentLoanId",
      "outputs": [
        {
          "internalType": "uint256",
          "name": "loanId",
          "type": "uint256"
        }
      ],
      "stateMutability": "view",
      "type": "function"
    },
    {
      "inputs": [
        {
          "internalType": "bytes32",
          "name": "role",
          "type": "bytes32"
        }
      ],
      "name": "getRoleAdmin",
      "outputs": [
        {
          "internalType": "bytes32",
          "name": "",
          "type": "bytes32"
        }
      ],
      "stateMutability": "view",
      "type": "function"
    },
    {
      "inputs": [
        {
          "internalType": "bytes32",
          "name": "role",
          "type": "bytes32"
        },
        {
          "internalType": "uint256",
          "name": "index",
          "type": "uint256"
        }
      ],
      "name": "getRoleMember",
      "outputs": [
        {
          "internalType": "address",
          "name": "",
          "type": "address"
        }
      ],
      "stateMutability": "view",
      "type": "function"
    },
    {
      "inputs": [
        {
          "internalType": "bytes32",
          "name": "role",
          "type": "bytes32"
        }
      ],
      "name": "getRoleMemberCount",
      "outputs": [
        {
          "internalType": "uint256",
          "name": "",
          "type": "uint256"
        }
      ],
      "stateMutability": "view",
      "type": "function"
    },
    {
      "inputs": [
        {
          "internalType": "bytes32",
          "name": "role",
          "type": "bytes32"
        },
        {
          "internalType": "address",
          "name": "account",
          "type": "address"
        }
      ],
      "name": "grantRole",
      "outputs": [],
      "stateMutability": "nonpayable",
      "type": "function"
    },
    {
      "inputs": [
        {
          "internalType": "bytes32",
          "name": "role",
          "type": "bytes32"
        },
        {
          "internalType": "address",
          "name": "account",
          "type": "address"
        }
      ],
      "name": "hasRole",
      "outputs": [
        {
          "internalType": "bool",
          "name": "",
          "type": "bool"
        }
      ],
      "stateMutability": "view",
      "type": "function"
    },
    {
      "inputs": [
        {
          "internalType": "uint256",
          "name": "tokenId",
          "type": "uint256"
        },
        {
          "internalType": "address",
          "name": "user",
          "type": "address"
        },
        {
          "internalType": "uint256",
          "name": "amount",
          "type": "uint256"
        }
      ],
      "name": "increaseGeneration",
      "outputs": [],
      "stateMutability": "nonpayable",
      "type": "function"
    },
    {
      "inputs": [
        {
          "internalType": "uint256",
          "name": "tokenId",
          "type": "uint256"
        },
        {
          "internalType": "address",
          "name": "user",
          "type": "address"
        },
        {
          "internalType": "uint256",
          "name": "amount",
          "type": "uint256"
        },
        {
          "internalType": "uint256",
          "name": "generationsToAdd",
          "type": "uint256"
        }
      ],
      "name": "increaseGenerations",
      "outputs": [],
      "stateMutability": "nonpayable",
      "type": "function"
    },
    {
      "inputs": [
        {
          "internalType": "string",
          "name": "baseUri",
          "type": "string"
        },
        {
          "internalType": "string",
          "name": "contractUri",
          "type": "string"
        }
      ],
      "name": "initialize",
      "outputs": [],
      "stateMutability": "nonpayable",
      "type": "function"
    },
    {
      "inputs": [
        {
          "internalType": "uint256",
          "name": "",
          "type": "uint256"
        }
      ],
      "name": "ipfsHashes",
      "outputs": [
        {
          "internalType": "string",
          "name": "",
          "type": "string"
        }
      ],
      "stateMutability": "view",
      "type": "function"
    },
    {
      "inputs": [
        {
          "internalType": "address",
          "name": "account",
          "type": "address"
        },
        {
          "internalType": "address",
          "name": "operator",
          "type": "address"
        }
      ],
      "name": "isApprovedForAll",
      "outputs": [
        {
          "internalType": "bool",
          "name": "",
          "type": "bool"
        }
      ],
      "stateMutability": "view",
      "type": "function"
    },
    {
      "inputs": [
        {
          "internalType": "address",
          "name": "to",
          "type": "address"
        },
        {
          "internalType": "uint256",
          "name": "amount",
          "type": "uint256"
        }
      ],
      "name": "mintGen0",
      "outputs": [],
      "stateMutability": "nonpayable",
      "type": "function"
    },
    {
      "inputs": [
        {
          "internalType": "address",
          "name": "to",
          "type": "address"
        },
        {
          "internalType": "uint256",
          "name": "amount",
          "type": "uint256"
        },
        {
          "internalType": "uint256",
          "name": "generation",
          "type": "uint256"
        }
      ],
      "name": "mintOfGen",
      "outputs": [],
      "stateMutability": "nonpayable",
      "type": "function"
    },
    {
      "inputs": [
        {
          "internalType": "uint256",
          "name": "loanId",
          "type": "uint256"
        }
      ],
      "name": "pauseTokenTransfer",
      "outputs": [],
      "stateMutability": "nonpayable",
      "type": "function"
    },
    {
      "inputs": [
        {
          "internalType": "bytes32",
          "name": "role",
          "type": "bytes32"
        },
        {
          "internalType": "address",
          "name": "account",
          "type": "address"
        }
      ],
      "name": "renounceRole",
      "outputs": [],
      "stateMutability": "nonpayable",
      "type": "function"
    },
    {
      "inputs": [
        {
          "internalType": "bytes32",
          "name": "role",
          "type": "bytes32"
        },
        {
          "internalType": "address",
          "name": "account",
          "type": "address"
        }
      ],
      "name": "revokeRole",
      "outputs": [],
      "stateMutability": "nonpayable",
      "type": "function"
    },
    {
      "inputs": [
        {
          "internalType": "address",
          "name": "from",
          "type": "address"
        },
        {
          "internalType": "address",
          "name": "to",
          "type": "address"
        },
        {
          "internalType": "uint256[]",
          "name": "ids",
          "type": "uint256[]"
        },
        {
          "internalType": "uint256[]",
          "name": "amounts",
          "type": "uint256[]"
        },
        {
          "internalType": "bytes",
          "name": "data",
          "type": "bytes"
        }
      ],
      "name": "safeBatchTransferFrom",
      "outputs": [],
      "stateMutability": "nonpayable",
      "type": "function"
    },
    {
      "inputs": [
        {
          "internalType": "address",
          "name": "from",
          "type": "address"
        },
        {
          "internalType": "address",
          "name": "to",
          "type": "address"
        },
        {
          "internalType": "uint256",
          "name": "id",
          "type": "uint256"
        },
        {
          "internalType": "uint256",
          "name": "amount",
          "type": "uint256"
        },
        {
          "internalType": "bytes",
          "name": "data",
          "type": "bytes"
        }
      ],
      "name": "safeTransferFrom",
      "outputs": [],
      "stateMutability": "nonpayable",
      "type": "function"
    },
    {
      "inputs": [
        {
          "internalType": "address",
          "name": "operator",
          "type": "address"
        },
        {
          "internalType": "bool",
          "name": "approved",
          "type": "bool"
        }
      ],
      "name": "setApprovalForAll",
      "outputs": [],
      "stateMutability": "nonpayable",
      "type": "function"
    },
    {
      "inputs": [
        {
          "internalType": "bytes4",
          "name": "interfaceId",
          "type": "bytes4"
        }
      ],
      "name": "supportsInterface",
      "outputs": [
        {
          "internalType": "bool",
          "name": "",
          "type": "bool"
        }
      ],
      "stateMutability": "view",
      "type": "function"
    },
    {
      "inputs": [
        {
          "internalType": "uint256",
          "name": "",
          "type": "uint256"
        }
      ],
      "name": "transfersPaused",
      "outputs": [
        {
          "internalType": "bool",
          "name": "",
          "type": "bool"
        }
      ],
      "stateMutability": "view",
      "type": "function"
    },
    {
      "inputs": [
        {
          "internalType": "uint256",
          "name": "loanId",
          "type": "uint256"
        }
      ],
      "name": "unpauseTokenTransfer",
      "outputs": [],
      "stateMutability": "nonpayable",
      "type": "function"
    },
    {
      "inputs": [
        {
          "internalType": "uint256",
          "name": "",
          "type": "uint256"
        }
      ],
      "name": "uri",
      "outputs": [
        {
          "internalType": "string",
          "name": "",
          "type": "string"
        }
      ],
      "stateMutability": "view",
      "type": "function"
    }
  ],
  "transactionHash": "0x6880f58c7674aa0af0685407d7e636a4db468ba56038aa1c84ecc78e1c294426",
  "args": [],
  "solcInputHash": "b4749c3639c4ae9324add8ba059987d0",
  "bytecode": "0x608060405234801561001057600080fd5b50613024806100206000396000f3fe608060405234801561001057600080fd5b50600436106101e45760003560e01c806391d148541161010f578063d5391393116100a2578063e985e9c511610071578063e985e9c514610a1a578063ebad711d14610a48578063f242432a14610a74578063f5298aca14610b3d576101e4565b8063d5391393146109d6578063d547741f146109de578063e63ab1e914610a0a578063e8a3d48514610a12576101e4565b8063a4de2f5c116100de578063a4de2f5c1461092c578063c5b4ece514610949578063ca15c87314610981578063d515da221461099e576101e4565b806391d14854146108ad57806397107c33146108d9578063a217fddf146108f6578063a22cb465146108fe576101e4565b806333a6a3f2116101875780635628d03e116101565780635628d03e14610802578063619110641461080a578063718e88ec1461083c5780639010d07c1461086e576101e4565b806333a6a3f21461051d57806336568abe1461053a5780634cd88b76146105665780634e1273f41461068f576101e4565b806313e31081116101c357806313e31081146102f4578063248a9ca3146103135780632eb2c2d6146103305780632f2ff15d146104f1576101e4565b8062fdd58e146101e957806301ffc9a7146102275780630e89341c14610262575b600080fd5b610215600480360360408110156101ff57600080fd5b506001600160a01b038135169060200135610b6f565b60408051918252519081900360200190f35b61024e6004803603602081101561023d57600080fd5b50356001600160e01b031916610be1565b604080519115158252519081900360200190f35b61027f6004803603602081101561027857600080fd5b5035610c00565b6040805160208082528351818301528351919283929083019185019080838360005b838110156102b95781810151838201526020016102a1565b50505050905090810190601f1680156102e65780820380516001836020036101000a031916815260200191505b509250505060405180910390f35b6103116004803603602081101561030a57600080fd5b5035610c98565b005b6102156004803603602081101561032957600080fd5b5035610d51565b610311600480360360a081101561034657600080fd5b6001600160a01b038235811692602081013590911691810190606081016040820135600160201b81111561037957600080fd5b82018360208201111561038b57600080fd5b803590602001918460208302840111600160201b831117156103ac57600080fd5b9190808060200260200160405190810160405280939291908181526020018383602002808284376000920191909152509295949360208101935035915050600160201b8111156103fb57600080fd5b82018360208201111561040d57600080fd5b803590602001918460208302840111600160201b8311171561042e57600080fd5b9190808060200260200160405190810160405280939291908181526020018383602002808284376000920191909152509295949360208101935035915050600160201b81111561047d57600080fd5b82018360208201111561048f57600080fd5b803590602001918460018302840111600160201b831117156104b057600080fd5b91908080601f016020809104026020016040519081016040528093929190818152602001838380828437600092019190915250929550610d66945050505050565b6103116004803603604081101561050757600080fd5b50803590602001356001600160a01b0316611069565b61024e6004803603602081101561053357600080fd5b50356110d0565b6103116004803603604081101561055057600080fd5b50803590602001356001600160a01b03166110e5565b6103116004803603604081101561057c57600080fd5b810190602081018135600160201b81111561059657600080fd5b8201836020820111156105a857600080fd5b803590602001918460018302840111600160201b831117156105c957600080fd5b91908080601f0160208091040260200160405190810160405280939291908181526020018383808284376000920191909152509295949360208101935035915050600160201b81111561061b57600080fd5b82018360208201111561062d57600080fd5b803590602001918460018302840111600160201b8311171561064e57600080fd5b91908080601f016020809104026020016040519081016040528093929190818152602001838380828437600092019190915250929550611146945050505050565b6107b2600480360360408110156106a557600080fd5b810190602081018135600160201b8111156106bf57600080fd5b8201836020820111156106d157600080fd5b803590602001918460208302840111600160201b831117156106f257600080fd5b9190808060200260200160405190810160405280939291908181526020018383602002808284376000920191909152509295949360208101935035915050600160201b81111561074157600080fd5b82018360208201111561075357600080fd5b803590602001918460208302840111600160201b8311171561077457600080fd5b919080806020026020016040519081016040528093929190818152602001838360200280828437600092019190915250929550611270945050505050565b60408051602080825283518183015283519192839290830191858101910280838360005b838110156107ee5781810151838201526020016107d6565b505050509050019250505060405180910390f35b61021561135c565b6103116004803603606081101561082057600080fd5b508035906001600160a01b03602082013516906040013561136e565b6103116004803603606081101561085257600080fd5b506001600160a01b0381351690602081013590604001356113d4565b6108916004803603604081101561088457600080fd5b508035906020013561146e565b604080516001600160a01b039092168252519081900360200190f35b61024e600480360360408110156108c357600080fd5b50803590602001356001600160a01b031661148d565b610311600480360360208110156108ef57600080fd5b50356114a5565b610215611556565b6103116004803603604081101561091457600080fd5b506001600160a01b038135169060200135151561155b565b61027f6004803603602081101561094257600080fd5b503561164a565b6103116004803603608081101561095f57600080fd5b508035906001600160a01b0360208201351690604081013590606001356116e5565b6102156004803603602081101561099757600080fd5b503561174a565b610311600480360360808110156109b457600080fd5b508035906001600160a01b036020820135169060408101359060600135611761565b6102156117c6565b610311600480360360408110156109f457600080fd5b50803590602001356001600160a01b03166117d8565b610215611831565b61027f611843565b61024e60048036036040811015610a3057600080fd5b506001600160a01b03813581169160200135166118d9565b61031160048036036040811015610a5e57600080fd5b506001600160a01b038135169060200135611907565b610311600480360360a0811015610a8a57600080fd5b6001600160a01b03823581169260208101359091169160408201359160608101359181019060a081016080820135600160201b811115610ac957600080fd5b820183602082011115610adb57600080fd5b803590602001918460018302840111600160201b83111715610afc57600080fd5b91908080601f016020809104026020016040519081016040528093929190818152602001838380828437600092019190915250929550611991945050505050565b61031160048036036060811015610b5357600080fd5b506001600160a01b038135169060208101359060400135611b5c565b60006001600160a01b038316610bb65760405162461bcd60e51b815260040180806020018281038252602b815260200180612d4b602b913960400191505060405180910390fd5b5060008181526097602090815260408083206001600160a01b03861684529091529020545b92915050565b6001600160e01b03191660009081526065602052604090205460ff1690565b60998054604080516020601f6002600019610100600188161502019095169490940493840181900481028201810190925282815260609390929091830182828015610c8c5780601f10610c6157610100808354040283529160200191610c8c565b820191906000526020600020905b815481529060010190602001808311610c6f57829003601f168201915b50505050509050919050565b610cb7600080516020612ec5833981519152610cb2611bc0565b61148d565b610d00576040805162461bcd60e51b81526020600482015260156024820152744d75737420686176652070617573657220726f6c6560581b604482015290519081900360640190fd5b600081815260cc6020908152604091829020805460ff19166001179055815183815291517fb9a8cb63f7d8d0d4ea64621922affb0ab58fe7770365b3c2a00282a0a59166fc9281900390910190a150565b60009081526033602052604090206002015490565b8151835114610da65760405162461bcd60e51b8152600401808060200182810382526028815260200180612f776028913960400191505060405180910390fd5b6001600160a01b038416610deb5760405162461bcd60e51b8152600401808060200182810382526025815260200180612df36025913960400191505060405180910390fd5b610df3611bc0565b6001600160a01b0316856001600160a01b03161480610e1e5750610e1e85610e19611bc0565b6118d9565b610e595760405162461bcd60e51b8152600401808060200182810382526032815260200180612e186032913960400191505060405180910390fd5b6000610e63611bc0565b9050610e73818787878787611bc4565b60005b8451811015610f79576000858281518110610e8d57fe5b602002602001015190506000858381518110610ea557fe5b60200260200101519050610f12816040518060600160405280602a8152602001612e9b602a91396097600086815260200190815260200160002060008d6001600160a01b03166001600160a01b0316815260200190815260200160002054611c5c9092919063ffffffff16565b60008381526097602090815260408083206001600160a01b038e811685529252808320939093558a1681522054610f499082611cf3565b60009283526097602090815260408085206001600160a01b038c1686529091529092209190915550600101610e76565b50846001600160a01b0316866001600160a01b0316826001600160a01b03167f4a39dc06d4c0dbc64b70af90fd698a233a518aa5d07e595d983b8c0526c8f7fb8787604051808060200180602001838103835285818151815260200191508051906020019060200280838360005b83811015610fff578181015183820152602001610fe7565b50505050905001838103825284818151815260200191508051906020019060200280838360005b8381101561103e578181015183820152602001611026565b5050505090500194505050505060405180910390a4611061818787878787611d4d565b505050505050565b60008281526033602052604090206002015461108790610cb2611bc0565b6110c25760405162461bcd60e51b815260040180806020018281038252602f815260200180612d1c602f913960400191505060405180910390fd5b6110cc8282611fc3565b5050565b60cc6020526000908152604090205460ff1681565b6110ed611bc0565b6001600160a01b0316816001600160a01b03161461113c5760405162461bcd60e51b815260040180806020018281038252602f815260200180612fc0602f913960400191505060405180910390fd5b6110cc828261202c565b600054610100900460ff168061115f575061115f612095565b8061116d575060005460ff16155b6111a85760405162461bcd60e51b815260040180806020018281038252602e815260200180612e4a602e913960400191505060405180910390fd5b600054610100900460ff161580156111d3576000805460ff1961ff0019909116610100171660011790555b6111eb604051806020016040528060008152506120a6565b82516111fe9060cb906020860190612b5f565b5081516112129060ca906020850190612b5f565b506112256000611220611bc0565b6110c2565b61123f600080516020612ee5833981519152611220611bc0565b611259600080516020612ec5833981519152611220611bc0565b801561126b576000805461ff00191690555b505050565b606081518351146112b25760405162461bcd60e51b8152600401808060200182810382526029815260200180612f4e6029913960400191505060405180910390fd5b6060835167ffffffffffffffff811180156112cc57600080fd5b506040519080825280602002602001820160405280156112f6578160200160208202803683370190505b50905060005b84518110156113545761133585828151811061131457fe5b602002602001015185838151811061132857fe5b6020026020010151610b6f565b82828151811061134157fe5b60209081029190910101526001016112fc565b509392505050565b600061136860c9612161565b90505b90565b611388600080516020612ee5833981519152610cb2611bc0565b6113c7576040805162461bcd60e51b815260206004820152601d6024820152600080516020612f2e833981519152604482015290519081900360640190fd5b61126b8383836001612165565b6113ee600080516020612ee5833981519152610cb2611bc0565b61142d576040805162461bcd60e51b815260206004820152601d6024820152600080516020612f2e833981519152604482015290519081900360640190fd5b600061144161143a61135c565b83906121f5565b905061145e848285604051806020016040528060008152506121ff565b61146860c9612307565b50505050565b60008281526033602052604081206114869083612310565b9392505050565b6000828152603360205260408120611486908361231c565b6114bf600080516020612ec5833981519152610cb2611bc0565b611508576040805162461bcd60e51b81526020600482015260156024820152744d75737420686176652070617573657220726f6c6560581b604482015290519081900360640190fd5b600081815260cc6020908152604091829020805460ff19169055815183815291517f8040b2e6f91e95e13b2531639c55f35efb506b792124b7cf22e29aa311bd1dea9281900390910190a150565b600081565b816001600160a01b031661156d611bc0565b6001600160a01b031614156115b35760405162461bcd60e51b8152600401808060200182810382526029815260200180612f056029913960400191505060405180910390fd5b80609860006115c0611bc0565b6001600160a01b03908116825260208083019390935260409182016000908120918716808252919093529120805460ff191692151592909217909155611604611bc0565b6001600160a01b03167f17307eab39ab6107e8899845ad3d59bd9653f200f220920489ca2b5937696c318360405180821515815260200191505060405180910390a35050565b60cd6020908152600091825260409182902080548351601f6002600019610100600186161502019093169290920491820184900484028101840190945280845290918301828280156116dd5780601f106116b2576101008083540402835291602001916116dd565b820191906000526020600020905b8154815290600101906020018083116116c057829003601f168201915b505050505081565b6116ff600080516020612ee5833981519152610cb2611bc0565b61173e576040805162461bcd60e51b815260206004820152601d6024820152600080516020612f2e833981519152604482015290519081900360640190fd5b61146884848484612331565b6000818152603360205260408120610bdb9061240b565b61177b600080516020612ee5833981519152610cb2611bc0565b6117ba576040805162461bcd60e51b815260206004820152601d6024820152600080516020612f2e833981519152604482015290519081900360640190fd5b61146884848484612165565b600080516020612ee583398151915281565b6000828152603360205260409020600201546117f690610cb2611bc0565b61113c5760405162461bcd60e51b8152600401808060200182810382526030815260200180612dc36030913960400191505060405180910390fd5b600080516020612ec583398151915281565b60ca8054604080516020601f60026000196101006001881615020190951694909404938401819004810282018101909252828152606093909290918301828280156118cf5780601f106118a4576101008083540402835291602001916118cf565b820191906000526020600020905b8154815290600101906020018083116118b257829003601f168201915b5050505050905090565b6001600160a01b03918216600090815260986020908152604080832093909416825291909152205460ff1690565b611921600080516020612ee5833981519152610cb2611bc0565b611960576040805162461bcd60e51b815260206004820152601d6024820152600080516020612f2e833981519152604482015290519081900360640190fd5b600061196a61135c565b9050611987838284604051806020016040528060008152506121ff565b61126b60c9612307565b6001600160a01b0384166119d65760405162461bcd60e51b8152600401808060200182810382526025815260200180612df36025913960400191505060405180910390fd5b6119de611bc0565b6001600160a01b0316856001600160a01b03161480611a045750611a0485610e19611bc0565b611a3f5760405162461bcd60e51b8152600401808060200182810382526029815260200180612d9a6029913960400191505060405180910390fd5b6000611a49611bc0565b9050611a69818787611a5a88612416565b611a6388612416565b87611bc4565b611ab0836040518060600160405280602a8152602001612e9b602a913960008781526097602090815260408083206001600160a01b038d1684529091529020549190611c5c565b60008581526097602090815260408083206001600160a01b038b81168552925280832093909355871681522054611ae79084611cf3565b60008581526097602090815260408083206001600160a01b03808b168086529184529382902094909455805188815291820187905280518a8416938616927fc3d58168c5ae7397731d063d5bbf3d657854427343f4c083240f7aacaa2d0f6292908290030190a461106181878787878761245a565b611b76600080516020612ee5833981519152610cb2611bc0565b611bb5576040805162461bcd60e51b815260206004820152601d6024820152600080516020612f2e833981519152604482015290519081900360640190fd5b61126b8383836125cb565b3390565b60005b8351811015611c53576000611bee858381518110611be157fe5b60200260200101516126fe565b600081815260cc602052604090205490925060ff16159050611c4a576040805162461bcd60e51b815260206004820152601060248201526f151c985b9cd9995c9cc81c185d5cd95960821b604482015290519081900360640190fd5b50600101611bc7565b50505050505050565b60008184841115611ceb5760405162461bcd60e51b81526004018080602001828103825283818151815260200191508051906020019080838360005b83811015611cb0578181015183820152602001611c98565b50505050905090810190601f168015611cdd5780820380516001836020036101000a031916815260200191505b509250505060405180910390fd5b505050900390565b600082820183811015611486576040805162461bcd60e51b815260206004820152601b60248201527f536166654d6174683a206164646974696f6e206f766572666c6f770000000000604482015290519081900360640190fd5b611d5f846001600160a01b031661271b565b1561106157836001600160a01b031663bc197c8187878686866040518663ffffffff1660e01b815260040180866001600160a01b03168152602001856001600160a01b03168152602001806020018060200180602001848103845287818151815260200191508051906020019060200280838360005b83811015611ded578181015183820152602001611dd5565b50505050905001848103835286818151815260200191508051906020019060200280838360005b83811015611e2c578181015183820152602001611e14565b50505050905001848103825285818151815260200191508051906020019080838360005b83811015611e68578181015183820152602001611e50565b50505050905090810190601f168015611e955780820380516001836020036101000a031916815260200191505b5098505050505050505050602060405180830381600087803b158015611eba57600080fd5b505af1925050508015611edf57506040513d6020811015611eda57600080fd5b505160015b611f7457611eeb612bf8565b80611ef65750611f3d565b60405162461bcd60e51b8152602060048201818152835160248401528351849391928392604401919085019080838360008315611cb0578181015183820152602001611c98565b60405162461bcd60e51b8152600401808060200182810382526034815260200180612c9e6034913960400191505060405180910390fd5b6001600160e01b0319811663bc197c8160e01b14611c535760405162461bcd60e51b8152600401808060200182810382526028815260200180612cf46028913960400191505060405180910390fd5b6000828152603360205260409020611fdb9082612721565b156110cc57611fe8611bc0565b6001600160a01b0316816001600160a01b0316837f2f8788117e7eff1d82e926ec794901d17c78024a50270940304540a733656f0d60405160405180910390a45050565b60008281526033602052604090206120449082612736565b156110cc57612051611bc0565b6001600160a01b0316816001600160a01b0316837ff6391f5c32d9c69d2a47ea670b442974b53935d1edc7fd64eb21e047a839171b60405160405180910390a45050565b60006120a03061271b565b15905090565b600054610100900460ff16806120bf57506120bf612095565b806120cd575060005460ff16155b6121085760405162461bcd60e51b815260040180806020018281038252602e815260200180612e4a602e913960400191505060405180910390fd5b600054610100900460ff16158015612133576000805460ff1961ff0019909116610100171660011790555b61213b61274b565b6121436127ed565b61214c8261288a565b80156110cc576000805461ff00191690555050565b5490565b600080612171866126fe565b90840192509050600061218483836121f5565b9050612191868887611b5c565b6121ac868287604051806020016040528060008152506121ff565b6040805184815290516001600160a01b0388169184917fa48bd214a19e2a419dd64c3bd181a9fca654e16d6d9d072890daf7c5586f069f9181900360200190a350505050505050565b60809190911b1790565b6001600160a01b0384166122445760405162461bcd60e51b8152600401808060200182810382526021815260200180612f9f6021913960400191505060405180910390fd5b600061224e611bc0565b905061226081600087611a5a88612416565b60008481526097602090815260408083206001600160a01b038916845290915290205461228d9084611cf3565b60008581526097602090815260408083206001600160a01b03808b16808652918452828520959095558151898152928301889052815190948616927fc3d58168c5ae7397731d063d5bbf3d657854427343f4c083240f7aacaa2d0f6292908290030190a46123008160008787878761245a565b5050505050565b80546001019055565b60006114868383612940565b6000611486836001600160a01b0384166129a4565b60008061233d866126fe565b9150915082821015612389576040805162461bcd60e51b815260206004820152601060248201526f125b9d985b1a59081d1bdad95b88125160821b604482015290519081900360640190fd5b9082900390600061239a83836121f5565b90506123a7868887611b5c565b6123c2868287604051806020016040528060008152506121ff565b6040805184815290516001600160a01b0388169184917f745cb8623f9a236db89c707d71fbb712efe9e9dd5e8eb2f03026ea3b15a3ef809181900360200190a350505050505050565b6000610bdb82612161565b60408051600180825281830190925260609182919060208083019080368337019050509050828160008151811061244957fe5b602090810291909101015292915050565b61246c846001600160a01b031661271b565b1561106157836001600160a01b031663f23a6e6187878686866040518663ffffffff1660e01b815260040180866001600160a01b03168152602001856001600160a01b0316815260200184815260200183815260200180602001828103825283818151815260200191508051906020019080838360005b838110156124fb5781810151838201526020016124e3565b50505050905090810190601f1680156125285780820380516001836020036101000a031916815260200191505b509650505050505050602060405180830381600087803b15801561254b57600080fd5b505af192505050801561257057506040513d602081101561256b57600080fd5b505160015b61257c57611eeb612bf8565b6001600160e01b0319811663f23a6e6160e01b14611c535760405162461bcd60e51b8152600401808060200182810382526028815260200180612cf46028913960400191505060405180910390fd5b6001600160a01b0383166126105760405162461bcd60e51b8152600401808060200182810382526023815260200180612e786023913960400191505060405180910390fd5b600061261a611bc0565b905061264a8185600061262c87612416565b61263587612416565b60405180602001604052806000815250611bc4565b61269182604051806060016040528060248152602001612d766024913960008681526097602090815260408083206001600160a01b038b1684529091529020549190611c5c565b60008481526097602090815260408083206001600160a01b03808a16808652918452828520959095558151888152928301879052815193949093908616927fc3d58168c5ae7397731d063d5bbf3d657854427343f4c083240f7aacaa2d0f6292908290030190a450505050565b608081901c916fffffffffffffffffffffffffffffffff90911690565b3b151590565b6000611486836001600160a01b0384166129bc565b6000611486836001600160a01b038416612a06565b600054610100900460ff16806127645750612764612095565b80612772575060005460ff16155b6127ad5760405162461bcd60e51b815260040180806020018281038252602e815260200180612e4a602e913960400191505060405180910390fd5b600054610100900460ff161580156127d8576000805460ff1961ff0019909116610100171660011790555b80156127ea576000805461ff00191690555b50565b600054610100900460ff16806128065750612806612095565b80612814575060005460ff16155b61284f5760405162461bcd60e51b815260040180806020018281038252602e815260200180612e4a602e913960400191505060405180910390fd5b600054610100900460ff1615801561287a576000805460ff1961ff0019909116610100171660011790555b6127d86301ffc9a760e01b612acc565b600054610100900460ff16806128a357506128a3612095565b806128b1575060005460ff16155b6128ec5760405162461bcd60e51b815260040180806020018281038252602e815260200180612e4a602e913960400191505060405180910390fd5b600054610100900460ff16158015612917576000805460ff1961ff0019909116610100171660011790555b61292082612b50565b612930636cdb3d1360e11b612acc565b61214c6303a24d0760e21b612acc565b815460009082106129825760405162461bcd60e51b8152600401808060200182810382526022815260200180612cd26022913960400191505060405180910390fd5b82600001828154811061299157fe5b9060005260206000200154905092915050565b60009081526001919091016020526040902054151590565b60006129c883836129a4565b6129fe57508154600181810184556000848152602080822090930184905584548482528286019093526040902091909155610bdb565b506000610bdb565b60008181526001830160205260408120548015612ac25783546000198083019190810190600090879083908110612a3957fe5b9060005260206000200154905080876000018481548110612a5657fe5b600091825260208083209091019290925582815260018981019092526040902090840190558654879080612a8657fe5b60019003818190600052602060002001600090559055866001016000878152602001908152602001600020600090556001945050505050610bdb565b6000915050610bdb565b6001600160e01b03198082161415612b2b576040805162461bcd60e51b815260206004820152601c60248201527f4552433136353a20696e76616c696420696e7465726661636520696400000000604482015290519081900360640190fd5b6001600160e01b0319166000908152606560205260409020805460ff19166001179055565b80516110cc9060999060208401905b828054600181600116156101000203166002900490600052602060002090601f016020900481019282601f10612ba057805160ff1916838001178555612bcd565b82800160010185558215612bcd579182015b82811115612bcd578251825591602001919060010190612bb2565b50612bd9929150612bdd565b5090565b5b80821115612bd95760008155600101612bde565b60e01c90565b600060443d1015612c085761136b565b600481823e6308c379a0612c1c8251612bf2565b14612c265761136b565b6040513d600319016004823e80513d67ffffffffffffffff8160248401118184111715612c56575050505061136b565b82840192508251915080821115612c70575050505061136b565b503d83016020828401011115612c885750505061136b565b601f01601f191681016020016040529150509056fe455243313135353a207472616e7366657220746f206e6f6e2045524331313535526563656976657220696d706c656d656e746572456e756d657261626c655365743a20696e646578206f7574206f6620626f756e6473455243313135353a204552433131353552656365697665722072656a656374656420746f6b656e73416363657373436f6e74726f6c3a2073656e646572206d75737420626520616e2061646d696e20746f206772616e74455243313135353a2062616c616e636520717565727920666f7220746865207a65726f2061646472657373455243313135353a206275726e20616d6f756e7420657863656564732062616c616e6365455243313135353a2063616c6c6572206973206e6f74206f776e6572206e6f7220617070726f766564416363657373436f6e74726f6c3a2073656e646572206d75737420626520616e2061646d696e20746f207265766f6b65455243313135353a207472616e7366657220746f20746865207a65726f2061646472657373455243313135353a207472616e736665722063616c6c6572206973206e6f74206f776e6572206e6f7220617070726f766564496e697469616c697a61626c653a20636f6e747261637420697320616c726561647920696e697469616c697a6564455243313135353a206275726e2066726f6d20746865207a65726f2061646472657373455243313135353a20696e73756666696369656e742062616c616e636520666f72207472616e7366657265d7a28e3265b37a6474929f336521b332c1681b933f6cb9f3376673440d862a9f2df0fed2c77648de5860a4cc508cd0818c85b8b8a1ab4ceeef8d981c8956a6455243313135353a2073657474696e6720617070726f76616c2073746174757320666f722073656c664d7573742068617665206d696e74657220726f6c6520746f206d696e74000000455243313135353a206163636f756e747320616e6420696473206c656e677468206d69736d61746368455243313135353a2069647320616e6420616d6f756e7473206c656e677468206d69736d61746368455243313135353a206d696e7420746f20746865207a65726f2061646472657373416363657373436f6e74726f6c3a2063616e206f6e6c792072656e6f756e636520726f6c657320666f722073656c66a26469706673582212206f5f1d9bbff7e4ec3fab268c706a06ee8fa1ad22184810235ff6d707c7e0b24b64736f6c63430007030033",
  "devdoc": {
    "kind": "dev",
    "methods": {
      "balanceOf(address,uint256)": {
        "details": "See {IERC1155-balanceOf}. Requirements: - `account` cannot be the zero address."
      },
      "balanceOfBatch(address[],uint256[])": {
        "details": "See {IERC1155-balanceOfBatch}. Requirements: - `accounts` and `ids` must have the same length."
      },
      "contractURI()": {
        "details": "contract metadata"
      },
      "decreaseGenerations(uint256,address,uint256,uint256)": {
        "details": "token is burned, and new token is minted to usertoken owner should have approvedForAll before calling this function"
      },
      "getCurrentLoanId()": {
        "details": "Format tokenId into generation and index"
      },
      "getRoleAdmin(bytes32)": {
        "details": "Returns the admin role that controls `role`. See {grantRole} and {revokeRole}. To change a role's admin, use {_setRoleAdmin}."
      },
      "getRoleMember(bytes32,uint256)": {
        "details": "Returns one of the accounts that have `role`. `index` must be a value between 0 and {getRoleMemberCount}, non-inclusive. Role bearers are not sorted in any particular way, and their ordering may change at any point. WARNING: When using {getRoleMember} and {getRoleMemberCount}, make sure you perform all queries on the same block. See the following https://forum.openzeppelin.com/t/iterating-over-elements-on-enumerableset-in-openzeppelin-contracts/2296[forum post] for more information."
      },
      "getRoleMemberCount(bytes32)": {
        "details": "Returns the number of accounts that have `role`. Can be used together with {getRoleMember} to enumerate all bearers of a role."
      },
      "grantRole(bytes32,address)": {
        "details": "Grants `role` to `account`. If `account` had not been already granted `role`, emits a {RoleGranted} event. Requirements: - the caller must have ``role``'s admin role."
      },
      "hasRole(bytes32,address)": {
        "details": "Returns `true` if `account` has been granted `role`."
      },
      "increaseGeneration(uint256,address,uint256)": {
        "details": "token is burned, and new token is minted to usertoken owner should have approvedForAll before calling this function"
      },
      "increaseGenerations(uint256,address,uint256,uint256)": {
        "details": "token is burned, and new token is minted to usertoken owner should have approvedForAll before calling this function"
      },
      "initialize(string,string)": {
        "details": "Initializes the contract"
      },
      "isApprovedForAll(address,address)": {
        "details": "See {IERC1155-isApprovedForAll}."
      },
      "mintGen0(address,uint256)": {
        "details": "Mint generation 0 tokens"
      },
      "mintOfGen(address,uint256,uint256)": {
        "details": "Mint tokens of a specific generation directly",
        "params": {
          "amount": "The amount of tokens to mint.",
          "generation": "The generation of the tokens. The id of the tokens will be composed of the loan id and this generation number.",
          "to": "The address to mint the tokens to."
        }
      },
      "pauseTokenTransfer(uint256)": {
        "details": "Owner can pause transfers for specific tokenspauses all loan ids, no matter the generation"
      },
      "renounceRole(bytes32,address)": {
        "details": "Revokes `role` from the calling account. Roles are often managed via {grantRole} and {revokeRole}: this function's purpose is to provide a mechanism for accounts to lose their privileges if they are compromised (such as when a trusted device is misplaced). If the calling account had been granted `role`, emits a {RoleRevoked} event. Requirements: - the caller must be `account`."
      },
      "revokeRole(bytes32,address)": {
        "details": "Revokes `role` from `account`. If `account` had been granted `role`, emits a {RoleRevoked} event. Requirements: - the caller must have ``role``'s admin role."
      },
      "safeBatchTransferFrom(address,address,uint256[],uint256[],bytes)": {
        "details": "See {IERC1155-safeBatchTransferFrom}."
      },
      "safeTransferFrom(address,address,uint256,uint256,bytes)": {
        "details": "See {IERC1155-safeTransferFrom}."
      },
      "setApprovalForAll(address,bool)": {
        "details": "See {IERC1155-setApprovalForAll}."
      },
      "supportsInterface(bytes4)": {
        "details": "See {IERC165-supportsInterface}. Time complexity O(1), guaranteed to always use less than 30 000 gas."
      },
      "unpauseTokenTransfer(uint256)": {
        "details": "Owner can unpause transfers for specific tokens"
      },
      "uri(uint256)": {
        "details": "See {IERC1155MetadataURI-uri}. This implementation returns the same URI for *all* token types. It relies on the token type ID substitution mechanism https://eips.ethereum.org/EIPS/eip-1155#metadata[defined in the EIP]. Clients calling this function must replace the `\\{id\\}` substring with the actual token type ID."
      }
    },
    "title": "Alliance Block Funding NFTs",
    "version": 1
  },
  "userdoc": {
    "kind": "user",
    "methods": {
      "decreaseGenerations(uint256,address,uint256,uint256)": {
        "notice": "decrease generations of a token"
      },
      "increaseGeneration(uint256,address,uint256)": {
        "notice": "increase generation of a token"
      },
      "increaseGenerations(uint256,address,uint256,uint256)": {
        "notice": "increase generations of a token"
      }
    },
    "notice": "NFTs that will be held by users",
    "version": 1
  },
  "storageLayout": {
    "storage": [
      {
        "astId": 890,
        "contract": "contracts/NFTs/FundingNFT.sol:FundingNFT",
        "label": "_initialized",
        "offset": 0,
        "slot": "0",
        "type": "t_bool"
      },
      {
        "astId": 893,
        "contract": "contracts/NFTs/FundingNFT.sol:FundingNFT",
        "label": "_initializing",
        "offset": 1,
        "slot": "0",
        "type": "t_bool"
      },
      {
        "astId": 3750,
        "contract": "contracts/NFTs/FundingNFT.sol:FundingNFT",
        "label": "__gap",
        "offset": 0,
        "slot": "1",
        "type": "t_array(t_uint256)50_storage"
      },
      {
        "astId": 46,
        "contract": "contracts/NFTs/FundingNFT.sol:FundingNFT",
        "label": "_roles",
        "offset": 0,
        "slot": "51",
        "type": "t_mapping(t_bytes32,t_struct(RoleData)42_storage)"
      },
      {
        "astId": 309,
        "contract": "contracts/NFTs/FundingNFT.sol:FundingNFT",
        "label": "__gap",
        "offset": 0,
        "slot": "52",
        "type": "t_array(t_uint256)49_storage"
      },
      {
        "astId": 458,
        "contract": "contracts/NFTs/FundingNFT.sol:FundingNFT",
        "label": "_supportedInterfaces",
        "offset": 0,
        "slot": "101",
        "type": "t_mapping(t_bytes4,t_bool)"
      },
      {
        "astId": 515,
        "contract": "contracts/NFTs/FundingNFT.sol:FundingNFT",
        "label": "__gap",
        "offset": 0,
        "slot": "102",
        "type": "t_array(t_uint256)49_storage"
      },
      {
        "astId": 1116,
        "contract": "contracts/NFTs/FundingNFT.sol:FundingNFT",
        "label": "_balances",
        "offset": 0,
        "slot": "151",
        "type": "t_mapping(t_uint256,t_mapping(t_address,t_uint256))"
      },
      {
        "astId": 1122,
        "contract": "contracts/NFTs/FundingNFT.sol:FundingNFT",
        "label": "_operatorApprovals",
        "offset": 0,
        "slot": "152",
        "type": "t_mapping(t_address,t_mapping(t_address,t_bool))"
      },
      {
        "astId": 1124,
        "contract": "contracts/NFTs/FundingNFT.sol:FundingNFT",
        "label": "_uri",
        "offset": 0,
        "slot": "153",
        "type": "t_string_storage"
      },
      {
        "astId": 2117,
        "contract": "contracts/NFTs/FundingNFT.sol:FundingNFT",
        "label": "__gap",
        "offset": 0,
        "slot": "154",
        "type": "t_array(t_uint256)47_storage"
      },
      {
        "astId": 8414,
        "contract": "contracts/NFTs/FundingNFT.sol:FundingNFT",
        "label": "_loanIdTracker",
        "offset": 0,
        "slot": "201",
        "type": "t_struct(Counter)6956_storage"
      },
      {
        "astId": 8416,
        "contract": "contracts/NFTs/FundingNFT.sol:FundingNFT",
        "label": "_contractURI",
        "offset": 0,
        "slot": "202",
        "type": "t_string_storage"
      },
      {
        "astId": 8418,
        "contract": "contracts/NFTs/FundingNFT.sol:FundingNFT",
        "label": "_baseURI",
        "offset": 0,
        "slot": "203",
        "type": "t_string_storage"
      },
      {
        "astId": 8422,
        "contract": "contracts/NFTs/FundingNFT.sol:FundingNFT",
        "label": "transfersPaused",
        "offset": 0,
        "slot": "204",
        "type": "t_mapping(t_uint256,t_bool)"
      },
      {
        "astId": 8426,
        "contract": "contracts/NFTs/FundingNFT.sol:FundingNFT",
        "label": "ipfsHashes",
        "offset": 0,
        "slot": "205",
        "type": "t_mapping(t_uint256,t_string_storage)"
      }
    ],
    "types": {
      "t_address": {
        "encoding": "inplace",
        "label": "address",
        "numberOfBytes": "20"
      },
      "t_array(t_bytes32)dyn_storage": {
        "base": "t_bytes32",
        "encoding": "dynamic_array",
        "label": "bytes32[]",
        "numberOfBytes": "32"
      },
      "t_array(t_uint256)47_storage": {
        "base": "t_uint256",
        "encoding": "inplace",
        "label": "uint256[47]",
        "numberOfBytes": "1504"
      },
      "t_array(t_uint256)49_storage": {
        "base": "t_uint256",
        "encoding": "inplace",
        "label": "uint256[49]",
        "numberOfBytes": "1568"
      },
      "t_array(t_uint256)50_storage": {
        "base": "t_uint256",
        "encoding": "inplace",
        "label": "uint256[50]",
        "numberOfBytes": "1600"
      },
      "t_bool": {
        "encoding": "inplace",
        "label": "bool",
        "numberOfBytes": "1"
      },
      "t_bytes32": {
        "encoding": "inplace",
        "label": "bytes32",
        "numberOfBytes": "32"
      },
      "t_bytes4": {
        "encoding": "inplace",
        "label": "bytes4",
        "numberOfBytes": "4"
      },
      "t_mapping(t_address,t_bool)": {
        "encoding": "mapping",
        "key": "t_address",
        "label": "mapping(address => bool)",
        "numberOfBytes": "32",
        "value": "t_bool"
      },
      "t_mapping(t_address,t_mapping(t_address,t_bool))": {
        "encoding": "mapping",
        "key": "t_address",
        "label": "mapping(address => mapping(address => bool))",
        "numberOfBytes": "32",
        "value": "t_mapping(t_address,t_bool)"
      },
      "t_mapping(t_address,t_uint256)": {
        "encoding": "mapping",
        "key": "t_address",
        "label": "mapping(address => uint256)",
        "numberOfBytes": "32",
        "value": "t_uint256"
      },
      "t_mapping(t_bytes32,t_struct(RoleData)42_storage)": {
        "encoding": "mapping",
        "key": "t_bytes32",
        "label": "mapping(bytes32 => struct AccessControlUpgradeable.RoleData)",
        "numberOfBytes": "32",
        "value": "t_struct(RoleData)42_storage"
      },
      "t_mapping(t_bytes32,t_uint256)": {
        "encoding": "mapping",
        "key": "t_bytes32",
        "label": "mapping(bytes32 => uint256)",
        "numberOfBytes": "32",
        "value": "t_uint256"
      },
      "t_mapping(t_bytes4,t_bool)": {
        "encoding": "mapping",
        "key": "t_bytes4",
        "label": "mapping(bytes4 => bool)",
        "numberOfBytes": "32",
        "value": "t_bool"
      },
      "t_mapping(t_uint256,t_bool)": {
        "encoding": "mapping",
        "key": "t_uint256",
        "label": "mapping(uint256 => bool)",
        "numberOfBytes": "32",
        "value": "t_bool"
      },
      "t_mapping(t_uint256,t_mapping(t_address,t_uint256))": {
        "encoding": "mapping",
        "key": "t_uint256",
        "label": "mapping(uint256 => mapping(address => uint256))",
        "numberOfBytes": "32",
        "value": "t_mapping(t_address,t_uint256)"
      },
      "t_mapping(t_uint256,t_string_storage)": {
        "encoding": "mapping",
        "key": "t_uint256",
        "label": "mapping(uint256 => string)",
        "numberOfBytes": "32",
        "value": "t_string_storage"
      },
      "t_string_storage": {
        "encoding": "bytes",
        "label": "string",
        "numberOfBytes": "32"
      },
      "t_struct(AddressSet)4587_storage": {
        "encoding": "inplace",
        "label": "struct EnumerableSetUpgradeable.AddressSet",
        "members": [
          {
            "astId": 4586,
            "contract": "contracts/NFTs/FundingNFT.sol:FundingNFT",
            "label": "_inner",
            "offset": 0,
            "slot": "0",
            "type": "t_struct(Set)4322_storage"
          }
        ],
        "numberOfBytes": "64"
      },
      "t_struct(Counter)6956_storage": {
        "encoding": "inplace",
        "label": "struct Counters.Counter",
        "members": [
          {
            "astId": 6955,
            "contract": "contracts/NFTs/FundingNFT.sol:FundingNFT",
            "label": "_value",
            "offset": 0,
            "slot": "0",
            "type": "t_uint256"
          }
        ],
        "numberOfBytes": "32"
      },
      "t_struct(RoleData)42_storage": {
        "encoding": "inplace",
        "label": "struct AccessControlUpgradeable.RoleData",
        "members": [
          {
            "astId": 39,
            "contract": "contracts/NFTs/FundingNFT.sol:FundingNFT",
            "label": "members",
            "offset": 0,
            "slot": "0",
            "type": "t_struct(AddressSet)4587_storage"
          },
          {
            "astId": 41,
            "contract": "contracts/NFTs/FundingNFT.sol:FundingNFT",
            "label": "adminRole",
            "offset": 0,
            "slot": "2",
            "type": "t_bytes32"
          }
        ],
        "numberOfBytes": "96"
      },
      "t_struct(Set)4322_storage": {
        "encoding": "inplace",
        "label": "struct EnumerableSetUpgradeable.Set",
        "members": [
          {
            "astId": 4317,
            "contract": "contracts/NFTs/FundingNFT.sol:FundingNFT",
            "label": "_values",
            "offset": 0,
            "slot": "0",
            "type": "t_array(t_bytes32)dyn_storage"
          },
          {
            "astId": 4321,
            "contract": "contracts/NFTs/FundingNFT.sol:FundingNFT",
            "label": "_indexes",
            "offset": 0,
            "slot": "1",
            "type": "t_mapping(t_bytes32,t_uint256)"
          }
        ],
        "numberOfBytes": "64"
      },
      "t_uint256": {
        "encoding": "inplace",
        "label": "uint256",
        "numberOfBytes": "32"
      }
    }
  }
}