{
  "address": "0x12528D686fF57c741DC3389f5bC1112a8cE31c74",
  "abi": [
    {
      "anonymous": false,
      "inputs": [
        {
          "indexed": true,
          "internalType": "address",
          "name": "account",
          "type": "address"
        },
        {
          "indexed": true,
          "internalType": "address",
          "name": "operator",
          "type": "address"
        },
        {
          "indexed": false,
          "internalType": "bool",
          "name": "approved",
          "type": "bool"
        }
      ],
      "name": "ApprovalForAll",
      "type": "event"
    },
    {
      "anonymous": false,
      "inputs": [
        {
          "indexed": true,
          "internalType": "uint256",
          "name": "loanId",
          "type": "uint256"
        },
        {
          "indexed": true,
          "internalType": "address",
          "name": "user",
          "type": "address"
        },
        {
          "indexed": false,
          "internalType": "uint256",
          "name": "newGeneration",
          "type": "uint256"
        }
      ],
      "name": "GenerationDecreased",
      "type": "event"
    },
    {
      "anonymous": false,
      "inputs": [
        {
          "indexed": true,
          "internalType": "uint256",
          "name": "loanId",
          "type": "uint256"
        },
        {
          "indexed": true,
          "internalType": "address",
          "name": "user",
          "type": "address"
        },
        {
          "indexed": false,
          "internalType": "uint256",
          "name": "newGeneration",
          "type": "uint256"
        }
      ],
      "name": "GenerationIncreased",
      "type": "event"
    },
    {
      "anonymous": false,
      "inputs": [
        {
          "indexed": true,
          "internalType": "bytes32",
          "name": "role",
          "type": "bytes32"
        },
        {
          "indexed": true,
          "internalType": "bytes32",
          "name": "previousAdminRole",
          "type": "bytes32"
        },
        {
          "indexed": true,
          "internalType": "bytes32",
          "name": "newAdminRole",
          "type": "bytes32"
        }
      ],
      "name": "RoleAdminChanged",
      "type": "event"
    },
    {
      "anonymous": false,
      "inputs": [
        {
          "indexed": true,
          "internalType": "bytes32",
          "name": "role",
          "type": "bytes32"
        },
        {
          "indexed": true,
          "internalType": "address",
          "name": "account",
          "type": "address"
        },
        {
          "indexed": true,
          "internalType": "address",
          "name": "sender",
          "type": "address"
        }
      ],
      "name": "RoleGranted",
      "type": "event"
    },
    {
      "anonymous": false,
      "inputs": [
        {
          "indexed": true,
          "internalType": "bytes32",
          "name": "role",
          "type": "bytes32"
        },
        {
          "indexed": true,
          "internalType": "address",
          "name": "account",
          "type": "address"
        },
        {
          "indexed": true,
          "internalType": "address",
          "name": "sender",
          "type": "address"
        }
      ],
      "name": "RoleRevoked",
      "type": "event"
    },
    {
      "anonymous": false,
      "inputs": [
        {
          "indexed": true,
          "internalType": "address",
          "name": "operator",
          "type": "address"
        },
        {
          "indexed": true,
          "internalType": "address",
          "name": "from",
          "type": "address"
        },
        {
          "indexed": true,
          "internalType": "address",
          "name": "to",
          "type": "address"
        },
        {
          "indexed": false,
          "internalType": "uint256[]",
          "name": "ids",
          "type": "uint256[]"
        },
        {
          "indexed": false,
          "internalType": "uint256[]",
          "name": "values",
          "type": "uint256[]"
        }
      ],
      "name": "TransferBatch",
      "type": "event"
    },
    {
      "anonymous": false,
      "inputs": [
        {
          "indexed": true,
          "internalType": "address",
          "name": "operator",
          "type": "address"
        },
        {
          "indexed": true,
          "internalType": "address",
          "name": "from",
          "type": "address"
        },
        {
          "indexed": true,
          "internalType": "address",
          "name": "to",
          "type": "address"
        },
        {
          "indexed": false,
          "internalType": "uint256",
          "name": "id",
          "type": "uint256"
        },
        {
          "indexed": false,
          "internalType": "uint256",
          "name": "value",
          "type": "uint256"
        }
      ],
      "name": "TransferSingle",
      "type": "event"
    },
    {
      "anonymous": false,
      "inputs": [
        {
          "indexed": false,
          "internalType": "uint256",
          "name": "loanId",
          "type": "uint256"
        }
      ],
      "name": "TransfersPaused",
      "type": "event"
    },
    {
      "anonymous": false,
      "inputs": [
        {
          "indexed": false,
          "internalType": "uint256",
          "name": "loanId",
          "type": "uint256"
        }
      ],
      "name": "TransfersResumed",
      "type": "event"
    },
    {
      "anonymous": false,
      "inputs": [
        {
          "indexed": false,
          "internalType": "string",
          "name": "value",
          "type": "string"
        },
        {
          "indexed": true,
          "internalType": "uint256",
          "name": "id",
          "type": "uint256"
        }
      ],
      "name": "URI",
      "type": "event"
    },
    {
      "inputs": [],
      "name": "DEFAULT_ADMIN_ROLE",
      "outputs": [
        {
          "internalType": "bytes32",
          "name": "",
          "type": "bytes32"
        }
      ],
      "stateMutability": "view",
      "type": "function"
    },
    {
      "inputs": [],
      "name": "MINTER_ROLE",
      "outputs": [
        {
          "internalType": "bytes32",
          "name": "",
          "type": "bytes32"
        }
      ],
      "stateMutability": "view",
      "type": "function"
    },
    {
      "inputs": [],
      "name": "PAUSER_ROLE",
      "outputs": [
        {
          "internalType": "bytes32",
          "name": "",
          "type": "bytes32"
        }
      ],
      "stateMutability": "view",
      "type": "function"
    },
    {
      "inputs": [
        {
          "internalType": "address",
          "name": "account",
          "type": "address"
        },
        {
          "internalType": "uint256",
          "name": "id",
          "type": "uint256"
        }
      ],
      "name": "balanceOf",
      "outputs": [
        {
          "internalType": "uint256",
          "name": "",
          "type": "uint256"
        }
      ],
      "stateMutability": "view",
      "type": "function"
    },
    {
      "inputs": [
        {
          "internalType": "address[]",
          "name": "accounts",
          "type": "address[]"
        },
        {
          "internalType": "uint256[]",
          "name": "ids",
          "type": "uint256[]"
        }
      ],
      "name": "balanceOfBatch",
      "outputs": [
        {
          "internalType": "uint256[]",
          "name": "",
          "type": "uint256[]"
        }
      ],
      "stateMutability": "view",
      "type": "function"
    },
    {
      "inputs": [
        {
          "internalType": "address",
          "name": "account",
          "type": "address"
        },
        {
          "internalType": "uint256",
          "name": "id",
          "type": "uint256"
        },
        {
          "internalType": "uint256",
          "name": "amount",
          "type": "uint256"
        }
      ],
      "name": "burn",
      "outputs": [],
      "stateMutability": "nonpayable",
      "type": "function"
    },
    {
      "inputs": [],
      "name": "contractURI",
      "outputs": [
        {
          "internalType": "string",
          "name": "",
          "type": "string"
        }
      ],
      "stateMutability": "view",
      "type": "function"
    },
    {
      "inputs": [
        {
          "internalType": "uint256",
          "name": "tokenId",
          "type": "uint256"
        },
        {
          "internalType": "address",
          "name": "user",
          "type": "address"
        },
        {
          "internalType": "uint256",
          "name": "amount",
          "type": "uint256"
        },
        {
          "internalType": "uint256",
          "name": "generationsToDecrease",
          "type": "uint256"
        }
      ],
      "name": "decreaseGenerations",
      "outputs": [],
      "stateMutability": "nonpayable",
      "type": "function"
    },
    {
      "inputs": [
        {
          "internalType": "bytes32",
          "name": "role",
          "type": "bytes32"
        }
      ],
      "name": "getRoleAdmin",
      "outputs": [
        {
          "internalType": "bytes32",
          "name": "",
          "type": "bytes32"
        }
      ],
      "stateMutability": "view",
      "type": "function"
    },
    {
      "inputs": [
        {
          "internalType": "bytes32",
          "name": "role",
          "type": "bytes32"
        },
        {
          "internalType": "uint256",
          "name": "index",
          "type": "uint256"
        }
      ],
      "name": "getRoleMember",
      "outputs": [
        {
          "internalType": "address",
          "name": "",
          "type": "address"
        }
      ],
      "stateMutability": "view",
      "type": "function"
    },
    {
      "inputs": [
        {
          "internalType": "bytes32",
          "name": "role",
          "type": "bytes32"
        }
      ],
      "name": "getRoleMemberCount",
      "outputs": [
        {
          "internalType": "uint256",
          "name": "",
          "type": "uint256"
        }
      ],
      "stateMutability": "view",
      "type": "function"
    },
    {
      "inputs": [
        {
          "internalType": "bytes32",
          "name": "role",
          "type": "bytes32"
        },
        {
          "internalType": "address",
          "name": "account",
          "type": "address"
        }
      ],
      "name": "grantRole",
      "outputs": [],
      "stateMutability": "nonpayable",
      "type": "function"
    },
    {
      "inputs": [
        {
          "internalType": "bytes32",
          "name": "role",
          "type": "bytes32"
        },
        {
          "internalType": "address",
          "name": "account",
          "type": "address"
        }
      ],
      "name": "hasRole",
      "outputs": [
        {
          "internalType": "bool",
          "name": "",
          "type": "bool"
        }
      ],
      "stateMutability": "view",
      "type": "function"
    },
    {
      "inputs": [
        {
          "internalType": "uint256",
          "name": "tokenId",
          "type": "uint256"
        },
        {
          "internalType": "address",
          "name": "user",
          "type": "address"
        },
        {
          "internalType": "uint256",
          "name": "amount",
          "type": "uint256"
        }
      ],
      "name": "increaseGeneration",
      "outputs": [],
      "stateMutability": "nonpayable",
      "type": "function"
    },
    {
      "inputs": [
        {
          "internalType": "uint256",
          "name": "tokenId",
          "type": "uint256"
        },
        {
          "internalType": "address",
          "name": "user",
          "type": "address"
        },
        {
          "internalType": "uint256",
          "name": "amount",
          "type": "uint256"
        },
        {
          "internalType": "uint256",
          "name": "generationsToAdd",
          "type": "uint256"
        }
      ],
      "name": "increaseGenerations",
      "outputs": [],
      "stateMutability": "nonpayable",
      "type": "function"
    },
    {
      "inputs": [
        {
          "internalType": "string",
          "name": "baseUri",
          "type": "string"
        },
        {
          "internalType": "string",
          "name": "contractUri",
          "type": "string"
        }
      ],
      "name": "initialize",
      "outputs": [],
      "stateMutability": "nonpayable",
      "type": "function"
    },
    {
      "inputs": [
        {
          "internalType": "uint256",
          "name": "",
          "type": "uint256"
        }
      ],
      "name": "ipfsHashes",
      "outputs": [
        {
          "internalType": "string",
          "name": "",
          "type": "string"
        }
      ],
      "stateMutability": "view",
      "type": "function"
    },
    {
      "inputs": [
        {
          "internalType": "address",
          "name": "account",
          "type": "address"
        },
        {
          "internalType": "address",
          "name": "operator",
          "type": "address"
        }
      ],
      "name": "isApprovedForAll",
      "outputs": [
        {
          "internalType": "bool",
          "name": "",
          "type": "bool"
        }
      ],
      "stateMutability": "view",
      "type": "function"
    },
    {
      "inputs": [
        {
          "internalType": "address",
          "name": "to",
          "type": "address"
        },
        {
          "internalType": "uint256",
          "name": "amount",
          "type": "uint256"
        },
        {
          "internalType": "uint256",
          "name": "loanId",
          "type": "uint256"
        }
      ],
      "name": "mintGen0",
      "outputs": [],
      "stateMutability": "nonpayable",
      "type": "function"
    },
    {
      "inputs": [
        {
          "internalType": "address",
          "name": "to",
          "type": "address"
        },
        {
          "internalType": "uint256",
          "name": "amount",
          "type": "uint256"
        },
        {
          "internalType": "uint256",
          "name": "generation",
          "type": "uint256"
        },
        {
          "internalType": "uint256",
          "name": "loanId",
          "type": "uint256"
        }
      ],
      "name": "mintOfGen",
      "outputs": [],
      "stateMutability": "nonpayable",
      "type": "function"
    },
    {
      "inputs": [
        {
          "internalType": "uint256",
          "name": "loanId",
          "type": "uint256"
        }
      ],
      "name": "pauseTokenTransfer",
      "outputs": [],
      "stateMutability": "nonpayable",
      "type": "function"
    },
    {
      "inputs": [
        {
          "internalType": "bytes32",
          "name": "role",
          "type": "bytes32"
        },
        {
          "internalType": "address",
          "name": "account",
          "type": "address"
        }
      ],
      "name": "renounceRole",
      "outputs": [],
      "stateMutability": "nonpayable",
      "type": "function"
    },
    {
      "inputs": [
        {
          "internalType": "bytes32",
          "name": "role",
          "type": "bytes32"
        },
        {
          "internalType": "address",
          "name": "account",
          "type": "address"
        }
      ],
      "name": "revokeRole",
      "outputs": [],
      "stateMutability": "nonpayable",
      "type": "function"
    },
    {
      "inputs": [
        {
          "internalType": "address",
          "name": "from",
          "type": "address"
        },
        {
          "internalType": "address",
          "name": "to",
          "type": "address"
        },
        {
          "internalType": "uint256[]",
          "name": "ids",
          "type": "uint256[]"
        },
        {
          "internalType": "uint256[]",
          "name": "amounts",
          "type": "uint256[]"
        },
        {
          "internalType": "bytes",
          "name": "data",
          "type": "bytes"
        }
      ],
      "name": "safeBatchTransferFrom",
      "outputs": [],
      "stateMutability": "nonpayable",
      "type": "function"
    },
    {
      "inputs": [
        {
          "internalType": "address",
          "name": "from",
          "type": "address"
        },
        {
          "internalType": "address",
          "name": "to",
          "type": "address"
        },
        {
          "internalType": "uint256",
          "name": "id",
          "type": "uint256"
        },
        {
          "internalType": "uint256",
          "name": "amount",
          "type": "uint256"
        },
        {
          "internalType": "bytes",
          "name": "data",
          "type": "bytes"
        }
      ],
      "name": "safeTransferFrom",
      "outputs": [],
      "stateMutability": "nonpayable",
      "type": "function"
    },
    {
      "inputs": [
        {
          "internalType": "address",
          "name": "operator",
          "type": "address"
        },
        {
          "internalType": "bool",
          "name": "approved",
          "type": "bool"
        }
      ],
      "name": "setApprovalForAll",
      "outputs": [],
      "stateMutability": "nonpayable",
      "type": "function"
    },
    {
      "inputs": [
        {
          "internalType": "bytes4",
          "name": "interfaceId",
          "type": "bytes4"
        }
      ],
      "name": "supportsInterface",
      "outputs": [
        {
          "internalType": "bool",
          "name": "",
          "type": "bool"
        }
      ],
      "stateMutability": "view",
      "type": "function"
    },
    {
      "inputs": [
        {
          "internalType": "uint256",
          "name": "",
          "type": "uint256"
        }
      ],
      "name": "transfersPaused",
      "outputs": [
        {
          "internalType": "bool",
          "name": "",
          "type": "bool"
        }
      ],
      "stateMutability": "view",
      "type": "function"
    },
    {
      "inputs": [
        {
          "internalType": "uint256",
          "name": "loanId",
          "type": "uint256"
        }
      ],
      "name": "unpauseTokenTransfer",
      "outputs": [],
      "stateMutability": "nonpayable",
      "type": "function"
    },
    {
      "inputs": [
        {
          "internalType": "uint256",
          "name": "",
          "type": "uint256"
        }
      ],
      "name": "uri",
      "outputs": [
        {
          "internalType": "string",
          "name": "",
          "type": "string"
        }
      ],
      "stateMutability": "view",
      "type": "function"
    }
  ],
  "transactionHash": "0x7407e5e5a270e8e4415fd48094cbc9ffd333d5650a89fcffd84221be846ff35e",
  "args": [],
  "solcInputHash": "054a37bc426e926869cd1c92d5e00692",
  "bytecode": "0x608060405234801561001057600080fd5b50612f6f806100206000396000f3fe608060405234801561001057600080fd5b50600436106101d95760003560e01c806397107c3311610104578063d515da22116100a2578063e8a3d48511610071578063e8a3d48514610a37578063e985e9c514610a3f578063f242432a14610a6d578063f5298aca14610b36576101d9565b8063d515da22146109c3578063d5391393146109fb578063d547741f14610a03578063e63ab1e914610a2f576101d9565b8063a22cb465116100de578063a22cb46514610923578063a4de2f5c14610951578063c5b4ece51461096e578063ca15c873146109a6576101d9565b806397107c33146108cc5780639a477b21146108e9578063a217fddf1461091b576101d9565b806333a6a3f21161017c5780634e79fdb71161014b5780634e79fdb7146107f7578063619110641461082f5780639010d07c1461086157806391d14854146108a0576101d9565b806333a6a3f21461051257806336568abe1461052f5780634cd88b761461055b5780634e1273f414610684576101d9565b806313e31081116101b857806313e31081146102e9578063248a9ca3146103085780632eb2c2d6146103255780632f2ff15d146104e6576101d9565b8062fdd58e146101de57806301ffc9a71461021c5780630e89341c14610257575b600080fd5b61020a600480360360408110156101f457600080fd5b506001600160a01b038135169060200135610b68565b60408051918252519081900360200190f35b6102436004803603602081101561023257600080fd5b50356001600160e01b031916610bda565b604080519115158252519081900360200190f35b6102746004803603602081101561026d57600080fd5b5035610bf9565b6040805160208082528351818301528351919283929083019185019080838360005b838110156102ae578181015183820152602001610296565b50505050905090810190601f1680156102db5780820380516001836020036101000a031916815260200191505b509250505060405180910390f35b610306600480360360208110156102ff57600080fd5b5035610c91565b005b61020a6004803603602081101561031e57600080fd5b5035610d3e565b610306600480360360a081101561033b57600080fd5b6001600160a01b038235811692602081013590911691810190606081016040820135600160201b81111561036e57600080fd5b82018360208201111561038057600080fd5b803590602001918460208302840111600160201b831117156103a157600080fd5b9190808060200260200160405190810160405280939291908181526020018383602002808284376000920191909152509295949360208101935035915050600160201b8111156103f057600080fd5b82018360208201111561040257600080fd5b803590602001918460208302840111600160201b8311171561042357600080fd5b9190808060200260200160405190810160405280939291908181526020018383602002808284376000920191909152509295949360208101935035915050600160201b81111561047257600080fd5b82018360208201111561048457600080fd5b803590602001918460018302840111600160201b831117156104a557600080fd5b91908080601f016020809104026020016040519081016040528093929190818152602001838380828437600092019190915250929550610d53945050505050565b610306600480360360408110156104fc57600080fd5b50803590602001356001600160a01b0316611056565b6102436004803603602081101561052857600080fd5b50356110bd565b6103066004803603604081101561054557600080fd5b50803590602001356001600160a01b03166110d2565b6103066004803603604081101561057157600080fd5b810190602081018135600160201b81111561058b57600080fd5b82018360208201111561059d57600080fd5b803590602001918460018302840111600160201b831117156105be57600080fd5b91908080601f0160208091040260200160405190810160405280939291908181526020018383808284376000920191909152509295949360208101935035915050600160201b81111561061057600080fd5b82018360208201111561062257600080fd5b803590602001918460018302840111600160201b8311171561064357600080fd5b91908080601f016020809104026020016040519081016040528093929190818152602001838380828437600092019190915250929550611133945050505050565b6107a76004803603604081101561069a57600080fd5b810190602081018135600160201b8111156106b457600080fd5b8201836020820111156106c657600080fd5b803590602001918460208302840111600160201b831117156106e757600080fd5b9190808060200260200160405190810160405280939291908181526020018383602002808284376000920191909152509295949360208101935035915050600160201b81111561073657600080fd5b82018360208201111561074857600080fd5b803590602001918460208302840111600160201b8311171561076957600080fd5b9190808060200260200160405190810160405280939291908181526020018383602002808284376000920191909152509295506112a5945050505050565b60408051602080825283518183015283519192839290830191858101910280838360005b838110156107e35781810151838201526020016107cb565b505050509050019250505060405180910390f35b6103066004803603608081101561080d57600080fd5b506001600160a01b038135169060208101359060408101359060600135611391565b6103066004803603606081101561084557600080fd5b508035906001600160a01b03602082013516906040013561140e565b6108846004803603604081101561087757600080fd5b5080359060200135611468565b604080516001600160a01b039092168252519081900360200190f35b610243600480360360408110156108b657600080fd5b50803590602001356001600160a01b0316611487565b610306600480360360208110156108e257600080fd5b503561149f565b610306600480360360608110156108ff57600080fd5b506001600160a01b038135169060208101359060400135611544565b61020a6115ac565b6103066004803603604081101561093957600080fd5b506001600160a01b03813516906020013515156115b1565b6102746004803603602081101561096757600080fd5b50356116a0565b6103066004803603608081101561098457600080fd5b508035906001600160a01b03602082013516906040810135906060013561173b565b61020a600480360360208110156109bc57600080fd5b503561179a565b610306600480360360808110156109d957600080fd5b508035906001600160a01b0360208201351690604081013590606001356117b1565b61020a61180a565b61030660048036036040811015610a1957600080fd5b50803590602001356001600160a01b0316611810565b61020a611869565b61027461186f565b61024360048036036040811015610a5557600080fd5b506001600160a01b0381358116916020013516611906565b610306600480360360a0811015610a8357600080fd5b6001600160a01b03823581169260208101359091169160408201359160608101359181019060a081016080820135600160201b811115610ac257600080fd5b820183602082011115610ad457600080fd5b803590602001918460018302840111600160201b83111715610af557600080fd5b91908080601f016020809104026020016040519081016040528093929190818152602001838380828437600092019190915250929550611934945050505050565b61030660048036036060811015610b4c57600080fd5b506001600160a01b038135169060208101359060400135611aff565b60006001600160a01b038316610baf5760405162461bcd60e51b815260040180806020018281038252602b815260200180612cd6602b913960400191505060405180910390fd5b5060008181526097602090815260408083206001600160a01b03861684529091529020545b92915050565b6001600160e01b03191660009081526065602052604090205460ff1690565b60998054604080516020601f6002600019610100600188161502019095169490940493840181900481028201810190925282815260609390929091830182828015610c855780601f10610c5a57610100808354040283529160200191610c85565b820191906000526020600020905b815481529060010190602001808311610c6857829003601f168201915b50505050509050919050565b610ca460ce54610c9f611b57565b611487565b610ced576040805162461bcd60e51b81526020600482015260156024820152744d75737420686176652070617573657220726f6c6560581b604482015290519081900360640190fd5b600081815260cb6020908152604091829020805460ff19166001179055815183815291517fb9a8cb63f7d8d0d4ea64621922affb0ab58fe7770365b3c2a00282a0a59166fc9281900390910190a150565b60009081526033602052604090206002015490565b8151835114610d935760405162461bcd60e51b8152600401808060200182810382526028815260200180612ec26028913960400191505060405180910390fd5b6001600160a01b038416610dd85760405162461bcd60e51b8152600401808060200182810382526025815260200180612d7e6025913960400191505060405180910390fd5b610de0611b57565b6001600160a01b0316856001600160a01b03161480610e0b5750610e0b85610e06611b57565b611906565b610e465760405162461bcd60e51b8152600401808060200182810382526032815260200180612da36032913960400191505060405180910390fd5b6000610e50611b57565b9050610e60818787878787611b5b565b60005b8451811015610f66576000858281518110610e7a57fe5b602002602001015190506000858381518110610e9257fe5b60200260200101519050610eff816040518060600160405280602a8152602001612e26602a91396097600086815260200190815260200160002060008d6001600160a01b03166001600160a01b0316815260200190815260200160002054611bf39092919063ffffffff16565b60008381526097602090815260408083206001600160a01b038e811685529252808320939093558a1681522054610f369082611c8a565b60009283526097602090815260408085206001600160a01b038c1686529091529092209190915550600101610e63565b50846001600160a01b0316866001600160a01b0316826001600160a01b03167f4a39dc06d4c0dbc64b70af90fd698a233a518aa5d07e595d983b8c0526c8f7fb8787604051808060200180602001838103835285818151815260200191508051906020019060200280838360005b83811015610fec578181015183820152602001610fd4565b50505050905001838103825284818151815260200191508051906020019060200280838360005b8381101561102b578181015183820152602001611013565b5050505090500194505050505060405180910390a461104e818787878787611ce4565b505050505050565b60008281526033602052604090206002015461107490610c9f611b57565b6110af5760405162461bcd60e51b815260040180806020018281038252602f815260200180612ca7602f913960400191505060405180910390fd5b6110b98282611f5a565b5050565b60cb6020526000908152604090205460ff1681565b6110da611b57565b6001600160a01b0316816001600160a01b0316146111295760405162461bcd60e51b815260040180806020018281038252602f815260200180612f0b602f913960400191505060405180910390fd5b6110b98282611fc3565b600054610100900460ff168061114c575061114c61202c565b8061115a575060005460ff16155b6111955760405162461bcd60e51b815260040180806020018281038252602e815260200180612dd5602e913960400191505060405180910390fd5b600054610100900460ff161580156111c0576000805460ff1961ff0019909116610100171660011790555b7f9f2df0fed2c77648de5860a4cc508cd0818c85b8b8a1ab4ceeef8d981c8956a660cd557f65d7a28e3265b37a6474929f336521b332c1681b933f6cb9f3376673440d862a60ce556040805160208101909152600081526112209061203d565b611238604051806020016040528060008152506120f8565b825161124b9060ca906020860190612aea565b50815161125f9060c9906020850190612aea565b50611272600061126d611b57565b6110af565b61128060cd5461126d611b57565b61128e60ce5461126d611b57565b80156112a0576000805461ff00191690555b505050565b606081518351146112e75760405162461bcd60e51b8152600401808060200182810382526029815260200180612e996029913960400191505060405180910390fd5b6060835167ffffffffffffffff8111801561130157600080fd5b5060405190808252806020026020018201604052801561132b578160200160208202803683370190505b50905060005b84518110156113895761136a85828151811061134957fe5b602002602001015185838151811061135d57fe5b6020026020010151610b68565b82828151811061137657fe5b6020908102919091010152600101611331565b509392505050565b61139f60cd54610c9f611b57565b6113de576040805162461bcd60e51b815260206004820152601d6024820152600080516020612e79833981519152604482015290519081900360640190fd5b60006113ea83836121ae565b9050611407858286604051806020016040528060008152506121b8565b5050505050565b61141c60cd54610c9f611b57565b61145b576040805162461bcd60e51b815260206004820152601d6024820152600080516020612e79833981519152604482015290519081900360640190fd5b6112a083838360016122b9565b60008281526033602052604081206114809083612349565b9392505050565b60008281526033602052604081206114809083612355565b6114ad60ce54610c9f611b57565b6114f6576040805162461bcd60e51b81526020600482015260156024820152744d75737420686176652070617573657220726f6c6560581b604482015290519081900360640190fd5b600081815260cb6020908152604091829020805460ff19169055815183815291517f8040b2e6f91e95e13b2531639c55f35efb506b792124b7cf22e29aa311bd1dea9281900390910190a150565b61155260cd54610c9f611b57565b611591576040805162461bcd60e51b815260206004820152601d6024820152600080516020612e79833981519152604482015290519081900360640190fd5b6112a0838284604051806020016040528060008152506121b8565b600081565b816001600160a01b03166115c3611b57565b6001600160a01b031614156116095760405162461bcd60e51b8152600401808060200182810382526029815260200180612e506029913960400191505060405180910390fd5b8060986000611616611b57565b6001600160a01b03908116825260208083019390935260409182016000908120918716808252919093529120805460ff19169215159290921790915561165a611b57565b6001600160a01b03167f17307eab39ab6107e8899845ad3d59bd9653f200f220920489ca2b5937696c318360405180821515815260200191505060405180910390a35050565b60cc6020908152600091825260409182902080548351601f6002600019610100600186161502019093169290920491820184900484028101840190945280845290918301828280156117335780601f1061170857610100808354040283529160200191611733565b820191906000526020600020905b81548152906001019060200180831161171657829003601f168201915b505050505081565b61174960cd54610c9f611b57565b611788576040805162461bcd60e51b815260206004820152601d6024820152600080516020612e79833981519152604482015290519081900360640190fd5b6117948484848461236a565b50505050565b6000818152603360205260408120610bd490612444565b6117bf60cd54610c9f611b57565b6117fe576040805162461bcd60e51b815260206004820152601d6024820152600080516020612e79833981519152604482015290519081900360640190fd5b611794848484846122b9565b60cd5481565b60008281526033602052604090206002015461182e90610c9f611b57565b6111295760405162461bcd60e51b8152600401808060200182810382526030815260200180612d4e6030913960400191505060405180910390fd5b60ce5481565b60c98054604080516020601f60026000196101006001881615020190951694909404938401819004810282018101909252828152606093909290918301828280156118fb5780601f106118d0576101008083540402835291602001916118fb565b820191906000526020600020905b8154815290600101906020018083116118de57829003601f168201915b505050505090505b90565b6001600160a01b03918216600090815260986020908152604080832093909416825291909152205460ff1690565b6001600160a01b0384166119795760405162461bcd60e51b8152600401808060200182810382526025815260200180612d7e6025913960400191505060405180910390fd5b611981611b57565b6001600160a01b0316856001600160a01b031614806119a757506119a785610e06611b57565b6119e25760405162461bcd60e51b8152600401808060200182810382526029815260200180612d256029913960400191505060405180910390fd5b60006119ec611b57565b9050611a0c8187876119fd8861244f565b611a068861244f565b87611b5b565b611a53836040518060600160405280602a8152602001612e26602a913960008781526097602090815260408083206001600160a01b038d1684529091529020549190611bf3565b60008581526097602090815260408083206001600160a01b038b81168552925280832093909355871681522054611a8a9084611c8a565b60008581526097602090815260408083206001600160a01b03808b168086529184529382902094909455805188815291820187905280518a8416938616927fc3d58168c5ae7397731d063d5bbf3d657854427343f4c083240f7aacaa2d0f6292908290030190a461104e818787878787612493565b611b0d60cd54610c9f611b57565b611b4c576040805162461bcd60e51b815260206004820152601d6024820152600080516020612e79833981519152604482015290519081900360640190fd5b6112a0838383612604565b3390565b60005b8351811015611bea576000611b85858381518110611b7857fe5b6020026020010151612737565b600081815260cb602052604090205490925060ff16159050611be1576040805162461bcd60e51b815260206004820152601060248201526f151c985b9cd9995c9cc81c185d5cd95960821b604482015290519081900360640190fd5b50600101611b5e565b50505050505050565b60008184841115611c825760405162461bcd60e51b81526004018080602001828103825283818151815260200191508051906020019080838360005b83811015611c47578181015183820152602001611c2f565b50505050905090810190601f168015611c745780820380516001836020036101000a031916815260200191505b509250505060405180910390fd5b505050900390565b600082820183811015611480576040805162461bcd60e51b815260206004820152601b60248201527f536166654d6174683a206164646974696f6e206f766572666c6f770000000000604482015290519081900360640190fd5b611cf6846001600160a01b0316612754565b1561104e57836001600160a01b031663bc197c8187878686866040518663ffffffff1660e01b815260040180866001600160a01b03168152602001856001600160a01b03168152602001806020018060200180602001848103845287818151815260200191508051906020019060200280838360005b83811015611d84578181015183820152602001611d6c565b50505050905001848103835286818151815260200191508051906020019060200280838360005b83811015611dc3578181015183820152602001611dab565b50505050905001848103825285818151815260200191508051906020019080838360005b83811015611dff578181015183820152602001611de7565b50505050905090810190601f168015611e2c5780820380516001836020036101000a031916815260200191505b5098505050505050505050602060405180830381600087803b158015611e5157600080fd5b505af1925050508015611e7657506040513d6020811015611e7157600080fd5b505160015b611f0b57611e82612b83565b80611e8d5750611ed4565b60405162461bcd60e51b8152602060048201818152835160248401528351849391928392604401919085019080838360008315611c47578181015183820152602001611c2f565b60405162461bcd60e51b8152600401808060200182810382526034815260200180612c296034913960400191505060405180910390fd5b6001600160e01b0319811663bc197c8160e01b14611bea5760405162461bcd60e51b8152600401808060200182810382526028815260200180612c7f6028913960400191505060405180910390fd5b6000828152603360205260409020611f72908261275a565b156110b957611f7f611b57565b6001600160a01b0316816001600160a01b0316837f2f8788117e7eff1d82e926ec794901d17c78024a50270940304540a733656f0d60405160405180910390a45050565b6000828152603360205260409020611fdb908261276f565b156110b957611fe8611b57565b6001600160a01b0316816001600160a01b0316837ff6391f5c32d9c69d2a47ea670b442974b53935d1edc7fd64eb21e047a839171b60405160405180910390a45050565b600061203730612754565b15905090565b600054610100900460ff1680612056575061205661202c565b80612064575060005460ff16155b61209f5760405162461bcd60e51b815260040180806020018281038252602e815260200180612dd5602e913960400191505060405180910390fd5b600054610100900460ff161580156120ca576000805460ff1961ff0019909116610100171660011790555b6120d2612784565b6120da612826565b6120e3826120f8565b80156110b9576000805461ff00191690555050565b600054610100900460ff1680612111575061211161202c565b8061211f575060005460ff16155b61215a5760405162461bcd60e51b815260040180806020018281038252602e815260200180612dd5602e913960400191505060405180910390fd5b600054610100900460ff16158015612185576000805460ff1961ff0019909116610100171660011790555b61218e826128c3565b61219e636cdb3d1360e11b6128d6565b6120e36303a24d0760e21b6128d6565b60809190911b1790565b6001600160a01b0384166121fd5760405162461bcd60e51b8152600401808060200182810382526021815260200180612eea6021913960400191505060405180910390fd5b6000612207611b57565b9050612219816000876119fd8861244f565b60008481526097602090815260408083206001600160a01b03891684529091529020546122469084611c8a565b60008581526097602090815260408083206001600160a01b03808b16808652918452828520959095558151898152928301889052815190948616927fc3d58168c5ae7397731d063d5bbf3d657854427343f4c083240f7aacaa2d0f6292908290030190a461140781600087878787612493565b6000806122c586612737565b9084019250905060006122d883836121ae565b90506122e5868887611aff565b612300868287604051806020016040528060008152506121b8565b6040805184815290516001600160a01b0388169184917fa48bd214a19e2a419dd64c3bd181a9fca654e16d6d9d072890daf7c5586f069f9181900360200190a350505050505050565b6000611480838361295a565b6000611480836001600160a01b0384166129be565b60008061237686612737565b91509150828210156123c2576040805162461bcd60e51b815260206004820152601060248201526f125b9d985b1a59081d1bdad95b88125160821b604482015290519081900360640190fd5b908290039060006123d383836121ae565b90506123e0868887611aff565b6123fb868287604051806020016040528060008152506121b8565b6040805184815290516001600160a01b0388169184917f745cb8623f9a236db89c707d71fbb712efe9e9dd5e8eb2f03026ea3b15a3ef809181900360200190a350505050505050565b6000610bd4826129d6565b60408051600180825281830190925260609182919060208083019080368337019050509050828160008151811061248257fe5b602090810291909101015292915050565b6124a5846001600160a01b0316612754565b1561104e57836001600160a01b031663f23a6e6187878686866040518663ffffffff1660e01b815260040180866001600160a01b03168152602001856001600160a01b0316815260200184815260200183815260200180602001828103825283818151815260200191508051906020019080838360005b8381101561253457818101518382015260200161251c565b50505050905090810190601f1680156125615780820380516001836020036101000a031916815260200191505b509650505050505050602060405180830381600087803b15801561258457600080fd5b505af19250505080156125a957506040513d60208110156125a457600080fd5b505160015b6125b557611e82612b83565b6001600160e01b0319811663f23a6e6160e01b14611bea5760405162461bcd60e51b8152600401808060200182810382526028815260200180612c7f6028913960400191505060405180910390fd5b6001600160a01b0383166126495760405162461bcd60e51b8152600401808060200182810382526023815260200180612e036023913960400191505060405180910390fd5b6000612653611b57565b9050612683818560006126658761244f565b61266e8761244f565b60405180602001604052806000815250611b5b565b6126ca82604051806060016040528060248152602001612d016024913960008681526097602090815260408083206001600160a01b038b1684529091529020549190611bf3565b60008481526097602090815260408083206001600160a01b03808a16808652918452828520959095558151888152928301879052815193949093908616927fc3d58168c5ae7397731d063d5bbf3d657854427343f4c083240f7aacaa2d0f6292908290030190a450505050565b608081901c916fffffffffffffffffffffffffffffffff90911690565b3b151590565b6000611480836001600160a01b0384166129da565b6000611480836001600160a01b038416612a24565b600054610100900460ff168061279d575061279d61202c565b806127ab575060005460ff16155b6127e65760405162461bcd60e51b815260040180806020018281038252602e815260200180612dd5602e913960400191505060405180910390fd5b600054610100900460ff16158015612811576000805460ff1961ff0019909116610100171660011790555b8015612823576000805461ff00191690555b50565b600054610100900460ff168061283f575061283f61202c565b8061284d575060005460ff16155b6128885760405162461bcd60e51b815260040180806020018281038252602e815260200180612dd5602e913960400191505060405180910390fd5b600054610100900460ff161580156128b3576000805460ff1961ff0019909116610100171660011790555b6128116301ffc9a760e01b6128d6565b80516110b9906099906020840190612aea565b6001600160e01b03198082161415612935576040805162461bcd60e51b815260206004820152601c60248201527f4552433136353a20696e76616c696420696e7465726661636520696400000000604482015290519081900360640190fd5b6001600160e01b0319166000908152606560205260409020805460ff19166001179055565b8154600090821061299c5760405162461bcd60e51b8152600401808060200182810382526022815260200180612c5d6022913960400191505060405180910390fd5b8260000182815481106129ab57fe5b9060005260206000200154905092915050565b60009081526001919091016020526040902054151590565b5490565b60006129e683836129be565b612a1c57508154600181810184556000848152602080822090930184905584548482528286019093526040902091909155610bd4565b506000610bd4565b60008181526001830160205260408120548015612ae05783546000198083019190810190600090879083908110612a5757fe5b9060005260206000200154905080876000018481548110612a7457fe5b600091825260208083209091019290925582815260018981019092526040902090840190558654879080612aa457fe5b60019003818190600052602060002001600090559055866001016000878152602001908152602001600020600090556001945050505050610bd4565b6000915050610bd4565b828054600181600116156101000203166002900490600052602060002090601f016020900481019282601f10612b2b57805160ff1916838001178555612b58565b82800160010185558215612b58579182015b82811115612b58578251825591602001919060010190612b3d565b50612b64929150612b68565b5090565b5b80821115612b645760008155600101612b69565b60e01c90565b600060443d1015612b9357611903565b600481823e6308c379a0612ba78251612b7d565b14612bb157611903565b6040513d600319016004823e80513d67ffffffffffffffff8160248401118184111715612be15750505050611903565b82840192508251915080821115612bfb5750505050611903565b503d83016020828401011115612c1357505050611903565b601f01601f191681016020016040529150509056fe455243313135353a207472616e7366657220746f206e6f6e2045524331313535526563656976657220696d706c656d656e746572456e756d657261626c655365743a20696e646578206f7574206f6620626f756e6473455243313135353a204552433131353552656365697665722072656a656374656420746f6b656e73416363657373436f6e74726f6c3a2073656e646572206d75737420626520616e2061646d696e20746f206772616e74455243313135353a2062616c616e636520717565727920666f7220746865207a65726f2061646472657373455243313135353a206275726e20616d6f756e7420657863656564732062616c616e6365455243313135353a2063616c6c6572206973206e6f74206f776e6572206e6f7220617070726f766564416363657373436f6e74726f6c3a2073656e646572206d75737420626520616e2061646d696e20746f207265766f6b65455243313135353a207472616e7366657220746f20746865207a65726f2061646472657373455243313135353a207472616e736665722063616c6c6572206973206e6f74206f776e6572206e6f7220617070726f766564496e697469616c697a61626c653a20636f6e747261637420697320616c726561647920696e697469616c697a6564455243313135353a206275726e2066726f6d20746865207a65726f2061646472657373455243313135353a20696e73756666696369656e742062616c616e636520666f72207472616e73666572455243313135353a2073657474696e6720617070726f76616c2073746174757320666f722073656c664d7573742068617665206d696e74657220726f6c6520746f206d696e74000000455243313135353a206163636f756e747320616e6420696473206c656e677468206d69736d61746368455243313135353a2069647320616e6420616d6f756e7473206c656e677468206d69736d61746368455243313135353a206d696e7420746f20746865207a65726f2061646472657373416363657373436f6e74726f6c3a2063616e206f6e6c792072656e6f756e636520726f6c657320666f722073656c66a26469706673582212201e600899b09505e63e13458a0f9f66123de7066766adc540745bc5c927cfd17264736f6c63430007030033",
  "devdoc": {
    "kind": "dev",
    "methods": {
      "balanceOf(address,uint256)": {
        "details": "See {IERC1155-balanceOf}. Requirements: - `account` cannot be the zero address."
      },
      "balanceOfBatch(address[],uint256[])": {
        "details": "See {IERC1155-balanceOfBatch}. Requirements: - `accounts` and `ids` must have the same length."
      },
      "contractURI()": {
        "details": "contract metadata"
      },
      "decreaseGenerations(uint256,address,uint256,uint256)": {
        "details": "token is burned, and new token is minted to usertoken owner should have approvedForAll before calling this function"
      },
      "getRoleAdmin(bytes32)": {
        "details": "Returns the admin role that controls `role`. See {grantRole} and {revokeRole}. To change a role's admin, use {_setRoleAdmin}."
      },
      "getRoleMember(bytes32,uint256)": {
        "details": "Returns one of the accounts that have `role`. `index` must be a value between 0 and {getRoleMemberCount}, non-inclusive. Role bearers are not sorted in any particular way, and their ordering may change at any point. WARNING: When using {getRoleMember} and {getRoleMemberCount}, make sure you perform all queries on the same block. See the following https://forum.openzeppelin.com/t/iterating-over-elements-on-enumerableset-in-openzeppelin-contracts/2296[forum post] for more information."
      },
      "getRoleMemberCount(bytes32)": {
        "details": "Returns the number of accounts that have `role`. Can be used together with {getRoleMember} to enumerate all bearers of a role."
      },
      "grantRole(bytes32,address)": {
        "details": "Grants `role` to `account`. If `account` had not been already granted `role`, emits a {RoleGranted} event. Requirements: - the caller must have ``role``'s admin role."
      },
      "hasRole(bytes32,address)": {
        "details": "Returns `true` if `account` has been granted `role`."
      },
      "increaseGeneration(uint256,address,uint256)": {
        "details": "token is burned, and new token is minted to usertoken owner should have approvedForAll before calling this function"
      },
      "increaseGenerations(uint256,address,uint256,uint256)": {
        "details": "token is burned, and new token is minted to usertoken owner should have approvedForAll before calling this function"
      },
      "initialize(string,string)": {
        "details": "Initializes the contract"
      },
      "isApprovedForAll(address,address)": {
        "details": "See {IERC1155-isApprovedForAll}."
      },
      "mintGen0(address,uint256,uint256)": {
        "details": "Mint generation 0 tokens"
      },
      "mintOfGen(address,uint256,uint256,uint256)": {
        "details": "Mint tokens of a specific generation directly",
        "params": {
          "amount": "The amount of tokens to mint.",
          "generation": "The generation of the tokens. The id of the tokens will be composed of the loan id and this generation number.",
          "investmentId": "The loan identifier",
          "to": "The address to mint the tokens to."
        }
      },
      "pauseTokenTransfer(uint256)": {
        "details": "Owner can pause transfers for specific tokenspauses all loan ids, no matter the generation"
      },
      "renounceRole(bytes32,address)": {
        "details": "Revokes `role` from the calling account. Roles are often managed via {grantRole} and {revokeRole}: this function's purpose is to provide a mechanism for accounts to lose their privileges if they are compromised (such as when a trusted device is misplaced). If the calling account had been granted `role`, emits a {RoleRevoked} event. Requirements: - the caller must be `account`."
      },
      "revokeRole(bytes32,address)": {
        "details": "Revokes `role` from `account`. If `account` had been granted `role`, emits a {RoleRevoked} event. Requirements: - the caller must have ``role``'s admin role."
      },
      "safeBatchTransferFrom(address,address,uint256[],uint256[],bytes)": {
        "details": "See {IERC1155-safeBatchTransferFrom}."
      },
      "safeTransferFrom(address,address,uint256,uint256,bytes)": {
        "details": "See {IERC1155-safeTransferFrom}."
      },
      "setApprovalForAll(address,bool)": {
        "details": "See {IERC1155-setApprovalForAll}."
      },
      "supportsInterface(bytes4)": {
        "details": "See {IERC165-supportsInterface}. Time complexity O(1), guaranteed to always use less than 30 000 gas."
      },
      "unpauseTokenTransfer(uint256)": {
        "details": "Owner can unpause transfers for specific tokens"
      },
      "uri(uint256)": {
        "details": "See {IERC1155MetadataURI-uri}. This implementation returns the same URI for *all* token types. It relies on the token type ID substitution mechanism https://eips.ethereum.org/EIPS/eip-1155#metadata[defined in the EIP]. Clients calling this function must replace the `\\{id\\}` substring with the actual token type ID."
      }
    },
    "title": "Alliance Block Funding NFTs",
    "version": 1
  },
  "userdoc": {
    "kind": "user",
    "methods": {
      "decreaseGenerations(uint256,address,uint256,uint256)": {
        "notice": "decrease generations of a token"
      },
      "increaseGeneration(uint256,address,uint256)": {
        "notice": "increase generation of a token"
      },
      "increaseGenerations(uint256,address,uint256,uint256)": {
        "notice": "increase generations of a token"
      }
    },
    "notice": "NFTs that will be held by users",
    "version": 1
  },
  "storageLayout": {
    "storage": [
      {
        "astId": 890,
        "contract": "contracts/NFTs/FundingNFT.sol:FundingNFT",
        "label": "_initialized",
        "offset": 0,
        "slot": "0",
        "type": "t_bool"
      },
      {
        "astId": 893,
        "contract": "contracts/NFTs/FundingNFT.sol:FundingNFT",
        "label": "_initializing",
        "offset": 1,
        "slot": "0",
        "type": "t_bool"
      },
      {
        "astId": 3750,
        "contract": "contracts/NFTs/FundingNFT.sol:FundingNFT",
        "label": "__gap",
        "offset": 0,
        "slot": "1",
        "type": "t_array(t_uint256)50_storage"
      },
      {
        "astId": 46,
        "contract": "contracts/NFTs/FundingNFT.sol:FundingNFT",
        "label": "_roles",
        "offset": 0,
        "slot": "51",
        "type": "t_mapping(t_bytes32,t_struct(RoleData)42_storage)"
      },
      {
        "astId": 309,
        "contract": "contracts/NFTs/FundingNFT.sol:FundingNFT",
        "label": "__gap",
        "offset": 0,
        "slot": "52",
        "type": "t_array(t_uint256)49_storage"
      },
      {
        "astId": 458,
        "contract": "contracts/NFTs/FundingNFT.sol:FundingNFT",
        "label": "_supportedInterfaces",
        "offset": 0,
        "slot": "101",
        "type": "t_mapping(t_bytes4,t_bool)"
      },
      {
        "astId": 515,
        "contract": "contracts/NFTs/FundingNFT.sol:FundingNFT",
        "label": "__gap",
        "offset": 0,
        "slot": "102",
        "type": "t_array(t_uint256)49_storage"
      },
      {
        "astId": 1116,
        "contract": "contracts/NFTs/FundingNFT.sol:FundingNFT",
        "label": "_balances",
        "offset": 0,
        "slot": "151",
        "type": "t_mapping(t_uint256,t_mapping(t_address,t_uint256))"
      },
      {
        "astId": 1122,
        "contract": "contracts/NFTs/FundingNFT.sol:FundingNFT",
        "label": "_operatorApprovals",
        "offset": 0,
        "slot": "152",
        "type": "t_mapping(t_address,t_mapping(t_address,t_bool))"
      },
      {
        "astId": 1124,
        "contract": "contracts/NFTs/FundingNFT.sol:FundingNFT",
        "label": "_uri",
        "offset": 0,
        "slot": "153",
        "type": "t_string_storage"
      },
      {
        "astId": 2117,
        "contract": "contracts/NFTs/FundingNFT.sol:FundingNFT",
        "label": "__gap",
        "offset": 0,
        "slot": "154",
        "type": "t_array(t_uint256)47_storage"
      },
      {
        "astId": 8236,
        "contract": "contracts/NFTs/FundingNFT.sol:FundingNFT",
        "label": "_contractURI",
        "offset": 0,
        "slot": "201",
        "type": "t_string_storage"
      },
      {
        "astId": 8238,
        "contract": "contracts/NFTs/FundingNFT.sol:FundingNFT",
        "label": "_baseURI",
        "offset": 0,
        "slot": "202",
        "type": "t_string_storage"
      },
      {
        "astId": 8242,
        "contract": "contracts/NFTs/FundingNFT.sol:FundingNFT",
        "label": "transfersPaused",
        "offset": 0,
        "slot": "203",
        "type": "t_mapping(t_uint256,t_bool)"
      },
      {
        "astId": 8246,
        "contract": "contracts/NFTs/FundingNFT.sol:FundingNFT",
        "label": "ipfsHashes",
        "offset": 0,
        "slot": "204",
        "type": "t_mapping(t_uint256,t_string_storage)"
      },
      {
        "astId": 8248,
        "contract": "contracts/NFTs/FundingNFT.sol:FundingNFT",
        "label": "MINTER_ROLE",
        "offset": 0,
        "slot": "205",
        "type": "t_bytes32"
      },
      {
        "astId": 8250,
        "contract": "contracts/NFTs/FundingNFT.sol:FundingNFT",
        "label": "PAUSER_ROLE",
        "offset": 0,
        "slot": "206",
        "type": "t_bytes32"
      }
    ],
    "types": {
      "t_address": {
        "encoding": "inplace",
        "label": "address",
        "numberOfBytes": "20"
      },
      "t_array(t_bytes32)dyn_storage": {
        "base": "t_bytes32",
        "encoding": "dynamic_array",
        "label": "bytes32[]",
        "numberOfBytes": "32"
      },
      "t_array(t_uint256)47_storage": {
        "base": "t_uint256",
        "encoding": "inplace",
        "label": "uint256[47]",
        "numberOfBytes": "1504"
      },
      "t_array(t_uint256)49_storage": {
        "base": "t_uint256",
        "encoding": "inplace",
        "label": "uint256[49]",
        "numberOfBytes": "1568"
      },
      "t_array(t_uint256)50_storage": {
        "base": "t_uint256",
        "encoding": "inplace",
        "label": "uint256[50]",
        "numberOfBytes": "1600"
      },
      "t_bool": {
        "encoding": "inplace",
        "label": "bool",
        "numberOfBytes": "1"
      },
      "t_bytes32": {
        "encoding": "inplace",
        "label": "bytes32",
        "numberOfBytes": "32"
      },
      "t_bytes4": {
        "encoding": "inplace",
        "label": "bytes4",
        "numberOfBytes": "4"
      },
      "t_mapping(t_address,t_bool)": {
        "encoding": "mapping",
        "key": "t_address",
        "label": "mapping(address => bool)",
        "numberOfBytes": "32",
        "value": "t_bool"
      },
      "t_mapping(t_address,t_mapping(t_address,t_bool))": {
        "encoding": "mapping",
        "key": "t_address",
        "label": "mapping(address => mapping(address => bool))",
        "numberOfBytes": "32",
        "value": "t_mapping(t_address,t_bool)"
      },
      "t_mapping(t_address,t_uint256)": {
        "encoding": "mapping",
        "key": "t_address",
        "label": "mapping(address => uint256)",
        "numberOfBytes": "32",
        "value": "t_uint256"
      },
      "t_mapping(t_bytes32,t_struct(RoleData)42_storage)": {
        "encoding": "mapping",
        "key": "t_bytes32",
        "label": "mapping(bytes32 => struct AccessControlUpgradeable.RoleData)",
        "numberOfBytes": "32",
        "value": "t_struct(RoleData)42_storage"
      },
      "t_mapping(t_bytes32,t_uint256)": {
        "encoding": "mapping",
        "key": "t_bytes32",
        "label": "mapping(bytes32 => uint256)",
        "numberOfBytes": "32",
        "value": "t_uint256"
      },
      "t_mapping(t_bytes4,t_bool)": {
        "encoding": "mapping",
        "key": "t_bytes4",
        "label": "mapping(bytes4 => bool)",
        "numberOfBytes": "32",
        "value": "t_bool"
      },
      "t_mapping(t_uint256,t_bool)": {
        "encoding": "mapping",
        "key": "t_uint256",
        "label": "mapping(uint256 => bool)",
        "numberOfBytes": "32",
        "value": "t_bool"
      },
      "t_mapping(t_uint256,t_mapping(t_address,t_uint256))": {
        "encoding": "mapping",
        "key": "t_uint256",
        "label": "mapping(uint256 => mapping(address => uint256))",
        "numberOfBytes": "32",
        "value": "t_mapping(t_address,t_uint256)"
      },
      "t_mapping(t_uint256,t_string_storage)": {
        "encoding": "mapping",
        "key": "t_uint256",
        "label": "mapping(uint256 => string)",
        "numberOfBytes": "32",
        "value": "t_string_storage"
      },
      "t_string_storage": {
        "encoding": "bytes",
        "label": "string",
        "numberOfBytes": "32"
      },
      "t_struct(AddressSet)4587_storage": {
        "encoding": "inplace",
        "label": "struct EnumerableSetUpgradeable.AddressSet",
        "members": [
          {
            "astId": 4586,
            "contract": "contracts/NFTs/FundingNFT.sol:FundingNFT",
            "label": "_inner",
            "offset": 0,
            "slot": "0",
            "type": "t_struct(Set)4322_storage"
          }
        ],
        "numberOfBytes": "64"
      },
      "t_struct(RoleData)42_storage": {
        "encoding": "inplace",
        "label": "struct AccessControlUpgradeable.RoleData",
        "members": [
          {
            "astId": 39,
            "contract": "contracts/NFTs/FundingNFT.sol:FundingNFT",
            "label": "members",
            "offset": 0,
            "slot": "0",
            "type": "t_struct(AddressSet)4587_storage"
          },
          {
            "astId": 41,
            "contract": "contracts/NFTs/FundingNFT.sol:FundingNFT",
            "label": "adminRole",
            "offset": 0,
            "slot": "2",
            "type": "t_bytes32"
          }
        ],
        "numberOfBytes": "96"
      },
      "t_struct(Set)4322_storage": {
        "encoding": "inplace",
        "label": "struct EnumerableSetUpgradeable.Set",
        "members": [
          {
            "astId": 4317,
            "contract": "contracts/NFTs/FundingNFT.sol:FundingNFT",
            "label": "_values",
            "offset": 0,
            "slot": "0",
            "type": "t_array(t_bytes32)dyn_storage"
          },
          {
            "astId": 4321,
            "contract": "contracts/NFTs/FundingNFT.sol:FundingNFT",
            "label": "_indexes",
            "offset": 0,
            "slot": "1",
            "type": "t_mapping(t_bytes32,t_uint256)"
          }
        ],
        "numberOfBytes": "64"
      },
      "t_uint256": {
        "encoding": "inplace",
        "label": "uint256",
        "numberOfBytes": "32"
      }
    }
  }
}