{
  "address": "0x013Ba8a5f647158ff36D1E18f5e9C35B04e6Ed6E",
  "abi": [
    {
      "anonymous": false,
      "inputs": [
        {
          "indexed": true,
          "internalType": "uint256",
          "name": "investmentId",
          "type": "uint256"
        },
        {
          "indexed": true,
          "internalType": "address",
          "name": "user",
          "type": "address"
        }
      ],
      "name": "ApprovalRequested",
      "type": "event"
    },
    {
      "anonymous": false,
      "inputs": [
        {
          "indexed": true,
          "internalType": "address",
          "name": "registryAddress_",
          "type": "address"
        },
        {
          "indexed": true,
          "internalType": "address",
          "name": "user",
          "type": "address"
        }
      ],
      "name": "InitGovernance",
      "type": "event"
    },
    {
      "anonymous": false,
      "inputs": [
        {
          "indexed": true,
          "internalType": "address",
          "name": "previousOwner",
          "type": "address"
        },
        {
          "indexed": true,
          "internalType": "address",
          "name": "newOwner",
          "type": "address"
        }
      ],
      "name": "OwnershipTransferred",
      "type": "event"
    },
    {
      "anonymous": false,
      "inputs": [
        {
          "indexed": true,
          "internalType": "uint256",
          "name": "investmentId",
          "type": "uint256"
        },
        {
          "indexed": true,
          "internalType": "uint256",
          "name": "requestId",
          "type": "uint256"
        },
        {
          "indexed": false,
          "internalType": "bool",
          "name": "decision",
          "type": "bool"
        },
        {
          "indexed": true,
          "internalType": "address",
          "name": "user",
          "type": "address"
        }
      ],
      "name": "VotedForRequest",
      "type": "event"
    },
    {
      "inputs": [
        {
          "internalType": "uint256",
          "name": "",
          "type": "uint256"
        }
      ],
      "name": "approvalRequests",
      "outputs": [
        {
          "internalType": "uint256",
          "name": "investmentId",
          "type": "uint256"
        },
        {
          "internalType": "uint256",
          "name": "approvalsProvided",
          "type": "uint256"
        },
        {
          "internalType": "bool",
          "name": "isApproved",
          "type": "bool"
        }
      ],
      "stateMutability": "view",
      "type": "function"
    },
    {
      "inputs": [],
      "name": "checkCronjobs",
      "outputs": [
        {
          "internalType": "bool",
          "name": "",
          "type": "bool"
        }
      ],
      "stateMutability": "nonpayable",
      "type": "function"
    },
    {
      "inputs": [],
      "name": "cronjobList",
      "outputs": [
        {
          "internalType": "uint256",
          "name": "head",
          "type": "uint256"
        },
        {
          "internalType": "uint256",
          "name": "tail",
          "type": "uint256"
        },
        {
          "internalType": "uint256",
          "name": "size",
          "type": "uint256"
        }
      ],
      "stateMutability": "view",
      "type": "function"
    },
    {
      "inputs": [
        {
          "internalType": "uint256",
          "name": "",
          "type": "uint256"
        }
      ],
      "name": "cronjobs",
      "outputs": [
        {
          "internalType": "enum GovernanceTypesAndStorage.CronjobType",
          "name": "cronjobType",
          "type": "uint8"
        },
        {
          "internalType": "uint256",
          "name": "externalId",
          "type": "uint256"
        }
      ],
      "stateMutability": "view",
      "type": "function"
    },
    {
      "inputs": [
        {
          "internalType": "address",
          "name": "superDelegator_",
          "type": "address"
        },
        {
          "internalType": "uint256",
          "name": "applicationsForInvestmentDuration_",
          "type": "uint256"
        },
        {
          "internalType": "uint256",
          "name": "lateApplicationsForInvestmentDuration_",
          "type": "uint256"
        }
      ],
      "name": "initialize",
      "outputs": [],
      "stateMutability": "nonpayable",
      "type": "function"
    },
    {
      "inputs": [],
      "name": "owner",
      "outputs": [
        {
          "internalType": "address",
          "name": "",
          "type": "address"
        }
      ],
      "stateMutability": "view",
      "type": "function"
    },
    {
      "inputs": [],
      "name": "registry",
      "outputs": [
        {
          "internalType": "contract IRegistry",
          "name": "",
          "type": "address"
        }
      ],
      "stateMutability": "view",
      "type": "function"
    },
    {
      "inputs": [],
      "name": "renounceOwnership",
      "outputs": [],
      "stateMutability": "nonpayable",
      "type": "function"
    },
    {
      "inputs": [
        {
          "internalType": "uint256",
          "name": "investmentId",
          "type": "uint256"
        }
      ],
      "name": "requestApproval",
      "outputs": [],
      "stateMutability": "nonpayable",
      "type": "function"
    },
    {
      "inputs": [
        {
          "internalType": "address",
          "name": "registryAddress_",
          "type": "address"
        }
      ],
      "name": "setRegistry",
      "outputs": [],
      "stateMutability": "nonpayable",
      "type": "function"
    },
    {
      "inputs": [
        {
          "internalType": "uint256",
          "name": "investmentId",
          "type": "uint256"
        }
      ],
      "name": "storeInvestmentTriggering",
      "outputs": [],
      "stateMutability": "nonpayable",
      "type": "function"
    },
    {
      "inputs": [],
      "name": "superDelegator",
      "outputs": [
        {
          "internalType": "address",
          "name": "",
          "type": "address"
        }
      ],
      "stateMutability": "view",
      "type": "function"
    },
    {
      "inputs": [
        {
          "internalType": "uint256",
          "name": "requestId",
          "type": "uint256"
        },
        {
          "internalType": "bool",
          "name": "decision",
          "type": "bool"
        }
      ],
      "name": "superVoteForRequest",
      "outputs": [],
      "stateMutability": "nonpayable",
      "type": "function"
    },
    {
      "inputs": [],
      "name": "totalApprovalRequests",
      "outputs": [
        {
          "internalType": "uint256",
          "name": "",
          "type": "uint256"
        }
      ],
      "stateMutability": "view",
      "type": "function"
    },
    {
      "inputs": [],
      "name": "totalCronjobs",
      "outputs": [
        {
          "internalType": "uint256",
          "name": "",
          "type": "uint256"
        }
      ],
      "stateMutability": "view",
      "type": "function"
    },
    {
      "inputs": [],
      "name": "totalIds",
      "outputs": [
        {
          "internalType": "uint256",
          "name": "",
          "type": "uint256"
        }
      ],
      "stateMutability": "view",
      "type": "function"
    },
    {
      "inputs": [
        {
          "internalType": "address",
          "name": "newOwner",
          "type": "address"
        }
      ],
      "name": "transferOwnership",
      "outputs": [],
      "stateMutability": "nonpayable",
      "type": "function"
    },
    {
      "inputs": [
        {
          "internalType": "bytes32",
          "name": "",
          "type": "bytes32"
        }
      ],
      "name": "updatableVariables",
      "outputs": [
        {
          "internalType": "uint256",
          "name": "",
          "type": "uint256"
        }
      ],
      "stateMutability": "view",
      "type": "function"
    }
  ],
  "transactionHash": "0x5af63f4105aff2e011e33d3faaccbdb84866db0a099de7554df582d0340420d7",
  "args": [],
  "solcInputHash": "63d67ace6a058016357a612de751f207",
  "bytecode": "0x608060405234801561001057600080fd5b5061146b806100206000396000f3fe608060405234801561001057600080fd5b50600436106101165760003560e01c80637b103999116100a25780638da5cb5b116100715780638da5cb5b146102a7578063a91ee0dc146102af578063bae196cf146102d5578063e7104911146102fb578063f2fde38b1461031857610116565b80637b103999146102195780637baf48fe1461023d5780638cb13c2e146102455780638cb75a241461028257610116565b80633e0c10a7116100e95780633e0c10a71461019b57806366eaedb5146101ba5780636d148f84146101c2578063715018a6146101df5780637a1ac61e146101e757610116565b806311ca2ea61461011b57806335e245b814610135578063390a5ba5146101515780633c96cd2a14610159575b600080fd5b61012361033e565b60408051918252519081900360200190f35b61013d610344565b604080519115158252519081900360200190f35b610123610394565b6101766004803603602081101561016f57600080fd5b503561039a565b6040518083801561018357fe5b81526020018281526020019250505060405180910390f35b6101b8600480360360208110156101b157600080fd5b50356103b9565b005b610123610485565b6101b8600480360360208110156101d857600080fd5b503561048b565b6101b8610546565b6101b8600480360360608110156101fd57600080fd5b506001600160a01b038135169060208101359060400135610604565b610221610774565b604080516001600160a01b039092168252519081900360200190f35b610221610783565b6102626004803603602081101561025b57600080fd5b5035610792565b604080519384526020840192909252151582820152519081900360600190f35b6101b86004803603604081101561029857600080fd5b508035906020013515156107b6565b610221610965565b6101b8600480360360208110156102c557600080fd5b50356001600160a01b0316610974565b6102dd610a93565b60408051938452602084019290925282820152519081900360600190f35b6101236004803603602081101561031157600080fd5b5035610a9f565b6101b86004803603602081101561032e57600080fd5b50356001600160a01b0316610ab1565b606f5481565b600080610351606b610bc6565b905080158061035f57508042105b1561036e576000915050610391565b60008061037b606b610be0565b915091506103898282610c43565b505060019150505b90565b60695481565b6070602052600090815260409020805460019091015460ff9091169082565b6068546001600160a01b03163314610411576040805162461bcd60e51b815260206004820152601660248201527513db9b1e48149959da5cdd1c9e4818dbdb9d1c9858dd60521b604482015290519081900360640190fd5b6000610473606a60006040516020018080602001828103825260218152602001806113ea602191396040019150506040516020818303038152906040528051906020012081526020019081526020016000205442610c5f90919063ffffffff16565b905061048160008284610cc0565b5050565b60655481565b6068546001600160a01b031633146104e3576040805162461bcd60e51b815260206004820152601660248201527513db9b1e48149959da5cdd1c9e4818dbdb9d1c9858dd60521b604482015290519081900360640190fd5b6104eb610344565b5060658054600090815260676020526040808220849055915481528181205491513392917f84b8b39cd51b9b546002c46c70fab2c1b727ccd4b78d23cb126abbb965a8e79691a3606554610540906001610c5f565b60655550565b61054e610d3d565b6001600160a01b031661055f610965565b6001600160a01b0316146105ba576040805162461bcd60e51b815260206004820181905260248201527f4f776e61626c653a2063616c6c6572206973206e6f7420746865206f776e6572604482015290519081900360640190fd5b6033546040516000916001600160a01b0316907f8be0079c531659141344cd1fd0a4f28419497f9722a3daafe3b4186f6b6457e0908390a3603380546001600160a01b0319169055565b600054610100900460ff168061061d575061061d610d41565b8061062b575060005460ff16155b6106665760405162461bcd60e51b815260040180806020018281038252602e8152602001806113bc602e913960400191505060405180910390fd5b600054610100900460ff16158015610691576000805460ff1961ff0019909116610100171660011790555b610699610d52565b606680546001600160a01b0319166001600160a01b03861617905560408051602080820190815260219282018390528592606a92600092918291606001906113ea82396040019150506040516020818303038152906040528051906020012081526020019081526020016000208190555081606a60006040516020018080602001828103825260258152602001806113736025913960400191505060405160208183030381529060405280519060200120815260200190815260200160002081905550801561076e576000805461ff00191690555b50505050565b6068546001600160a01b031681565b6066546001600160a01b031681565b60676020526000908152604090208054600182015460029092015490919060ff1683565b6107be610344565b506066546001600160a01b031633146108085760405162461bcd60e51b815260040180806020018281038252602b81526020018061140b602b913960400191505060405180910390fd5b600082815260676020526040902060010154156108565760405162461bcd60e51b81526004018080602001828103825260248152602001806113986024913960400191505060405180910390fd5b6068546000838152606760205260408082205481516364322c3560e01b81526004810191909152841515602482015290516001600160a01b03909316926364322c359260448084019391929182900301818387803b1580156108b757600080fd5b505af11580156108cb573d6000803e3d6000fd5b5050505080156109185760008281526067602052604090206001908101546108f291610c5f565b6000838152606760205260409020600180820192909255600201805460ff191690911790555b60008281526067602090815260409182902054825184151581529251339386937f70af203def241488bb271f95f3ab62d4f5ec84d1cbd928f47deea5592b61df5892918290030190a45050565b6033546001600160a01b031690565b61097c610d3d565b6001600160a01b031661098d610965565b6001600160a01b0316146109e8576040805162461bcd60e51b815260206004820181905260248201527f4f776e61626c653a2063616c6c6572206973206e6f7420746865206f776e6572604482015290519081900360640190fd5b6068546001600160a01b031615610a46576040805162461bcd60e51b815260206004820152601d60248201527f43616e6e6f7420696e697469616c697a65207365636f6e642074696d65000000604482015290519081900360640190fd5b606880546001600160a01b0319166001600160a01b0383169081179091556040513391907f5d7de64baf1837e34973be7e43cff68daf9f4e539527a9f722cae7b3f48ca8b190600090a350565b606b54606c54606d5483565b606a6020526000908152604090205481565b610ab9610d3d565b6001600160a01b0316610aca610965565b6001600160a01b031614610b25576040805162461bcd60e51b815260206004820181905260248201527f4f776e61626c653a2063616c6c6572206973206e6f7420746865206f776e6572604482015290519081900360640190fd5b6001600160a01b038116610b6a5760405162461bcd60e51b815260040180806020018281038252602681526020018061134d6026913960400191505060405180910390fd5b6033546040516001600160a01b038084169216907f8be0079c531659141344cd1fd0a4f28419497f9722a3daafe3b4186f6b6457e090600090a3603380546001600160a01b0319166001600160a01b0392909216919091179055565b805460009081526003909101602052604090206002015490565b8054600081815260038301602052604090206002908101549083015460011415610c135760008084556001840155610c33565b825460009081526003840160205260408082205480865582528120600101555b6002909201805460001901905591565b6000828152607060205260409020600101546104819082610e04565b600082820183811015610cb9576040805162461bcd60e51b815260206004820152601b60248201527f536166654d6174683a206164646974696f6e206f766572666c6f770000000000604482015290519081900360640190fd5b9392505050565b606f54610cce906001610c5f565b606f556040805180820190915280848015610ce557fe5b81526020908101839052606f54600090815260709091526040902081518154829060ff19166001838015610d1557fe5b021790555060209190910151600190910155606f54610d3890606b908490610f5b565b505050565b3390565b6000610d4c306111ad565b15905090565b600054610100900460ff1680610d6b5750610d6b610d41565b80610d79575060005460ff16155b610db45760405162461bcd60e51b815260040180806020018281038252602e8152602001806113bc602e913960400191505060405180910390fd5b600054610100900460ff16158015610ddf576000805460ff1961ff0019909116610100171660011790555b610de76111b3565b610def611253565b8015610e01576000805461ff00191690555b50565b60685460408051633cf3333b60e11b81526004810185905290516001600160a01b03909216916379e6667691602480820192602092909190829003018186803b158015610e5057600080fd5b505afa158015610e64573d6000803e3d6000fd5b505050506040513d6020811015610e7a57600080fd5b505115610eeb57606854604080516338f40f5b60e01b81526004810185905290516001600160a01b03909216916338f40f5b9160248082019260009290919082900301818387803b158015610ece57600080fd5b505af1158015610ee2573d6000803e3d6000fd5b50505050610481565b6000610f4d606a6000604051602001808060200182810382526025815260200180611373602591396040019150506040516020818303038152906040528051906020012081526020019081526020016000205483610c5f90919063ffffffff16565b9050610d3860008285610cc0565b82546000818152600385016020908152604091829020825160608101845281548152600182015492810192909252600201549181019190915290610fe8578184556001808501839055604080516060810182526000808252602080830182815283850189815288845260038b0190925293909120915182559151928101929092555160029091015561119e565b80604001518310156110505783546000908152600385016020818152604080842060019081018790558151606081018352895481528084018681528184018a81528988529590945291909420905181559051928101929092555160029091015581845561119e565b60018460020154111561112c5760015b846002015481101561112a579051600090815260038501602090815260409182902082516060810184528154815260018201549281019290925260020154918101829052919084101561112257815160009081526003860160208181526040808420600190810154875186528286208201899055825160608101845281815281875285855283872080548287019081528286018d81528c8a5297909652938720905181559351918401919091559251600290920191909155915283905561112a565b600101611060565b505b6000828152600385016020526040902060020154831461119e576040805160608101825260008082526001808801805460208086019182528587018a815289865260038c0190915286852095518655905192850192909255905160029093019290925581548152919091208390558290555b50505060020180546001019055565b3b151590565b600054610100900460ff16806111cc57506111cc610d41565b806111da575060005460ff16155b6112155760405162461bcd60e51b815260040180806020018281038252602e8152602001806113bc602e913960400191505060405180910390fd5b600054610100900460ff16158015610def576000805460ff1961ff0019909116610100171660011790558015610e01576000805461ff001916905550565b600054610100900460ff168061126c575061126c610d41565b8061127a575060005460ff16155b6112b55760405162461bcd60e51b815260040180806020018281038252602e8152602001806113bc602e913960400191505060405180910390fd5b600054610100900460ff161580156112e0576000805460ff1961ff0019909116610100171660011790555b60006112ea610d3d565b603380546001600160a01b0319166001600160a01b038316908117909155604051919250906000907f8be0079c531659141344cd1fd0a4f28419497f9722a3daafe3b4186f6b6457e0908290a3508015610e01576000805461ff00191690555056fe4f776e61626c653a206e6577206f776e657220697320746865207a65726f20616464726573736c6174654170706c69636174696f6e73466f72496e766573746d656e744475726174696f6e43616e6e6f7420617070726f766520616761696e2073616d6520696e766573746d656e74496e697469616c697a61626c653a20636f6e747261637420697320616c726561647920696e697469616c697a65646170706c69636174696f6e73466f72496e766573746d656e744475726174696f6e4f6e6c792073757065722064656c656761746f722063616e2063616c6c20746869732066756e6374696f6ea2646970667358221220bd6b5648ca685f2cbe4756d8e2dae39461a3b3315f63951cfb1bee145286b2b464736f6c63430007060033",
  "devdoc": {
    "details": "Extends Initializable, SuperGovernance",
    "kind": "dev",
    "methods": {
      "checkCronjobs()": {
        "details": "Calls executeCronjob() at the most 1 cronJob per tx"
      },
      "initialize(address,uint256,uint256)": {
        "params": {
          "applicationsForInvestmentDuration_": "duration for applications for investment",
          "lateApplicationsForInvestmentDuration_": "duration forlate applications for investment",
          "superDelegator_": "The address of the admin in charge during the first epoch"
        }
      },
      "owner()": {
        "details": "Returns the address of the current owner."
      },
      "renounceOwnership()": {
        "details": "Leaves the contract without owner. It will not be possible to call `onlyOwner` functions anymore. Can only be called by the current owner. NOTE: Renouncing ownership will leave the contract without an owner, thereby removing any functionality that is only available to the owner."
      },
      "requestApproval(uint256)": {
        "details": "Executes cronJob()",
        "params": {
          "investmentId": "The id of the investment or investment to approve"
        }
      },
      "setRegistry(address)": {
        "details": "used to initialize SuperGovernancerequires not already initialized",
        "params": {
          "registryAddress_": "the Registry address"
        }
      },
      "storeInvestmentTriggering(uint256)": {
        "details": "Adds cronJob",
        "params": {
          "investmentId": "The id of the investment to store"
        }
      },
      "superVoteForRequest(uint256,bool)": {
        "details": "Executes cronJobrequires msg.sender to be Super Delegatorrequires current epoch to be 0 or 1",
        "params": {
          "decision": "the decision (Approve / Deny)",
          "requestId": "the Request ID"
        }
      },
      "transferOwnership(address)": {
        "details": "Transfers ownership of the contract to a new account (`newOwner`). Can only be called by the current owner."
      }
    },
    "title": "AllianceBlock Governance contract",
    "version": 1
  },
  "userdoc": {
    "kind": "user",
    "methods": {
      "checkCronjobs()": {
        "notice": "Checks if needs to execute a DAO cronJob"
      },
      "initialize(address,uint256,uint256)": {
        "notice": "Initialize the contract."
      },
      "requestApproval(uint256)": {
        "notice": "Request a investment or investment approval"
      },
      "setRegistry(address)": {
        "notice": "Sets Registry contract"
      },
      "storeInvestmentTriggering(uint256)": {
        "notice": "Stores Investment Duration"
      },
      "superVoteForRequest(uint256,bool)": {
        "notice": "Votes for Request"
      }
    },
    "notice": "Responsible for governing AllianceBlock's ecosystem",
    "version": 1
  },
  "storageLayout": {
    "storage": [
      {
        "astId": 890,
        "contract": "contracts/Governance.sol:Governance",
        "label": "_initialized",
        "offset": 0,
        "slot": "0",
        "type": "t_bool"
      },
      {
        "astId": 893,
        "contract": "contracts/Governance.sol:Governance",
        "label": "_initializing",
        "offset": 1,
        "slot": "0",
        "type": "t_bool"
      },
      {
        "astId": 2584,
        "contract": "contracts/Governance.sol:Governance",
        "label": "__gap",
        "offset": 0,
        "slot": "1",
        "type": "t_array(t_uint256)50_storage"
      },
      {
        "astId": 321,
        "contract": "contracts/Governance.sol:Governance",
        "label": "_owner",
        "offset": 0,
        "slot": "51",
        "type": "t_address"
      },
      {
        "astId": 440,
        "contract": "contracts/Governance.sol:Governance",
        "label": "__gap",
        "offset": 0,
        "slot": "52",
        "type": "t_array(t_uint256)49_storage"
      },
      {
        "astId": 8121,
        "contract": "contracts/Governance.sol:Governance",
        "label": "totalApprovalRequests",
        "offset": 0,
        "slot": "101",
        "type": "t_uint256"
      },
      {
        "astId": 8123,
        "contract": "contracts/Governance.sol:Governance",
        "label": "superDelegator",
        "offset": 0,
        "slot": "102",
        "type": "t_address"
      },
      {
        "astId": 8127,
        "contract": "contracts/Governance.sol:Governance",
        "label": "approvalRequests",
        "offset": 0,
        "slot": "103",
        "type": "t_mapping(t_uint256,t_struct(ApprovalRequest)8097_storage)"
      },
      {
        "astId": 8129,
        "contract": "contracts/Governance.sol:Governance",
        "label": "registry",
        "offset": 0,
        "slot": "104",
        "type": "t_contract(IRegistry)8478"
      },
      {
        "astId": 8131,
        "contract": "contracts/Governance.sol:Governance",
        "label": "totalIds",
        "offset": 0,
        "slot": "105",
        "type": "t_uint256"
      },
      {
        "astId": 8135,
        "contract": "contracts/Governance.sol:Governance",
        "label": "updatableVariables",
        "offset": 0,
        "slot": "106",
        "type": "t_mapping(t_bytes32,t_uint256)"
      },
      {
        "astId": 8144,
        "contract": "contracts/Governance.sol:Governance",
        "label": "cronjobList",
        "offset": 0,
        "slot": "107",
        "type": "t_struct(LinkedList)9175_storage"
      },
      {
        "astId": 8146,
        "contract": "contracts/Governance.sol:Governance",
        "label": "totalCronjobs",
        "offset": 0,
        "slot": "111",
        "type": "t_uint256"
      },
      {
        "astId": 8150,
        "contract": "contracts/Governance.sol:Governance",
        "label": "cronjobs",
        "offset": 0,
        "slot": "112",
        "type": "t_mapping(t_uint256,t_struct(Cronjob)8142_storage)"
      }
    ],
    "types": {
      "t_address": {
        "encoding": "inplace",
        "label": "address",
        "numberOfBytes": "20"
      },
      "t_array(t_uint256)49_storage": {
        "base": "t_uint256",
        "encoding": "inplace",
        "label": "uint256[49]",
        "numberOfBytes": "1568"
      },
      "t_array(t_uint256)50_storage": {
        "base": "t_uint256",
        "encoding": "inplace",
        "label": "uint256[50]",
        "numberOfBytes": "1600"
      },
      "t_bool": {
        "encoding": "inplace",
        "label": "bool",
        "numberOfBytes": "1"
      },
      "t_bytes32": {
        "encoding": "inplace",
        "label": "bytes32",
        "numberOfBytes": "32"
      },
      "t_contract(IRegistry)8478": {
        "encoding": "inplace",
        "label": "contract IRegistry",
        "numberOfBytes": "20"
      },
      "t_enum(CronjobType)8137": {
        "encoding": "inplace",
        "label": "enum GovernanceTypesAndStorage.CronjobType",
        "numberOfBytes": "1"
      },
      "t_mapping(t_bytes32,t_uint256)": {
        "encoding": "mapping",
        "key": "t_bytes32",
        "label": "mapping(bytes32 => uint256)",
        "numberOfBytes": "32",
        "value": "t_uint256"
      },
      "t_mapping(t_uint256,t_struct(ApprovalRequest)8097_storage)": {
        "encoding": "mapping",
        "key": "t_uint256",
        "label": "mapping(uint256 => struct GovernanceTypesAndStorage.ApprovalRequest)",
        "numberOfBytes": "32",
        "value": "t_struct(ApprovalRequest)8097_storage"
      },
      "t_mapping(t_uint256,t_struct(Cronjob)8142_storage)": {
        "encoding": "mapping",
        "key": "t_uint256",
        "label": "mapping(uint256 => struct GovernanceTypesAndStorage.Cronjob)",
        "numberOfBytes": "32",
        "value": "t_struct(Cronjob)8142_storage"
      },
      "t_mapping(t_uint256,t_struct(Node)9164_storage)": {
        "encoding": "mapping",
        "key": "t_uint256",
        "label": "mapping(uint256 => struct ValuedDoubleLinkedList.Node)",
        "numberOfBytes": "32",
        "value": "t_struct(Node)9164_storage"
      },
      "t_struct(ApprovalRequest)8097_storage": {
        "encoding": "inplace",
        "label": "struct GovernanceTypesAndStorage.ApprovalRequest",
        "members": [
          {
            "astId": 8092,
            "contract": "contracts/Governance.sol:Governance",
            "label": "investmentId",
            "offset": 0,
            "slot": "0",
            "type": "t_uint256"
          },
          {
            "astId": 8094,
            "contract": "contracts/Governance.sol:Governance",
            "label": "approvalsProvided",
            "offset": 0,
            "slot": "1",
            "type": "t_uint256"
          },
          {
            "astId": 8096,
            "contract": "contracts/Governance.sol:Governance",
            "label": "isApproved",
            "offset": 0,
            "slot": "2",
            "type": "t_bool"
          }
        ],
        "numberOfBytes": "96"
      },
      "t_struct(Cronjob)8142_storage": {
        "encoding": "inplace",
        "label": "struct GovernanceTypesAndStorage.Cronjob",
        "members": [
          {
            "astId": 8139,
            "contract": "contracts/Governance.sol:Governance",
            "label": "cronjobType",
            "offset": 0,
            "slot": "0",
            "type": "t_enum(CronjobType)8137"
          },
          {
            "astId": 8141,
            "contract": "contracts/Governance.sol:Governance",
            "label": "externalId",
            "offset": 0,
            "slot": "1",
            "type": "t_uint256"
          }
        ],
        "numberOfBytes": "64"
      },
      "t_struct(LinkedList)9175_storage": {
        "encoding": "inplace",
        "label": "struct ValuedDoubleLinkedList.LinkedList",
        "members": [
          {
            "astId": 9166,
            "contract": "contracts/Governance.sol:Governance",
            "label": "head",
            "offset": 0,
            "slot": "0",
            "type": "t_uint256"
          },
          {
            "astId": 9168,
            "contract": "contracts/Governance.sol:Governance",
            "label": "tail",
            "offset": 0,
            "slot": "1",
            "type": "t_uint256"
          },
          {
            "astId": 9170,
            "contract": "contracts/Governance.sol:Governance",
            "label": "size",
            "offset": 0,
            "slot": "2",
            "type": "t_uint256"
          },
          {
            "astId": 9174,
            "contract": "contracts/Governance.sol:Governance",
            "label": "nodes",
            "offset": 0,
            "slot": "3",
            "type": "t_mapping(t_uint256,t_struct(Node)9164_storage)"
          }
        ],
        "numberOfBytes": "128"
      },
      "t_struct(Node)9164_storage": {
        "encoding": "inplace",
        "label": "struct ValuedDoubleLinkedList.Node",
        "members": [
          {
            "astId": 9159,
            "contract": "contracts/Governance.sol:Governance",
            "label": "next",
            "offset": 0,
            "slot": "0",
            "type": "t_uint256"
          },
          {
            "astId": 9161,
            "contract": "contracts/Governance.sol:Governance",
            "label": "previous",
            "offset": 0,
            "slot": "1",
            "type": "t_uint256"
          },
          {
            "astId": 9163,
            "contract": "contracts/Governance.sol:Governance",
            "label": "value",
            "offset": 0,
            "slot": "2",
            "type": "t_uint256"
          }
        ],
        "numberOfBytes": "96"
      },
      "t_uint256": {
        "encoding": "inplace",
        "label": "uint256",
        "numberOfBytes": "32"
      }
    }
  }
}