{
  "address": "0x2989A1CEc9E0d4d2F9BeF52ADCE1F125C9c8ea08",
  "abi": [
    {
      "anonymous": false,
      "inputs": [
        {
          "indexed": true,
          "internalType": "uint256",
          "name": "investmentId",
          "type": "uint256"
        },
        {
          "indexed": true,
          "internalType": "address",
          "name": "user",
          "type": "address"
        }
      ],
      "name": "ApprovalRequested",
      "type": "event"
    },
    {
      "anonymous": false,
      "inputs": [
        {
          "indexed": true,
          "internalType": "address",
          "name": "registryAddress_",
          "type": "address"
        },
        {
          "indexed": true,
          "internalType": "address",
          "name": "user",
          "type": "address"
        }
      ],
      "name": "InitGovernance",
      "type": "event"
    },
    {
      "anonymous": false,
      "inputs": [
        {
          "indexed": true,
          "internalType": "address",
          "name": "previousOwner",
          "type": "address"
        },
        {
          "indexed": true,
          "internalType": "address",
          "name": "newOwner",
          "type": "address"
        }
      ],
      "name": "OwnershipTransferred",
      "type": "event"
    },
    {
      "anonymous": false,
      "inputs": [
        {
          "indexed": true,
          "internalType": "uint256",
          "name": "investmentId",
          "type": "uint256"
        },
        {
          "indexed": true,
          "internalType": "uint256",
          "name": "requestId",
          "type": "uint256"
        },
        {
          "indexed": false,
          "internalType": "bool",
          "name": "decision",
          "type": "bool"
        },
        {
          "indexed": true,
          "internalType": "address",
          "name": "user",
          "type": "address"
        }
      ],
      "name": "VotedForRequest",
      "type": "event"
    },
    {
      "inputs": [
        {
          "internalType": "uint256",
          "name": "",
          "type": "uint256"
        }
      ],
      "name": "approvalRequests",
      "outputs": [
        {
          "internalType": "uint256",
          "name": "investmentId",
          "type": "uint256"
        },
        {
          "internalType": "uint256",
          "name": "approvalsProvided",
          "type": "uint256"
        },
        {
          "internalType": "bool",
          "name": "isApproved",
          "type": "bool"
        }
      ],
      "stateMutability": "view",
      "type": "function"
    },
    {
      "inputs": [],
      "name": "checkCronjobs",
      "outputs": [
        {
          "internalType": "bool",
          "name": "",
          "type": "bool"
        }
      ],
      "stateMutability": "nonpayable",
      "type": "function"
    },
    {
      "inputs": [],
      "name": "cronjobList",
      "outputs": [
        {
          "internalType": "uint256",
          "name": "head",
          "type": "uint256"
        },
        {
          "internalType": "uint256",
          "name": "tail",
          "type": "uint256"
        },
        {
          "internalType": "uint256",
          "name": "size",
          "type": "uint256"
        }
      ],
      "stateMutability": "view",
      "type": "function"
    },
    {
      "inputs": [
        {
          "internalType": "uint256",
          "name": "",
          "type": "uint256"
        }
      ],
      "name": "cronjobs",
      "outputs": [
        {
          "internalType": "enum GovernanceTypesAndStorage.CronjobType",
          "name": "cronjobType",
          "type": "uint8"
        },
        {
          "internalType": "uint256",
          "name": "externalId",
          "type": "uint256"
        }
      ],
      "stateMutability": "view",
      "type": "function"
    },
    {
      "inputs": [
        {
          "internalType": "address",
          "name": "superDelegator_",
          "type": "address"
        },
        {
          "internalType": "uint256",
          "name": "applicationsForInvestmentDuration_",
          "type": "uint256"
        },
        {
          "internalType": "uint256",
          "name": "lateApplicationsForInvestmentDuration_",
          "type": "uint256"
        }
      ],
      "name": "initialize",
      "outputs": [],
      "stateMutability": "nonpayable",
      "type": "function"
    },
    {
      "inputs": [],
      "name": "owner",
      "outputs": [
        {
          "internalType": "address",
          "name": "",
          "type": "address"
        }
      ],
      "stateMutability": "view",
      "type": "function"
    },
    {
      "inputs": [],
      "name": "registry",
      "outputs": [
        {
          "internalType": "contract IRegistry",
          "name": "",
          "type": "address"
        }
      ],
      "stateMutability": "view",
      "type": "function"
    },
    {
      "inputs": [],
      "name": "renounceOwnership",
      "outputs": [],
      "stateMutability": "nonpayable",
      "type": "function"
    },
    {
      "inputs": [
        {
          "internalType": "uint256",
          "name": "investmentId",
          "type": "uint256"
        }
      ],
      "name": "requestApproval",
      "outputs": [],
      "stateMutability": "nonpayable",
      "type": "function"
    },
    {
      "inputs": [
        {
          "internalType": "address",
          "name": "registryAddress_",
          "type": "address"
        }
      ],
      "name": "setRegistry",
      "outputs": [],
      "stateMutability": "nonpayable",
      "type": "function"
    },
    {
      "inputs": [
        {
          "internalType": "uint256",
          "name": "investmentId",
          "type": "uint256"
        }
      ],
      "name": "storeInvestmentTriggering",
      "outputs": [],
      "stateMutability": "nonpayable",
      "type": "function"
    },
    {
      "inputs": [],
      "name": "superDelegator",
      "outputs": [
        {
          "internalType": "address",
          "name": "",
          "type": "address"
        }
      ],
      "stateMutability": "view",
      "type": "function"
    },
    {
      "inputs": [
        {
          "internalType": "uint256",
          "name": "requestId",
          "type": "uint256"
        },
        {
          "internalType": "bool",
          "name": "decision",
          "type": "bool"
        }
      ],
      "name": "superVoteForRequest",
      "outputs": [],
      "stateMutability": "nonpayable",
      "type": "function"
    },
    {
      "inputs": [],
      "name": "totalApprovalRequests",
      "outputs": [
        {
          "internalType": "uint256",
          "name": "",
          "type": "uint256"
        }
      ],
      "stateMutability": "view",
      "type": "function"
    },
    {
      "inputs": [],
      "name": "totalCronjobs",
      "outputs": [
        {
          "internalType": "uint256",
          "name": "",
          "type": "uint256"
        }
      ],
      "stateMutability": "view",
      "type": "function"
    },
    {
      "inputs": [],
      "name": "totalIds",
      "outputs": [
        {
          "internalType": "uint256",
          "name": "",
          "type": "uint256"
        }
      ],
      "stateMutability": "view",
      "type": "function"
    },
    {
      "inputs": [
        {
          "internalType": "address",
          "name": "newOwner",
          "type": "address"
        }
      ],
      "name": "transferOwnership",
      "outputs": [],
      "stateMutability": "nonpayable",
      "type": "function"
    },
    {
      "inputs": [
        {
          "internalType": "bytes32",
          "name": "",
          "type": "bytes32"
        }
      ],
      "name": "updatableVariables",
      "outputs": [
        {
          "internalType": "uint256",
          "name": "",
          "type": "uint256"
        }
      ],
      "stateMutability": "view",
      "type": "function"
    },
    {
      "inputs": [
        {
          "internalType": "address",
          "name": "superDelegator_",
          "type": "address"
        }
      ],
      "name": "updateSuperDelegator",
      "outputs": [],
      "stateMutability": "nonpayable",
      "type": "function"
    }
  ],
  "transactionHash": "0x2f1a42f3ef1009fc3e1ae55668b82bde5437e55a4c613f29c0bc4d992107eb3d",
  "args": [],
  "solcInputHash": "77418e487aa49c62cd8713bd4061a191",
  "bytecode": "0x608060405234801561001057600080fd5b50611571806100206000396000f3fe608060405234801561001057600080fd5b50600436106101215760003560e01c80637a1ac61e116100ad5780638da5cb5b116100715780638da5cb5b146102d8578063a91ee0dc146102e0578063bae196cf14610306578063e71049111461032c578063f2fde38b1461034957610121565b80637a1ac61e146102185780637b1039991461024a5780637baf48fe1461026e5780638cb13c2e146102765780638cb75a24146102b357610121565b80633c96cd2a116100f45780633c96cd2a1461018c5780633e0c10a7146101ce57806366eaedb5146101eb5780636d148f84146101f3578063715018a61461021057610121565b806311ca2ea6146101265780632e8fe18e1461014057806335e245b814610168578063390a5ba514610184575b600080fd5b61012e61036f565b60408051918252519081900360200190f35b6101666004803603602081101561015657600080fd5b50356001600160a01b0316610375565b005b6101706103f9565b604080519115158252519081900360200190f35b61012e610449565b6101a9600480360360208110156101a257600080fd5b503561044f565b604051808380156101b657fe5b81526020018281526020019250505060405180910390f35b610166600480360360208110156101e457600080fd5b503561046e565b61012e61053a565b6101666004803603602081101561020957600080fd5b5035610540565b6101666105fb565b6101666004803603606081101561022e57600080fd5b506001600160a01b0381351690602081013590604001356106a7565b610252610817565b604080516001600160a01b039092168252519081900360200190f35b610252610826565b6102936004803603602081101561028c57600080fd5b5035610835565b604080519384526020840192909252151582820152519081900360600190f35b610166600480360360408110156102c957600080fd5b50803590602001351515610859565b610252610a08565b610166600480360360208110156102f657600080fd5b50356001600160a01b0316610a17565b61030e610b69565b60408051938452602084019290925282820152519081900360600190f35b61012e6004803603602081101561034257600080fd5b5035610b75565b6101666004803603602081101561035f57600080fd5b50356001600160a01b0316610b87565b606f5481565b61037d610c8a565b6001600160a01b031661038e610a08565b6001600160a01b0316146103d7576040805162461bcd60e51b815260206004820181905260248201526000805160206114f1833981519152604482015290519081900360640190fd5b606680546001600160a01b0319166001600160a01b0392909216919091179055565b600080610406606b610c8e565b905080158061041457508042105b15610423576000915050610446565b600080610430606b610ca8565b9150915061043e8282610d0b565b505060019150505b90565b60695481565b6070602052600090815260409020805460019091015460ff9091169082565b6068546001600160a01b031633146104c6576040805162461bcd60e51b815260206004820152601660248201527513db9b1e48149959da5cdd1c9e4818dbdb9d1c9858dd60521b604482015290519081900360640190fd5b6000610528606a60006040516020018080602001828103825260218152602001806114d0602191396040019150506040516020818303038152906040528051906020012081526020019081526020016000205442610d2790919063ffffffff16565b905061053660008284610d88565b5050565b60655481565b6068546001600160a01b03163314610598576040805162461bcd60e51b815260206004820152601660248201527513db9b1e48149959da5cdd1c9e4818dbdb9d1c9858dd60521b604482015290519081900360640190fd5b6105a06103f9565b5060658054600090815260676020526040808220849055915481528181205491513392917f84b8b39cd51b9b546002c46c70fab2c1b727ccd4b78d23cb126abbb965a8e79691a36065546105f5906001610d27565b60655550565b610603610c8a565b6001600160a01b0316610614610a08565b6001600160a01b03161461065d576040805162461bcd60e51b815260206004820181905260248201526000805160206114f1833981519152604482015290519081900360640190fd5b6033546040516000916001600160a01b0316907f8be0079c531659141344cd1fd0a4f28419497f9722a3daafe3b4186f6b6457e0908390a3603380546001600160a01b0319169055565b600054610100900460ff16806106c057506106c0610e05565b806106ce575060005460ff16155b6107095760405162461bcd60e51b815260040180806020018281038252602e8152602001806114a2602e913960400191505060405180910390fd5b600054610100900460ff16158015610734576000805460ff1961ff0019909116610100171660011790555b61073c610e16565b606680546001600160a01b0319166001600160a01b03861617905560408051602080820190815260219282018390528592606a92600092918291606001906114d082396040019150506040516020818303038152906040528051906020012081526020019081526020016000208190555081606a600060405160200180806020018281038252602581526020018061143760259139604001915050604051602081830303815290604052805190602001208152602001908152602001600020819055508015610811576000805461ff00191690555b50505050565b6068546001600160a01b031681565b6066546001600160a01b031681565b60676020526000908152604090208054600182015460029092015490919060ff1683565b6108616103f9565b506066546001600160a01b031633146108ab5760405162461bcd60e51b815260040180806020018281038252602b815260200180611511602b913960400191505060405180910390fd5b600082815260676020526040902060010154156108f95760405162461bcd60e51b815260040180806020018281038252602481526020018061145c6024913960400191505060405180910390fd5b6068546000838152606760205260408082205481516364322c3560e01b81526004810191909152841515602482015290516001600160a01b03909316926364322c359260448084019391929182900301818387803b15801561095a57600080fd5b505af115801561096e573d6000803e3d6000fd5b5050505080156109bb57600082815260676020526040902060019081015461099591610d27565b6000838152606760205260409020600180820192909255600201805460ff191690911790555b60008281526067602090815260409182902054825184151581529251339386937f70af203def241488bb271f95f3ab62d4f5ec84d1cbd928f47deea5592b61df5892918290030190a45050565b6033546001600160a01b031690565b610a1f610c8a565b6001600160a01b0316610a30610a08565b6001600160a01b031614610a79576040805162461bcd60e51b815260206004820181905260248201526000805160206114f1833981519152604482015290519081900360640190fd5b6001600160a01b038116610abe5760405162461bcd60e51b81526004018080602001828103825260228152602001806114806022913960400191505060405180910390fd5b6068546001600160a01b031615610b1c576040805162461bcd60e51b815260206004820152601d60248201527f43616e6e6f7420696e697469616c697a65207365636f6e642074696d65000000604482015290519081900360640190fd5b606880546001600160a01b0319166001600160a01b0383169081179091556040513391907f5d7de64baf1837e34973be7e43cff68daf9f4e539527a9f722cae7b3f48ca8b190600090a350565b606b54606c54606d5483565b606a6020526000908152604090205481565b610b8f610c8a565b6001600160a01b0316610ba0610a08565b6001600160a01b031614610be9576040805162461bcd60e51b815260206004820181905260248201526000805160206114f1833981519152604482015290519081900360640190fd5b6001600160a01b038116610c2e5760405162461bcd60e51b81526004018080602001828103825260268152602001806114116026913960400191505060405180910390fd5b6033546040516001600160a01b038084169216907f8be0079c531659141344cd1fd0a4f28419497f9722a3daafe3b4186f6b6457e090600090a3603380546001600160a01b0319166001600160a01b0392909216919091179055565b3390565b805460009081526003909101602052604090206002015490565b8054600081815260038301602052604090206002908101549083015460011415610cdb5760008084556001840155610cfb565b825460009081526003840160205260408082205480865582528120600101555b6002909201805460001901905591565b6000828152607060205260409020600101546105369082610ec8565b600082820183811015610d81576040805162461bcd60e51b815260206004820152601b60248201527f536166654d6174683a206164646974696f6e206f766572666c6f770000000000604482015290519081900360640190fd5b9392505050565b606f54610d96906001610d27565b606f556040805180820190915280848015610dad57fe5b81526020908101839052606f54600090815260709091526040902081518154829060ff19166001838015610ddd57fe5b021790555060209190910151600190910155606f54610e0090606b90849061101f565b505050565b6000610e1030611271565b15905090565b600054610100900460ff1680610e2f5750610e2f610e05565b80610e3d575060005460ff16155b610e785760405162461bcd60e51b815260040180806020018281038252602e8152602001806114a2602e913960400191505060405180910390fd5b600054610100900460ff16158015610ea3576000805460ff1961ff0019909116610100171660011790555b610eab611277565b610eb3611317565b8015610ec5576000805461ff00191690555b50565b60685460408051633cf3333b60e11b81526004810185905290516001600160a01b03909216916379e6667691602480820192602092909190829003018186803b158015610f1457600080fd5b505afa158015610f28573d6000803e3d6000fd5b505050506040513d6020811015610f3e57600080fd5b505115610faf57606854604080516338f40f5b60e01b81526004810185905290516001600160a01b03909216916338f40f5b9160248082019260009290919082900301818387803b158015610f9257600080fd5b505af1158015610fa6573d6000803e3d6000fd5b50505050610536565b6000611011606a6000604051602001808060200182810382526025815260200180611437602591396040019150506040516020818303038152906040528051906020012081526020019081526020016000205483610d2790919063ffffffff16565b9050610e0060008285610d88565b825460008181526003850160209081526040918290208251606081018452815481526001820154928101929092526002015491810191909152906110ac578184556001808501839055604080516060810182526000808252602080830182815283850189815288845260038b01909252939091209151825591519281019290925551600290910155611262565b80604001518310156111145783546000908152600385016020818152604080842060019081018790558151606081018352895481528084018681528184018a815289885295909452919094209051815590519281019290925551600290910155818455611262565b6001846002015411156111f05760015b84600201548110156111ee57905160009081526003850160209081526040918290208251606081018452815481526001820154928101929092526002015491810182905291908410156111e657815160009081526003860160208181526040808420600190810154875186528286208201899055825160608101845281815281875285855283872080548287019081528286018d81528c8a529790965293872090518155935191840191909155925160029092019190915591528390556111ee565b600101611124565b505b60008281526003850160205260409020600201548314611262576040805160608101825260008082526001808801805460208086019182528587018a815289865260038c0190915286852095518655905192850192909255905160029093019290925581548152919091208390558290555b50505060020180546001019055565b3b151590565b600054610100900460ff16806112905750611290610e05565b8061129e575060005460ff16155b6112d95760405162461bcd60e51b815260040180806020018281038252602e8152602001806114a2602e913960400191505060405180910390fd5b600054610100900460ff16158015610eb3576000805460ff1961ff0019909116610100171660011790558015610ec5576000805461ff001916905550565b600054610100900460ff16806113305750611330610e05565b8061133e575060005460ff16155b6113795760405162461bcd60e51b815260040180806020018281038252602e8152602001806114a2602e913960400191505060405180910390fd5b600054610100900460ff161580156113a4576000805460ff1961ff0019909116610100171660011790555b60006113ae610c8a565b603380546001600160a01b0319166001600160a01b038316908117909155604051919250906000907f8be0079c531659141344cd1fd0a4f28419497f9722a3daafe3b4186f6b6457e0908290a3508015610ec5576000805461ff00191690555056fe4f776e61626c653a206e6577206f776e657220697320746865207a65726f20616464726573736c6174654170706c69636174696f6e73466f72496e766573746d656e744475726174696f6e43616e6e6f7420617070726f766520616761696e2073616d6520696e766573746d656e7443616e6e6f7420696e697469616c697a652077697468203020616464726573736573496e697469616c697a61626c653a20636f6e747261637420697320616c726561647920696e697469616c697a65646170706c69636174696f6e73466f72496e766573746d656e744475726174696f6e4f776e61626c653a2063616c6c6572206973206e6f7420746865206f776e65724f6e6c792073757065722064656c656761746f722063616e2063616c6c20746869732066756e6374696f6ea264697066735822122003e4296506f45a73e2dd033d334f75e481dbff6c3fe3f13abb6f88d6deea0c3264736f6c63430007060033",
  "devdoc": {
    "details": "Extends Initializable, SuperGovernance",
    "kind": "dev",
    "methods": {
      "checkCronjobs()": {
        "details": "Calls executeCronjob() at the most 1 cronJob per tx"
      },
      "initialize(address,uint256,uint256)": {
        "params": {
          "applicationsForInvestmentDuration_": "duration for applications for investment",
          "lateApplicationsForInvestmentDuration_": "duration forlate applications for investment",
          "superDelegator_": "The address of the admin in charge during the first epoch"
        }
      },
      "owner()": {
        "details": "Returns the address of the current owner."
      },
      "renounceOwnership()": {
        "details": "Leaves the contract without owner. It will not be possible to call `onlyOwner` functions anymore. Can only be called by the current owner. NOTE: Renouncing ownership will leave the contract without an owner, thereby removing any functionality that is only available to the owner."
      },
      "requestApproval(uint256)": {
        "details": "Executes cronJob()",
        "params": {
          "investmentId": "The id of the investment or investment to approve"
        }
      },
      "setRegistry(address)": {
        "details": "used to initialize SuperGovernancerequires not already initialized",
        "params": {
          "registryAddress_": "the Registry address"
        }
      },
      "storeInvestmentTriggering(uint256)": {
        "details": "Adds cronJob",
        "params": {
          "investmentId": "The id of the investment to store"
        }
      },
      "superVoteForRequest(uint256,bool)": {
        "details": "Executes cronJobrequires msg.sender to be Super Delegatorrequires current epoch to be 0 or 1",
        "params": {
          "decision": "the decision (Approve / Deny)",
          "requestId": "the Request ID"
        }
      },
      "transferOwnership(address)": {
        "details": "Transfers ownership of the contract to a new account (`newOwner`). Can only be called by the current owner."
      },
      "updateSuperDelegator(address)": {
        "details": "This function is used to update the superDelegator address.",
        "params": {
          "superDelegator_": "The address of the upgraded super delegator."
        }
      }
    },
    "title": "AllianceBlock Governance contract",
    "version": 1
  },
  "userdoc": {
    "kind": "user",
    "methods": {
      "checkCronjobs()": {
        "notice": "Checks if needs to execute a DAO cronJob"
      },
      "initialize(address,uint256,uint256)": {
        "notice": "Initialize the contract."
      },
      "requestApproval(uint256)": {
        "notice": "Request a investment or investment approval"
      },
      "setRegistry(address)": {
        "notice": "Sets Registry contract"
      },
      "storeInvestmentTriggering(uint256)": {
        "notice": "Stores Investment Duration"
      },
      "superVoteForRequest(uint256,bool)": {
        "notice": "Votes for Request"
      },
      "updateSuperDelegator(address)": {
        "notice": "Update Superdelegator"
      }
    },
    "notice": "Responsible for governing AllianceBlock's ecosystem",
    "version": 1
  },
  "storageLayout": {
    "storage": [
      {
        "astId": 890,
        "contract": "contracts/Governance.sol:Governance",
        "label": "_initialized",
        "offset": 0,
        "slot": "0",
        "type": "t_bool"
      },
      {
        "astId": 893,
        "contract": "contracts/Governance.sol:Governance",
        "label": "_initializing",
        "offset": 1,
        "slot": "0",
        "type": "t_bool"
      },
      {
        "astId": 2584,
        "contract": "contracts/Governance.sol:Governance",
        "label": "__gap",
        "offset": 0,
        "slot": "1",
        "type": "t_array(t_uint256)50_storage"
      },
      {
        "astId": 321,
        "contract": "contracts/Governance.sol:Governance",
        "label": "_owner",
        "offset": 0,
        "slot": "51",
        "type": "t_address"
      },
      {
        "astId": 440,
        "contract": "contracts/Governance.sol:Governance",
        "label": "__gap",
        "offset": 0,
        "slot": "52",
        "type": "t_array(t_uint256)49_storage"
      },
      {
        "astId": 7947,
        "contract": "contracts/Governance.sol:Governance",
        "label": "totalApprovalRequests",
        "offset": 0,
        "slot": "101",
        "type": "t_uint256"
      },
      {
        "astId": 7949,
        "contract": "contracts/Governance.sol:Governance",
        "label": "superDelegator",
        "offset": 0,
        "slot": "102",
        "type": "t_address"
      },
      {
        "astId": 7953,
        "contract": "contracts/Governance.sol:Governance",
        "label": "approvalRequests",
        "offset": 0,
        "slot": "103",
        "type": "t_mapping(t_uint256,t_struct(ApprovalRequest)7923_storage)"
      },
      {
        "astId": 7955,
        "contract": "contracts/Governance.sol:Governance",
        "label": "registry",
        "offset": 0,
        "slot": "104",
        "type": "t_contract(IRegistry)8314"
      },
      {
        "astId": 7957,
        "contract": "contracts/Governance.sol:Governance",
        "label": "totalIds",
        "offset": 0,
        "slot": "105",
        "type": "t_uint256"
      },
      {
        "astId": 7961,
        "contract": "contracts/Governance.sol:Governance",
        "label": "updatableVariables",
        "offset": 0,
        "slot": "106",
        "type": "t_mapping(t_bytes32,t_uint256)"
      },
      {
        "astId": 7970,
        "contract": "contracts/Governance.sol:Governance",
        "label": "cronjobList",
        "offset": 0,
        "slot": "107",
        "type": "t_struct(LinkedList)9011_storage"
      },
      {
        "astId": 7972,
        "contract": "contracts/Governance.sol:Governance",
        "label": "totalCronjobs",
        "offset": 0,
        "slot": "111",
        "type": "t_uint256"
      },
      {
        "astId": 7976,
        "contract": "contracts/Governance.sol:Governance",
        "label": "cronjobs",
        "offset": 0,
        "slot": "112",
        "type": "t_mapping(t_uint256,t_struct(Cronjob)7968_storage)"
      }
    ],
    "types": {
      "t_address": {
        "encoding": "inplace",
        "label": "address",
        "numberOfBytes": "20"
      },
      "t_array(t_uint256)49_storage": {
        "base": "t_uint256",
        "encoding": "inplace",
        "label": "uint256[49]",
        "numberOfBytes": "1568"
      },
      "t_array(t_uint256)50_storage": {
        "base": "t_uint256",
        "encoding": "inplace",
        "label": "uint256[50]",
        "numberOfBytes": "1600"
      },
      "t_bool": {
        "encoding": "inplace",
        "label": "bool",
        "numberOfBytes": "1"
      },
      "t_bytes32": {
        "encoding": "inplace",
        "label": "bytes32",
        "numberOfBytes": "32"
      },
      "t_contract(IRegistry)8314": {
        "encoding": "inplace",
        "label": "contract IRegistry",
        "numberOfBytes": "20"
      },
      "t_enum(CronjobType)7963": {
        "encoding": "inplace",
        "label": "enum GovernanceTypesAndStorage.CronjobType",
        "numberOfBytes": "1"
      },
      "t_mapping(t_bytes32,t_uint256)": {
        "encoding": "mapping",
        "key": "t_bytes32",
        "label": "mapping(bytes32 => uint256)",
        "numberOfBytes": "32",
        "value": "t_uint256"
      },
      "t_mapping(t_uint256,t_struct(ApprovalRequest)7923_storage)": {
        "encoding": "mapping",
        "key": "t_uint256",
        "label": "mapping(uint256 => struct GovernanceTypesAndStorage.ApprovalRequest)",
        "numberOfBytes": "32",
        "value": "t_struct(ApprovalRequest)7923_storage"
      },
      "t_mapping(t_uint256,t_struct(Cronjob)7968_storage)": {
        "encoding": "mapping",
        "key": "t_uint256",
        "label": "mapping(uint256 => struct GovernanceTypesAndStorage.Cronjob)",
        "numberOfBytes": "32",
        "value": "t_struct(Cronjob)7968_storage"
      },
      "t_mapping(t_uint256,t_struct(Node)9000_storage)": {
        "encoding": "mapping",
        "key": "t_uint256",
        "label": "mapping(uint256 => struct ValuedDoubleLinkedList.Node)",
        "numberOfBytes": "32",
        "value": "t_struct(Node)9000_storage"
      },
      "t_struct(ApprovalRequest)7923_storage": {
        "encoding": "inplace",
        "label": "struct GovernanceTypesAndStorage.ApprovalRequest",
        "members": [
          {
            "astId": 7918,
            "contract": "contracts/Governance.sol:Governance",
            "label": "investmentId",
            "offset": 0,
            "slot": "0",
            "type": "t_uint256"
          },
          {
            "astId": 7920,
            "contract": "contracts/Governance.sol:Governance",
            "label": "approvalsProvided",
            "offset": 0,
            "slot": "1",
            "type": "t_uint256"
          },
          {
            "astId": 7922,
            "contract": "contracts/Governance.sol:Governance",
            "label": "isApproved",
            "offset": 0,
            "slot": "2",
            "type": "t_bool"
          }
        ],
        "numberOfBytes": "96"
      },
      "t_struct(Cronjob)7968_storage": {
        "encoding": "inplace",
        "label": "struct GovernanceTypesAndStorage.Cronjob",
        "members": [
          {
            "astId": 7965,
            "contract": "contracts/Governance.sol:Governance",
            "label": "cronjobType",
            "offset": 0,
            "slot": "0",
            "type": "t_enum(CronjobType)7963"
          },
          {
            "astId": 7967,
            "contract": "contracts/Governance.sol:Governance",
            "label": "externalId",
            "offset": 0,
            "slot": "1",
            "type": "t_uint256"
          }
        ],
        "numberOfBytes": "64"
      },
      "t_struct(LinkedList)9011_storage": {
        "encoding": "inplace",
        "label": "struct ValuedDoubleLinkedList.LinkedList",
        "members": [
          {
            "astId": 9002,
            "contract": "contracts/Governance.sol:Governance",
            "label": "head",
            "offset": 0,
            "slot": "0",
            "type": "t_uint256"
          },
          {
            "astId": 9004,
            "contract": "contracts/Governance.sol:Governance",
            "label": "tail",
            "offset": 0,
            "slot": "1",
            "type": "t_uint256"
          },
          {
            "astId": 9006,
            "contract": "contracts/Governance.sol:Governance",
            "label": "size",
            "offset": 0,
            "slot": "2",
            "type": "t_uint256"
          },
          {
            "astId": 9010,
            "contract": "contracts/Governance.sol:Governance",
            "label": "nodes",
            "offset": 0,
            "slot": "3",
            "type": "t_mapping(t_uint256,t_struct(Node)9000_storage)"
          }
        ],
        "numberOfBytes": "128"
      },
      "t_struct(Node)9000_storage": {
        "encoding": "inplace",
        "label": "struct ValuedDoubleLinkedList.Node",
        "members": [
          {
            "astId": 8995,
            "contract": "contracts/Governance.sol:Governance",
            "label": "next",
            "offset": 0,
            "slot": "0",
            "type": "t_uint256"
          },
          {
            "astId": 8997,
            "contract": "contracts/Governance.sol:Governance",
            "label": "previous",
            "offset": 0,
            "slot": "1",
            "type": "t_uint256"
          },
          {
            "astId": 8999,
            "contract": "contracts/Governance.sol:Governance",
            "label": "value",
            "offset": 0,
            "slot": "2",
            "type": "t_uint256"
          }
        ],
        "numberOfBytes": "96"
      },
      "t_uint256": {
        "encoding": "inplace",
        "label": "uint256",
        "numberOfBytes": "32"
      }
    }
  }
}