{
  "address": "0xB6c84206E65a5deaD2E2A3B29F89Bdf9FfB9A326",
  "abi": [
    {
      "anonymous": false,
      "inputs": [
        {
          "indexed": true,
          "internalType": "uint256",
          "name": "projectId",
          "type": "uint256"
        },
        {
          "indexed": true,
          "internalType": "address",
          "name": "user",
          "type": "address"
        }
      ],
      "name": "ApprovalRequested",
      "type": "event"
    },
    {
      "anonymous": false,
      "inputs": [
        {
          "indexed": true,
          "internalType": "address",
          "name": "projectAddress_",
          "type": "address"
        },
        {
          "indexed": true,
          "internalType": "address",
          "name": "user",
          "type": "address"
        }
      ],
      "name": "InitGovernance",
      "type": "event"
    },
    {
      "anonymous": false,
      "inputs": [
        {
          "indexed": true,
          "internalType": "address",
          "name": "previousOwner",
          "type": "address"
        },
        {
          "indexed": true,
          "internalType": "address",
          "name": "newOwner",
          "type": "address"
        }
      ],
      "name": "OwnershipTransferred",
      "type": "event"
    },
    {
      "anonymous": false,
      "inputs": [
        {
          "indexed": true,
          "internalType": "uint256",
          "name": "projectId",
          "type": "uint256"
        },
        {
          "indexed": false,
          "internalType": "bool",
          "name": "decision",
          "type": "bool"
        },
        {
          "indexed": true,
          "internalType": "address",
          "name": "user",
          "type": "address"
        }
      ],
      "name": "VotedForRequest",
      "type": "event"
    },
    {
      "inputs": [],
      "name": "APPLICATIONS_FOR_INVESTMENT_DURATION",
      "outputs": [
        {
          "internalType": "bytes32",
          "name": "",
          "type": "bytes32"
        }
      ],
      "stateMutability": "view",
      "type": "function"
    },
    {
      "inputs": [],
      "name": "LATE_APPLICATIONS_FOR_INVESTMENT_DURATION",
      "outputs": [
        {
          "internalType": "bytes32",
          "name": "",
          "type": "bytes32"
        }
      ],
      "stateMutability": "view",
      "type": "function"
    },
    {
      "inputs": [],
      "name": "__SuperGovernance_init",
      "outputs": [],
      "stateMutability": "nonpayable",
      "type": "function"
    },
    {
      "inputs": [
        {
          "internalType": "uint256",
          "name": "",
          "type": "uint256"
        }
      ],
      "name": "approvalRequests",
      "outputs": [
        {
          "internalType": "uint256",
          "name": "projectId",
          "type": "uint256"
        },
        {
          "internalType": "uint256",
          "name": "approvalsProvided",
          "type": "uint256"
        },
        {
          "internalType": "bool",
          "name": "isApproved",
          "type": "bool"
        },
        {
          "internalType": "bool",
          "name": "isProcessed",
          "type": "bool"
        }
      ],
      "stateMutability": "view",
      "type": "function"
    },
    {
      "inputs": [],
      "name": "checkCronjobs",
      "outputs": [
        {
          "internalType": "bool",
          "name": "",
          "type": "bool"
        }
      ],
      "stateMutability": "nonpayable",
      "type": "function"
    },
    {
      "inputs": [],
      "name": "cronjobList",
      "outputs": [
        {
          "internalType": "uint256",
          "name": "head",
          "type": "uint256"
        },
        {
          "internalType": "uint256",
          "name": "tail",
          "type": "uint256"
        },
        {
          "internalType": "uint256",
          "name": "size",
          "type": "uint256"
        }
      ],
      "stateMutability": "view",
      "type": "function"
    },
    {
      "inputs": [
        {
          "internalType": "uint256",
          "name": "",
          "type": "uint256"
        }
      ],
      "name": "cronjobs",
      "outputs": [
        {
          "internalType": "enum GovernanceTypesAndStorage.CronjobType",
          "name": "cronjobType",
          "type": "uint8"
        },
        {
          "internalType": "uint256",
          "name": "projectId",
          "type": "uint256"
        }
      ],
      "stateMutability": "view",
      "type": "function"
    },
    {
      "inputs": [
        {
          "internalType": "address",
          "name": "superDelegator_",
          "type": "address"
        },
        {
          "internalType": "uint256",
          "name": "applicationsForInvestmentDuration_",
          "type": "uint256"
        },
        {
          "internalType": "uint256",
          "name": "lateApplicationsForInvestmentDuration_",
          "type": "uint256"
        },
        {
          "internalType": "address",
          "name": "projectManager_",
          "type": "address"
        }
      ],
      "name": "initialize",
      "outputs": [],
      "stateMutability": "nonpayable",
      "type": "function"
    },
    {
      "inputs": [],
      "name": "owner",
      "outputs": [
        {
          "internalType": "address",
          "name": "",
          "type": "address"
        }
      ],
      "stateMutability": "view",
      "type": "function"
    },
    {
      "inputs": [],
      "name": "projectManager",
      "outputs": [
        {
          "internalType": "contract IProjectManager",
          "name": "",
          "type": "address"
        }
      ],
      "stateMutability": "view",
      "type": "function"
    },
    {
      "inputs": [],
      "name": "renounceOwnership",
      "outputs": [],
      "stateMutability": "nonpayable",
      "type": "function"
    },
    {
      "inputs": [
        {
          "internalType": "uint256",
          "name": "projectId",
          "type": "uint256"
        }
      ],
      "name": "requestApproval",
      "outputs": [],
      "stateMutability": "nonpayable",
      "type": "function"
    },
    {
      "inputs": [
        {
          "internalType": "uint256",
          "name": "projectId",
          "type": "uint256"
        }
      ],
      "name": "startLotteryPhase",
      "outputs": [],
      "stateMutability": "nonpayable",
      "type": "function"
    },
    {
      "inputs": [
        {
          "internalType": "uint256",
          "name": "projectId",
          "type": "uint256"
        }
      ],
      "name": "storeInvestmentTriggering",
      "outputs": [],
      "stateMutability": "nonpayable",
      "type": "function"
    },
    {
      "inputs": [],
      "name": "superDelegator",
      "outputs": [
        {
          "internalType": "address",
          "name": "",
          "type": "address"
        }
      ],
      "stateMutability": "view",
      "type": "function"
    },
    {
      "inputs": [
        {
          "internalType": "uint256",
          "name": "requestId",
          "type": "uint256"
        },
        {
          "internalType": "bool",
          "name": "decision",
          "type": "bool"
        }
      ],
      "name": "superVoteForRequest",
      "outputs": [],
      "stateMutability": "nonpayable",
      "type": "function"
    },
    {
      "inputs": [],
      "name": "totalApprovalRequests",
      "outputs": [
        {
          "internalType": "uint256",
          "name": "",
          "type": "uint256"
        }
      ],
      "stateMutability": "view",
      "type": "function"
    },
    {
      "inputs": [],
      "name": "totalCronjobs",
      "outputs": [
        {
          "internalType": "uint256",
          "name": "",
          "type": "uint256"
        }
      ],
      "stateMutability": "view",
      "type": "function"
    },
    {
      "inputs": [
        {
          "internalType": "address",
          "name": "newOwner",
          "type": "address"
        }
      ],
      "name": "transferOwnership",
      "outputs": [],
      "stateMutability": "nonpayable",
      "type": "function"
    },
    {
      "inputs": [
        {
          "internalType": "bytes32",
          "name": "",
          "type": "bytes32"
        }
      ],
      "name": "updatableVariables",
      "outputs": [
        {
          "internalType": "uint256",
          "name": "",
          "type": "uint256"
        }
      ],
      "stateMutability": "view",
      "type": "function"
    },
    {
      "inputs": [
        {
          "internalType": "address",
          "name": "superDelegator_",
          "type": "address"
        }
      ],
      "name": "updateSuperDelegator",
      "outputs": [],
      "stateMutability": "nonpayable",
      "type": "function"
    }
  ],
  "transactionHash": "0x36846e7f873f64745a914f1a9ba6f0a0d729954e6290323b60ec5915ad44eab4",
  "args": [],
  "solcInputHash": "2655e296375c08ec2ee94c1a605dd52e",
  "bytecode": "0x608060405234801561001057600080fd5b50611e39806100206000396000f3fe608060405234801561001057600080fd5b50600436106101375760003560e01c80636d148f84116100b85780638da5cb5b1161007c5780638da5cb5b146102e95780639e3d87cd146102f1578063bae196cf1461032b578063c99fcbeb14610351578063e710491114610359578063f2fde38b1461037657610137565b80636d148f8414610252578063715018a61461026f5780637baf48fe146102775780638cb13c2e1461027f5780638cb75a24146102c457610137565b806338f40f5b116100ff57806338f40f5b146101c65780633c96cd2a146101e35780633e0c10a7146102255780635eaa98c61461024257806366eaedb51461024a57610137565b8063029eb76e1461013c57806311ca2ea61461016057806317c076661461017a5780632e8fe18e1461018457806335e245b8146101aa575b600080fd5b61014461039c565b604080516001600160a01b039092168252519081900360200190f35b6101686103ab565b60408051918252519081900360200190f35b6101826103b1565b005b6101826004803603602081101561019a57600080fd5b50356001600160a01b0316610463565b6101b261053e565b604080519115158252519081900360200190f35b610182600480360360208110156101dc57600080fd5b503561058e565b610200600480360360208110156101f957600080fd5b5035610830565b6040518083801561020d57fe5b81526020018281526020019250505060405180910390f35b6101826004803603602081101561023b57600080fd5b503561084f565b61016861097a565b61016861099e565b6101826004803603602081101561026857600080fd5b50356109a4565b610182610b2a565b610144610be8565b61029c6004803603602081101561029557600080fd5b5035610bf7565b6040805194855260208501939093529015158383015215156060830152519081900360800190f35b610182600480360360408110156102da57600080fd5b50803590602001351515610c24565b610144610eb4565b6101826004803603608081101561030757600080fd5b506001600160a01b0381358116916020810135916040820135916060013516610ec3565b6103336110cf565b60408051938452602084019290925282820152519081900360600190f35b6101686110db565b6101686004803603602081101561036f57600080fd5b50356110ff565b6101826004803603602081101561038c57600080fd5b50356001600160a01b0316611111565b6068546001600160a01b031681565b606e5481565b600054610100900460ff16806103ca57506103ca611226565b806103d8575060005460ff16155b6104135760405162461bcd60e51b815260040180806020018281038252602e815260200180611d25602e913960400191505060405180910390fd5b600054610100900460ff1615801561043e576000805460ff1961ff0019909116610100171660011790555b610446611237565b61044e6112d4565b8015610460576000805461ff00191690555b50565b61046b611369565b6001600160a01b031661047c610eb4565b6001600160a01b0316146104d7576040805162461bcd60e51b815260206004820181905260248201527f4f776e61626c653a2063616c6c6572206973206e6f7420746865206f776e6572604482015290519081900360640190fd5b6001600160a01b03811661051c5760405162461bcd60e51b8152600401808060200182810382526022815260200180611d036022913960400191505060405180910390fd5b606680546001600160a01b0319166001600160a01b0392909216919091179055565b60008061054b606a61136d565b905080158061055957508042105b1561056857600091505061058b565b600080610575606a611387565b9150915061058382826113ac565b505060019150505b90565b6066546001600160a01b031633146105d75760405162461bcd60e51b815260040180806020018281038252602b815260200180611d79602b913960400191505060405180910390fd5b60685460408051637ddc91e760e11b81526004810184905290516000926001600160a01b03169163fbb923ce91602480830192602092919082900301818787803b15801561062457600080fd5b505af1158015610638573d6000803e3d6000fd5b505050506040513d602081101561064e57600080fd5b505190506001816001600160a01b03166350ac5892846040518263ffffffff1660e01b815260040180828152602001915050602060405180830381600087803b15801561069a57600080fd5b505af11580156106ae573d6000803e3d6000fd5b505050506040513d60208110156106c457600080fd5b505160058111156106d157fe5b1461070d5760405162461bcd60e51b8152600401808060200182810382526026815260200180611d536026913960400191505060405180910390fd5b806001600160a01b03166379e66676836040518263ffffffff1660e01b81526004018082815260200191505060206040518083038186803b15801561075157600080fd5b505afa158015610765573d6000803e3d6000fd5b505050506040513d602081101561077b57600080fd5b50516107ce576040805162461bcd60e51b815260206004820152601d60248201527f496e746572657374206d7573742068617665206265656e2073686f776e000000604482015290519081900360640190fd5b806001600160a01b03166338f40f5b836040518263ffffffff1660e01b815260040180828152602001915050600060405180830381600087803b15801561081457600080fd5b505af1158015610828573d6000803e3d6000fd5b505050505050565b606f602052600090815260409020805460019091015460ff9091169082565b6068546040805162b9028160e31b815233600482015290516001600160a01b03909216916305c81408916024808201926020929091908290030181600087803b15801561089b57600080fd5b505af11580156108af573d6000803e3d6000fd5b505050506040513d60208110156108c557600080fd5b5051610910576040805162461bcd60e51b815260206004820152601560248201527413db9b1e48141c9bda9958dd0818dbdb9d1c9858dd605a1b604482015290519081900360640190fd5b7f9080639d5d157882c14efff1f7c9db23b3cf22d2d58b9bc4d5cabdf8f486b31d600090815260696020527f581f23a4a0deb400a8a4e06663ebf76ff0f0b604e60a13eda480f71b646f10a9546109689042906113c8565b905061097660008284611429565b5050565b7f9080639d5d157882c14efff1f7c9db23b3cf22d2d58b9bc4d5cabdf8f486b31d81565b60655481565b6068546040805162b9028160e31b815233600482015290516001600160a01b03909216916305c81408916024808201926020929091908290030181600087803b1580156109f057600080fd5b505af1158015610a04573d6000803e3d6000fd5b505050506040513d6020811015610a1a57600080fd5b5051610a65576040805162461bcd60e51b815260206004820152601560248201527413db9b1e48141c9bda9958dd0818dbdb9d1c9858dd605a1b604482015290519081900360640190fd5b610a6d61053e565b5060026070541415610ac6576040805162461bcd60e51b815260206004820152601f60248201527f5265656e7472616e637947756172643a207265656e7472616e742063616c6c00604482015290519081900360640190fd5b600260705560658054600090815260676020526040808220849055915481528181205491513392917f84b8b39cd51b9b546002c46c70fab2c1b727ccd4b78d23cb126abbb965a8e79691a3606554610b1f9060016113c8565b606555506001607055565b610b32611369565b6001600160a01b0316610b43610eb4565b6001600160a01b031614610b9e576040805162461bcd60e51b815260206004820181905260248201527f4f776e61626c653a2063616c6c6572206973206e6f7420746865206f776e6572604482015290519081900360640190fd5b6033546040516000916001600160a01b0316907f8be0079c531659141344cd1fd0a4f28419497f9722a3daafe3b4186f6b6457e0908390a3603380546001600160a01b0319169055565b6066546001600160a01b031681565b60676020526000908152604090208054600182015460029092015490919060ff8082169161010090041684565b610c2c61053e565b5060026070541415610c85576040805162461bcd60e51b815260206004820152601f60248201527f5265656e7472616e637947756172643a207265656e7472616e742063616c6c00604482015290519081900360640190fd5b60026070556066546001600160a01b03163314610cd35760405162461bcd60e51b815260040180806020018281038252602b815260200180611d79602b913960400191505060405180910390fd5b600082815260676020526040902060020154610100900460ff1615610d295760405162461bcd60e51b8152600401808060200182810382526024815260200180611cdf6024913960400191505060405180910390fd5b6068546000838152606760209081526040808320548151637ddc91e760e11b8152600481019190915290516001600160a01b039094169363fbb923ce93602480840194938390030190829087803b158015610d8357600080fd5b505af1158015610d97573d6000803e3d6000fd5b505050506040513d6020811015610dad57600080fd5b50516000838152606760205260408082205481516361820b3960e01b81526004810191909152841515602482015290516001600160a01b03909316926361820b399260448084019391929182900301818387803b158015610e0d57600080fd5b505af1158015610e21573d6000803e3d6000fd5b505050508015610e5257600082815260676020526040902060018181018190556002909101805460ff191690911790555b60008281526067602090815260409182902060028101805461ff00191661010017905554825184151581529251339391927f3fb74d6e0075eb59087dded98c690b788d0da980a5dc8e55bc95b130cd376991928290030190a350506001607055565b6033546001600160a01b031690565b600054610100900460ff1680610edc5750610edc611226565b80610eea575060005460ff16155b610f255760405162461bcd60e51b815260040180806020018281038252602e815260200180611d25602e913960400191505060405180910390fd5b600054610100900460ff16158015610f50576000805460ff1961ff0019909116610100171660011790555b6001600160a01b038516610f955760405162461bcd60e51b8152600401808060200182810382526022815260200180611d036022913960400191505060405180910390fd5b83610fd15760405162461bcd60e51b815260040180806020018281038252603b815260200180611dc9603b913960400191505060405180910390fd5b8261100d5760405162461bcd60e51b815260040180806020018281038252603f815260200180611c7a603f913960400191505060405180910390fd5b6110156103b1565b606880546001600160a01b038085166001600160a01b031992831617909255606680549288169290911691909117905560696020527f581f23a4a0deb400a8a4e06663ebf76ff0f0b604e60a13eda480f71b646f10a98490557f3f865dedbc67ccfb5808b39aa5f97fc73fd2525f9b72b3ec09fff2b4cf1809d06000527fd3e324e2cafe12a9f62bcfe0d0539288ba8c4893a71b42b860c74fe88dc78a6c83905580156110c8576000805461ff00191690555b5050505050565b606a54606b54606c5483565b7f3f865dedbc67ccfb5808b39aa5f97fc73fd2525f9b72b3ec09fff2b4cf1809d081565b60696020526000908152604090205481565b611119611369565b6001600160a01b031661112a610eb4565b6001600160a01b031614611185576040805162461bcd60e51b815260206004820181905260248201527f4f776e61626c653a2063616c6c6572206973206e6f7420746865206f776e6572604482015290519081900360640190fd5b6001600160a01b0381166111ca5760405162461bcd60e51b8152600401808060200182810382526026815260200180611cb96026913960400191505060405180910390fd5b6033546040516001600160a01b038084169216907f8be0079c531659141344cd1fd0a4f28419497f9722a3daafe3b4186f6b6457e090600090a3603380546001600160a01b0319166001600160a01b0392909216919091179055565b6000611231306114a6565b15905090565b600054610100900460ff16806112505750611250611226565b8061125e575060005460ff16155b6112995760405162461bcd60e51b815260040180806020018281038252602e815260200180611d25602e913960400191505060405180910390fd5b600054610100900460ff161580156112c4576000805460ff1961ff0019909116610100171660011790555b6112cc6114ac565b61044e61154c565b600054610100900460ff16806112ed57506112ed611226565b806112fb575060005460ff16155b6113365760405162461bcd60e51b815260040180806020018281038252602e815260200180611d25602e913960400191505060405180910390fd5b600054610100900460ff16158015611361576000805460ff1961ff0019909116610100171660011790555b61044e611645565b3390565b805460009081526003909101602052604090206002015490565b805460008181526003830160205260409020600201546113a6836116eb565b50915091565b6000828152606f6020526040902060010154610976908261179f565b600082820183811015611422576040805162461bcd60e51b815260206004820152601b60248201527f536166654d6174683a206164646974696f6e206f766572666c6f770000000000604482015290519081900360640190fd5b9392505050565b606e546114379060016113c8565b606e55604080518082019091528084801561144e57fe5b81526020908101839052606e546000908152606f9091526040902081518154829060ff1916600183801561147e57fe5b021790555060209190910151600190910155606e546114a190606a9084906119da565b505050565b3b151590565b600054610100900460ff16806114c557506114c5611226565b806114d3575060005460ff16155b61150e5760405162461bcd60e51b815260040180806020018281038252602e815260200180611d25602e913960400191505060405180910390fd5b600054610100900460ff1615801561044e576000805460ff1961ff0019909116610100171660011790558015610460576000805461ff001916905550565b600054610100900460ff16806115655750611565611226565b80611573575060005460ff16155b6115ae5760405162461bcd60e51b815260040180806020018281038252602e815260200180611d25602e913960400191505060405180910390fd5b600054610100900460ff161580156115d9576000805460ff1961ff0019909116610100171660011790555b60006115e3611369565b603380546001600160a01b0319166001600160a01b038316908117909155604051919250906000907f8be0079c531659141344cd1fd0a4f28419497f9722a3daafe3b4186f6b6457e0908290a3508015610460576000805461ff001916905550565b600054610100900460ff168061165e575061165e611226565b8061166c575060005460ff16155b6116a75760405162461bcd60e51b815260040180806020018281038252602e815260200180611d25602e913960400191505060405180910390fd5b600054610100900460ff161580156116d2576000805460ff1961ff0019909116610100171660011790555b60016070558015610460576000805461ff001916905550565b60008082600201541161172f5760405162461bcd60e51b8152600401808060200182810382526025815260200180611da46025913960400191505060405180910390fd5b50805460028201546001141561174e576000808355600183015561176e565b815460009081526003830160205260408082205480855582528120600101555b6000818152600383016020526040812081815560018101829055600290810191909155909101805460001901905590565b60685460408051637ddc91e760e11b81526004810185905290516001600160a01b039092169163fbb923ce916024808201926020929091908290030181600087803b1580156117ed57600080fd5b505af1158015611801573d6000803e3d6000fd5b505050506040513d602081101561181757600080fd5b505160408051633cf3333b60e11b81526004810185905290516001600160a01b03909216916379e6667691602480820192602092909190829003018186803b15801561186257600080fd5b505afa158015611876573d6000803e3d6000fd5b505050506040513d602081101561188c57600080fd5b5051156119745760685460408051637ddc91e760e11b81526004810185905290516001600160a01b039092169163fbb923ce916024808201926020929091908290030181600087803b1580156118e157600080fd5b505af11580156118f5573d6000803e3d6000fd5b505050506040513d602081101561190b57600080fd5b5051604080516338f40f5b60e01b81526004810185905290516001600160a01b03909216916338f40f5b9160248082019260009290919082900301818387803b15801561195757600080fd5b505af115801561196b573d6000803e3d6000fd5b50505050610976565b7f3f865dedbc67ccfb5808b39aa5f97fc73fd2525f9b72b3ec09fff2b4cf1809d0600090815260696020527fd3e324e2cafe12a9f62bcfe0d0539288ba8c4893a71b42b860c74fe88dc78a6c546119cc9083906113c8565b90506114a160008285611429565b80611a2c576040805162461bcd60e51b815260206004820181905260248201527f49642073686f756c6420626520646966666572656e742066726f6d207a65726f604482015290519081900360640190fd5b82546000818152600385016020908152604091829020825160608101845281548152600182015492810192909252600201549181019190915290611ab9578184556001808501839055604080516060810182526000808252602080830182815283850189815288845260038b01909252939091209151825591519281019290925551600290910155611c6a565b8060400151831015611b215783546000908152600385016020818152604080842060019081018790558151606081018352895481528084018681528184018a815289885295909452919094209051815590519281019290925551600290910155818455611c6a565b600184600201541115611bf85760015b8460020154811015611bf65790516000908152600385016020908152604091829020825160608101845281548152600182015492810192909252600201549181018290529190841015611bee578151600090815260038601602081815260408084206001908101548086528286208201805484516060810186528381528087018281528187018e81528d8b529890975285892090518155955193860193909355945160029094019390935584528320869055909152839055611bf6565b600101611b31565b505b60008281526003850160205260409020600201548314611c6a576040805160608101825260008082526001808801805460208086019182528587018a815289865260038c0190915286852095518655905192850192909255905160029093019290925581548152919091208390558290555b5050506002018054600101905556fe43616e6e6f7420696e697469616c697a65206c6174654170706c69636174696f6e73466f72496e766573746d656e744475726174696f6e5f207769746820304f776e61626c653a206e6577206f776e657220697320746865207a65726f206164647265737343616e6e6f742070726f6365737320616761696e2073616d6520696e766573746d656e7443616e6e6f7420696e697469616c697a652077697468203020616464726573736573496e697469616c697a61626c653a20636f6e747261637420697320616c726561647920696e697469616c697a65645468652070726f6a656374206d75737420626520696e20617070726f766564207374617475734f6e6c792073757065722064656c656761746f722063616e2063616c6c20746869732066756e6374696f6e43616e6e6f7420706f7020616e206974656d2066726f6d20616e20656d707479206c69737443616e6e6f7420696e697469616c697a65206170706c69636174696f6e73466f72496e766573746d656e744475726174696f6e5f20776974682030a264697066735822122004c8daf8cb71d9296fbbf5780fb0fb3cd1c8ca228d9c1dfdee74eeb12aebe4f864736f6c63430007060033",
  "devdoc": {
    "details": "Extends Initializable, SuperGovernance",
    "kind": "dev",
    "methods": {
      "checkCronjobs()": {
        "details": "Calls executeCronjob() at the most 1 cronJob per tx"
      },
      "initialize(address,uint256,uint256,address)": {
        "params": {
          "applicationsForInvestmentDuration_": "duration for applications for investment",
          "lateApplicationsForInvestmentDuration_": "duration for late applications for investment",
          "superDelegator_": "The address of the admin in charge during the first epoch"
        }
      },
      "owner()": {
        "details": "Returns the address of the current owner."
      },
      "renounceOwnership()": {
        "details": "Leaves the contract without owner. It will not be possible to call `onlyOwner` functions anymore. Can only be called by the current owner. NOTE: Renouncing ownership will leave the contract without an owner, thereby removing any functionality that is only available to the owner."
      },
      "requestApproval(uint256)": {
        "details": "Executes cronJob()",
        "params": {
          "projectId": "The id of the investment or investment to approve"
        }
      },
      "startLotteryPhase(uint256)": {
        "details": "First check if the lottery should start",
        "params": {
          "projectId": "The id of the project to update"
        }
      },
      "storeInvestmentTriggering(uint256)": {
        "details": "Adds cronJob",
        "params": {
          "projectId": "The id of the investment to store"
        }
      },
      "superVoteForRequest(uint256,bool)": {
        "details": "Executes cronJobrequires msg.sender to be Super Delegatorrequires current epoch to be 0 or 1",
        "params": {
          "decision": "the decision (Approve / Deny)",
          "requestId": "the Request ID"
        }
      },
      "transferOwnership(address)": {
        "details": "Transfers ownership of the contract to a new account (`newOwner`). Can only be called by the current owner."
      },
      "updateSuperDelegator(address)": {
        "details": "This function is used to update the superDelegator address.",
        "params": {
          "superDelegator_": "The address of the upgraded super delegator."
        }
      }
    },
    "title": "AllianceBlock Governance contract",
    "version": 1
  },
  "userdoc": {
    "kind": "user",
    "methods": {
      "checkCronjobs()": {
        "notice": "Checks if needs to execute a DAO cronJob"
      },
      "initialize(address,uint256,uint256,address)": {
        "notice": "Initialize the contract."
      },
      "requestApproval(uint256)": {
        "notice": "Request a investment or investment approval"
      },
      "startLotteryPhase(uint256)": {
        "notice": "Start lottery phase"
      },
      "storeInvestmentTriggering(uint256)": {
        "notice": "Stores Investment Duration"
      },
      "superVoteForRequest(uint256,bool)": {
        "notice": "Votes for Request"
      },
      "updateSuperDelegator(address)": {
        "notice": "Update Superdelegator"
      }
    },
    "notice": "Responsible for governing AllianceBlock's ecosystem",
    "version": 1
  },
  "storageLayout": {
    "storage": [
      {
        "astId": 890,
        "contract": "contracts/Governance.sol:Governance",
        "label": "_initialized",
        "offset": 0,
        "slot": "0",
        "type": "t_bool"
      },
      {
        "astId": 893,
        "contract": "contracts/Governance.sol:Governance",
        "label": "_initializing",
        "offset": 1,
        "slot": "0",
        "type": "t_bool"
      },
      {
        "astId": 2584,
        "contract": "contracts/Governance.sol:Governance",
        "label": "__gap",
        "offset": 0,
        "slot": "1",
        "type": "t_array(t_uint256)50_storage"
      },
      {
        "astId": 321,
        "contract": "contracts/Governance.sol:Governance",
        "label": "_owner",
        "offset": 0,
        "slot": "51",
        "type": "t_address"
      },
      {
        "astId": 440,
        "contract": "contracts/Governance.sol:Governance",
        "label": "__gap",
        "offset": 0,
        "slot": "52",
        "type": "t_array(t_uint256)49_storage"
      },
      {
        "astId": 9108,
        "contract": "contracts/Governance.sol:Governance",
        "label": "totalApprovalRequests",
        "offset": 0,
        "slot": "101",
        "type": "t_uint256"
      },
      {
        "astId": 9110,
        "contract": "contracts/Governance.sol:Governance",
        "label": "superDelegator",
        "offset": 0,
        "slot": "102",
        "type": "t_address"
      },
      {
        "astId": 9114,
        "contract": "contracts/Governance.sol:Governance",
        "label": "approvalRequests",
        "offset": 0,
        "slot": "103",
        "type": "t_mapping(t_uint256,t_struct(ApprovalRequest)9086_storage)"
      },
      {
        "astId": 9116,
        "contract": "contracts/Governance.sol:Governance",
        "label": "projectManager",
        "offset": 0,
        "slot": "104",
        "type": "t_contract(IProjectManager)9664"
      },
      {
        "astId": 9120,
        "contract": "contracts/Governance.sol:Governance",
        "label": "updatableVariables",
        "offset": 0,
        "slot": "105",
        "type": "t_mapping(t_bytes32,t_uint256)"
      },
      {
        "astId": 9129,
        "contract": "contracts/Governance.sol:Governance",
        "label": "cronjobList",
        "offset": 0,
        "slot": "106",
        "type": "t_struct(LinkedList)10213_storage"
      },
      {
        "astId": 9131,
        "contract": "contracts/Governance.sol:Governance",
        "label": "totalCronjobs",
        "offset": 0,
        "slot": "110",
        "type": "t_uint256"
      },
      {
        "astId": 9135,
        "contract": "contracts/Governance.sol:Governance",
        "label": "cronjobs",
        "offset": 0,
        "slot": "111",
        "type": "t_mapping(t_uint256,t_struct(Cronjob)9127_storage)"
      },
      {
        "astId": 3091,
        "contract": "contracts/Governance.sol:Governance",
        "label": "_status",
        "offset": 0,
        "slot": "112",
        "type": "t_uint256"
      },
      {
        "astId": 3134,
        "contract": "contracts/Governance.sol:Governance",
        "label": "__gap",
        "offset": 0,
        "slot": "113",
        "type": "t_array(t_uint256)49_storage"
      }
    ],
    "types": {
      "t_address": {
        "encoding": "inplace",
        "label": "address",
        "numberOfBytes": "20"
      },
      "t_array(t_uint256)49_storage": {
        "base": "t_uint256",
        "encoding": "inplace",
        "label": "uint256[49]",
        "numberOfBytes": "1568"
      },
      "t_array(t_uint256)50_storage": {
        "base": "t_uint256",
        "encoding": "inplace",
        "label": "uint256[50]",
        "numberOfBytes": "1600"
      },
      "t_bool": {
        "encoding": "inplace",
        "label": "bool",
        "numberOfBytes": "1"
      },
      "t_bytes32": {
        "encoding": "inplace",
        "label": "bytes32",
        "numberOfBytes": "32"
      },
      "t_contract(IProjectManager)9664": {
        "encoding": "inplace",
        "label": "contract IProjectManager",
        "numberOfBytes": "20"
      },
      "t_enum(CronjobType)9122": {
        "encoding": "inplace",
        "label": "enum GovernanceTypesAndStorage.CronjobType",
        "numberOfBytes": "1"
      },
      "t_mapping(t_bytes32,t_uint256)": {
        "encoding": "mapping",
        "key": "t_bytes32",
        "label": "mapping(bytes32 => uint256)",
        "numberOfBytes": "32",
        "value": "t_uint256"
      },
      "t_mapping(t_uint256,t_struct(ApprovalRequest)9086_storage)": {
        "encoding": "mapping",
        "key": "t_uint256",
        "label": "mapping(uint256 => struct GovernanceTypesAndStorage.ApprovalRequest)",
        "numberOfBytes": "32",
        "value": "t_struct(ApprovalRequest)9086_storage"
      },
      "t_mapping(t_uint256,t_struct(Cronjob)9127_storage)": {
        "encoding": "mapping",
        "key": "t_uint256",
        "label": "mapping(uint256 => struct GovernanceTypesAndStorage.Cronjob)",
        "numberOfBytes": "32",
        "value": "t_struct(Cronjob)9127_storage"
      },
      "t_mapping(t_uint256,t_struct(Node)10202_storage)": {
        "encoding": "mapping",
        "key": "t_uint256",
        "label": "mapping(uint256 => struct OrderedDoubleLinkedList.Node)",
        "numberOfBytes": "32",
        "value": "t_struct(Node)10202_storage"
      },
      "t_struct(ApprovalRequest)9086_storage": {
        "encoding": "inplace",
        "label": "struct GovernanceTypesAndStorage.ApprovalRequest",
        "members": [
          {
            "astId": 9079,
            "contract": "contracts/Governance.sol:Governance",
            "label": "projectId",
            "offset": 0,
            "slot": "0",
            "type": "t_uint256"
          },
          {
            "astId": 9081,
            "contract": "contracts/Governance.sol:Governance",
            "label": "approvalsProvided",
            "offset": 0,
            "slot": "1",
            "type": "t_uint256"
          },
          {
            "astId": 9083,
            "contract": "contracts/Governance.sol:Governance",
            "label": "isApproved",
            "offset": 0,
            "slot": "2",
            "type": "t_bool"
          },
          {
            "astId": 9085,
            "contract": "contracts/Governance.sol:Governance",
            "label": "isProcessed",
            "offset": 1,
            "slot": "2",
            "type": "t_bool"
          }
        ],
        "numberOfBytes": "96"
      },
      "t_struct(Cronjob)9127_storage": {
        "encoding": "inplace",
        "label": "struct GovernanceTypesAndStorage.Cronjob",
        "members": [
          {
            "astId": 9124,
            "contract": "contracts/Governance.sol:Governance",
            "label": "cronjobType",
            "offset": 0,
            "slot": "0",
            "type": "t_enum(CronjobType)9122"
          },
          {
            "astId": 9126,
            "contract": "contracts/Governance.sol:Governance",
            "label": "projectId",
            "offset": 0,
            "slot": "1",
            "type": "t_uint256"
          }
        ],
        "numberOfBytes": "64"
      },
      "t_struct(LinkedList)10213_storage": {
        "encoding": "inplace",
        "label": "struct OrderedDoubleLinkedList.LinkedList",
        "members": [
          {
            "astId": 10204,
            "contract": "contracts/Governance.sol:Governance",
            "label": "head",
            "offset": 0,
            "slot": "0",
            "type": "t_uint256"
          },
          {
            "astId": 10206,
            "contract": "contracts/Governance.sol:Governance",
            "label": "tail",
            "offset": 0,
            "slot": "1",
            "type": "t_uint256"
          },
          {
            "astId": 10208,
            "contract": "contracts/Governance.sol:Governance",
            "label": "size",
            "offset": 0,
            "slot": "2",
            "type": "t_uint256"
          },
          {
            "astId": 10212,
            "contract": "contracts/Governance.sol:Governance",
            "label": "nodes",
            "offset": 0,
            "slot": "3",
            "type": "t_mapping(t_uint256,t_struct(Node)10202_storage)"
          }
        ],
        "numberOfBytes": "128"
      },
      "t_struct(Node)10202_storage": {
        "encoding": "inplace",
        "label": "struct OrderedDoubleLinkedList.Node",
        "members": [
          {
            "astId": 10197,
            "contract": "contracts/Governance.sol:Governance",
            "label": "next",
            "offset": 0,
            "slot": "0",
            "type": "t_uint256"
          },
          {
            "astId": 10199,
            "contract": "contracts/Governance.sol:Governance",
            "label": "previous",
            "offset": 0,
            "slot": "1",
            "type": "t_uint256"
          },
          {
            "astId": 10201,
            "contract": "contracts/Governance.sol:Governance",
            "label": "value",
            "offset": 0,
            "slot": "2",
            "type": "t_uint256"
          }
        ],
        "numberOfBytes": "96"
      },
      "t_uint256": {
        "encoding": "inplace",
        "label": "uint256",
        "numberOfBytes": "32"
      }
    }
  }
}