{
  "address": "0x4b9491B9209956d62272Dbe7478EBC2FEe8A634A",
  "abi": [
    {
      "anonymous": false,
      "inputs": [
        {
          "indexed": true,
          "internalType": "uint256",
          "name": "loanId",
          "type": "uint256"
        },
        {
          "indexed": true,
          "internalType": "bool",
          "name": "isMilestone",
          "type": "bool"
        },
        {
          "indexed": false,
          "internalType": "uint256",
          "name": "milestoneNumber",
          "type": "uint256"
        },
        {
          "indexed": true,
          "internalType": "address",
          "name": "user",
          "type": "address"
        }
      ],
      "name": "ApprovalRequested",
      "type": "event"
    },
    {
      "anonymous": false,
      "inputs": [
        {
          "indexed": true,
          "internalType": "address",
          "name": "registryAddress_",
          "type": "address"
        },
        {
          "indexed": true,
          "internalType": "address",
          "name": "stakingAddress_",
          "type": "address"
        },
        {
          "indexed": true,
          "internalType": "address",
          "name": "user",
          "type": "address"
        }
      ],
      "name": "InitGovernance",
      "type": "event"
    },
    {
      "anonymous": false,
      "inputs": [
        {
          "indexed": true,
          "internalType": "address",
          "name": "previousOwner",
          "type": "address"
        },
        {
          "indexed": true,
          "internalType": "address",
          "name": "newOwner",
          "type": "address"
        }
      ],
      "name": "OwnershipTransferred",
      "type": "event"
    },
    {
      "anonymous": false,
      "inputs": [
        {
          "indexed": true,
          "internalType": "uint256",
          "name": "loanId",
          "type": "uint256"
        },
        {
          "indexed": true,
          "internalType": "uint256",
          "name": "requestId",
          "type": "uint256"
        },
        {
          "indexed": false,
          "internalType": "bool",
          "name": "decision",
          "type": "bool"
        },
        {
          "indexed": true,
          "internalType": "address",
          "name": "user",
          "type": "address"
        }
      ],
      "name": "VotedForRequest",
      "type": "event"
    },
    {
      "inputs": [
        {
          "internalType": "address",
          "name": "",
          "type": "address"
        }
      ],
      "name": "addressToId",
      "outputs": [
        {
          "internalType": "uint256",
          "name": "",
          "type": "uint256"
        }
      ],
      "stateMutability": "view",
      "type": "function"
    },
    {
      "inputs": [
        {
          "internalType": "uint256",
          "name": "",
          "type": "uint256"
        }
      ],
      "name": "amountOfEpochDaoDelegatorsNeededPerEpoch",
      "outputs": [
        {
          "internalType": "uint256",
          "name": "",
          "type": "uint256"
        }
      ],
      "stateMutability": "view",
      "type": "function"
    },
    {
      "inputs": [
        {
          "internalType": "uint256",
          "name": "",
          "type": "uint256"
        }
      ],
      "name": "amountOfEpochDaoMembersNeededPerEpoch",
      "outputs": [
        {
          "internalType": "uint256",
          "name": "",
          "type": "uint256"
        }
      ],
      "stateMutability": "view",
      "type": "function"
    },
    {
      "inputs": [
        {
          "internalType": "uint256",
          "name": "",
          "type": "uint256"
        }
      ],
      "name": "amountOfSubstitutesRequested",
      "outputs": [
        {
          "internalType": "uint256",
          "name": "",
          "type": "uint256"
        }
      ],
      "stateMutability": "view",
      "type": "function"
    },
    {
      "inputs": [
        {
          "internalType": "uint256",
          "name": "",
          "type": "uint256"
        }
      ],
      "name": "approvalRequests",
      "outputs": [
        {
          "internalType": "uint256",
          "name": "loanId",
          "type": "uint256"
        },
        {
          "internalType": "bool",
          "name": "isMilestone",
          "type": "bool"
        },
        {
          "internalType": "uint256",
          "name": "milestoneNumber",
          "type": "uint256"
        },
        {
          "internalType": "uint256",
          "name": "deadlineTimestamp",
          "type": "uint256"
        },
        {
          "internalType": "uint256",
          "name": "approvalsProvided",
          "type": "uint256"
        },
        {
          "internalType": "bool",
          "name": "isApproved",
          "type": "bool"
        },
        {
          "internalType": "uint256",
          "name": "epochSubmitted",
          "type": "uint256"
        }
      ],
      "stateMutability": "view",
      "type": "function"
    },
    {
      "inputs": [
        {
          "internalType": "string",
          "name": "password",
          "type": "string"
        },
        {
          "internalType": "address",
          "name": "daoDelegatorToVoteFor",
          "type": "address"
        }
      ],
      "name": "approveVoteForDaoDelegator",
      "outputs": [],
      "stateMutability": "nonpayable",
      "type": "function"
    },
    {
      "inputs": [
        {
          "internalType": "uint256",
          "name": "",
          "type": "uint256"
        },
        {
          "internalType": "uint256",
          "name": "",
          "type": "uint256"
        }
      ],
      "name": "bannedDelegator",
      "outputs": [
        {
          "internalType": "bool",
          "name": "",
          "type": "bool"
        }
      ],
      "stateMutability": "view",
      "type": "function"
    },
    {
      "inputs": [],
      "name": "checkCronjobs",
      "outputs": [
        {
          "internalType": "bool",
          "name": "",
          "type": "bool"
        }
      ],
      "stateMutability": "nonpayable",
      "type": "function"
    },
    {
      "inputs": [],
      "name": "claimDaoDelegation",
      "outputs": [],
      "stateMutability": "nonpayable",
      "type": "function"
    },
    {
      "inputs": [],
      "name": "claimDaoMembership",
      "outputs": [],
      "stateMutability": "nonpayable",
      "type": "function"
    },
    {
      "inputs": [],
      "name": "claimDaoSubstituteDelegation",
      "outputs": [],
      "stateMutability": "nonpayable",
      "type": "function"
    },
    {
      "inputs": [],
      "name": "cronjobList",
      "outputs": [
        {
          "internalType": "uint256",
          "name": "head",
          "type": "uint256"
        },
        {
          "internalType": "uint256",
          "name": "tail",
          "type": "uint256"
        },
        {
          "internalType": "uint256",
          "name": "size",
          "type": "uint256"
        }
      ],
      "stateMutability": "view",
      "type": "function"
    },
    {
      "inputs": [
        {
          "internalType": "uint256",
          "name": "",
          "type": "uint256"
        }
      ],
      "name": "cronjobs",
      "outputs": [
        {
          "internalType": "enum GovernanceTypesAndStorage.CronjobType",
          "name": "cronjobType",
          "type": "uint8"
        },
        {
          "internalType": "uint256",
          "name": "externalId",
          "type": "uint256"
        }
      ],
      "stateMutability": "view",
      "type": "function"
    },
    {
      "inputs": [],
      "name": "currentEpoch",
      "outputs": [
        {
          "internalType": "uint256",
          "name": "",
          "type": "uint256"
        }
      ],
      "stateMutability": "view",
      "type": "function"
    },
    {
      "inputs": [],
      "name": "daoDelegatorsListForUpcomingEpoch",
      "outputs": [
        {
          "internalType": "uint256",
          "name": "head",
          "type": "uint256"
        },
        {
          "internalType": "uint256",
          "name": "tail",
          "type": "uint256"
        },
        {
          "internalType": "uint256",
          "name": "size",
          "type": "uint256"
        }
      ],
      "stateMutability": "view",
      "type": "function"
    },
    {
      "inputs": [],
      "name": "daoMembersListForUpcomingEpoch",
      "outputs": [
        {
          "internalType": "uint256",
          "name": "head",
          "type": "uint256"
        },
        {
          "internalType": "uint256",
          "name": "tail",
          "type": "uint256"
        },
        {
          "internalType": "uint256",
          "name": "size",
          "type": "uint256"
        }
      ],
      "stateMutability": "view",
      "type": "function"
    },
    {
      "inputs": [],
      "name": "daoSubstituteDelegatorsListForCurrentEpoch",
      "outputs": [
        {
          "internalType": "uint256",
          "name": "head",
          "type": "uint256"
        },
        {
          "internalType": "uint256",
          "name": "tail",
          "type": "uint256"
        },
        {
          "internalType": "uint256",
          "name": "size",
          "type": "uint256"
        }
      ],
      "stateMutability": "view",
      "type": "function"
    },
    {
      "inputs": [],
      "name": "daoSubstituteMembersListForCurrentEpoch",
      "outputs": [
        {
          "internalType": "uint256",
          "name": "head",
          "type": "uint256"
        },
        {
          "internalType": "uint256",
          "name": "tail",
          "type": "uint256"
        },
        {
          "internalType": "uint256",
          "name": "size",
          "type": "uint256"
        }
      ],
      "stateMutability": "view",
      "type": "function"
    },
    {
      "inputs": [
        {
          "internalType": "uint256",
          "name": "",
          "type": "uint256"
        }
      ],
      "name": "epochDaoDelegators",
      "outputs": [
        {
          "internalType": "uint256",
          "name": "head",
          "type": "uint256"
        },
        {
          "internalType": "uint256",
          "name": "tail",
          "type": "uint256"
        },
        {
          "internalType": "uint256",
          "name": "size",
          "type": "uint256"
        }
      ],
      "stateMutability": "view",
      "type": "function"
    },
    {
      "inputs": [
        {
          "internalType": "uint256",
          "name": "",
          "type": "uint256"
        }
      ],
      "name": "epochDaoMembers",
      "outputs": [
        {
          "internalType": "uint256",
          "name": "head",
          "type": "uint256"
        },
        {
          "internalType": "uint256",
          "name": "tail",
          "type": "uint256"
        },
        {
          "internalType": "uint256",
          "name": "size",
          "type": "uint256"
        }
      ],
      "stateMutability": "view",
      "type": "function"
    },
    {
      "inputs": [],
      "name": "getDaoData",
      "outputs": [
        {
          "internalType": "uint256",
          "name": "",
          "type": "uint256"
        },
        {
          "internalType": "uint256",
          "name": "",
          "type": "uint256"
        },
        {
          "internalType": "uint256",
          "name": "",
          "type": "uint256"
        },
        {
          "internalType": "uint256",
          "name": "",
          "type": "uint256"
        },
        {
          "internalType": "uint256",
          "name": "",
          "type": "uint256"
        }
      ],
      "stateMutability": "view",
      "type": "function"
    },
    {
      "inputs": [
        {
          "internalType": "address",
          "name": "",
          "type": "address"
        },
        {
          "internalType": "uint256",
          "name": "",
          "type": "uint256"
        }
      ],
      "name": "hasApprovedForDaoDelegatorPerEpoch",
      "outputs": [
        {
          "internalType": "bool",
          "name": "",
          "type": "bool"
        }
      ],
      "stateMutability": "view",
      "type": "function"
    },
    {
      "inputs": [
        {
          "internalType": "address",
          "name": "",
          "type": "address"
        },
        {
          "internalType": "uint256",
          "name": "",
          "type": "uint256"
        }
      ],
      "name": "hasVotedForDaoDelegatorPerEpoch",
      "outputs": [
        {
          "internalType": "bool",
          "name": "",
          "type": "bool"
        }
      ],
      "stateMutability": "view",
      "type": "function"
    },
    {
      "inputs": [
        {
          "internalType": "address",
          "name": "",
          "type": "address"
        },
        {
          "internalType": "uint256",
          "name": "",
          "type": "uint256"
        }
      ],
      "name": "hasVotedForDaoMemberPerEpoch",
      "outputs": [
        {
          "internalType": "bool",
          "name": "",
          "type": "bool"
        }
      ],
      "stateMutability": "view",
      "type": "function"
    },
    {
      "inputs": [
        {
          "internalType": "address",
          "name": "",
          "type": "address"
        },
        {
          "internalType": "uint256",
          "name": "",
          "type": "uint256"
        }
      ],
      "name": "hasVotedForRequestId",
      "outputs": [
        {
          "internalType": "bool",
          "name": "",
          "type": "bool"
        }
      ],
      "stateMutability": "view",
      "type": "function"
    },
    {
      "inputs": [
        {
          "internalType": "uint256",
          "name": "",
          "type": "uint256"
        }
      ],
      "name": "idToAddress",
      "outputs": [
        {
          "internalType": "address",
          "name": "",
          "type": "address"
        }
      ],
      "stateMutability": "view",
      "type": "function"
    },
    {
      "inputs": [
        {
          "internalType": "address",
          "name": "superDelegator_",
          "type": "address"
        },
        {
          "internalType": "uint256",
          "name": "loanApprovalRequestDuration_",
          "type": "uint256"
        },
        {
          "internalType": "uint256",
          "name": "milestoneApprovalRequestDuration_",
          "type": "uint256"
        },
        {
          "internalType": "uint256",
          "name": "daoUpdateRequestDuration_",
          "type": "uint256"
        },
        {
          "internalType": "uint256",
          "name": "approvalsNeededForRegistryRequest_",
          "type": "uint256"
        },
        {
          "internalType": "uint256",
          "name": "approvalsNeededForGovernanceRequest_",
          "type": "uint256"
        },
        {
          "internalType": "uint256",
          "name": "applicationsForInvestmentDuration_",
          "type": "uint256"
        },
        {
          "internalType": "uint256",
          "name": "lateApplicationsForInvestmentDuration_",
          "type": "uint256"
        }
      ],
      "name": "initialize",
      "outputs": [],
      "stateMutability": "nonpayable",
      "type": "function"
    },
    {
      "inputs": [
        {
          "internalType": "address",
          "name": "account",
          "type": "address"
        },
        {
          "internalType": "uint256",
          "name": "epoch",
          "type": "uint256"
        }
      ],
      "name": "isDaoAssociated",
      "outputs": [
        {
          "internalType": "bool",
          "name": "",
          "type": "bool"
        },
        {
          "internalType": "bool",
          "name": "",
          "type": "bool"
        },
        {
          "internalType": "uint256",
          "name": "",
          "type": "uint256"
        },
        {
          "internalType": "uint256",
          "name": "",
          "type": "uint256"
        }
      ],
      "stateMutability": "view",
      "type": "function"
    },
    {
      "inputs": [
        {
          "internalType": "address",
          "name": "",
          "type": "address"
        },
        {
          "internalType": "uint256",
          "name": "",
          "type": "uint256"
        }
      ],
      "name": "isEpochDaoDelegator",
      "outputs": [
        {
          "internalType": "bool",
          "name": "",
          "type": "bool"
        }
      ],
      "stateMutability": "view",
      "type": "function"
    },
    {
      "inputs": [
        {
          "internalType": "address",
          "name": "",
          "type": "address"
        },
        {
          "internalType": "uint256",
          "name": "",
          "type": "uint256"
        }
      ],
      "name": "isEpochDaoMember",
      "outputs": [
        {
          "internalType": "bool",
          "name": "",
          "type": "bool"
        }
      ],
      "stateMutability": "view",
      "type": "function"
    },
    {
      "inputs": [
        {
          "internalType": "uint256",
          "name": "amountOfDaoDelegators_",
          "type": "uint256"
        },
        {
          "internalType": "uint256",
          "name": "daoMembershipVotingDuration_",
          "type": "uint256"
        },
        {
          "internalType": "uint256",
          "name": "daoDelegationVotingDuration_",
          "type": "uint256"
        },
        {
          "internalType": "uint256",
          "name": "daoDelegationApprovalDuration_",
          "type": "uint256"
        },
        {
          "internalType": "uint256",
          "name": "daoDelegationSubstituteClaimDuration_",
          "type": "uint256"
        }
      ],
      "name": "openDaoDelegating",
      "outputs": [],
      "stateMutability": "nonpayable",
      "type": "function"
    },
    {
      "inputs": [
        {
          "internalType": "uint256",
          "name": "amountOfDaoMembers_",
          "type": "uint256"
        },
        {
          "internalType": "uint256",
          "name": "daoClaimingDuration_",
          "type": "uint256"
        },
        {
          "internalType": "uint256",
          "name": "daoLateClaimingDuration_",
          "type": "uint256"
        }
      ],
      "name": "openDaoDelegatingSubscriptions",
      "outputs": [],
      "stateMutability": "nonpayable",
      "type": "function"
    },
    {
      "inputs": [],
      "name": "openDaoDelegatingVoting",
      "outputs": [],
      "stateMutability": "nonpayable",
      "type": "function"
    },
    {
      "inputs": [],
      "name": "openDaoMembershipSubscriptions",
      "outputs": [],
      "stateMutability": "nonpayable",
      "type": "function"
    },
    {
      "inputs": [],
      "name": "openDaoMembershipVoting",
      "outputs": [],
      "stateMutability": "nonpayable",
      "type": "function"
    },
    {
      "inputs": [],
      "name": "owner",
      "outputs": [
        {
          "internalType": "address",
          "name": "",
          "type": "address"
        }
      ],
      "stateMutability": "view",
      "type": "function"
    },
    {
      "inputs": [],
      "name": "registry",
      "outputs": [
        {
          "internalType": "contract IRegistry",
          "name": "",
          "type": "address"
        }
      ],
      "stateMutability": "view",
      "type": "function"
    },
    {
      "inputs": [
        {
          "internalType": "uint256",
          "name": "",
          "type": "uint256"
        }
      ],
      "name": "remainingDelegatorIdsToVotePerRequest",
      "outputs": [
        {
          "internalType": "uint256",
          "name": "head",
          "type": "uint256"
        },
        {
          "internalType": "uint256",
          "name": "tail",
          "type": "uint256"
        },
        {
          "internalType": "uint256",
          "name": "size",
          "type": "uint256"
        }
      ],
      "stateMutability": "view",
      "type": "function"
    },
    {
      "inputs": [
        {
          "internalType": "uint256",
          "name": "",
          "type": "uint256"
        }
      ],
      "name": "remainingMemberIdsToVoteForDelegator",
      "outputs": [
        {
          "internalType": "uint256",
          "name": "head",
          "type": "uint256"
        },
        {
          "internalType": "uint256",
          "name": "tail",
          "type": "uint256"
        },
        {
          "internalType": "uint256",
          "name": "size",
          "type": "uint256"
        }
      ],
      "stateMutability": "view",
      "type": "function"
    },
    {
      "inputs": [
        {
          "internalType": "uint256",
          "name": "",
          "type": "uint256"
        }
      ],
      "name": "remainingMemberIdsToVotePerRequest",
      "outputs": [
        {
          "internalType": "uint256",
          "name": "head",
          "type": "uint256"
        },
        {
          "internalType": "uint256",
          "name": "tail",
          "type": "uint256"
        },
        {
          "internalType": "uint256",
          "name": "size",
          "type": "uint256"
        }
      ],
      "stateMutability": "view",
      "type": "function"
    },
    {
      "inputs": [],
      "name": "renounceOwnership",
      "outputs": [],
      "stateMutability": "nonpayable",
      "type": "function"
    },
    {
      "inputs": [
        {
          "internalType": "uint256",
          "name": "loanId",
          "type": "uint256"
        },
        {
          "internalType": "bool",
          "name": "isMilestone",
          "type": "bool"
        },
        {
          "internalType": "uint256",
          "name": "milestoneNumber",
          "type": "uint256"
        }
      ],
      "name": "requestApproval",
      "outputs": [],
      "stateMutability": "nonpayable",
      "type": "function"
    },
    {
      "inputs": [
        {
          "internalType": "uint256",
          "name": "",
          "type": "uint256"
        }
      ],
      "name": "requestsPerEpoch",
      "outputs": [
        {
          "internalType": "uint256",
          "name": "head",
          "type": "uint256"
        },
        {
          "internalType": "uint256",
          "name": "tail",
          "type": "uint256"
        },
        {
          "internalType": "uint256",
          "name": "size",
          "type": "uint256"
        }
      ],
      "stateMutability": "view",
      "type": "function"
    },
    {
      "inputs": [
        {
          "internalType": "uint256",
          "name": "",
          "type": "uint256"
        }
      ],
      "name": "rewardsForDaoDelegatorsPerEpoch",
      "outputs": [
        {
          "internalType": "uint256",
          "name": "",
          "type": "uint256"
        }
      ],
      "stateMutability": "view",
      "type": "function"
    },
    {
      "inputs": [
        {
          "internalType": "uint256",
          "name": "",
          "type": "uint256"
        }
      ],
      "name": "rewardsForDaoMembersPerEpoch",
      "outputs": [
        {
          "internalType": "uint256",
          "name": "",
          "type": "uint256"
        }
      ],
      "stateMutability": "view",
      "type": "function"
    },
    {
      "inputs": [
        {
          "internalType": "address",
          "name": "registryAddress_",
          "type": "address"
        },
        {
          "internalType": "address",
          "name": "stakingAddress_",
          "type": "address"
        }
      ],
      "name": "setRegistryAndStaking",
      "outputs": [],
      "stateMutability": "nonpayable",
      "type": "function"
    },
    {
      "inputs": [],
      "name": "staking",
      "outputs": [
        {
          "internalType": "contract IStaking",
          "name": "",
          "type": "address"
        }
      ],
      "stateMutability": "view",
      "type": "function"
    },
    {
      "inputs": [
        {
          "internalType": "uint256",
          "name": "investmentId",
          "type": "uint256"
        }
      ],
      "name": "storeInvestmentTriggering",
      "outputs": [],
      "stateMutability": "nonpayable",
      "type": "function"
    },
    {
      "inputs": [],
      "name": "subscribeForDaoDelegator",
      "outputs": [],
      "stateMutability": "nonpayable",
      "type": "function"
    },
    {
      "inputs": [],
      "name": "subscribeForDaoMembership",
      "outputs": [],
      "stateMutability": "nonpayable",
      "type": "function"
    },
    {
      "inputs": [
        {
          "internalType": "address",
          "name": "",
          "type": "address"
        }
      ],
      "name": "subscribedForDaoDelegator",
      "outputs": [
        {
          "internalType": "bool",
          "name": "",
          "type": "bool"
        }
      ],
      "stateMutability": "view",
      "type": "function"
    },
    {
      "inputs": [
        {
          "internalType": "address",
          "name": "",
          "type": "address"
        }
      ],
      "name": "subscribedForDaoMembership",
      "outputs": [
        {
          "internalType": "bool",
          "name": "",
          "type": "bool"
        }
      ],
      "stateMutability": "view",
      "type": "function"
    },
    {
      "inputs": [],
      "name": "superDelegator",
      "outputs": [
        {
          "internalType": "address",
          "name": "",
          "type": "address"
        }
      ],
      "stateMutability": "view",
      "type": "function"
    },
    {
      "inputs": [
        {
          "internalType": "uint256",
          "name": "requestId",
          "type": "uint256"
        },
        {
          "internalType": "bool",
          "name": "decision",
          "type": "bool"
        }
      ],
      "name": "superVoteForRequest",
      "outputs": [],
      "stateMutability": "nonpayable",
      "type": "function"
    },
    {
      "inputs": [],
      "name": "totalApprovalRequests",
      "outputs": [
        {
          "internalType": "uint256",
          "name": "",
          "type": "uint256"
        }
      ],
      "stateMutability": "view",
      "type": "function"
    },
    {
      "inputs": [],
      "name": "totalCronjobs",
      "outputs": [
        {
          "internalType": "uint256",
          "name": "",
          "type": "uint256"
        }
      ],
      "stateMutability": "view",
      "type": "function"
    },
    {
      "inputs": [],
      "name": "totalIds",
      "outputs": [
        {
          "internalType": "uint256",
          "name": "",
          "type": "uint256"
        }
      ],
      "stateMutability": "view",
      "type": "function"
    },
    {
      "inputs": [
        {
          "internalType": "address",
          "name": "newOwner",
          "type": "address"
        }
      ],
      "name": "transferOwnership",
      "outputs": [],
      "stateMutability": "nonpayable",
      "type": "function"
    },
    {
      "inputs": [],
      "name": "unsubscribeDaoDelegation",
      "outputs": [],
      "stateMutability": "nonpayable",
      "type": "function"
    },
    {
      "inputs": [],
      "name": "unsubscribeDaoMembership",
      "outputs": [],
      "stateMutability": "nonpayable",
      "type": "function"
    },
    {
      "inputs": [
        {
          "internalType": "bytes32",
          "name": "",
          "type": "bytes32"
        }
      ],
      "name": "updatableVariables",
      "outputs": [
        {
          "internalType": "uint256",
          "name": "",
          "type": "uint256"
        }
      ],
      "stateMutability": "view",
      "type": "function"
    },
    {
      "inputs": [
        {
          "internalType": "bytes32",
          "name": "votingHash",
          "type": "bytes32"
        }
      ],
      "name": "voteForDaoDelegator",
      "outputs": [],
      "stateMutability": "nonpayable",
      "type": "function"
    },
    {
      "inputs": [
        {
          "internalType": "address",
          "name": "daoSubscriberToVoteFor",
          "type": "address"
        }
      ],
      "name": "voteForDaoMember",
      "outputs": [],
      "stateMutability": "nonpayable",
      "type": "function"
    },
    {
      "inputs": [
        {
          "internalType": "uint256",
          "name": "requestId",
          "type": "uint256"
        },
        {
          "internalType": "bool",
          "name": "decision",
          "type": "bool"
        }
      ],
      "name": "voteForRequest",
      "outputs": [],
      "stateMutability": "nonpayable",
      "type": "function"
    },
    {
      "inputs": [
        {
          "internalType": "address",
          "name": "",
          "type": "address"
        },
        {
          "internalType": "uint256",
          "name": "",
          "type": "uint256"
        }
      ],
      "name": "votingHashOfDaoMembersPerEpoch",
      "outputs": [
        {
          "internalType": "bytes32",
          "name": "",
          "type": "bytes32"
        }
      ],
      "stateMutability": "view",
      "type": "function"
    },
    {
      "inputs": [],
      "name": "votingStatusForDaoDelegators",
      "outputs": [
        {
          "internalType": "enum GovernanceTypesAndStorage.VotingStatusDelegators",
          "name": "",
          "type": "uint8"
        }
      ],
      "stateMutability": "view",
      "type": "function"
    },
    {
      "inputs": [],
      "name": "votingStatusForDaoMembers",
      "outputs": [
        {
          "internalType": "enum GovernanceTypesAndStorage.VotingStatusMembers",
          "name": "",
          "type": "uint8"
        }
      ],
      "stateMutability": "view",
      "type": "function"
    }
  ],
  "transactionHash": "0x97d6daa7c1e6fca155b99db0373374db8aac2d80aa00d4cdbd28f260b9ef6aa1",
  "args": [],
  "solcInputHash": "b037cf5e7432cb17103a5357ad52a7e5",
  "bytecode": "0x608060405234801561001057600080fd5b50615852806100206000396000f3fe608060405234801561001057600080fd5b50600436106103f15760003560e01c8063802b899211610215578063bb4c8ad111610125578063ef8d351c116100b8578063f3ecbab111610087578063f3ecbab114610bdf578063f9d471c114610be7578063f9e8648014610bef578063f9f6f20414610bf7578063fb819ed714610bff576103f1565b8063ef8d351c14610b8c578063f2fde38b14610b94578063f3722bf314610bba578063f3c003a414610bc2576103f1565b8063dc3ab15f116100f4578063dc3ab15f14610b1f578063e710491114610b27578063ec2e00b814610b44578063ec8cb39414610b6f576103f1565b8063bb4c8ad114610a9f578063cb0e0d7d14610ad4578063d561909914610afa578063dc1a87ea14610b17576103f1565b8063948214cf116101a8578063ab37032d11610177578063ab37032d14610a20578063af53106914610a46578063b1009f9014610a72578063b3bbce4914610a7a578063bae196cf14610a97576103f1565b8063948214cf146109a157806396739262146109ca5780639a164f55146109ef578063a51fba2414610a18576103f1565b80638cb75a24116101e45780638cb75a24146109465780638da5cb5b1461096b5780639383c51414610973578063944c164514610999576103f1565b8063802b89921461087a57806385abbe8d146108a657806385c822df146108d25780638cb13c2e146108ef576103f1565b80634cf088d91161031057806371800929116102a35780637b103999116102725780637b103999146107d95780637baf48fe146107e15780637ca5fc9d146107e95780637d91d0561461083a5780637f29609f14610857576103f1565b8063718009291461075c57806374008ef01461077957806375a445ea146107a557806376671808146107d1576103f1565b80636c83caf9116102df5780636c83caf9146107125780636de33bc41461072f5780636fe2cd7314610737578063715018a614610754576103f1565b80634cf088d9146106b95780634db1f401146106c1578063609b5ab1146106ed57806366eaedb51461070a576103f1565b806334869ee7116103885780633e0c10a7116103575780633e0c10a7146105f85780634a300bb0146106155780634b6e1ade146106695780634c436dec1461069c576103f1565b806334869ee71461052a57806335e245b8146105a3578063390a5ba5146105ab5780633c96cd2a146105b3576103f1565b806325c5b01c116103c457806325c5b01c146104a6578063270e8b18146104ae5780632a2d0c47146104d4578063300481c31461050d576103f1565b80630f982ba4146103f657806311ca2ea61461043657806319921b271461045057806320ac09c914610480575b600080fd5b6104226004803603604081101561040c57600080fd5b506001600160a01b038135169060200135610c07565b604080519115158252519081900360200190f35b61043e610c27565b60408051918252519081900360200190f35b61047e6004803603604081101561046657600080fd5b506001600160a01b0381358116916020013516610c2d565b005b6104226004803603602081101561049657600080fd5b50356001600160a01b0316610d4d565b61047e610d62565b6104b6610e47565b60408051938452602084019290925282820152519081900360600190f35b6104f1600480360360208110156104ea57600080fd5b5035610e53565b604080516001600160a01b039092168252519081900360200190f35b6104b66004803603602081101561052357600080fd5b5035610e6e565b61047e6004803603604081101561054057600080fd5b81019060208101813564010000000081111561055b57600080fd5b82018360208201111561056d57600080fd5b8035906020019184600183028401116401000000008311171561058f57600080fd5b9193509150356001600160a01b0316610e8f565b6104226111b5565b61043e611205565b6105d0600480360360208110156105c957600080fd5b503561120b565b604051808360068111156105e057fe5b81526020018281526020019250505060405180910390f35b61047e6004803603602081101561060e57600080fd5b503561122a565b6106416004803603604081101561062b57600080fd5b506001600160a01b0381351690602001356112f6565b6040805194151585529215156020850152838301919091526060830152519081900360800190f35b610671611375565b6040805195865260208601949094528484019290925260608401526080830152519081900360a00190f35b61047e600480360360208110156106b257600080fd5b503561151b565b6104f161168d565b610422600480360360408110156106d757600080fd5b506001600160a01b03813516906020013561169c565b61043e6004803603602081101561070357600080fd5b50356116bc565b61043e6116ce565b6104b66004803603602081101561072857600080fd5b50356116d4565b6104b66116f5565b6104b66004803603602081101561074d57600080fd5b5035611701565b61047e611722565b61043e6004803603602081101561077257600080fd5b50356117ce565b6104226004803603604081101561078f57600080fd5b506001600160a01b0381351690602001356117e0565b610422600480360360408110156107bb57600080fd5b506001600160a01b038135169060200135611800565b61043e611820565b6104f1611826565b6104f1611835565b61047e600480360361010081101561080057600080fd5b506001600160a01b038135169060208101359060408101359060608101359060808101359060a08101359060c08101359060e00135611844565b61043e6004803603602081101561085057600080fd5b5035611b74565b6104226004803603604081101561086d57600080fd5b5080359060200135611b86565b61043e6004803603604081101561089057600080fd5b506001600160a01b038135169060200135611ba6565b610422600480360360408110156108bc57600080fd5b506001600160a01b038135169060200135611bc3565b61043e600480360360208110156108e857600080fd5b5035611be3565b61090c6004803603602081101561090557600080fd5b5035611bf5565b6040805197885295151560208801528686019490945260608601929092526080850152151560a084015260c0830152519081900360e00190f35b61047e6004803603604081101561095c57600080fd5b50803590602001351515611c37565b6104f1611e72565b6104226004803603602081101561098957600080fd5b50356001600160a01b0316611e81565b61047e611e96565b61047e600480360360608110156109b757600080fd5b508035906020810135906040013561208a565b61047e600480360360408110156109e057600080fd5b50803590602001351515612240565b6109f7612452565b60405180826004811115610a0757fe5b815260200191505060405180910390f35b61047e612460565b61047e60048036036020811015610a3657600080fd5b50356001600160a01b03166124d9565b61042260048036036040811015610a5c57600080fd5b506001600160a01b038135169060200135612752565b61047e612772565b61043e60048036036020811015610a9057600080fd5b5035612856565b6104b6612868565b61047e600480360360a0811015610ab557600080fd5b5080359060208101359060408101359060608101359060800135612874565b61043e60048036036020811015610aea57600080fd5b50356001600160a01b0316612b8a565b6104b660048036036020811015610b1057600080fd5b5035612b9c565b61047e612bbd565b61047e612d7a565b61043e60048036036020811015610b3d57600080fd5b5035612def565b61047e60048036036060811015610b5a57600080fd5b50803590602081013515159060400135612e01565b6104b660048036036020811015610b8557600080fd5b50356130c3565b61047e6130e4565b61047e60048036036020811015610baa57600080fd5b50356001600160a01b0316613260565b61047e613363565b6104b660048036036020811015610bd857600080fd5b503561342e565b6104b661344f565b61047e61345b565b6104b66134d3565b61047e6134df565b6109f761360f565b606760209081526000928352604080842090915290825290205460ff1681565b60995481565b610c35613618565b6001600160a01b0316610c46611e72565b6001600160a01b031614610c8f576040805162461bcd60e51b815260206004820181905260248201526000805160206156c7833981519152604482015290519081900360640190fd5b608f546001600160a01b031615610ced576040805162461bcd60e51b815260206004820152601d60248201527f43616e6e6f7420696e697469616c697a65207365636f6e642074696d65000000604482015290519081900360640190fd5b608f80546001600160a01b038085166001600160a01b03199283168117909355609080549185169190921681179091556040513392907fd24d30f1bc85d143afa33cf5c7a331d3d8b2bf17e9b3100844728c8fd21e677790600090a45050565b606d6020526000908152604090205460ff1681565b610d6a6111b5565b50336000908152606660209081526040808320609254845290915290205460ff1615610dc75760405162461bcd60e51b81526004018080602001828103825260308152602001806153b36030913960400191505060405180910390fd5b336000818152606c6020526040808220805460ff19169055609054815162a6b93960e61b815260048101949094526001602485015290516001600160a01b03909116926329ae4e4092604480830193919282900301818387803b158015610e2d57600080fd5b505af1158015610e41573d6000803e3d6000fd5b50505050565b607854607954607a5483565b608b602052600090815260409020546001600160a01b031681565b60826020526000908152604090208054600182015460029092015490919083565b610e976111b5565b506002606554610100900460ff166004811115610eb057fe5b14610eec5760405162461bcd60e51b81526004018080602001828103825260378152602001806154bd6037913960400191505060405180910390fd5b8282826040516020018084848082843760609490941b6bffffffffffffffffffffffff19169190930190815260408051808303600b19018152601490920181528151602092830120336000908152608984528281206092548252909352912054149350610f8e925050505760405162461bcd60e51b815260040180806020018281038252602481526020018061562f6024913960400191505060405180910390fd5b6001600160a01b0381166000908152606d602052604090205460ff16610fe55760405162461bcd60e51b81526004018080602001828103825260318152602001806157ec6031913960400191505060405180910390fd5b6001600160a01b0381166000908152606660209081526040808320609254845290915290205460ff166110495760405162461bcd60e51b81526004018080602001828103825260318152602001806154356031913960400191505060405180910390fd5b336000908152608860209081526040808320609254845290915290205460ff16156110bb576040805162461bcd60e51b815260206004820152601960248201527f43616e6e6f7420617070726f766520766f746520616761696e00000000000000604482015290519081900360640190fd5b336000908152608860209081526040808320609280548552908352818420805460ff191660019081179091556001600160a01b0386168552608a845282852054855260699093529083209054909291611114919061361c565b815260208101919091526040016000205460ff166111b0576001600160a01b0381166000908152608a60209081526040808320548352607f9091529020600201548015611180576001600160a01b0382166000908152608a602052604090205461118090607c9061367f565b610e4161118e82600161361c565b6001600160a01b0384166000908152608a6020526040902054607c919061373b565b505050565b6000806111c26095613996565b90508015806111d057508042105b156111df576000915050611202565b6000806111ec60956139b0565b915091506111fa8282613a13565b505060019150505b90565b60915481565b609a602052600090815260409020805460019091015460ff9091169082565b608f546001600160a01b03163314611282576040805162461bcd60e51b815260206004820152601660248201527513db9b1e48149959da5cdd1c9e4818dbdb9d1c9858dd60521b604482015290519081900360640190fd5b60006112e46094600060405160200180806020018281038252602181526020018061568560219139604001915050604051602081830303815290604052805190602001208152602001908152602001600020544261361c90919063ffffffff16565b90506112f260068284613c22565b5050565b6001600160a01b03821660008181526066602090815260408083208584528252808320549383526067825280832085845282528083205460849092528220919283928392839260ff9081169291169061134e90613ca0565b600088815260856020526040902061136590613ca0565b9299919850965090945092505050565b600080600080600080609060009054906101000a90046001600160a01b03166001600160a01b031663db31af456040518163ffffffff1660e01b815260040160606040518083038186803b1580156113cc57600080fd5b505afa1580156113e0573d6000803e3d6000fd5b505050506040513d60608110156113f657600080fd5b50602090810151608c54604080518085019485526021918101829052929450909260949260009282916060019061549c82396040805160208184038101825292820182528051908301208552848201959095529284016000908120548551808601869052601b818801527f6c6f616e417070726f76616c526571756573744475726174696f6e000000000060608083019190915287518083039091018152608082018852805190870120835260948087528784205460a0830188905260c083018890527f6d696c6573746f6e65417070726f76616c526571756573744475726174696f6e60e080850191909152895180850390910181526101009093018952825192880192909220845290955294902054949b939a5091985092965092945092505050565b6115236111b5565b506001606554610100900460ff16600481111561153c57fe5b146115785760405162461bcd60e51b815260040180806020018281038252602f8152602001806155ac602f913960400191505060405180910390fd5b336000908152606660209081526040808320609254845290915290205460ff166115e9576040805162461bcd60e51b815260206004820152601960248201527f4f6e6c792064616f206d656d626572732063616e20766f746500000000000000604482015290519081900360640190fd5b336000908152608760209081526040808320609254845290915290205460ff161561164f576040805162461bcd60e51b815260206004820152601160248201527021b0b73737ba103b37ba329030b3b0b4b760791b604482015290519081900360640190fd5b336000818152608760209081526040808320609280548552908352818420805460ff1916600117905593835260898252808320935483529290522055565b6090546001600160a01b031681565b608660209081526000928352604080842090915290825290205460ff1681565b606b6020526000908152604090205481565b608c5481565b60846020526000908152604090208054600182015460029092015490919083565b60705460715460725483565b60836020526000908152604090208054600182015460029092015490919083565b61172a613618565b6001600160a01b031661173b611e72565b6001600160a01b031614611784576040805162461bcd60e51b815260206004820181905260248201526000805160206156c7833981519152604482015290519081900360640190fd5b6033546040516000916001600160a01b0316907f8be0079c531659141344cd1fd0a4f28419497f9722a3daafe3b4186f6b6457e0908390a3603380546001600160a01b0319169055565b60936020526000908152604090205481565b606660209081526000928352604080842090915290825290205460ff1681565b608760209081526000928352604080842090915290825290205460ff1681565b60925481565b608f546001600160a01b031681565b608d546001600160a01b031681565b600054610100900460ff168061185d575061185d613ca7565b8061186b575060005460ff16155b6118a65760405162461bcd60e51b815260040180806020018281038252602e81526020018061557e602e913960400191505060405180910390fd5b600054610100900460ff161580156118d1576000805460ff1961ff0019909116610100171660011790555b6118d9613cb8565b608d80546001600160a01b0319166001600160a01b038b16179055604080516020808201819052601b828401527f6c6f616e417070726f76616c526571756573744475726174696f6e000000000060608084019190915283518084039091018152608083018452805190820120600090815260948083528482208d905560a0840183905260c084018390527f6d696c6573746f6e65417070726f76616c526571756573744475726174696f6e60e080860191909152855180860390910181526101008501865280519084012082528083528482208c9055610120840183905260186101408501527f64616f557064617465526571756573744475726174696f6e000000000000000061016080860191909152855180860390910181526101808501865280519084012082528083529381208a90556101a0830191825260216101c0840181905289949391929182916101e09091019061549c8239604001915050604051602081830303815290604052805190602001208152602001908152602001600020819055508360946000604051602001808060200182810382526023815260200180615712602391396040019150506040516020818303038152906040528051906020012081526020019081526020016000208190555082609460006040516020018080602001828103825260218152602001806156856021913960400191505060405160208183030381529060405280519060200120815260200190815260200160002081905550816094600060405160200180806020018281038252602581526020018061541060259139604001915050604051602081830303815290604052805190602001208152602001908152602001600020819055508015611b69576000805461ff00191690555b505050505050505050565b606e6020526000908152604090205481565b606960209081526000928352604080842090915290825290205460ff1681565b608960209081526000928352604080842090915290825290205481565b606860209081526000928352604080842090915290825290205460ff1681565b606a6020526000908152604090205481565b608e602052600090815260409020805460018201546002830154600384015460048501546005860154600690960154949560ff94851695939492939192169087565b611c3f6111b5565b50608d546001600160a01b03163314611c895760405162461bcd60e51b815260040180806020018281038252602b8152602001806156e7602b913960400191505060405180910390fd5b60016092541115611ccb5760405162461bcd60e51b815260040180806020018281038252602c815260200180615361602c913960400191505060405180910390fd5b6000828152608e602052604090206001015460ff1615611d6357608f546000838152608e6020526040808220548151630a88633160e41b81526004810191909152841515602482015290516001600160a01b039093169263a88633109260448084019391929182900301818387803b158015611d4657600080fd5b505af1158015611d5a573d6000803e3d6000fd5b50505050611ddd565b608f546000838152608e6020526040808220548151634f1bef8d60e01b81526004810191909152841515602482015290516001600160a01b0390931692634f1bef8d9260448084019391929182900301818387803b158015611dc457600080fd5b505af1158015611dd8573d6000803e3d6000fd5b505050505b8015611e25576000828152608e6020526040902060040154611e0090600161361c565b6000838152608e602052604090206004810191909155600501805460ff191660011790555b6000828152608e602090815260409182902054825184151581529251339386937f70af203def241488bb271f95f3ab62d4f5ec84d1cbd928f47deea5592b61df5892918290030190a45050565b6033546001600160a01b031690565b606c6020526000908152604090205460ff1681565b611e9e6111b5565b50600360655460ff166004811115611eb257fe5b1015611eef5760405162461bcd60e51b815260040180806020018281038252602d815260200180615759602d913960400191505060405180910390fd5b336000908152608a6020526040812054611f0b90607890613d69565b9050600081118015611f455750606a6000611f32600160925461361c90919063ffffffff16565b8152602001908152602001600020548111155b611f805760405162461bcd60e51b815260040180806020018281038252602181526020018061560e6021913960400191505060405180910390fd5b336000908152608a6020526040902054611f9c9060789061367f565b611fd86001606a6000611fbb600160925461361c90919063ffffffff16565b815260200190815260200160002054613dbd90919063ffffffff16565b606a6000611ff2600160925461361c90919063ffffffff16565b815260208082019290925260409081016000908120939093553383526066909152812060925460019290612026908461361c565b815260208082019290925260409081016000908120805460ff191694151594909417909355338352608a9091528120546092546120879260849161206b90600161361c565b8152602001908152602001600020613e1a90919063ffffffff16565b50565b612092613618565b6001600160a01b03166120a3611e72565b6001600160a01b0316146120ec576040805162461bcd60e51b815260206004820181905260248201526000805160206156c7833981519152604482015290519081900360640190fd5b60408051602080820181905260128284015271616d6f756e744f6644616f4d656d6265727360701b606080840191909152835180840390910181526080830184528051908201206000908152609480835284822088905560a08401839052601360c0850152723230b7a1b630b4b6b4b733a23ab930ba34b7b760691b60e0808601919091528551808603909101815261010085018652805190840120825280835284822087905561012084018390526017610140850152763230b7a630ba32a1b630b4b6b4b733a23ab930ba34b7b760491b610160808601919091528551808603909101815261018090940185528351938301939093208152919052208190556065805460ff1916600317905561220f6002612208428561361c565b6000613c22565b82606a600061222a600160925461361c90919063ffffffff16565b8152602081019190915260400160002055505050565b6000828152608e6020908152604080832060060154338452606783528184208185529092529091205483919060ff166122aa5760405162461bcd60e51b81526004018080602001828103825260368152602001806154666036913960400191505060405180910390fd5b33600090815260686020908152604080832085845290915290205460ff1615612312576040805162461bcd60e51b815260206004820152601560248201527413db9b1e481a59881b9bdd081d9bdd1959081e595d605a1b604482015290519081900360640190fd5b6000848152608e602052604090206003015484904210612379576040805162461bcd60e51b815260206004820152601f60248201527f4f6e6c79206265666f726520646561646c696e65206973207265616368656400604482015290519081900360640190fd5b6123816111b5565b5083156123b8576000858152608e60205260409020600401546123a590600161361c565b6000868152608e60205260409020600401555b336000908152608a602090815260408083205488845260819092529091206123df9161367f565b6000858152608e602090815260409182902054825187151581529251339389937f70af203def241488bb271f95f3ab62d4f5ec84d1cbd928f47deea5592b61df5892918290030190a4505033600090815260686020908152604080832093835292905220805460ff191660011790555050565b606554610100900460ff1681565b612468613618565b6001600160a01b0316612479611e72565b6001600160a01b0316146124c2576040805162461bcd60e51b815260206004820181905260248201526000805160206156c7833981519152604482015290519081900360640190fd5b606580546002919060ff19166001835b0217905550565b6124e16111b5565b50600260655460ff1660048111156124f557fe5b146125315760405162461bcd60e51b815260040180806020018281038252602c8152602001806154f4602c913960400191505060405180910390fd5b6090546040805163f8b2cb4f60e01b815233600482015290516000926001600160a01b03169163f8b2cb4f916024808301926020929190829003018186803b15801561257c57600080fd5b505afa158015612590573d6000803e3d6000fd5b505050506040513d60208110156125a657600080fd5b5051116125f2576040805162461bcd60e51b81526020600482015260156024820152744f6e6c79207374616b6572732063616e20766f746560581b604482015290519081900360640190fd5b6001600160a01b0381166000908152606c602052604090205460ff166126495760405162461bcd60e51b81526004018080602001828103825260328152602001806156536032913960400191505060405180910390fd5b336000908152608660209081526040808320609254845290915290205460ff16156126af576040805162461bcd60e51b815260206004820152601160248201527021b0b73737ba103b37ba329030b3b0b4b760791b604482015290519081900360640190fd5b33600090815260866020908152604080832060925484528252808320805460ff191660011790556001600160a01b0384168352608a8252808320548352607b9091529020600201548015612722576001600160a01b0382166000908152608a60205260409020546127229060789061367f565b6112f261273082600161361c565b6001600160a01b0384166000908152608a60205260409020546078919061373b565b608860209081526000928352604080842090915290825290205460ff1681565b61277a6111b5565b50336000908152606660209081526040808320609254845290915290205460ff166127d65760405162461bcd60e51b815260040180806020018281038252603a815260200180615544603a913960400191505060405180910390fd5b609054604080516301a6466560e41b815233600482015290516001600160a01b0390921691631a6466509160248082019260009290919082900301818387803b15801561282257600080fd5b505af1158015612836573d6000803e3d6000fd5b5050336000908152606d60205260409020805460ff191660011790555050565b606f6020526000908152604090205481565b60955460965460975483565b61287c613618565b6001600160a01b031661288d611e72565b6001600160a01b0316146128d6576040805162461bcd60e51b815260206004820181905260248201526000805160206156c7833981519152604482015290519081900360640190fd5b60408051602080820181905260158284015274616d6f756e744f6644616f44656c656761746f727360581b60608084019190915283518084039091018152608083018452805190820120600090815260948083528482208a905560a08401839052601b60c085018190527f64616f4d656d62657273686970566f74696e674475726174696f6e000000000060e080870191909152865180870390910181526101008601875280519085012083528184528583208a905561012085018490526101408501527f64616f44656c65676174696f6e566f74696e674475726174696f6e000000000061016080860191909152855180860390910181526101808501865280519084012082528083528482208890556101a08401839052601d6101c08501527f64616f44656c65676174696f6e417070726f76616c4475726174696f6e0000006101e080860191909152855180860390910181526102008501865280519084012082528083529381208690556102208301918252602461024084018190528594939192918291610260909101906155208239604080516020818403810182529282018252805190830120855290840194909452505001600020556065805461ff001916610200179055612ab06003612208428561361c565b604080516020808201819052601782840152763230b7a630ba32a1b630b4b6b4b733a23ab930ba34b7b760491b60608084019190915283518084039091018152608083018452805190820120600090815260948083528482205460a08501849052601360c0860152723230b7a1b630b4b6b4b733a23ab930ba34b7b760691b60e080870191909152865180870390910181526101009095018652845194840194909420825290915291822054612b739190612b6d9081428861361c565b9061361c565b9050612b826002826000613c22565b505050505050565b608a6020526000908152604090205481565b60806020526000908152604090208054600182015460029092015490919083565b612bc56111b5565b506003606554610100900460ff166004811115612bde57fe5b1015612c1b5760405162461bcd60e51b815260040180806020018281038252602d8152602001806153e3602d913960400191505060405180910390fd5b336000908152608a6020526040812054612c3790607c90613d69565b9050600081118015612c715750606b6000612c5e600160925461361c90919063ffffffff16565b8152602001908152602001600020548111155b612cac5760405162461bcd60e51b81526004018080602001828103825260248152602001806157356024913960400191505060405180910390fd5b336000908152608a6020526040902054612cc890607c9061367f565b612ce76001606b6000611fbb600160925461361c90919063ffffffff16565b606b6000612d01600160925461361c90919063ffffffff16565b815260208082019290925260409081016000908120939093553383526067909152812060925460019290612d35908461361c565b815260208082019290925260409081016000908120805460ff191694151594909417909355338352608a9091528120546092546120879260859161206b90600161361c565b612d82613618565b6001600160a01b0316612d93611e72565b6001600160a01b031614612ddc576040805162461bcd60e51b815260206004820181905260248201526000805160206156c7833981519152604482015290519081900360640190fd5b606580546001919060ff191682806124d2565b60946020526000908152604090205481565b608f546001600160a01b03163314612e59576040805162461bcd60e51b815260206004820152601660248201527513db9b1e48149959da5cdd1c9e4818dbdb9d1c9858dd60521b604482015290519081900360640190fd5b612e616111b5565b50608c80546000908152608e602052604080822086905582548252808220600101805460ff1916861580159190911790915560925493548352912060060191909155612f3f57608c546000908152608e6020908152604080832060020184905580518083018390528082018390527f6d696c6573746f6e65417070726f76616c526571756573744475726174696f6e606080830191909152825180830390910181526080909101825280519083012083526094909152902054612f2590429061361c565b608c546000908152608e6020526040902060030155612fc2565b604080516020808201819052601b828401527f6c6f616e417070726f76616c526571756573744475726174696f6e00000000006060808401919091528351808403909101815260809092018352815191810191909120600090815260949091522054612fac90429061361c565b608c546000908152608e60205260409020600301555b6001609254111561305257608c546000818152608e6020526040812060030154612feb92613c22565b608c54609254600090815260806020526040902061300891613e1a565b609254600090815260856020526040812061302290613ca0565b111561305257608c5460009081526081602090815260408083206092548452608590925290912061305291613eb1565b608c546000908152608e60209081526040918290206001810154815460029092015484519081529351339460ff9092161515937f12185ea0d0c1067ec7ba45d618f57ea4939173d68a06773b50a6cbb7de254577928290030190a4608c546130bb90600161361c565b608c55505050565b60856020526000908152604090208054600182015460029092015490919083565b6130ec6111b5565b50609254600090815260936020526040902054613150576040805162461bcd60e51b815260206004820152601860248201527f4e6f207375627374697475746573207265717565737465640000000000000000604482015290519081900360640190fd5b336000908152608a602052604081205461316c90607490613d69565b905060008111801561318f57506092546000908152606b60205260409020548111155b6131ca5760405162461bcd60e51b815260040180806020018281038252602f8152602001806157bd602f913960400191505060405180910390fd5b6092546000908152609360205260409020546131e7906001613dbd565b60928054600090815260936020908152604080832094909455338252608a81528382205492548252608590529190912061322091613e1a565b336000818152606760209081526040808320609280548552908352818420805460ff19166001179055938352608a90915290205490546120879190613f11565b613268613618565b6001600160a01b0316613279611e72565b6001600160a01b0316146132c2576040805162461bcd60e51b815260206004820181905260248201526000805160206156c7833981519152604482015290519081900360640190fd5b6001600160a01b0381166133075760405162461bcd60e51b815260040180806020018281038252602681526020018061538d6026913960400191505060405180910390fd5b6033546040516001600160a01b038084169216907f8be0079c531659141344cd1fd0a4f28419497f9722a3daafe3b4186f6b6457e090600090a3603380546001600160a01b0319166001600160a01b0392909216919091179055565b61336b6111b5565b50336000908152606760209081526040808320609254845290915290205460ff16156133c85760405162461bcd60e51b81526004018080602001828103825260338152602001806155db6033913960400191505060405180910390fd5b336000818152606d6020526040808220805460ff19169055609054815162a6b93960e61b815260048101949094526024840183905290516001600160a01b03909116926329ae4e4092604480830193919282900301818387803b158015610e2d57600080fd5b60816020526000908152604090208054600182015460029092015490919083565b60745460755460765483565b613463613618565b6001600160a01b0316613474611e72565b6001600160a01b0316146134bd576040805162461bcd60e51b815260206004820181905260248201526000805160206156c7833981519152604482015290519081900360640190fd5b606580546001919061ff001916610100836124d2565b607c54607d54607e5483565b6134e76111b5565b50600060655460ff1660048111156134fb57fe5b116135375760405162461bcd60e51b81526004018080602001828103825260378152602001806157866037913960400191505060405180910390fd5b60905460408051633fcb989360e01b815233600482015290516001600160a01b0390921691633fcb98939160248082019260009290919082900301818387803b15801561358357600080fd5b505af1158015613597573d6000803e3d6000fd5b5050336000908152606c60209081526040808320805460ff19166001179055608a9091529020541515915061360d9050576091546135d690600161361c565b6091819055336000818152608a60209081526040808320859055938252608b90529190912080546001600160a01b03191690911790555b565b60655460ff1681565b3390565b600082820183811015613676576040805162461bcd60e51b815260206004820152601b60248201527f536166654d6174683a206164646974696f6e206f766572666c6f770000000000604482015290519081900360640190fd5b90505b92915050565b81600201546001141561369b576000808355600183015561372d565b81548114156136c8578154600090815260038301602052604080822054808555825281206001015561372d565b81600101548114156137005760018083018054600090815260038501602052604080822090930154918290559081529081205561372d565b60008181526003830160205260408082206001808201548254855283852090910181905590549083529120555b506002018054600019019055565b61374361533f565b50825460008181526003850160209081526040918290208251606081018452815481526001820154928101929092526002015491810191909152906137d1578184556001808501839055604080516060810182526000808252602080830182815283850189815288845260038b01909252939091209151825591519281019290925551600290910155613987565b80604001518311156138395783546000908152600385016020818152604080842060019081018790558151606081018352895481528084018681528184018a815289885295909452919094209051815590519281019290925551600290910155818455613987565b6001846002015411156139155760015b8460020154811015613913579051600090815260038501602090815260409182902082516060810184528154815260018201549281019290925260020154918101829052919084111561390b57815160009081526003860160208181526040808420600190810154875186528286208201899055825160608101845281815281875285855283872080548287019081528286018d81528c8a52979096529387209051815593519184019190915592516002909201919091559152839055613913565b600101613849565b505b60008281526003850160205260409020600201548314613987576040805160608101825260008082526001808801805460208086019182528587018a815289865260038c0190915286852095518655905192850192909255905160029093019290925581548152919091208390558290555b50505060020180546001019055565b805460009081526003909101602052604090206002015490565b80546000818152600383016020526040902060029081015490830154600114156139e35760008084556001840155613a03565b825460009081526003840160205260408082205480865582528120600101555b6002909201805460001901905591565b6000828152609a602052604081205460ff166006811115613a3057fe5b1415613a56576000828152609a6020526040902060010154613a5190613f76565b6112f2565b60016000838152609a602052604090205460ff166006811115613a7557fe5b1415613a80576112f2565b60026000838152609a602052604090205460ff166006811115613a9f57fe5b1415613aae57613a5181614175565b60036000838152609a602052604090205460ff166006811115613acd57fe5b1415613adc57613a5181614454565b60046000838152609a602052604090205460ff166006811115613afb57fe5b1415613bd9576090546092546001600160a01b039091169063108cc3ea90606e90600090613b2a906001613dbd565b815260200190815260200160002054606f6000613b536001609254613dbd90919063ffffffff16565b815260200190815260200160002054613b786001609254613dbd90919063ffffffff16565b6040518463ffffffff1660e01b8152600401808481526020018381526020018281526020019350505050600060405180830381600087803b158015613bbc57600080fd5b505af1158015613bd0573d6000803e3d6000fd5b505050506112f2565b60056000838152609a602052604090205460ff166006811115613bf857fe5b1415613c0657613a51614741565b6000828152609a60205260409020600101546112f290826147ed565b609954613c3090600161361c565b6099556040805180820190915280846006811115613c4a57fe5b815260209081018390526099546000908152609a9091526040902081518154829060ff19166001836006811115613c7d57fe5b0217905550602091909101516001909101556099546111b0906095908490614927565b6002015490565b6000613cb230614aff565b15905090565b600054610100900460ff1680613cd15750613cd1613ca7565b80613cdf575060005460ff16155b613d1a5760405162461bcd60e51b815260040180806020018281038252602e81526020018061557e602e913960400191505060405180910390fd5b600054610100900460ff16158015613d45576000805460ff1961ff0019909116610100171660011790555b613d4d614b05565b613d55614ba5565b8015612087576000805461ff001916905550565b60008181526003830160205260408120600201548190613d8d576000915050613679565b835460019190910190831415613da257613676565b60009283526003840160205260409092206001015491613d8d565b600082821115613e14576040805162461bcd60e51b815260206004820152601e60248201527f536166654d6174683a207375627472616374696f6e206f766572666c6f770000604482015290519081900360640190fd5b50900390565b8154613e5c5780825560018083018290556040805180820182526000808252602080830182815286835260038801909152929020905181559051910155613ea4565b60018083018054600090815260038501602081815260408084208790558051808201825284815285548184019081528886529390925290922091518255519201919091558190555b5060020180546001019055565b805482556001808201549083015560028082015490830155805460005b8260020154811015610e41576000918252600380840160208181526040808620938801825290942082548155600180840154918101919091559352549101613ece565b6000818152608060205260408120613f2890613ca0565b905080156111b05760015b818111610e41576000838152608060205260408120613f529083614c9e565b6000818152608160205260409020909150613f6d9086613e1a565b50600101613f33565b60006094600060405160200180806020018281038252602181526020018061549c60219139604080516020818403810182529282018252805190830120855284820195909552928401600090812054878252608e8552858220600601548252608090945293909320919350613fee925084905061367f565b6000828152608e6020526040812060040154821161402757506000828152608e60205260409020600501805460ff191660019081179091555b6000838152608e602052604090206001015460ff166140be57608f546000848152608e6020526040808220548151634f1bef8d60e01b81526004810191909152841515602482015290516001600160a01b0390931692634f1bef8d9260448084019391929182900301818387803b1580156140a157600080fd5b505af11580156140b5573d6000803e3d6000fd5b50505050614138565b608f546000848152608e6020526040808220548151630a88633160e41b81526004810191909152841515602482015290516001600160a01b039093169263a88633109260448084019391929182900301818387803b15801561411f57600080fd5b505af1158015614133573d6000803e3d6000fd5b505050505b600083815260816020526040812061414f90613ca0565b90508015610e41576000848152608e6020526040902060060154610e4190829086614ccd565b6000600260655460ff16600481111561418a57fe5b1415614299576094600060405160200180806020018281038252601281526020018071616d6f756e744f6644616f4d656d6265727360701b81525060200191505060405160208183030381529060405280519060200120815260200190815260200160002054606a600061420a600160925461361c90919063ffffffff16565b815260208082019290925260409081016000908120939093556065805460ff191660031790558051808301839052601381830152723230b7a1b630b4b6b4b733a23ab930ba34b7b760691b60608083019190915282518083039091018152608090910182528051908301208352609490915290205461428a90839061361c565b9050613a516002826000613c22565b600360655460ff1660048111156142ac57fe5b141561443c576092546000818152606a60208190526040822054926142f792600292916142da90600161361c565b815260200190815260200160002054614e7690919063ffffffff16565b6143016078613ca0565b101561433c576143396143146078613ca0565b6143336002606a60006142da600160925461361c90919063ffffffff16565b90613dbd565b90505b801561434d5761434d607882614ecf565b6065805460ff19166004179055604080516020808201819052601b828401527f64616f4d656d62657273686970566f74696e674475726174696f6e0000000000606080840191909152835180840390910181526080909201835281519181019190912060009081526094909152205461443657604080516020808201819052601782840152763230b7a630ba32a1b630b4b6b4b733a23ab930ba34b7b760491b606080840191909152835180840390910181526080909201835281519181019190912060009081526094909152205461442790849061361c565b91506144366002836000613c22565b506112f2565b600060788190556079819055607a5560016092555050565b60006001606554610100900460ff16600481111561446e57fe5b14156144f7576065805461ff001916610200179055604080516020808201819052601d828401527f64616f44656c65676174696f6e417070726f76616c4475726174696f6e00000060608084019190915283518084039091018152608090920183528151918101919091206000908152609490915220546144f090839061361c565b9050614734565b6002606554610100900460ff16600481111561450f57fe5b1415614614576094600060405160200180806020018281038252601581526020018074616d6f756e744f6644616f44656c656761746f727360581b81525060200191505060405160208183030381529060405280519060200120815260200190815260200160002054606b6000614592600160925461361c90919063ffffffff16565b815260208082019290925260409081016000908120939093556065805461ff0019166103001790558051808301839052601381830152723230b7a1b630b4b6b4b733a23ab930ba34b7b760691b6060808301919091528251808303909101815260809091018252805190830120835260949091529020546144f090839061361c565b6003606554610100900460ff16600481111561462c57fe5b1415614728576092546000818152606b602081905260408220549261465a92600292916142da90600161361c565b6146646078613ca0565b101561469957614696614677607c613ca0565b6143336002606b60006142da600160925461361c90919063ffffffff16565b90505b80156146aa576146aa607c82614ecf565b6065805461ff001916610400179055604080516020808201819052601782840152763230b7a630ba32a1b630b4b6b4b733a23ab930ba34b7b760491b606080840191909152835180840390910181526080909201835281519181019190912060009081526094909152205461472090849061361c565b915050614734565b61473182614f2d565b90505b6112f26003826000613c22565b6092546000908152609360205260409020541561360d5760005b6092546000908152609360205260409020548110156147875761477e6074615142565b5060010161475b565b5061360d60056122086094600060405160200180806020018281038252602481526020018061552060249139604001915050604051602081830303815290604052805190602001208152602001908152602001600020544261361c90919063ffffffff16565b608f5460408051633cf3333b60e11b81526004810185905290516001600160a01b03909216916379e6667691602480820192602092909190829003018186803b15801561483957600080fd5b505afa15801561484d573d6000803e3d6000fd5b505050506040513d602081101561486357600080fd5b5051156148b757608f54604080516338f40f5b60e01b81526004810185905290516001600160a01b03909216916338f40f5b9160248082019260009290919082900301818387803b158015613bbc57600080fd5b60006149196094600060405160200180806020018281038252602581526020018061541060259139604001915050604051602081830303815290604052805190602001208152602001908152602001600020548361361c90919063ffffffff16565b90506111b060068285613c22565b61492f61533f565b50825460008181526003850160209081526040918290208251606081018452815481526001820154928101929092526002015491810191909152906149bd578184556001808501839055604080516060810182526000808252602080830182815283850189815288845260038b01909252939091209151825591519281019290925551600290910155613987565b8060400151831015614a255783546000908152600385016020818152604080842060019081018790558151606081018352895481528084018681528184018a815289885295909452919094209051815590519281019290925551600290910155818455613987565b6001846002015411156139155760015b84600201548110156139135790516000908152600385016020908152604091829020825160608101845281548152600182015492810192909252600201549181018290529190841015614af757815160009081526003860160208181526040808420600190810154875186528286208201899055825160608101845281815281875285855283872080548287019081528286018d81528c8a52979096529387209051815593519184019190915592516002909201919091559152839055613913565b600101614a35565b3b151590565b600054610100900460ff1680614b1e5750614b1e613ca7565b80614b2c575060005460ff16155b614b675760405162461bcd60e51b815260040180806020018281038252602e81526020018061557e602e913960400191505060405180910390fd5b600054610100900460ff16158015613d55576000805460ff1961ff0019909116610100171660011790558015612087576000805461ff001916905550565b600054610100900460ff1680614bbe5750614bbe613ca7565b80614bcc575060005460ff16155b614c075760405162461bcd60e51b815260040180806020018281038252602e81526020018061557e602e913960400191505060405180910390fd5b600054610100900460ff16158015614c32576000805460ff1961ff0019909116610100171660011790555b6000614c3c613618565b603380546001600160a01b0319166001600160a01b038316908117909155604051919250906000907f8be0079c531659141344cd1fd0a4f28419497f9722a3daafe3b4186f6b6457e0908290a3508015612087576000805461ff001916905550565b815460015b82811015614cc65760009182526003840160205260409091205490600101614ca3565b5092915050565b60925482146000805b85811015614e56576000848152608160205260408120614cf590615142565b6000878152608560205260409020909150614d10908261367f565b6000818152608b60209081526040808320546001600160a01b03168352606782528083208984528252808320805460ff1916905583835260699091528120600191614d5b898461361c565b81526020810191909152604001600020805460ff1916911515919091179055614d8560748261367f565b614d8f8187615190565b83158015614dcb57506000818152608b60209081526040808320546001600160a01b0316835260678252808320609254845290915290205460ff165b15614e3c576092546000908152608560205260409020614deb908261367f565b6000818152608b60209081526040808320546001600160a01b03168352606782528083206092805485529252909120805460ff1916905554614e2e908290615190565b614e3983600161361c565b92505b8315614e4d57614e4d607c8261367f565b50600101614cd6565b508115614e605750835b8015614e6f57614e6f816151f5565b5050505050565b600082614e8557506000613679565b82820282848281614e9257fe5b04146136765760405162461bcd60e51b81526004018080602001828103825260218152602001806156a66021913960400191505060405180910390fd5b60005b818110156111b0578254600284015460011415614ef85760008085556001850155614f18565b835460009081526003850160205260408082205480875582528120600101555b50600283018054600019019055600101614ed2565b6000614f3b607c6074615274565b600060788190556079819055607a819055607c819055607d819055607e81905560658054600260ff199091161761ff001916610100179055604080516020808201819052601b828401527f64616f4d656d62657273686970566f74696e674475726174696f6e00000000006060808401919091528351808403909101815260809092018352815191810191909120835260949052812054614fdd90849061361c565b9050614fec6002826000613c22565b604080516020808201819052601b828401527f64616f44656c65676174696f6e566f74696e674475726174696f6e0000000000606080840191909152835180840390910181526080909201835281519181019190912060009081526094909152205461505990849061361c565b60925460009081526080602052604081209192509061507790613ca0565b90508061510e576090546092546000818152606e6020908152604080832054606f90925280832054815163084661f560e11b815260048101939093526024830152604482019390935291516001600160a01b039093169263108cc3ea92606480820193929182900301818387803b1580156150f157600080fd5b505af1158015615105573d6000803e3d6000fd5b5050505061512a565b6000615119826152dd565b90506151286004826000613c22565b505b60925461513890600161361c565b6092555092915050565b80546002820154600114156151605760008083556001830155615180565b815460009081526003830160205260408082205480855582528120600101555b6002909101805460001901905590565b60008181526080602052604081206151a790613ca0565b905080156111b05760015b818111610e415760008381526080602052604081206151d19083614c9e565b60008181526081602052604090209091506151ec908661367f565b506001016151b2565b806093600060925481526020019081526020016000208190555061208760056122086094600060405160200180806020018281038252602481526020018061552060249139604001915050604051602081830303815290604052805190602001208152602001908152602001600020544261361c90919063ffffffff16565b805482556001808201549083015560028082015490830155805460005b8260020154811015610e41576000918252600380840160208181526040808620938801825290942082548155600180840154818301556002808501549201919091559352549101615291565b60008060015b838111614cc65760925460009081526080602052604081206153059083614c9e565b6000818152608e6020526040902060030154909150831015615336576000818152608e602052604090206003015492505b506001016152e3565b6040518060600160405280600081526020016000815260200160008152509056fe53757065722064656c65676174696e6720776f726b73206f6e6c792074696c6c2066697273742065706f63684f776e61626c653a206e6577206f776e657220697320746865207a65726f206164647265737343616e6e6f7420756e737562736372696265207768696c65206265696e67206163746976652064616f206d656d626572436c61696d696e672044616f2044656c65676174696f6e206973206e6f74206f70656e207269676874206e6f776c6174654170706c69636174696f6e73466f72496e766573746d656e744475726174696f6e43616e206f6e6c7920766f74652064656c656761746f722074686174206973206163746976652064616f206d656d6265724f6e6c792044616f2044656c656761746f7220666f72207468652065706f6368207265717565737420776173207375626d6974746564617070726f76616c734e6565646564466f72526567697374727952657175657374417070726f766520766f74696e6720666f722044616f2044656c656761746f7273206973206e6f74206f70656e207269676874206e6f77566f74696e6720666f722044616f204d656d62657273206973206e6f74206f70656e207269676874206e6f7764616f44656c65676174696f6e53756273746974757465436c61696d4475726174696f6e4f6e6c79206163746976652064616f206d656d626572732063616e2073756273637269626520746f206265636f6d652064656c656761746f7273496e697469616c697a61626c653a20636f6e747261637420697320616c726561647920696e697469616c697a6564566f74696e6720666f722044616f2044656c656761746f7273206973206e6f74206f70656e207269676874206e6f7743616e6e6f7420756e737562736372696265207768696c65206265696e67206163746976652064616f2064656c656761746f724e6f7420656c696769626c6520746f206265636f6d652064616f206d656d62657257726f6e6720617070726f76616c2070617373776f7264206f722064656c656761746f7243616e206f6e6c7920766f746520666f72206163746976652064616f206d656d6265727368697020737562736372696265726170706c69636174696f6e73466f72496e766573746d656e744475726174696f6e536166654d6174683a206d756c7469706c69636174696f6e206f766572666c6f774f776e61626c653a2063616c6c6572206973206e6f7420746865206f776e65724f6e6c792073757065722064656c656761746f722063616e2063616c6c20746869732066756e6374696f6e617070726f76616c734e6565646564466f72476f7665726e616e6365526571756573744e6f7420656c696769626c6520746f206265636f6d652064616f2064656c656761746f72436c61696d696e672044616f204d656d62657273686970206973206e6f74206f70656e207269676874206e6f77537562736372697074696f6e7320666f722044616f204d656d6265727368697020617265206e6f74206f70656e207269676874206e6f774e6f7420656c696769626c6520746f206265636f6d652064616f2064656c656761746f72207375627374697475746543616e206f6e6c7920766f746520666f72206163746976652064616f2064656c656761746f722073756273637269626572a26469706673582212209dfb47048b5d943c5174e2acac260041ef46b273c73ff90762f5695fdfae95c064736f6c63430007030033",
  "devdoc": {
    "kind": "dev",
    "methods": {
      "getDaoData()": {
        "details": "Helper function for querying Governance variables",
        "returns": {
          "_0": "internal Governance uint variables"
        }
      },
      "initialize(address,uint256,uint256,uint256,uint256,uint256,uint256,uint256)": {
        "details": "Initialize the contract."
      },
      "owner()": {
        "details": "Returns the address of the current owner."
      },
      "renounceOwnership()": {
        "details": "Leaves the contract without owner. It will not be possible to call `onlyOwner` functions anymore. Can only be called by the current owner. NOTE: Renouncing ownership will leave the contract without an owner, thereby removing any functionality that is only available to the owner."
      },
      "transferOwnership(address)": {
        "details": "Transfers ownership of the contract to a new account (`newOwner`). Can only be called by the current owner."
      }
    },
    "title": "AllianceBlock Governance contract",
    "version": 1
  },
  "userdoc": {
    "kind": "user",
    "methods": {},
    "notice": "Responsible for governing AllianceBlock's ecosystem",
    "version": 1
  },
  "storageLayout": {
    "storage": [
      {
        "astId": 890,
        "contract": "contracts/Governance.sol:Governance",
        "label": "_initialized",
        "offset": 0,
        "slot": "0",
        "type": "t_bool"
      },
      {
        "astId": 893,
        "contract": "contracts/Governance.sol:Governance",
        "label": "_initializing",
        "offset": 1,
        "slot": "0",
        "type": "t_bool"
      },
      {
        "astId": 3750,
        "contract": "contracts/Governance.sol:Governance",
        "label": "__gap",
        "offset": 0,
        "slot": "1",
        "type": "t_array(t_uint256)50_storage"
      },
      {
        "astId": 321,
        "contract": "contracts/Governance.sol:Governance",
        "label": "_owner",
        "offset": 0,
        "slot": "51",
        "type": "t_address"
      },
      {
        "astId": 440,
        "contract": "contracts/Governance.sol:Governance",
        "label": "__gap",
        "offset": 0,
        "slot": "52",
        "type": "t_array(t_uint256)49_storage"
      },
      {
        "astId": 12443,
        "contract": "contracts/Governance.sol:Governance",
        "label": "votingStatusForDaoMembers",
        "offset": 0,
        "slot": "101",
        "type": "t_enum(VotingStatusMembers)12392"
      },
      {
        "astId": 12445,
        "contract": "contracts/Governance.sol:Governance",
        "label": "votingStatusForDaoDelegators",
        "offset": 1,
        "slot": "101",
        "type": "t_enum(VotingStatusDelegators)12398"
      },
      {
        "astId": 12451,
        "contract": "contracts/Governance.sol:Governance",
        "label": "isEpochDaoMember",
        "offset": 0,
        "slot": "102",
        "type": "t_mapping(t_address,t_mapping(t_uint256,t_bool))"
      },
      {
        "astId": 12457,
        "contract": "contracts/Governance.sol:Governance",
        "label": "isEpochDaoDelegator",
        "offset": 0,
        "slot": "103",
        "type": "t_mapping(t_address,t_mapping(t_uint256,t_bool))"
      },
      {
        "astId": 12463,
        "contract": "contracts/Governance.sol:Governance",
        "label": "hasVotedForRequestId",
        "offset": 0,
        "slot": "104",
        "type": "t_mapping(t_address,t_mapping(t_uint256,t_bool))"
      },
      {
        "astId": 12469,
        "contract": "contracts/Governance.sol:Governance",
        "label": "bannedDelegator",
        "offset": 0,
        "slot": "105",
        "type": "t_mapping(t_uint256,t_mapping(t_uint256,t_bool))"
      },
      {
        "astId": 12473,
        "contract": "contracts/Governance.sol:Governance",
        "label": "amountOfEpochDaoMembersNeededPerEpoch",
        "offset": 0,
        "slot": "106",
        "type": "t_mapping(t_uint256,t_uint256)"
      },
      {
        "astId": 12477,
        "contract": "contracts/Governance.sol:Governance",
        "label": "amountOfEpochDaoDelegatorsNeededPerEpoch",
        "offset": 0,
        "slot": "107",
        "type": "t_mapping(t_uint256,t_uint256)"
      },
      {
        "astId": 12481,
        "contract": "contracts/Governance.sol:Governance",
        "label": "subscribedForDaoMembership",
        "offset": 0,
        "slot": "108",
        "type": "t_mapping(t_address,t_bool)"
      },
      {
        "astId": 12485,
        "contract": "contracts/Governance.sol:Governance",
        "label": "subscribedForDaoDelegator",
        "offset": 0,
        "slot": "109",
        "type": "t_mapping(t_address,t_bool)"
      },
      {
        "astId": 12489,
        "contract": "contracts/Governance.sol:Governance",
        "label": "rewardsForDaoMembersPerEpoch",
        "offset": 0,
        "slot": "110",
        "type": "t_mapping(t_uint256,t_uint256)"
      },
      {
        "astId": 12493,
        "contract": "contracts/Governance.sol:Governance",
        "label": "rewardsForDaoDelegatorsPerEpoch",
        "offset": 0,
        "slot": "111",
        "type": "t_mapping(t_uint256,t_uint256)"
      },
      {
        "astId": 12495,
        "contract": "contracts/Governance.sol:Governance",
        "label": "daoSubstituteMembersListForCurrentEpoch",
        "offset": 0,
        "slot": "112",
        "type": "t_struct(LinkedList)14075_storage"
      },
      {
        "astId": 12497,
        "contract": "contracts/Governance.sol:Governance",
        "label": "daoSubstituteDelegatorsListForCurrentEpoch",
        "offset": 0,
        "slot": "116",
        "type": "t_struct(LinkedList)14075_storage"
      },
      {
        "astId": 12499,
        "contract": "contracts/Governance.sol:Governance",
        "label": "daoMembersListForUpcomingEpoch",
        "offset": 0,
        "slot": "120",
        "type": "t_struct(LinkedList)14075_storage"
      },
      {
        "astId": 12501,
        "contract": "contracts/Governance.sol:Governance",
        "label": "daoDelegatorsListForUpcomingEpoch",
        "offset": 0,
        "slot": "124",
        "type": "t_struct(LinkedList)14075_storage"
      },
      {
        "astId": 12505,
        "contract": "contracts/Governance.sol:Governance",
        "label": "requestsPerEpoch",
        "offset": 0,
        "slot": "128",
        "type": "t_mapping(t_uint256,t_struct(LinkedList)13386_storage)"
      },
      {
        "astId": 12509,
        "contract": "contracts/Governance.sol:Governance",
        "label": "remainingDelegatorIdsToVotePerRequest",
        "offset": 0,
        "slot": "129",
        "type": "t_mapping(t_uint256,t_struct(LinkedList)13386_storage)"
      },
      {
        "astId": 12513,
        "contract": "contracts/Governance.sol:Governance",
        "label": "remainingMemberIdsToVoteForDelegator",
        "offset": 0,
        "slot": "130",
        "type": "t_mapping(t_uint256,t_struct(LinkedList)13386_storage)"
      },
      {
        "astId": 12517,
        "contract": "contracts/Governance.sol:Governance",
        "label": "remainingMemberIdsToVotePerRequest",
        "offset": 0,
        "slot": "131",
        "type": "t_mapping(t_uint256,t_struct(LinkedList)13386_storage)"
      },
      {
        "astId": 12521,
        "contract": "contracts/Governance.sol:Governance",
        "label": "epochDaoMembers",
        "offset": 0,
        "slot": "132",
        "type": "t_mapping(t_uint256,t_struct(LinkedList)13386_storage)"
      },
      {
        "astId": 12525,
        "contract": "contracts/Governance.sol:Governance",
        "label": "epochDaoDelegators",
        "offset": 0,
        "slot": "133",
        "type": "t_mapping(t_uint256,t_struct(LinkedList)13386_storage)"
      },
      {
        "astId": 12531,
        "contract": "contracts/Governance.sol:Governance",
        "label": "hasVotedForDaoMemberPerEpoch",
        "offset": 0,
        "slot": "134",
        "type": "t_mapping(t_address,t_mapping(t_uint256,t_bool))"
      },
      {
        "astId": 12537,
        "contract": "contracts/Governance.sol:Governance",
        "label": "hasVotedForDaoDelegatorPerEpoch",
        "offset": 0,
        "slot": "135",
        "type": "t_mapping(t_address,t_mapping(t_uint256,t_bool))"
      },
      {
        "astId": 12543,
        "contract": "contracts/Governance.sol:Governance",
        "label": "hasApprovedForDaoDelegatorPerEpoch",
        "offset": 0,
        "slot": "136",
        "type": "t_mapping(t_address,t_mapping(t_uint256,t_bool))"
      },
      {
        "astId": 12549,
        "contract": "contracts/Governance.sol:Governance",
        "label": "votingHashOfDaoMembersPerEpoch",
        "offset": 0,
        "slot": "137",
        "type": "t_mapping(t_address,t_mapping(t_uint256,t_bytes32))"
      },
      {
        "astId": 12553,
        "contract": "contracts/Governance.sol:Governance",
        "label": "addressToId",
        "offset": 0,
        "slot": "138",
        "type": "t_mapping(t_address,t_uint256)"
      },
      {
        "astId": 12557,
        "contract": "contracts/Governance.sol:Governance",
        "label": "idToAddress",
        "offset": 0,
        "slot": "139",
        "type": "t_mapping(t_uint256,t_address)"
      },
      {
        "astId": 12559,
        "contract": "contracts/Governance.sol:Governance",
        "label": "totalApprovalRequests",
        "offset": 0,
        "slot": "140",
        "type": "t_uint256"
      },
      {
        "astId": 12561,
        "contract": "contracts/Governance.sol:Governance",
        "label": "superDelegator",
        "offset": 0,
        "slot": "141",
        "type": "t_address"
      },
      {
        "astId": 12565,
        "contract": "contracts/Governance.sol:Governance",
        "label": "approvalRequests",
        "offset": 0,
        "slot": "142",
        "type": "t_mapping(t_uint256,t_struct(ApprovalRequest)12413_storage)"
      },
      {
        "astId": 12567,
        "contract": "contracts/Governance.sol:Governance",
        "label": "registry",
        "offset": 0,
        "slot": "143",
        "type": "t_contract(IRegistry)13288"
      },
      {
        "astId": 12569,
        "contract": "contracts/Governance.sol:Governance",
        "label": "staking",
        "offset": 0,
        "slot": "144",
        "type": "t_contract(IStaking)13334"
      },
      {
        "astId": 12571,
        "contract": "contracts/Governance.sol:Governance",
        "label": "totalIds",
        "offset": 0,
        "slot": "145",
        "type": "t_uint256"
      },
      {
        "astId": 12573,
        "contract": "contracts/Governance.sol:Governance",
        "label": "currentEpoch",
        "offset": 0,
        "slot": "146",
        "type": "t_uint256"
      },
      {
        "astId": 12577,
        "contract": "contracts/Governance.sol:Governance",
        "label": "amountOfSubstitutesRequested",
        "offset": 0,
        "slot": "147",
        "type": "t_mapping(t_uint256,t_uint256)"
      },
      {
        "astId": 12581,
        "contract": "contracts/Governance.sol:Governance",
        "label": "updatableVariables",
        "offset": 0,
        "slot": "148",
        "type": "t_mapping(t_bytes32,t_uint256)"
      },
      {
        "astId": 12596,
        "contract": "contracts/Governance.sol:Governance",
        "label": "cronjobList",
        "offset": 0,
        "slot": "149",
        "type": "t_struct(LinkedList)14075_storage"
      },
      {
        "astId": 12598,
        "contract": "contracts/Governance.sol:Governance",
        "label": "totalCronjobs",
        "offset": 0,
        "slot": "153",
        "type": "t_uint256"
      },
      {
        "astId": 12602,
        "contract": "contracts/Governance.sol:Governance",
        "label": "cronjobs",
        "offset": 0,
        "slot": "154",
        "type": "t_mapping(t_uint256,t_struct(Cronjob)12594_storage)"
      }
    ],
    "types": {
      "t_address": {
        "encoding": "inplace",
        "label": "address",
        "numberOfBytes": "20"
      },
      "t_array(t_uint256)49_storage": {
        "base": "t_uint256",
        "encoding": "inplace",
        "label": "uint256[49]",
        "numberOfBytes": "1568"
      },
      "t_array(t_uint256)50_storage": {
        "base": "t_uint256",
        "encoding": "inplace",
        "label": "uint256[50]",
        "numberOfBytes": "1600"
      },
      "t_bool": {
        "encoding": "inplace",
        "label": "bool",
        "numberOfBytes": "1"
      },
      "t_bytes32": {
        "encoding": "inplace",
        "label": "bytes32",
        "numberOfBytes": "32"
      },
      "t_contract(IRegistry)13288": {
        "encoding": "inplace",
        "label": "contract IRegistry",
        "numberOfBytes": "20"
      },
      "t_contract(IStaking)13334": {
        "encoding": "inplace",
        "label": "contract IStaking",
        "numberOfBytes": "20"
      },
      "t_enum(CronjobType)12589": {
        "encoding": "inplace",
        "label": "enum GovernanceTypesAndStorage.CronjobType",
        "numberOfBytes": "1"
      },
      "t_enum(VotingStatusDelegators)12398": {
        "encoding": "inplace",
        "label": "enum GovernanceTypesAndStorage.VotingStatusDelegators",
        "numberOfBytes": "1"
      },
      "t_enum(VotingStatusMembers)12392": {
        "encoding": "inplace",
        "label": "enum GovernanceTypesAndStorage.VotingStatusMembers",
        "numberOfBytes": "1"
      },
      "t_mapping(t_address,t_bool)": {
        "encoding": "mapping",
        "key": "t_address",
        "label": "mapping(address => bool)",
        "numberOfBytes": "32",
        "value": "t_bool"
      },
      "t_mapping(t_address,t_mapping(t_uint256,t_bool))": {
        "encoding": "mapping",
        "key": "t_address",
        "label": "mapping(address => mapping(uint256 => bool))",
        "numberOfBytes": "32",
        "value": "t_mapping(t_uint256,t_bool)"
      },
      "t_mapping(t_address,t_mapping(t_uint256,t_bytes32))": {
        "encoding": "mapping",
        "key": "t_address",
        "label": "mapping(address => mapping(uint256 => bytes32))",
        "numberOfBytes": "32",
        "value": "t_mapping(t_uint256,t_bytes32)"
      },
      "t_mapping(t_address,t_uint256)": {
        "encoding": "mapping",
        "key": "t_address",
        "label": "mapping(address => uint256)",
        "numberOfBytes": "32",
        "value": "t_uint256"
      },
      "t_mapping(t_bytes32,t_uint256)": {
        "encoding": "mapping",
        "key": "t_bytes32",
        "label": "mapping(bytes32 => uint256)",
        "numberOfBytes": "32",
        "value": "t_uint256"
      },
      "t_mapping(t_uint256,t_address)": {
        "encoding": "mapping",
        "key": "t_uint256",
        "label": "mapping(uint256 => address)",
        "numberOfBytes": "32",
        "value": "t_address"
      },
      "t_mapping(t_uint256,t_bool)": {
        "encoding": "mapping",
        "key": "t_uint256",
        "label": "mapping(uint256 => bool)",
        "numberOfBytes": "32",
        "value": "t_bool"
      },
      "t_mapping(t_uint256,t_bytes32)": {
        "encoding": "mapping",
        "key": "t_uint256",
        "label": "mapping(uint256 => bytes32)",
        "numberOfBytes": "32",
        "value": "t_bytes32"
      },
      "t_mapping(t_uint256,t_mapping(t_uint256,t_bool))": {
        "encoding": "mapping",
        "key": "t_uint256",
        "label": "mapping(uint256 => mapping(uint256 => bool))",
        "numberOfBytes": "32",
        "value": "t_mapping(t_uint256,t_bool)"
      },
      "t_mapping(t_uint256,t_struct(ApprovalRequest)12413_storage)": {
        "encoding": "mapping",
        "key": "t_uint256",
        "label": "mapping(uint256 => struct GovernanceTypesAndStorage.ApprovalRequest)",
        "numberOfBytes": "32",
        "value": "t_struct(ApprovalRequest)12413_storage"
      },
      "t_mapping(t_uint256,t_struct(Cronjob)12594_storage)": {
        "encoding": "mapping",
        "key": "t_uint256",
        "label": "mapping(uint256 => struct GovernanceTypesAndStorage.Cronjob)",
        "numberOfBytes": "32",
        "value": "t_struct(Cronjob)12594_storage"
      },
      "t_mapping(t_uint256,t_struct(LinkedList)13386_storage)": {
        "encoding": "mapping",
        "key": "t_uint256",
        "label": "mapping(uint256 => struct DoubleLinkedList.LinkedList)",
        "numberOfBytes": "32",
        "value": "t_struct(LinkedList)13386_storage"
      },
      "t_mapping(t_uint256,t_struct(Node)13375_storage)": {
        "encoding": "mapping",
        "key": "t_uint256",
        "label": "mapping(uint256 => struct DoubleLinkedList.Node)",
        "numberOfBytes": "32",
        "value": "t_struct(Node)13375_storage"
      },
      "t_mapping(t_uint256,t_struct(Node)14064_storage)": {
        "encoding": "mapping",
        "key": "t_uint256",
        "label": "mapping(uint256 => struct ValuedDoubleLinkedList.Node)",
        "numberOfBytes": "32",
        "value": "t_struct(Node)14064_storage"
      },
      "t_mapping(t_uint256,t_uint256)": {
        "encoding": "mapping",
        "key": "t_uint256",
        "label": "mapping(uint256 => uint256)",
        "numberOfBytes": "32",
        "value": "t_uint256"
      },
      "t_struct(ApprovalRequest)12413_storage": {
        "encoding": "inplace",
        "label": "struct GovernanceTypesAndStorage.ApprovalRequest",
        "members": [
          {
            "astId": 12400,
            "contract": "contracts/Governance.sol:Governance",
            "label": "loanId",
            "offset": 0,
            "slot": "0",
            "type": "t_uint256"
          },
          {
            "astId": 12402,
            "contract": "contracts/Governance.sol:Governance",
            "label": "isMilestone",
            "offset": 0,
            "slot": "1",
            "type": "t_bool"
          },
          {
            "astId": 12404,
            "contract": "contracts/Governance.sol:Governance",
            "label": "milestoneNumber",
            "offset": 0,
            "slot": "2",
            "type": "t_uint256"
          },
          {
            "astId": 12406,
            "contract": "contracts/Governance.sol:Governance",
            "label": "deadlineTimestamp",
            "offset": 0,
            "slot": "3",
            "type": "t_uint256"
          },
          {
            "astId": 12408,
            "contract": "contracts/Governance.sol:Governance",
            "label": "approvalsProvided",
            "offset": 0,
            "slot": "4",
            "type": "t_uint256"
          },
          {
            "astId": 12410,
            "contract": "contracts/Governance.sol:Governance",
            "label": "isApproved",
            "offset": 0,
            "slot": "5",
            "type": "t_bool"
          },
          {
            "astId": 12412,
            "contract": "contracts/Governance.sol:Governance",
            "label": "epochSubmitted",
            "offset": 0,
            "slot": "6",
            "type": "t_uint256"
          }
        ],
        "numberOfBytes": "224"
      },
      "t_struct(Cronjob)12594_storage": {
        "encoding": "inplace",
        "label": "struct GovernanceTypesAndStorage.Cronjob",
        "members": [
          {
            "astId": 12591,
            "contract": "contracts/Governance.sol:Governance",
            "label": "cronjobType",
            "offset": 0,
            "slot": "0",
            "type": "t_enum(CronjobType)12589"
          },
          {
            "astId": 12593,
            "contract": "contracts/Governance.sol:Governance",
            "label": "externalId",
            "offset": 0,
            "slot": "1",
            "type": "t_uint256"
          }
        ],
        "numberOfBytes": "64"
      },
      "t_struct(LinkedList)13386_storage": {
        "encoding": "inplace",
        "label": "struct DoubleLinkedList.LinkedList",
        "members": [
          {
            "astId": 13377,
            "contract": "contracts/Governance.sol:Governance",
            "label": "head",
            "offset": 0,
            "slot": "0",
            "type": "t_uint256"
          },
          {
            "astId": 13379,
            "contract": "contracts/Governance.sol:Governance",
            "label": "tail",
            "offset": 0,
            "slot": "1",
            "type": "t_uint256"
          },
          {
            "astId": 13381,
            "contract": "contracts/Governance.sol:Governance",
            "label": "size",
            "offset": 0,
            "slot": "2",
            "type": "t_uint256"
          },
          {
            "astId": 13385,
            "contract": "contracts/Governance.sol:Governance",
            "label": "nodes",
            "offset": 0,
            "slot": "3",
            "type": "t_mapping(t_uint256,t_struct(Node)13375_storage)"
          }
        ],
        "numberOfBytes": "128"
      },
      "t_struct(LinkedList)14075_storage": {
        "encoding": "inplace",
        "label": "struct ValuedDoubleLinkedList.LinkedList",
        "members": [
          {
            "astId": 14066,
            "contract": "contracts/Governance.sol:Governance",
            "label": "head",
            "offset": 0,
            "slot": "0",
            "type": "t_uint256"
          },
          {
            "astId": 14068,
            "contract": "contracts/Governance.sol:Governance",
            "label": "tail",
            "offset": 0,
            "slot": "1",
            "type": "t_uint256"
          },
          {
            "astId": 14070,
            "contract": "contracts/Governance.sol:Governance",
            "label": "size",
            "offset": 0,
            "slot": "2",
            "type": "t_uint256"
          },
          {
            "astId": 14074,
            "contract": "contracts/Governance.sol:Governance",
            "label": "nodes",
            "offset": 0,
            "slot": "3",
            "type": "t_mapping(t_uint256,t_struct(Node)14064_storage)"
          }
        ],
        "numberOfBytes": "128"
      },
      "t_struct(Node)13375_storage": {
        "encoding": "inplace",
        "label": "struct DoubleLinkedList.Node",
        "members": [
          {
            "astId": 13372,
            "contract": "contracts/Governance.sol:Governance",
            "label": "next",
            "offset": 0,
            "slot": "0",
            "type": "t_uint256"
          },
          {
            "astId": 13374,
            "contract": "contracts/Governance.sol:Governance",
            "label": "previous",
            "offset": 0,
            "slot": "1",
            "type": "t_uint256"
          }
        ],
        "numberOfBytes": "64"
      },
      "t_struct(Node)14064_storage": {
        "encoding": "inplace",
        "label": "struct ValuedDoubleLinkedList.Node",
        "members": [
          {
            "astId": 14059,
            "contract": "contracts/Governance.sol:Governance",
            "label": "next",
            "offset": 0,
            "slot": "0",
            "type": "t_uint256"
          },
          {
            "astId": 14061,
            "contract": "contracts/Governance.sol:Governance",
            "label": "previous",
            "offset": 0,
            "slot": "1",
            "type": "t_uint256"
          },
          {
            "astId": 14063,
            "contract": "contracts/Governance.sol:Governance",
            "label": "value",
            "offset": 0,
            "slot": "2",
            "type": "t_uint256"
          }
        ],
        "numberOfBytes": "96"
      },
      "t_uint256": {
        "encoding": "inplace",
        "label": "uint256",
        "numberOfBytes": "32"
      }
    }
  }
}