{
  "address": "0xE75E02Aed30D76eDC6b6B323a1678099ae80Ebe3",
  "abi": [
    {
      "anonymous": false,
      "inputs": [
        {
          "indexed": true,
          "internalType": "uint256",
          "name": "loanId",
          "type": "uint256"
        },
        {
          "indexed": true,
          "internalType": "bool",
          "name": "isMilestone",
          "type": "bool"
        },
        {
          "indexed": false,
          "internalType": "uint256",
          "name": "milestoneNumber",
          "type": "uint256"
        },
        {
          "indexed": true,
          "internalType": "address",
          "name": "user",
          "type": "address"
        }
      ],
      "name": "ApprovalRequested",
      "type": "event"
    },
    {
      "anonymous": false,
      "inputs": [
        {
          "indexed": true,
          "internalType": "address",
          "name": "registryAddress_",
          "type": "address"
        },
        {
          "indexed": true,
          "internalType": "address",
          "name": "stakingAddress_",
          "type": "address"
        },
        {
          "indexed": true,
          "internalType": "address",
          "name": "user",
          "type": "address"
        }
      ],
      "name": "InitGovernance",
      "type": "event"
    },
    {
      "anonymous": false,
      "inputs": [
        {
          "indexed": true,
          "internalType": "address",
          "name": "previousOwner",
          "type": "address"
        },
        {
          "indexed": true,
          "internalType": "address",
          "name": "newOwner",
          "type": "address"
        }
      ],
      "name": "OwnershipTransferred",
      "type": "event"
    },
    {
      "anonymous": false,
      "inputs": [
        {
          "indexed": true,
          "internalType": "uint256",
          "name": "requestId",
          "type": "uint256"
        },
        {
          "indexed": true,
          "internalType": "address",
          "name": "user",
          "type": "address"
        }
      ],
      "name": "RequestChallenged",
      "type": "event"
    },
    {
      "anonymous": false,
      "inputs": [
        {
          "indexed": true,
          "internalType": "uint256",
          "name": "loanId",
          "type": "uint256"
        },
        {
          "indexed": true,
          "internalType": "uint256",
          "name": "requestId",
          "type": "uint256"
        },
        {
          "indexed": false,
          "internalType": "bool",
          "name": "decision",
          "type": "bool"
        },
        {
          "indexed": true,
          "internalType": "address",
          "name": "user",
          "type": "address"
        }
      ],
      "name": "VotedForRequest",
      "type": "event"
    },
    {
      "inputs": [],
      "name": "amountStakedForDaoMembership",
      "outputs": [
        {
          "internalType": "uint256",
          "name": "",
          "type": "uint256"
        }
      ],
      "stateMutability": "view",
      "type": "function"
    },
    {
      "inputs": [
        {
          "internalType": "uint256",
          "name": "",
          "type": "uint256"
        }
      ],
      "name": "approvalRequests",
      "outputs": [
        {
          "internalType": "uint256",
          "name": "loanId",
          "type": "uint256"
        },
        {
          "internalType": "bool",
          "name": "isMilestone",
          "type": "bool"
        },
        {
          "internalType": "uint256",
          "name": "milestoneNumber",
          "type": "uint256"
        },
        {
          "internalType": "uint256",
          "name": "deadlineTimestamp",
          "type": "uint256"
        },
        {
          "internalType": "uint256",
          "name": "approvalsProvided",
          "type": "uint256"
        },
        {
          "internalType": "bool",
          "name": "isApproved",
          "type": "bool"
        }
      ],
      "stateMutability": "view",
      "type": "function"
    },
    {
      "inputs": [],
      "name": "approvalsNeeded",
      "outputs": [
        {
          "internalType": "uint256",
          "name": "",
          "type": "uint256"
        }
      ],
      "stateMutability": "view",
      "type": "function"
    },
    {
      "inputs": [
        {
          "internalType": "uint256",
          "name": "requestId",
          "type": "uint256"
        }
      ],
      "name": "challengeRequest",
      "outputs": [],
      "stateMutability": "nonpayable",
      "type": "function"
    },
    {
      "inputs": [
        {
          "internalType": "address",
          "name": "account",
          "type": "address"
        }
      ],
      "name": "checkDaoAddress",
      "outputs": [
        {
          "internalType": "bool",
          "name": "",
          "type": "bool"
        },
        {
          "internalType": "bool",
          "name": "",
          "type": "bool"
        }
      ],
      "stateMutability": "view",
      "type": "function"
    },
    {
      "inputs": [],
      "name": "getDaoData",
      "outputs": [
        {
          "internalType": "uint256",
          "name": "",
          "type": "uint256"
        },
        {
          "internalType": "uint256",
          "name": "",
          "type": "uint256"
        },
        {
          "internalType": "uint256",
          "name": "",
          "type": "uint256"
        },
        {
          "internalType": "uint256",
          "name": "",
          "type": "uint256"
        },
        {
          "internalType": "uint256",
          "name": "",
          "type": "uint256"
        }
      ],
      "stateMutability": "view",
      "type": "function"
    },
    {
      "inputs": [
        {
          "internalType": "address",
          "name": "",
          "type": "address"
        },
        {
          "internalType": "uint256",
          "name": "",
          "type": "uint256"
        }
      ],
      "name": "hasVotedForRequestId",
      "outputs": [
        {
          "internalType": "bool",
          "name": "",
          "type": "bool"
        }
      ],
      "stateMutability": "view",
      "type": "function"
    },
    {
      "inputs": [
        {
          "internalType": "address[]",
          "name": "daoDelegators",
          "type": "address[]"
        },
        {
          "internalType": "uint256",
          "name": "approvalsNeeded_",
          "type": "uint256"
        },
        {
          "internalType": "uint256",
          "name": "loanApprovalRequestDuration_",
          "type": "uint256"
        },
        {
          "internalType": "uint256",
          "name": "milestoneApprovalRequestDuration_",
          "type": "uint256"
        },
        {
          "internalType": "uint256",
          "name": "amountStakedForDaoMembership_",
          "type": "uint256"
        }
      ],
      "name": "initialize",
      "outputs": [],
      "stateMutability": "nonpayable",
      "type": "function"
    },
    {
      "inputs": [
        {
          "internalType": "address",
          "name": "",
          "type": "address"
        }
      ],
      "name": "isDaoDelegator",
      "outputs": [
        {
          "internalType": "bool",
          "name": "",
          "type": "bool"
        }
      ],
      "stateMutability": "view",
      "type": "function"
    },
    {
      "inputs": [
        {
          "internalType": "address",
          "name": "",
          "type": "address"
        }
      ],
      "name": "isDaoMember",
      "outputs": [
        {
          "internalType": "bool",
          "name": "",
          "type": "bool"
        }
      ],
      "stateMutability": "view",
      "type": "function"
    },
    {
      "inputs": [],
      "name": "loanApprovalRequestDuration",
      "outputs": [
        {
          "internalType": "uint256",
          "name": "",
          "type": "uint256"
        }
      ],
      "stateMutability": "view",
      "type": "function"
    },
    {
      "inputs": [],
      "name": "milestoneApprovalRequestDuration",
      "outputs": [
        {
          "internalType": "uint256",
          "name": "",
          "type": "uint256"
        }
      ],
      "stateMutability": "view",
      "type": "function"
    },
    {
      "inputs": [],
      "name": "owner",
      "outputs": [
        {
          "internalType": "address",
          "name": "",
          "type": "address"
        }
      ],
      "stateMutability": "view",
      "type": "function"
    },
    {
      "inputs": [],
      "name": "registry",
      "outputs": [
        {
          "internalType": "contract IRegistry",
          "name": "",
          "type": "address"
        }
      ],
      "stateMutability": "view",
      "type": "function"
    },
    {
      "inputs": [],
      "name": "renounceOwnership",
      "outputs": [],
      "stateMutability": "nonpayable",
      "type": "function"
    },
    {
      "inputs": [
        {
          "internalType": "uint256",
          "name": "loanId",
          "type": "uint256"
        },
        {
          "internalType": "bool",
          "name": "isMilestone",
          "type": "bool"
        },
        {
          "internalType": "uint256",
          "name": "milestoneNumber",
          "type": "uint256"
        }
      ],
      "name": "requestApproval",
      "outputs": [],
      "stateMutability": "nonpayable",
      "type": "function"
    },
    {
      "inputs": [
        {
          "internalType": "address",
          "name": "registryAddress_",
          "type": "address"
        },
        {
          "internalType": "address",
          "name": "stakingAddress_",
          "type": "address"
        }
      ],
      "name": "setRegistryAndStaking",
      "outputs": [],
      "stateMutability": "nonpayable",
      "type": "function"
    },
    {
      "inputs": [],
      "name": "staking",
      "outputs": [
        {
          "internalType": "contract IStaking",
          "name": "",
          "type": "address"
        }
      ],
      "stateMutability": "view",
      "type": "function"
    },
    {
      "inputs": [],
      "name": "subscribeForDaoMembership",
      "outputs": [],
      "stateMutability": "nonpayable",
      "type": "function"
    },
    {
      "inputs": [],
      "name": "totalApprovalRequests",
      "outputs": [
        {
          "internalType": "uint256",
          "name": "",
          "type": "uint256"
        }
      ],
      "stateMutability": "view",
      "type": "function"
    },
    {
      "inputs": [
        {
          "internalType": "address",
          "name": "newOwner",
          "type": "address"
        }
      ],
      "name": "transferOwnership",
      "outputs": [],
      "stateMutability": "nonpayable",
      "type": "function"
    },
    {
      "inputs": [],
      "name": "unsubscribeForDaoMembership",
      "outputs": [],
      "stateMutability": "nonpayable",
      "type": "function"
    },
    {
      "inputs": [
        {
          "internalType": "uint256",
          "name": "requestId",
          "type": "uint256"
        },
        {
          "internalType": "bool",
          "name": "decision",
          "type": "bool"
        }
      ],
      "name": "voteForRequest",
      "outputs": [],
      "stateMutability": "nonpayable",
      "type": "function"
    }
  ],
  "transactionHash": "0x9d8686279b55239ae9bf7b66aea448b99b5411f987e3db92e5a41732846f8a12",
  "args": [],
  "solcInputHash": "b4749c3639c4ae9324add8ba059987d0",
  "bytecode": "0x608060405234801561001057600080fd5b506115af806100206000396000f3fe608060405234801561001057600080fd5b506004361061014d5760003560e01c806382bd574e116100c3578063d5174a331161007c578063d5174a3314610430578063e9c2709714610438578063ec2e00b814610440578063f2fde38b1461046b578063f9f6f20414610491578063fd917238146104995761014d565b806382bd574e1461036057806385abbe8d146103685780638cb13c2e146103945780638da5cb5b146103e657806396739262146103ee57806397763daa146104135761014d565b80634cf088d9116101155780634cf088d9146102bd578063645171f2146102e157806366eaedb514610322578063715018a61461032a578063780e0149146103325780637b103999146103585761014d565b806319921b27146101525780631c67211d146101825780633349a734146101bc578063428508e4146101d65780634b6e1ade1461028a575b600080fd5b6101806004803603604081101561016857600080fd5b506001600160a01b03813581169160200135166104a1565b005b6101a86004803603602081101561019857600080fd5b50356001600160a01b03166105d3565b604080519115158252519081900360200190f35b6101c46105e8565b60408051918252519081900360200190f35b610180600480360360a08110156101ec57600080fd5b81019060208101813564010000000081111561020757600080fd5b82018360208201111561021957600080fd5b8035906020019184602083028401116401000000008311171561023b57600080fd5b91908080602002602001604051908101604052809392919081815260200183836020028082843760009201919091525092955050823593505050602081013590604081013590606001356105ee565b61029261070a565b6040805195865260208601949094528484019290925260608401526080830152519081900360a00190f35b6102c5610720565b604080516001600160a01b039092168252519081900360200190f35b610307600480360360208110156102f757600080fd5b50356001600160a01b031661072f565b60408051921515835290151560208301528051918290030190f35b6101c461075e565b610180610764565b6101a86004803603602081101561034857600080fd5b50356001600160a01b0316610822565b6102c5610837565b6101c4610846565b6101a86004803603604081101561037e57600080fd5b506001600160a01b03813516906020013561084c565b6103b1600480360360208110156103aa57600080fd5b503561086c565b6040805196875294151560208701528585019390935260608501919091526080840152151560a0830152519081900360c00190f35b6102c56108a8565b6101806004803603604081101561040457600080fd5b508035906020013515156108b7565b6101806004803603602081101561042957600080fd5b5035610bd0565b6101c4610de0565b610180610de6565b6101806004803603606081101561045657600080fd5b50803590602081013515159060400135610eb6565b6101806004803603602081101561048157600080fd5b50356001600160a01b0316610ff6565b61018061110b565b6101c4611226565b6104a961122c565b6001600160a01b03166104ba6108a8565b6001600160a01b031614610515576040805162461bcd60e51b815260206004820181905260248201527f4f776e61626c653a2063616c6c6572206973206e6f7420746865206f776e6572604482015290519081900360640190fd5b606e546001600160a01b031615610573576040805162461bcd60e51b815260206004820152601d60248201527f43616e6e6f7420696e697469616c697a65207365636f6e642074696d65000000604482015290519081900360640190fd5b606e80546001600160a01b038085166001600160a01b03199283168117909355606f80549185169190921681179091556040513392907fd24d30f1bc85d143afa33cf5c7a331d3d8b2bf17e9b3100844728c8fd21e677790600090a45050565b60656020526000908152604090205460ff1681565b60695481565b600054610100900460ff16806106075750610607611230565b80610615575060005460ff16155b6106505760405162461bcd60e51b815260040180806020018281038252602e81526020018061151a602e913960400191505060405180910390fd5b600054610100900460ff1615801561067b576000805460ff1961ff0019909116610100171660011790555b610683611241565b60005b86518110156106db576001606660008984815181106106a157fe5b6020908102919091018101516001600160a01b03168252810191909152604001600020805460ff1916911515919091179055600101610686565b506069859055606b849055606c839055606d8290558015610702576000805461ff00191690555b505050505050565b606854606954606b54606c54606d549091929394565b606f546001600160a01b031681565b6001600160a01b031660009081526065602090815260408083205460669092529091205460ff91821692911690565b60685481565b61076c61122c565b6001600160a01b031661077d6108a8565b6001600160a01b0316146107d8576040805162461bcd60e51b815260206004820181905260248201527f4f776e61626c653a2063616c6c6572206973206e6f7420746865206f776e6572604482015290519081900360640190fd5b6033546040516000916001600160a01b0316907f8be0079c531659141344cd1fd0a4f28419497f9722a3daafe3b4186f6b6457e0908390a3603380546001600160a01b0319169055565b60666020526000908152604090205460ff1681565b606e546001600160a01b031681565b606b5481565b606760209081526000928352604080842090915290825290205460ff1681565b606a60205260009081526040902080546001820154600283015460038401546004850154600590950154939460ff938416949293919290911686565b6033546001600160a01b031690565b33600090815260666020526040902054829060ff16610912576040805162461bcd60e51b815260206004820152601260248201527127b7363c902230b7902232b632b3b0ba37b960711b604482015290519081900360640190fd5b33600090815260676020908152604080832084845290915290205460ff161561097a576040805162461bcd60e51b815260206004820152601560248201527413db9b1e481a59881b9bdd081d9bdd1959081e595d605a1b604482015290519081900360640190fd5b6000838152606a6020526040902060030154839042106109e1576040805162461bcd60e51b815260206004820152601f60248201527f4f6e6c79206265666f726520646561646c696e65206973207265616368656400604482015290519081900360640190fd5b8215610a17576000848152606a6020526040902060040154610a049060016112f3565b6000858152606a60205260409020600401555b6069546000858152606a602052604090206004015410610b5e576000848152606a602052604090206001015460ff1615610ac857606e546000858152606a6020526040808220548151630a88633160e41b815260048101919091526001602482015290516001600160a01b039093169263a88633109260448084019391929182900301818387803b158015610aab57600080fd5b505af1158015610abf573d6000803e3d6000fd5b50505050610b41565b606e546000858152606a6020526040808220548151634f1bef8d60e01b815260048101919091526001602482015290516001600160a01b0390931692634f1bef8d9260448084019391929182900301818387803b158015610b2857600080fd5b505af1158015610b3c573d6000803e3d6000fd5b505050505b6000848152606a60205260409020600501805460ff191660011790555b6000848152606a602090815260409182902054825186151581529251339388937f70af203def241488bb271f95f3ab62d4f5ec84d1cbd928f47deea5592b61df5892918290030190a45033600090815260676020908152604080832093835292905220805460ff191660011790555050565b6000818152606a60205260409020600301548190421015610c38576040805162461bcd60e51b815260206004820152601e60248201527f4f6e6c7920616674657220646561646c696e6520697320726561636865640000604482015290519081900360640190fd5b6000818152606a602052604090206005015460ff1615610c9f576040805162461bcd60e51b815260206004820152601c60248201527f4f6e6c79206966206e6f7420616c726561647920617070726f76656400000000604482015290519081900360640190fd5b6000828152606a602052604090206001015460ff1615610d3657606e546000838152606a6020526040808220548151630a88633160e41b815260048101919091526024810183905290516001600160a01b039093169263a88633109260448084019391929182900301818387803b158015610d1957600080fd5b505af1158015610d2d573d6000803e3d6000fd5b50505050610daf565b606e546000838152606a6020526040808220548151634f1bef8d60e01b815260048101919091526024810183905290516001600160a01b0390931692634f1bef8d9260448084019391929182900301818387803b158015610d9657600080fd5b505af1158015610daa573d6000803e3d6000fd5b505050505b604051339083907f79c0db20a08471d7f004f7cf6a7d8956fc176d02dba3e3a0eeaa7aa25945b6d290600090a35050565b606d5481565b3360009081526065602052604090205460ff16610e3c576040805162461bcd60e51b815260206004820152600f60248201526e27b7363c902230b79026b2b6b132b960891b604482015290519081900360640190fd5b33600081815260656020526040808220805460ff19169055606f5481516322e458d360e11b8152600481019490945290516001600160a01b03909116926345c8b1a692602480830193919282900301818387803b158015610e9c57600080fd5b505af1158015610eb0573d6000803e3d6000fd5b50505050565b606e546001600160a01b03163314610f0e576040805162461bcd60e51b815260206004820152601660248201527513db9b1e48149959da5cdd1c9e4818dbdb9d1c9858dd60521b604482015290519081900360640190fd5b606880546000908152606a60205260408082208690559154815220600101805460ff19168315801591909117909155610f80576068546000908152606a60205260409020600201819055606c54610f669042906112f3565b6068546000908152606a6020526040902060030155610fa4565b606b54610f8e9042906112f3565b6068546000908152606a60205260409020600301555b606854610fb29060016112f3565b60685560408051828152905133918415159186917f12185ea0d0c1067ec7ba45d618f57ea4939173d68a06773b50a6cbb7de254577919081900360200190a4505050565b610ffe61122c565b6001600160a01b031661100f6108a8565b6001600160a01b03161461106a576040805162461bcd60e51b815260206004820181905260248201527f4f776e61626c653a2063616c6c6572206973206e6f7420746865206f776e6572604482015290519081900360640190fd5b6001600160a01b0381166110af5760405162461bcd60e51b81526004018080602001828103825260268152602001806114f46026913960400191505060405180910390fd5b6033546040516001600160a01b038084169216907f8be0079c531659141344cd1fd0a4f28419497f9722a3daafe3b4186f6b6457e090600090a3603380546001600160a01b0319166001600160a01b0392909216919091179055565b606d54606f54604080516370a0823160e01b815233600482015290516001600160a01b03909216916370a0823191602480820192602092909190829003018186803b15801561115957600080fd5b505afa15801561116d573d6000803e3d6000fd5b505050506040513d602081101561118357600080fd5b505110156111c25760405162461bcd60e51b81526004018080602001828103825260328152602001806115486032913960400191505060405180910390fd5b33600081815260656020526040808220805460ff19166001179055606f548151638d1fdf2f60e01b8152600481019490945290516001600160a01b039190911692638d1fdf2f92602480830193919282900301818387803b158015610e9c57600080fd5b606c5481565b3390565b600061123b30611354565b15905090565b600054610100900460ff168061125a575061125a611230565b80611268575060005460ff16155b6112a35760405162461bcd60e51b815260040180806020018281038252602e81526020018061151a602e913960400191505060405180910390fd5b600054610100900460ff161580156112ce576000805460ff1961ff0019909116610100171660011790555b6112d661135a565b6112de6113fa565b80156112f0576000805461ff00191690555b50565b60008282018381101561134d576040805162461bcd60e51b815260206004820152601b60248201527f536166654d6174683a206164646974696f6e206f766572666c6f770000000000604482015290519081900360640190fd5b9392505050565b3b151590565b600054610100900460ff16806113735750611373611230565b80611381575060005460ff16155b6113bc5760405162461bcd60e51b815260040180806020018281038252602e81526020018061151a602e913960400191505060405180910390fd5b600054610100900460ff161580156112de576000805460ff1961ff00199091166101001716600117905580156112f0576000805461ff001916905550565b600054610100900460ff16806114135750611413611230565b80611421575060005460ff16155b61145c5760405162461bcd60e51b815260040180806020018281038252602e81526020018061151a602e913960400191505060405180910390fd5b600054610100900460ff16158015611487576000805460ff1961ff0019909116610100171660011790555b600061149161122c565b603380546001600160a01b0319166001600160a01b038316908117909155604051919250906000907f8be0079c531659141344cd1fd0a4f28419497f9722a3daafe3b4186f6b6457e0908290a35080156112f0576000805461ff00191690555056fe4f776e61626c653a206e6577206f776e657220697320746865207a65726f2061646472657373496e697469616c697a61626c653a20636f6e747261637420697320616c726561647920696e697469616c697a65644f6e6c7920656e6f756768207374616b656420746f2073756273637269626520666f722044616f204d656d62657273686970a26469706673582212207efd58da4da8721a215e9560f7e7544e746a4948b4059a7bf8b31a2a6443c98664736f6c63430007030033",
  "devdoc": {
    "kind": "dev",
    "methods": {
      "checkDaoAddress(address)": {
        "details": "Helper function for querying DAO Membership",
        "params": {
          "account": "The address to check"
        },
        "returns": {
          "_0": "(isDaoMember?, isDaoDelegator?)"
        }
      },
      "getDaoData()": {
        "details": "Helper function for querying Governance variables",
        "returns": {
          "_0": "internal Governance uint variables"
        }
      },
      "initialize(address[],uint256,uint256,uint256,uint256)": {
        "details": "Initializes the contract by setting basic "
      },
      "owner()": {
        "details": "Returns the address of the current owner."
      },
      "renounceOwnership()": {
        "details": "Leaves the contract without owner. It will not be possible to call `onlyOwner` functions anymore. Can only be called by the current owner. NOTE: Renouncing ownership will leave the contract without an owner, thereby removing any functionality that is only available to the owner."
      },
      "transferOwnership(address)": {
        "details": "Transfers ownership of the contract to a new account (`newOwner`). Can only be called by the current owner."
      }
    },
    "title": "AllianceBlock Governance contract",
    "version": 1
  },
  "userdoc": {
    "kind": "user",
    "methods": {},
    "notice": "Responsible for govern AllianceBlock's ecosystem",
    "version": 1
  },
  "storageLayout": {
    "storage": [
      {
        "astId": 890,
        "contract": "contracts/Governance.sol:Governance",
        "label": "_initialized",
        "offset": 0,
        "slot": "0",
        "type": "t_bool"
      },
      {
        "astId": 893,
        "contract": "contracts/Governance.sol:Governance",
        "label": "_initializing",
        "offset": 1,
        "slot": "0",
        "type": "t_bool"
      },
      {
        "astId": 3750,
        "contract": "contracts/Governance.sol:Governance",
        "label": "__gap",
        "offset": 0,
        "slot": "1",
        "type": "t_array(t_uint256)50_storage"
      },
      {
        "astId": 321,
        "contract": "contracts/Governance.sol:Governance",
        "label": "_owner",
        "offset": 0,
        "slot": "51",
        "type": "t_address"
      },
      {
        "astId": 440,
        "contract": "contracts/Governance.sol:Governance",
        "label": "__gap",
        "offset": 0,
        "slot": "52",
        "type": "t_array(t_uint256)49_storage"
      },
      {
        "astId": 7829,
        "contract": "contracts/Governance.sol:Governance",
        "label": "isDaoMember",
        "offset": 0,
        "slot": "101",
        "type": "t_mapping(t_address,t_bool)"
      },
      {
        "astId": 7833,
        "contract": "contracts/Governance.sol:Governance",
        "label": "isDaoDelegator",
        "offset": 0,
        "slot": "102",
        "type": "t_mapping(t_address,t_bool)"
      },
      {
        "astId": 7839,
        "contract": "contracts/Governance.sol:Governance",
        "label": "hasVotedForRequestId",
        "offset": 0,
        "slot": "103",
        "type": "t_mapping(t_address,t_mapping(t_uint256,t_bool))"
      },
      {
        "astId": 7841,
        "contract": "contracts/Governance.sol:Governance",
        "label": "totalApprovalRequests",
        "offset": 0,
        "slot": "104",
        "type": "t_uint256"
      },
      {
        "astId": 7843,
        "contract": "contracts/Governance.sol:Governance",
        "label": "approvalsNeeded",
        "offset": 0,
        "slot": "105",
        "type": "t_uint256"
      },
      {
        "astId": 7860,
        "contract": "contracts/Governance.sol:Governance",
        "label": "approvalRequests",
        "offset": 0,
        "slot": "106",
        "type": "t_mapping(t_uint256,t_struct(ApprovalRequest)7856_storage)"
      },
      {
        "astId": 7862,
        "contract": "contracts/Governance.sol:Governance",
        "label": "loanApprovalRequestDuration",
        "offset": 0,
        "slot": "107",
        "type": "t_uint256"
      },
      {
        "astId": 7864,
        "contract": "contracts/Governance.sol:Governance",
        "label": "milestoneApprovalRequestDuration",
        "offset": 0,
        "slot": "108",
        "type": "t_uint256"
      },
      {
        "astId": 7866,
        "contract": "contracts/Governance.sol:Governance",
        "label": "amountStakedForDaoMembership",
        "offset": 0,
        "slot": "109",
        "type": "t_uint256"
      },
      {
        "astId": 7868,
        "contract": "contracts/Governance.sol:Governance",
        "label": "registry",
        "offset": 0,
        "slot": "110",
        "type": "t_contract(IRegistry)10223"
      },
      {
        "astId": 7870,
        "contract": "contracts/Governance.sol:Governance",
        "label": "staking",
        "offset": 0,
        "slot": "111",
        "type": "t_contract(IStaking)10244"
      }
    ],
    "types": {
      "t_address": {
        "encoding": "inplace",
        "label": "address",
        "numberOfBytes": "20"
      },
      "t_array(t_uint256)49_storage": {
        "base": "t_uint256",
        "encoding": "inplace",
        "label": "uint256[49]",
        "numberOfBytes": "1568"
      },
      "t_array(t_uint256)50_storage": {
        "base": "t_uint256",
        "encoding": "inplace",
        "label": "uint256[50]",
        "numberOfBytes": "1600"
      },
      "t_bool": {
        "encoding": "inplace",
        "label": "bool",
        "numberOfBytes": "1"
      },
      "t_contract(IRegistry)10223": {
        "encoding": "inplace",
        "label": "contract IRegistry",
        "numberOfBytes": "20"
      },
      "t_contract(IStaking)10244": {
        "encoding": "inplace",
        "label": "contract IStaking",
        "numberOfBytes": "20"
      },
      "t_mapping(t_address,t_bool)": {
        "encoding": "mapping",
        "key": "t_address",
        "label": "mapping(address => bool)",
        "numberOfBytes": "32",
        "value": "t_bool"
      },
      "t_mapping(t_address,t_mapping(t_uint256,t_bool))": {
        "encoding": "mapping",
        "key": "t_address",
        "label": "mapping(address => mapping(uint256 => bool))",
        "numberOfBytes": "32",
        "value": "t_mapping(t_uint256,t_bool)"
      },
      "t_mapping(t_uint256,t_bool)": {
        "encoding": "mapping",
        "key": "t_uint256",
        "label": "mapping(uint256 => bool)",
        "numberOfBytes": "32",
        "value": "t_bool"
      },
      "t_mapping(t_uint256,t_struct(ApprovalRequest)7856_storage)": {
        "encoding": "mapping",
        "key": "t_uint256",
        "label": "mapping(uint256 => struct Governance.ApprovalRequest)",
        "numberOfBytes": "32",
        "value": "t_struct(ApprovalRequest)7856_storage"
      },
      "t_struct(ApprovalRequest)7856_storage": {
        "encoding": "inplace",
        "label": "struct Governance.ApprovalRequest",
        "members": [
          {
            "astId": 7845,
            "contract": "contracts/Governance.sol:Governance",
            "label": "loanId",
            "offset": 0,
            "slot": "0",
            "type": "t_uint256"
          },
          {
            "astId": 7847,
            "contract": "contracts/Governance.sol:Governance",
            "label": "isMilestone",
            "offset": 0,
            "slot": "1",
            "type": "t_bool"
          },
          {
            "astId": 7849,
            "contract": "contracts/Governance.sol:Governance",
            "label": "milestoneNumber",
            "offset": 0,
            "slot": "2",
            "type": "t_uint256"
          },
          {
            "astId": 7851,
            "contract": "contracts/Governance.sol:Governance",
            "label": "deadlineTimestamp",
            "offset": 0,
            "slot": "3",
            "type": "t_uint256"
          },
          {
            "astId": 7853,
            "contract": "contracts/Governance.sol:Governance",
            "label": "approvalsProvided",
            "offset": 0,
            "slot": "4",
            "type": "t_uint256"
          },
          {
            "astId": 7855,
            "contract": "contracts/Governance.sol:Governance",
            "label": "isApproved",
            "offset": 0,
            "slot": "5",
            "type": "t_bool"
          }
        ],
        "numberOfBytes": "192"
      },
      "t_uint256": {
        "encoding": "inplace",
        "label": "uint256",
        "numberOfBytes": "32"
      }
    }
  }
}