{
  "address": "0xE9Ac4f3C8350e696D7F2E45dCa2B6667F4bc5FCC",
  "abi": [
    {
      "anonymous": false,
      "inputs": [
        {
          "indexed": true,
          "internalType": "uint256",
          "name": "investmentId",
          "type": "uint256"
        },
        {
          "indexed": true,
          "internalType": "address",
          "name": "user",
          "type": "address"
        },
        {
          "indexed": false,
          "internalType": "uint256",
          "name": "amount",
          "type": "uint256"
        }
      ],
      "name": "ConvertInvestmentTickets",
      "type": "event"
    },
    {
      "anonymous": false,
      "inputs": [
        {
          "indexed": true,
          "internalType": "uint256",
          "name": "projectId",
          "type": "uint256"
        },
        {
          "indexed": false,
          "internalType": "uint256",
          "name": "amountOfNFTToConvert",
          "type": "uint256"
        },
        {
          "indexed": false,
          "internalType": "uint256",
          "name": "amountOfInvestmentTokenToTransfer",
          "type": "uint256"
        }
      ],
      "name": "ConvertNFTToInvestmentTokens",
      "type": "event"
    },
    {
      "anonymous": false,
      "inputs": [
        {
          "indexed": true,
          "internalType": "uint256",
          "name": "investmentId",
          "type": "uint256"
        },
        {
          "indexed": true,
          "internalType": "address",
          "name": "user",
          "type": "address"
        },
        {
          "indexed": false,
          "internalType": "uint256",
          "name": "amountOfNfts",
          "type": "uint256"
        }
      ],
      "name": "LockInvestmentNfts",
      "type": "event"
    },
    {
      "anonymous": false,
      "inputs": [
        {
          "indexed": true,
          "internalType": "uint256",
          "name": "projectId",
          "type": "uint256"
        }
      ],
      "name": "LotteryExecuted",
      "type": "event"
    },
    {
      "anonymous": false,
      "inputs": [
        {
          "indexed": true,
          "internalType": "uint256",
          "name": "projectId",
          "type": "uint256"
        },
        {
          "indexed": false,
          "internalType": "uint256",
          "name": "amountToReturnForNonWonTickets",
          "type": "uint256"
        }
      ],
      "name": "LotteryLoserClaimedFunds",
      "type": "event"
    },
    {
      "anonymous": false,
      "inputs": [
        {
          "indexed": true,
          "internalType": "address",
          "name": "previousOwner",
          "type": "address"
        },
        {
          "indexed": true,
          "internalType": "address",
          "name": "newOwner",
          "type": "address"
        }
      ],
      "name": "OwnershipTransferred",
      "type": "event"
    },
    {
      "anonymous": false,
      "inputs": [
        {
          "indexed": true,
          "internalType": "uint256",
          "name": "projectId",
          "type": "uint256"
        }
      ],
      "name": "ProjectApproved",
      "type": "event"
    },
    {
      "anonymous": false,
      "inputs": [
        {
          "indexed": true,
          "internalType": "uint256",
          "name": "projectId",
          "type": "uint256"
        },
        {
          "indexed": false,
          "internalType": "uint256",
          "name": "amount",
          "type": "uint256"
        }
      ],
      "name": "ProjectInterest",
      "type": "event"
    },
    {
      "anonymous": false,
      "inputs": [
        {
          "indexed": true,
          "internalType": "uint256",
          "name": "projectId",
          "type": "uint256"
        }
      ],
      "name": "ProjectRejected",
      "type": "event"
    },
    {
      "anonymous": false,
      "inputs": [
        {
          "indexed": true,
          "internalType": "uint256",
          "name": "projectId",
          "type": "uint256"
        },
        {
          "indexed": true,
          "internalType": "address",
          "name": "user",
          "type": "address"
        },
        {
          "indexed": false,
          "internalType": "uint256",
          "name": "amount",
          "type": "uint256"
        }
      ],
      "name": "ProjectRequested",
      "type": "event"
    },
    {
      "anonymous": false,
      "inputs": [
        {
          "indexed": true,
          "internalType": "uint256",
          "name": "projectId",
          "type": "uint256"
        }
      ],
      "name": "ProjectSettled",
      "type": "event"
    },
    {
      "anonymous": false,
      "inputs": [
        {
          "indexed": true,
          "internalType": "uint256",
          "name": "projectId",
          "type": "uint256"
        }
      ],
      "name": "ProjectStarted",
      "type": "event"
    },
    {
      "anonymous": false,
      "inputs": [
        {
          "indexed": true,
          "internalType": "uint256",
          "name": "projectId",
          "type": "uint256"
        },
        {
          "indexed": false,
          "internalType": "uint256",
          "name": "ticketsToWithdraw",
          "type": "uint256"
        }
      ],
      "name": "WithdrawLockedInvestmentNfts",
      "type": "event"
    },
    {
      "anonymous": false,
      "inputs": [
        {
          "indexed": true,
          "internalType": "uint256",
          "name": "projectId",
          "type": "uint256"
        },
        {
          "indexed": false,
          "internalType": "uint256",
          "name": "amountWithdrawn",
          "type": "uint256"
        }
      ],
      "name": "seekerWithdrawInvestment",
      "type": "event"
    },
    {
      "inputs": [],
      "name": "__BaseProject_init",
      "outputs": [],
      "stateMutability": "nonpayable",
      "type": "function"
    },
    {
      "inputs": [
        {
          "internalType": "address",
          "name": "lendingToken_",
          "type": "address"
        }
      ],
      "name": "addLendingToken",
      "outputs": [],
      "stateMutability": "nonpayable",
      "type": "function"
    },
    {
      "inputs": [
        {
          "internalType": "uint256",
          "name": "",
          "type": "uint256"
        },
        {
          "internalType": "uint256",
          "name": "",
          "type": "uint256"
        }
      ],
      "name": "addressOfLotteryNumber",
      "outputs": [
        {
          "internalType": "address",
          "name": "",
          "type": "address"
        }
      ],
      "stateMutability": "view",
      "type": "function"
    },
    {
      "inputs": [],
      "name": "baseAmountForEachPartition",
      "outputs": [
        {
          "internalType": "uint256",
          "name": "",
          "type": "uint256"
        }
      ],
      "stateMutability": "view",
      "type": "function"
    },
    {
      "inputs": [],
      "name": "blocksLockedForReputation",
      "outputs": [
        {
          "internalType": "uint256",
          "name": "",
          "type": "uint256"
        }
      ],
      "stateMutability": "view",
      "type": "function"
    },
    {
      "inputs": [
        {
          "internalType": "uint256",
          "name": "projectId",
          "type": "uint256"
        }
      ],
      "name": "convertInvestmentTicketsToNfts",
      "outputs": [],
      "stateMutability": "nonpayable",
      "type": "function"
    },
    {
      "inputs": [
        {
          "internalType": "uint256",
          "name": "projectId",
          "type": "uint256"
        },
        {
          "internalType": "uint256",
          "name": "amountOfNFTToConvert",
          "type": "uint256"
        }
      ],
      "name": "convertNFTToInvestmentTokens",
      "outputs": [],
      "stateMutability": "nonpayable",
      "type": "function"
    },
    {
      "inputs": [
        {
          "internalType": "uint256",
          "name": "projectId",
          "type": "uint256"
        },
        {
          "internalType": "bool",
          "name": "decision",
          "type": "bool"
        }
      ],
      "name": "decideForProject",
      "outputs": [],
      "stateMutability": "nonpayable",
      "type": "function"
    },
    {
      "inputs": [],
      "name": "escrow",
      "outputs": [
        {
          "internalType": "contract IEscrow",
          "name": "",
          "type": "address"
        }
      ],
      "stateMutability": "view",
      "type": "function"
    },
    {
      "inputs": [
        {
          "internalType": "uint256",
          "name": "projectId",
          "type": "uint256"
        }
      ],
      "name": "executeLotteryRun",
      "outputs": [],
      "stateMutability": "nonpayable",
      "type": "function"
    },
    {
      "inputs": [],
      "name": "fundingNFT",
      "outputs": [
        {
          "internalType": "contract IERC1155Mint",
          "name": "",
          "type": "address"
        }
      ],
      "stateMutability": "view",
      "type": "function"
    },
    {
      "inputs": [
        {
          "internalType": "uint256",
          "name": "projectId",
          "type": "uint256"
        }
      ],
      "name": "getInvestmentMetadata",
      "outputs": [
        {
          "components": [
            {
              "internalType": "uint256",
              "name": "investmentId",
              "type": "uint256"
            },
            {
              "internalType": "uint256",
              "name": "approvalDate",
              "type": "uint256"
            },
            {
              "internalType": "uint256",
              "name": "startingDate",
              "type": "uint256"
            },
            {
              "internalType": "address",
              "name": "investmentToken",
              "type": "address"
            },
            {
              "internalType": "uint256",
              "name": "investmentTokensAmount",
              "type": "uint256"
            },
            {
              "internalType": "address",
              "name": "lendingToken",
              "type": "address"
            },
            {
              "internalType": "uint256",
              "name": "totalAmountToBeRaised",
              "type": "uint256"
            },
            {
              "internalType": "uint256",
              "name": "totalPartitionsToBePurchased",
              "type": "uint256"
            },
            {
              "internalType": "string",
              "name": "extraInfo",
              "type": "string"
            },
            {
              "internalType": "uint256",
              "name": "partitionsRequested",
              "type": "uint256"
            }
          ],
          "internalType": "struct ProjectLibrary.InvestmentDetails",
          "name": "",
          "type": "tuple"
        },
        {
          "internalType": "enum ProjectLibrary.ProjectStatus",
          "name": "",
          "type": "uint8"
        },
        {
          "internalType": "address",
          "name": "",
          "type": "address"
        }
      ],
      "stateMutability": "view",
      "type": "function"
    },
    {
      "inputs": [
        {
          "internalType": "uint256",
          "name": "projectId",
          "type": "uint256"
        }
      ],
      "name": "getRequestingInterestStatus",
      "outputs": [
        {
          "internalType": "bool",
          "name": "",
          "type": "bool"
        }
      ],
      "stateMutability": "view",
      "type": "function"
    },
    {
      "inputs": [],
      "name": "governance",
      "outputs": [
        {
          "internalType": "contract IGovernance",
          "name": "",
          "type": "address"
        }
      ],
      "stateMutability": "view",
      "type": "function"
    },
    {
      "inputs": [
        {
          "internalType": "address",
          "name": "escrowAddress",
          "type": "address"
        },
        {
          "internalType": "address",
          "name": "governanceAddress_",
          "type": "address"
        },
        {
          "internalType": "address[]",
          "name": "lendingTokens_",
          "type": "address[]"
        },
        {
          "internalType": "address",
          "name": "fundingNFT_",
          "type": "address"
        },
        {
          "internalType": "address",
          "name": "projectManager_",
          "type": "address"
        },
        {
          "internalType": "uint256",
          "name": "baseAmountForEachPartition_",
          "type": "uint256"
        }
      ],
      "name": "initialize",
      "outputs": [],
      "stateMutability": "nonpayable",
      "type": "function"
    },
    {
      "inputs": [
        {
          "internalType": "address",
          "name": "reputationalAlbt",
          "type": "address"
        },
        {
          "internalType": "uint256",
          "name": "totalTicketsPerRun_",
          "type": "uint256"
        },
        {
          "internalType": "uint256",
          "name": "rAlbtPerLotteryNumber_",
          "type": "uint256"
        },
        {
          "internalType": "uint256",
          "name": "blocksLockedForReputation_",
          "type": "uint256"
        },
        {
          "internalType": "uint256",
          "name": "lotteryNumbersForImmediateTicket_",
          "type": "uint256"
        }
      ],
      "name": "initializeInvestment",
      "outputs": [],
      "stateMutability": "nonpayable",
      "type": "function"
    },
    {
      "inputs": [
        {
          "internalType": "uint256",
          "name": "",
          "type": "uint256"
        }
      ],
      "name": "investmentDetails",
      "outputs": [
        {
          "internalType": "uint256",
          "name": "investmentId",
          "type": "uint256"
        },
        {
          "internalType": "uint256",
          "name": "approvalDate",
          "type": "uint256"
        },
        {
          "internalType": "uint256",
          "name": "startingDate",
          "type": "uint256"
        },
        {
          "internalType": "address",
          "name": "investmentToken",
          "type": "address"
        },
        {
          "internalType": "uint256",
          "name": "investmentTokensAmount",
          "type": "uint256"
        },
        {
          "internalType": "address",
          "name": "lendingToken",
          "type": "address"
        },
        {
          "internalType": "uint256",
          "name": "totalAmountToBeRaised",
          "type": "uint256"
        },
        {
          "internalType": "uint256",
          "name": "totalPartitionsToBePurchased",
          "type": "uint256"
        },
        {
          "internalType": "string",
          "name": "extraInfo",
          "type": "string"
        },
        {
          "internalType": "uint256",
          "name": "partitionsRequested",
          "type": "uint256"
        }
      ],
      "stateMutability": "view",
      "type": "function"
    },
    {
      "inputs": [
        {
          "internalType": "uint256",
          "name": "",
          "type": "uint256"
        }
      ],
      "name": "investmentTokensPerTicket",
      "outputs": [
        {
          "internalType": "uint256",
          "name": "",
          "type": "uint256"
        }
      ],
      "stateMutability": "view",
      "type": "function"
    },
    {
      "inputs": [
        {
          "internalType": "uint256",
          "name": "",
          "type": "uint256"
        }
      ],
      "name": "investmentWithdrawn",
      "outputs": [
        {
          "internalType": "bool",
          "name": "",
          "type": "bool"
        }
      ],
      "stateMutability": "view",
      "type": "function"
    },
    {
      "inputs": [
        {
          "internalType": "address",
          "name": "",
          "type": "address"
        }
      ],
      "name": "isValidLendingToken",
      "outputs": [
        {
          "internalType": "bool",
          "name": "",
          "type": "bool"
        }
      ],
      "stateMutability": "view",
      "type": "function"
    },
    {
      "inputs": [
        {
          "internalType": "uint256",
          "name": "projectId",
          "type": "uint256"
        }
      ],
      "name": "isValidReferralId",
      "outputs": [
        {
          "internalType": "bool",
          "name": "",
          "type": "bool"
        }
      ],
      "stateMutability": "view",
      "type": "function"
    },
    {
      "inputs": [
        {
          "internalType": "address",
          "name": "",
          "type": "address"
        }
      ],
      "name": "lastBlockCheckedForLockedNftsPerAddress",
      "outputs": [
        {
          "internalType": "uint256",
          "name": "",
          "type": "uint256"
        }
      ],
      "stateMutability": "view",
      "type": "function"
    },
    {
      "inputs": [
        {
          "internalType": "uint256",
          "name": "projectId",
          "type": "uint256"
        },
        {
          "internalType": "uint256",
          "name": "nftsToLock",
          "type": "uint256"
        }
      ],
      "name": "lockInvestmentNfts",
      "outputs": [],
      "stateMutability": "nonpayable",
      "type": "function"
    },
    {
      "inputs": [
        {
          "internalType": "uint256",
          "name": "",
          "type": "uint256"
        },
        {
          "internalType": "address",
          "name": "",
          "type": "address"
        }
      ],
      "name": "lockedNftsForSpecificInvestmentPerAddress",
      "outputs": [
        {
          "internalType": "uint256",
          "name": "",
          "type": "uint256"
        }
      ],
      "stateMutability": "view",
      "type": "function"
    },
    {
      "inputs": [
        {
          "internalType": "address",
          "name": "",
          "type": "address"
        }
      ],
      "name": "lockedNftsPerAddress",
      "outputs": [
        {
          "internalType": "uint256",
          "name": "",
          "type": "uint256"
        }
      ],
      "stateMutability": "view",
      "type": "function"
    },
    {
      "inputs": [],
      "name": "lotteryNumbersForImmediateTicket",
      "outputs": [
        {
          "internalType": "uint256",
          "name": "",
          "type": "uint256"
        }
      ],
      "stateMutability": "view",
      "type": "function"
    },
    {
      "inputs": [],
      "name": "owner",
      "outputs": [
        {
          "internalType": "address",
          "name": "",
          "type": "address"
        }
      ],
      "stateMutability": "view",
      "type": "function"
    },
    {
      "inputs": [],
      "name": "projectManager",
      "outputs": [
        {
          "internalType": "contract IProjectManager",
          "name": "",
          "type": "address"
        }
      ],
      "stateMutability": "view",
      "type": "function"
    },
    {
      "inputs": [
        {
          "internalType": "uint256",
          "name": "",
          "type": "uint256"
        }
      ],
      "name": "projectSeeker",
      "outputs": [
        {
          "internalType": "address",
          "name": "",
          "type": "address"
        }
      ],
      "stateMutability": "view",
      "type": "function"
    },
    {
      "inputs": [
        {
          "internalType": "uint256",
          "name": "",
          "type": "uint256"
        }
      ],
      "name": "projectStatus",
      "outputs": [
        {
          "internalType": "enum ProjectLibrary.ProjectStatus",
          "name": "",
          "type": "uint8"
        }
      ],
      "stateMutability": "view",
      "type": "function"
    },
    {
      "inputs": [],
      "name": "rALBT",
      "outputs": [
        {
          "internalType": "contract IERC20",
          "name": "",
          "type": "address"
        }
      ],
      "stateMutability": "view",
      "type": "function"
    },
    {
      "inputs": [],
      "name": "rAlbtPerLotteryNumber",
      "outputs": [
        {
          "internalType": "uint256",
          "name": "",
          "type": "uint256"
        }
      ],
      "stateMutability": "view",
      "type": "function"
    },
    {
      "inputs": [
        {
          "internalType": "uint256",
          "name": "",
          "type": "uint256"
        },
        {
          "internalType": "address",
          "name": "",
          "type": "address"
        }
      ],
      "name": "remainingTicketsPerAddress",
      "outputs": [
        {
          "internalType": "uint256",
          "name": "",
          "type": "uint256"
        }
      ],
      "stateMutability": "view",
      "type": "function"
    },
    {
      "inputs": [],
      "name": "renounceOwnership",
      "outputs": [],
      "stateMutability": "nonpayable",
      "type": "function"
    },
    {
      "inputs": [
        {
          "internalType": "address",
          "name": "investmentToken",
          "type": "address"
        },
        {
          "internalType": "uint256",
          "name": "amountOfInvestmentTokens",
          "type": "uint256"
        },
        {
          "internalType": "address",
          "name": "lendingToken",
          "type": "address"
        },
        {
          "internalType": "uint256",
          "name": "totalAmountRequested_",
          "type": "uint256"
        },
        {
          "internalType": "string",
          "name": "extraInfo",
          "type": "string"
        }
      ],
      "name": "requestInvestment",
      "outputs": [],
      "stateMutability": "nonpayable",
      "type": "function"
    },
    {
      "inputs": [
        {
          "internalType": "address",
          "name": "escrowAddress_",
          "type": "address"
        }
      ],
      "name": "setEscrowAddress",
      "outputs": [],
      "stateMutability": "nonpayable",
      "type": "function"
    },
    {
      "inputs": [
        {
          "internalType": "uint256",
          "name": "projectId",
          "type": "uint256"
        },
        {
          "internalType": "uint256",
          "name": "amountOfPartitions",
          "type": "uint256"
        }
      ],
      "name": "showInterestForInvestment",
      "outputs": [],
      "stateMutability": "nonpayable",
      "type": "function"
    },
    {
      "inputs": [
        {
          "internalType": "uint256",
          "name": "projectId",
          "type": "uint256"
        }
      ],
      "name": "startLotteryPhase",
      "outputs": [],
      "stateMutability": "nonpayable",
      "type": "function"
    },
    {
      "inputs": [
        {
          "internalType": "uint256",
          "name": "",
          "type": "uint256"
        }
      ],
      "name": "ticketsRemaining",
      "outputs": [
        {
          "internalType": "uint256",
          "name": "",
          "type": "uint256"
        }
      ],
      "stateMutability": "view",
      "type": "function"
    },
    {
      "inputs": [
        {
          "internalType": "uint256",
          "name": "",
          "type": "uint256"
        },
        {
          "internalType": "address",
          "name": "",
          "type": "address"
        }
      ],
      "name": "ticketsWonPerAddress",
      "outputs": [
        {
          "internalType": "uint256",
          "name": "",
          "type": "uint256"
        }
      ],
      "stateMutability": "view",
      "type": "function"
    },
    {
      "inputs": [
        {
          "internalType": "uint256",
          "name": "",
          "type": "uint256"
        }
      ],
      "name": "totalLotteryNumbersPerInvestment",
      "outputs": [
        {
          "internalType": "uint256",
          "name": "",
          "type": "uint256"
        }
      ],
      "stateMutability": "view",
      "type": "function"
    },
    {
      "inputs": [],
      "name": "totalProjects",
      "outputs": [
        {
          "internalType": "uint256",
          "name": "",
          "type": "uint256"
        }
      ],
      "stateMutability": "view",
      "type": "function"
    },
    {
      "inputs": [],
      "name": "totalTicketsPerRun",
      "outputs": [
        {
          "internalType": "uint256",
          "name": "",
          "type": "uint256"
        }
      ],
      "stateMutability": "view",
      "type": "function"
    },
    {
      "inputs": [
        {
          "internalType": "address",
          "name": "newOwner",
          "type": "address"
        }
      ],
      "name": "transferOwnership",
      "outputs": [],
      "stateMutability": "nonpayable",
      "type": "function"
    },
    {
      "inputs": [
        {
          "internalType": "uint256",
          "name": "projectId",
          "type": "uint256"
        }
      ],
      "name": "withdrawAmountProvidedForNonWonTickets",
      "outputs": [],
      "stateMutability": "nonpayable",
      "type": "function"
    },
    {
      "inputs": [
        {
          "internalType": "uint256",
          "name": "projectId",
          "type": "uint256"
        }
      ],
      "name": "withdrawInvestment",
      "outputs": [],
      "stateMutability": "nonpayable",
      "type": "function"
    },
    {
      "inputs": [
        {
          "internalType": "uint256",
          "name": "projectId",
          "type": "uint256"
        },
        {
          "internalType": "uint256",
          "name": "nftsToWithdraw",
          "type": "uint256"
        }
      ],
      "name": "withdrawLockedInvestmentNfts",
      "outputs": [],
      "stateMutability": "nonpayable",
      "type": "function"
    }
  ],
  "transactionHash": "0xa3d00431569424c7aef9b4edb16f60191a1b068559287e206ba03d9e4edf1dcc",
  "args": [],
  "solcInputHash": "2655e296375c08ec2ee94c1a605dd52e",
  "bytecode": "0x608060405234801561001057600080fd5b50614521806100206000396000f3fe608060405234801561001057600080fd5b50600436106102955760003560e01c806374ab32e511610167578063a51df996116100ce578063ee91e5f811610087578063ee91e5f81461056f578063eebeb1cd14610582578063ef92f77314610595578063f2fde38b146105a8578063f5bd8bf6146105bb578063fb0dbc37146105ce57610295565b8063a51df99614610513578063d4ea729014610526578063d76ac91f14610539578063ddeb63b51461054c578063e0c393461461055f578063e2fdcc171461056757610295565b806385ee3a061161012057806385ee3a06146104cd5780638da5cb5b146104e0578063939156a2146104e8578063962fc122146104f05780639a02ad74146104f85780639c361e4e1461050b57610295565b806374ab32e51461044a578063756367241461046c57806379e666761461047f5780637c9e75d91461049f5780637e76080b146104b25780637f7b0eda146104ba57610295565b806350ac58921161020b57806361820b39116101c457806361820b39146103cd5780636281f431146103e0578063638b7e09146104095780636630efa61461041c578063715018a61461042f57806372f261231461043757610295565b806350ac58921461036457806351612f9e1461038457806354cc19b71461039757806354f1211f146103aa5780635aa6e675146103bd5780635d614539146103c557610295565b80632945374e1161025d5780632945374e14610308578063295027cb1461031b57806333d4f93f1461032e5780633700418a1461034157806338f40f5b1461034957806349195d191461035c57610295565b8063015c7f511461029a578063018fafc8146102af578063029eb76e146102d85780630d3209dd146102ed5780632037fcbf146102f5575b600080fd5b6102ad6102a8366004613771565b6105e1565b005b6102c26102bd366004613955565b610845565b6040516102cf91906142ce565b60405180910390f35b6102e0610857565b6040516102cf9190613aa1565b6102e0610866565b6102ad610303366004613955565b610875565b6102ad6103163660046139e3565b610a3b565b6102e06103293660046139e3565b610c09565b6102ad61033c3660046139e3565b610c2f565b6102c2610e2f565b6102ad610357366004613955565b610e35565b6102c2610e92565b610377610372366004613955565b610e98565b6040516102cf9190613b1e565b6102c2610392366004613985565b610ead565b6102ad6103a5366004613914565b610eca565b6102e06103b8366004613955565b610fed565b6102e0611008565b6102c2611017565b6102ad6103db3660046139b0565b61101d565b6103f36103ee366004613955565b61108f565b6040516102cf9a99989796959493929190614304565b6102c2610417366004613985565b611179565b6102c261042a366004613757565b611196565b6102ad6111a8565b6102ad6104453660046139e3565b611254565b61045d610458366004613955565b6114d6565b6040516102cf93929190614219565b6102ad61047a366004613955565b611619565b61049261048d366004613955565b61197a565b6040516102cf9190613b13565b6102ad6104ad3660046139e3565b61199b565b6102c2611b71565b6102c26104c8366004613955565b611b77565b6102c26104db366004613985565b611b89565b6102e0611ba6565b6102e0611bb5565b6102ad611bc4565b6102ad610506366004613873565b611bce565b6102c2611ec7565b6102c2610521366004613955565b611ecd565b6102ad610534366004613955565b611edf565b6102ad610547366004613757565b612082565b6102ad61055a366004613757565b6121a5565b6102c261226e565b6102e0612274565b6102c261057d366004613757565b612283565b6102ad610590366004613955565b612295565b6104926105a3366004613955565b612363565b6102ad6105b6366004613757565b612378565b6104926105c9366004613955565b61247b565b6104926105dc366004613757565b612498565b601a54610100900460ff16806105fa57506105fa6124ad565b806106085750601a5460ff16155b6106435760405162461bcd60e51b815260040180806020018281038252602e815260200180614428602e913960400191505060405180910390fd5b601a54610100900460ff1615801561066e57601a805460ff1961ff0019909116610100171660011790555b6001600160a01b03871661069d5760405162461bcd60e51b815260040161069490613beb565b60405180910390fd5b6001600160a01b0386166106c35760405162461bcd60e51b815260040161069490613b63565b6001600160a01b0384166106e95760405162461bcd60e51b815260040161069490613c39565b6001600160a01b03831661070f5760405162461bcd60e51b815260040161069490613e7b565b8161072c5760405162461bcd60e51b815260040161069490613c85565b6107346124be565b61073c611bc4565b601380546001600160a01b03808a166001600160a01b031992831617909255600b8490556011805489841690831617905560128054878416908316179055601580549286169290911691909117905560005b85518110156108295760006001600160a01b03168682815181106107ae57fe5b60200260200101516001600160a01b031614156107dd5760405162461bcd60e51b8152600401610694906140d0565b6001601860008884815181106107ef57fe5b6020908102919091018101516001600160a01b03168252810191909152604001600020805460ff191691151591909117905560010161078e565b50801561083c57601a805461ff00191690555b50505050505050565b60026020526000908152604090205481565b6015546001600160a01b031681565b6014546001600160a01b031681565b6002607f5414156108bb576040805162461bcd60e51b815260206004820152601f602482015260008051602061436f833981519152604482015290519081900360640190fd5b6002607f55600360008281526019602052604090205460ff1660058111156108df57fe5b146108fc5760405162461bcd60e51b815260040161069490613cd9565b6000818152601760205260409020546001600160a01b031633146109325760405162461bcd60e51b81526004016106949061419d565b60008181526003602052604090205460ff16156109615760405162461bcd60e51b815260040161069490613e0e565b6000818152600a6020818152604080842060068101546003845294829020805460ff19166001179055601354939092526005909101549051632c428f8360e21b81526001600160a01b039283169263b10a3e0c926109c89291169033908690600401613aef565b600060405180830381600087803b1580156109e257600080fd5b505af11580156109f6573d6000803e3d6000fd5b50505050817f57a2db4de015976fff86c9df85af2dccd634eeafbd58c02b2b05ea00db66b5d882604051610a2a91906142ce565b60405180910390a250506001607f55565b6002607f541415610a81576040805162461bcd60e51b815260206004820152601f602482015260008051602061436f833981519152604482015290519081900360640190fd5b6002607f55600360008381526019602052604090205460ff166005811115610aa557fe5b14610ac25760405162461bcd60e51b815260040161069490613cd9565b600081118015610aeb575060008281526007602090815260408083203384529091529020548111155b610b075760405162461bcd60e51b815260040161069490613b2c565b610b0f612567565b506000828152600760209081526040808320338452909152902054610b3490826126d8565b6000838152600760209081526040808320338452825280832093909355600890522054610b6190826126d8565b3360008181526008602052604090819020929092556013549151634f34b5f560e11b81526001600160a01b0390921691639e696bea91610ba791869186916004016142e5565b600060405180830381600087803b158015610bc157600080fd5b505af1158015610bd5573d6000803e3d6000fd5b50505050817f0613c44913af0014e37fcadba4697f8d591a9fb2443b90edfcad170c709ffcf982604051610a2a91906142ce565b60046020908152600092835260408084209091529082529020546001600160a01b031681565b6002607f541415610c75576040805162461bcd60e51b815260206004820152601f602482015260008051602061436f833981519152604482015290519081900360640190fd5b6002607f55601254604051627eeac760e11b815282916001600160a01b03169062fdd58e90610caa9033908790600401613ab5565b60206040518083038186803b158015610cc257600080fd5b505afa158015610cd6573d6000803e3d6000fd5b505050506040513d601f19601f82011682018060405250810190610cfa919061396d565b1015610d185760405162461bcd60e51b815260040161069490613de5565b601354604051633b29f55b60e21b81526001600160a01b039091169063eca7d56c90610d4c908590859033906004016142e5565b600060405180830381600087803b158015610d6657600080fd5b505af1158015610d7a573d6000803e3d6000fd5b50505050610d86612567565b506000828152600760209081526040808320338452909152902054610dab908261273a565b6000838152600760209081526040808320338452825280832093909355600890522054610dd8908261273a565b336000818152600860205260409081902092909255905183907f9dc2d6ed4abbec86ab0629ccbede31d0ed9260cf758533170228e80ee9f2f00d90610e1e9085906142ce565b60405180910390a350506001607f55565b600e5481565b6011546001600160a01b03163314610e86576040805162461bcd60e51b815260206004820152600f60248201526e4f6e6c7920476f7665726e616e636560881b604482015290519081900360640190fd5b610e8f8161279b565b50565b600f5481565b60196020526000908152604090205460ff1681565b600560209081526000928352604080842090915290825290205481565b610ed261282e565b6001600160a01b0316610ee3611ba6565b6001600160a01b031614610f2c576040805162461bcd60e51b815260206004820181905260248201526000805160206144a2833981519152604482015290519081900360640190fd5b6001600160a01b038516610f525760405162461bcd60e51b815260040161069490613e39565b8315801590610f6057508215155b8015610f6b57508115155b8015610f7657508015155b610f925760405162461bcd60e51b815260040161069490613fcb565b6014546001600160a01b031615610fbb5760405162461bcd60e51b815260040161069490613d62565b601480546001600160a01b0319166001600160a01b039690961695909517909455600c92909255600d55600e55600f55565b6017602052600090815260409020546001600160a01b031681565b6011546001600160a01b031681565b600b5481565b6011546001600160a01b0316331461106e576040805162461bcd60e51b815260206004820152600f60248201526e4f6e6c7920476f7665726e616e636560881b604482015290519081900360640190fd5b80156110825761107d82612832565b61108b565b61108b826128f7565b5050565b600a602090815260009182526040918290208054600180830154600280850154600386015460048701546005880154600689015460078a015460088b0180548e516101009b8216159b909b02600019011697909704601f81018d90048d028a018d01909d528c8952989b969a94996001600160a01b03948516999398949092169690959294919392918301828280156111695780601f1061113e57610100808354040283529160200191611169565b820191906000526020600020905b81548152906001019060200180831161114c57829003601f168201915b505050505090806009015490508a565b600660209081526000928352604080842090915290825290205481565b60086020526000908152604090205481565b6111b061282e565b6001600160a01b03166111c1611ba6565b6001600160a01b03161461120a576040805162461bcd60e51b815260206004820181905260248201526000805160206144a2833981519152604482015290519081900360640190fd5b604d546040516000916001600160a01b0316907f8be0079c531659141344cd1fd0a4f28419497f9722a3daafe3b4186f6b6457e0908390a3604d80546001600160a01b0319169055565b6002607f54141561129a576040805162461bcd60e51b815260206004820152601f602482015260008051602061436f833981519152604482015290519081900360640190fd5b6002607f55600360008381526019602052604090205460ff1660058111156112be57fe5b146112db5760405162461bcd60e51b815260040161069490613cd9565b806112f85760405162461bcd60e51b815260040161069490613f0b565b601254604051627eeac760e11b81526001600160a01b039091169062fdd58e906113289033908690600401613ab5565b60206040518083038186803b15801561134057600080fd5b505afa158015611354573d6000803e3d6000fd5b505050506040513d601f19601f82011682018060405250810190611378919061396d565b8111156113975760405162461bcd60e51b815260040161069490613f94565b6000828152602081905260408120546113b090836129c8565b60135460405163742cfb5360e11b81529192506001600160a01b03169063e859f6a6906113e590339087908790600401613ace565b600060405180830381600087803b1580156113ff57600080fd5b505af1158015611413573d6000803e3d6000fd5b50506013546000868152600a6020526040908190206003015490516309b72ccf60e31b81526001600160a01b039283169450634db966789350611460929091169033908690600401613aef565b600060405180830381600087803b15801561147a57600080fd5b505af115801561148e573d6000803e3d6000fd5b50505050827f97140abe2858cf2e4c2c0839f401fc030ed656dad2699b36cf54d0c0e717c89183836040516114c49291906142d7565b60405180910390a250506001607f5550565b6114de61363a565b6000828152600a602090815260408083206019835281842054601784528285205483516101408101855283548152600180850154828801526002808601548388015260038601546001600160a01b039081166060850152600487015460808501526005870154811660a0850152600687015460c0850152600787015460e085015260088701805489516101009582161586026000190190911693909304601f81018b90048b0284018b019099528883528a99979860ff909716979190951695939488949386019390918301828280156115f85780601f106115cd576101008083540402835291602001916115f8565b820191906000526020600020905b8154815290600101906020018083116115db57829003601f168201915b50505091835250506009919091015460209091015297919650945092505050565b600260008281526019602052604090205460ff16600581111561163857fe5b146116555760405162461bcd60e51b8152600401610694906141d4565b600081815260056020908152604080832033845290915290205461168b5760405162461bcd60e51b815260040161069490613d99565b60008181526006602090815260408083203384529091529020546116b090600161273a565b600082815260066020908152604080832033808552908352818420949094558483526005825280832093835292905220546116ec9060016126d8565b60008281526005602090815260408083203384528252808320939093558382526001908190529190205461171f916126d8565b6000828152600160208181526040808420859055600c546002835293205491905290918210611803576000838152601960209081526040808320805460ff191660031790556001909152808220805492905560125490516397107c3360e01b81529193506001600160a01b0316906397107c33906117a19086906004016142ce565b600060405180830381600087803b1580156117bb57600080fd5b505af11580156117cf573d6000803e3d6000fd5b50506040518592507f17ee46e885ff406622f57b3822373751f78467d569a2e6af45a35f79e833a4469150600090a261182c565b60008381526001602052604090205461181c90836126d8565b6000848152600160205260409020555b811561194a57600061183d82612a21565b60105490915061184e90600161273a565b60105560008481526004602052604081208161186b84600161273a565b81526020808201929092526040908101600090812054888252600584528282206001600160a01b0390911680835293522054909150156119435760008581526005602090815260408083206001600160a01b03851684529091529020546118d39060016126d8565b60008681526005602090815260408083206001600160a01b0386168085529083528184209490945588835260068252808320938352929052205461191890600161273a565b60008681526006602090815260408083206001600160a01b0386168452909152902055600019909301925b505061182c565b60405183907fce2db7f9c2ef366f59f185e62b57fd282a46f9a69d7d0ad19882a108f8f58b6690600090a2505050565b6000818152600a60205260409020600981015460079091015411155b919050565b6002607f5414156119e1576040805162461bcd60e51b815260206004820152601f602482015260008051602061436f833981519152604482015290519081900360640190fd5b6002607f55600160008381526019602052604090205460ff166005811115611a0557fe5b14611a225760405162461bcd60e51b81526004016106949061411e565b60008111611a425760405162461bcd60e51b815260040161069490613f4f565b601354600b54611a889133916001600160a01b0390911690611a659085906129c8565b6000868152600a60205260409020600501546001600160a01b0316929190612a61565b6000828152600a6020526040902060090154611aa4908261273a565b6000838152600a60209081526040808320600901939093556005815282822033835290522054151580611aef5750600082815260066020908152604080832033845290915290205415155b15611b37576000828152600560209081526040808320338452909152902054611b18908261273a565b6000838152600560209081526040808320338452909152902055611b41565b611b418282612ac1565b817faed613e9c999abb9155d30ce65745603dfe7881ae6c2266765e34bf104df973f82604051610a2a91906142ce565b600d5481565b60006020819052908152604090205481565b600760209081526000928352604080842090915290825290205481565b604d546001600160a01b031690565b6012546001600160a01b031681565b611bcc612d20565b565b6002607f541415611c14576040805162461bcd60e51b815260206004820152601f602482015260008051602061436f833981519152604482015290519081900360640190fd5b6002607f556001600160a01b03841660009081526018602052604090205460ff16611c515760405162461bcd60e51b815260040161069490614166565b600b54611c5f908490612dbd565b158015611c885750611c86611c7f600b5485612e2490919063ffffffff16565b8690612dbd565b155b611ca45760405162461bcd60e51b815260040161069490614032565b6000611ce98585898987878080601f016020809104026020016040519081016040528093929190818152602001838380828437600092019190915250612e8b92505050565b601354909150611d08906001600160a01b038981169133911689612a61565b6012546013546000838152600a602052604090819020600701549051639a477b2160e01b81526001600160a01b0393841693639a477b2193611d51939116918690600401613ace565b600060405180830381600087803b158015611d6b57600080fd5b505af1158015611d7f573d6000803e3d6000fd5b5050506000828152600a6020526040902060070154611da091508790612e24565b600082815260208190526040908190209190915560125490516313e3108160e01b81526001600160a01b03909116906313e3108190611de39084906004016142ce565b600060405180830381600087803b158015611dfd57600080fd5b505af1158015611e11573d6000803e3d6000fd5b5050601154604051631b4523e160e21b81526001600160a01b039091169250636d148f849150611e459084906004016142ce565b600060405180830381600087803b158015611e5f57600080fd5b505af1158015611e73573d6000803e3d6000fd5b50505050336001600160a01b0316817f911a99f535f2676078e863f8a6770b8caa5944b2312bf8a5703e4cb26d77bd0c86604051611eb191906142ce565b60405180910390a350506001607f555050505050565b60165481565b60016020526000908152604090205481565b6002607f541415611f25576040805162461bcd60e51b815260206004820152601f602482015260008051602061436f833981519152604482015290519081900360640190fd5b6002607f55600360008281526019602052604090205460ff166005811115611f4957fe5b14611f665760405162461bcd60e51b815260040161069490613eca565b6000818152600660209081526040808320338452909152902054611f9c5760405162461bcd60e51b815260040161069490614002565b600081815260066020908152604080832033808552925280832080549390556013549051634f34b5f560e11b81526001600160a01b0390911691639e696bea91611fed9186918691906004016142e5565b600060405180830381600087803b15801561200757600080fd5b505af115801561201b573d6000803e3d6000fd5b5050506000838152600560209081526040808320338452909152902054159050612048576120488261302d565b336001600160a01b0316827fd42896e5fe639f3dd36c7f8ee5fac567a03dc40b2d231a385567edefd1830ea383604051610e1e91906142ce565b61208a61282e565b6001600160a01b031661209b611ba6565b6001600160a01b0316146120e4576040805162461bcd60e51b815260206004820181905260248201526000805160206144a2833981519152604482015290519081900360640190fd5b6001600160a01b0381166121295760405162461bcd60e51b815260040180806020018281038252602b815260200180614477602b913960400191505060405180910390fd5b6001600160a01b03811660009081526018602052604090205460ff16156121815760405162461bcd60e51b81526004018080602001828103825260218152602001806143b56021913960400191505060405180910390fd5b6001600160a01b03166000908152601860205260409020805460ff19166001179055565b6121ad61282e565b6001600160a01b03166121be611ba6565b6001600160a01b031614612207576040805162461bcd60e51b815260206004820181905260248201526000805160206144a2833981519152604482015290519081900360640190fd5b6001600160a01b03811661224c5760405162461bcd60e51b815260040180806020018281038252602c8152602001806143fc602c913960400191505060405180910390fd5b601380546001600160a01b0319166001600160a01b0392909216919091179055565b600c5481565b6013546001600160a01b031681565b60096020526000908152604090205481565b6002607f5414156122db576040805162461bcd60e51b815260206004820152601f602482015260008051602061436f833981519152604482015290519081900360640190fd5b6002607f55600360008281526019602052604090205460ff1660058111156122ff57fe5b1461231c5760405162461bcd60e51b815260040161069490613cd9565b60008181526005602090815260408083203384529091529020546123525760405162461bcd60e51b815260040161069490614099565b61235b8161302d565b506001607f55565b60036020526000908152604090205460ff1681565b61238061282e565b6001600160a01b0316612391611ba6565b6001600160a01b0316146123da576040805162461bcd60e51b815260206004820181905260248201526000805160206144a2833981519152604482015290519081900360640190fd5b6001600160a01b03811661241f5760405162461bcd60e51b815260040180806020018281038252602681526020018061438f6026913960400191505060405180910390fd5b604d546040516001600160a01b038084169216907f8be0079c531659141344cd1fd0a4f28419497f9722a3daafe3b4186f6b6457e090600090a3604d80546001600160a01b0319166001600160a01b0392909216919091179055565b6000908152601760205260409020546001600160a01b0316151590565b60186020526000908152604090205460ff1681565b60006124b830613129565b15905090565b601a54610100900460ff16806124d757506124d76124ad565b806124e55750601a5460ff16155b6125205760405162461bcd60e51b815260040180806020018281038252602e815260200180614428602e913960400191505060405180910390fd5b601a54610100900460ff1615801561254b57601a805460ff1961ff0019909116610100171660011790555b61255361312f565b8015610e8f57601a805461ff001916905550565b336000908152600860205260408120541561265357600e543360009081526009602052604081205490916125ba916125b490670de0b6b3a7640000906125ae9043906126d8565b906129c8565b90612e24565b33600090815260086020526040812054919250906125d99083906129c8565b60135460405163d017797960e01b81529192506001600160a01b03169063d01779799061260c9033908590600401613ab5565b600060405180830381600087803b15801561262657600080fd5b505af115801561263a573d6000803e3d6000fd5b5050336000908152600960205260409020439055505050505b6014546040516370a0823160e01b81526001600160a01b03909116906370a0823190612683903390600401613aa1565b60206040518083038186803b15801561269b57600080fd5b505afa1580156126af573d6000803e3d6000fd5b505050506040513d601f19601f820116820180604052508101906126d3919061396d565b905090565b60008282111561272f576040805162461bcd60e51b815260206004820152601e60248201527f536166654d6174683a207375627472616374696f6e206f766572666c6f770000604482015290519081900360640190fd5b508082035b92915050565b600082820183811015612794576040805162461bcd60e51b815260206004820152601b60248201527f536166654d6174683a206164646974696f6e206f766572666c6f770000000000604482015290519081900360640190fd5b9392505050565b600160008281526019602052604090205460ff1660058111156127ba57fe5b146127d75760405162461bcd60e51b815260040161069490613d1b565b6000818152601960209081526040808320805460ff19166002908117909155600a909252808320429201919091555182917fc6103cc0479d202218c64bbfa4df30c34a1f97e64c85a5a441103a0766241e6691a250565b3390565b6000818152601960209081526040808320805460ff19166001908117909155600a8352818420428183015560070154925291829020556011549051633e0c10a760e01b81526001600160a01b0390911690633e0c10a7906128979084906004016142ce565b600060405180830381600087803b1580156128b157600080fd5b505af11580156128c5573d6000803e3d6000fd5b50506040518392507ffc534544f8ed1b516bf078b4ae88509d8f81f4fafefb10e9aad53e3e1fbce9bb9150600090a250565b6000818152601960209081526040808320805460ff19166005179055601354600a80845282852060038101546017865295849020549190945260049384015492516309b72ccf60e31b81526001600160a01b0392831695634db9667895612968959185169490931692909101613aef565b600060405180830381600087803b15801561298257600080fd5b505af1158015612996573d6000803e3d6000fd5b50506040518392507fcdcfe8bd58f12ac7a585895f7045b6322a1ec7e7179377dc3bfa8434ed22e7249150600090a250565b6000826129d757506000612734565b828202828482816129e457fe5b04146127945760405162461bcd60e51b81526004018080602001828103825260218152602001806144566021913960400191505060405180910390fd5b6000612734824442601054434033604051602001612a43959493929190613a6a565b60408051601f19818403018152919052805160209091012090612dbd565b604080516001600160a01b0380861660248301528416604482015260648082018490528251808303909101815260849091019091526020810180516001600160e01b03166323b872dd60e01b179052612abb9085906131d5565b50505050565b6000612acb612567565b90506000612ae4600d5483612e2490919063ffffffff16565b905080612b035760405162461bcd60e51b815260040161069490613bb6565b6000600f54821115612b56576000612b3c6001612b36600f54612b306001886126d890919063ffffffff16565b90612dbd565b9061273a565b600f54909150612b50906125b485846126d8565b90925090505b83811115612b615750825b8015612c71576000858152600160205260409020548110612c305750600084815260016020908152604080832054601990925291829020805460ff1916600317905560125491516397107c3360e01b815290916001600160a01b0316906397107c3390612bd29088906004016142ce565b600060405180830381600087803b158015612bec57600080fd5b505af1158015612c00573d6000803e3d6000fd5b50506040518792507f17ee46e885ff406622f57b3822373751f78467d569a2e6af45a35f79e833a4469150600090a25b600085815260066020908152604080832033845282528083208490558783526001909152902054612c6190826126d8565b6000868152600160205260409020555b612c7b84826126d8565b60008681526005602090815260408083203384528252808320939093558782526002905290812054612cad908461273a565b60008781526002602052604081205491925090612ccb90600161273a565b90505b818111612d06576000878152600460209081526040808320848452909152902080546001600160a01b03191633179055600101612cce565b506000958652600260205260409095209490945550505050565b601a54610100900460ff1680612d395750612d396124ad565b80612d475750601a5460ff16155b612d825760405162461bcd60e51b815260040180806020018281038252602e815260200180614428602e913960400191505060405180910390fd5b601a54610100900460ff16158015612dad57601a805460ff1961ff0019909116610100171660011790555b612db561328b565b61255361332b565b6000808211612e13576040805162461bcd60e51b815260206004820152601860248201527f536166654d6174683a206d6f64756c6f206279207a65726f0000000000000000604482015290519081900360640190fd5b818381612e1c57fe5b069392505050565b6000808211612e7a576040805162461bcd60e51b815260206004820152601a60248201527f536166654d6174683a206469766973696f6e206279207a65726f000000000000604482015290519081900360640190fd5b818381612e8357fe5b049392505050565b600080601560009054906101000a90046001600160a01b03166001600160a01b031663c7b96dba6040518163ffffffff1660e01b8152600401602060405180830381600087803b158015612ede57600080fd5b505af1158015612ef2573d6000803e3d6000fd5b505050506040513d6020811015612f0857600080fd5b50519050612f1461363a565b8181526001600160a01b03861660608201526080810185905260c081018790526101008101849052600b54612f4a908890612e24565b60e082019081526001600160a01b03808a1660a084019081526000858152600a60209081526040918290208651815581870151600182015591860151600283015560608601516003830180549186166001600160a01b03199283161790556080870151600484015592516005830180549190951693169290921790925560c084015160068301559151600782015561010083015180518493612ff392600885019291019061369f565b50610120919091015160099091015560009182526017602052604090912080546001600160a01b0319163317905551905095945050505050565b600b546000828152600560209081526040808320338452909152812054909161305691906129c8565b600083815260056020818152604080842033808652908352818520859055601354888652600a90935293819020909201549151632c428f8360e21b81529394506001600160a01b039081169363b10a3e0c936130bb9390921691908690600401613aef565b600060405180830381600087803b1580156130d557600080fd5b505af11580156130e9573d6000803e3d6000fd5b50505050817f3ef6786e43acf23cd047fcdc0d388e24793a404a8f19e80d576d98388052ac848260405161311d91906142ce565b60405180910390a25050565b3b151590565b601a54610100900460ff168061314857506131486124ad565b806131565750601a5460ff16155b6131915760405162461bcd60e51b815260040180806020018281038252602e815260200180614428602e913960400191505060405180910390fd5b601a54610100900460ff161580156131bc57601a805460ff1961ff0019909116610100171660011790555b6001607f558015610e8f57601a805461ff001916905550565b600061322a826040518060400160405280602081526020017f5361666545524332303a206c6f772d6c6576656c2063616c6c206661696c6564815250856001600160a01b03166134249092919063ffffffff16565b8051909150156132865780806020019051602081101561324957600080fd5b50516132865760405162461bcd60e51b815260040180806020018281038252602a8152602001806144c2602a913960400191505060405180910390fd5b505050565b601a54610100900460ff16806132a457506132a46124ad565b806132b25750601a5460ff16155b6132ed5760405162461bcd60e51b815260040180806020018281038252602e815260200180614428602e913960400191505060405180910390fd5b601a54610100900460ff1615801561255357601a805460ff1961ff0019909116610100171660011790558015610e8f57601a805461ff001916905550565b601a54610100900460ff168061334457506133446124ad565b806133525750601a5460ff16155b61338d5760405162461bcd60e51b815260040180806020018281038252602e815260200180614428602e913960400191505060405180910390fd5b601a54610100900460ff161580156133b857601a805460ff1961ff0019909116610100171660011790555b60006133c261282e565b604d80546001600160a01b0319166001600160a01b038316908117909155604051919250906000907f8be0079c531659141344cd1fd0a4f28419497f9722a3daafe3b4186f6b6457e0908290a3508015610e8f57601a805461ff001916905550565b6060613433848460008561343b565b949350505050565b60608247101561347c5760405162461bcd60e51b81526004018080602001828103825260268152602001806143d66026913960400191505060405180910390fd5b61348585613129565b6134d6576040805162461bcd60e51b815260206004820152601d60248201527f416464726573733a2063616c6c20746f206e6f6e2d636f6e7472616374000000604482015290519081900360640190fd5b600080866001600160a01b031685876040518082805190602001908083835b602083106135145780518252601f1990920191602091820191016134f5565b6001836020036101000a03801982511681845116808217855250505050505090500191505060006040518083038185875af1925050503d8060008114613576576040519150601f19603f3d011682016040523d82523d6000602084013e61357b565b606091505b509150915061358b828286613596565b979650505050505050565b606083156135a5575081612794565b8251156135b55782518084602001fd5b8160405162461bcd60e51b81526004018080602001828103825283818151815260200191508051906020019080838360005b838110156135ff5781810151838201526020016135e7565b50505050905090810190601f16801561362c5780820380516001836020036101000a031916815260200191505b509250505060405180910390fd5b60405180610140016040528060008152602001600081526020016000815260200160006001600160a01b031681526020016000815260200160006001600160a01b03168152602001600081526020016000815260200160608152602001600081525090565b828054600181600116156101000203166002900490600052602060002090601f0160209004810192826136d5576000855561371b565b82601f106136ee57805160ff191683800117855561371b565b8280016001018555821561371b579182015b8281111561371b578251825591602001919060010190613700565b5061372792915061372b565b5090565b5b80821115613727576000815560010161372c565b80356001600160a01b038116811461199657600080fd5b600060208284031215613768578081fd5b61279482613740565b60008060008060008060c08789031215613789578182fd5b61379287613740565b955060206137a1818901613740565b9550604088013567ffffffffffffffff808211156137bd578485fd5b818a0191508a601f8301126137d0578485fd5b8135818111156137dc57fe5b838102604051858282010181811085821117156137f557fe5b604052828152858101935084860182860187018f1015613813578889fd5b8895505b8386101561383c5761382881613740565b855260019590950194938601938601613817565b5080995050505050505061385260608801613740565b925061386060808801613740565b915060a087013590509295509295509295565b60008060008060008060a0878903121561388b578182fd5b61389487613740565b9550602087013594506138a960408801613740565b935060608701359250608087013567ffffffffffffffff808211156138cc578384fd5b818901915089601f8301126138df578384fd5b8135818111156138ed578485fd5b8a60208285010111156138fe578485fd5b6020830194508093505050509295509295509295565b600080600080600060a0868803121561392b578081fd5b61393486613740565b97602087013597506040870135966060810135965060800135945092505050565b600060208284031215613966578081fd5b5035919050565b60006020828403121561397e578081fd5b5051919050565b60008060408385031215613997578182fd5b823591506139a760208401613740565b90509250929050565b600080604083850312156139c2578182fd5b82359150602083013580151581146139d8578182fd5b809150509250929050565b600080604083850312156139f5578182fd5b50508035926020909101359150565b6001600160a01b03169052565b60068110613a1b57fe5b9052565b60008151808452815b81811015613a4457602081850181015186830182015201613a28565b81811115613a555782602083870101525b50601f01601f19169290920160200192915050565b948552602085019390935260408401919091526060808401919091521b6bffffffffffffffffffffffff1916608082015260940190565b6001600160a01b0391909116815260200190565b6001600160a01b03929092168252602082015260400190565b6001600160a01b039390931683526020830191909152604082015260600190565b6001600160a01b039384168152919092166020820152604081019190915260600190565b901515815260200190565b602081016127348284613a11565b6020808252601b908201527f4e6f7420656e6f756768206e66747320746f2077697468647261770000000000604082015260600190565b60208082526033908201527f43616e6e6f7420696e697469616c697a6520676f7665726e616e6365416464726040820152726573735f20776974682030206164647265737360681b606082015260800190565b6020808252818101527f4e6f7420656c696769626c6520666f72206c6f7474657279206e756d62657273604082015260600190565b6020808252602e908201527f43616e6e6f7420696e697469616c697a6520657363726f77416464726573732060408201526d776974682030206164647265737360901b606082015260800190565b6020808252602c908201527f43616e6e6f7420696e697469616c697a652066756e64696e674e46545f20776960408201526b74682030206164647265737360a01b606082015260800190565b60208082526034908201527f43616e6e6f7420696e697469616c697a652062617365416d6f756e74466f72456040820152730616368506172746974696f6e5f207769746820360641b606082015260800190565b60208082526022908201527f43616e207769746864726177206f6e6c7920696e20536574746c656420737461604082015261746560f01b606082015260800190565b60208082526027908201527f43616e20737461727420612070726f6a656374206f6e6c7920696620697320616040820152661c1c1c9bdd995960ca1b606082015260800190565b6020808252601d908201527f43616e6e6f7420696e697469616c697a65207365636f6e642074696d65000000604082015260600190565b6020808252602c908201527f43616e2072756e206c6f7474657279206f6e6c79206966206861732072656d6160408201526b1a5b9a5b99c81d1a58dad95d60a21b606082015260800190565b6020808252600f908201526e4e6f7420656e6f756768206e66747360881b604082015260600190565b60208082526011908201527020b63932b0b23c903bb4ba34323930bbb760791b604082015260600190565b60208082526022908201527f43616e6e6f7420696e697469616c697a65207769746820302061646472657373604082015261657360f01b606082015260800190565b6020808252602f908201527f43616e6e6f7420696e697469616c697a652070726f6a6563744d616e6167657260408201526e20776974682030206164647265737360881b606082015260800190565b60208082526021908201527f43616e20636f6e76657274206f6e6c7920696e20536574746c656420737461746040820152606560f81b606082015260800190565b60208082526024908201527f416d6f756e74206f66206e667420746f20636f6e766572742063616e6e6f74206040820152630626520360e41b606082015260800190565b60208082526025908201527f43616e6e6f742073686f7720696e74657265737420666f72203020706172746960408201526474696f6e7360d81b606082015260800190565b60208082526019908201527f4e6f7420656e6f756768204e465420746f20636f6e7665727400000000000000604082015260600190565b6020808252601f908201527f43616e6e6f7420696e697469616c697a65207769746820302076616c75657300604082015260600190565b6020808252601690820152752737ba1032b737bab3b4103a34b1b5b2ba39903bb7b760511b604082015260600190565b60208082526041908201527f546f6b656e20616d6f756e7420616e642070726963652073686f756c6420726560408201527f73756c7420696e20696e746567657220616d6f756e74206f66207469636b65746060820152607360f81b608082015260a00190565b6020808252601e908201527f4e6f206e6f6e2d776f6e207469636b65747320746f2077697468647261770000604082015260600190565b6020808252602e908201527f43616e6e6f7420696e697469616c697a65206c656e64696e67546f6b656e5f2060408201526d776974682030206164647265737360901b606082015260800190565b60208082526028908201527f43616e2073686f7720696e746572657374206f6e6c7920696e20417070726f76604082015267656420737461746560c01b606082015260800190565b6020808252601b908201527f4c656e64696e6720746f6b656e206e6f7420737570706f727465640000000000604082015260600190565b60208082526018908201527f4f6e6c79207365656b65722063616e2077697468647261770000000000000000604082015260600190565b60208082526025908201527f43616e2072756e206c6f7474657279206f6e6c7920696e205374617274656420604082015264737461746560d81b606082015260800190565b6000606082528451606083015260208501516080830152604085015160a0830152606085015161424c60c0840182613a04565b50608085015160e083015260a085015161010061426b81850183613a04565b60c08701519150610120828186015260e08801519250610140838187015282890151935080610160870152506142a56101a0860184613a1f565b9088015161018086015292506142c19150506020830185613a11565b6134336040830184613a04565b90815260200190565b918252602082015260400190565b92835260208301919091526001600160a01b0316604082015260600190565b60006101408c83528b60208401528a604084015260018060a01b03808b16606085015289608085015280891660a0850152508660c08401528560e08401528061010084015261435581840186613a1f565b915050826101208301529b9a505050505050505050505056fe5265656e7472616e637947756172643a207265656e7472616e742063616c6c004f776e61626c653a206e6577206f776e657220697320746865207a65726f206164647265737343616e6e6f7420616464206578697374696e67206c656e64696e6720746f6b656e416464726573733a20696e73756666696369656e742062616c616e636520666f722063616c6c43616e6e6f742070726f7669646520657363726f77416464726573735f207769746820302061646472657373496e697469616c697a61626c653a20636f6e747261637420697320616c726561647920696e697469616c697a6564536166654d6174683a206d756c7469706c69636174696f6e206f766572666c6f7743616e6e6f742070726f76696465206c656e64696e67546f6b656e5f2077697468203020616464726573734f776e61626c653a2063616c6c6572206973206e6f7420746865206f776e65725361666545524332303a204552433230206f7065726174696f6e20646964206e6f742073756363656564a26469706673582212201843aa15f5ab4b56a17c7de6b7215bc00fe79930ff3aa3553c15605168f987d664736f6c63430007060033",
  "devdoc": {
    "details": "Extends InvestmentDetails.",
    "kind": "dev",
    "methods": {
      "addLendingToken(address)": {
        "details": "This function is called by the owner to add another lending token.",
        "params": {
          "lendingToken_": "The address of lending token that will be added."
        }
      },
      "convertInvestmentTicketsToNfts(uint256)": {
        "details": "This function is called by an investor to convert his tickets won to NFTs.require Settled state and enough tickets won",
        "params": {
          "projectId": "The id of the investment."
        }
      },
      "convertNFTToInvestmentTokens(uint256,uint256)": {
        "params": {
          "amountOfNFTToConvert": "the amount of nft to convert",
          "projectId": "the projectId"
        }
      },
      "decideForProject(uint256,bool)": {
        "details": "This function is called by governance to approve or reject a investment request.",
        "params": {
          "decision": "The decision of the governance. [true -> approved] [false -> rejected]",
          "projectId": "The id of the investment."
        }
      },
      "executeLotteryRun(uint256)": {
        "details": "This function is called by any investor interested in an Investment Token to run part of the lottery.requires Started state and available tickets",
        "params": {
          "projectId": "The id of the investment."
        }
      },
      "getInvestmentMetadata(uint256)": {
        "details": "This helper function provides a single point for querying the Investment metadatareturns Investment Details, Investment Status, Investment Seeker Address and Repayment Batch Type",
        "params": {
          "projectId": "The id of the investment."
        }
      },
      "getRequestingInterestStatus(uint256)": {
        "details": "Returns true if investors have shown interest for equal or more than the total tickets.",
        "params": {
          "projectId": "The id of the investment type to be checked."
        }
      },
      "initialize(address,address,address[],address,address,uint256)": {
        "details": "Constructor of the contract.",
        "params": {
          "baseAmountForEachPartition_": "The base amount for each partition",
          "escrowAddress": "address of the escrow contract",
          "fundingNFT_": "address of the Funding NFT",
          "governanceAddress_": "address of the DAO contract",
          "lendingTokens_": "addresses of the Lending Tokens"
        }
      },
      "initializeInvestment(address,uint256,uint256,uint256,uint256)": {
        "details": "This function is called by the owner to initialize the investment type.",
        "params": {
          "blocksLockedForReputation_": "The amount of blocks needed for a ticket to be locked,        so as investor to get 1 rALBT for locking it.",
          "rAlbtPerLotteryNumber_": "The amount of rALBT needed to allocate one lucky number.",
          "reputationalAlbt": "The address of the rALBT contract.",
          "totalTicketsPerRun_": "The amount of tickets that will be provided from each run of the lottery."
        }
      },
      "isValidReferralId(uint256)": {
        "details": "returns true if investment id exists (so also seeker exists), otherwise returns false",
        "params": {
          "projectId": "The id of the investment."
        }
      },
      "lockInvestmentNfts(uint256,uint256)": {
        "details": "This function is called by a investment nft holder to lock part of his nfts.",
        "params": {
          "nftsToLock": "The amount of nfts to lock.",
          "projectId": "The id of the investment."
        }
      },
      "owner()": {
        "details": "Returns the address of the current owner."
      },
      "renounceOwnership()": {
        "details": "Leaves the contract without owner. It will not be possible to call `onlyOwner` functions anymore. Can only be called by the current owner. NOTE: Renouncing ownership will leave the contract without an owner, thereby removing any functionality that is only available to the owner."
      },
      "requestInvestment(address,uint256,address,uint256,string)": {
        "details": "This function is used for seekers to request investment in exchange for investment tokens.require valid amount",
        "params": {
          "amountOfInvestmentTokens": "The amount of investment tokens to be purchased.",
          "extraInfo": "The ipfs hash where more specific details for investment request are stored.",
          "investmentToken": "The token that will be purchased by investors.",
          "lendingToken": "The token that investors will pay with.",
          "totalAmountRequested_": "The total amount requested so as all investment tokens to be sold."
        }
      },
      "setEscrowAddress(address)": {
        "details": "This function is called by the owner to update the escrow address",
        "params": {
          "escrowAddress_": "The address of escrow that will be updated."
        }
      },
      "showInterestForInvestment(uint256,uint256)": {
        "details": "This function is called by the investors who are interested to invest in a specific investment token.require Approval state and valid partition",
        "params": {
          "amountOfPartitions": "The amount of partitions this specific investor wanna invest in.",
          "projectId": "The id of the investment."
        }
      },
      "startLotteryPhase(uint256)": {
        "details": "This function is called by governance to start the lottery phase for an investment.",
        "params": {
          "projectId": "The id of the investment."
        }
      },
      "transferOwnership(address)": {
        "details": "Transfers ownership of the contract to a new account (`newOwner`). Can only be called by the current owner."
      },
      "withdrawAmountProvidedForNonWonTickets(uint256)": {
        "details": "This function is called by an investor to withdraw lending tokens provided for non-won tickets.",
        "params": {
          "projectId": "The id of the investment."
        }
      },
      "withdrawInvestment(uint256)": {
        "details": "This function is called by the seeker to withdraw the lending tokens provided by investors after lottery ends.",
        "params": {
          "projectId": "The id of the investment."
        }
      },
      "withdrawLockedInvestmentNfts(uint256,uint256)": {
        "details": "This function is called by an investor to withdraw his locked tickets.requires Settled state and available tickets.",
        "params": {
          "nftsToWithdraw": "The amount of locked nfts to be withdrawn.",
          "projectId": "The id of the investment."
        }
      }
    },
    "title": "AllianceBlock Investment contract.",
    "version": 1
  },
  "userdoc": {
    "kind": "user",
    "methods": {
      "addLendingToken(address)": {
        "notice": "Add lending token"
      },
      "convertInvestmentTicketsToNfts(uint256)": {
        "notice": "Convert Investment Tickets to Nfts."
      },
      "convertNFTToInvestmentTokens(uint256,uint256)": {
        "notice": "Convert NFT to investment tokens"
      },
      "decideForProject(uint256,bool)": {
        "notice": "Decide For Investment"
      },
      "executeLotteryRun(uint256)": {
        "notice": "Executes lottery run"
      },
      "getInvestmentMetadata(uint256)": {
        "notice": "Get Investment Metadata"
      },
      "getRequestingInterestStatus(uint256)": {
        "notice": "Gets Requesting status"
      },
      "initialize(address,address,address[],address,address,uint256)": {
        "notice": "Initialize"
      },
      "initializeInvestment(address,uint256,uint256,uint256,uint256)": {
        "notice": "Initialize Investment"
      },
      "isValidReferralId(uint256)": {
        "notice": "IsValidReferralId"
      },
      "requestInvestment(address,uint256,address,uint256,string)": {
        "notice": "Requests investment"
      },
      "setEscrowAddress(address)": {
        "notice": "Update escrow address"
      },
      "showInterestForInvestment(uint256,uint256)": {
        "notice": "user show interest for investment"
      },
      "startLotteryPhase(uint256)": {
        "notice": "Start Lottery Phase"
      },
      "withdrawLockedInvestmentNfts(uint256,uint256)": {
        "notice": "Withdraw locked investment nfts."
      }
    },
    "notice": "Functionality for Investment.",
    "version": 1
  },
  "storageLayout": {
    "storage": [
      {
        "astId": 15519,
        "contract": "contracts/projects/investment/Investment.sol:Investment",
        "label": "investmentTokensPerTicket",
        "offset": 0,
        "slot": "0",
        "type": "t_mapping(t_uint256,t_uint256)"
      },
      {
        "astId": 15523,
        "contract": "contracts/projects/investment/Investment.sol:Investment",
        "label": "ticketsRemaining",
        "offset": 0,
        "slot": "1",
        "type": "t_mapping(t_uint256,t_uint256)"
      },
      {
        "astId": 15527,
        "contract": "contracts/projects/investment/Investment.sol:Investment",
        "label": "totalLotteryNumbersPerInvestment",
        "offset": 0,
        "slot": "2",
        "type": "t_mapping(t_uint256,t_uint256)"
      },
      {
        "astId": 15531,
        "contract": "contracts/projects/investment/Investment.sol:Investment",
        "label": "investmentWithdrawn",
        "offset": 0,
        "slot": "3",
        "type": "t_mapping(t_uint256,t_bool)"
      },
      {
        "astId": 15537,
        "contract": "contracts/projects/investment/Investment.sol:Investment",
        "label": "addressOfLotteryNumber",
        "offset": 0,
        "slot": "4",
        "type": "t_mapping(t_uint256,t_mapping(t_uint256,t_address))"
      },
      {
        "astId": 15543,
        "contract": "contracts/projects/investment/Investment.sol:Investment",
        "label": "remainingTicketsPerAddress",
        "offset": 0,
        "slot": "5",
        "type": "t_mapping(t_uint256,t_mapping(t_address,t_uint256))"
      },
      {
        "astId": 15549,
        "contract": "contracts/projects/investment/Investment.sol:Investment",
        "label": "ticketsWonPerAddress",
        "offset": 0,
        "slot": "6",
        "type": "t_mapping(t_uint256,t_mapping(t_address,t_uint256))"
      },
      {
        "astId": 15555,
        "contract": "contracts/projects/investment/Investment.sol:Investment",
        "label": "lockedNftsForSpecificInvestmentPerAddress",
        "offset": 0,
        "slot": "7",
        "type": "t_mapping(t_uint256,t_mapping(t_address,t_uint256))"
      },
      {
        "astId": 15559,
        "contract": "contracts/projects/investment/Investment.sol:Investment",
        "label": "lockedNftsPerAddress",
        "offset": 0,
        "slot": "8",
        "type": "t_mapping(t_address,t_uint256)"
      },
      {
        "astId": 15563,
        "contract": "contracts/projects/investment/Investment.sol:Investment",
        "label": "lastBlockCheckedForLockedNftsPerAddress",
        "offset": 0,
        "slot": "9",
        "type": "t_mapping(t_address,t_uint256)"
      },
      {
        "astId": 15567,
        "contract": "contracts/projects/investment/Investment.sol:Investment",
        "label": "investmentDetails",
        "offset": 0,
        "slot": "10",
        "type": "t_mapping(t_uint256,t_struct(InvestmentDetails)11165_storage)"
      },
      {
        "astId": 15569,
        "contract": "contracts/projects/investment/Investment.sol:Investment",
        "label": "baseAmountForEachPartition",
        "offset": 0,
        "slot": "11",
        "type": "t_uint256"
      },
      {
        "astId": 15571,
        "contract": "contracts/projects/investment/Investment.sol:Investment",
        "label": "totalTicketsPerRun",
        "offset": 0,
        "slot": "12",
        "type": "t_uint256"
      },
      {
        "astId": 15573,
        "contract": "contracts/projects/investment/Investment.sol:Investment",
        "label": "rAlbtPerLotteryNumber",
        "offset": 0,
        "slot": "13",
        "type": "t_uint256"
      },
      {
        "astId": 15575,
        "contract": "contracts/projects/investment/Investment.sol:Investment",
        "label": "blocksLockedForReputation",
        "offset": 0,
        "slot": "14",
        "type": "t_uint256"
      },
      {
        "astId": 15577,
        "contract": "contracts/projects/investment/Investment.sol:Investment",
        "label": "lotteryNumbersForImmediateTicket",
        "offset": 0,
        "slot": "15",
        "type": "t_uint256"
      },
      {
        "astId": 15579,
        "contract": "contracts/projects/investment/Investment.sol:Investment",
        "label": "lotteryNonce",
        "offset": 0,
        "slot": "16",
        "type": "t_uint256"
      },
      {
        "astId": 13706,
        "contract": "contracts/projects/investment/Investment.sol:Investment",
        "label": "governance",
        "offset": 0,
        "slot": "17",
        "type": "t_contract(IGovernance)9567"
      },
      {
        "astId": 13708,
        "contract": "contracts/projects/investment/Investment.sol:Investment",
        "label": "fundingNFT",
        "offset": 0,
        "slot": "18",
        "type": "t_contract(IERC1155Mint)9354"
      },
      {
        "astId": 13710,
        "contract": "contracts/projects/investment/Investment.sol:Investment",
        "label": "escrow",
        "offset": 0,
        "slot": "19",
        "type": "t_contract(IEscrow)9553"
      },
      {
        "astId": 13712,
        "contract": "contracts/projects/investment/Investment.sol:Investment",
        "label": "rALBT",
        "offset": 0,
        "slot": "20",
        "type": "t_contract(IERC20)9465"
      },
      {
        "astId": 13714,
        "contract": "contracts/projects/investment/Investment.sol:Investment",
        "label": "projectManager",
        "offset": 0,
        "slot": "21",
        "type": "t_contract(IProjectManager)9664"
      },
      {
        "astId": 13716,
        "contract": "contracts/projects/investment/Investment.sol:Investment",
        "label": "totalProjects",
        "offset": 0,
        "slot": "22",
        "type": "t_uint256"
      },
      {
        "astId": 13720,
        "contract": "contracts/projects/investment/Investment.sol:Investment",
        "label": "projectSeeker",
        "offset": 0,
        "slot": "23",
        "type": "t_mapping(t_uint256,t_address)"
      },
      {
        "astId": 13724,
        "contract": "contracts/projects/investment/Investment.sol:Investment",
        "label": "isValidLendingToken",
        "offset": 0,
        "slot": "24",
        "type": "t_mapping(t_address,t_bool)"
      },
      {
        "astId": 13728,
        "contract": "contracts/projects/investment/Investment.sol:Investment",
        "label": "projectStatus",
        "offset": 0,
        "slot": "25",
        "type": "t_mapping(t_uint256,t_enum(ProjectStatus)11144)"
      },
      {
        "astId": 890,
        "contract": "contracts/projects/investment/Investment.sol:Investment",
        "label": "_initialized",
        "offset": 0,
        "slot": "26",
        "type": "t_bool"
      },
      {
        "astId": 893,
        "contract": "contracts/projects/investment/Investment.sol:Investment",
        "label": "_initializing",
        "offset": 1,
        "slot": "26",
        "type": "t_bool"
      },
      {
        "astId": 2584,
        "contract": "contracts/projects/investment/Investment.sol:Investment",
        "label": "__gap",
        "offset": 0,
        "slot": "27",
        "type": "t_array(t_uint256)50_storage"
      },
      {
        "astId": 321,
        "contract": "contracts/projects/investment/Investment.sol:Investment",
        "label": "_owner",
        "offset": 0,
        "slot": "77",
        "type": "t_address"
      },
      {
        "astId": 440,
        "contract": "contracts/projects/investment/Investment.sol:Investment",
        "label": "__gap",
        "offset": 0,
        "slot": "78",
        "type": "t_array(t_uint256)49_storage"
      },
      {
        "astId": 3091,
        "contract": "contracts/projects/investment/Investment.sol:Investment",
        "label": "_status",
        "offset": 0,
        "slot": "127",
        "type": "t_uint256"
      },
      {
        "astId": 3134,
        "contract": "contracts/projects/investment/Investment.sol:Investment",
        "label": "__gap",
        "offset": 0,
        "slot": "128",
        "type": "t_array(t_uint256)49_storage"
      }
    ],
    "types": {
      "t_address": {
        "encoding": "inplace",
        "label": "address",
        "numberOfBytes": "20"
      },
      "t_array(t_uint256)49_storage": {
        "base": "t_uint256",
        "encoding": "inplace",
        "label": "uint256[49]",
        "numberOfBytes": "1568"
      },
      "t_array(t_uint256)50_storage": {
        "base": "t_uint256",
        "encoding": "inplace",
        "label": "uint256[50]",
        "numberOfBytes": "1600"
      },
      "t_bool": {
        "encoding": "inplace",
        "label": "bool",
        "numberOfBytes": "1"
      },
      "t_contract(IERC1155Mint)9354": {
        "encoding": "inplace",
        "label": "contract IERC1155Mint",
        "numberOfBytes": "20"
      },
      "t_contract(IERC20)9465": {
        "encoding": "inplace",
        "label": "contract IERC20",
        "numberOfBytes": "20"
      },
      "t_contract(IEscrow)9553": {
        "encoding": "inplace",
        "label": "contract IEscrow",
        "numberOfBytes": "20"
      },
      "t_contract(IGovernance)9567": {
        "encoding": "inplace",
        "label": "contract IGovernance",
        "numberOfBytes": "20"
      },
      "t_contract(IProjectManager)9664": {
        "encoding": "inplace",
        "label": "contract IProjectManager",
        "numberOfBytes": "20"
      },
      "t_enum(ProjectStatus)11144": {
        "encoding": "inplace",
        "label": "enum ProjectLibrary.ProjectStatus",
        "numberOfBytes": "1"
      },
      "t_mapping(t_address,t_bool)": {
        "encoding": "mapping",
        "key": "t_address",
        "label": "mapping(address => bool)",
        "numberOfBytes": "32",
        "value": "t_bool"
      },
      "t_mapping(t_address,t_uint256)": {
        "encoding": "mapping",
        "key": "t_address",
        "label": "mapping(address => uint256)",
        "numberOfBytes": "32",
        "value": "t_uint256"
      },
      "t_mapping(t_uint256,t_address)": {
        "encoding": "mapping",
        "key": "t_uint256",
        "label": "mapping(uint256 => address)",
        "numberOfBytes": "32",
        "value": "t_address"
      },
      "t_mapping(t_uint256,t_bool)": {
        "encoding": "mapping",
        "key": "t_uint256",
        "label": "mapping(uint256 => bool)",
        "numberOfBytes": "32",
        "value": "t_bool"
      },
      "t_mapping(t_uint256,t_enum(ProjectStatus)11144)": {
        "encoding": "mapping",
        "key": "t_uint256",
        "label": "mapping(uint256 => enum ProjectLibrary.ProjectStatus)",
        "numberOfBytes": "32",
        "value": "t_enum(ProjectStatus)11144"
      },
      "t_mapping(t_uint256,t_mapping(t_address,t_uint256))": {
        "encoding": "mapping",
        "key": "t_uint256",
        "label": "mapping(uint256 => mapping(address => uint256))",
        "numberOfBytes": "32",
        "value": "t_mapping(t_address,t_uint256)"
      },
      "t_mapping(t_uint256,t_mapping(t_uint256,t_address))": {
        "encoding": "mapping",
        "key": "t_uint256",
        "label": "mapping(uint256 => mapping(uint256 => address))",
        "numberOfBytes": "32",
        "value": "t_mapping(t_uint256,t_address)"
      },
      "t_mapping(t_uint256,t_struct(InvestmentDetails)11165_storage)": {
        "encoding": "mapping",
        "key": "t_uint256",
        "label": "mapping(uint256 => struct ProjectLibrary.InvestmentDetails)",
        "numberOfBytes": "32",
        "value": "t_struct(InvestmentDetails)11165_storage"
      },
      "t_mapping(t_uint256,t_uint256)": {
        "encoding": "mapping",
        "key": "t_uint256",
        "label": "mapping(uint256 => uint256)",
        "numberOfBytes": "32",
        "value": "t_uint256"
      },
      "t_string_storage": {
        "encoding": "bytes",
        "label": "string",
        "numberOfBytes": "32"
      },
      "t_struct(InvestmentDetails)11165_storage": {
        "encoding": "inplace",
        "label": "struct ProjectLibrary.InvestmentDetails",
        "members": [
          {
            "astId": 11146,
            "contract": "contracts/projects/investment/Investment.sol:Investment",
            "label": "investmentId",
            "offset": 0,
            "slot": "0",
            "type": "t_uint256"
          },
          {
            "astId": 11148,
            "contract": "contracts/projects/investment/Investment.sol:Investment",
            "label": "approvalDate",
            "offset": 0,
            "slot": "1",
            "type": "t_uint256"
          },
          {
            "astId": 11150,
            "contract": "contracts/projects/investment/Investment.sol:Investment",
            "label": "startingDate",
            "offset": 0,
            "slot": "2",
            "type": "t_uint256"
          },
          {
            "astId": 11152,
            "contract": "contracts/projects/investment/Investment.sol:Investment",
            "label": "investmentToken",
            "offset": 0,
            "slot": "3",
            "type": "t_address"
          },
          {
            "astId": 11154,
            "contract": "contracts/projects/investment/Investment.sol:Investment",
            "label": "investmentTokensAmount",
            "offset": 0,
            "slot": "4",
            "type": "t_uint256"
          },
          {
            "astId": 11156,
            "contract": "contracts/projects/investment/Investment.sol:Investment",
            "label": "lendingToken",
            "offset": 0,
            "slot": "5",
            "type": "t_address"
          },
          {
            "astId": 11158,
            "contract": "contracts/projects/investment/Investment.sol:Investment",
            "label": "totalAmountToBeRaised",
            "offset": 0,
            "slot": "6",
            "type": "t_uint256"
          },
          {
            "astId": 11160,
            "contract": "contracts/projects/investment/Investment.sol:Investment",
            "label": "totalPartitionsToBePurchased",
            "offset": 0,
            "slot": "7",
            "type": "t_uint256"
          },
          {
            "astId": 11162,
            "contract": "contracts/projects/investment/Investment.sol:Investment",
            "label": "extraInfo",
            "offset": 0,
            "slot": "8",
            "type": "t_string_storage"
          },
          {
            "astId": 11164,
            "contract": "contracts/projects/investment/Investment.sol:Investment",
            "label": "partitionsRequested",
            "offset": 0,
            "slot": "9",
            "type": "t_uint256"
          }
        ],
        "numberOfBytes": "320"
      },
      "t_uint256": {
        "encoding": "inplace",
        "label": "uint256",
        "numberOfBytes": "32"
      }
    }
  }
}