{
  "address": "0xced970301c61fFDc016e19B737f6ed20016A8CAf",
  "abi": [
    {
      "anonymous": false,
      "inputs": [
        {
          "indexed": true,
          "internalType": "address",
          "name": "previousOwner",
          "type": "address"
        },
        {
          "indexed": true,
          "internalType": "address",
          "name": "newOwner",
          "type": "address"
        }
      ],
      "name": "OwnershipTransferred",
      "type": "event"
    },
    {
      "inputs": [],
      "name": "createProject",
      "outputs": [
        {
          "internalType": "uint256",
          "name": "",
          "type": "uint256"
        }
      ],
      "stateMutability": "nonpayable",
      "type": "function"
    },
    {
      "inputs": [
        {
          "internalType": "address",
          "name": "projectAddress",
          "type": "address"
        }
      ],
      "name": "createProjectType",
      "outputs": [],
      "stateMutability": "nonpayable",
      "type": "function"
    },
    {
      "inputs": [],
      "name": "initialize",
      "outputs": [],
      "stateMutability": "nonpayable",
      "type": "function"
    },
    {
      "inputs": [
        {
          "internalType": "address",
          "name": "projectAddress",
          "type": "address"
        }
      ],
      "name": "isProject",
      "outputs": [
        {
          "internalType": "bool",
          "name": "",
          "type": "bool"
        }
      ],
      "stateMutability": "view",
      "type": "function"
    },
    {
      "inputs": [],
      "name": "owner",
      "outputs": [
        {
          "internalType": "address",
          "name": "",
          "type": "address"
        }
      ],
      "stateMutability": "view",
      "type": "function"
    },
    {
      "inputs": [
        {
          "internalType": "uint256",
          "name": "",
          "type": "uint256"
        }
      ],
      "name": "projectAddressFromProjectId",
      "outputs": [
        {
          "internalType": "address",
          "name": "",
          "type": "address"
        }
      ],
      "stateMutability": "view",
      "type": "function"
    },
    {
      "inputs": [
        {
          "internalType": "uint256",
          "name": "",
          "type": "uint256"
        }
      ],
      "name": "projectAddressFromType",
      "outputs": [
        {
          "internalType": "address",
          "name": "",
          "type": "address"
        }
      ],
      "stateMutability": "view",
      "type": "function"
    },
    {
      "inputs": [
        {
          "internalType": "uint256",
          "name": "",
          "type": "uint256"
        }
      ],
      "name": "projectTypeFromProjectId",
      "outputs": [
        {
          "internalType": "uint256",
          "name": "",
          "type": "uint256"
        }
      ],
      "stateMutability": "view",
      "type": "function"
    },
    {
      "inputs": [
        {
          "internalType": "address",
          "name": "",
          "type": "address"
        }
      ],
      "name": "projectTypeIndexFromAddress",
      "outputs": [
        {
          "internalType": "uint256",
          "name": "",
          "type": "uint256"
        }
      ],
      "stateMutability": "view",
      "type": "function"
    },
    {
      "inputs": [],
      "name": "renounceOwnership",
      "outputs": [],
      "stateMutability": "nonpayable",
      "type": "function"
    },
    {
      "inputs": [],
      "name": "totalProjectTypes",
      "outputs": [
        {
          "internalType": "uint256",
          "name": "",
          "type": "uint256"
        }
      ],
      "stateMutability": "view",
      "type": "function"
    },
    {
      "inputs": [],
      "name": "totalProjects",
      "outputs": [
        {
          "internalType": "uint256",
          "name": "",
          "type": "uint256"
        }
      ],
      "stateMutability": "view",
      "type": "function"
    },
    {
      "inputs": [
        {
          "internalType": "address",
          "name": "newOwner",
          "type": "address"
        }
      ],
      "name": "transferOwnership",
      "outputs": [],
      "stateMutability": "nonpayable",
      "type": "function"
    }
  ],
  "transactionHash": "0xa79c26a138b761acd38b2b80b1f813a3f8a192f1faaa83f9bc7bf120c1e4f853",
  "args": [],
  "solcInputHash": "2655e296375c08ec2ee94c1a605dd52e",
  "bytecode": "0x608060405234801561001057600080fd5b506109a4806100206000396000f3fe608060405234801561001057600080fd5b50600436106100cf5760003560e01c80638da5cb5b1161008c578063ac301d0511610066578063ac301d05146101c6578063c7b96dba146101ec578063f2fde38b146101f4578063fbb923ce1461021a576100cf565b80638da5cb5b1461019957806398cc55bc146101a15780639c361e4e146101be576100cf565b806305c81408146100d45780631062dd421461010e57806339171bdd14610147578063715018a6146101615780638129fc1c1461016b578063832a694214610173575b600080fd5b6100fa600480360360208110156100ea57600080fd5b50356001600160a01b0316610237565b604080519115158252519081900360200190f35b61012b6004803603602081101561012457600080fd5b5035610254565b604080516001600160a01b039092168252519081900360200190f35b61014f61026f565b60408051918252519081900360200190f35b610169610275565b005b610169610333565b61014f6004803603602081101561018957600080fd5b50356001600160a01b03166103e7565b61012b6103f9565b61014f600480360360208110156101b757600080fd5b5035610408565b61014f61041a565b610169600480360360208110156101dc57600080fd5b50356001600160a01b0316610420565b61014f6104dd565b6101696004803603602081101561020a57600080fd5b50356001600160a01b0316610585565b61012b6004803603602081101561023057600080fd5b503561069a565b6001600160a01b0316600090815260686020526040902054151590565b6069602052600090815260409020546001600160a01b031681565b60665481565b61027d6106b5565b6001600160a01b031661028e6103f9565b6001600160a01b0316146102e9576040805162461bcd60e51b815260206004820181905260248201527f4f776e61626c653a2063616c6c6572206973206e6f7420746865206f776e6572604482015290519081900360640190fd5b6033546040516000916001600160a01b0316907f8be0079c531659141344cd1fd0a4f28419497f9722a3daafe3b4186f6b6457e0908390a3603380546001600160a01b0319169055565b600054610100900460ff168061034c575061034c6106b9565b8061035a575060005460ff16155b6103955760405162461bcd60e51b815260040180806020018281038252602e815260200180610941602e913960400191505060405180910390fd5b600054610100900460ff161580156103c0576000805460ff1961ff0019909116610100171660011790555b6103c86106ca565b6000606555600160665580156103e4576000805461ff00191690555b50565b60686020526000908152604090205481565b6033546001600160a01b031690565b60676020526000908152604090205481565b60655481565b6104286106b5565b6001600160a01b03166104396103f9565b6001600160a01b031614610494576040805162461bcd60e51b815260206004820181905260248201527f4f776e61626c653a2063616c6c6572206973206e6f7420746865206f776e6572604482015290519081900360640190fd5b606680546001600160a01b039092166000818152606860209081526040808320869055948252606990529290922080546001600160a01b03191690921790915580546001019055565b33600090815260686020526040812054610536576040805162461bcd60e51b815260206004820152601560248201527413db9b1e48141c9bda9958dd0818dbdb9d1c9858dd605a1b604482015290519081900360640190fd5b5033600081815260686020908152604080832054606580548552606784528285209190915580548452606a90925290912080546001600160a01b03191690921790915580546001810190915590565b61058d6106b5565b6001600160a01b031661059e6103f9565b6001600160a01b0316146105f9576040805162461bcd60e51b815260206004820181905260248201527f4f776e61626c653a2063616c6c6572206973206e6f7420746865206f776e6572604482015290519081900360640190fd5b6001600160a01b03811661063e5760405162461bcd60e51b815260040180806020018281038252602681526020018061091b6026913960400191505060405180910390fd5b6033546040516001600160a01b038084169216907f8be0079c531659141344cd1fd0a4f28419497f9722a3daafe3b4186f6b6457e090600090a3603380546001600160a01b0319166001600160a01b0392909216919091179055565b606a602052600090815260409020546001600160a01b031681565b3390565b60006106c43061077b565b15905090565b600054610100900460ff16806106e357506106e36106b9565b806106f1575060005460ff16155b61072c5760405162461bcd60e51b815260040180806020018281038252602e815260200180610941602e913960400191505060405180910390fd5b600054610100900460ff16158015610757576000805460ff1961ff0019909116610100171660011790555b61075f610781565b610767610821565b80156103e4576000805461ff001916905550565b3b151590565b600054610100900460ff168061079a575061079a6106b9565b806107a8575060005460ff16155b6107e35760405162461bcd60e51b815260040180806020018281038252602e815260200180610941602e913960400191505060405180910390fd5b600054610100900460ff16158015610767576000805460ff1961ff00199091166101001716600117905580156103e4576000805461ff001916905550565b600054610100900460ff168061083a575061083a6106b9565b80610848575060005460ff16155b6108835760405162461bcd60e51b815260040180806020018281038252602e815260200180610941602e913960400191505060405180910390fd5b600054610100900460ff161580156108ae576000805460ff1961ff0019909116610100171660011790555b60006108b86106b5565b603380546001600160a01b0319166001600160a01b038316908117909155604051919250906000907f8be0079c531659141344cd1fd0a4f28419497f9722a3daafe3b4186f6b6457e0908290a35080156103e4576000805461ff00191690555056fe4f776e61626c653a206e6577206f776e657220697320746865207a65726f2061646472657373496e697469616c697a61626c653a20636f6e747261637420697320616c726561647920696e697469616c697a6564a2646970667358221220d9259cf3199373edadebadce71b4ab7c5da3c5b61b63872e6ac67a25dbc0587b64736f6c63430007060033",
  "devdoc": {
    "details": "Extends Initializable, OwnableUpgradeable",
    "kind": "dev",
    "methods": {
      "createProject()": {
        "details": "Must be called from a valid project type contract."
      },
      "createProjectType(address)": {
        "details": "Must be called from the owner."
      },
      "isProject(address)": {
        "params": {
          "projectAddress": "address to verify."
        }
      },
      "owner()": {
        "details": "Returns the address of the current owner."
      },
      "renounceOwnership()": {
        "details": "Leaves the contract without owner. It will not be possible to call `onlyOwner` functions anymore. Can only be called by the current owner. NOTE: Renouncing ownership will leave the contract without an owner, thereby removing any functionality that is only available to the owner."
      },
      "transferOwnership(address)": {
        "details": "Transfers ownership of the contract to a new account (`newOwner`). Can only be called by the current owner."
      }
    },
    "title": "AllianceBlock Project Manager contract",
    "version": 1
  },
  "userdoc": {
    "kind": "user",
    "methods": {
      "createProject()": {
        "notice": "Function to create a new project."
      },
      "createProjectType(address)": {
        "notice": "Function to create a new project type."
      },
      "initialize()": {
        "notice": "Initialize the contract."
      },
      "isProject(address)": {
        "notice": "Function to know if an address is a valid project type contract."
      }
    },
    "version": 1
  },
  "storageLayout": {
    "storage": [
      {
        "astId": 890,
        "contract": "contracts/ProjectManager.sol:ProjectManager",
        "label": "_initialized",
        "offset": 0,
        "slot": "0",
        "type": "t_bool"
      },
      {
        "astId": 893,
        "contract": "contracts/ProjectManager.sol:ProjectManager",
        "label": "_initializing",
        "offset": 1,
        "slot": "0",
        "type": "t_bool"
      },
      {
        "astId": 2584,
        "contract": "contracts/ProjectManager.sol:ProjectManager",
        "label": "__gap",
        "offset": 0,
        "slot": "1",
        "type": "t_array(t_uint256)50_storage"
      },
      {
        "astId": 321,
        "contract": "contracts/ProjectManager.sol:ProjectManager",
        "label": "_owner",
        "offset": 0,
        "slot": "51",
        "type": "t_address"
      },
      {
        "astId": 440,
        "contract": "contracts/ProjectManager.sol:ProjectManager",
        "label": "__gap",
        "offset": 0,
        "slot": "52",
        "type": "t_array(t_uint256)49_storage"
      },
      {
        "astId": 8211,
        "contract": "contracts/ProjectManager.sol:ProjectManager",
        "label": "totalProjects",
        "offset": 0,
        "slot": "101",
        "type": "t_uint256"
      },
      {
        "astId": 8213,
        "contract": "contracts/ProjectManager.sol:ProjectManager",
        "label": "totalProjectTypes",
        "offset": 0,
        "slot": "102",
        "type": "t_uint256"
      },
      {
        "astId": 8217,
        "contract": "contracts/ProjectManager.sol:ProjectManager",
        "label": "projectTypeFromProjectId",
        "offset": 0,
        "slot": "103",
        "type": "t_mapping(t_uint256,t_uint256)"
      },
      {
        "astId": 8221,
        "contract": "contracts/ProjectManager.sol:ProjectManager",
        "label": "projectTypeIndexFromAddress",
        "offset": 0,
        "slot": "104",
        "type": "t_mapping(t_address,t_uint256)"
      },
      {
        "astId": 8225,
        "contract": "contracts/ProjectManager.sol:ProjectManager",
        "label": "projectAddressFromType",
        "offset": 0,
        "slot": "105",
        "type": "t_mapping(t_uint256,t_address)"
      },
      {
        "astId": 8229,
        "contract": "contracts/ProjectManager.sol:ProjectManager",
        "label": "projectAddressFromProjectId",
        "offset": 0,
        "slot": "106",
        "type": "t_mapping(t_uint256,t_address)"
      }
    ],
    "types": {
      "t_address": {
        "encoding": "inplace",
        "label": "address",
        "numberOfBytes": "20"
      },
      "t_array(t_uint256)49_storage": {
        "base": "t_uint256",
        "encoding": "inplace",
        "label": "uint256[49]",
        "numberOfBytes": "1568"
      },
      "t_array(t_uint256)50_storage": {
        "base": "t_uint256",
        "encoding": "inplace",
        "label": "uint256[50]",
        "numberOfBytes": "1600"
      },
      "t_bool": {
        "encoding": "inplace",
        "label": "bool",
        "numberOfBytes": "1"
      },
      "t_mapping(t_address,t_uint256)": {
        "encoding": "mapping",
        "key": "t_address",
        "label": "mapping(address => uint256)",
        "numberOfBytes": "32",
        "value": "t_uint256"
      },
      "t_mapping(t_uint256,t_address)": {
        "encoding": "mapping",
        "key": "t_uint256",
        "label": "mapping(uint256 => address)",
        "numberOfBytes": "32",
        "value": "t_address"
      },
      "t_mapping(t_uint256,t_uint256)": {
        "encoding": "mapping",
        "key": "t_uint256",
        "label": "mapping(uint256 => uint256)",
        "numberOfBytes": "32",
        "value": "t_uint256"
      },
      "t_uint256": {
        "encoding": "inplace",
        "label": "uint256",
        "numberOfBytes": "32"
      }
    }
  }
}