{
  "address": "0x09aEe90ca3100007fAca4a683EABB7dCdfDA1e15",
  "abi": [
    {
      "anonymous": false,
      "inputs": [
        {
          "indexed": true,
          "internalType": "uint256",
          "name": "loanId",
          "type": "uint256"
        },
        {
          "indexed": true,
          "internalType": "enum LoanLibrary.LoanType",
          "name": "loanType",
          "type": "uint8"
        }
      ],
      "name": "LoanApproved",
      "type": "event"
    },
    {
      "anonymous": false,
      "inputs": [
        {
          "indexed": true,
          "internalType": "uint256",
          "name": "loanId",
          "type": "uint256"
        },
        {
          "indexed": true,
          "internalType": "enum LoanLibrary.LoanType",
          "name": "loanType",
          "type": "uint8"
        },
        {
          "indexed": false,
          "internalType": "address",
          "name": "user",
          "type": "address"
        }
      ],
      "name": "LoanChallenged",
      "type": "event"
    },
    {
      "anonymous": false,
      "inputs": [
        {
          "indexed": true,
          "internalType": "uint256",
          "name": "loanId",
          "type": "uint256"
        },
        {
          "indexed": false,
          "internalType": "uint256",
          "name": "partitionsToPurchase",
          "type": "uint256"
        },
        {
          "indexed": false,
          "internalType": "address",
          "name": "lender",
          "type": "address"
        }
      ],
      "name": "LoanPartitionsPurchased",
      "type": "event"
    },
    {
      "anonymous": false,
      "inputs": [
        {
          "indexed": true,
          "internalType": "uint256",
          "name": "loanId",
          "type": "uint256"
        },
        {
          "indexed": true,
          "internalType": "enum LoanLibrary.LoanType",
          "name": "loanType",
          "type": "uint8"
        }
      ],
      "name": "LoanRejected",
      "type": "event"
    },
    {
      "anonymous": false,
      "inputs": [
        {
          "indexed": true,
          "internalType": "uint256",
          "name": "loanId",
          "type": "uint256"
        },
        {
          "indexed": true,
          "internalType": "enum LoanLibrary.LoanType",
          "name": "loanType",
          "type": "uint8"
        }
      ],
      "name": "LoanStarted",
      "type": "event"
    },
    {
      "anonymous": false,
      "inputs": [
        {
          "indexed": true,
          "internalType": "uint256",
          "name": "loanId",
          "type": "uint256"
        },
        {
          "indexed": true,
          "internalType": "enum LoanLibrary.LoanType",
          "name": "loanType",
          "type": "uint8"
        },
        {
          "indexed": true,
          "internalType": "address",
          "name": "seeker",
          "type": "address"
        }
      ],
      "name": "PaymentExecuted",
      "type": "event"
    },
    {
      "anonymous": false,
      "inputs": [
        {
          "indexed": true,
          "internalType": "uint256",
          "name": "loanId",
          "type": "uint256"
        },
        {
          "indexed": false,
          "internalType": "uint256",
          "name": "amountOfTokens",
          "type": "uint256"
        },
        {
          "indexed": true,
          "internalType": "uint256",
          "name": "generation",
          "type": "uint256"
        },
        {
          "indexed": true,
          "internalType": "bool",
          "name": "onProjectTokens",
          "type": "bool"
        },
        {
          "indexed": false,
          "internalType": "address",
          "name": "user",
          "type": "address"
        }
      ],
      "name": "PaymentReceived",
      "type": "event"
    },
    {
      "anonymous": false,
      "inputs": [
        {
          "indexed": true,
          "internalType": "uint256",
          "name": "loanId",
          "type": "uint256"
        },
        {
          "indexed": true,
          "internalType": "address",
          "name": "user",
          "type": "address"
        },
        {
          "indexed": false,
          "internalType": "uint256",
          "name": "amount",
          "type": "uint256"
        }
      ],
      "name": "PersonalLoanRequested",
      "type": "event"
    },
    {
      "anonymous": false,
      "inputs": [
        {
          "indexed": true,
          "internalType": "uint256",
          "name": "loanId",
          "type": "uint256"
        },
        {
          "indexed": false,
          "internalType": "uint256",
          "name": "milestoneNumber",
          "type": "uint256"
        }
      ],
      "name": "ProjectLoanMilestoneApprovalRequested",
      "type": "event"
    },
    {
      "anonymous": false,
      "inputs": [
        {
          "indexed": true,
          "internalType": "uint256",
          "name": "loanId",
          "type": "uint256"
        },
        {
          "indexed": false,
          "internalType": "bool",
          "name": "decision",
          "type": "bool"
        }
      ],
      "name": "ProjectLoanMilestoneDecided",
      "type": "event"
    },
    {
      "anonymous": false,
      "inputs": [
        {
          "indexed": true,
          "internalType": "uint256",
          "name": "loanId",
          "type": "uint256"
        },
        {
          "indexed": true,
          "internalType": "address",
          "name": "user",
          "type": "address"
        },
        {
          "indexed": false,
          "internalType": "uint256",
          "name": "amount",
          "type": "uint256"
        }
      ],
      "name": "ProjectLoanRequested",
      "type": "event"
    },
    {
      "anonymous": false,
      "inputs": [
        {
          "indexed": true,
          "internalType": "uint256",
          "name": "loanId",
          "type": "uint256"
        },
        {
          "indexed": true,
          "internalType": "address",
          "name": "user",
          "type": "address"
        },
        {
          "indexed": false,
          "internalType": "uint256",
          "name": "amountOfProjectTokens",
          "type": "uint256"
        },
        {
          "indexed": false,
          "internalType": "uint256",
          "name": "discountedPrice",
          "type": "uint256"
        }
      ],
      "name": "ProjectTokenPaymentReceived",
      "type": "event"
    },
    {
      "inputs": [
        {
          "internalType": "uint256",
          "name": "loanId",
          "type": "uint256"
        }
      ],
      "name": "applyMilestone",
      "outputs": [],
      "stateMutability": "nonpayable",
      "type": "function"
    },
    {
      "inputs": [
        {
          "internalType": "uint256",
          "name": "loanId",
          "type": "uint256"
        },
        {
          "internalType": "address",
          "name": "funder",
          "type": "address"
        }
      ],
      "name": "balanceOfAllFundingNFTGenerations",
      "outputs": [
        {
          "internalType": "uint256",
          "name": "balance",
          "type": "uint256"
        }
      ],
      "stateMutability": "view",
      "type": "function"
    },
    {
      "inputs": [
        {
          "internalType": "uint256",
          "name": "loanId",
          "type": "uint256"
        },
        {
          "internalType": "uint256",
          "name": "generation",
          "type": "uint256"
        },
        {
          "internalType": "address",
          "name": "funder",
          "type": "address"
        }
      ],
      "name": "balanceOfFundingNFTGeneration",
      "outputs": [
        {
          "internalType": "uint256",
          "name": "balance",
          "type": "uint256"
        }
      ],
      "stateMutability": "view",
      "type": "function"
    },
    {
      "inputs": [],
      "name": "baseAmountForEachPartition",
      "outputs": [
        {
          "internalType": "uint256",
          "name": "",
          "type": "uint256"
        }
      ],
      "stateMutability": "view",
      "type": "function"
    },
    {
      "inputs": [
        {
          "internalType": "uint256",
          "name": "loanId",
          "type": "uint256"
        }
      ],
      "name": "challengeLoan",
      "outputs": [],
      "stateMutability": "nonpayable",
      "type": "function"
    },
    {
      "inputs": [
        {
          "internalType": "uint256",
          "name": "loanId",
          "type": "uint256"
        },
        {
          "internalType": "bool",
          "name": "decision",
          "type": "bool"
        }
      ],
      "name": "decideForLoan",
      "outputs": [],
      "stateMutability": "nonpayable",
      "type": "function"
    },
    {
      "inputs": [
        {
          "internalType": "uint256",
          "name": "loanId",
          "type": "uint256"
        },
        {
          "internalType": "bool",
          "name": "decision",
          "type": "bool"
        }
      ],
      "name": "decideForMilestone",
      "outputs": [],
      "stateMutability": "nonpayable",
      "type": "function"
    },
    {
      "inputs": [],
      "name": "escrow",
      "outputs": [
        {
          "internalType": "contract IEscrow",
          "name": "",
          "type": "address"
        }
      ],
      "stateMutability": "view",
      "type": "function"
    },
    {
      "inputs": [
        {
          "internalType": "uint256",
          "name": "loanId",
          "type": "uint256"
        }
      ],
      "name": "executePayment",
      "outputs": [],
      "stateMutability": "nonpayable",
      "type": "function"
    },
    {
      "inputs": [
        {
          "internalType": "uint256",
          "name": "loanId",
          "type": "uint256"
        },
        {
          "internalType": "uint256",
          "name": "partitionsToPurchase",
          "type": "uint256"
        }
      ],
      "name": "fundLoan",
      "outputs": [],
      "stateMutability": "nonpayable",
      "type": "function"
    },
    {
      "inputs": [],
      "name": "fundingNFT",
      "outputs": [
        {
          "internalType": "contract IERC1155Mint",
          "name": "",
          "type": "address"
        }
      ],
      "stateMutability": "view",
      "type": "function"
    },
    {
      "inputs": [],
      "name": "fundingTimeInterval",
      "outputs": [
        {
          "internalType": "uint256",
          "name": "",
          "type": "uint256"
        }
      ],
      "stateMutability": "view",
      "type": "function"
    },
    {
      "inputs": [
        {
          "internalType": "uint256",
          "name": "loanId",
          "type": "uint256"
        },
        {
          "internalType": "uint256",
          "name": "amountFundingNFT",
          "type": "uint256"
        }
      ],
      "name": "getAmountOfProjectTokensToReceive",
      "outputs": [
        {
          "internalType": "uint256",
          "name": "amount",
          "type": "uint256"
        }
      ],
      "stateMutability": "view",
      "type": "function"
    },
    {
      "inputs": [
        {
          "internalType": "uint256",
          "name": "loanId",
          "type": "uint256"
        }
      ],
      "name": "getAmountToBeRepaid",
      "outputs": [
        {
          "internalType": "uint256",
          "name": "amount",
          "type": "uint256"
        }
      ],
      "stateMutability": "view",
      "type": "function"
    },
    {
      "inputs": [
        {
          "internalType": "uint256",
          "name": "loanId",
          "type": "uint256"
        },
        {
          "internalType": "address",
          "name": "funder",
          "type": "address"
        }
      ],
      "name": "getAvailableFundingNFTForConversion",
      "outputs": [
        {
          "internalType": "uint256",
          "name": "balance",
          "type": "uint256"
        }
      ],
      "stateMutability": "view",
      "type": "function"
    },
    {
      "inputs": [
        {
          "internalType": "uint256",
          "name": "loanId",
          "type": "uint256"
        }
      ],
      "name": "getDiscountedProjectTokenPrice",
      "outputs": [
        {
          "internalType": "uint256",
          "name": "price",
          "type": "uint256"
        }
      ],
      "stateMutability": "view",
      "type": "function"
    },
    {
      "inputs": [
        {
          "internalType": "uint256",
          "name": "loanId",
          "type": "uint256"
        }
      ],
      "name": "getLoanMetadata",
      "outputs": [
        {
          "components": [
            {
              "internalType": "uint256",
              "name": "loanId",
              "type": "uint256"
            },
            {
              "internalType": "enum LoanLibrary.LoanType",
              "name": "loanType",
              "type": "uint8"
            },
            {
              "internalType": "uint256",
              "name": "approvalDate",
              "type": "uint256"
            },
            {
              "internalType": "uint256",
              "name": "startingDate",
              "type": "uint256"
            },
            {
              "internalType": "address",
              "name": "collateralToken",
              "type": "address"
            },
            {
              "internalType": "uint256",
              "name": "collateralAmount",
              "type": "uint256"
            },
            {
              "internalType": "uint256",
              "name": "lendingAmount",
              "type": "uint256"
            },
            {
              "internalType": "uint256",
              "name": "totalPartitions",
              "type": "uint256"
            },
            {
              "internalType": "uint256",
              "name": "totalInterest",
              "type": "uint256"
            },
            {
              "internalType": "uint256",
              "name": "interestPercentage",
              "type": "uint256"
            },
            {
              "internalType": "string",
              "name": "extraInfo",
              "type": "string"
            },
            {
              "internalType": "uint256",
              "name": "partitionsPurchased",
              "type": "uint256"
            }
          ],
          "internalType": "struct LoanLibrary.LoanDetails",
          "name": "",
          "type": "tuple"
        },
        {
          "internalType": "enum LoanLibrary.LoanStatus",
          "name": "",
          "type": "uint8"
        },
        {
          "internalType": "address",
          "name": "",
          "type": "address"
        },
        {
          "internalType": "enum LoanLibrary.RepaymentBatchType",
          "name": "",
          "type": "uint8"
        }
      ],
      "stateMutability": "view",
      "type": "function"
    },
    {
      "inputs": [
        {
          "internalType": "uint256",
          "name": "loanId_",
          "type": "uint256"
        },
        {
          "internalType": "uint256",
          "name": "milestone_",
          "type": "uint256"
        }
      ],
      "name": "getMilestonesInfo",
      "outputs": [
        {
          "internalType": "uint256",
          "name": "amount",
          "type": "uint256"
        },
        {
          "internalType": "uint256",
          "name": "timestamp",
          "type": "uint256"
        }
      ],
      "stateMutability": "view",
      "type": "function"
    },
    {
      "inputs": [
        {
          "internalType": "uint256",
          "name": "loanId",
          "type": "uint256"
        }
      ],
      "name": "getProjectTokenPrice",
      "outputs": [
        {
          "internalType": "uint256",
          "name": "price",
          "type": "uint256"
        }
      ],
      "stateMutability": "view",
      "type": "function"
    },
    {
      "inputs": [
        {
          "internalType": "uint256",
          "name": "loanId",
          "type": "uint256"
        }
      ],
      "name": "getTotalInterest",
      "outputs": [
        {
          "internalType": "uint256",
          "name": "totalInterest",
          "type": "uint256"
        }
      ],
      "stateMutability": "view",
      "type": "function"
    },
    {
      "inputs": [],
      "name": "governance",
      "outputs": [
        {
          "internalType": "contract IGovernance",
          "name": "",
          "type": "address"
        }
      ],
      "stateMutability": "view",
      "type": "function"
    },
    {
      "inputs": [
        {
          "internalType": "address",
          "name": "escrowAddress",
          "type": "address"
        },
        {
          "internalType": "address",
          "name": "governanceAddress_",
          "type": "address"
        },
        {
          "internalType": "address",
          "name": "lendingToken_",
          "type": "address"
        },
        {
          "internalType": "address",
          "name": "mainNFT_",
          "type": "address"
        },
        {
          "internalType": "address",
          "name": "fundingNFT_",
          "type": "address"
        },
        {
          "internalType": "uint256",
          "name": "baseAmountForEachPartition_",
          "type": "uint256"
        },
        {
          "internalType": "uint256",
          "name": "minimumInterestPercentage_",
          "type": "uint256"
        },
        {
          "internalType": "uint256",
          "name": "maxMilestones_",
          "type": "uint256"
        },
        {
          "internalType": "uint256",
          "name": "milestoneExtensionInterval_",
          "type": "uint256"
        },
        {
          "internalType": "uint256",
          "name": "vestingBatches_",
          "type": "uint256"
        },
        {
          "internalType": "uint256",
          "name": "vestingTimeInterval_",
          "type": "uint256"
        },
        {
          "internalType": "uint256",
          "name": "fundingTimeInterval_",
          "type": "uint256"
        }
      ],
      "name": "initialize",
      "outputs": [],
      "stateMutability": "nonpayable",
      "type": "function"
    },
    {
      "inputs": [],
      "name": "lendingToken",
      "outputs": [
        {
          "internalType": "contract IERC20",
          "name": "",
          "type": "address"
        }
      ],
      "stateMutability": "view",
      "type": "function"
    },
    {
      "inputs": [
        {
          "internalType": "uint256",
          "name": "",
          "type": "uint256"
        }
      ],
      "name": "loanDetails",
      "outputs": [
        {
          "internalType": "uint256",
          "name": "loanId",
          "type": "uint256"
        },
        {
          "internalType": "enum LoanLibrary.LoanType",
          "name": "loanType",
          "type": "uint8"
        },
        {
          "internalType": "uint256",
          "name": "approvalDate",
          "type": "uint256"
        },
        {
          "internalType": "uint256",
          "name": "startingDate",
          "type": "uint256"
        },
        {
          "internalType": "address",
          "name": "collateralToken",
          "type": "address"
        },
        {
          "internalType": "uint256",
          "name": "collateralAmount",
          "type": "uint256"
        },
        {
          "internalType": "uint256",
          "name": "lendingAmount",
          "type": "uint256"
        },
        {
          "internalType": "uint256",
          "name": "totalPartitions",
          "type": "uint256"
        },
        {
          "internalType": "uint256",
          "name": "totalInterest",
          "type": "uint256"
        },
        {
          "internalType": "uint256",
          "name": "interestPercentage",
          "type": "uint256"
        },
        {
          "internalType": "string",
          "name": "extraInfo",
          "type": "string"
        },
        {
          "internalType": "uint256",
          "name": "partitionsPurchased",
          "type": "uint256"
        }
      ],
      "stateMutability": "view",
      "type": "function"
    },
    {
      "inputs": [
        {
          "internalType": "uint256",
          "name": "",
          "type": "uint256"
        }
      ],
      "name": "loanSeeker",
      "outputs": [
        {
          "internalType": "address",
          "name": "",
          "type": "address"
        }
      ],
      "stateMutability": "view",
      "type": "function"
    },
    {
      "inputs": [
        {
          "internalType": "uint256",
          "name": "",
          "type": "uint256"
        }
      ],
      "name": "loanStatus",
      "outputs": [
        {
          "internalType": "enum LoanLibrary.LoanStatus",
          "name": "",
          "type": "uint8"
        }
      ],
      "stateMutability": "view",
      "type": "function"
    },
    {
      "inputs": [],
      "name": "mainNFT",
      "outputs": [
        {
          "internalType": "contract IERC721Mint",
          "name": "",
          "type": "address"
        }
      ],
      "stateMutability": "view",
      "type": "function"
    },
    {
      "inputs": [],
      "name": "maxMilestones",
      "outputs": [
        {
          "internalType": "uint256",
          "name": "",
          "type": "uint256"
        }
      ],
      "stateMutability": "view",
      "type": "function"
    },
    {
      "inputs": [],
      "name": "milestoneExtensionInterval",
      "outputs": [
        {
          "internalType": "uint256",
          "name": "",
          "type": "uint256"
        }
      ],
      "stateMutability": "view",
      "type": "function"
    },
    {
      "inputs": [],
      "name": "minimumInterestPercentage",
      "outputs": [
        {
          "internalType": "uint256",
          "name": "",
          "type": "uint256"
        }
      ],
      "stateMutability": "view",
      "type": "function"
    },
    {
      "inputs": [
        {
          "internalType": "uint256",
          "name": "",
          "type": "uint256"
        }
      ],
      "name": "personalLoanPayments",
      "outputs": [
        {
          "internalType": "uint256",
          "name": "batchesPaid",
          "type": "uint256"
        },
        {
          "internalType": "uint256",
          "name": "amountEachBatch",
          "type": "uint256"
        },
        {
          "internalType": "uint256",
          "name": "totalAmountOfBatches",
          "type": "uint256"
        },
        {
          "internalType": "uint256",
          "name": "timeIntervalBetweenBatches",
          "type": "uint256"
        },
        {
          "internalType": "uint256",
          "name": "batchesSkipped",
          "type": "uint256"
        },
        {
          "internalType": "uint256",
          "name": "batchStartingTimestamp",
          "type": "uint256"
        },
        {
          "internalType": "uint256",
          "name": "batchDeadlineTimestamp",
          "type": "uint256"
        },
        {
          "internalType": "enum LoanLibrary.RepaymentBatchType",
          "name": "repaymentBatchType",
          "type": "uint8"
        }
      ],
      "stateMutability": "view",
      "type": "function"
    },
    {
      "inputs": [
        {
          "internalType": "uint256",
          "name": "",
          "type": "uint256"
        }
      ],
      "name": "projectLoanPayments",
      "outputs": [
        {
          "internalType": "uint256",
          "name": "totalMilestones",
          "type": "uint256"
        },
        {
          "internalType": "uint256",
          "name": "awaitingForRepaymentDate",
          "type": "uint256"
        },
        {
          "internalType": "uint256",
          "name": "paymentTimeInterval",
          "type": "uint256"
        },
        {
          "internalType": "uint256",
          "name": "milestonesDelivered",
          "type": "uint256"
        },
        {
          "internalType": "uint256",
          "name": "milestonesExtended",
          "type": "uint256"
        },
        {
          "internalType": "uint256",
          "name": "currentMilestoneStartingTimestamp",
          "type": "uint256"
        },
        {
          "internalType": "uint256",
          "name": "currentMilestoneDeadlineTimestamp",
          "type": "uint256"
        },
        {
          "internalType": "uint256",
          "name": "discountPerMillion",
          "type": "uint256"
        },
        {
          "internalType": "uint256",
          "name": "partitionsPaidInProjectTokens",
          "type": "uint256"
        }
      ],
      "stateMutability": "view",
      "type": "function"
    },
    {
      "inputs": [
        {
          "internalType": "uint256",
          "name": "tokenId",
          "type": "uint256"
        },
        {
          "internalType": "uint256",
          "name": "amountOfTokens",
          "type": "uint256"
        },
        {
          "internalType": "bool",
          "name": "onProjectTokens",
          "type": "bool"
        }
      ],
      "name": "receivePayment",
      "outputs": [],
      "stateMutability": "nonpayable",
      "type": "function"
    },
    {
      "inputs": [
        {
          "internalType": "uint256",
          "name": "amountRequested",
          "type": "uint256"
        },
        {
          "internalType": "address",
          "name": "collateralToken",
          "type": "address"
        },
        {
          "internalType": "uint256",
          "name": "collateralAmount",
          "type": "uint256"
        },
        {
          "internalType": "uint256",
          "name": "totalAmountOfBatches",
          "type": "uint256"
        },
        {
          "internalType": "uint256",
          "name": "interestPercentage",
          "type": "uint256"
        },
        {
          "internalType": "uint256",
          "name": "batchTimeInterval",
          "type": "uint256"
        },
        {
          "internalType": "string",
          "name": "extraInfo",
          "type": "string"
        },
        {
          "internalType": "enum LoanLibrary.RepaymentBatchType",
          "name": "repaymentBatchType",
          "type": "uint8"
        }
      ],
      "name": "requestPersonalLoan",
      "outputs": [],
      "stateMutability": "nonpayable",
      "type": "function"
    },
    {
      "inputs": [
        {
          "internalType": "uint256[]",
          "name": "amountRequestedPerMilestone",
          "type": "uint256[]"
        },
        {
          "internalType": "address",
          "name": "collateralToken",
          "type": "address"
        },
        {
          "internalType": "uint256",
          "name": "collateralAmount",
          "type": "uint256"
        },
        {
          "internalType": "uint256",
          "name": "projectTokenPrice",
          "type": "uint256"
        },
        {
          "internalType": "uint256",
          "name": "interestPercentage",
          "type": "uint256"
        },
        {
          "internalType": "uint256",
          "name": "discountPerMillion",
          "type": "uint256"
        },
        {
          "internalType": "uint256",
          "name": "totalMilestones",
          "type": "uint256"
        },
        {
          "internalType": "uint256[]",
          "name": "milestoneDurations",
          "type": "uint256[]"
        },
        {
          "internalType": "uint256",
          "name": "paymentTimeInterval",
          "type": "uint256"
        },
        {
          "internalType": "string",
          "name": "extraInfo",
          "type": "string"
        }
      ],
      "name": "requestProjectLoan",
      "outputs": [],
      "stateMutability": "nonpayable",
      "type": "function"
    },
    {
      "inputs": [],
      "name": "totalLoans",
      "outputs": [
        {
          "internalType": "uint256",
          "name": "",
          "type": "uint256"
        }
      ],
      "stateMutability": "view",
      "type": "function"
    },
    {
      "inputs": [],
      "name": "vestingBatches",
      "outputs": [
        {
          "internalType": "uint256",
          "name": "",
          "type": "uint256"
        }
      ],
      "stateMutability": "view",
      "type": "function"
    },
    {
      "inputs": [],
      "name": "vestingTimeInterval",
      "outputs": [
        {
          "internalType": "uint256",
          "name": "",
          "type": "uint256"
        }
      ],
      "stateMutability": "view",
      "type": "function"
    }
  ],
  "transactionHash": "0x60ff6ad337f396eb26e971e35d8d2aa90d0bc254d34b45a1d2ee3c93ae38826b",
  "args": [],
  "solcInputHash": "b4749c3639c4ae9324add8ba059987d0",
  "bytecode": "0x608060405234801561001057600080fd5b506146a6806100206000396000f3fe608060405234801561001057600080fd5b50600436106102325760003560e01c80638472046911610130578063c4f52f53116100b8578063e842b14b1161007c578063e842b14b14610497578063eed4e9a0146104aa578063f4512bb6146104bd578063f6e684cd146104d0578063fc17693e146104e357610232565b8063c4f52f5314610441578063cc952b5714610454578063d63dfab21461045c578063dcc9e14e1461046f578063e2fdcc171461048f57610232565b8063a42278d3116100ff578063a42278d3146103e4578063a69769b7146103f7578063a8863310146103ff578063aaaca55814610412578063c0ac5c311461041a57610232565b806384720469146103a357806384da44b5146103b6578063939156a2146103c957806397cc5160146103d157610232565b80633f817ccd116101be5780635aa6e675116101825780635aa6e675146103325780635d6145391461033a578063604ed12b1461034257806364337f41146103655780637aa489bb1461037857610232565b80633f817ccd146102e7578063417238a7146102ef57806348e66c041461030f5780634f1bef8d1461031757806357cfaf1a1461032a57610232565b806313e04ede1161020557806313e04ede1461028e57806314817ca514610296578063162a0cf81461029e5780631b955f75146102b35780632ea5bf6e146102c657610232565b806301422c22146102375780630451fe09146102605780630d781d53146102735780630e4ea7361461027b575b600080fd5b61024a610245366004613946565b61050b565b60405161025791906144c7565b60405180910390f35b61024a61026e366004613a85565b61058c565b61024a610617565b61024a610289366004613976565b61061d565b61024a61065d565b61024a610663565b6102b16102ac366004613946565b610669565b005b61024a6102c1366004613976565b61073c565b6102d96102d4366004613a64565b6107a5565b6040516102579291906145a0565b61024a6107d3565b6103026102fd366004613946565b6107d9565b6040516102579190613b60565b6103026107f4565b6102b1610325366004613a35565b610803565b61024a61084e565b610302610854565b61024a610863565b610355610350366004613946565b610869565b60405161025794939291906143da565b61024a610373366004613946565b6109fe565b61038b610386366004613946565b610a53565b6040516102579c9b9a99989796959493929190614521565b6102b16103b1366004613946565b610b6b565b6102b16103c4366004613ab9565b610d77565b610302610ee7565b61024a6103df366004613946565b610ef6565b6102b16103f2366004613946565b610f36565b61024a6110c6565b6102b161040d366004613a35565b6110cc565b6103026111cf565b61042d610428366004613946565b6111de565b6040516102579897969594939291906145cd565b61024a61044f366004613946565b611227565b61024a611288565b6102b161046a3660046139a1565b61128e565b61048261047d366004613946565b61152b565b6040516102579190613bdd565b610302611540565b6102b16104a536600461383f565b61154f565b61024a6104b8366004613a64565b61187c565b6102b16104cb366004613a64565b6118a9565b6102b16104de36600461379a565b611b9f565b6104f66104f1366004613946565b611d22565b60405161025799989796959493929190614619565b600c546000828152600460205260408120600b01549091829161054a916105329190611d70565b60008581526002602052604090206006015490611daa565b6000848152600260205260408120600901549192509061057890606490610572908590611d70565b90611dd2565b90506105848282611e04565b949350505050565b600a546000906001600160a01b031662fdd58e836105aa8688611e29565b6040518363ffffffff1660e01b81526004016105c7929190613b98565b60206040518083038186803b1580156105df57600080fd5b505afa1580156105f3573d6000803e3d6000fd5b505050506040513d601f19601f82011682018060405250810190610584919061395e565b60125481565b6000805b6000848152600460205260409020548110156106565761064c61064585838661058c565b8390611e04565b9150600101610621565b5092915050565b600d5481565b60105481565b60008181526006602052604090205481906001600160a01b031633146106aa5760405162461bcd60e51b81526004016106a19061437a565b60405180910390fd5b600082815260026020526040812060019081015460ff16908111156106cb57fe5b14156106df576106da82611e33565b6106e8565b6106e882611f39565b6000828152600260205260409020600190810154339160ff9091169081111561070d57fe5b60405184907f63dbda4ddea0a9860398294945ebd7cb9465b56bcf889695a28a3e67e628126a90600090a45050565b6000600660008481526005602052604090205460ff16600a81111561075d57fe5b141561076b5750600061079f565b60005b6000848152600460205260409020600501548110156106565761079561064585838661058c565b915060010161076e565b92915050565b6000918252600460209081526040808420928452600183018252808420546002909301909152909120549091565b60115481565b6006602052600090815260409020546001600160a01b031681565b6009546001600160a01b031681565b6007546001600160a01b0316331461082d5760405162461bcd60e51b81526004016106a1906143b1565b80156108415761083c826120f6565b61084a565b61084a826121d0565b5050565b600e5481565b6007546001600160a01b031681565b600c5481565b6108716135c2565b600082815260026020908152604080832060058352818420546006845282852054600385528386206007015484516101808101909552835485526001808501548897889760ff968716966001600160a01b0390961695948516949093889392850192909116908111156108e057fe5b60018111156108eb57fe5b8152600282810154602080840191909152600384015460408085019190915260048501546001600160a01b0316606085015260058501546080850152600685015460a0850152600785015460c0850152600885015460e0850152600985015461010080860191909152600a8601805483516001821615909302600019011694909404601f81018490048402820184019092528181526101209094019392918301828280156109da5780601f106109af576101008083540402835291602001916109da565b820191906000526020600020905b8154815290600101906020018083116109bd57829003601f168201915b50505050508152602001600b82015481525050935093509350935093509193509193565b600c546000828152600460205260408120600b015490918291610a25916105329190611d70565b600084815260026020526040902060090154909150610a4c90606490610572908490611d70565b9392505050565b60026020528060005260406000206000915090508060000154908060010160009054906101000a900460ff16908060020154908060030154908060040160009054906101000a90046001600160a01b03169080600501549080600601549080600701549080600801549080600901549080600a018054600181600116156101000203166002900480601f016020809104026020016040519081016040528092919081815260200182805460018160011615610100020316600290048015610b5b5780601f10610b3057610100808354040283529160200191610b5b565b820191906000526020600020905b815481529060010190602001808311610b3e57829003601f168201915b50505050509080600b015490508c565b60008181526006602052604090205481906001600160a01b03163314610ba35760405162461bcd60e51b81526004016106a19061437a565b81600360008281526005602052604090205460ff16600a811115610bc357fe5b1480610beb5750600a60008281526005602052604090205460ff16600a811115610be957fe5b145b610c075760405162461bcd60e51b81526004016106a190614289565b826001600082815260026020526040902060019081015460ff1690811115610c2b57fe5b14610c485760405162461bcd60e51b81526004016106a190613e52565b600084815260046020526040902060080154849042108015610c7b57506000818152600460205260409020600701544210155b610c975760405162461bcd60e51b81526004016106a190614113565b6000858152600560208181526040808420805460ff191660049081179091556007549281905293819020909201549151631d85c01760e31b81526001600160a01b039091169263ec2e00b892610cf3928a92600192910161450b565b600060405180830381600087803b158015610d0d57600080fd5b505af1158015610d21573d6000803e3d6000fd5b505050600086815260046020526040908190206005015490518792507f67bd96e1dcbac766f46549e8bc47fdb11ac35eab24fe6cf22a9a6aaf4d99b5bf91610d68916144c7565b60405180910390a25050505050565b82826000805b600084815260046020526040902054811015610e2957600a54610e1f906001600160a01b031662fdd58e33610db28589611e29565b6040518363ffffffff1660e01b8152600401610dcf929190613b98565b60206040518083038186803b158015610de757600080fd5b505afa158015610dfb573d6000803e3d6000fd5b505050506040513d601f19601f82011682018060405250810190610645919061395e565b9150600101610d7d565b5081811015610e4a5760405162461bcd60e51b81526004016106a190613e89565b600080610e56886122bf565b909250905060008082815260026020526040902060019081015460ff1690811115610e7d57fe5b1415610e9357610e8e8183896122dc565b610e9f565b610e9f81838989612560565b85151582827fc9cad257fc8a3ea5f8ded7223ea73c3ec7d5d01e29e66f34ebc2614e48494a718a33604051610ed59291906144d0565b60405180910390a45050505050505050565b600a546001600160a01b031681565b600080610f0283611227565b600084815260046020526040902060090154909150610a4c90610f2f90620f424090610572908590611d70565b8290611daa565b80600360008281526005602052604090205460ff16600a811115610f5657fe5b1480610f7e5750600a60008281526005602052604090205460ff16600a811115610f7c57fe5b145b610f9a5760405162461bcd60e51b81526004016106a190614289565b8160008082815260026020526040902060019081015460ff1690811115610fbd57fe5b1415610ff957600081815260036020526040902060060154421015610ff45760405162461bcd60e51b81526004016106a190613c77565b61102a565b60008181526004602052604090206008015442101561102a5760405162461bcd60e51b81526004016106a190613beb565b600083815260026020526040812060019081015460ff169081111561104b57fe5b141561105f5761105a83612586565b611068565b61106883612620565b600083815260026020526040902060019081015460ff169081111561108957fe5b837f51c3a01234630052cdec3e0bc3cd7d257ff6e336610f766540500ee052226f4b336040516110b99190613b60565b60405180910390a3505050565b600f5481565b6007546001600160a01b031633146110f65760405162461bcd60e51b81526004016106a1906143b1565b81600460008281526005602052604090205460ff16600a81111561111657fe5b146111335760405162461bcd60e51b81526004016106a1906140c2565b826001600082815260026020526040902060019081015460ff169081111561115757fe5b146111745760405162461bcd60e51b81526004016106a190613e52565b82156111885761118384612693565b611191565b61119184612815565b837ff09f2352b3665bdba5aef472acaf3580ed2c3628f1f62be34603c70cf03071af846040516111c19190613bd2565b60405180910390a250505050565b6008546001600160a01b031681565b6003602081905260009182526040909120805460018201546002830154938301546004840154600585015460068601546007909601549496939593949293919290919060ff1688565b6000818152600460205260408120600501548190611246576000611263565b600083815260046020526040902060050154611263906001611daa565b6000938452600460209081526040808620928652600a90920190529092205492915050565b60015481565b600181600181111561129c57fe5b11156112ba5760405162461bcd60e51b81526004016106a190613dad565b600c546112c8908990612857565b156112e55760405162461bcd60e51b81526004016106a190614235565b6112f460008989898887612889565b6112ff858483612a41565b600b546040516323b872dd60e01b81526001600160a01b03808a16926323b872dd9261133392339216908b90600401613b74565b602060405180830381600087803b15801561134d57600080fd5b505af1158015611361573d6000803e3d6000fd5b505050506040513d601f19601f82011682018060405250810190611385919061392a565b50600a54600b546001546000908152600260205260409081902060070154905163ebad711d60e01b81526001600160a01b039384169363ebad711d936113d093911691600401613b98565b600060405180830381600087803b1580156113ea57600080fd5b505af11580156113fe573d6000803e3d6000fd5b5050600a546001546040516313e3108160e01b81526001600160a01b0390921693506313e310819250611433916004016144c7565b600060405180830381600087803b15801561144d57600080fd5b505af1158015611461573d6000803e3d6000fd5b5050600754600154604051631d85c01760e31b81526001600160a01b03909216935063ec2e00b8925061149b91600090819060040161450b565b600060405180830381600087803b1580156114b557600080fd5b505af11580156114c9573d6000803e3d6000fd5b50505050336001600160a01b03166001547fa2179d9e474d1ee600a5058418a521d140f187b0f892c1c6fbe1b2a413b9b9608a60405161150991906144c7565b60405180910390a36001805461151e91611e04565b6001555050505050505050565b60056020526000908152604090205460ff1681565b600b546001600160a01b031681565b84600e548111156115725760405162461bcd60e51b81526004016106a1906141c3565b8b8614801561158057508386145b61159c5760405162461bcd60e51b81526004016106a190613f7c565b600061160d8e8e8080602002602001604051908101604052809392919081815260200183836020028082843760009201919091525050604080516020808c0282810182019093528b82529093508b92508a9182918501908490808284376000920191909152508c9250612b1e915050565b905061161e6001828e8e8d88612889565b61162a888b8987612c29565b8b6001600160a01b03166323b872dd33600b60009054906101000a90046001600160a01b03168e6040518463ffffffff1660e01b815260040161166f93929190613b74565b602060405180830381600087803b15801561168957600080fd5b505af115801561169d573d6000803e3d6000fd5b505050506040513d601f19601f820116820180604052508101906116c1919061392a565b50600a54600b54600180546000908152600260205260409020600701546001600160a01b039384169363718e88ec9316916116fd908c90611daa565b6040518463ffffffff1660e01b815260040161171b93929190613bb1565b600060405180830381600087803b15801561173557600080fd5b505af1158015611749573d6000803e3d6000fd5b5050600a546001546040516313e3108160e01b81526001600160a01b0390921693506313e31081925061177e916004016144c7565b600060405180830381600087803b15801561179857600080fd5b505af11580156117ac573d6000803e3d6000fd5b5050600754600154604051631d85c01760e31b81526001600160a01b03909216935063ec2e00b892506117e691600090819060040161450b565b600060405180830381600087803b15801561180057600080fd5b505af1158015611814573d6000803e3d6000fd5b50505050336001600160a01b03166001547f2564171fb1990a98ad27ce84d8f95d4e6514a0ad453558c0af9d1586c7ddf3058360405161185491906144c7565b60405180910390a36001805461186991611e04565b6001555050505050505050505050505050565b600080611894600c5484611d7090919063ffffffff16565b90506105846118a285610ef6565b8290611dd2565b81600160008281526005602052604090205460ff16600a8111156118c957fe5b14806118f15750600260008281526005602052604090205460ff16600a8111156118ef57fe5b145b61190d5760405162461bcd60e51b81526004016106a190614079565b60125460008281526002602081905260409091200154429161192f9190611e04565b1161194c5760405162461bcd60e51b81526004016106a190613cbb565b6000838152600260205260409020600b81015460079091015461196e91611daa565b82111561198d5760405162461bcd60e51b81526004016106a190614032565b600160008481526005602052604090205460ff16600a8111156119ac57fe5b14156119cc576000838152600560205260409020805460ff191660021790555b600854600b54600c546001600160a01b03928316926323b872dd9233929116906119f7908790611d70565b6040518463ffffffff1660e01b8152600401611a1593929190613b74565b602060405180830381600087803b158015611a2f57600080fd5b505af1158015611a43573d6000803e3d6000fd5b505050506040513d601f19601f82011682018060405250810190611a67919061392a565b50600083815260026020526040812060019081015460ff1690811115611a8957fe5b1415611afa57600b54604051634f34b5f560e11b81526001600160a01b0390911690639e696bea90611ac3908690869033906004016145ae565b600060405180830381600087803b158015611add57600080fd5b505af1158015611af1573d6000803e3d6000fd5b50505050611b05565b611b05838333612c74565b6000838152600260205260409020600b0154611b219083611e04565b60008481526002602052604090819020600b01919091555183907f6e5b27d2e67c2625df42eebb43aa4f6a0d1ee7d58d8648381d47177a878b7d0d90611b6a90859033906144d0565b60405180910390a260008381526002602052604090206007810154600b909101541415611b9a57611b9a83612dde565b505050565b600054610100900460ff1680611bb85750611bb8612e8b565b80611bc6575060005460ff16155b611be25760405162461bcd60e51b81526004016106a190613f2e565b600054610100900460ff16158015611c0d576000805460ff1961ff0019909116610100171660011790555b8c600b60006101000a8154816001600160a01b0302191690836001600160a01b0316021790555087600c819055508b600760006101000a8154816001600160a01b0302191690836001600160a01b031602179055508a600860006101000a8154816001600160a01b0302191690836001600160a01b0316021790555086600d8190555089600960006101000a8154816001600160a01b0302191690836001600160a01b0316021790555088600a60006101000a8154816001600160a01b0302191690836001600160a01b0316021790555085600e8190555084600f819055508360108190555082601181905550816012819055508015611d13576000805461ff00191690555b50505050505050505050505050565b600460205280600052604060002060009150905080600001549080600301549080600401549080600501549080600601549080600701549080600801549080600901549080600b0154905089565b600082611d7f5750600061079f565b82820282848281611d8c57fe5b0414610a4c5760405162461bcd60e51b81526004016106a190613ff1565b600082821115611dcc5760405162461bcd60e51b81526004016106a190613de4565b50900390565b6000808211611df35760405162461bcd60e51b81526004016106a190613e1b565b818381611dfc57fe5b049392505050565b600082820183811015610a4c5760405162461bcd60e51b81526004016106a190613cf2565b60809190911b1790565b600081815260036020526040902060060154819042108015611e6657506000818152600360205260409020600501544210155b611e825760405162461bcd60e51b81526004016106a190614155565b81600360008281526005602052604090205460ff16600a811115611ea257fe5b1480611eca5750600a60008281526005602052604090205460ff16600a811115611ec857fe5b145b611ee65760405162461bcd60e51b81526004016106a190614289565b600160008481526003602052604090206007015460ff166001811115611f0857fe5b1415611f3057600083815260036020526040902060010154611f2b908490612e9c565b611b9a565b611b9a83613045565b80600560008281526005602052604090205460ff16600a811115611f5957fe5b14611f765760405162461bcd60e51b81526004016106a190613d29565b6000818152600460208190526040909120908101546003909101544291611f9d9190611e04565b11611fba5760405162461bcd60e51b81526004016106a190613d60565b600854600b546001600160a01b03918216916323b872dd91339116611fde8661050b565b6040518463ffffffff1660e01b8152600401611ffc93929190613b74565b602060405180830381600087803b15801561201657600080fd5b505af115801561202a573d6000803e3d6000fd5b505050506040513d601f19601f8201168201806040525081019061204e919061392a565b506000828152600560208181526040808420805460ff19166006908117909155600b546002808552838720600480820154948752978590205491909552939094015491516399df9c3960e01b81526001600160a01b03948516956399df9c39956120c095938116949316929101613b74565b600060405180830381600087803b1580156120da57600080fd5b505af11580156120ee573d6000803e3d6000fd5b505050505050565b6000818152600560209081526040808320805460ff191660011790556002918290529182902042910155600a5490516397107c3360e01b81526001600160a01b03909116906397107c339061214f9084906004016144c7565b600060405180830381600087803b15801561216957600080fd5b505af115801561217d573d6000803e3d6000fd5b505050600082815260026020526040902060019081015460ff1691508111156121a257fe5b60405182907fe0c708f75289f8e38b7d4a83254b6fded7b8fea4eb8b8adaa571fd7bbfbbf93190600090a350565b6000818152600560208181526040808420805460ff19166009179055600b546002808452828620600480820154600687529785902054929095529094015491516399df9c3960e01b81526001600160a01b03918216956399df9c399561223e95918416949316929101613b74565b600060405180830381600087803b15801561225857600080fd5b505af115801561226c573d6000803e3d6000fd5b505050600082815260026020526040902060019081015460ff16915081111561229157fe5b60405182907faed677736358e7886986d588a2258af3151f9895541859bd7fa90aa8c760601690600090a350565b608081901c916fffffffffffffffffffffffffffffffff90911690565b82600660008281526005602052604090205460ff16600a8111156122fc57fe5b146123195760405162461bcd60e51b81526004016106a190614205565b600084815260036020526040812054612333908590611daa565b9050600081116123555760405162461bcd60e51b81526004016106a19061418c565b6000858152600260209081526040808320600701546003909252822060010154612390919061057290859061238a9089611d70565b90611d70565b9050600660008781526005602052604090205460ff16600a8111156123b157fe5b14156124845760008681526003602052604081206007015460ff1660018111156123d757fe5b1415612412576000868152600260205260409020600781015460069091015461240f91612408916105729088611d70565b8290611e04565b90505b600a546001600160a01b031663f5298aca3361242e888a611e29565b876040518463ffffffff1660e01b815260040161244d93929190613bb1565b600060405180830381600087803b15801561246757600080fd5b505af115801561247b573d6000803e3d6000fd5b505050506124f4565b600a546001600160a01b031663d515da2261249f8789611e29565b3387866040518563ffffffff1660e01b81526004016124c194939291906144e7565b600060405180830381600087803b1580156124db57600080fd5b505af11580156124ef573d6000803e3d6000fd5b505050505b600b546040516367cb741f60e11b81526001600160a01b039091169063cf96e83e906125269033908590600401613b98565b600060405180830381600087803b15801561254057600080fd5b505af1158015612554573d6000803e3d6000fd5b50505050505050505050565b80156125755761257084836130ba565b612580565b6125808484846131e8565b50505050565b6000818152600360205260409020600401546125a3906001611e04565b6000828152600360205260409020600401819055600110156125e65760075b60008281526005602052604090205460ff16600a8111156125df57fe5b505061261d565b60008181526003602081905260409091209081015460069091015461260a91611e04565b6000828152600360205260409020600601555b50565b60008181526004602052604090206006015461263d906001611e04565b6000828152600460205260409020600601819055600110156126605760076125c2565b600f5460008281526004602052604090206008015461267e91611e04565b60008281526004602052604090206008015550565b6000818152600460205260409020600501546126b0906001611e04565b6000828152600460205260409020600581018290555414156126fb576000818152600560208181526040808420805460ff19169093179092556004905290204260039091015561261d565b6000818152600560208181526040808420805460ff1916600a179055600b5460068352818520546004808552838720958601548752600195909501909352938190205490516367cb741f60e11b81526001600160a01b039485169463cf96e83e9461276c9491909116929101613b98565b600060405180830381600087803b15801561278657600080fd5b505af115801561279a573d6000803e3d6000fd5b50505060008281526004602090815260408083204260078201819055600582015485526002909101909252909120546127d39250611e04565b6000828152600460205260408120600801919091556127f190613344565b600082815260046020908152604080832060058101548452600a0190915290205550565b600360008281526005602052604090205460ff16600a81111561283457fe5b5050600081815260046020526040902060080154421061261d5761261d81612620565b60008082116128785760405162461bcd60e51b81526004016106a190613ec0565b81838161288157fe5b069392505050565b600d548210156128ab5760405162461bcd60e51b81526004016106a190613c33565b6128b36135c2565b600180548252602082019088908111156128c957fe5b908160018111156128d657fe5b9052506001600160a01b038516608082015260a0810184905260c08101869052610120810183905261290d60646105728886611d70565b6101008201526101408101829052600c54612929908790611dd2565b60e082015260018054600090815260026020908152604090912083518155908301518183018054859460ff1990911690838181111561296457fe5b0217905550604082015160028201556060820151600382015560808201516004820180546001600160a01b0319166001600160a01b0390921691909117905560a0820151600582015560c0820151600682015560e082015160078201556101008201516008820155610120820151600982015561014082015180516129f391600a84019160209091019061362d565b506101609190910151600b909101555050600180546000908152600560209081526040808320805460ff1916905592548252600690522080546001600160a01b031916331790555050505050565b6000816001811115612a4f57fe5b1415612a8d57600154600090815260026020526040902060080154612a749084611dd2565b6001805460009081526003602052604090200155612acd565b60015460009081526002602052604090206006810154600890910154612ab891859161057291611e04565b60018054600090815260036020526040902001555b600180546000908152600360208190526040808320600201879055835483528083209091018590558254825290206007018054839260ff19909116908381811115612b1457fe5b0217905550505050565b6000805b82811015612c2157612b52600c54868381518110612b3c57fe5b602002602001015161285790919063ffffffff16565b15612b6f5760405162461bcd60e51b81526004016106a1906142c0565b848181518110612b7b57fe5b6020026020010151600460006001548152602001908152602001600020600101600083815260200190815260200160002081905550838181518110612bbc57fe5b6020026020010151600460006001548152602001908152602001600020600201600083815260200190815260200160002081905550612c17858281518110612c0057fe5b602002602001015183611e0490919063ffffffff16565b9150600101612b22565b509392505050565b6001805460009081526004602081815260408084206009019890985583548352878320838052600a018152878320969096558254825294859052858120939093555482529290200155565b600083815260046020526040812054612c8e906001611daa565b90506000612c9c8286611e29565b600b54604051634f34b5f560e11b81529192506001600160a01b031690639e696bea90612cd1908490889088906004016145ae565b600060405180830381600087803b158015612ceb57600080fd5b505af1158015612cff573d6000803e3d6000fd5b5050505060005b600086815260046020526040902054612d20906001611daa565b8110156120ee5760008681526002602090815260408083206006015460048352818420858552600101909252822054612d5f9190610572908990611d70565b600a549091506001600160a01b031663c5b4ece5848784612d808988611daa565b6040518563ffffffff1660e01b8152600401612d9f94939291906144e7565b600060405180830381600087803b158015612db957600080fd5b505af1158015612dcd573d6000803e3d6000fd5b505060019093019250612d06915050565b6000818152600560209081526040808320805460ff1916600390811790915560029092528220429181019190915560019081015460ff1690811115612e1f57fe5b1415612e3357612e2e81613351565b612e3c565b612e3c81613409565b600081815260026020526040902060019081015460ff1690811115612e5d57fe5b60405182907fd4ca7e6416e643ec823e6ea932eb1ea0437a442c0a98171622621c7e3e8bf9bd90600090a350565b6000612e96306134e0565b15905090565b600854600b546040516323b872dd60e01b81526001600160a01b03928316926323b872dd92612ed5923392909116908690600401613b74565b602060405180830381600087803b158015612eef57600080fd5b505af1158015612f03573d6000803e3d6000fd5b505050506040513d601f19601f82011682018060405250810190612f27919061392a565b50600082815260036020526040902054612f42906001611e04565b6000838152600360205260409020818155600201541415613005576000828152600560208181526040808420805460ff19166006908117909155600b546002808552838720600480820154948752978590205491909552939094015491516399df9c3960e01b81526001600160a01b03948516956399df9c3995612fce95938116949316929101613b74565b600060405180830381600087803b158015612fe857600080fd5b505af1158015612ffc573d6000803e3d6000fd5b5050505061084a565b600082815260036020819052604090912060068101546005820181905591015461302f9190611e04565b6000838152600360205260409020600601555050565b600081815260036020526040812060028101549054613065906001611e04565b141561309c5760008281526002602090815260408083206006015460039092529091206001015461309591611e04565b90506130b0565b506000818152600360205260409020600101545b61084a8282612e9c565b806130c5833361073c565b10156130e35760405162461bcd60e51b81526004016106a19061431d565b60006130ef838361187c565b6000848152600460205260409020600b015490915061310e9083611e04565b6000848152600460205260409020600b015561312a83836134ea565b600b546000848152600260205260409081902060049081015491516399df9c3960e01b81526001600160a01b03938416936399df9c3993613172939116913391879101613b74565b600060405180830381600087803b15801561318c57600080fd5b505af11580156131a0573d6000803e3d6000fd5b50505050336001600160a01b0316837f07090adf666d1373cabb211e8679dabcc6d292d56c0fbea99a59ec5c17aa17d3836131da87610ef6565b6040516110b99291906145a0565b82600660008281526005602052604090205460ff16600a81111561320857fe5b146132255760405162461bcd60e51b81526004016106a190614205565b60006132318486611e29565b600a54604051627eeac760e11b815291925084916001600160a01b039091169062fdd58e906132669033908690600401613b98565b60206040518083038186803b15801561327e57600080fd5b505afa158015613292573d6000803e3d6000fd5b505050506040513d601f19601f820116820180604052508101906132b6919061395e565b10156132d45760405162461bcd60e51b81526004016106a190613ef7565b6000858152600460209081526040808320600b0154600290925282206007015461330f916133029190611daa565b6105728661238a8a61050b565b600a54604051637a94c56560e11b81529192506001600160a01b03169063f5298aca906124c190339086908990600401613bb1565b600061079f826001611e04565b600081815260036020819052604090912042600582018190559101546133779190611e04565b6000828152600360209081526040808320600690810194909455600b54848352818420546002909352928190209093015492516367cb741f60e11b81526001600160a01b039283169363cf96e83e936133d4931691600401613b98565b600060405180830381600087803b1580156133ee57600080fd5b505af1158015613402573d6000803e3d6000fd5b5050505050565b6000818152600460209081526040808320426007820181905584805260029091019092529091205461343b9190611e04565b6000828152600460205260409020600881019190915554600114801561347b57506000818152600460209081526040808320838052600201909152902054155b156134895761348981612693565b600b546000828152600660209081526040808320546004808452828520858052600101909352928190205490516367cb741f60e11b81526001600160a01b039485169463cf96e83e946133d4949116929101613b98565b803b15155b919050565b8060005b6000848152600460205260409020600501548110801561350e5750600082115b1561258057600061352085833361058c565b905060008382116135315781613533565b835b600a549091506001600160a01b031663f5298aca33613552868a611e29565b846040518463ffffffff1660e01b815260040161357193929190613bb1565b600060405180830381600087803b15801561358b57600080fd5b505af115801561359f573d6000803e3d6000fd5b505050506135b68185611daa90919063ffffffff16565b935050506001016134ee565b604080516101808101909152600080825260208201908152602001600081526020016000815260200160006001600160a01b03168152602001600081526020016000815260200160008152602001600081526020016000815260200160608152602001600081525090565b828054600181600116156101000203166002900490600052602060002090601f016020900481019282601f1061366e57805160ff191683800117855561369b565b8280016001018555821561369b579182015b8281111561369b578251825591602001919060010190613680565b506136a79291506136ab565b5090565b5b808211156136a757600081556001016136ac565b80356001600160a01b03811681146134e557600080fd5b60008083601f8401126136e8578182fd5b50813567ffffffffffffffff8111156136ff578182fd5b602083019150836020808302850101111561371957600080fd5b9250929050565b600082601f830112613730578081fd5b813567ffffffffffffffff8082111561374557fe5b604051601f8301601f19168101602001828111828210171561376357fe5b60405282815292508284830160200186101561377e57600080fd5b8260208601602083013760006020848301015250505092915050565b6000806000806000806000806000806000806101808d8f0312156137bc578788fd5b6137c58d6136c0565b9b506137d360208e016136c0565b9a506137e160408e016136c0565b99506137ef60608e016136c0565b98506137fd60808e016136c0565b9b9e9a9d50989b979a9960a0890135995060c08901359860e0810135985061010081013597506101208101359650610140810135955061016001359350915050565b6000806000806000806000806000806000806101408d8f031215613861578081fd5b67ffffffffffffffff8d351115613876578081fd5b6138838e8e358f016136d7565b909c509a5061389460208e016136c0565b995060408d0135985060608d0135975060808d0135965060a08d0135955060c08d0135945067ffffffffffffffff60e08e013511156138d1578081fd5b6138e18e60e08f01358f016136d7565b90945092506101008d0135915067ffffffffffffffff6101208e01351115613907578081fd5b6139188e6101208f01358f01613720565b90509295989b509295989b509295989b565b60006020828403121561393b578081fd5b8151610a4c81614662565b600060208284031215613957578081fd5b5035919050565b60006020828403121561396f578081fd5b5051919050565b60008060408385031215613988578182fd5b82359150613998602084016136c0565b90509250929050565b600080600080600080600080610100898b0312156139bd578384fd5b883597506139cd60208a016136c0565b965060408901359550606089013594506080890135935060a0890135925060c089013567ffffffffffffffff811115613a04578283fd5b613a108b828c01613720565b92505060e089013560028110613a24578182fd5b809150509295985092959890939650565b60008060408385031215613a47578182fd5b823591506020830135613a5981614662565b809150509250929050565b60008060408385031215613a76578182fd5b50508035926020909101359150565b600080600060608486031215613a99578081fd5b8335925060208401359150613ab0604085016136c0565b90509250925092565b600080600060608486031215613acd578081fd5b83359250602084013591506040840135613ae681614662565b809150509250925092565b6001600160a01b03169052565b600b8110613b0857fe5b9052565b613b0881614658565b60008151808452815b81811015613b3a57602081850181015186830182015201613b1e565b81811115613b4b5782602083870101525b50601f01601f19169290920160200192915050565b6001600160a01b0391909116815260200190565b6001600160a01b039384168152919092166020820152604081019190915260600190565b6001600160a01b03929092168252602082015260400190565b6001600160a01b039390931683526020830191909152604082015260600190565b901515815260200190565b6020810161079f8284613afe565b60208082526028908201527f4f6e6c79206166746572206d696c6573746f6e6520646561646c696e65206973604082015267081c995858da195960c21b606082015260800190565b60208082526024908201527f496e7465726573742070657263656e74616765206c6f776572207468616e206c6040820152631a5b5a5d60e21b606082015260800190565b60208082526024908201527f4f6e6c7920616674657220626174636820646561646c696e652069732072656160408201526318da195960e21b606082015260800190565b6020808252601e908201527f4f6e6c79206265747765656e2066756e64696e672074696d656672616d650000604082015260600190565b6020808252601b908201527f536166654d6174683a206164646974696f6e206f766572666c6f770000000000604082015260600190565b60208082526018908201527f4f6e6c79206f6e2052657061796d656e74205374617475730000000000000000604082015260600190565b6020808252602d908201527f4f6e6c79206265747765656e206177616974696e6720666f722072657061796d60408201526c656e742074696d656672616d6560981b606082015260800190565b6020808252601a908201527f57726f6e672072657061796d656e742062617463682074797065000000000000604082015260600190565b6020808252601e908201527f536166654d6174683a207375627472616374696f6e206f766572666c6f770000604082015260600190565b6020808252601a908201527f536166654d6174683a206469766973696f6e206279207a65726f000000000000604082015260600190565b6020808252601d908201527f4f6e6c79207768656e206c6f616e20697320666f722070726f6a656374000000604082015260600190565b60208082526018908201527f4f6e6c79207768656e20656e6f7567682062616c616e63650000000000000000604082015260600190565b60208082526018908201527f536166654d6174683a206d6f64756c6f206279207a65726f0000000000000000604082015260600190565b6020808252601d908201527f496e73756666696369656e74204c6f616e204e46542042616c616e6365000000604082015260600190565b6020808252602e908201527f496e697469616c697a61626c653a20636f6e747261637420697320616c72656160408201526d191e481a5b9a5d1a585b1a5e995960921b606082015260800190565b6020808252604f908201527f546f74616c206d696c6573746f6e6573207265717565737465642073686f756c60408201527f6420636f696e6369646520776974682072657175657374656420616d6f756e7460608201526e7320616e64206475726174696f6e7360881b608082015260a00190565b60208082526021908201527f536166654d6174683a206d756c7469706c69636174696f6e206f766572666c6f6040820152607760f81b606082015260800190565b60208082526027908201527f4e6f7420656e6f75676820706172746974696f6e73206c65667420666f7220706040820152667572636861736560c81b606082015260800190565b60208082526029908201527f4f6e6c79207768656e206c6f616e206973206163746976656c792067657474696040820152681b99c8199d5b99195960ba1b606082015260800190565b60208082526031908201527f4f6e6c79207768656e206c6f616e206973206177616974696e6720666f72206d6040820152701a5b195cdd1bdb9948185c1c1c9bdd985b607a1b606082015260800190565b60208082526022908201527f4f6e6c79206265747765656e206d696c6573746f6e6527732074696d656672616040820152616d6560f01b606082015260800190565b6020808252601c908201527f4f6e6c79206265747765656e2062617463682074696d656672616d6500000000604082015260600190565b60208082526018908201527f4e6f7420656c696769626c6520666f72207061796d656e740000000000000000604082015260600190565b60208082526022908201527f4f6e6c79206163636570746564206e756d626572206f66206d696c6573746f6e604082015261657360f01b606082015260800190565b6020808252601690820152754f6e6c79206f6e20536574746c65642053746174757360501b604082015260600190565b60208082526034908201527f52657175657374656420416d6f756e74206d7573742062652061206d756c74696040820152731c1b1a595c881bd98818985cd948185b5bdd5b9d60621b606082015260800190565b60208082526018908201527f4f6e6c79207768656e206c6f616e206973206163746976650000000000000000604082015260600190565b6020808252603e908201527f526571756573746564206d696c6573746f6e6520616d6f756e7473206d75737460408201527f206265206d756c7469706c69657273206f66206261736520616d6f756e740000606082015260800190565b60208082526039908201527f4e6f2066756e64696e67204e465420617661696c61626c6520666f7220636f6e60408201527f76657273696f6e20746f2070726f6a65637420746f6b656e7300000000000000606082015260800190565b60208082526017908201527f4f6e6c79207365656b6572206f6620746865206c6f616e000000000000000000604082015260600190565b6020808252600f908201526e4f6e6c7920476f7665726e616e636560881b604082015260600190565b6000608082528551608083015260208601516143f960a0840182613b0c565b50604086015160c0830152606086015160e0830152608086015161010061442281850183613af1565b60a08801519150610120828186015260c08901519250610140838187015260e08a015193506101608481880152838b0151945061018093508484880152828b01516101a0880152818b01519450836101c0880152614484610200880186613b15565b908b01516101e088015294506144a4935050602085019150879050613afe565b6144b16040830185613af1565b6144be6060830184613b0c565b95945050505050565b90815260200190565b9182526001600160a01b0316602082015260400190565b9384526001600160a01b039290921660208401526040830152606082015260800190565b9283529015156020830152604082015260600190565b60006101808e83526145328e614658565b8d60208401528c60408401528b606084015260018060a01b038b1660808401528960a08401528860c08401528760e084015286610100840152856101208401528061014084015261458581840186613b15565b915050826101608301529d9c50505050505050505050505050565b918252602082015260400190565b92835260208301919091526001600160a01b0316604082015260600190565b6000610100820190508982528860208301528760408301528660608301528560808301528460a08301528360c083015261460683614658565b8260e08301529998505050505050505050565b988952602089019790975260408801959095526060870193909352608086019190915260a085015260c084015260e08301526101008201526101200190565b6002811061261d57fe5b801515811461261d57600080fdfea26469706673582212209df12ba61a4cb89efad778a794ed349fb09c3da6ae0da9678acd5b0858081a4564736f6c63430007030033",
  "devdoc": {
    "kind": "dev",
    "methods": {
      "applyMilestone(uint256)": {
        "details": "This function is used by the project to apply a milestone for a specific loan.",
        "params": {
          "loanId": "The id of the loan."
        }
      },
      "challengeLoan(uint256)": {
        "details": "Through this function any address can challenge a loan in case of rules breaking by the seeker. If challenging succeeds it can end up to either small penalty or whole collateral loss.",
        "params": {
          "loanId": "The id of the loan."
        }
      },
      "decideForLoan(uint256,bool)": {
        "details": "This function is called by governance to approve or reject a loan request.",
        "params": {
          "decision": "The decision of the governance. [true -> approved] [false -> rejected]",
          "loanId": "The id of the loan."
        }
      },
      "decideForMilestone(uint256,bool)": {
        "details": "This function is called by governance to approve or reject an applied milestone's request.",
        "params": {
          "decision": "The decision of the governance. [true -> approved] [false -> rejected]",
          "loanId": "The id of the loan."
        }
      },
      "executePayment(uint256)": {
        "details": "This function is called by the seeker to return part of or whole owed amount for a loan (depending on agreement).",
        "params": {
          "loanId": "The id of the loan."
        }
      },
      "fundLoan(uint256,uint256)": {
        "details": "This function is called by the lenders to fund a loan.",
        "params": {
          "loanId": "The id of the loan.",
          "partitionsToPurchase": "The amount of ERC1155 tokens (which represent partitions of the loan) to be purchased."
        }
      },
      "getAmountToBeRepaid(uint256)": {
        "details": "getAmountToBeRepaid is a function to obtain the amount that should be paid to settle the loan taking into account the amount paid back with project tokens and the interest percentage.",
        "params": {
          "loanId": "The id of the loan to get the amount to be repaid from."
        },
        "returns": {
          "amount": "The total amount to be paid in lending tokens to settle the loan."
        }
      },
      "getLoanMetadata(uint256)": {
        "details": "This helper function provides a single point for querying the Loan metadata",
        "params": {
          "loanId": "The id of the loan."
        }
      },
      "getTotalInterest(uint256)": {
        "details": "getTotalInterest is a function to obtain the total amount of interest to pay back taking into account the interest free amount paid back with project tokens and the interest percentage set for the loan.",
        "params": {
          "loanId": "The id of the loan to get the interest percentage from."
        },
        "returns": {
          "totalInterest": "The total amount of interest to be paid to settle the loan."
        }
      },
      "initialize(address,address,address,address,address,uint256,uint256,uint256,uint256,uint256,uint256,uint256)": {
        "details": "Initialize of the contract."
      },
      "receivePayment(uint256,uint256,bool)": {
        "details": "This function is called by ERC1155 holders to receive a payment (after seeker has repaid part of loan).",
        "params": {
          "amountOfTokens": "The amount of NFT tokens to receive payment for.",
          "onProjectTokens": "Only used in project loans. [true -> repayment in project token] [false -> repayment in lending token]",
          "tokenId": "The token id of the ERC1155 tokens, which is eligible for the payment."
        }
      },
      "requestPersonalLoan(uint256,address,uint256,uint256,uint256,uint256,string,uint8)": {
        "details": "This function is used for potential seekers to request a personal loan.",
        "params": {
          "amountRequested": "The lending amount seeker is looking to get.",
          "batchTimeInterval": "The time interval between repayment batches.",
          "collateralAmount": "The amount of tokens that will be used by the seeker as collateral.",
          "collateralToken": "The token that will be used by the seeker as collateral.",
          "extraInfo": "The ipfs hash where more specific details for loan request are stored.",
          "interestPercentage": "The interest percentage that will be obtained after whole repayment.",
          "repaymentBatchType": "The way the repayment in each batch will happen. [ONLY_INTEREST or INTEREST_PLUS_NOMINAL]        ONLY_INTEREST means that in every batch part of the interest will be repaid and whole nominal in the last batch.        INTEREST_PLUS_NOMINAL means that in every batch part of the interest and nominal will be repaid.",
          "totalAmountOfBatches": "The amount of batches in which loan will be repaid."
        }
      },
      "requestProjectLoan(uint256[],address,uint256,uint256,uint256,uint256,uint256,uint256[],uint256,string)": {
        "details": "This function is used for potential borrowing project to request a loan.",
        "params": {
          "amountRequestedPerMilestone": "The lending amounts project is looking to get for each milestone.",
          "collateralAmount": "The amount of tokens that will be used by the project as collateral.",
          "collateralToken": "The token that will be used by the proect as collateral.",
          "discountPerMillion": "The discount given on the token price when funders claim repayment in project tokens.",
          "extraInfo": "The ipfs hash where more specific details for loan request are stored.",
          "interestPercentage": "The interest percentage that will be obtained after whole repayment.",
          "milestoneDurations": "The duration of each Milestone.",
          "paymentTimeInterval": "The time interval between the last milestone delivery by the project and the repayment of the loan by the project.",
          "projectTokenPrice": "The price the project wants to sell its token for.",
          "totalMilestones": "The total amount of Milestones project is requesting funds for."
        }
      }
    },
    "title": "AllianceBlock Registry contract",
    "version": 1
  },
  "userdoc": {
    "kind": "user",
    "methods": {},
    "notice": "Responsible for loan transactions.",
    "version": 1
  },
  "storageLayout": {
    "storage": [
      {
        "astId": 890,
        "contract": "contracts/Registry.sol:Registry",
        "label": "_initialized",
        "offset": 0,
        "slot": "0",
        "type": "t_bool"
      },
      {
        "astId": 893,
        "contract": "contracts/Registry.sol:Registry",
        "label": "_initializing",
        "offset": 1,
        "slot": "0",
        "type": "t_bool"
      },
      {
        "astId": 12849,
        "contract": "contracts/Registry.sol:Registry",
        "label": "totalLoans",
        "offset": 0,
        "slot": "1",
        "type": "t_uint256"
      },
      {
        "astId": 12853,
        "contract": "contracts/Registry.sol:Registry",
        "label": "loanDetails",
        "offset": 0,
        "slot": "2",
        "type": "t_mapping(t_uint256,t_struct(LoanDetails)10289_storage)"
      },
      {
        "astId": 12857,
        "contract": "contracts/Registry.sol:Registry",
        "label": "personalLoanPayments",
        "offset": 0,
        "slot": "3",
        "type": "t_mapping(t_uint256,t_struct(PersonalLoanPayments)10306_storage)"
      },
      {
        "astId": 12861,
        "contract": "contracts/Registry.sol:Registry",
        "label": "projectLoanPayments",
        "offset": 0,
        "slot": "4",
        "type": "t_mapping(t_uint256,t_struct(ProjectLoanPayments)10337_storage)"
      },
      {
        "astId": 12865,
        "contract": "contracts/Registry.sol:Registry",
        "label": "loanStatus",
        "offset": 0,
        "slot": "5",
        "type": "t_mapping(t_uint256,t_enum(LoanStatus)10264)"
      },
      {
        "astId": 12869,
        "contract": "contracts/Registry.sol:Registry",
        "label": "loanSeeker",
        "offset": 0,
        "slot": "6",
        "type": "t_mapping(t_uint256,t_address)"
      },
      {
        "astId": 12871,
        "contract": "contracts/Registry.sol:Registry",
        "label": "governance",
        "offset": 0,
        "slot": "7",
        "type": "t_contract(IGovernance)10205"
      },
      {
        "astId": 12873,
        "contract": "contracts/Registry.sol:Registry",
        "label": "lendingToken",
        "offset": 0,
        "slot": "8",
        "type": "t_contract(IERC20)6414"
      },
      {
        "astId": 12875,
        "contract": "contracts/Registry.sol:Registry",
        "label": "mainNFT",
        "offset": 0,
        "slot": "9",
        "type": "t_contract(IERC721Mint)10156"
      },
      {
        "astId": 12877,
        "contract": "contracts/Registry.sol:Registry",
        "label": "fundingNFT",
        "offset": 0,
        "slot": "10",
        "type": "t_contract(IERC1155Mint)10147"
      },
      {
        "astId": 12879,
        "contract": "contracts/Registry.sol:Registry",
        "label": "escrow",
        "offset": 0,
        "slot": "11",
        "type": "t_contract(IEscrow)10192"
      },
      {
        "astId": 12881,
        "contract": "contracts/Registry.sol:Registry",
        "label": "baseAmountForEachPartition",
        "offset": 0,
        "slot": "12",
        "type": "t_uint256"
      },
      {
        "astId": 12883,
        "contract": "contracts/Registry.sol:Registry",
        "label": "minimumInterestPercentage",
        "offset": 0,
        "slot": "13",
        "type": "t_uint256"
      },
      {
        "astId": 12885,
        "contract": "contracts/Registry.sol:Registry",
        "label": "maxMilestones",
        "offset": 0,
        "slot": "14",
        "type": "t_uint256"
      },
      {
        "astId": 12887,
        "contract": "contracts/Registry.sol:Registry",
        "label": "milestoneExtensionInterval",
        "offset": 0,
        "slot": "15",
        "type": "t_uint256"
      },
      {
        "astId": 12889,
        "contract": "contracts/Registry.sol:Registry",
        "label": "vestingBatches",
        "offset": 0,
        "slot": "16",
        "type": "t_uint256"
      },
      {
        "astId": 12891,
        "contract": "contracts/Registry.sol:Registry",
        "label": "vestingTimeInterval",
        "offset": 0,
        "slot": "17",
        "type": "t_uint256"
      },
      {
        "astId": 12893,
        "contract": "contracts/Registry.sol:Registry",
        "label": "fundingTimeInterval",
        "offset": 0,
        "slot": "18",
        "type": "t_uint256"
      }
    ],
    "types": {
      "t_address": {
        "encoding": "inplace",
        "label": "address",
        "numberOfBytes": "20"
      },
      "t_bool": {
        "encoding": "inplace",
        "label": "bool",
        "numberOfBytes": "1"
      },
      "t_contract(IERC1155Mint)10147": {
        "encoding": "inplace",
        "label": "contract IERC1155Mint",
        "numberOfBytes": "20"
      },
      "t_contract(IERC20)6414": {
        "encoding": "inplace",
        "label": "contract IERC20",
        "numberOfBytes": "20"
      },
      "t_contract(IERC721Mint)10156": {
        "encoding": "inplace",
        "label": "contract IERC721Mint",
        "numberOfBytes": "20"
      },
      "t_contract(IEscrow)10192": {
        "encoding": "inplace",
        "label": "contract IEscrow",
        "numberOfBytes": "20"
      },
      "t_contract(IGovernance)10205": {
        "encoding": "inplace",
        "label": "contract IGovernance",
        "numberOfBytes": "20"
      },
      "t_enum(LoanStatus)10264": {
        "encoding": "inplace",
        "label": "enum LoanLibrary.LoanStatus",
        "numberOfBytes": "1"
      },
      "t_enum(LoanType)10252": {
        "encoding": "inplace",
        "label": "enum LoanLibrary.LoanType",
        "numberOfBytes": "1"
      },
      "t_enum(RepaymentBatchType)10249": {
        "encoding": "inplace",
        "label": "enum LoanLibrary.RepaymentBatchType",
        "numberOfBytes": "1"
      },
      "t_mapping(t_uint256,t_address)": {
        "encoding": "mapping",
        "key": "t_uint256",
        "label": "mapping(uint256 => address)",
        "numberOfBytes": "32",
        "value": "t_address"
      },
      "t_mapping(t_uint256,t_enum(LoanStatus)10264)": {
        "encoding": "mapping",
        "key": "t_uint256",
        "label": "mapping(uint256 => enum LoanLibrary.LoanStatus)",
        "numberOfBytes": "32",
        "value": "t_enum(LoanStatus)10264"
      },
      "t_mapping(t_uint256,t_struct(LoanDetails)10289_storage)": {
        "encoding": "mapping",
        "key": "t_uint256",
        "label": "mapping(uint256 => struct LoanLibrary.LoanDetails)",
        "numberOfBytes": "32",
        "value": "t_struct(LoanDetails)10289_storage"
      },
      "t_mapping(t_uint256,t_struct(PersonalLoanPayments)10306_storage)": {
        "encoding": "mapping",
        "key": "t_uint256",
        "label": "mapping(uint256 => struct LoanLibrary.PersonalLoanPayments)",
        "numberOfBytes": "32",
        "value": "t_struct(PersonalLoanPayments)10306_storage"
      },
      "t_mapping(t_uint256,t_struct(ProjectLoanPayments)10337_storage)": {
        "encoding": "mapping",
        "key": "t_uint256",
        "label": "mapping(uint256 => struct LoanLibrary.ProjectLoanPayments)",
        "numberOfBytes": "32",
        "value": "t_struct(ProjectLoanPayments)10337_storage"
      },
      "t_mapping(t_uint256,t_uint256)": {
        "encoding": "mapping",
        "key": "t_uint256",
        "label": "mapping(uint256 => uint256)",
        "numberOfBytes": "32",
        "value": "t_uint256"
      },
      "t_string_storage": {
        "encoding": "bytes",
        "label": "string",
        "numberOfBytes": "32"
      },
      "t_struct(LoanDetails)10289_storage": {
        "encoding": "inplace",
        "label": "struct LoanLibrary.LoanDetails",
        "members": [
          {
            "astId": 10266,
            "contract": "contracts/Registry.sol:Registry",
            "label": "loanId",
            "offset": 0,
            "slot": "0",
            "type": "t_uint256"
          },
          {
            "astId": 10268,
            "contract": "contracts/Registry.sol:Registry",
            "label": "loanType",
            "offset": 0,
            "slot": "1",
            "type": "t_enum(LoanType)10252"
          },
          {
            "astId": 10270,
            "contract": "contracts/Registry.sol:Registry",
            "label": "approvalDate",
            "offset": 0,
            "slot": "2",
            "type": "t_uint256"
          },
          {
            "astId": 10272,
            "contract": "contracts/Registry.sol:Registry",
            "label": "startingDate",
            "offset": 0,
            "slot": "3",
            "type": "t_uint256"
          },
          {
            "astId": 10274,
            "contract": "contracts/Registry.sol:Registry",
            "label": "collateralToken",
            "offset": 0,
            "slot": "4",
            "type": "t_address"
          },
          {
            "astId": 10276,
            "contract": "contracts/Registry.sol:Registry",
            "label": "collateralAmount",
            "offset": 0,
            "slot": "5",
            "type": "t_uint256"
          },
          {
            "astId": 10278,
            "contract": "contracts/Registry.sol:Registry",
            "label": "lendingAmount",
            "offset": 0,
            "slot": "6",
            "type": "t_uint256"
          },
          {
            "astId": 10280,
            "contract": "contracts/Registry.sol:Registry",
            "label": "totalPartitions",
            "offset": 0,
            "slot": "7",
            "type": "t_uint256"
          },
          {
            "astId": 10282,
            "contract": "contracts/Registry.sol:Registry",
            "label": "totalInterest",
            "offset": 0,
            "slot": "8",
            "type": "t_uint256"
          },
          {
            "astId": 10284,
            "contract": "contracts/Registry.sol:Registry",
            "label": "interestPercentage",
            "offset": 0,
            "slot": "9",
            "type": "t_uint256"
          },
          {
            "astId": 10286,
            "contract": "contracts/Registry.sol:Registry",
            "label": "extraInfo",
            "offset": 0,
            "slot": "10",
            "type": "t_string_storage"
          },
          {
            "astId": 10288,
            "contract": "contracts/Registry.sol:Registry",
            "label": "partitionsPurchased",
            "offset": 0,
            "slot": "11",
            "type": "t_uint256"
          }
        ],
        "numberOfBytes": "384"
      },
      "t_struct(PersonalLoanPayments)10306_storage": {
        "encoding": "inplace",
        "label": "struct LoanLibrary.PersonalLoanPayments",
        "members": [
          {
            "astId": 10291,
            "contract": "contracts/Registry.sol:Registry",
            "label": "batchesPaid",
            "offset": 0,
            "slot": "0",
            "type": "t_uint256"
          },
          {
            "astId": 10293,
            "contract": "contracts/Registry.sol:Registry",
            "label": "amountEachBatch",
            "offset": 0,
            "slot": "1",
            "type": "t_uint256"
          },
          {
            "astId": 10295,
            "contract": "contracts/Registry.sol:Registry",
            "label": "totalAmountOfBatches",
            "offset": 0,
            "slot": "2",
            "type": "t_uint256"
          },
          {
            "astId": 10297,
            "contract": "contracts/Registry.sol:Registry",
            "label": "timeIntervalBetweenBatches",
            "offset": 0,
            "slot": "3",
            "type": "t_uint256"
          },
          {
            "astId": 10299,
            "contract": "contracts/Registry.sol:Registry",
            "label": "batchesSkipped",
            "offset": 0,
            "slot": "4",
            "type": "t_uint256"
          },
          {
            "astId": 10301,
            "contract": "contracts/Registry.sol:Registry",
            "label": "batchStartingTimestamp",
            "offset": 0,
            "slot": "5",
            "type": "t_uint256"
          },
          {
            "astId": 10303,
            "contract": "contracts/Registry.sol:Registry",
            "label": "batchDeadlineTimestamp",
            "offset": 0,
            "slot": "6",
            "type": "t_uint256"
          },
          {
            "astId": 10305,
            "contract": "contracts/Registry.sol:Registry",
            "label": "repaymentBatchType",
            "offset": 0,
            "slot": "7",
            "type": "t_enum(RepaymentBatchType)10249"
          }
        ],
        "numberOfBytes": "256"
      },
      "t_struct(ProjectLoanPayments)10337_storage": {
        "encoding": "inplace",
        "label": "struct LoanLibrary.ProjectLoanPayments",
        "members": [
          {
            "astId": 10308,
            "contract": "contracts/Registry.sol:Registry",
            "label": "totalMilestones",
            "offset": 0,
            "slot": "0",
            "type": "t_uint256"
          },
          {
            "astId": 10312,
            "contract": "contracts/Registry.sol:Registry",
            "label": "milestoneLendingAmount",
            "offset": 0,
            "slot": "1",
            "type": "t_mapping(t_uint256,t_uint256)"
          },
          {
            "astId": 10316,
            "contract": "contracts/Registry.sol:Registry",
            "label": "milestoneDuration",
            "offset": 0,
            "slot": "2",
            "type": "t_mapping(t_uint256,t_uint256)"
          },
          {
            "astId": 10318,
            "contract": "contracts/Registry.sol:Registry",
            "label": "awaitingForRepaymentDate",
            "offset": 0,
            "slot": "3",
            "type": "t_uint256"
          },
          {
            "astId": 10320,
            "contract": "contracts/Registry.sol:Registry",
            "label": "paymentTimeInterval",
            "offset": 0,
            "slot": "4",
            "type": "t_uint256"
          },
          {
            "astId": 10322,
            "contract": "contracts/Registry.sol:Registry",
            "label": "milestonesDelivered",
            "offset": 0,
            "slot": "5",
            "type": "t_uint256"
          },
          {
            "astId": 10324,
            "contract": "contracts/Registry.sol:Registry",
            "label": "milestonesExtended",
            "offset": 0,
            "slot": "6",
            "type": "t_uint256"
          },
          {
            "astId": 10326,
            "contract": "contracts/Registry.sol:Registry",
            "label": "currentMilestoneStartingTimestamp",
            "offset": 0,
            "slot": "7",
            "type": "t_uint256"
          },
          {
            "astId": 10328,
            "contract": "contracts/Registry.sol:Registry",
            "label": "currentMilestoneDeadlineTimestamp",
            "offset": 0,
            "slot": "8",
            "type": "t_uint256"
          },
          {
            "astId": 10330,
            "contract": "contracts/Registry.sol:Registry",
            "label": "discountPerMillion",
            "offset": 0,
            "slot": "9",
            "type": "t_uint256"
          },
          {
            "astId": 10334,
            "contract": "contracts/Registry.sol:Registry",
            "label": "milestoneProjectTokenPrice",
            "offset": 0,
            "slot": "10",
            "type": "t_mapping(t_uint256,t_uint256)"
          },
          {
            "astId": 10336,
            "contract": "contracts/Registry.sol:Registry",
            "label": "partitionsPaidInProjectTokens",
            "offset": 0,
            "slot": "11",
            "type": "t_uint256"
          }
        ],
        "numberOfBytes": "384"
      },
      "t_uint256": {
        "encoding": "inplace",
        "label": "uint256",
        "numberOfBytes": "32"
      }
    }
  }
}