{
  "address": "0xE85978fd7825c9b3B7bC046CfbD35BB7D20Ae75d",
  "abi": [
    {
      "anonymous": false,
      "inputs": [
        {
          "indexed": true,
          "internalType": "uint256",
          "name": "investmentId",
          "type": "uint256"
        }
      ],
      "name": "InvestmentApproved",
      "type": "event"
    },
    {
      "anonymous": false,
      "inputs": [
        {
          "indexed": true,
          "internalType": "uint256",
          "name": "investmentId",
          "type": "uint256"
        }
      ],
      "name": "InvestmentRejected",
      "type": "event"
    },
    {
      "anonymous": false,
      "inputs": [
        {
          "indexed": true,
          "internalType": "uint256",
          "name": "investmentId",
          "type": "uint256"
        },
        {
          "indexed": true,
          "internalType": "address",
          "name": "user",
          "type": "address"
        },
        {
          "indexed": false,
          "internalType": "uint256",
          "name": "amount",
          "type": "uint256"
        }
      ],
      "name": "InvestmentRequested",
      "type": "event"
    },
    {
      "anonymous": false,
      "inputs": [
        {
          "indexed": true,
          "internalType": "uint256",
          "name": "investmentId",
          "type": "uint256"
        }
      ],
      "name": "InvestmentStarted",
      "type": "event"
    },
    {
      "anonymous": false,
      "inputs": [
        {
          "indexed": true,
          "internalType": "address",
          "name": "previousOwner",
          "type": "address"
        },
        {
          "indexed": true,
          "internalType": "address",
          "name": "newOwner",
          "type": "address"
        }
      ],
      "name": "OwnershipTransferred",
      "type": "event"
    },
    {
      "inputs": [
        {
          "internalType": "uint256",
          "name": "",
          "type": "uint256"
        },
        {
          "internalType": "uint256",
          "name": "",
          "type": "uint256"
        }
      ],
      "name": "addressOfLotteryNumber",
      "outputs": [
        {
          "internalType": "address",
          "name": "",
          "type": "address"
        }
      ],
      "stateMutability": "view",
      "type": "function"
    },
    {
      "inputs": [],
      "name": "baseAmountForEachPartition",
      "outputs": [
        {
          "internalType": "uint256",
          "name": "",
          "type": "uint256"
        }
      ],
      "stateMutability": "view",
      "type": "function"
    },
    {
      "inputs": [],
      "name": "blocksLockedForReputation",
      "outputs": [
        {
          "internalType": "uint256",
          "name": "",
          "type": "uint256"
        }
      ],
      "stateMutability": "view",
      "type": "function"
    },
    {
      "inputs": [
        {
          "internalType": "uint256",
          "name": "investmentId",
          "type": "uint256"
        },
        {
          "internalType": "bool",
          "name": "decision",
          "type": "bool"
        }
      ],
      "name": "decideForInvestment",
      "outputs": [],
      "stateMutability": "nonpayable",
      "type": "function"
    },
    {
      "inputs": [],
      "name": "escrow",
      "outputs": [
        {
          "internalType": "contract IEscrow",
          "name": "",
          "type": "address"
        }
      ],
      "stateMutability": "view",
      "type": "function"
    },
    {
      "inputs": [
        {
          "internalType": "uint256",
          "name": "investmentId",
          "type": "uint256"
        }
      ],
      "name": "executeLotteryRun",
      "outputs": [],
      "stateMutability": "nonpayable",
      "type": "function"
    },
    {
      "inputs": [],
      "name": "fundingNFT",
      "outputs": [
        {
          "internalType": "contract IERC1155Mint",
          "name": "",
          "type": "address"
        }
      ],
      "stateMutability": "view",
      "type": "function"
    },
    {
      "inputs": [
        {
          "internalType": "uint256",
          "name": "investmentId",
          "type": "uint256"
        }
      ],
      "name": "getInvestmentMetadata",
      "outputs": [
        {
          "components": [
            {
              "internalType": "uint256",
              "name": "investmentId",
              "type": "uint256"
            },
            {
              "internalType": "uint256",
              "name": "approvalDate",
              "type": "uint256"
            },
            {
              "internalType": "uint256",
              "name": "startingDate",
              "type": "uint256"
            },
            {
              "internalType": "address",
              "name": "projectToken",
              "type": "address"
            },
            {
              "internalType": "uint256",
              "name": "projectTokensAmount",
              "type": "uint256"
            },
            {
              "internalType": "uint256",
              "name": "totalAmountToBeRaised",
              "type": "uint256"
            },
            {
              "internalType": "uint256",
              "name": "totalPartitionsToBePurchased",
              "type": "uint256"
            },
            {
              "internalType": "string",
              "name": "extraInfo",
              "type": "string"
            },
            {
              "internalType": "uint256",
              "name": "partitionsRequested",
              "type": "uint256"
            }
          ],
          "internalType": "struct InvestmentLibrary.InvestmentDetails",
          "name": "",
          "type": "tuple"
        },
        {
          "internalType": "enum InvestmentLibrary.InvestmentStatus",
          "name": "",
          "type": "uint8"
        },
        {
          "internalType": "address",
          "name": "",
          "type": "address"
        }
      ],
      "stateMutability": "view",
      "type": "function"
    },
    {
      "inputs": [
        {
          "internalType": "uint256",
          "name": "investmentId",
          "type": "uint256"
        }
      ],
      "name": "getRequestingInterestStatus",
      "outputs": [
        {
          "internalType": "bool",
          "name": "",
          "type": "bool"
        }
      ],
      "stateMutability": "view",
      "type": "function"
    },
    {
      "inputs": [],
      "name": "governance",
      "outputs": [
        {
          "internalType": "contract IGovernance",
          "name": "",
          "type": "address"
        }
      ],
      "stateMutability": "view",
      "type": "function"
    },
    {
      "inputs": [
        {
          "internalType": "address",
          "name": "escrowAddress",
          "type": "address"
        },
        {
          "internalType": "address",
          "name": "governanceAddress_",
          "type": "address"
        },
        {
          "internalType": "address",
          "name": "lendingToken_",
          "type": "address"
        },
        {
          "internalType": "address",
          "name": "fundingNFT_",
          "type": "address"
        },
        {
          "internalType": "uint256",
          "name": "baseAmountForEachPartition_",
          "type": "uint256"
        }
      ],
      "name": "initialize",
      "outputs": [],
      "stateMutability": "nonpayable",
      "type": "function"
    },
    {
      "inputs": [
        {
          "internalType": "address",
          "name": "reputationalAlbt",
          "type": "address"
        },
        {
          "internalType": "uint256",
          "name": "totalTicketsPerRun_",
          "type": "uint256"
        },
        {
          "internalType": "uint256",
          "name": "rAlbtPerLotteryNumber_",
          "type": "uint256"
        },
        {
          "internalType": "uint256",
          "name": "blocksLockedForReputation_",
          "type": "uint256"
        },
        {
          "internalType": "uint256",
          "name": "lotteryNumbersForImmediateTicket_",
          "type": "uint256"
        }
      ],
      "name": "initializeInvestment",
      "outputs": [],
      "stateMutability": "nonpayable",
      "type": "function"
    },
    {
      "inputs": [
        {
          "internalType": "uint256",
          "name": "",
          "type": "uint256"
        }
      ],
      "name": "investmentDetails",
      "outputs": [
        {
          "internalType": "uint256",
          "name": "investmentId",
          "type": "uint256"
        },
        {
          "internalType": "uint256",
          "name": "approvalDate",
          "type": "uint256"
        },
        {
          "internalType": "uint256",
          "name": "startingDate",
          "type": "uint256"
        },
        {
          "internalType": "address",
          "name": "projectToken",
          "type": "address"
        },
        {
          "internalType": "uint256",
          "name": "projectTokensAmount",
          "type": "uint256"
        },
        {
          "internalType": "uint256",
          "name": "totalAmountToBeRaised",
          "type": "uint256"
        },
        {
          "internalType": "uint256",
          "name": "totalPartitionsToBePurchased",
          "type": "uint256"
        },
        {
          "internalType": "string",
          "name": "extraInfo",
          "type": "string"
        },
        {
          "internalType": "uint256",
          "name": "partitionsRequested",
          "type": "uint256"
        }
      ],
      "stateMutability": "view",
      "type": "function"
    },
    {
      "inputs": [
        {
          "internalType": "uint256",
          "name": "",
          "type": "uint256"
        }
      ],
      "name": "investmentSeeker",
      "outputs": [
        {
          "internalType": "address",
          "name": "",
          "type": "address"
        }
      ],
      "stateMutability": "view",
      "type": "function"
    },
    {
      "inputs": [
        {
          "internalType": "uint256",
          "name": "",
          "type": "uint256"
        }
      ],
      "name": "investmentStatus",
      "outputs": [
        {
          "internalType": "enum InvestmentLibrary.InvestmentStatus",
          "name": "",
          "type": "uint8"
        }
      ],
      "stateMutability": "view",
      "type": "function"
    },
    {
      "inputs": [
        {
          "internalType": "uint256",
          "name": "",
          "type": "uint256"
        }
      ],
      "name": "investmentTokensPerTicket",
      "outputs": [
        {
          "internalType": "uint256",
          "name": "",
          "type": "uint256"
        }
      ],
      "stateMutability": "view",
      "type": "function"
    },
    {
      "inputs": [
        {
          "internalType": "address",
          "name": "",
          "type": "address"
        }
      ],
      "name": "lastBlockCheckedForLockedTicketsPerAddress",
      "outputs": [
        {
          "internalType": "uint256",
          "name": "",
          "type": "uint256"
        }
      ],
      "stateMutability": "view",
      "type": "function"
    },
    {
      "inputs": [],
      "name": "lendingToken",
      "outputs": [
        {
          "internalType": "contract IERC20",
          "name": "",
          "type": "address"
        }
      ],
      "stateMutability": "view",
      "type": "function"
    },
    {
      "inputs": [
        {
          "internalType": "uint256",
          "name": "",
          "type": "uint256"
        },
        {
          "internalType": "address",
          "name": "",
          "type": "address"
        }
      ],
      "name": "lockedTicketsForSpecificInvestmentPerAddress",
      "outputs": [
        {
          "internalType": "uint256",
          "name": "",
          "type": "uint256"
        }
      ],
      "stateMutability": "view",
      "type": "function"
    },
    {
      "inputs": [
        {
          "internalType": "address",
          "name": "",
          "type": "address"
        }
      ],
      "name": "lockedTicketsPerAddress",
      "outputs": [
        {
          "internalType": "uint256",
          "name": "",
          "type": "uint256"
        }
      ],
      "stateMutability": "view",
      "type": "function"
    },
    {
      "inputs": [],
      "name": "lotteryNumbersForImmediateTicket",
      "outputs": [
        {
          "internalType": "uint256",
          "name": "",
          "type": "uint256"
        }
      ],
      "stateMutability": "view",
      "type": "function"
    },
    {
      "inputs": [],
      "name": "owner",
      "outputs": [
        {
          "internalType": "address",
          "name": "",
          "type": "address"
        }
      ],
      "stateMutability": "view",
      "type": "function"
    },
    {
      "inputs": [],
      "name": "rALBT",
      "outputs": [
        {
          "internalType": "contract IERC20",
          "name": "",
          "type": "address"
        }
      ],
      "stateMutability": "view",
      "type": "function"
    },
    {
      "inputs": [],
      "name": "rAlbtPerLotteryNumber",
      "outputs": [
        {
          "internalType": "uint256",
          "name": "",
          "type": "uint256"
        }
      ],
      "stateMutability": "view",
      "type": "function"
    },
    {
      "inputs": [
        {
          "internalType": "uint256",
          "name": "",
          "type": "uint256"
        },
        {
          "internalType": "address",
          "name": "",
          "type": "address"
        }
      ],
      "name": "remainingTicketsPerAddress",
      "outputs": [
        {
          "internalType": "uint256",
          "name": "",
          "type": "uint256"
        }
      ],
      "stateMutability": "view",
      "type": "function"
    },
    {
      "inputs": [],
      "name": "renounceOwnership",
      "outputs": [],
      "stateMutability": "nonpayable",
      "type": "function"
    },
    {
      "inputs": [
        {
          "internalType": "address",
          "name": "investmentToken",
          "type": "address"
        },
        {
          "internalType": "uint256",
          "name": "amountOfInvestmentTokens",
          "type": "uint256"
        },
        {
          "internalType": "uint256",
          "name": "totalAmountRequested_",
          "type": "uint256"
        },
        {
          "internalType": "string",
          "name": "extraInfo",
          "type": "string"
        }
      ],
      "name": "requestInvestment",
      "outputs": [],
      "stateMutability": "nonpayable",
      "type": "function"
    },
    {
      "inputs": [
        {
          "internalType": "uint256",
          "name": "investmentId",
          "type": "uint256"
        },
        {
          "internalType": "uint256",
          "name": "amountOfPartitions",
          "type": "uint256"
        }
      ],
      "name": "showInterestForInvestment",
      "outputs": [],
      "stateMutability": "nonpayable",
      "type": "function"
    },
    {
      "inputs": [
        {
          "internalType": "uint256",
          "name": "investmentId",
          "type": "uint256"
        }
      ],
      "name": "startLotteryPhase",
      "outputs": [],
      "stateMutability": "nonpayable",
      "type": "function"
    },
    {
      "inputs": [
        {
          "internalType": "uint256",
          "name": "",
          "type": "uint256"
        }
      ],
      "name": "ticketsRemaining",
      "outputs": [
        {
          "internalType": "uint256",
          "name": "",
          "type": "uint256"
        }
      ],
      "stateMutability": "view",
      "type": "function"
    },
    {
      "inputs": [
        {
          "internalType": "uint256",
          "name": "",
          "type": "uint256"
        },
        {
          "internalType": "address",
          "name": "",
          "type": "address"
        }
      ],
      "name": "ticketsWonPerAddress",
      "outputs": [
        {
          "internalType": "uint256",
          "name": "",
          "type": "uint256"
        }
      ],
      "stateMutability": "view",
      "type": "function"
    },
    {
      "inputs": [],
      "name": "totalInvestments",
      "outputs": [
        {
          "internalType": "uint256",
          "name": "",
          "type": "uint256"
        }
      ],
      "stateMutability": "view",
      "type": "function"
    },
    {
      "inputs": [
        {
          "internalType": "uint256",
          "name": "",
          "type": "uint256"
        }
      ],
      "name": "totalLotteryNumbersPerInvestment",
      "outputs": [
        {
          "internalType": "uint256",
          "name": "",
          "type": "uint256"
        }
      ],
      "stateMutability": "view",
      "type": "function"
    },
    {
      "inputs": [],
      "name": "totalTicketsPerRun",
      "outputs": [
        {
          "internalType": "uint256",
          "name": "",
          "type": "uint256"
        }
      ],
      "stateMutability": "view",
      "type": "function"
    },
    {
      "inputs": [
        {
          "internalType": "address",
          "name": "newOwner",
          "type": "address"
        }
      ],
      "name": "transferOwnership",
      "outputs": [],
      "stateMutability": "nonpayable",
      "type": "function"
    },
    {
      "inputs": [
        {
          "internalType": "uint256",
          "name": "investmentId",
          "type": "uint256"
        }
      ],
      "name": "withdrawAmountProvidedForNonWonTickets",
      "outputs": [],
      "stateMutability": "nonpayable",
      "type": "function"
    },
    {
      "inputs": [
        {
          "internalType": "uint256",
          "name": "investmentId",
          "type": "uint256"
        },
        {
          "internalType": "uint256",
          "name": "ticketsToLock",
          "type": "uint256"
        },
        {
          "internalType": "uint256",
          "name": "ticketsToWithdraw",
          "type": "uint256"
        }
      ],
      "name": "withdrawInvestmentTickets",
      "outputs": [],
      "stateMutability": "nonpayable",
      "type": "function"
    },
    {
      "inputs": [
        {
          "internalType": "uint256",
          "name": "investmentId",
          "type": "uint256"
        },
        {
          "internalType": "uint256",
          "name": "ticketsToWithdraw",
          "type": "uint256"
        }
      ],
      "name": "withdrawLockedInvestmentTickets",
      "outputs": [],
      "stateMutability": "nonpayable",
      "type": "function"
    }
  ],
  "transactionHash": "0xbc71524d71e1514db2ccd678aa5fe767ab046915de7006efb0d4395b0971ed9a",
  "args": [],
  "solcInputHash": "77418e487aa49c62cd8713bd4061a191",
  "bytecode": "0x608060405234801561001057600080fd5b50612ef9806100206000396000f3fe608060405234801561001057600080fd5b50600436106102325760003560e01c80637563672411610130578063b05442a9116100b8578063e2fdcc171161007c578063e2fdcc1714610489578063eebeb1cd14610491578063f2fde38b146104a4578063f7013ef6146104b7578063fc0da380146104ca57610232565b8063b05442a914610428578063d98fe6d61461043b578063dba44cbd1461044e578063de6af59f14610461578063e0c393461461048157610232565b80637f7b0eda116100ff5780637f7b0eda146103ea5780638da5cb5b146103fd578063939156a214610405578063a51df9961461040d578063aaaca5581461042057610232565b8063756367241461039c57806379e66676146103af5780637c9e75d9146103cf5780637e76080b146103e257610232565b806351612f9e116101be578063638b7e0911610182578063638b7e091461034457806364322c351461035757806370fd37cf1461036a578063715018a61461037257806374ab32e51461037a57610232565b806351612f9e146102e657806354cc19b7146102f95780635aa6e6751461030c5780635d614539146103145780636281f4311461031c57610232565b8063295027cb11610205578063295027cb1461029b5780633700418a146102ae57806338f40f5b146102b657806349195d19146102cb5780634abaad2d146102d357610232565b8063018fafc8146102375780630d3209dd146102605780631938656b14610275578063291003de14610288575b600080fd5b61024a610245366004612a16565b6104dd565b6040516102579190612ce6565b60405180910390f35b6102686104ef565b6040516102579190612b3e565b61024a610283366004612a2e565b6104fe565b61024a6102963660046128a7565b61051b565b6102686102a9366004612a8c565b61052d565b61024a610553565b6102c96102c4366004612a16565b610559565b005b61024a6105b6565b6102c96102e1366004612aad565b6105bc565b61024a6102f4366004612a2e565b610837565b6102c96103073660046129d5565b610854565b6102686109be565b61024a6109cd565b61032f61032a366004612a16565b6109d3565b60405161025799989796959493929190612cef565b61024a610352366004612a2e565b610ab0565b6102c9610365366004612a59565b610acd565b61024a610b3f565b6102c9610b45565b61038d610388366004612a16565b610c03565b60405161025793929190612c3f565b6102c96103aa366004612a16565b610d36565b6103c26103bd366004612a16565b611017565b6040516102579190612b76565b6102c96103dd366004612a8c565b611038565b61024a611239565b61024a6103f8366004612a16565b61123f565b610268611251565b610268611260565b61024a61041b366004612a16565b61126f565b610268611281565b6102c961043636600461291c565b611290565b61024a6104493660046128a7565b611563565b6102c961045c366004612a8c565b611575565b61047461046f366004612a16565b611757565b6040516102579190612b81565b61024a61176c565b610268611772565b6102c961049f366004612a16565b611781565b6102c96104b23660046128a7565b611850565b6102c96104c53660046128c1565b611965565b6102686104d8366004612a16565b611a63565b60066020526000908152604090205481565b6011546001600160a01b031681565b600a60209081526000928352604080842090915290825290205481565b600b6020526000908152604090205481565b60076020908152600092835260408084209091529082529020546001600160a01b031681565b60155481565b600d546001600160a01b031633146105aa576040805162461bcd60e51b815260206004820152600f60248201526e4f6e6c7920476f7665726e616e636560881b604482015290519081900360640190fd5b6105b381611a7e565b50565b60165481565b600360008481526002602052604090205460ff1660058111156105db57fe5b146106175760405162461bcd60e51b8152600401808060200182810382526022815260200180612d746022913960400191505060405180910390fd5b60008381526009602090815260408083203384529091529020541580159061066157506106448282611ad1565b600084815260096020908152604080832033845290915290205410155b6106ab576040805162461bcd60e51b81526020600482015260166024820152752737ba1032b737bab3b4103a34b1b5b2ba39903bb7b760511b604482015290519081900360640190fd5b60008381526009602090815260408083203384529091529020546106db9082906106d59085611b34565b90611b34565b60008481526009602090815260408083203384529091529020556106fd611b76565b508115610766576000838152600a602090815260408083203384529091529020546107289083611ad1565b6000848152600a60209081526040808320338452825280832093909355600b905220546107559083611ad1565b336000908152600b60205260409020555b801561080a576000838152600460205260408120546107859083611ce7565b601054600086815260016020526040808220600301548151630df5808360e21b81526001600160a01b039182166004820152336024820152604481018690529151949550909216926337d6020c92606480820193929182900301818387803b1580156107f057600080fd5b505af1158015610804573d6000803e3d6000fd5b50505050505b6000838152600860209081526040808320338452909152902054156108325761083283611d40565b505050565b600860209081526000928352604080842090915290825290205481565b61085c611deb565b6001600160a01b031661086d611251565b6001600160a01b0316146108c8576040805162461bcd60e51b815260206004820181905260248201527f4f776e61626c653a2063616c6c6572206973206e6f7420746865206f776e6572604482015290519081900360640190fd5b6001600160a01b0385166108f75760405162461bcd60e51b81526004016108ee90612bc6565b60405180910390fd5b831580159061090557508215155b801561091057508115155b801561091b57508015155b6109375760405162461bcd60e51b81526004016108ee90612c08565b6011546001600160a01b0316158061094f5750601354155b8061095a5750601454155b806109655750601554155b806109705750601654155b61098c5760405162461bcd60e51b81526004016108ee90612b8f565b601180546001600160a01b0319166001600160a01b039690961695909517909455601392909255601455601555601655565b600d546001600160a01b031681565b60125481565b60016020818152600092835260409283902080548184015460028084015460038501546004860154600587015460068801546007890180548d516101009d8216159d909d02600019011696909604601f81018b90048b028c018b01909c528b8b52969a959993986001600160a01b0390931697919690959094919392830182828015610aa05780601f10610a7557610100808354040283529160200191610aa0565b820191906000526020600020905b815481529060010190602001808311610a8357829003601f168201915b5050505050908060080154905089565b600960209081526000928352604080842090915290825290205481565b600d546001600160a01b03163314610b1e576040805162461bcd60e51b815260206004820152600f60248201526e4f6e6c7920476f7665726e616e636560881b604482015290519081900360640190fd5b8015610b3257610b2d82611def565b610b3b565b610b3b82611f29565b5050565b60005481565b610b4d611deb565b6001600160a01b0316610b5e611251565b6001600160a01b031614610bb9576040805162461bcd60e51b815260206004820181905260248201527f4f776e61626c653a2063616c6c6572206973206e6f7420746865206f776e6572604482015290519081900360640190fd5b604b546040516000916001600160a01b0316907f8be0079c531659141344cd1fd0a4f28419497f9722a3daafe3b4186f6b6457e0908390a3604b80546001600160a01b0319169055565b610c0b61279a565b60008281526001602081815260408084206002808452828620546003808652848820548551610120810187528554815285890154818901528486015481880152918501546001600160a01b03908116606084015260048601546080840152600586015460a0840152600686015460c084015260078601805488516101009b8216159b909b02600019011695909504601f810189900489028a0189019097528689528998959760ff909416969116949193879360e08601939290830182828015610d155780601f10610cea57610100808354040283529160200191610d15565b820191906000526020600020905b815481529060010190602001808311610cf857829003601f168201915b50505091835250506008919091015460209091015297919650945092505050565b600260008281526002602052604090205460ff166005811115610d5557fe5b14610d915760405162461bcd60e51b8152600401808060200182810382526025815260200180612e9f6025913960400191505060405180910390fd5b6000818152600860209081526040808320338452909152902054610de65760405162461bcd60e51b815260040180806020018281038252602c815260200180612d96602c913960400191505060405180910390fd5b6000818152600960209081526040808320338452909152902054610e0b906001611ad1565b60008281526009602090815260408083203380855290835281842094909455848352600882528083209383529290522054610e47906001611b34565b6000828152600860209081526040808320338452825280832093909355838252600590522054610e78906001611b34565b60008281526005602081815260408084208590556013546006835293205491905290918210610ed0576000838152600260209081526040808320805460ff191660031790556005909152812080549190559150610ef9565b600083815260056020526040902054610ee99083611b34565b6000848152600560205260409020555b8115610832576000610f0a82611ffa565b601754909150610f1b906001611ad1565b601755600084815260076020526040812081610f38846001611ad1565b81526020808201929092526040908101600090812054888252600884528282206001600160a01b0390911680835293522054909150156110105760008581526008602090815260408083206001600160a01b0385168452909152902054610fa0906001611b34565b60008681526008602090815260408083206001600160a01b03861680855290835281842094909455888352600982528083209383529290522054610fe5906001611ad1565b60008681526009602090815260408083206001600160a01b0386168452909152902055600019909301925b5050610ef9565b6000818152600160205260409020600881015460069091015411155b919050565b600160008381526002602052604090205460ff16600581111561105757fe5b146110935760405162461bcd60e51b8152600401808060200182810382526028815260200180612e776028913960400191505060405180910390fd5b600081116110d25760405162461bcd60e51b8152600401808060200182810382526025815260200180612e116025913960400191505060405180910390fd5b600e546010546012546001600160a01b03928316926323b872dd9233929116906110fd908690611ce7565b6040518463ffffffff1660e01b815260040180846001600160a01b03168152602001836001600160a01b031681526020018281526020019350505050602060405180830381600087803b15801561115357600080fd5b505af1158015611167573d6000803e3d6000fd5b505050506040513d602081101561117d57600080fd5b505060008281526001602052604090206008015461119b9082611ad1565b6000838152600160209081526040808320600890810194909455928152828220338352905220541515806111e75750600082815260096020908152604080832033845290915290205415155b1561122f5760008281526008602090815260408083203384529091529020546112109082611ad1565b6000838152600860209081526040808320338452909152902055610b3b565b610b3b828261204d565b60145481565b60046020526000908152604090205481565b604b546001600160a01b031690565b600f546001600160a01b031681565b60056020526000908152604090205481565b600e546001600160a01b031681565b60125461129e90839061223f565b1580156112c457506112c2836112bc84670de0b6b3a7640000611ce7565b9061223f565b155b6112ff5760405162461bcd60e51b8152600401808060200182810382526041815260200180612e366041913960600191505060405180910390fd5b61130b82858584612281565b601054604080516323b872dd60e01b81523360048201526001600160a01b039283166024820152604481018690529051918616916323b872dd916064808201926020929091908290030181600087803b15801561136757600080fd5b505af115801561137b573d6000803e3d6000fd5b505050506040513d602081101561139157600080fd5b5050600f546010546000805480825260016020526040808320600601548151639a477b2160e01b81526001600160a01b03958616600482015260248101919091526044810192909252519290931692639a477b21926064808301939282900301818387803b15801561140257600080fd5b505af1158015611416573d6000803e3d6000fd5b5050600080548152600160205260409020600601546114389250859150612399565b60008054815260046020819052604080832093909355600f54825484516313e3108160e01b81529283015292516001600160a01b03909316926313e310819260248084019391929182900301818387803b15801561149557600080fd5b505af11580156114a9573d6000803e3d6000fd5b5050600d546000805460408051631b4523e160e21b81526004810192909252516001600160a01b039093169450636d148f8493506024808201939182900301818387803b1580156114f957600080fd5b505af115801561150d573d6000803e3d6000fd5b50506000546040805186815290513394509192507f406da9bcf420df8b4fd38da9e6340f56b4e7c91aedba926dfe64c2057c713f9c919081900360200190a360005461155a906001611ad1565b60005550505050565b600c6020526000908152604090205481565b600360008381526002602052604090205460ff16600581111561159457fe5b146115d05760405162461bcd60e51b8152600401808060200182810382526022815260200180612d746022913960400191505060405180910390fd5b6000811180156115f957506000828152600a602090815260408083203384529091529020548111155b61164a576040805162461bcd60e51b815260206004820152601e60248201527f4e6f7420656e6f756768207469636b65747320746f2077697468647261770000604482015290519081900360640190fd5b611652611b76565b506000828152600a602090815260408083203384529091529020546116779082611b34565b6000838152600a60209081526040808320338452825280832093909355600b905220546116a49082611b34565b336000908152600b602090815260408083209390935584825260049052908120546116cf9083611ce7565b601054600085815260016020526040808220600301548151630df5808360e21b81526001600160a01b039182166004820152336024820152604481018690529151949550909216926337d6020c92606480820193929182900301818387803b15801561173a57600080fd5b505af115801561174e573d6000803e3d6000fd5b50505050505050565b60026020526000908152604090205460ff1681565b60135481565b6010546001600160a01b031681565b600360008281526002602052604090205460ff1660058111156117a057fe5b146117dc5760405162461bcd60e51b8152600401808060200182810382526022815260200180612d746022913960400191505060405180910390fd5b6000818152600860209081526040808320338452909152902054611847576040805162461bcd60e51b815260206004820152601e60248201527f4e6f206e6f6e2d776f6e207469636b65747320746f2077697468647261770000604482015290519081900360640190fd5b6105b381611d40565b611858611deb565b6001600160a01b0316611869611251565b6001600160a01b0316146118c4576040805162461bcd60e51b815260206004820181905260248201527f4f776e61626c653a2063616c6c6572206973206e6f7420746865206f776e6572604482015290519081900360640190fd5b6001600160a01b0381166119095760405162461bcd60e51b8152600401808060200182810382526026815260200180612d4e6026913960400191505060405180910390fd5b604b546040516001600160a01b038084169216907f8be0079c531659141344cd1fd0a4f28419497f9722a3daafe3b4186f6b6457e090600090a3604b80546001600160a01b0319166001600160a01b0392909216919091179055565b601854610100900460ff168061197e575061197e6123db565b8061198c575060185460ff16155b6119c75760405162461bcd60e51b815260040180806020018281038252602e815260200180612dc2602e913960400191505060405180910390fd5b601854610100900460ff161580156119f2576018805460ff1961ff0019909116610100171660011790555b6119fa6123ec565b601080546001600160a01b038089166001600160a01b0319928316179092556012849055600d8054888416908316179055600e8054878416908316179055600f8054928616929091169190911790558015611a5b576018805461ff00191690555b505050505050565b6003602052600090815260409020546001600160a01b031681565b6000818152600260208181526040808420805460ff1916841790556001909152808320429201919091555182917f34d5588a0016201fa2cc3dc31d3b2a4a3b2e58ddcb8c8ea415bd6e37de2d561f91a250565b600082820183811015611b2b576040805162461bcd60e51b815260206004820152601b60248201527f536166654d6174683a206164646974696f6e206f766572666c6f770000000000604482015290519081900360640190fd5b90505b92915050565b6000611b2b83836040518060400160405280601e81526020017f536166654d6174683a207375627472616374696f6e206f766572666c6f77000081525061249d565b336000908152600b602052604081205415611c6b57601554336000908152600c60205260408120549091611bc991611bc390670de0b6b3a764000090611bbd904390611b34565b90611ce7565b90612399565b336000908152600b602052604081205491925090611be8908390611ce7565b6010546040805163d017797960e01b81523360048201526024810184905290519293506001600160a01b039091169163d01779799160448082019260009290919082900301818387803b158015611c3e57600080fd5b505af1158015611c52573d6000803e3d6000fd5b5050336000908152600c60205260409020439055505050505b601154604080516370a0823160e01b815233600482015290516001600160a01b03909216916370a0823191602480820192602092909190829003018186803b158015611cb657600080fd5b505afa158015611cca573d6000803e3d6000fd5b505050506040513d6020811015611ce057600080fd5b5051905090565b600082611cf657506000611b2e565b82820282848281611d0357fe5b0414611b2b5760405162461bcd60e51b8152600401808060200182810382526021815260200180612df06021913960400191505060405180910390fd5b60125460008281526008602090815260408083203384529091528120549091611d699190611ce7565b600083815260086020908152604080832033808552925280832083905560105481516367cb741f60e11b815260048101939093526024830185905290519394506001600160a01b03169263cf96e83e9260448084019391929182900301818387803b158015611dd757600080fd5b505af1158015611a5b573d6000803e3d6000fd5b3390565b6000818152600260209081526040808320805460ff19166001908117909155918290529182902042910155600f5490516397107c3360e01b81526001600160a01b03909116906397107c3390611e49908490600401612ce6565b600060405180830381600087803b158015611e6357600080fd5b505af1158015611e77573d6000803e3d6000fd5b50505060008281526001602090815260408083206006015460059092529182902055600d549051633e0c10a760e01b81526001600160a01b039091169150633e0c10a790611ec9908490600401612ce6565b600060405180830381600087803b158015611ee357600080fd5b505af1158015611ef7573d6000803e3d6000fd5b50506040518392507f5ae704dde19e39d10aae00c4c4668b6bb44ec098d75fb14c7904ceb9cc949af39150600090a250565b6000818152600260209081526040808320805460ff1916600517905560105460018084528285206003808201549086529584902054919094526004938401549251630df5808360e21b81526001600160a01b03928316956337d6020c95611f9a959185169490931692909101612b52565b600060405180830381600087803b158015611fb457600080fd5b505af1158015611fc8573d6000803e3d6000fd5b50506040518392507f3161cd7c7512a468e9dd38f24011e878656898bad733a1c0a9930ef73f0d18d19150600090a250565b60175460408051446020808301919091524282840152606080830194909452434060808301523390931b60a08201528151609481830301815260b49091019091528051910120600090611b2e908361223f565b6000612057611b76565b905060006120706014548361239990919063ffffffff16565b9050806120c4576040805162461bcd60e51b815260206004820181905260248201527f4e6f7420656c696769626c6520666f72206c6f7474657279206e756d62657273604482015290519081900360640190fd5b60006016548211156121015760006120e76016548461223f90919063ffffffff16565b6016549091506120fb90611bc38584611b34565b90925090505b8381111561210c5750825b80156121905760008581526005602052604090205481111561214f57506000848152600560209081526040808320546002909252909120805460ff191660031790555b6000858152600960209081526040808320338452825280832084905587835260059091529020546121809082611b34565b6000868152600560205260409020555b61219a8482611b34565b600086815260086020908152604080832033845282528083209390935587825260069052908120546121cc9084611ad1565b600087815260066020526040812054919250906121ea906001611ad1565b90505b818111612225576000878152600760209081526040808320848452909152902080546001600160a01b031916331790556001016121ed565b506000958652600660205260409095209490945550505050565b6000611b2b83836040518060400160405280601881526020017f536166654d6174683a206d6f64756c6f206279207a65726f0000000000000000815250612534565b61228961279a565b60005481526001600160a01b03841660608201526080810183905260a0810185905260e081018290526012546122c0908690612399565b60c082019081526000805481526001602081815260409283902085518155818601519281019290925591840151600282015560608401516003820180546001600160a01b0319166001600160a01b039092169190911790556080840151600482015560a084015160058201559151600683015560e0830151805184939261234e9260078501929101906127ef565b5061010091909101516008909101555050600080548152600260209081526040808320805460ff19169055825483526003909152902080546001600160a01b03191633179055505050565b6000611b2b83836040518060400160405280601a81526020017f536166654d6174683a206469766973696f6e206279207a65726f000000000000815250612596565b60006123e6306125fb565b15905090565b601854610100900460ff168061240557506124056123db565b80612413575060185460ff16155b61244e5760405162461bcd60e51b815260040180806020018281038252602e815260200180612dc2602e913960400191505060405180910390fd5b601854610100900460ff16158015612479576018805460ff1961ff0019909116610100171660011790555b612481612601565b6124896126a1565b80156105b3576018805461ff001916905550565b6000818484111561252c5760405162461bcd60e51b81526004018080602001828103825283818151815260200191508051906020019080838360005b838110156124f15781810151838201526020016124d9565b50505050905090810190601f16801561251e5780820380516001836020036101000a031916815260200191505b509250505060405180910390fd5b505050900390565b600081836125835760405162461bcd60e51b81526020600482018181528351602484015283519092839260449091019190850190808383600083156124f15781810151838201526020016124d9565b5082848161258d57fe5b06949350505050565b600081836125e55760405162461bcd60e51b81526020600482018181528351602484015283519092839260449091019190850190808383600083156124f15781810151838201526020016124d9565b5060008385816125f157fe5b0495945050505050565b3b151590565b601854610100900460ff168061261a575061261a6123db565b80612628575060185460ff16155b6126635760405162461bcd60e51b815260040180806020018281038252602e815260200180612dc2602e913960400191505060405180910390fd5b601854610100900460ff16158015612489576018805460ff1961ff00199091166101001716600117905580156105b3576018805461ff001916905550565b601854610100900460ff16806126ba57506126ba6123db565b806126c8575060185460ff16155b6127035760405162461bcd60e51b815260040180806020018281038252602e815260200180612dc2602e913960400191505060405180910390fd5b601854610100900460ff1615801561272e576018805460ff1961ff0019909116610100171660011790555b6000612738611deb565b604b80546001600160a01b0319166001600160a01b038316908117909155604051919250906000907f8be0079c531659141344cd1fd0a4f28419497f9722a3daafe3b4186f6b6457e0908290a35080156105b3576018805461ff001916905550565b60405180610120016040528060008152602001600081526020016000815260200160006001600160a01b0316815260200160008152602001600081526020016000815260200160608152602001600081525090565b828054600181600116156101000203166002900490600052602060002090601f016020900481019282612825576000855561286b565b82601f1061283e57805160ff191683800117855561286b565b8280016001018555821561286b579182015b8281111561286b578251825591602001919060010190612850565b5061287792915061287b565b5090565b5b80821115612877576000815560010161287c565b80356001600160a01b038116811461103357600080fd5b6000602082840312156128b8578081fd5b611b2b82612890565b600080600080600060a086880312156128d8578081fd5b6128e186612890565b94506128ef60208701612890565b93506128fd60408701612890565b925061290b60608701612890565b949793965091946080013592915050565b60008060008060808587031215612931578384fd5b61293a85612890565b9350602080860135935060408601359250606086013567ffffffffffffffff80821115612965578384fd5b818801915088601f830112612978578384fd5b81358181111561298457fe5b604051601f8201601f19168101850183811182821017156129a157fe5b60405281815283820185018b10156129b7578586fd5b81858501868301379081019093019390935250939692955090935050565b600080600080600060a086880312156129ec578081fd5b6129f586612890565b97602087013597506040870135966060810135965060800135945092505050565b600060208284031215612a27578081fd5b5035919050565b60008060408385031215612a40578182fd5b82359150612a5060208401612890565b90509250929050565b60008060408385031215612a6b578182fd5b8235915060208301358015158114612a81578182fd5b809150509250929050565b60008060408385031215612a9e578182fd5b50508035926020909101359150565b600080600060608486031215612ac1578283fd5b505081359360208301359350604090920135919050565b6001600160a01b03169052565b60068110612aef57fe5b9052565b60008151808452815b81811015612b1857602081850181015186830182015201612afc565b81811115612b295782602083870101525b50601f01601f19169290920160200192915050565b6001600160a01b0391909116815260200190565b6001600160a01b039384168152919092166020820152604081019190915260600190565b901515815260200190565b60208101611b2e8284612ae5565b6020808252601d908201527f43616e6e6f7420696e697469616c697a65207365636f6e642074696d65000000604082015260600190565b60208082526022908201527f43616e6e6f7420696e697469616c697a65207769746820302061646472657373604082015261657360f01b606082015260800190565b6020808252601f908201527f43616e6e6f7420696e697469616c697a65207769746820302076616c75657300604082015260600190565b6000606082528451606083015260208501516080830152604085015160a08301526060850151612c7260c0840182612ad8565b50608085015160e083015260a0850151610100818185015260c08701519150610120828186015260e088015192508061014086015250612cb6610180850183612af3565b908701516101608501529150612cd190506020830185612ae5565b612cde6040830184612ad8565b949350505050565b90815260200190565b60006101208b83528a602084015289604084015260018060a01b03891660608401528760808401528660a08401528560c08401528060e0840152612d3581840186612af3565b915050826101008301529a995050505050505050505056fe4f776e61626c653a206e6577206f776e657220697320746865207a65726f206164647265737343616e207769746864726177206f6e6c7920696e20536574746c656420737461746543616e2072756e206c6f7474657279206f6e6c79206966206861732072656d61696e696e67207469636b6574496e697469616c697a61626c653a20636f6e747261637420697320616c726561647920696e697469616c697a6564536166654d6174683a206d756c7469706c69636174696f6e206f766572666c6f7743616e6e6f742073686f7720696e74657265737420666f72203020706172746974696f6e73546f6b656e20616d6f756e7420616e642070726963652073686f756c6420726573756c7420696e20696e746567657220616d6f756e74206f66207469636b65747343616e2073686f7720696e746572657374206f6e6c7920696e20417070726f76656420737461746543616e2072756e206c6f7474657279206f6e6c7920696e2053746172746564207374617465a2646970667358221220e7570d2f7a0c3e8d3e1a4cf66d3a6335e79054d3b80fe7410b1962bf8fb2094464736f6c63430007060033",
  "devdoc": {
    "details": "Extends Initializable, Investment, OwnableUpgradeable",
    "kind": "dev",
    "methods": {
      "decideForInvestment(uint256,bool)": {
        "details": "This function is called by governance to approve or reject a investment request.",
        "params": {
          "decision": "The decision of the governance. [true -> approved] [false -> rejected]",
          "investmentId": "The id of the investment."
        }
      },
      "executeLotteryRun(uint256)": {
        "details": "This function is called by any investor interested in a project to run part of the lottery.requires Started state and available tickets",
        "params": {
          "investmentId": "The id of the investment."
        }
      },
      "getInvestmentMetadata(uint256)": {
        "details": "This helper function provides a single point for querying the Investment metadatareturns Investment Details, Investment Status, Investment Seeker Address and Repayment Batch Type",
        "params": {
          "investmentId": "The id of the investment."
        }
      },
      "getRequestingInterestStatus(uint256)": {
        "details": "Returns true if investors have shown interest for equal or more than the total tickets.",
        "params": {
          "investmentId": "The id of the investment type to be checked."
        }
      },
      "initialize(address,address,address,address,uint256)": {
        "details": "Constructor of the contract.",
        "params": {
          "baseAmountForEachPartition_": "The base amount for each partition",
          "escrowAddress": "address of the escrow contract",
          "fundingNFT_": "address of the Funding NFT",
          "governanceAddress_": "address of the DAO contract",
          "lendingToken_": "address of the Lending Token"
        }
      },
      "initializeInvestment(address,uint256,uint256,uint256,uint256)": {
        "details": "This function is called by the owner to initialize the investment type.",
        "params": {
          "blocksLockedForReputation_": "The amount of blocks needed for a ticket to be locked,        so as investor to get 1 rALBT for locking it.",
          "rAlbtPerLotteryNumber_": "The amount of rALBT needed to allocate one lucky number.",
          "reputationalAlbt": "The address of the rALBT contract.",
          "totalTicketsPerRun_": "The amount of tickets that will be provided from each run of the lottery."
        }
      },
      "owner()": {
        "details": "Returns the address of the current owner."
      },
      "renounceOwnership()": {
        "details": "Leaves the contract without owner. It will not be possible to call `onlyOwner` functions anymore. Can only be called by the current owner. NOTE: Renouncing ownership will leave the contract without an owner, thereby removing any functionality that is only available to the owner."
      },
      "requestInvestment(address,uint256,uint256,string)": {
        "details": "This function is used for projects to request investment in exchange for project tokens.require valid amount",
        "params": {
          "amountOfInvestmentTokens": "The amount of investment tokens to be purchased.",
          "extraInfo": "The ipfs hash where more specific details for investment request are stored.",
          "investmentToken": "The token that will be purchased by investors.",
          "totalAmountRequested_": "The total amount requested so as all investment tokens to be sold."
        }
      },
      "showInterestForInvestment(uint256,uint256)": {
        "details": "This function is called by the investors who are interested to invest in a specific project.require Approval state and valid partition",
        "params": {
          "amountOfPartitions": "The amount of partitions this specific investor wanna invest in.",
          "investmentId": "The id of the investment."
        }
      },
      "startLotteryPhase(uint256)": {
        "details": "This function is called by governance to start the lottery phase for an investment.",
        "params": {
          "investmentId": "The id of the investment."
        }
      },
      "transferOwnership(address)": {
        "details": "Transfers ownership of the contract to a new account (`newOwner`). Can only be called by the current owner."
      },
      "withdrawAmountProvidedForNonWonTickets(uint256)": {
        "details": "This function is called by an investor to withdraw lending tokens provided for non-won tickets.",
        "params": {
          "investmentId": "The id of the investment."
        }
      },
      "withdrawInvestmentTickets(uint256,uint256,uint256)": {
        "details": "This function is called by an investor to withdraw his tickets.require Settled state and enough tickets won",
        "params": {
          "investmentId": "The id of the investment.",
          "ticketsToLock": "The amount of won tickets to be locked, so as to get more rALBT.",
          "ticketsToWithdraw": "The amount of won tickets to be withdrawn instantly."
        }
      },
      "withdrawLockedInvestmentTickets(uint256,uint256)": {
        "details": "This function is called by an investor to withdraw his locked tickets.requires Settled state and available tickets.",
        "params": {
          "investmentId": "The id of the investment.",
          "ticketsToWithdraw": "The amount of locked tickets to be withdrawn."
        }
      }
    },
    "title": "AllianceBlock Registry contract",
    "version": 1
  },
  "userdoc": {
    "kind": "user",
    "methods": {
      "decideForInvestment(uint256,bool)": {
        "notice": "Decide For Investment"
      },
      "executeLotteryRun(uint256)": {
        "notice": "Executes lottery run"
      },
      "getInvestmentMetadata(uint256)": {
        "notice": "Get Investment Metadata"
      },
      "getRequestingInterestStatus(uint256)": {
        "notice": "Gets Requesting status"
      },
      "initialize(address,address,address,address,uint256)": {
        "notice": "Initialize"
      },
      "initializeInvestment(address,uint256,uint256,uint256,uint256)": {
        "notice": "Initialize Investment"
      },
      "requestInvestment(address,uint256,uint256,string)": {
        "notice": "Requests investment"
      },
      "showInterestForInvestment(uint256,uint256)": {
        "notice": "user show interest for investment"
      },
      "startLotteryPhase(uint256)": {
        "notice": "Start Lottery Phase"
      },
      "withdrawInvestmentTickets(uint256,uint256,uint256)": {
        "notice": "Withdraw Investment Tickets"
      },
      "withdrawLockedInvestmentTickets(uint256,uint256)": {
        "notice": "Withdraw locked investment ticket."
      }
    },
    "notice": "Responsible for investment transactions.",
    "version": 1
  },
  "storageLayout": {
    "storage": [
      {
        "astId": 11408,
        "contract": "contracts/Registry.sol:Registry",
        "label": "totalInvestments",
        "offset": 0,
        "slot": "0",
        "type": "t_uint256"
      },
      {
        "astId": 11412,
        "contract": "contracts/Registry.sol:Registry",
        "label": "investmentDetails",
        "offset": 0,
        "slot": "1",
        "type": "t_mapping(t_uint256,t_struct(InvestmentDetails)8807_storage)"
      },
      {
        "astId": 11416,
        "contract": "contracts/Registry.sol:Registry",
        "label": "investmentStatus",
        "offset": 0,
        "slot": "2",
        "type": "t_mapping(t_uint256,t_enum(InvestmentStatus)8788)"
      },
      {
        "astId": 11420,
        "contract": "contracts/Registry.sol:Registry",
        "label": "investmentSeeker",
        "offset": 0,
        "slot": "3",
        "type": "t_mapping(t_uint256,t_address)"
      },
      {
        "astId": 11424,
        "contract": "contracts/Registry.sol:Registry",
        "label": "investmentTokensPerTicket",
        "offset": 0,
        "slot": "4",
        "type": "t_mapping(t_uint256,t_uint256)"
      },
      {
        "astId": 11428,
        "contract": "contracts/Registry.sol:Registry",
        "label": "ticketsRemaining",
        "offset": 0,
        "slot": "5",
        "type": "t_mapping(t_uint256,t_uint256)"
      },
      {
        "astId": 11432,
        "contract": "contracts/Registry.sol:Registry",
        "label": "totalLotteryNumbersPerInvestment",
        "offset": 0,
        "slot": "6",
        "type": "t_mapping(t_uint256,t_uint256)"
      },
      {
        "astId": 11438,
        "contract": "contracts/Registry.sol:Registry",
        "label": "addressOfLotteryNumber",
        "offset": 0,
        "slot": "7",
        "type": "t_mapping(t_uint256,t_mapping(t_uint256,t_address))"
      },
      {
        "astId": 11444,
        "contract": "contracts/Registry.sol:Registry",
        "label": "remainingTicketsPerAddress",
        "offset": 0,
        "slot": "8",
        "type": "t_mapping(t_uint256,t_mapping(t_address,t_uint256))"
      },
      {
        "astId": 11450,
        "contract": "contracts/Registry.sol:Registry",
        "label": "ticketsWonPerAddress",
        "offset": 0,
        "slot": "9",
        "type": "t_mapping(t_uint256,t_mapping(t_address,t_uint256))"
      },
      {
        "astId": 11456,
        "contract": "contracts/Registry.sol:Registry",
        "label": "lockedTicketsForSpecificInvestmentPerAddress",
        "offset": 0,
        "slot": "10",
        "type": "t_mapping(t_uint256,t_mapping(t_address,t_uint256))"
      },
      {
        "astId": 11460,
        "contract": "contracts/Registry.sol:Registry",
        "label": "lockedTicketsPerAddress",
        "offset": 0,
        "slot": "11",
        "type": "t_mapping(t_address,t_uint256)"
      },
      {
        "astId": 11464,
        "contract": "contracts/Registry.sol:Registry",
        "label": "lastBlockCheckedForLockedTicketsPerAddress",
        "offset": 0,
        "slot": "12",
        "type": "t_mapping(t_address,t_uint256)"
      },
      {
        "astId": 11466,
        "contract": "contracts/Registry.sol:Registry",
        "label": "governance",
        "offset": 0,
        "slot": "13",
        "type": "t_contract(IGovernance)8291"
      },
      {
        "astId": 11468,
        "contract": "contracts/Registry.sol:Registry",
        "label": "lendingToken",
        "offset": 0,
        "slot": "14",
        "type": "t_contract(IERC20)4574"
      },
      {
        "astId": 11470,
        "contract": "contracts/Registry.sol:Registry",
        "label": "fundingNFT",
        "offset": 0,
        "slot": "15",
        "type": "t_contract(IERC1155Mint)8209"
      },
      {
        "astId": 11472,
        "contract": "contracts/Registry.sol:Registry",
        "label": "escrow",
        "offset": 0,
        "slot": "16",
        "type": "t_contract(IEscrow)8277"
      },
      {
        "astId": 11474,
        "contract": "contracts/Registry.sol:Registry",
        "label": "rALBT",
        "offset": 0,
        "slot": "17",
        "type": "t_contract(IERC20)4574"
      },
      {
        "astId": 11476,
        "contract": "contracts/Registry.sol:Registry",
        "label": "baseAmountForEachPartition",
        "offset": 0,
        "slot": "18",
        "type": "t_uint256"
      },
      {
        "astId": 11478,
        "contract": "contracts/Registry.sol:Registry",
        "label": "totalTicketsPerRun",
        "offset": 0,
        "slot": "19",
        "type": "t_uint256"
      },
      {
        "astId": 11480,
        "contract": "contracts/Registry.sol:Registry",
        "label": "rAlbtPerLotteryNumber",
        "offset": 0,
        "slot": "20",
        "type": "t_uint256"
      },
      {
        "astId": 11482,
        "contract": "contracts/Registry.sol:Registry",
        "label": "blocksLockedForReputation",
        "offset": 0,
        "slot": "21",
        "type": "t_uint256"
      },
      {
        "astId": 11484,
        "contract": "contracts/Registry.sol:Registry",
        "label": "lotteryNumbersForImmediateTicket",
        "offset": 0,
        "slot": "22",
        "type": "t_uint256"
      },
      {
        "astId": 11486,
        "contract": "contracts/Registry.sol:Registry",
        "label": "lotteryNonce",
        "offset": 0,
        "slot": "23",
        "type": "t_uint256"
      },
      {
        "astId": 890,
        "contract": "contracts/Registry.sol:Registry",
        "label": "_initialized",
        "offset": 0,
        "slot": "24",
        "type": "t_bool"
      },
      {
        "astId": 893,
        "contract": "contracts/Registry.sol:Registry",
        "label": "_initializing",
        "offset": 1,
        "slot": "24",
        "type": "t_bool"
      },
      {
        "astId": 2584,
        "contract": "contracts/Registry.sol:Registry",
        "label": "__gap",
        "offset": 0,
        "slot": "25",
        "type": "t_array(t_uint256)50_storage"
      },
      {
        "astId": 321,
        "contract": "contracts/Registry.sol:Registry",
        "label": "_owner",
        "offset": 0,
        "slot": "75",
        "type": "t_address"
      },
      {
        "astId": 440,
        "contract": "contracts/Registry.sol:Registry",
        "label": "__gap",
        "offset": 0,
        "slot": "76",
        "type": "t_array(t_uint256)49_storage"
      }
    ],
    "types": {
      "t_address": {
        "encoding": "inplace",
        "label": "address",
        "numberOfBytes": "20"
      },
      "t_array(t_uint256)49_storage": {
        "base": "t_uint256",
        "encoding": "inplace",
        "label": "uint256[49]",
        "numberOfBytes": "1568"
      },
      "t_array(t_uint256)50_storage": {
        "base": "t_uint256",
        "encoding": "inplace",
        "label": "uint256[50]",
        "numberOfBytes": "1600"
      },
      "t_bool": {
        "encoding": "inplace",
        "label": "bool",
        "numberOfBytes": "1"
      },
      "t_contract(IERC1155Mint)8209": {
        "encoding": "inplace",
        "label": "contract IERC1155Mint",
        "numberOfBytes": "20"
      },
      "t_contract(IERC20)4574": {
        "encoding": "inplace",
        "label": "contract IERC20",
        "numberOfBytes": "20"
      },
      "t_contract(IEscrow)8277": {
        "encoding": "inplace",
        "label": "contract IEscrow",
        "numberOfBytes": "20"
      },
      "t_contract(IGovernance)8291": {
        "encoding": "inplace",
        "label": "contract IGovernance",
        "numberOfBytes": "20"
      },
      "t_enum(InvestmentStatus)8788": {
        "encoding": "inplace",
        "label": "enum InvestmentLibrary.InvestmentStatus",
        "numberOfBytes": "1"
      },
      "t_mapping(t_address,t_uint256)": {
        "encoding": "mapping",
        "key": "t_address",
        "label": "mapping(address => uint256)",
        "numberOfBytes": "32",
        "value": "t_uint256"
      },
      "t_mapping(t_uint256,t_address)": {
        "encoding": "mapping",
        "key": "t_uint256",
        "label": "mapping(uint256 => address)",
        "numberOfBytes": "32",
        "value": "t_address"
      },
      "t_mapping(t_uint256,t_enum(InvestmentStatus)8788)": {
        "encoding": "mapping",
        "key": "t_uint256",
        "label": "mapping(uint256 => enum InvestmentLibrary.InvestmentStatus)",
        "numberOfBytes": "32",
        "value": "t_enum(InvestmentStatus)8788"
      },
      "t_mapping(t_uint256,t_mapping(t_address,t_uint256))": {
        "encoding": "mapping",
        "key": "t_uint256",
        "label": "mapping(uint256 => mapping(address => uint256))",
        "numberOfBytes": "32",
        "value": "t_mapping(t_address,t_uint256)"
      },
      "t_mapping(t_uint256,t_mapping(t_uint256,t_address))": {
        "encoding": "mapping",
        "key": "t_uint256",
        "label": "mapping(uint256 => mapping(uint256 => address))",
        "numberOfBytes": "32",
        "value": "t_mapping(t_uint256,t_address)"
      },
      "t_mapping(t_uint256,t_struct(InvestmentDetails)8807_storage)": {
        "encoding": "mapping",
        "key": "t_uint256",
        "label": "mapping(uint256 => struct InvestmentLibrary.InvestmentDetails)",
        "numberOfBytes": "32",
        "value": "t_struct(InvestmentDetails)8807_storage"
      },
      "t_mapping(t_uint256,t_uint256)": {
        "encoding": "mapping",
        "key": "t_uint256",
        "label": "mapping(uint256 => uint256)",
        "numberOfBytes": "32",
        "value": "t_uint256"
      },
      "t_string_storage": {
        "encoding": "bytes",
        "label": "string",
        "numberOfBytes": "32"
      },
      "t_struct(InvestmentDetails)8807_storage": {
        "encoding": "inplace",
        "label": "struct InvestmentLibrary.InvestmentDetails",
        "members": [
          {
            "astId": 8790,
            "contract": "contracts/Registry.sol:Registry",
            "label": "investmentId",
            "offset": 0,
            "slot": "0",
            "type": "t_uint256"
          },
          {
            "astId": 8792,
            "contract": "contracts/Registry.sol:Registry",
            "label": "approvalDate",
            "offset": 0,
            "slot": "1",
            "type": "t_uint256"
          },
          {
            "astId": 8794,
            "contract": "contracts/Registry.sol:Registry",
            "label": "startingDate",
            "offset": 0,
            "slot": "2",
            "type": "t_uint256"
          },
          {
            "astId": 8796,
            "contract": "contracts/Registry.sol:Registry",
            "label": "projectToken",
            "offset": 0,
            "slot": "3",
            "type": "t_address"
          },
          {
            "astId": 8798,
            "contract": "contracts/Registry.sol:Registry",
            "label": "projectTokensAmount",
            "offset": 0,
            "slot": "4",
            "type": "t_uint256"
          },
          {
            "astId": 8800,
            "contract": "contracts/Registry.sol:Registry",
            "label": "totalAmountToBeRaised",
            "offset": 0,
            "slot": "5",
            "type": "t_uint256"
          },
          {
            "astId": 8802,
            "contract": "contracts/Registry.sol:Registry",
            "label": "totalPartitionsToBePurchased",
            "offset": 0,
            "slot": "6",
            "type": "t_uint256"
          },
          {
            "astId": 8804,
            "contract": "contracts/Registry.sol:Registry",
            "label": "extraInfo",
            "offset": 0,
            "slot": "7",
            "type": "t_string_storage"
          },
          {
            "astId": 8806,
            "contract": "contracts/Registry.sol:Registry",
            "label": "partitionsRequested",
            "offset": 0,
            "slot": "8",
            "type": "t_uint256"
          }
        ],
        "numberOfBytes": "288"
      },
      "t_uint256": {
        "encoding": "inplace",
        "label": "uint256",
        "numberOfBytes": "32"
      }
    }
  }
}