{
  "address": "0x2f38ac612caF250b95Ec9eccEC598cFdFE668378",
  "abi": [
    {
      "anonymous": false,
      "inputs": [
        {
          "indexed": true,
          "internalType": "address",
          "name": "previousOwner",
          "type": "address"
        },
        {
          "indexed": true,
          "internalType": "address",
          "name": "newOwner",
          "type": "address"
        }
      ],
      "name": "OwnershipTransferred",
      "type": "event"
    },
    {
      "anonymous": false,
      "inputs": [
        {
          "indexed": false,
          "internalType": "uint256",
          "name": "reward",
          "type": "uint256"
        }
      ],
      "name": "RewardAdded",
      "type": "event"
    },
    {
      "anonymous": false,
      "inputs": [
        {
          "indexed": true,
          "internalType": "address",
          "name": "user",
          "type": "address"
        },
        {
          "indexed": false,
          "internalType": "uint256",
          "name": "reward",
          "type": "uint256"
        }
      ],
      "name": "RewardPaid",
      "type": "event"
    },
    {
      "anonymous": false,
      "inputs": [
        {
          "indexed": true,
          "internalType": "address",
          "name": "user",
          "type": "address"
        },
        {
          "indexed": false,
          "internalType": "uint256",
          "name": "amount",
          "type": "uint256"
        }
      ],
      "name": "Staked",
      "type": "event"
    },
    {
      "anonymous": false,
      "inputs": [
        {
          "indexed": true,
          "internalType": "address",
          "name": "user",
          "type": "address"
        },
        {
          "indexed": false,
          "internalType": "uint256",
          "name": "amount",
          "type": "uint256"
        }
      ],
      "name": "Withdrawn",
      "type": "event"
    },
    {
      "inputs": [],
      "name": "DURATION",
      "outputs": [
        {
          "internalType": "uint256",
          "name": "",
          "type": "uint256"
        }
      ],
      "stateMutability": "view",
      "type": "function"
    },
    {
      "inputs": [],
      "name": "albt",
      "outputs": [
        {
          "internalType": "contract IERC20",
          "name": "",
          "type": "address"
        }
      ],
      "stateMutability": "view",
      "type": "function"
    },
    {
      "inputs": [
        {
          "internalType": "address",
          "name": "account",
          "type": "address"
        }
      ],
      "name": "balanceOf",
      "outputs": [
        {
          "internalType": "uint256",
          "name": "",
          "type": "uint256"
        }
      ],
      "stateMutability": "view",
      "type": "function"
    },
    {
      "inputs": [
        {
          "internalType": "address",
          "name": "account",
          "type": "address"
        }
      ],
      "name": "earned",
      "outputs": [
        {
          "internalType": "uint256",
          "name": "",
          "type": "uint256"
        }
      ],
      "stateMutability": "view",
      "type": "function"
    },
    {
      "inputs": [],
      "name": "exit",
      "outputs": [],
      "stateMutability": "nonpayable",
      "type": "function"
    },
    {
      "inputs": [
        {
          "internalType": "address",
          "name": "staker",
          "type": "address"
        }
      ],
      "name": "freeze",
      "outputs": [],
      "stateMutability": "nonpayable",
      "type": "function"
    },
    {
      "inputs": [
        {
          "internalType": "address",
          "name": "",
          "type": "address"
        }
      ],
      "name": "freezed",
      "outputs": [
        {
          "internalType": "bool",
          "name": "",
          "type": "bool"
        }
      ],
      "stateMutability": "view",
      "type": "function"
    },
    {
      "inputs": [],
      "name": "getReward",
      "outputs": [],
      "stateMutability": "nonpayable",
      "type": "function"
    },
    {
      "inputs": [],
      "name": "governance",
      "outputs": [
        {
          "internalType": "address",
          "name": "",
          "type": "address"
        }
      ],
      "stateMutability": "view",
      "type": "function"
    },
    {
      "inputs": [
        {
          "internalType": "contract IERC20",
          "name": "albt_",
          "type": "address"
        }
      ],
      "name": "initialize",
      "outputs": [],
      "stateMutability": "nonpayable",
      "type": "function"
    },
    {
      "inputs": [],
      "name": "lastTimeRewardApplicable",
      "outputs": [
        {
          "internalType": "uint256",
          "name": "",
          "type": "uint256"
        }
      ],
      "stateMutability": "view",
      "type": "function"
    },
    {
      "inputs": [],
      "name": "lastUpdateTime",
      "outputs": [
        {
          "internalType": "uint256",
          "name": "",
          "type": "uint256"
        }
      ],
      "stateMutability": "view",
      "type": "function"
    },
    {
      "inputs": [
        {
          "internalType": "uint256",
          "name": "reward",
          "type": "uint256"
        }
      ],
      "name": "notifyRewardAmount",
      "outputs": [],
      "stateMutability": "nonpayable",
      "type": "function"
    },
    {
      "inputs": [],
      "name": "owner",
      "outputs": [
        {
          "internalType": "address",
          "name": "",
          "type": "address"
        }
      ],
      "stateMutability": "view",
      "type": "function"
    },
    {
      "inputs": [],
      "name": "periodFinish",
      "outputs": [
        {
          "internalType": "uint256",
          "name": "",
          "type": "uint256"
        }
      ],
      "stateMutability": "view",
      "type": "function"
    },
    {
      "inputs": [],
      "name": "renounceOwnership",
      "outputs": [],
      "stateMutability": "nonpayable",
      "type": "function"
    },
    {
      "inputs": [],
      "name": "rewardDistribution",
      "outputs": [
        {
          "internalType": "address",
          "name": "",
          "type": "address"
        }
      ],
      "stateMutability": "view",
      "type": "function"
    },
    {
      "inputs": [],
      "name": "rewardPerToken",
      "outputs": [
        {
          "internalType": "uint256",
          "name": "",
          "type": "uint256"
        }
      ],
      "stateMutability": "view",
      "type": "function"
    },
    {
      "inputs": [],
      "name": "rewardPerTokenStored",
      "outputs": [
        {
          "internalType": "uint256",
          "name": "",
          "type": "uint256"
        }
      ],
      "stateMutability": "view",
      "type": "function"
    },
    {
      "inputs": [],
      "name": "rewardRate",
      "outputs": [
        {
          "internalType": "uint256",
          "name": "",
          "type": "uint256"
        }
      ],
      "stateMutability": "view",
      "type": "function"
    },
    {
      "inputs": [
        {
          "internalType": "address",
          "name": "",
          "type": "address"
        }
      ],
      "name": "rewards",
      "outputs": [
        {
          "internalType": "uint256",
          "name": "",
          "type": "uint256"
        }
      ],
      "stateMutability": "view",
      "type": "function"
    },
    {
      "inputs": [
        {
          "internalType": "address",
          "name": "_rewardDistribution",
          "type": "address"
        }
      ],
      "name": "setRewardDistribution",
      "outputs": [],
      "stateMutability": "nonpayable",
      "type": "function"
    },
    {
      "inputs": [
        {
          "internalType": "uint256",
          "name": "amount",
          "type": "uint256"
        }
      ],
      "name": "stake",
      "outputs": [],
      "stateMutability": "nonpayable",
      "type": "function"
    },
    {
      "inputs": [],
      "name": "totalSupply",
      "outputs": [
        {
          "internalType": "uint256",
          "name": "",
          "type": "uint256"
        }
      ],
      "stateMutability": "view",
      "type": "function"
    },
    {
      "inputs": [
        {
          "internalType": "address",
          "name": "newOwner",
          "type": "address"
        }
      ],
      "name": "transferOwnership",
      "outputs": [],
      "stateMutability": "nonpayable",
      "type": "function"
    },
    {
      "inputs": [
        {
          "internalType": "address",
          "name": "staker",
          "type": "address"
        }
      ],
      "name": "unfreeze",
      "outputs": [],
      "stateMutability": "nonpayable",
      "type": "function"
    },
    {
      "inputs": [
        {
          "internalType": "address",
          "name": "",
          "type": "address"
        }
      ],
      "name": "userRewardPerTokenPaid",
      "outputs": [
        {
          "internalType": "uint256",
          "name": "",
          "type": "uint256"
        }
      ],
      "stateMutability": "view",
      "type": "function"
    },
    {
      "inputs": [
        {
          "internalType": "uint256",
          "name": "amount",
          "type": "uint256"
        }
      ],
      "name": "withdraw",
      "outputs": [],
      "stateMutability": "nonpayable",
      "type": "function"
    }
  ],
  "transactionHash": "0xe3cbb24d0e421706489adb1ae96c405be755d7363626c46f903c688d24343409",
  "args": [],
  "solcInputHash": "b4749c3639c4ae9324add8ba059987d0",
  "bytecode": "0x608060405234801561001057600080fd5b50611814806100206000396000f3fe608060405234801561001057600080fd5b50600436106101c35760003560e01c8063715018a6116100f9578063c4d66de811610097578063df136d6511610071578063df136d6514610419578063e9fad8ee14610421578063ebe2b12b14610429578063f2fde38b14610431576101c3565b8063c4d66de8146103e3578063c8f33c9114610409578063cd3daf9d14610411576101c3565b80638b876347116100d35780638b876347146103725780638d1fdf2f146103985780638da5cb5b146103be578063a694fc3a146103c6576101c3565b8063715018a61461035a5780637b0a47ee1461036257806380faa57d1461036a576101c3565b80633c6b16ab1161016657806345c8b1a61161014057806345c8b1a6146102fe5780635aa6e6751461032457806363e803291461032c57806370a0823114610334576101c3565b80633c6b16ab1461029f5780633d18b912146102bc578063406f11f5146102c4576101c3565b8063101114cf116101a2578063101114cf1461024e57806318160ddd146102725780631be052891461027a5780632e1a7d4d14610282576101c3565b80628cc262146101c85780630700037d146102005780630d68b76114610226575b600080fd5b6101ee600480360360208110156101de57600080fd5b50356001600160a01b0316610457565b60408051918252519081900360200190f35b6101ee6004803603602081101561021657600080fd5b50356001600160a01b03166104c5565b61024c6004803603602081101561023c57600080fd5b50356001600160a01b03166104d7565b005b61025661056d565b604080516001600160a01b039092168252519081900360200190f35b6101ee61057c565b6101ee610583565b61024c6004803603602081101561029857600080fd5b503561058a565b61024c600480360360208110156102b557600080fd5b50356106c0565b61024c610822565b6102ea600480360360208110156102da57600080fd5b50356001600160a01b03166108f4565b604080519115158252519081900360200190f35b61024c6004803603602081101561031457600080fd5b50356001600160a01b0316610909565b61025661097b565b61025661098a565b6101ee6004803603602081101561034a57600080fd5b50356001600160a01b0316610999565b61024c6109b4565b6101ee610a72565b6101ee610a78565b6101ee6004803603602081101561038857600080fd5b50356001600160a01b0316610a8b565b61024c600480360360208110156103ae57600080fd5b50356001600160a01b0316610a9d565b610256610b12565b61024c600480360360208110156103dc57600080fd5b5035610b21565b61024c600480360360208110156103f957600080fd5b50356001600160a01b0316610c05565b6101ee610cd4565b6101ee610cda565b6101ee610d28565b61024c610d2e565b6101ee610d49565b61024c6004803603602081101561044757600080fd5b50356001600160a01b0316610d4f565b6001600160a01b0381166000908152606f6020908152604080832054606e9092528220546104bf91906104b990670de0b6b3a7640000906104b3906104a49061049e610cda565b90610e64565b6104ad88610999565b90610ec1565b90610f21565b90610f88565b92915050565b606f6020526000908152604090205481565b6104df610fe2565b6001600160a01b03166104f0610b12565b6001600160a01b03161461054b576040805162461bcd60e51b815260206004820181905260248201527f4f776e61626c653a2063616c6c6572206973206e6f7420746865206f776e6572604482015290519081900360640190fd5b607080546001600160a01b0319166001600160a01b0392909216919091179055565b6070546001600160a01b031681565b6067545b90565b6201518081565b33610593610cda565b606d5561059e610a78565b606c556001600160a01b038116156105e5576105b981610457565b6001600160a01b0382166000908152606f6020908152604080832093909355606d54606e909152919020555b3360009081526069602052604090205460ff16156106345760405162461bcd60e51b815260040180806020018281038252602d815260200180611767602d913960400191505060405180910390fd5b6000821161067d576040805162461bcd60e51b8152602060048201526011602482015270043616e6e6f74207769746864726177203607c1b604482015290519081900360640190fd5b61068682610fe6565b60408051838152905133917f7084f5476618d8e60b11ef0d7d3f06914655adb8793e28ff7f018d4c76d505d5919081900360200190a25050565b6070546001600160a01b03166106d4610fe2565b6001600160a01b0316146107195760405162461bcd60e51b81526004018080602001828103825260218152602001806117946021913960400191505060405180910390fd5b6000610723610cda565b606d5561072e610a78565b606c556001600160a01b038116156107755761074981610457565b6001600160a01b0382166000908152606f6020908152604080832093909355606d54606e909152919020555b606a5442106107935761078b8262015180610f21565b606b556107d5565b606a546000906107a39042610e64565b905060006107bc606b5483610ec190919063ffffffff16565b90506107cf620151806104b38684610f88565b606b5550505b42606c8190556107e89062015180610f88565b606a556040805183815290517fde88a922e0d3b88b24e9623efeb464919c6bf9f66857a65e2bfcf2ce87a9433d9181900360200190a15050565b3361082b610cda565b606d55610836610a78565b606c556001600160a01b0381161561087d5761085181610457565b6001600160a01b0382166000908152606f6020908152604080832093909355606d54606e909152919020555b600061088833610457565b905080156108f057336000818152606f60205260408120556065546108b9916001600160a01b0390911690836110a4565b60408051828152905133917fe2403640ba68fed3a2f88b7557551d1993f84b99bb10ff833f0cf8db0c5e0486919081900360200190a25b5050565b60696020526000908152604090205460ff1681565b6066546001600160a01b0316331461095a576040805162461bcd60e51b815260206004820152600f60248201526e4f6e6c7920476f7665726e616e636560881b604482015290519081900360640190fd5b6001600160a01b03166000908152606960205260409020805460ff19169055565b6066546001600160a01b031681565b6065546001600160a01b031681565b6001600160a01b031660009081526068602052604090205490565b6109bc610fe2565b6001600160a01b03166109cd610b12565b6001600160a01b031614610a28576040805162461bcd60e51b815260206004820181905260248201527f4f776e61626c653a2063616c6c6572206973206e6f7420746865206f776e6572604482015290519081900360640190fd5b6033546040516000916001600160a01b0316907f8be0079c531659141344cd1fd0a4f28419497f9722a3daafe3b4186f6b6457e0908390a3603380546001600160a01b0319169055565b606b5481565b6000610a8642606a546110f6565b905090565b606e6020526000908152604090205481565b6066546001600160a01b03163314610aee576040805162461bcd60e51b815260206004820152600f60248201526e4f6e6c7920476f7665726e616e636560881b604482015290519081900360640190fd5b6001600160a01b03166000908152606960205260409020805460ff19166001179055565b6033546001600160a01b031690565b33610b2a610cda565b606d55610b35610a78565b606c556001600160a01b03811615610b7c57610b5081610457565b6001600160a01b0382166000908152606f6020908152604080832093909355606d54606e909152919020555b60008211610bc2576040805162461bcd60e51b815260206004820152600e60248201526d043616e6e6f74207374616b6520360941b604482015290519081900360640190fd5b610bcb8261110c565b60408051838152905133917f9e71bc8eea02a63969f509818f2dafb9254532904319f9dbda79b67bd34a5f3d919081900360200190a25050565b600054610100900460ff1680610c1e5750610c1e6111a1565b80610c2c575060005460ff16155b610c675760405162461bcd60e51b815260040180806020018281038252602e815260200180611718602e913960400191505060405180910390fd5b600054610100900460ff16158015610c92576000805460ff1961ff0019909116610100171660011790555b610c9a6111b2565b606580546001600160a01b0319166001600160a01b0384161790556000606a819055606b5580156108f0576000805461ff00191690555050565b606c5481565b6000610ce461057c565b610cf15750606d54610580565b610a86610d1f610cff61057c565b6104b3670de0b6b3a76400006104ad606b546104ad606c5461049e610a78565b606d5490610f88565b606d5481565b610d3f610d3a33610999565b61058a565b610d47610822565b565b606a5481565b610d57610fe2565b6001600160a01b0316610d68610b12565b6001600160a01b031614610dc3576040805162461bcd60e51b815260206004820181905260248201527f4f776e61626c653a2063616c6c6572206973206e6f7420746865206f776e6572604482015290519081900360640190fd5b6001600160a01b038116610e085760405162461bcd60e51b81526004018080602001828103825260268152602001806116cc6026913960400191505060405180910390fd5b6033546040516001600160a01b038084169216907f8be0079c531659141344cd1fd0a4f28419497f9722a3daafe3b4186f6b6457e090600090a3603380546001600160a01b0319166001600160a01b0392909216919091179055565b600082821115610ebb576040805162461bcd60e51b815260206004820152601e60248201527f536166654d6174683a207375627472616374696f6e206f766572666c6f770000604482015290519081900360640190fd5b50900390565b600082610ed0575060006104bf565b82820282848281610edd57fe5b0414610f1a5760405162461bcd60e51b81526004018080602001828103825260218152602001806117466021913960400191505060405180910390fd5b9392505050565b6000808211610f77576040805162461bcd60e51b815260206004820152601a60248201527f536166654d6174683a206469766973696f6e206279207a65726f000000000000604482015290519081900360640190fd5b818381610f8057fe5b049392505050565b600082820183811015610f1a576040805162461bcd60e51b815260206004820152601b60248201527f536166654d6174683a206164646974696f6e206f766572666c6f770000000000604482015290519081900360640190fd5b3390565b606754610ff39082610e64565b606755336000908152606860205260409020546110109082610e64565b33600081815260686020908152604080832094909455606554845163a9059cbb60e01b815260048101949094526024840186905293516001600160a01b039094169363a9059cbb93604480820194918390030190829087803b15801561107557600080fd5b505af1158015611089573d6000803e3d6000fd5b505050506040513d602081101561109f57600080fd5b505050565b604080516001600160a01b038416602482015260448082018490528251808303909101815260649091019091526020810180516001600160e01b031663a9059cbb60e01b17905261109f908490611264565b60008183106111055781610f1a565b5090919050565b6067546111199082610f88565b606755336000908152606860205260409020546111369082610f88565b3360008181526068602090815260408083209490945560655484516323b872dd60e01b815260048101949094523060248501526044840186905293516001600160a01b03909416936323b872dd93606480820194918390030190829087803b15801561107557600080fd5b60006111ac30611315565b15905090565b600054610100900460ff16806111cb57506111cb6111a1565b806111d9575060005460ff16155b6112145760405162461bcd60e51b815260040180806020018281038252602e815260200180611718602e913960400191505060405180910390fd5b600054610100900460ff1615801561123f576000805460ff1961ff0019909116610100171660011790555b61124761131b565b61124f6113bb565b8015611261576000805461ff00191690555b50565b60606112b9826040518060400160405280602081526020017f5361666545524332303a206c6f772d6c6576656c2063616c6c206661696c6564815250856001600160a01b03166114b49092919063ffffffff16565b80519091501561109f578080602001905160208110156112d857600080fd5b505161109f5760405162461bcd60e51b815260040180806020018281038252602a8152602001806117b5602a913960400191505060405180910390fd5b3b151590565b600054610100900460ff168061133457506113346111a1565b80611342575060005460ff16155b61137d5760405162461bcd60e51b815260040180806020018281038252602e815260200180611718602e913960400191505060405180910390fd5b600054610100900460ff1615801561124f576000805460ff1961ff0019909116610100171660011790558015611261576000805461ff001916905550565b600054610100900460ff16806113d457506113d46111a1565b806113e2575060005460ff16155b61141d5760405162461bcd60e51b815260040180806020018281038252602e815260200180611718602e913960400191505060405180910390fd5b600054610100900460ff16158015611448576000805460ff1961ff0019909116610100171660011790555b6000611452610fe2565b603380546001600160a01b0319166001600160a01b038316908117909155604051919250906000907f8be0079c531659141344cd1fd0a4f28419497f9722a3daafe3b4186f6b6457e0908290a3508015611261576000805461ff001916905550565b60606114c384846000856114cb565b949350505050565b60608247101561150c5760405162461bcd60e51b81526004018080602001828103825260268152602001806116f26026913960400191505060405180910390fd5b61151585611315565b611566576040805162461bcd60e51b815260206004820152601d60248201527f416464726573733a2063616c6c20746f206e6f6e2d636f6e7472616374000000604482015290519081900360640190fd5b60006060866001600160a01b031685876040518082805190602001908083835b602083106115a55780518252601f199092019160209182019101611586565b6001836020036101000a03801982511681845116808217855250505050505090500191505060006040518083038185875af1925050503d8060008114611607576040519150601f19603f3d011682016040523d82523d6000602084013e61160c565b606091505b509150915061161c828286611627565b979650505050505050565b60608315611636575081610f1a565b8251156116465782518084602001fd5b8160405162461bcd60e51b81526004018080602001828103825283818151815260200191508051906020019080838360005b83811015611690578181015183820152602001611678565b50505050905090810190601f1680156116bd5780820380516001836020036101000a031916815260200191505b509250505060405180910390fdfe4f776e61626c653a206e6577206f776e657220697320746865207a65726f2061646472657373416464726573733a20696e73756666696369656e742062616c616e636520666f722063616c6c496e697469616c697a61626c653a20636f6e747261637420697320616c726561647920696e697469616c697a6564536166654d6174683a206d756c7469706c69636174696f6e206f766572666c6f7746756e6473206172652066726f7a656e202d20556e667265657a6520666972737420746f20776974686472617743616c6c6572206973206e6f742072657761726420646973747269627574696f6e5361666545524332303a204552433230206f7065726174696f6e20646964206e6f742073756363656564a2646970667358221220d43c07f6d27d5e2788455c9a257715c5c8151a1d2c7b0458dee2b6e33c04a3e364736f6c63430007030033",
  "devdoc": {
    "kind": "dev",
    "methods": {
      "owner()": {
        "details": "Returns the address of the current owner."
      },
      "renounceOwnership()": {
        "details": "Leaves the contract without owner. It will not be possible to call `onlyOwner` functions anymore. Can only be called by the current owner. NOTE: Renouncing ownership will leave the contract without an owner, thereby removing any functionality that is only available to the owner."
      },
      "transferOwnership(address)": {
        "details": "Transfers ownership of the contract to a new account (`newOwner`). Can only be called by the current owner."
      }
    },
    "version": 1
  },
  "userdoc": {
    "kind": "user",
    "methods": {},
    "version": 1
  },
  "storageLayout": {
    "storage": [
      {
        "astId": 890,
        "contract": "contracts/Staking.sol:Staking",
        "label": "_initialized",
        "offset": 0,
        "slot": "0",
        "type": "t_bool"
      },
      {
        "astId": 893,
        "contract": "contracts/Staking.sol:Staking",
        "label": "_initializing",
        "offset": 1,
        "slot": "0",
        "type": "t_bool"
      },
      {
        "astId": 3750,
        "contract": "contracts/Staking.sol:Staking",
        "label": "__gap",
        "offset": 0,
        "slot": "1",
        "type": "t_array(t_uint256)50_storage"
      },
      {
        "astId": 321,
        "contract": "contracts/Staking.sol:Staking",
        "label": "_owner",
        "offset": 0,
        "slot": "51",
        "type": "t_address"
      },
      {
        "astId": 440,
        "contract": "contracts/Staking.sol:Staking",
        "label": "__gap",
        "offset": 0,
        "slot": "52",
        "type": "t_array(t_uint256)49_storage"
      },
      {
        "astId": 9507,
        "contract": "contracts/Staking.sol:Staking",
        "label": "albt",
        "offset": 0,
        "slot": "101",
        "type": "t_contract(IERC20)6414"
      },
      {
        "astId": 9509,
        "contract": "contracts/Staking.sol:Staking",
        "label": "governance",
        "offset": 0,
        "slot": "102",
        "type": "t_address"
      },
      {
        "astId": 9511,
        "contract": "contracts/Staking.sol:Staking",
        "label": "_totalSupply",
        "offset": 0,
        "slot": "103",
        "type": "t_uint256"
      },
      {
        "astId": 9515,
        "contract": "contracts/Staking.sol:Staking",
        "label": "_balances",
        "offset": 0,
        "slot": "104",
        "type": "t_mapping(t_address,t_uint256)"
      },
      {
        "astId": 9519,
        "contract": "contracts/Staking.sol:Staking",
        "label": "freezed",
        "offset": 0,
        "slot": "105",
        "type": "t_mapping(t_address,t_bool)"
      },
      {
        "astId": 9629,
        "contract": "contracts/Staking.sol:Staking",
        "label": "periodFinish",
        "offset": 0,
        "slot": "106",
        "type": "t_uint256"
      },
      {
        "astId": 9631,
        "contract": "contracts/Staking.sol:Staking",
        "label": "rewardRate",
        "offset": 0,
        "slot": "107",
        "type": "t_uint256"
      },
      {
        "astId": 9633,
        "contract": "contracts/Staking.sol:Staking",
        "label": "lastUpdateTime",
        "offset": 0,
        "slot": "108",
        "type": "t_uint256"
      },
      {
        "astId": 9635,
        "contract": "contracts/Staking.sol:Staking",
        "label": "rewardPerTokenStored",
        "offset": 0,
        "slot": "109",
        "type": "t_uint256"
      },
      {
        "astId": 9639,
        "contract": "contracts/Staking.sol:Staking",
        "label": "userRewardPerTokenPaid",
        "offset": 0,
        "slot": "110",
        "type": "t_mapping(t_address,t_uint256)"
      },
      {
        "astId": 9643,
        "contract": "contracts/Staking.sol:Staking",
        "label": "rewards",
        "offset": 0,
        "slot": "111",
        "type": "t_mapping(t_address,t_uint256)"
      },
      {
        "astId": 9645,
        "contract": "contracts/Staking.sol:Staking",
        "label": "rewardDistribution",
        "offset": 0,
        "slot": "112",
        "type": "t_address"
      }
    ],
    "types": {
      "t_address": {
        "encoding": "inplace",
        "label": "address",
        "numberOfBytes": "20"
      },
      "t_array(t_uint256)49_storage": {
        "base": "t_uint256",
        "encoding": "inplace",
        "label": "uint256[49]",
        "numberOfBytes": "1568"
      },
      "t_array(t_uint256)50_storage": {
        "base": "t_uint256",
        "encoding": "inplace",
        "label": "uint256[50]",
        "numberOfBytes": "1600"
      },
      "t_bool": {
        "encoding": "inplace",
        "label": "bool",
        "numberOfBytes": "1"
      },
      "t_contract(IERC20)6414": {
        "encoding": "inplace",
        "label": "contract IERC20",
        "numberOfBytes": "20"
      },
      "t_mapping(t_address,t_bool)": {
        "encoding": "mapping",
        "key": "t_address",
        "label": "mapping(address => bool)",
        "numberOfBytes": "32",
        "value": "t_bool"
      },
      "t_mapping(t_address,t_uint256)": {
        "encoding": "mapping",
        "key": "t_address",
        "label": "mapping(address => uint256)",
        "numberOfBytes": "32",
        "value": "t_uint256"
      },
      "t_uint256": {
        "encoding": "inplace",
        "label": "uint256",
        "numberOfBytes": "32"
      }
    }
  }
}