{
  "address": "0xbaE279E8f0c6530Dad223A34C455A56b2830f879",
  "abi": [
    {
      "anonymous": false,
      "inputs": [
        {
          "indexed": true,
          "internalType": "address",
          "name": "previousOwner",
          "type": "address"
        },
        {
          "indexed": true,
          "internalType": "address",
          "name": "newOwner",
          "type": "address"
        }
      ],
      "name": "OwnershipTransferred",
      "type": "event"
    },
    {
      "anonymous": false,
      "inputs": [
        {
          "indexed": true,
          "internalType": "address",
          "name": "user",
          "type": "address"
        },
        {
          "indexed": false,
          "internalType": "uint256",
          "name": "amount",
          "type": "uint256"
        }
      ],
      "name": "Staked",
      "type": "event"
    },
    {
      "anonymous": false,
      "inputs": [
        {
          "indexed": true,
          "internalType": "address",
          "name": "user",
          "type": "address"
        },
        {
          "indexed": false,
          "internalType": "uint256",
          "name": "amount",
          "type": "uint256"
        }
      ],
      "name": "Withdrawn",
      "type": "event"
    },
    {
      "inputs": [],
      "name": "albt",
      "outputs": [
        {
          "internalType": "contract IERC20",
          "name": "",
          "type": "address"
        }
      ],
      "stateMutability": "view",
      "type": "function"
    },
    {
      "inputs": [
        {
          "internalType": "address",
          "name": "",
          "type": "address"
        }
      ],
      "name": "balance",
      "outputs": [
        {
          "internalType": "uint256",
          "name": "",
          "type": "uint256"
        }
      ],
      "stateMutability": "view",
      "type": "function"
    },
    {
      "inputs": [],
      "name": "escrow",
      "outputs": [
        {
          "internalType": "contract IEscrow",
          "name": "",
          "type": "address"
        }
      ],
      "stateMutability": "view",
      "type": "function"
    },
    {
      "inputs": [],
      "name": "exit",
      "outputs": [],
      "stateMutability": "nonpayable",
      "type": "function"
    },
    {
      "inputs": [],
      "name": "getAmountsToStake",
      "outputs": [
        {
          "internalType": "uint256",
          "name": "stakerLvl1Amount",
          "type": "uint256"
        },
        {
          "internalType": "uint256",
          "name": "stakerLvl2Amount",
          "type": "uint256"
        },
        {
          "internalType": "uint256",
          "name": "stakerLvl3Amount",
          "type": "uint256"
        }
      ],
      "stateMutability": "view",
      "type": "function"
    },
    {
      "inputs": [
        {
          "internalType": "address",
          "name": "staker_",
          "type": "address"
        }
      ],
      "name": "getBalance",
      "outputs": [
        {
          "internalType": "uint256",
          "name": "",
          "type": "uint256"
        }
      ],
      "stateMutability": "view",
      "type": "function"
    },
    {
      "inputs": [
        {
          "internalType": "address",
          "name": "albt_",
          "type": "address"
        },
        {
          "internalType": "address",
          "name": "escrow_",
          "type": "address"
        },
        {
          "internalType": "address",
          "name": "stakerMedalNFT_",
          "type": "address"
        },
        {
          "internalType": "uint256[]",
          "name": "stakingTypeAmounts_",
          "type": "uint256[]"
        },
        {
          "internalType": "uint256[]",
          "name": "reputationalStakingTypeAmounts_",
          "type": "uint256[]"
        }
      ],
      "name": "initialize",
      "outputs": [],
      "stateMutability": "nonpayable",
      "type": "function"
    },
    {
      "inputs": [],
      "name": "owner",
      "outputs": [
        {
          "internalType": "address",
          "name": "",
          "type": "address"
        }
      ],
      "stateMutability": "view",
      "type": "function"
    },
    {
      "inputs": [],
      "name": "renounceOwnership",
      "outputs": [],
      "stateMutability": "nonpayable",
      "type": "function"
    },
    {
      "inputs": [
        {
          "internalType": "uint256",
          "name": "",
          "type": "uint256"
        }
      ],
      "name": "reputationalStakingTypeAmounts",
      "outputs": [
        {
          "internalType": "uint256",
          "name": "",
          "type": "uint256"
        }
      ],
      "stateMutability": "view",
      "type": "function"
    },
    {
      "inputs": [
        {
          "internalType": "enum StakingTypesAndStorage.StakingType",
          "name": "stakingType",
          "type": "uint8"
        }
      ],
      "name": "stake",
      "outputs": [],
      "stateMutability": "nonpayable",
      "type": "function"
    },
    {
      "inputs": [],
      "name": "stakerMedalNFT",
      "outputs": [
        {
          "internalType": "contract IERC1155StakerNFT",
          "name": "",
          "type": "address"
        }
      ],
      "stateMutability": "view",
      "type": "function"
    },
    {
      "inputs": [
        {
          "internalType": "uint256",
          "name": "",
          "type": "uint256"
        }
      ],
      "name": "stakingTypeAmounts",
      "outputs": [
        {
          "internalType": "uint256",
          "name": "",
          "type": "uint256"
        }
      ],
      "stateMutability": "view",
      "type": "function"
    },
    {
      "inputs": [],
      "name": "totalSupply",
      "outputs": [
        {
          "internalType": "uint256",
          "name": "",
          "type": "uint256"
        }
      ],
      "stateMutability": "view",
      "type": "function"
    },
    {
      "inputs": [
        {
          "internalType": "address",
          "name": "newOwner",
          "type": "address"
        }
      ],
      "name": "transferOwnership",
      "outputs": [],
      "stateMutability": "nonpayable",
      "type": "function"
    },
    {
      "inputs": [
        {
          "internalType": "enum StakingTypesAndStorage.StakingType",
          "name": "stakingType",
          "type": "uint8"
        }
      ],
      "name": "unstake",
      "outputs": [],
      "stateMutability": "nonpayable",
      "type": "function"
    }
  ],
  "transactionHash": "0xe6ffb82d33b1ae2dc74e589caa47e81ad2028283450204c8ea746b5a7ca1325c",
  "args": [],
  "solcInputHash": "2655e296375c08ec2ee94c1a605dd52e",
  "bytecode": "0x608060405234801561001057600080fd5b50611a86806100206000396000f3fe608060405234801561001057600080fd5b50600436106101005760003560e01c8063b800361111610097578063e9fad8ee11610066578063e9fad8ee14610356578063f2fde38b1461035e578063f8b2cb4f14610384578063ffa3151f146103aa57610100565b8063b8003611146102fa578063db31af4514610302578063e2fdcc1714610328578063e3d670d71461033057610100565b8063715018a6116100d3578063715018a61461018257806387335c7d1461018a57806387a02172146102d25780638da5cb5b146102f257610100565b806318160ddd14610105578063604f21771461011f57806363e80329146101415780636c61d1cc14610165575b600080fd5b61010d6103c7565b60408051918252519081900360200190f35b61013f6004803603602081101561013557600080fd5b503560ff166103cd565b005b610149610597565b604080516001600160a01b039092168252519081900360200190f35b61010d6004803603602081101561017b57600080fd5b50356105a6565b61013f6105b8565b61013f600480360360a08110156101a057600080fd5b6001600160a01b03823581169260208101358216926040820135909216918101906080810160608201356401000000008111156101dc57600080fd5b8201836020820111156101ee57600080fd5b8035906020019184602083028401116401000000008311171561021057600080fd5b919080806020026020016040519081016040528093929190818152602001838360200280828437600092019190915250929594936020810193503591505064010000000081111561026057600080fd5b82018360208201111561027257600080fd5b8035906020019184602083028401116401000000008311171561029457600080fd5b919080806020026020016040519081016040528093929190818152602001838360200280828437600092019190915250929550610676945050505050565b61013f600480360360208110156102e857600080fd5b503560ff16610927565b610149610a7e565b610149610a8d565b61030a610a9c565b60408051938452602084019290925282820152519081900360600190f35b610149610b13565b61010d6004803603602081101561034657600080fd5b50356001600160a01b0316610b22565b61013f610b34565b61013f6004803603602081101561037457600080fd5b50356001600160a01b0316610bda565b61010d6004803603602081101561039a57600080fd5b50356001600160a01b0316610cef565b61010d600480360360208110156103c057600080fd5b5035610d0e565b60035481565b6002606c541415610425576040805162461bcd60e51b815260206004820152601f60248201527f5265656e7472616e637947756172643a207265656e7472616e742063616c6c00604482015290519081900360640190fd5b6002606c5580600381111561043657fe5b610487576040805162461bcd60e51b815260206004820152601a60248201527f43616e6e6f74207374616b6520666f722074797065207a65726f000000000000604482015290519081900360640190fd5b6005600082600381111561049757fe5b815260208082019290925260409081016000908120543382526004909352205410610509576040805162461bcd60e51b815260206004820181905260248201527f43616e6e6f74207374616b6520666f722073616d65207479706520616761696e604482015290519081900360640190fd5b60006005600083600381111561051b57fe5b8152602001908152602001600020549050600061053733610d20565b905061054f338285600381111561054a57fe5b610d72565b610565338285600381111561056057fe5b610e7d565b33600090815260046020526040812054610580908490610f75565b905061058c3382610fd7565b50506001606c555050565b6000546001600160a01b031681565b60066020526000908152604090205481565b6105c0611078565b6001600160a01b03166105d1610a7e565b6001600160a01b03161461062c576040805162461bcd60e51b815260206004820181905260248201527f4f776e61626c653a2063616c6c6572206973206e6f7420746865206f776e6572604482015290519081900360640190fd5b603a546040516000916001600160a01b0316907f8be0079c531659141344cd1fd0a4f28419497f9722a3daafe3b4186f6b6457e0908390a3603a80546001600160a01b0319169055565b600754610100900460ff168061068f575061068f61107c565b8061069d575060075460ff16155b6106d85760405162461bcd60e51b815260040180806020018281038252602e815260200180611948602e913960400191505060405180910390fd5b600754610100900460ff16158015610703576007805460ff1961ff0019909116610100171660011790555b6001600160a01b0386166107485760405162461bcd60e51b81526004018080602001828103825260258152602001806119ca6025913960400191505060405180910390fd5b6001600160a01b03851661078d5760405162461bcd60e51b81526004018080602001828103825260288152602001806119766028913960400191505060405180910390fd5b6001600160a01b0384166107d25760405162461bcd60e51b81526004018080602001828103825260308152602001806118cc6030913960400191505060405180910390fd5b825161080f5760405162461bcd60e51b815260040180806020018281038252602c81526020018061199e602c913960400191505060405180910390fd5b815161084c5760405162461bcd60e51b81526004018080602001828103825260388152602001806119ef6038913960400191505060405180910390fd5b61085461108d565b61085c61113f565b600080546001600160a01b038089166001600160a01b03199283161783556001805489831690841617905560028054918816919092161790555b83518110156108cf578381815181106108ab57fe5b60209081029190910181015160008381526005909252604090912055600101610896565b5060005b825181101561090c578281815181106108e857fe5b602090810291909101810151600083815260069092526040909120556001016108d3565b50801561091f576007805461ff00191690555b505050505050565b6002606c54141561097f576040805162461bcd60e51b815260206004820152601f60248201527f5265656e7472616e637947756172643a207265656e7472616e742063616c6c00604482015290519081900360640190fd5b6002606c556005600082600381111561099457fe5b815260208082019290925260409081016000908120543382526004909352205411610a06576040805162461bcd60e51b815260206004820152601c60248201527f43616e206f6e6c792064726f7020746f206c6f776572206c6576656c00000000604482015290519081900360640190fd5b6000610a1133610d20565b9050600060056000846003811115610a2557fe5b8152602001908152602001600020549050610a47338385600381111561054a57fe5b610a58338385600381111561056057fe5b33600090815260046020526040812054610a729083610f75565b905061058c33826111d4565b603a546001600160a01b031690565b6002546001600160a01b031681565b60056020527f1471eb6eb2c5e789fc3de43f8ce62938c7d1836ec861730447e2ada8fd81017b547f89832631fb3c3307a103ba2c84ab569c64d6182a18893dcd163f0f1c2090733a5460036000527fa9bc9a3a348c357ba16b37005d7e6b3236198c0e939f4af8c5f19b8deeb8ebc0549192909190565b6001546001600160a01b031681565b60046020526000908152604090205481565b6002606c541415610b8c576040805162461bcd60e51b815260206004820152601f60248201527f5265656e7472616e637947756172643a207265656e7472616e742063616c6c00604482015290519081900360640190fd5b6002606c556000610b9c33610d20565b9050610baa33826000610d72565b610bb633826000610e7d565b3360008181526004602052604090205490610bd190826111d4565b50506001606c55565b610be2611078565b6001600160a01b0316610bf3610a7e565b6001600160a01b031614610c4e576040805162461bcd60e51b815260206004820181905260248201527f4f776e61626c653a2063616c6c6572206973206e6f7420746865206f776e6572604482015290519081900360640190fd5b6001600160a01b038116610c935760405162461bcd60e51b81526004018080602001828103825260268152602001806118fc6026913960400191505060405180910390fd5b603a546040516001600160a01b038084169216907f8be0079c531659141344cd1fd0a4f28419497f9722a3daafe3b4186f6b6457e090600090a3603a80546001600160a01b0319166001600160a01b0392909216919091179055565b6001600160a01b0381166000908152600460205260409020545b919050565b60056020526000908152604090205481565b6000805b6004811015610d69576000818152600560209081526040808320546001600160a01b03871684526004909252909120541415610d61579050610d09565b600101610d24565b50600092915050565b80821015610dfb576000610d868284611275565b6001546040805163d017797960e01b81526001600160a01b03888116600483015260248201859052915193945091169163d01779799160448082019260009290919082900301818387803b158015610ddd57600080fd5b505af1158015610df1573d6000803e3d6000fd5b5050505050610e78565b6000610e078383611275565b60015460408051634e391f3d60e01b81526001600160a01b038881166004830152602482018590529151939450911691634e391f3d9160448082019260009290919082900301818387803b158015610e5e57600080fd5b505af1158015610e72573d6000803e3d6000fd5b50505050505b505050565b8015610ef157600254604080516340c10f1960e01b81526001600160a01b03868116600483015260248201859052915191909216916340c10f1991604480830192600092919082900301818387803b158015610ed857600080fd5b505af1158015610eec573d6000803e3d6000fd5b505050505b6000821180610efe575080155b15610e785760025460408051632770a7eb60e21b81526001600160a01b0386811660048301526024820186905291519190921691639dc29fac91604480830192600092919082900301818387803b158015610f5857600080fd5b505af1158015610f6c573d6000803e3d6000fd5b50505050505050565b600082821115610fcc576040805162461bcd60e51b815260206004820152601e60248201527f536166654d6174683a207375627472616374696f6e206f766572666c6f770000604482015290519081900360640190fd5b508082035b92915050565b600054610fef906001600160a01b03168330846112b7565b600354610ffc9082611317565b6003556001600160a01b0382166000908152600460205260409020546110229082611317565b6001600160a01b038316600081815260046020908152604091829020939093558051848152905191927f9e71bc8eea02a63969f509818f2dafb9254532904319f9dbda79b67bd34a5f3d92918290030190a25050565b3390565b600061108730611371565b15905090565b600754610100900460ff16806110a657506110a661107c565b806110b4575060075460ff16155b6110ef5760405162461bcd60e51b815260040180806020018281038252602e815260200180611948602e913960400191505060405180910390fd5b600754610100900460ff1615801561111a576007805460ff1961ff0019909116610100171660011790555b611122611377565b61112a611417565b801561113c576007805461ff00191690555b50565b600754610100900460ff1680611158575061115861107c565b80611166575060075460ff16155b6111a15760405162461bcd60e51b815260040180806020018281038252602e815260200180611948602e913960400191505060405180910390fd5b600754610100900460ff161580156111cc576007805460ff1961ff0019909116610100171660011790555b61112a611510565b6003546111e19082610f75565b6003556001600160a01b0382166000908152600460205260409020546112079082610f75565b6001600160a01b038084166000908152600460205260408120929092559054611232911683836115b6565b6040805182815290516001600160a01b038416917f7084f5476618d8e60b11ef0d7d3f06914655adb8793e28ff7f018d4c76d505d5919081900360200190a25050565b6000816112915750600082815260066020526040902054610fd1565b600082815260066020526040808220548583529120546112b091610f75565b9392505050565b604080516001600160a01b0380861660248301528416604482015260648082018490528251808303909101815260849091019091526020810180516001600160e01b03166323b872dd60e01b179052611311908590611604565b50505050565b6000828201838110156112b0576040805162461bcd60e51b815260206004820152601b60248201527f536166654d6174683a206164646974696f6e206f766572666c6f770000000000604482015290519081900360640190fd5b3b151590565b600754610100900460ff1680611390575061139061107c565b8061139e575060075460ff16155b6113d95760405162461bcd60e51b815260040180806020018281038252602e815260200180611948602e913960400191505060405180910390fd5b600754610100900460ff1615801561112a576007805460ff1961ff001990911661010017166001179055801561113c576007805461ff001916905550565b600754610100900460ff1680611430575061143061107c565b8061143e575060075460ff16155b6114795760405162461bcd60e51b815260040180806020018281038252602e815260200180611948602e913960400191505060405180910390fd5b600754610100900460ff161580156114a4576007805460ff1961ff0019909116610100171660011790555b60006114ae611078565b603a80546001600160a01b0319166001600160a01b038316908117909155604051919250906000907f8be0079c531659141344cd1fd0a4f28419497f9722a3daafe3b4186f6b6457e0908290a350801561113c576007805461ff001916905550565b600754610100900460ff1680611529575061152961107c565b80611537575060075460ff16155b6115725760405162461bcd60e51b815260040180806020018281038252602e815260200180611948602e913960400191505060405180910390fd5b600754610100900460ff1615801561159d576007805460ff1961ff0019909116610100171660011790555b6001606c55801561113c576007805461ff001916905550565b604080516001600160a01b038416602482015260448082018490528251808303909101815260649091019091526020810180516001600160e01b031663a9059cbb60e01b179052610e789084905b6000611659826040518060400160405280602081526020017f5361666545524332303a206c6f772d6c6576656c2063616c6c206661696c6564815250856001600160a01b03166116b59092919063ffffffff16565b805190915015610e785780806020019051602081101561167857600080fd5b5051610e785760405162461bcd60e51b815260040180806020018281038252602a815260200180611a27602a913960400191505060405180910390fd5b60606116c484846000856116cc565b949350505050565b60608247101561170d5760405162461bcd60e51b81526004018080602001828103825260268152602001806119226026913960400191505060405180910390fd5b61171685611371565b611767576040805162461bcd60e51b815260206004820152601d60248201527f416464726573733a2063616c6c20746f206e6f6e2d636f6e7472616374000000604482015290519081900360640190fd5b600080866001600160a01b031685876040518082805190602001908083835b602083106117a55780518252601f199092019160209182019101611786565b6001836020036101000a03801982511681845116808217855250505050505090500191505060006040518083038185875af1925050503d8060008114611807576040519150601f19603f3d011682016040523d82523d6000602084013e61180c565b606091505b509150915061181c828286611827565b979650505050505050565b606083156118365750816112b0565b8251156118465782518084602001fd5b8160405162461bcd60e51b81526004018080602001828103825283818151815260200191508051906020019080838360005b83811015611890578181015183820152602001611878565b50505050905090810190601f1680156118bd5780820380516001836020036101000a031916815260200191505b509250505060405180910390fdfe43616e6e6f7420696e697469616c697a65207374616b65724d6564616c4e46545f2077697468203020616464726573734f776e61626c653a206e6577206f776e657220697320746865207a65726f2061646472657373416464726573733a20696e73756666696369656e742062616c616e636520666f722063616c6c496e697469616c697a61626c653a20636f6e747261637420697320616c726561647920696e697469616c697a656443616e6e6f7420696e697469616c697a6520657363726f775f20776974682030206164647265737343616e6e6f7420696e697469616c697a65207374616b696e6754797065416d6f756e74735f2077697468203043616e6e6f7420696e697469616c697a6520616c627420776974682030206164647265737343616e6e6f7420696e697469616c697a652072657075746174696f6e616c5374616b696e6754797065416d6f756e74735f207769746820305361666545524332303a204552433230206f7065726174696f6e20646964206e6f742073756363656564a2646970667358221220eb675c2ce70168a0bbc0e74fce8d667efb67b83c6ebffa1a1454d82a8b04ac3264736f6c63430007060033",
  "devdoc": {
    "details": "Extends  Initializable, StakingDetails, OwnableUpgradeable",
    "kind": "dev",
    "methods": {
      "exit()": {
        "details": "msg.sender withdraws and exits"
      },
      "getAmountsToStake()": {
        "returns": {
          "stakerLvl1Amount": "Staker lvl 1 Amount",
          "stakerLvl2Amount": "Staker lvl 2 Amount",
          "stakerLvl3Amount": "Staker lvl 3 Amount"
        }
      },
      "getBalance(address)": {
        "details": "Retrieves the staked balance for a given user",
        "params": {
          "staker_": "the address of the staker"
        }
      },
      "initialize(address,address,address,uint256[],uint256[])": {
        "details": "Initialize of the contract.",
        "params": {
          "albt_": "the albt IERC20 token",
          "escrow_": "the escrow address",
          "reputationalStakingTypeAmounts_": "the array of Reputation Staking Type Amounts",
          "stakingTypeAmounts_": "the array of Staking Type Amounts"
        }
      },
      "owner()": {
        "details": "Returns the address of the current owner."
      },
      "renounceOwnership()": {
        "details": "Leaves the contract without owner. It will not be possible to call `onlyOwner` functions anymore. Can only be called by the current owner. NOTE: Renouncing ownership will leave the contract without an owner, thereby removing any functionality that is only available to the owner."
      },
      "stake(uint8)": {
        "details": "requires not Delegator and cannot repeat staking type",
        "params": {
          "stakingType": "The staking type"
        }
      },
      "transferOwnership(address)": {
        "details": "Transfers ownership of the contract to a new account (`newOwner`). Can only be called by the current owner."
      },
      "unstake(uint8)": {
        "details": "msg.sender withdraws till reaching stakingType",
        "params": {
          "stakingType": "The staking type to drop to"
        }
      }
    },
    "title": "AllianceBlock Staking contract",
    "version": 1
  },
  "userdoc": {
    "kind": "user",
    "methods": {
      "exit()": {
        "notice": "Exit"
      },
      "getAmountsToStake()": {
        "notice": "Get Amounts to Stake"
      },
      "getBalance(address)": {
        "notice": "Get Balance"
      },
      "initialize(address,address,address,uint256[],uint256[])": {
        "notice": "Initialize"
      },
      "stake(uint8)": {
        "notice": "Stake"
      },
      "unstake(uint8)": {
        "notice": "Unstake"
      }
    },
    "notice": "Responsible for ALBT Staking",
    "version": 1
  },
  "storageLayout": {
    "storage": [
      {
        "astId": 15995,
        "contract": "contracts/Staking.sol:Staking",
        "label": "albt",
        "offset": 0,
        "slot": "0",
        "type": "t_contract(IERC20)4769"
      },
      {
        "astId": 15997,
        "contract": "contracts/Staking.sol:Staking",
        "label": "escrow",
        "offset": 0,
        "slot": "1",
        "type": "t_contract(IEscrow)9553"
      },
      {
        "astId": 15999,
        "contract": "contracts/Staking.sol:Staking",
        "label": "stakerMedalNFT",
        "offset": 0,
        "slot": "2",
        "type": "t_contract(IERC1155StakerNFT)9381"
      },
      {
        "astId": 16001,
        "contract": "contracts/Staking.sol:Staking",
        "label": "totalSupply",
        "offset": 0,
        "slot": "3",
        "type": "t_uint256"
      },
      {
        "astId": 16005,
        "contract": "contracts/Staking.sol:Staking",
        "label": "balance",
        "offset": 0,
        "slot": "4",
        "type": "t_mapping(t_address,t_uint256)"
      },
      {
        "astId": 16009,
        "contract": "contracts/Staking.sol:Staking",
        "label": "stakingTypeAmounts",
        "offset": 0,
        "slot": "5",
        "type": "t_mapping(t_uint256,t_uint256)"
      },
      {
        "astId": 16013,
        "contract": "contracts/Staking.sol:Staking",
        "label": "reputationalStakingTypeAmounts",
        "offset": 0,
        "slot": "6",
        "type": "t_mapping(t_uint256,t_uint256)"
      },
      {
        "astId": 890,
        "contract": "contracts/Staking.sol:Staking",
        "label": "_initialized",
        "offset": 0,
        "slot": "7",
        "type": "t_bool"
      },
      {
        "astId": 893,
        "contract": "contracts/Staking.sol:Staking",
        "label": "_initializing",
        "offset": 1,
        "slot": "7",
        "type": "t_bool"
      },
      {
        "astId": 2584,
        "contract": "contracts/Staking.sol:Staking",
        "label": "__gap",
        "offset": 0,
        "slot": "8",
        "type": "t_array(t_uint256)50_storage"
      },
      {
        "astId": 321,
        "contract": "contracts/Staking.sol:Staking",
        "label": "_owner",
        "offset": 0,
        "slot": "58",
        "type": "t_address"
      },
      {
        "astId": 440,
        "contract": "contracts/Staking.sol:Staking",
        "label": "__gap",
        "offset": 0,
        "slot": "59",
        "type": "t_array(t_uint256)49_storage"
      },
      {
        "astId": 3091,
        "contract": "contracts/Staking.sol:Staking",
        "label": "_status",
        "offset": 0,
        "slot": "108",
        "type": "t_uint256"
      },
      {
        "astId": 3134,
        "contract": "contracts/Staking.sol:Staking",
        "label": "__gap",
        "offset": 0,
        "slot": "109",
        "type": "t_array(t_uint256)49_storage"
      }
    ],
    "types": {
      "t_address": {
        "encoding": "inplace",
        "label": "address",
        "numberOfBytes": "20"
      },
      "t_array(t_uint256)49_storage": {
        "base": "t_uint256",
        "encoding": "inplace",
        "label": "uint256[49]",
        "numberOfBytes": "1568"
      },
      "t_array(t_uint256)50_storage": {
        "base": "t_uint256",
        "encoding": "inplace",
        "label": "uint256[50]",
        "numberOfBytes": "1600"
      },
      "t_bool": {
        "encoding": "inplace",
        "label": "bool",
        "numberOfBytes": "1"
      },
      "t_contract(IERC1155StakerNFT)9381": {
        "encoding": "inplace",
        "label": "contract IERC1155StakerNFT",
        "numberOfBytes": "20"
      },
      "t_contract(IERC20)4769": {
        "encoding": "inplace",
        "label": "contract IERC20",
        "numberOfBytes": "20"
      },
      "t_contract(IEscrow)9553": {
        "encoding": "inplace",
        "label": "contract IEscrow",
        "numberOfBytes": "20"
      },
      "t_mapping(t_address,t_uint256)": {
        "encoding": "mapping",
        "key": "t_address",
        "label": "mapping(address => uint256)",
        "numberOfBytes": "32",
        "value": "t_uint256"
      },
      "t_mapping(t_uint256,t_uint256)": {
        "encoding": "mapping",
        "key": "t_uint256",
        "label": "mapping(uint256 => uint256)",
        "numberOfBytes": "32",
        "value": "t_uint256"
      },
      "t_uint256": {
        "encoding": "inplace",
        "label": "uint256",
        "numberOfBytes": "32"
      }
    }
  }
}