{
  "address": "0x772b615D062F2Fff3cED4C210B7c51a67BF3aC83",
  "abi": [
    {
      "anonymous": false,
      "inputs": [
        {
          "indexed": true,
          "internalType": "address",
          "name": "previousOwner",
          "type": "address"
        },
        {
          "indexed": true,
          "internalType": "address",
          "name": "newOwner",
          "type": "address"
        }
      ],
      "name": "OwnershipTransferred",
      "type": "event"
    },
    {
      "anonymous": false,
      "inputs": [
        {
          "indexed": true,
          "internalType": "address",
          "name": "user",
          "type": "address"
        },
        {
          "indexed": false,
          "internalType": "uint256",
          "name": "amount",
          "type": "uint256"
        }
      ],
      "name": "Staked",
      "type": "event"
    },
    {
      "anonymous": false,
      "inputs": [
        {
          "indexed": true,
          "internalType": "address",
          "name": "user",
          "type": "address"
        },
        {
          "indexed": false,
          "internalType": "uint256",
          "name": "amount",
          "type": "uint256"
        }
      ],
      "name": "Withdrawn",
      "type": "event"
    },
    {
      "inputs": [],
      "name": "albt",
      "outputs": [
        {
          "internalType": "contract IERC20",
          "name": "",
          "type": "address"
        }
      ],
      "stateMutability": "view",
      "type": "function"
    },
    {
      "inputs": [
        {
          "internalType": "address",
          "name": "",
          "type": "address"
        }
      ],
      "name": "balance",
      "outputs": [
        {
          "internalType": "uint256",
          "name": "",
          "type": "uint256"
        }
      ],
      "stateMutability": "view",
      "type": "function"
    },
    {
      "inputs": [],
      "name": "escrow",
      "outputs": [
        {
          "internalType": "contract IEscrow",
          "name": "",
          "type": "address"
        }
      ],
      "stateMutability": "view",
      "type": "function"
    },
    {
      "inputs": [],
      "name": "exit",
      "outputs": [],
      "stateMutability": "nonpayable",
      "type": "function"
    },
    {
      "inputs": [],
      "name": "getAmountsToStake",
      "outputs": [
        {
          "internalType": "uint256",
          "name": "stakerLvl1Amount",
          "type": "uint256"
        },
        {
          "internalType": "uint256",
          "name": "stakerLvl2Amount",
          "type": "uint256"
        },
        {
          "internalType": "uint256",
          "name": "stakerLvl3Amount",
          "type": "uint256"
        }
      ],
      "stateMutability": "view",
      "type": "function"
    },
    {
      "inputs": [
        {
          "internalType": "address",
          "name": "staker_",
          "type": "address"
        }
      ],
      "name": "getBalance",
      "outputs": [
        {
          "internalType": "uint256",
          "name": "",
          "type": "uint256"
        }
      ],
      "stateMutability": "view",
      "type": "function"
    },
    {
      "inputs": [
        {
          "internalType": "address",
          "name": "account",
          "type": "address"
        }
      ],
      "name": "getEligibilityForActionProvision",
      "outputs": [
        {
          "internalType": "bool",
          "name": "",
          "type": "bool"
        }
      ],
      "stateMutability": "view",
      "type": "function"
    },
    {
      "inputs": [
        {
          "internalType": "contract IERC20",
          "name": "albt_",
          "type": "address"
        },
        {
          "internalType": "address",
          "name": "escrow_",
          "type": "address"
        },
        {
          "internalType": "uint256[]",
          "name": "stakingTypeAmounts_",
          "type": "uint256[]"
        },
        {
          "internalType": "uint256[]",
          "name": "reputationalStakingTypeAmounts_",
          "type": "uint256[]"
        }
      ],
      "name": "initialize",
      "outputs": [],
      "stateMutability": "nonpayable",
      "type": "function"
    },
    {
      "inputs": [],
      "name": "owner",
      "outputs": [
        {
          "internalType": "address",
          "name": "",
          "type": "address"
        }
      ],
      "stateMutability": "view",
      "type": "function"
    },
    {
      "inputs": [],
      "name": "renounceOwnership",
      "outputs": [],
      "stateMutability": "nonpayable",
      "type": "function"
    },
    {
      "inputs": [
        {
          "internalType": "uint256",
          "name": "",
          "type": "uint256"
        }
      ],
      "name": "reputationalStakingTypeAmounts",
      "outputs": [
        {
          "internalType": "uint256",
          "name": "",
          "type": "uint256"
        }
      ],
      "stateMutability": "view",
      "type": "function"
    },
    {
      "inputs": [
        {
          "internalType": "enum StakingTypesAndStorage.StakingType",
          "name": "stakingType",
          "type": "uint8"
        }
      ],
      "name": "stake",
      "outputs": [],
      "stateMutability": "nonpayable",
      "type": "function"
    },
    {
      "inputs": [
        {
          "internalType": "uint256",
          "name": "",
          "type": "uint256"
        }
      ],
      "name": "stakingTypeAmounts",
      "outputs": [
        {
          "internalType": "uint256",
          "name": "",
          "type": "uint256"
        }
      ],
      "stateMutability": "view",
      "type": "function"
    },
    {
      "inputs": [],
      "name": "totalSupply",
      "outputs": [
        {
          "internalType": "uint256",
          "name": "",
          "type": "uint256"
        }
      ],
      "stateMutability": "view",
      "type": "function"
    },
    {
      "inputs": [
        {
          "internalType": "address",
          "name": "newOwner",
          "type": "address"
        }
      ],
      "name": "transferOwnership",
      "outputs": [],
      "stateMutability": "nonpayable",
      "type": "function"
    },
    {
      "inputs": [
        {
          "internalType": "enum StakingTypesAndStorage.StakingType",
          "name": "stakingType",
          "type": "uint8"
        }
      ],
      "name": "unstake",
      "outputs": [],
      "stateMutability": "nonpayable",
      "type": "function"
    }
  ],
  "transactionHash": "0x791e78c2b186a00a58839fc5923ce928079ce2b390d8b27abe3ba0cecae8129a",
  "args": [],
  "solcInputHash": "77418e487aa49c62cd8713bd4061a191",
  "bytecode": "0x608060405234801561001057600080fd5b506112fc806100206000396000f3fe608060405234801561001057600080fd5b50600436106101005760003560e01c80638da5cb5b11610097578063e9fad8ee11610066578063e9fad8ee14610380578063f2fde38b14610388578063f8b2cb4f146103ae578063ffa3151f146103d457610100565b80638da5cb5b14610324578063db31af451461032c578063e2fdcc1714610352578063e3d670d71461035a57610100565b806363e80329116100d357806363e80329146102bb5780636c61d1cc146102df578063715018a6146102fc57806387a021721461030457610100565b80630d9ab8211461010557806318160ddd1461013f57806327e7036414610159578063604f21771461029b575b600080fd5b61012b6004803603602081101561011b57600080fd5b50356001600160a01b03166103f1565b604080519115158252519081900360200190f35b610147610444565b60408051918252519081900360200190f35b6102996004803603608081101561016f57600080fd5b6001600160a01b0382358116926020810135909116918101906060810160408201356401000000008111156101a357600080fd5b8201836020820111156101b557600080fd5b803590602001918460208302840111640100000000831117156101d757600080fd5b919080806020026020016040519081016040528093929190818152602001838360200280828437600092019190915250929594936020810193503591505064010000000081111561022757600080fd5b82018360208201111561023957600080fd5b8035906020019184602083028401116401000000008311171561025b57600080fd5b91908080602002602001604051908101604052809392919081815260200183836020028082843760009201919091525092955061044a945050505050565b005b610299600480360360208110156102b157600080fd5b503560ff1661059c565b6102c36106d2565b604080516001600160a01b039092168252519081900360200190f35b610147600480360360208110156102f557600080fd5b50356106e1565b6102996106f3565b6102996004803603602081101561031a57600080fd5b503560ff166107b1565b6102c36108a5565b6103346108b4565b60408051938452602084019290925282820152519081900360600190f35b6102c361092b565b6101476004803603602081101561037057600080fd5b50356001600160a01b031661093a565b61029961094c565b6102996004803603602081101561039e57600080fd5b50356001600160a01b0316610984565b610147600480360360208110156103c457600080fd5b50356001600160a01b0316610a99565b610147600480360360208110156103ea57600080fd5b5035610ab4565b7fabd6e7cb50984ff9c2f3e18a2660c3353dadf4e3291deeb275dae2cd1e44fe05546001600160a01b03821660009081526003602052604081205490911161043b5750600161043f565b5060005b919050565b60025481565b600654610100900460ff16806104635750610463610ac6565b80610471575060065460ff16155b6104ac5760405162461bcd60e51b815260040180806020018281038252602e815260200180611299602e913960400191505060405180910390fd5b600654610100900460ff161580156104d7576006805460ff1961ff0019909116610100171660011790555b6104df610ad7565b600080546001600160a01b038088166001600160a01b031992831617835560018054918816919092161790555b83518110156105455783818151811061052157fe5b6020908102919091018101516000838152600490925260409091205560010161050c565b5060005b82518110156105825782818151811061055e57fe5b60209081029190910181015160008381526005909252604090912055600101610549565b508015610595576006805461ff00191690555b5050505050565b600460008260028111156105ac57fe5b81526020808201929092526040908101600090812054338252600390935220541061061e576040805162461bcd60e51b815260206004820181905260248201527f43616e6e6f74207374616b6520666f722073616d65207479706520616761696e604482015290519081900360640190fd5b60006004600083600281111561063057fe5b8152602001908152602001600020549050600061064c33610b89565b905061066f338261066a600187600281111561066457fe5b90610be7565b610c4a565b3360009081526003602052604081205461068a908490610d55565b90506106963382610d97565b60408051828152905133917f9e71bc8eea02a63969f509818f2dafb9254532904319f9dbda79b67bd34a5f3d919081900360200190a250505050565b6000546001600160a01b031681565b60056020526000908152604090205481565b6106fb610eab565b6001600160a01b031661070c6108a5565b6001600160a01b031614610767576040805162461bcd60e51b815260206004820181905260248201527f4f776e61626c653a2063616c6c6572206973206e6f7420746865206f776e6572604482015290519081900360640190fd5b6039546040516000916001600160a01b0316907f8be0079c531659141344cd1fd0a4f28419497f9722a3daafe3b4186f6b6457e0908390a3603980546001600160a01b0319169055565b600460008260028111156107c157fe5b815260208082019290925260409081016000908120543382526003909352205411610833576040805162461bcd60e51b815260206004820152601c60248201527f43616e206f6e6c792064726f7020746f206c6f776572206c6576656c00000000604482015290519081900360640190fd5b600061083e33610b89565b905060006004600084600281111561085257fe5b8152602001908152602001600020549050610879338361066a600187600281111561066457fe5b336000908152600360205260408120546108939083610d55565b905061089f3382610eaf565b50505050565b6039546001600160a01b031690565b60046020527f17ef568e3e12ab5b9c7254a8d58478811de00f9e6eb34345acd53bf8fd09d3ec547fabd6e7cb50984ff9c2f3e18a2660c3353dadf4e3291deeb275dae2cd1e44fe055460026000527f91da3fd0782e51c6b3986e9e672fd566868e71f3dbc2d6c2cd6fbb3e361af2a7549192909190565b6001546001600160a01b031681565b60036020526000908152604090205481565b600061095733610b89565b905061096533826000610c4a565b33600081815260036020526040902054906109809082610eaf565b5050565b61098c610eab565b6001600160a01b031661099d6108a5565b6001600160a01b0316146109f8576040805162461bcd60e51b815260206004820181905260248201527f4f776e61626c653a2063616c6c6572206973206e6f7420746865206f776e6572604482015290519081900360640190fd5b6001600160a01b038116610a3d5760405162461bcd60e51b81526004018080602001828103825260268152602001806112736026913960400191505060405180910390fd5b6039546040516001600160a01b038084169216907f8be0079c531659141344cd1fd0a4f28419497f9722a3daafe3b4186f6b6457e090600090a3603980546001600160a01b0319166001600160a01b0392909216919091179055565b6001600160a01b031660009081526003602052604090205490565b60046020526000908152604090205481565b6000610ad130610fba565b15905090565b600654610100900460ff1680610af05750610af0610ac6565b80610afe575060065460ff16155b610b395760405162461bcd60e51b815260040180806020018281038252602e815260200180611299602e913960400191505060405180910390fd5b600654610100900460ff16158015610b64576006805460ff1961ff0019909116610100171660011790555b610b6c610fc0565b610b74611060565b8015610b86576006805461ff00191690555b50565b6000805b6003811015610bde576000818152600460209081526040808320546001600160a01b03871684526003909252909120541415610bd657610bce816001610be7565b91505061043f565b600101610b8d565b50600092915050565b600082820183811015610c41576040805162461bcd60e51b815260206004820152601b60248201527f536166654d6174683a206164646974696f6e206f766572666c6f770000000000604482015290519081900360640190fd5b90505b92915050565b80821015610cd3576000610c5e8284611159565b6001546040805163d017797960e01b81526001600160a01b03888116600483015260248201859052915193945091169163d01779799160448082019260009290919082900301818387803b158015610cb557600080fd5b505af1158015610cc9573d6000803e3d6000fd5b5050505050610d50565b6000610cdf8383611159565b60015460408051634e391f3d60e01b81526001600160a01b038881166004830152602482018590529151939450911691634e391f3d9160448082019260009290919082900301818387803b158015610d3657600080fd5b505af1158015610d4a573d6000803e3d6000fd5b50505050505b505050565b6000610c4183836040518060400160405280601e81526020017f536166654d6174683a207375627472616374696f6e206f766572666c6f7700008152506111db565b60008054604080516323b872dd60e01b81526001600160a01b03868116600483015230602483015260448201869052915191909216926323b872dd92606480820193602093909283900390910190829087803b158015610df657600080fd5b505af1158015610e0a573d6000803e3d6000fd5b505050506040513d6020811015610e2057600080fd5b5050600254610e2f9082610be7565b6002556001600160a01b038216600090815260036020526040902054610e559082610be7565b6001600160a01b038316600081815260036020908152604091829020939093558051848152905191927f9e71bc8eea02a63969f509818f2dafb9254532904319f9dbda79b67bd34a5f3d92918290030190a25050565b3390565b600254610ebc9082610d55565b6002556001600160a01b038216600090815260036020526040902054610ee29082610d55565b6001600160a01b038084166000818152600360209081526040808320959095558154855163a9059cbb60e01b81526004810194909452602484018790529451949093169363a9059cbb936044808501949193918390030190829087803b158015610f4b57600080fd5b505af1158015610f5f573d6000803e3d6000fd5b505050506040513d6020811015610f7557600080fd5b50506040805182815290516001600160a01b038416917f7084f5476618d8e60b11ef0d7d3f06914655adb8793e28ff7f018d4c76d505d5919081900360200190a25050565b3b151590565b600654610100900460ff1680610fd95750610fd9610ac6565b80610fe7575060065460ff16155b6110225760405162461bcd60e51b815260040180806020018281038252602e815260200180611299602e913960400191505060405180910390fd5b600654610100900460ff16158015610b74576006805460ff1961ff0019909116610100171660011790558015610b86576006805461ff001916905550565b600654610100900460ff16806110795750611079610ac6565b80611087575060065460ff16155b6110c25760405162461bcd60e51b815260040180806020018281038252602e815260200180611299602e913960400191505060405180910390fd5b600654610100900460ff161580156110ed576006805460ff1961ff0019909116610100171660011790555b60006110f7610eab565b603980546001600160a01b0319166001600160a01b038316908117909155604051919250906000907f8be0079c531659141344cd1fd0a4f28419497f9722a3daafe3b4186f6b6457e0908290a3508015610b86576006805461ff001916905550565b600081611185576005600061116f856001610d55565b8152602001908152602001600020549050610c44565b610c4160056000611197856001610d55565b815260200190815260200160002054600560006111be600188610d5590919063ffffffff16565b815260200190815260200160002054610d5590919063ffffffff16565b6000818484111561126a5760405162461bcd60e51b81526004018080602001828103825283818151815260200191508051906020019080838360005b8381101561122f578181015183820152602001611217565b50505050905090810190601f16801561125c5780820380516001836020036101000a031916815260200191505b509250505060405180910390fd5b50505090039056fe4f776e61626c653a206e6577206f776e657220697320746865207a65726f2061646472657373496e697469616c697a61626c653a20636f6e747261637420697320616c726561647920696e697469616c697a6564a26469706673582212202e34517718e8d3a5e8ddbf99989458fed9c9b4638cd0151a4e8d33557e1508d264736f6c63430007060033",
  "devdoc": {
    "details": "Extends  Initializable, StakingDetails, OwnableUpgradeable",
    "kind": "dev",
    "methods": {
      "exit()": {
        "details": "msg.sender withdraws and exits"
      },
      "getAmountsToStake()": {
        "returns": {
          "stakerLvl1Amount": "Staker lvl 1 Amount",
          "stakerLvl2Amount": "Staker lvl 2 Amount",
          "stakerLvl3Amount": "Staker lvl 3 Amount"
        }
      },
      "getBalance(address)": {
        "details": "Retrieves the staked balance for a given user",
        "params": {
          "staker_": "the address of the staker"
        }
      },
      "getEligibilityForActionProvision(address)": {
        "params": {
          "account": "The staker to check for"
        }
      },
      "initialize(address,address,uint256[],uint256[])": {
        "details": "Initialize of the contract.",
        "params": {
          "albt_": "the albt IERC20 token",
          "escrow_": "the escrow address",
          "reputationalStakingTypeAmounts_": "the array of Reputation Staking Type Amounts",
          "stakingTypeAmounts_": "the array of Staking Type Amounts"
        }
      },
      "owner()": {
        "details": "Returns the address of the current owner."
      },
      "renounceOwnership()": {
        "details": "Leaves the contract without owner. It will not be possible to call `onlyOwner` functions anymore. Can only be called by the current owner. NOTE: Renouncing ownership will leave the contract without an owner, thereby removing any functionality that is only available to the owner."
      },
      "stake(uint8)": {
        "details": "requires not Delegator and cannot repeat staking type",
        "params": {
          "stakingType": "The staking type"
        }
      },
      "transferOwnership(address)": {
        "details": "Transfers ownership of the contract to a new account (`newOwner`). Can only be called by the current owner."
      },
      "unstake(uint8)": {
        "details": "msg.sender withdraws till reaching stakingType",
        "params": {
          "stakingType": "The staking type to drop to"
        }
      }
    },
    "title": "AllianceBlock Staking contract",
    "version": 1
  },
  "userdoc": {
    "kind": "user",
    "methods": {
      "exit()": {
        "notice": "Exit"
      },
      "getAmountsToStake()": {
        "notice": "Get Amounts to Stake"
      },
      "getBalance(address)": {
        "notice": "Get Balance"
      },
      "getEligibilityForActionProvision(address)": {
        "notice": "Returns true if account is staker Lvl2 or more"
      },
      "initialize(address,address,uint256[],uint256[])": {
        "notice": "Initialize"
      },
      "stake(uint8)": {
        "notice": "Stake"
      },
      "unstake(uint8)": {
        "notice": "Unstake"
      }
    },
    "notice": "Responsible for ALBT Staking",
    "version": 1
  },
  "storageLayout": {
    "storage": [
      {
        "astId": 11645,
        "contract": "contracts/Staking.sol:Staking",
        "label": "albt",
        "offset": 0,
        "slot": "0",
        "type": "t_contract(IERC20)4574"
      },
      {
        "astId": 11647,
        "contract": "contracts/Staking.sol:Staking",
        "label": "escrow",
        "offset": 0,
        "slot": "1",
        "type": "t_contract(IEscrow)8277"
      },
      {
        "astId": 11649,
        "contract": "contracts/Staking.sol:Staking",
        "label": "totalSupply",
        "offset": 0,
        "slot": "2",
        "type": "t_uint256"
      },
      {
        "astId": 11653,
        "contract": "contracts/Staking.sol:Staking",
        "label": "balance",
        "offset": 0,
        "slot": "3",
        "type": "t_mapping(t_address,t_uint256)"
      },
      {
        "astId": 11657,
        "contract": "contracts/Staking.sol:Staking",
        "label": "stakingTypeAmounts",
        "offset": 0,
        "slot": "4",
        "type": "t_mapping(t_uint256,t_uint256)"
      },
      {
        "astId": 11661,
        "contract": "contracts/Staking.sol:Staking",
        "label": "reputationalStakingTypeAmounts",
        "offset": 0,
        "slot": "5",
        "type": "t_mapping(t_uint256,t_uint256)"
      },
      {
        "astId": 890,
        "contract": "contracts/Staking.sol:Staking",
        "label": "_initialized",
        "offset": 0,
        "slot": "6",
        "type": "t_bool"
      },
      {
        "astId": 893,
        "contract": "contracts/Staking.sol:Staking",
        "label": "_initializing",
        "offset": 1,
        "slot": "6",
        "type": "t_bool"
      },
      {
        "astId": 2584,
        "contract": "contracts/Staking.sol:Staking",
        "label": "__gap",
        "offset": 0,
        "slot": "7",
        "type": "t_array(t_uint256)50_storage"
      },
      {
        "astId": 321,
        "contract": "contracts/Staking.sol:Staking",
        "label": "_owner",
        "offset": 0,
        "slot": "57",
        "type": "t_address"
      },
      {
        "astId": 440,
        "contract": "contracts/Staking.sol:Staking",
        "label": "__gap",
        "offset": 0,
        "slot": "58",
        "type": "t_array(t_uint256)49_storage"
      }
    ],
    "types": {
      "t_address": {
        "encoding": "inplace",
        "label": "address",
        "numberOfBytes": "20"
      },
      "t_array(t_uint256)49_storage": {
        "base": "t_uint256",
        "encoding": "inplace",
        "label": "uint256[49]",
        "numberOfBytes": "1568"
      },
      "t_array(t_uint256)50_storage": {
        "base": "t_uint256",
        "encoding": "inplace",
        "label": "uint256[50]",
        "numberOfBytes": "1600"
      },
      "t_bool": {
        "encoding": "inplace",
        "label": "bool",
        "numberOfBytes": "1"
      },
      "t_contract(IERC20)4574": {
        "encoding": "inplace",
        "label": "contract IERC20",
        "numberOfBytes": "20"
      },
      "t_contract(IEscrow)8277": {
        "encoding": "inplace",
        "label": "contract IEscrow",
        "numberOfBytes": "20"
      },
      "t_mapping(t_address,t_uint256)": {
        "encoding": "mapping",
        "key": "t_address",
        "label": "mapping(address => uint256)",
        "numberOfBytes": "32",
        "value": "t_uint256"
      },
      "t_mapping(t_uint256,t_uint256)": {
        "encoding": "mapping",
        "key": "t_uint256",
        "label": "mapping(uint256 => uint256)",
        "numberOfBytes": "32",
        "value": "t_uint256"
      },
      "t_uint256": {
        "encoding": "inplace",
        "label": "uint256",
        "numberOfBytes": "32"
      }
    }
  }
}