{
  "address": "0xdE4d073DE24dEE091f5CF3C60ad80B1Cc6a5fCd7",
  "abi": [
    {
      "anonymous": false,
      "inputs": [
        {
          "indexed": true,
          "internalType": "address",
          "name": "account",
          "type": "address"
        },
        {
          "indexed": true,
          "internalType": "address",
          "name": "operator",
          "type": "address"
        },
        {
          "indexed": false,
          "internalType": "bool",
          "name": "approved",
          "type": "bool"
        }
      ],
      "name": "ApprovalForAll",
      "type": "event"
    },
    {
      "anonymous": false,
      "inputs": [
        {
          "indexed": true,
          "internalType": "bytes32",
          "name": "role",
          "type": "bytes32"
        },
        {
          "indexed": true,
          "internalType": "bytes32",
          "name": "previousAdminRole",
          "type": "bytes32"
        },
        {
          "indexed": true,
          "internalType": "bytes32",
          "name": "newAdminRole",
          "type": "bytes32"
        }
      ],
      "name": "RoleAdminChanged",
      "type": "event"
    },
    {
      "anonymous": false,
      "inputs": [
        {
          "indexed": true,
          "internalType": "bytes32",
          "name": "role",
          "type": "bytes32"
        },
        {
          "indexed": true,
          "internalType": "address",
          "name": "account",
          "type": "address"
        },
        {
          "indexed": true,
          "internalType": "address",
          "name": "sender",
          "type": "address"
        }
      ],
      "name": "RoleGranted",
      "type": "event"
    },
    {
      "anonymous": false,
      "inputs": [
        {
          "indexed": true,
          "internalType": "bytes32",
          "name": "role",
          "type": "bytes32"
        },
        {
          "indexed": true,
          "internalType": "address",
          "name": "account",
          "type": "address"
        },
        {
          "indexed": true,
          "internalType": "address",
          "name": "sender",
          "type": "address"
        }
      ],
      "name": "RoleRevoked",
      "type": "event"
    },
    {
      "anonymous": false,
      "inputs": [
        {
          "indexed": true,
          "internalType": "address",
          "name": "operator",
          "type": "address"
        },
        {
          "indexed": true,
          "internalType": "address",
          "name": "from",
          "type": "address"
        },
        {
          "indexed": true,
          "internalType": "address",
          "name": "to",
          "type": "address"
        },
        {
          "indexed": false,
          "internalType": "uint256[]",
          "name": "ids",
          "type": "uint256[]"
        },
        {
          "indexed": false,
          "internalType": "uint256[]",
          "name": "values",
          "type": "uint256[]"
        }
      ],
      "name": "TransferBatch",
      "type": "event"
    },
    {
      "anonymous": false,
      "inputs": [
        {
          "indexed": true,
          "internalType": "address",
          "name": "operator",
          "type": "address"
        },
        {
          "indexed": true,
          "internalType": "address",
          "name": "from",
          "type": "address"
        },
        {
          "indexed": true,
          "internalType": "address",
          "name": "to",
          "type": "address"
        },
        {
          "indexed": false,
          "internalType": "uint256",
          "name": "id",
          "type": "uint256"
        },
        {
          "indexed": false,
          "internalType": "uint256",
          "name": "value",
          "type": "uint256"
        }
      ],
      "name": "TransferSingle",
      "type": "event"
    },
    {
      "anonymous": false,
      "inputs": [
        {
          "indexed": false,
          "internalType": "string",
          "name": "value",
          "type": "string"
        },
        {
          "indexed": true,
          "internalType": "uint256",
          "name": "id",
          "type": "uint256"
        }
      ],
      "name": "URI",
      "type": "event"
    },
    {
      "inputs": [],
      "name": "DEFAULT_ADMIN_ROLE",
      "outputs": [
        {
          "internalType": "bytes32",
          "name": "",
          "type": "bytes32"
        }
      ],
      "stateMutability": "view",
      "type": "function"
    },
    {
      "inputs": [],
      "name": "MINTER_ROLE",
      "outputs": [
        {
          "internalType": "bytes32",
          "name": "",
          "type": "bytes32"
        }
      ],
      "stateMutability": "view",
      "type": "function"
    },
    {
      "inputs": [
        {
          "internalType": "address",
          "name": "account",
          "type": "address"
        },
        {
          "internalType": "uint256",
          "name": "id",
          "type": "uint256"
        }
      ],
      "name": "balanceOf",
      "outputs": [
        {
          "internalType": "uint256",
          "name": "",
          "type": "uint256"
        }
      ],
      "stateMutability": "view",
      "type": "function"
    },
    {
      "inputs": [
        {
          "internalType": "address[]",
          "name": "accounts",
          "type": "address[]"
        },
        {
          "internalType": "uint256[]",
          "name": "ids",
          "type": "uint256[]"
        }
      ],
      "name": "balanceOfBatch",
      "outputs": [
        {
          "internalType": "uint256[]",
          "name": "",
          "type": "uint256[]"
        }
      ],
      "stateMutability": "view",
      "type": "function"
    },
    {
      "inputs": [
        {
          "internalType": "address",
          "name": "account",
          "type": "address"
        },
        {
          "internalType": "uint256",
          "name": "stakingId",
          "type": "uint256"
        }
      ],
      "name": "burn",
      "outputs": [],
      "stateMutability": "nonpayable",
      "type": "function"
    },
    {
      "inputs": [
        {
          "internalType": "address",
          "name": "account",
          "type": "address"
        }
      ],
      "name": "getLevelOfStaker",
      "outputs": [
        {
          "internalType": "uint256",
          "name": "",
          "type": "uint256"
        }
      ],
      "stateMutability": "view",
      "type": "function"
    },
    {
      "inputs": [
        {
          "internalType": "bytes32",
          "name": "role",
          "type": "bytes32"
        }
      ],
      "name": "getRoleAdmin",
      "outputs": [
        {
          "internalType": "bytes32",
          "name": "",
          "type": "bytes32"
        }
      ],
      "stateMutability": "view",
      "type": "function"
    },
    {
      "inputs": [
        {
          "internalType": "bytes32",
          "name": "role",
          "type": "bytes32"
        },
        {
          "internalType": "uint256",
          "name": "index",
          "type": "uint256"
        }
      ],
      "name": "getRoleMember",
      "outputs": [
        {
          "internalType": "address",
          "name": "",
          "type": "address"
        }
      ],
      "stateMutability": "view",
      "type": "function"
    },
    {
      "inputs": [
        {
          "internalType": "bytes32",
          "name": "role",
          "type": "bytes32"
        }
      ],
      "name": "getRoleMemberCount",
      "outputs": [
        {
          "internalType": "uint256",
          "name": "",
          "type": "uint256"
        }
      ],
      "stateMutability": "view",
      "type": "function"
    },
    {
      "inputs": [
        {
          "internalType": "bytes32",
          "name": "role",
          "type": "bytes32"
        },
        {
          "internalType": "address",
          "name": "account",
          "type": "address"
        }
      ],
      "name": "grantRole",
      "outputs": [],
      "stateMutability": "nonpayable",
      "type": "function"
    },
    {
      "inputs": [
        {
          "internalType": "bytes32",
          "name": "role",
          "type": "bytes32"
        },
        {
          "internalType": "address",
          "name": "account",
          "type": "address"
        }
      ],
      "name": "hasRole",
      "outputs": [
        {
          "internalType": "bool",
          "name": "",
          "type": "bool"
        }
      ],
      "stateMutability": "view",
      "type": "function"
    },
    {
      "inputs": [],
      "name": "initialize",
      "outputs": [],
      "stateMutability": "nonpayable",
      "type": "function"
    },
    {
      "inputs": [
        {
          "internalType": "address",
          "name": "account",
          "type": "address"
        },
        {
          "internalType": "address",
          "name": "operator",
          "type": "address"
        }
      ],
      "name": "isApprovedForAll",
      "outputs": [
        {
          "internalType": "bool",
          "name": "",
          "type": "bool"
        }
      ],
      "stateMutability": "view",
      "type": "function"
    },
    {
      "inputs": [
        {
          "internalType": "address",
          "name": "to",
          "type": "address"
        },
        {
          "internalType": "uint256",
          "name": "stakingId",
          "type": "uint256"
        }
      ],
      "name": "mint",
      "outputs": [],
      "stateMutability": "nonpayable",
      "type": "function"
    },
    {
      "inputs": [
        {
          "internalType": "bytes32",
          "name": "role",
          "type": "bytes32"
        },
        {
          "internalType": "address",
          "name": "account",
          "type": "address"
        }
      ],
      "name": "renounceRole",
      "outputs": [],
      "stateMutability": "nonpayable",
      "type": "function"
    },
    {
      "inputs": [
        {
          "internalType": "bytes32",
          "name": "role",
          "type": "bytes32"
        },
        {
          "internalType": "address",
          "name": "account",
          "type": "address"
        }
      ],
      "name": "revokeRole",
      "outputs": [],
      "stateMutability": "nonpayable",
      "type": "function"
    },
    {
      "inputs": [
        {
          "internalType": "address",
          "name": "_from",
          "type": "address"
        },
        {
          "internalType": "address",
          "name": "_to",
          "type": "address"
        },
        {
          "internalType": "uint256[]",
          "name": "_ids",
          "type": "uint256[]"
        },
        {
          "internalType": "uint256[]",
          "name": "_values",
          "type": "uint256[]"
        },
        {
          "internalType": "bytes",
          "name": "_data",
          "type": "bytes"
        }
      ],
      "name": "safeBatchTransferFrom",
      "outputs": [],
      "stateMutability": "nonpayable",
      "type": "function"
    },
    {
      "inputs": [
        {
          "internalType": "address",
          "name": "_from",
          "type": "address"
        },
        {
          "internalType": "address",
          "name": "_to",
          "type": "address"
        },
        {
          "internalType": "uint256",
          "name": "_id",
          "type": "uint256"
        },
        {
          "internalType": "uint256",
          "name": "_value",
          "type": "uint256"
        },
        {
          "internalType": "bytes",
          "name": "_data",
          "type": "bytes"
        }
      ],
      "name": "safeTransferFrom",
      "outputs": [],
      "stateMutability": "nonpayable",
      "type": "function"
    },
    {
      "inputs": [
        {
          "internalType": "address",
          "name": "operator",
          "type": "address"
        },
        {
          "internalType": "bool",
          "name": "approved",
          "type": "bool"
        }
      ],
      "name": "setApprovalForAll",
      "outputs": [],
      "stateMutability": "nonpayable",
      "type": "function"
    },
    {
      "inputs": [
        {
          "internalType": "bytes4",
          "name": "interfaceId",
          "type": "bytes4"
        }
      ],
      "name": "supportsInterface",
      "outputs": [
        {
          "internalType": "bool",
          "name": "",
          "type": "bool"
        }
      ],
      "stateMutability": "view",
      "type": "function"
    },
    {
      "inputs": [
        {
          "internalType": "uint256",
          "name": "",
          "type": "uint256"
        }
      ],
      "name": "uri",
      "outputs": [
        {
          "internalType": "string",
          "name": "",
          "type": "string"
        }
      ],
      "stateMutability": "view",
      "type": "function"
    }
  ],
  "transactionHash": "0xc9934b8375615949c3ea94f879b1fcd93c9739d879c0e9e2158e4ef2d1cd9740",
  "args": [],
  "solcInputHash": "2655e296375c08ec2ee94c1a605dd52e",
  "bytecode": "0x608060405234801561001057600080fd5b50612095806100206000396000f3fe608060405234801561001057600080fd5b50600436106101365760003560e01c80638129fc1c116100b8578063a22cb4651161007c578063a22cb46514610650578063ca15c8731461067e578063d53913931461069b578063d547741f146106a3578063e985e9c5146106cf578063f242432a146106fd57610136565b80638129fc1c146105a95780639010d07c146105b157806391d14854146105f05780639dc29fac1461061c578063a217fddf1461064857610136565b80632eb2c2d6116100ff5780632eb2c2d6146102895780632f2ff15d146103b257806336568abe146103de57806340c10f191461040a5780634e1273f41461043657610136565b8062fdd58e1461013b57806301ffc9a7146101795780630e89341c146101b457806311ece36d14610246578063248a9ca31461026c575b600080fd5b6101676004803603604081101561015157600080fd5b506001600160a01b038135169060200135610790565b60408051918252519081900360200190f35b6101a06004803603602081101561018f57600080fd5b50356001600160e01b031916610802565b604080519115158252519081900360200190f35b6101d1600480360360208110156101ca57600080fd5b5035610825565b6040805160208082528351818301528351919283929083019185019080838360005b8381101561020b5781810151838201526020016101f3565b50505050905090810190601f1680156102385780820380516001836020036101000a031916815260200191505b509250505060405180910390f35b6101676004803603602081101561025c57600080fd5b50356001600160a01b03166108bd565b6101676004803603602081101561028257600080fd5b503561098f565b6103b0600480360360a081101561029f57600080fd5b6001600160a01b038235811692602081013590911691810190606081016040820135600160201b8111156102d257600080fd5b8201836020820111156102e457600080fd5b803590602001918460208302840111600160201b8311171561030557600080fd5b919390929091602081019035600160201b81111561032257600080fd5b82018360208201111561033457600080fd5b803590602001918460208302840111600160201b8311171561035557600080fd5b919390929091602081019035600160201b81111561037257600080fd5b82018360208201111561038457600080fd5b803590602001918460018302840111600160201b831117156103a557600080fd5b5090925090506109a4565b005b6103b0600480360360408110156103c857600080fd5b50803590602001356001600160a01b03166109db565b6103b0600480360360408110156103f457600080fd5b50803590602001356001600160a01b0316610a47565b6103b06004803603604081101561042057600080fd5b506001600160a01b038135169060200135610aa8565b6105596004803603604081101561044c57600080fd5b810190602081018135600160201b81111561046657600080fd5b82018360208201111561047857600080fd5b803590602001918460208302840111600160201b8311171561049957600080fd5b9190808060200260200160405190810160405280939291908181526020018383602002808284376000920191909152509295949360208101935035915050600160201b8111156104e857600080fd5b8201836020820111156104fa57600080fd5b803590602001918460208302840111600160201b8311171561051b57600080fd5b919080806020026020016040519081016040528093929190818152602001838360200280828437600092019190915250929550610b82945050505050565b60408051602080825283518183015283519192839290830191858101910280838360005b8381101561059557818101518382015260200161057d565b505050509050019250505060405180910390f35b6103b0610c6e565b6105d4600480360360408110156105c757600080fd5b5080359060200135610d5c565b604080516001600160a01b039092168252519081900360200190f35b6101a06004803603604081101561060657600080fd5b50803590602001356001600160a01b0316610d7b565b6103b06004803603604081101561063257600080fd5b506001600160a01b038135169060200135610d93565b610167610e58565b6103b06004803603604081101561066657600080fd5b506001600160a01b0381351690602001351515610e5d565b6101676004803603602081101561069457600080fd5b5035610f4c565b610167610f63565b6103b0600480360360408110156106b957600080fd5b50803590602001356001600160a01b0316610f75565b6101a0600480360360408110156106e557600080fd5b506001600160a01b0381358116916020013516610fce565b6103b0600480360360a081101561071357600080fd5b6001600160a01b03823581169260208101359091169160408201359160608101359181019060a081016080820135600160201b81111561075257600080fd5b82018360208201111561076457600080fd5b803590602001918460018302840111600160201b8311171561078557600080fd5b509092509050610ffc565b60006001600160a01b0383166107d75760405162461bcd60e51b815260040180806020018281038252602b815260200180611e80602b913960400191505060405180910390fd5b5060008181526097602090815260408083206001600160a01b03861684529091529020545b92915050565b6001600160e01b0319811660009081526065602052604090205460ff165b919050565b60998054604080516020601f60026000196101006001881615020190951694909404938401819004810282018101909252828152606093909290918301828280156108b15780601f10610886576101008083540402835291602001916108b1565b820191906000526020600020905b81548152906001019060200180831161089457829003601f168201915b50505050509050919050565b60006001600160a01b03821661091a576040805162461bcd60e51b815260206004820152601960248201527f4163636f756e742069732061207a65726f206164647265737300000000000000604482015290519081900360640190fd5b60006109288360035b610790565b9050806001141561093d576003915050610820565b600061094a846002610923565b9050806001141561096057600292505050610820565b600061096d856001610923565b905080600114156109845760019350505050610820565b600095945050505050565b60009081526033602052604090206002015490565b60405162461bcd60e51b8152600401808060200182810382526025815260200180611f796025913960400191505060405180910390fd5b6000828152603360205260409020600201546109fe906109f9611049565b610d7b565b610a395760405162461bcd60e51b815260040180806020018281038252602f815260200180611e51602f913960400191505060405180910390fd5b610a43828261104e565b5050565b610a4f611049565b6001600160a01b0316816001600160a01b031614610a9e5760405162461bcd60e51b815260040180806020018281038252602f815260200180612031602f913960400191505060405180910390fd5b610a4382826110b7565b610ac2600080516020611f9e8339815191526109f9611049565b610b13576040805162461bcd60e51b815260206004820152601d60248201527f4d7573742068617665206d696e74657220726f6c6520746f206d696e74000000604482015290519081900360640190fd5b8060018110158015610b26575060038111155b610b615760405162461bcd60e51b8152600401808060200182810382526029815260200180611eff6029913960400191505060405180910390fd5b610b7d8383600160405180602001604052806000815250611120565b505050565b60608151835114610bc45760405162461bcd60e51b8152600401808060200182810382526029815260200180611fe76029913960400191505060405180910390fd5b6000835167ffffffffffffffff81118015610bde57600080fd5b50604051908082528060200260200182016040528015610c08578160200160208202803683370190505b50905060005b8451811015610c6657610c47858281518110610c2657fe5b6020026020010151858381518110610c3a57fe5b6020026020010151610790565b828281518110610c5357fe5b6020908102919091010152600101610c0e565b509392505050565b600054610100900460ff1680610c875750610c87611237565b80610c95575060005460ff16155b610cd05760405162461bcd60e51b815260040180806020018281038252602e815260200180611f28602e913960400191505060405180910390fd5b600054610100900460ff16158015610cfb576000805460ff1961ff0019909116610100171660011790555b610d1360405180602001604052806000815250611248565b610d1b611303565b610d2d6000610d28611049565b610a39565b610d47600080516020611f9e833981519152610d28611049565b8015610d59576000805461ff00191690555b50565b6000828152603360205260408120610d7490836113a0565b9392505050565b6000828152603360205260408120610d7490836113ac565b610dad600080516020611f9e8339815191526109f9611049565b610dfe576040805162461bcd60e51b815260206004820152601d60248201527f4d7573742068617665206d696e74657220726f6c6520746f206d696e74000000604482015290519081900360640190fd5b8060018110158015610e11575060038111155b610e4c5760405162461bcd60e51b8152600401808060200182810382526029815260200180611eff6029913960400191505060405180910390fd5b610b7d838360016113c1565b600081565b816001600160a01b0316610e6f611049565b6001600160a01b03161415610eb55760405162461bcd60e51b8152600401808060200182810382526029815260200180611fbe6029913960400191505060405180910390fd5b8060986000610ec2611049565b6001600160a01b03908116825260208083019390935260409182016000908120918716808252919093529120805460ff191692151592909217909155610f06611049565b6001600160a01b03167f17307eab39ab6107e8899845ad3d59bd9653f200f220920489ca2b5937696c318360405180821515815260200191505060405180910390a35050565b60008181526033602052604081206107fc906114f4565b600080516020611f9e83398151915281565b600082815260336020526040902060020154610f93906109f9611049565b610a9e5760405162461bcd60e51b8152600401808060200182810382526030815260200180611ecf6030913960400191505060405180910390fd5b6001600160a01b03918216600090815260986020908152604080832093909416825291909152205460ff1690565b6040805162461bcd60e51b815260206004820181905260248201527f4d6574686f6420736166655472616e7366657246726f6d2064697361626c6564604482015290519081900360640190fd5b335b90565b600082815260336020526040902061106690826114ff565b15610a4357611073611049565b6001600160a01b0316816001600160a01b0316837f2f8788117e7eff1d82e926ec794901d17c78024a50270940304540a733656f0d60405160405180910390a45050565b60008281526033602052604090206110cf9082611514565b15610a43576110dc611049565b6001600160a01b0316816001600160a01b0316837ff6391f5c32d9c69d2a47ea670b442974b53935d1edc7fd64eb21e047a839171b60405160405180910390a45050565b6001600160a01b0384166111655760405162461bcd60e51b81526004018080602001828103825260218152602001806120106021913960400191505060405180910390fd5b600061116f611049565b90506111908160008761118188611529565b61118a88611529565b8761156e565b60008481526097602090815260408083206001600160a01b03891684529091529020546111bd9084611576565b60008581526097602090815260408083206001600160a01b03808b16808652918452828520959095558151898152928301889052815190948616927fc3d58168c5ae7397731d063d5bbf3d657854427343f4c083240f7aacaa2d0f6292908290030190a4611230816000878787876115d0565b5050505050565b600061124230611811565b15905090565b600054610100900460ff16806112615750611261611237565b8061126f575060005460ff16155b6112aa5760405162461bcd60e51b815260040180806020018281038252602e815260200180611f28602e913960400191505060405180910390fd5b600054610100900460ff161580156112d5576000805460ff1961ff0019909116610100171660011790555b6112dd611817565b6112e56118b7565b6112ee82611954565b8015610a43576000805461ff00191690555050565b600054610100900460ff168061131c575061131c611237565b8061132a575060005460ff16155b6113655760405162461bcd60e51b815260040180806020018281038252602e815260200180611f28602e913960400191505060405180910390fd5b600054610100900460ff16158015611390576000805460ff1961ff0019909116610100171660011790555b611398611817565b610d47611817565b6000610d748383611a0a565b6000610d74836001600160a01b038416611a6e565b6001600160a01b0383166114065760405162461bcd60e51b8152600401808060200182810382526023815260200180611f566023913960400191505060405180910390fd5b6000611410611049565b90506114408185600061142287611529565b61142b87611529565b6040518060200160405280600081525061156e565b61148782604051806060016040528060248152602001611eab6024913960008681526097602090815260408083206001600160a01b038b1684529091529020549190611a86565b60008481526097602090815260408083206001600160a01b03808a16808652918452828520959095558151888152928301879052815193949093908616927fc3d58168c5ae7397731d063d5bbf3d657854427343f4c083240f7aacaa2d0f6292908290030190a450505050565b60006107fc82611ae0565b6000610d74836001600160a01b038416611ae4565b6000610d74836001600160a01b038416611b2e565b6040805160018082528183019092526060916000919060208083019080368337019050509050828160008151811061155d57fe5b602090810291909101015292915050565b505050505050565b600082820183811015610d74576040805162461bcd60e51b815260206004820152601b60248201527f536166654d6174683a206164646974696f6e206f766572666c6f770000000000604482015290519081900360640190fd5b6115e2846001600160a01b0316611811565b1561156e57836001600160a01b031663f23a6e6187878686866040518663ffffffff1660e01b815260040180866001600160a01b03168152602001856001600160a01b0316815260200184815260200183815260200180602001828103825283818151815260200191508051906020019080838360005b83811015611671578181015183820152602001611659565b50505050905090810190601f16801561169e5780820380516001836020036101000a031916815260200191505b509650505050505050602060405180830381600087803b1580156116c157600080fd5b505af19250505080156116e657506040513d60208110156116e157600080fd5b505160015b6117b9576116f2611d2d565b806116fd5750611782565b8060405162461bcd60e51b81526004018080602001828103825283818151815260200191508051906020019080838360005b8381101561174757818101518382015260200161172f565b50505050905090810190601f1680156117745780820380516001836020036101000a031916815260200191505b509250505060405180910390fd5b60405162461bcd60e51b8152600401808060200182810382526034815260200180611dd36034913960400191505060405180910390fd5b6001600160e01b0319811663f23a6e6160e01b146118085760405162461bcd60e51b8152600401808060200182810382526028815260200180611e296028913960400191505060405180910390fd5b50505050505050565b3b151590565b600054610100900460ff16806118305750611830611237565b8061183e575060005460ff16155b6118795760405162461bcd60e51b815260040180806020018281038252602e815260200180611f28602e913960400191505060405180910390fd5b600054610100900460ff16158015610d47576000805460ff1961ff0019909116610100171660011790558015610d59576000805461ff001916905550565b600054610100900460ff16806118d057506118d0611237565b806118de575060005460ff16155b6119195760405162461bcd60e51b815260040180806020018281038252602e815260200180611f28602e913960400191505060405180910390fd5b600054610100900460ff16158015611944576000805460ff1961ff0019909116610100171660011790555b610d476301ffc9a760e01b611bf4565b600054610100900460ff168061196d575061196d611237565b8061197b575060005460ff16155b6119b65760405162461bcd60e51b815260040180806020018281038252602e815260200180611f28602e913960400191505060405180910390fd5b600054610100900460ff161580156119e1576000805460ff1961ff0019909116610100171660011790555b6119ea82611c78565b6119fa636cdb3d1360e11b611bf4565b6112ee6303a24d0760e21b611bf4565b81546000908210611a4c5760405162461bcd60e51b8152600401808060200182810382526022815260200180611e076022913960400191505060405180910390fd5b826000018281548110611a5b57fe5b9060005260206000200154905092915050565b60009081526001919091016020526040902054151590565b60008184841115611ad85760405162461bcd60e51b815260206004820181815283516024840152835190928392604490910191908501908083836000831561174757818101518382015260200161172f565b505050900390565b5490565b6000611af08383611a6e565b611b26575081546001818101845560008481526020808220909301849055845484825282860190935260409020919091556107fc565b5060006107fc565b60008181526001830160205260408120548015611bea5783546000198083019190810190600090879083908110611b6157fe5b9060005260206000200154905080876000018481548110611b7e57fe5b600091825260208083209091019290925582815260018981019092526040902090840190558654879080611bae57fe5b600190038181906000526020600020016000905590558660010160008781526020019081526020016000206000905560019450505050506107fc565b60009150506107fc565b6001600160e01b03198082161415611c53576040805162461bcd60e51b815260206004820152601c60248201527f4552433136353a20696e76616c696420696e7465726661636520696400000000604482015290519081900360640190fd5b6001600160e01b0319166000908152606560205260409020805460ff19166001179055565b8051610a43906099906020840190828054600181600116156101000203166002900490600052602060002090601f016020900481019282611cbc5760008555611d02565b82601f10611cd557805160ff1916838001178555611d02565b82800160010185558215611d02579182015b82811115611d02578251825591602001919060010190611ce7565b50611d0e929150611d12565b5090565b5b80821115611d0e5760008155600101611d13565b60e01c90565b600060443d1015611d3d5761104b565b600481823e6308c379a0611d518251611d27565b14611d5b5761104b565b6040513d600319016004823e80513d67ffffffffffffffff8160248401118184111715611d8b575050505061104b565b82840192508251915080821115611da5575050505061104b565b503d83016020828401011115611dbd5750505061104b565b601f01601f191681016020016040529150509056fe455243313135353a207472616e7366657220746f206e6f6e2045524331313535526563656976657220696d706c656d656e746572456e756d657261626c655365743a20696e646578206f7574206f6620626f756e6473455243313135353a204552433131353552656365697665722072656a656374656420746f6b656e73416363657373436f6e74726f6c3a2073656e646572206d75737420626520616e2061646d696e20746f206772616e74455243313135353a2062616c616e636520717565727920666f7220746865207a65726f2061646472657373455243313135353a206275726e20616d6f756e7420657863656564732062616c616e6365416363657373436f6e74726f6c3a2073656e646572206d75737420626520616e2061646d696e20746f207265766f6b655374616b696e67204944206e6f7420616c6c6f7765642c206d75737420626520312c2032206f722033496e697469616c697a61626c653a20636f6e747261637420697320616c726561647920696e697469616c697a6564455243313135353a206275726e2066726f6d20746865207a65726f20616464726573734d6574686f64207361666542617463685472616e7366657246726f6d2064697361626c65649f2df0fed2c77648de5860a4cc508cd0818c85b8b8a1ab4ceeef8d981c8956a6455243313135353a2073657474696e6720617070726f76616c2073746174757320666f722073656c66455243313135353a206163636f756e747320616e6420696473206c656e677468206d69736d61746368455243313135353a206d696e7420746f20746865207a65726f2061646472657373416363657373436f6e74726f6c3a2063616e206f6e6c792072656e6f756e636520726f6c657320666f722073656c66a2646970667358221220ddf120dcf9924c227429081d9eb4d432cc5f9954ece0a72a3217a209d2bb410064736f6c63430007060033",
  "devdoc": {
    "details": "Extends Initializable, ERC1155Upgradeable",
    "kind": "dev",
    "methods": {
      "balanceOf(address,uint256)": {
        "details": "See {IERC1155-balanceOf}. Requirements: - `account` cannot be the zero address."
      },
      "balanceOfBatch(address[],uint256[])": {
        "details": "See {IERC1155-balanceOfBatch}. Requirements: - `accounts` and `ids` must have the same length."
      },
      "burn(address,uint256)": {
        "params": {
          "account": "the owner of the tokens",
          "stakingId": "The medal identifier"
        }
      },
      "getLevelOfStaker(address)": {
        "params": {
          "account": "Staker address"
        },
        "returns": {
          "_0": "level of the staker, 1, 2 or 3. 0 if nothing"
        }
      },
      "getRoleAdmin(bytes32)": {
        "details": "Returns the admin role that controls `role`. See {grantRole} and {revokeRole}. To change a role's admin, use {_setRoleAdmin}."
      },
      "getRoleMember(bytes32,uint256)": {
        "details": "Returns one of the accounts that have `role`. `index` must be a value between 0 and {getRoleMemberCount}, non-inclusive. Role bearers are not sorted in any particular way, and their ordering may change at any point. WARNING: When using {getRoleMember} and {getRoleMemberCount}, make sure you perform all queries on the same block. See the following https://forum.openzeppelin.com/t/iterating-over-elements-on-enumerableset-in-openzeppelin-contracts/2296[forum post] for more information."
      },
      "getRoleMemberCount(bytes32)": {
        "details": "Returns the number of accounts that have `role`. Can be used together with {getRoleMember} to enumerate all bearers of a role."
      },
      "grantRole(bytes32,address)": {
        "details": "Grants `role` to `account`. If `account` had not been already granted `role`, emits a {RoleGranted} event. Requirements: - the caller must have ``role``'s admin role."
      },
      "hasRole(bytes32,address)": {
        "details": "Returns `true` if `account` has been granted `role`."
      },
      "isApprovedForAll(address,address)": {
        "details": "See {IERC1155-isApprovedForAll}."
      },
      "mint(address,uint256)": {
        "params": {
          "stakingId": "The medal identifier",
          "to": "The address to mint the tokens to."
        }
      },
      "renounceRole(bytes32,address)": {
        "details": "Revokes `role` from the calling account. Roles are often managed via {grantRole} and {revokeRole}: this function's purpose is to provide a mechanism for accounts to lose their privileges if they are compromised (such as when a trusted device is misplaced). If the calling account had been granted `role`, emits a {RoleRevoked} event. Requirements: - the caller must be `account`."
      },
      "revokeRole(bytes32,address)": {
        "details": "Revokes `role` from `account`. If `account` had been granted `role`, emits a {RoleRevoked} event. Requirements: - the caller must have ``role``'s admin role."
      },
      "safeBatchTransferFrom(address,address,uint256[],uint256[],bytes)": {
        "details": "Method disabled MUST revert Method disabled",
        "params": {
          "_data": "Additional data with no specified format, MUST be sent unaltered in call to the `ERC1155TokenReceiver` hook(s) on `_to`",
          "_from": "Source address",
          "_ids": "IDs of each token type (order and length must match _values array)",
          "_to": "Target address",
          "_values": "Transfer amounts per token type (order and length must match _ids array)"
        }
      },
      "safeTransferFrom(address,address,uint256,uint256,bytes)": {
        "details": "Method disabled MUST revert Method disabled.",
        "params": {
          "_data": "Additional data with no specified format, MUST be sent unaltered in call to `onERC1155Received` on `_to`",
          "_from": "Source address",
          "_id": "ID of the token type",
          "_to": "Target address",
          "_value": "Transfer amount"
        }
      },
      "setApprovalForAll(address,bool)": {
        "details": "See {IERC1155-setApprovalForAll}."
      },
      "supportsInterface(bytes4)": {
        "details": "See {IERC165-supportsInterface}. Time complexity O(1), guaranteed to always use less than 30 000 gas."
      },
      "uri(uint256)": {
        "details": "See {IERC1155MetadataURI-uri}. This implementation returns the same URI for *all* token types. It relies on the token type ID substitution mechanism https://eips.ethereum.org/EIPS/eip-1155#metadata[defined in the EIP]. Clients calling this function must replace the `\\{id\\}` substring with the actual token type ID."
      }
    },
    "title": "Alliance Block StakerMedalNFT",
    "version": 1
  },
  "userdoc": {
    "kind": "user",
    "methods": {
      "burn(address,uint256)": {
        "notice": "Burns tokens"
      },
      "getLevelOfStaker(address)": {
        "notice": "Get the level of some staker address"
      },
      "initialize()": {
        "notice": "Initializes the contract"
      },
      "mint(address,uint256)": {
        "notice": "Mint tokens"
      },
      "safeBatchTransferFrom(address,address,uint256[],uint256[],bytes)": {
        "notice": "Transfers `_values` amount(s) of `_ids` from the `_from` address to the `_to` address specified (with safety call)."
      },
      "safeTransferFrom(address,address,uint256,uint256,bytes)": {
        "notice": "Transfers `_value` amount of an `_id` from the `_from` address to the `_to` address specified (with safety call)."
      }
    },
    "notice": "NFTs that will be held by users as a Medals",
    "version": 1
  },
  "storageLayout": {
    "storage": [
      {
        "astId": 890,
        "contract": "contracts/NFTs/StakerMedalNFT.sol:StakerMedalNFT",
        "label": "_initialized",
        "offset": 0,
        "slot": "0",
        "type": "t_bool"
      },
      {
        "astId": 893,
        "contract": "contracts/NFTs/StakerMedalNFT.sol:StakerMedalNFT",
        "label": "_initializing",
        "offset": 1,
        "slot": "0",
        "type": "t_bool"
      },
      {
        "astId": 2584,
        "contract": "contracts/NFTs/StakerMedalNFT.sol:StakerMedalNFT",
        "label": "__gap",
        "offset": 0,
        "slot": "1",
        "type": "t_array(t_uint256)50_storage"
      },
      {
        "astId": 46,
        "contract": "contracts/NFTs/StakerMedalNFT.sol:StakerMedalNFT",
        "label": "_roles",
        "offset": 0,
        "slot": "51",
        "type": "t_mapping(t_bytes32,t_struct(RoleData)42_storage)"
      },
      {
        "astId": 309,
        "contract": "contracts/NFTs/StakerMedalNFT.sol:StakerMedalNFT",
        "label": "__gap",
        "offset": 0,
        "slot": "52",
        "type": "t_array(t_uint256)49_storage"
      },
      {
        "astId": 458,
        "contract": "contracts/NFTs/StakerMedalNFT.sol:StakerMedalNFT",
        "label": "_supportedInterfaces",
        "offset": 0,
        "slot": "101",
        "type": "t_mapping(t_bytes4,t_bool)"
      },
      {
        "astId": 515,
        "contract": "contracts/NFTs/StakerMedalNFT.sol:StakerMedalNFT",
        "label": "__gap",
        "offset": 0,
        "slot": "102",
        "type": "t_array(t_uint256)49_storage"
      },
      {
        "astId": 1116,
        "contract": "contracts/NFTs/StakerMedalNFT.sol:StakerMedalNFT",
        "label": "_balances",
        "offset": 0,
        "slot": "151",
        "type": "t_mapping(t_uint256,t_mapping(t_address,t_uint256))"
      },
      {
        "astId": 1122,
        "contract": "contracts/NFTs/StakerMedalNFT.sol:StakerMedalNFT",
        "label": "_operatorApprovals",
        "offset": 0,
        "slot": "152",
        "type": "t_mapping(t_address,t_mapping(t_address,t_bool))"
      },
      {
        "astId": 1124,
        "contract": "contracts/NFTs/StakerMedalNFT.sol:StakerMedalNFT",
        "label": "_uri",
        "offset": 0,
        "slot": "153",
        "type": "t_string_storage"
      },
      {
        "astId": 2117,
        "contract": "contracts/NFTs/StakerMedalNFT.sol:StakerMedalNFT",
        "label": "__gap",
        "offset": 0,
        "slot": "154",
        "type": "t_array(t_uint256)47_storage"
      }
    ],
    "types": {
      "t_address": {
        "encoding": "inplace",
        "label": "address",
        "numberOfBytes": "20"
      },
      "t_array(t_bytes32)dyn_storage": {
        "base": "t_bytes32",
        "encoding": "dynamic_array",
        "label": "bytes32[]",
        "numberOfBytes": "32"
      },
      "t_array(t_uint256)47_storage": {
        "base": "t_uint256",
        "encoding": "inplace",
        "label": "uint256[47]",
        "numberOfBytes": "1504"
      },
      "t_array(t_uint256)49_storage": {
        "base": "t_uint256",
        "encoding": "inplace",
        "label": "uint256[49]",
        "numberOfBytes": "1568"
      },
      "t_array(t_uint256)50_storage": {
        "base": "t_uint256",
        "encoding": "inplace",
        "label": "uint256[50]",
        "numberOfBytes": "1600"
      },
      "t_bool": {
        "encoding": "inplace",
        "label": "bool",
        "numberOfBytes": "1"
      },
      "t_bytes32": {
        "encoding": "inplace",
        "label": "bytes32",
        "numberOfBytes": "32"
      },
      "t_bytes4": {
        "encoding": "inplace",
        "label": "bytes4",
        "numberOfBytes": "4"
      },
      "t_mapping(t_address,t_bool)": {
        "encoding": "mapping",
        "key": "t_address",
        "label": "mapping(address => bool)",
        "numberOfBytes": "32",
        "value": "t_bool"
      },
      "t_mapping(t_address,t_mapping(t_address,t_bool))": {
        "encoding": "mapping",
        "key": "t_address",
        "label": "mapping(address => mapping(address => bool))",
        "numberOfBytes": "32",
        "value": "t_mapping(t_address,t_bool)"
      },
      "t_mapping(t_address,t_uint256)": {
        "encoding": "mapping",
        "key": "t_address",
        "label": "mapping(address => uint256)",
        "numberOfBytes": "32",
        "value": "t_uint256"
      },
      "t_mapping(t_bytes32,t_struct(RoleData)42_storage)": {
        "encoding": "mapping",
        "key": "t_bytes32",
        "label": "mapping(bytes32 => struct AccessControlUpgradeable.RoleData)",
        "numberOfBytes": "32",
        "value": "t_struct(RoleData)42_storage"
      },
      "t_mapping(t_bytes32,t_uint256)": {
        "encoding": "mapping",
        "key": "t_bytes32",
        "label": "mapping(bytes32 => uint256)",
        "numberOfBytes": "32",
        "value": "t_uint256"
      },
      "t_mapping(t_bytes4,t_bool)": {
        "encoding": "mapping",
        "key": "t_bytes4",
        "label": "mapping(bytes4 => bool)",
        "numberOfBytes": "32",
        "value": "t_bool"
      },
      "t_mapping(t_uint256,t_mapping(t_address,t_uint256))": {
        "encoding": "mapping",
        "key": "t_uint256",
        "label": "mapping(uint256 => mapping(address => uint256))",
        "numberOfBytes": "32",
        "value": "t_mapping(t_address,t_uint256)"
      },
      "t_string_storage": {
        "encoding": "bytes",
        "label": "string",
        "numberOfBytes": "32"
      },
      "t_struct(AddressSet)2861_storage": {
        "encoding": "inplace",
        "label": "struct EnumerableSetUpgradeable.AddressSet",
        "members": [
          {
            "astId": 2860,
            "contract": "contracts/NFTs/StakerMedalNFT.sol:StakerMedalNFT",
            "label": "_inner",
            "offset": 0,
            "slot": "0",
            "type": "t_struct(Set)2596_storage"
          }
        ],
        "numberOfBytes": "64"
      },
      "t_struct(RoleData)42_storage": {
        "encoding": "inplace",
        "label": "struct AccessControlUpgradeable.RoleData",
        "members": [
          {
            "astId": 39,
            "contract": "contracts/NFTs/StakerMedalNFT.sol:StakerMedalNFT",
            "label": "members",
            "offset": 0,
            "slot": "0",
            "type": "t_struct(AddressSet)2861_storage"
          },
          {
            "astId": 41,
            "contract": "contracts/NFTs/StakerMedalNFT.sol:StakerMedalNFT",
            "label": "adminRole",
            "offset": 0,
            "slot": "2",
            "type": "t_bytes32"
          }
        ],
        "numberOfBytes": "96"
      },
      "t_struct(Set)2596_storage": {
        "encoding": "inplace",
        "label": "struct EnumerableSetUpgradeable.Set",
        "members": [
          {
            "astId": 2591,
            "contract": "contracts/NFTs/StakerMedalNFT.sol:StakerMedalNFT",
            "label": "_values",
            "offset": 0,
            "slot": "0",
            "type": "t_array(t_bytes32)dyn_storage"
          },
          {
            "astId": 2595,
            "contract": "contracts/NFTs/StakerMedalNFT.sol:StakerMedalNFT",
            "label": "_indexes",
            "offset": 0,
            "slot": "1",
            "type": "t_mapping(t_bytes32,t_uint256)"
          }
        ],
        "numberOfBytes": "64"
      },
      "t_uint256": {
        "encoding": "inplace",
        "label": "uint256",
        "numberOfBytes": "32"
      }
    }
  }
}